:10266E0043059F6868004305A26D6D004205410059
:10267E00004205B60000420598000042059C00008D
:10268E0044053C68686D6D4405AD42FE0000410591
:10269E00401E4405A5000000004204E00000440472
:0526AE00E468686D6D99
:03000B00020009E7
:0100090032C4
:100B0E009003917401F0E4A3F0A3F0A3F0A3F0A37B
:100B1E00F0A3F09003B3F0A3F09003B7121D1500ED
:100B2E00000000D200D203C202C201E4900000F025
:100B3E00A3F01247231247DF7F057E00124ABCE462
:100B4E00F5B175B2FF75B04C124839124CF9124D11
:100B5E0006124B8D438E80E4F58A758CB8F589D2DA
:100B6E008CD2A9D2AF7D067F12124C027FF47E0189
:100B7E00124BAC7D05E4FF124C027FF47E01124B4A
:100B8E00AC7F017E00124C477F681246897F681247
:100B9E0046897F6D1246897F6D1246897F231246E4
:100BAE0089E49003B5F0A3F09003B5E0FAA3E0FB5F
:100BBE00D39414EA648094805074EBAE027802C32E
:100BCE0033CE33CED8F924E8F58274043EF5831281
:100BDE001D1500000000AD03AC02EC121843E4FB3F
:100BEE00FAF97840121717E4FBFA79E078401215FB
:100BFE001DC004C005C006C0079003B5E0FEA3E00B
:100C0E007802C333CE33CED8F92443F58274053E31
:100C1E00F583D007D006D005D004121D099003B677
:100C2E00E004F070839003B5E004F0020BB61230CE
:100C3E00237F0812496A7F0512496A7F501246893E
:100C4E007F4F1246897F531246897F3A124689900A
:100C5E0005ADE0FCA3E0FDA3E0FEA3E0FF123AB277
:100C6E007F6D1246897F6D1246897F027E00124C7F
:100C7E004790059BE0FF124BCA7F3A1246899005BA
:100C8E009EE0FF124BCA7F3A1246899005B5E0549A
:100C9E007FFF124BCA7F3B124689900597E0FF12E9
:100CAE004BCA90059AE0FF124BCA7F3B12468990C1
:100CBE000000E07002A3E060047F41800C90000011
:100CCE00E07002A3E070057F4D12468930023F901E
:100CDE000000E07002A3E07035A20392067F30FEA2
:100CEE001249AA9005ADE0FCA3E0FDA3E0FEA3E04F
:100CFE00FF7BCD7ACC79CC300304783E800278BE6F
:100D0E0012151D9005AD121D09E4900391F03001EE
:100D1E0041900000E07002A3E07037A20392067FBC
:100D2E0030FE1249AA9005ADE0FCA3E0FDA3E0FE63
:100D3E00A3E0FF7BCD7ACC79CC300304783E8002E1
:100D4E0078BE12151D9005AD121D09E4900391F0A9
:100D5E00C20130A335900391E0702FFFFEFDFC9091
:100D6E0005ADE0F8A3E0F9A3E0FAA3E0FB1217B497
:100D7E00600250169005AD121D1500000000900384
:100D8E00917401F0C202C201D203124D1E9005B140
:100D9E00E0A3F090059BE09005B1F09005B3E0A3C1
:100DAE00F090059EE09005B3F09003BE7401F0A3A1
:100DBE007405F0A3749AF0A37401F0A37405F0A364
:100DCE00749BF0A37401F0A37405F0A3749EF0A3BA
:100DDE007401F0A37405F0A374B5F07B017A057964
:100DEE0097124770900000E07002A3E070030214A7
:100DFE00F07F02124A5890038FEEF0A3EFF09005A9
:100E0E00B4E0FE9005B3E06E60030214F090059E10
:100E1E00E0FFEE6F60030214F090059BE0FE90057C
:100E2E00B1E0FD6E60030214F0A3E06D60030214E6
:100E3E00F0900392E07002A3E060030211B7124B30
:100E4E00F1900540E0FEEF8EF084E5F060030210B5
:100E5E00C19005B5E0547FFF124BF1EF6003021015
:100E6E00C1C390038FE0940250030210C190059B02
:100E7E00E0FF124BF1EFD3941040030210AD90053A
:100E8E009BE0FF124BF1EFC3940750030210AD909D
:100E9E00059EE0FF124BF1AC07E4121848E4FBFA92
:100EAE0079707842121717C004C005C006C00790AB
:100EBE00059BE0FF124BF1AC07E4121848D003D0AB
:100ECE0002D001D00012151DE4FBFA79E078C012B1
:100EDE00151DE4FBFA7970784212160EC004C00597
:100EEE00C006C007900540E0FCE4121848A804A90B
:100EFE0005AA06AB07D007D006D005D004121717E7
:100F0E0012187C900598EEF0A3EFF0900597E0FF95
:100F1E0090059AE0FD90059EE09003BEF09005B519
:100F2E00E09003BFF0A37401F0A37405F0A374ADB9
:100F3E00F0A37401F0A37403F0A37496F0A37401EC
:100F4E00F0A37403F0A374B7F0A37401F0A37403B9
:100F5E00F0A37494F090059BE0FB12393BC004C0E3
:100F6E0005C006C007900598E0FEA3E07802C333E3
:100F7E00CE33CED8F924E8F58274043EF583D0073B
:100F8E00D006D005D004121D09900597E09003A855
:100F9E00F090059AE09003A9F090059BE09003AACB
:100FAE00F090059EE09003ABF0900396E0FEA3E078
:100FBE007802CEC313CE13D8F99003ACF09005ADE2
:100FCE00E0FCA3E0FDA3E0FEA3E0FF12187C90037B
:100FDE00ADEFF0FCE4121848A804A905AA06AB0769
:100FEE009005ADE0FCA3E0FDA3E0FEA3E0FF12152B
:100FFE0019E4FBFA79C8784212160E12187C900387
:10100E00AEEFF090038FE0FEA3E07802CEC313CED6
:10101E0013D8F99003AFF0900394E0FEA3E07802AA
:10102E00CEC313CE13D8F99003B0F09003B7E0FC03
:10103E00A3E0FDA3E0FEA3E0FF12187C9003B1EF46
:10104E00F0FCE4121848A804A905AA06AB07900301
:10105E00B7E0FCA3E0FDA3E0FEA3E0FF121519E448
:10106E00FBFA79C8784212160E12187C9003B2EF72
:10107E00F07F327E00124ABC78BB7C037D017B017F
:10108E007A0379A87E007F0B121A1A9003C6740198
:10109E00F0A37405F0A374A5F01234940214F0902A
:1010AE00059BE0FF124BF1EFC3941150030214F0B5
:1010BE0002131B90059BE0FF124BF1EFD3941040EF
:1010CE00030214F090059BE0FF124BF1EFC394075F
:1010DE0050030214F090059EE0FF124BF1AC07E4B2
:1010EE00121848E4FBFA79707842121717C004C040
:1010FE0005C006C00790059BE0FF124BF1AC07E45C
:10110E00121848D003D002D001D00012151DE4FBF6
:10111E00FA79E078C012151DE4FBFA797078421264
:10112E00160EC004C005C006C007900540E0FCE4E2
:10113E00121848A804A905AA06AB07D007D006D0F6
:10114E0005D00412171712187C900598EEF0A3EF35
:10115E00F090059EE09003DBF09005B5E09003DC87
:10116E00F0A37401F0A37405F0A374ADF09005988C
:10117E00E0FEA3E07802C333CE33CED8F924E8F5EF
:10118E008274043EF583E0FCA3E0FDA3E0FEA3E041
:10119E00FF9003E0121D0990059BE0FB90059AE07D
:1011AE00FD900597E0FF0214ED90059EE0FF124BB7
:1011BE00F1900540E0FEEF8EF084E5F0600302133F
:1011CE00269005B5E0547FFF124BF1EF600302133A
:1011DE0026C390038FE09402500302132690059BC2
:1011EE00E0FF124BF1EFD39410400302130A900567
:1011FE009BE0FF124BF1EFC39407500302130A90CA
:10120E00059EE0FF124BF1AC07E4121848E4FBFA1E
:10121E0079707842121717C004C005C006C0079037
:10122E00059BE0FF124BF1AC07E4121848D003D037
:10123E0002D001D00012151DE4FBFA79E078C0123D
:10124E00151DE4FBFA7970784212160EC004C00523
:10125E00C006C007900540E0FCE4121848A804A997
:10126E0005AA06AB07D007D006D005D00412171773
:10127E0012187C900598EEF0A3EFF0900597E0FF22
:10128E0090059AE0FD90059EE09003BEF09005B5A6
:10129E00E09003BFF0A37401F0A37405F0A374AD46
:1012AE00F0A37401F0A37403F0A37496F0A3740179
:1012BE00F0A37403F0A374B7F0A37401F0A3740346
:1012CE00F0A37494F090059BE0FB12393BC004C070
:1012DE0005C006C007900598E0FEA3E07802C33370
:1012EE00CE33CED8F924E8F58274043EF583D007C8
:1012FE00D006D005D004121D090214F090059BE013
:10130E00FF124BF1EFC3941150030214F0900392AD
:10131E00E4F0A304F00214F090059BE0FF124BF1F1
:10132E00EFD3941040030214F090059BE0FF124B94
:10133E00F1EFC3940750030214F090059EE0FF12E4
:10134E004BF1AC07E4121848E4FBFA7970784212BC
:10135E001717C004C005C006C00790059BE0FF121A
:10136E004BF1AC07E4121848D003D002D001D000E4
:10137E0012151DE4FBFA79E078C012151DE4FBFA94
:10138E007970784212160EC004C005C006C00790D0
:10139E000540E0FCE4121848A804A905AA06AB070C
:1013AE00D007D006D005D00412171712187C90055E
:1013BE0098EEF0A3EFF0900598E0FEA3E07802C35C
:1013CE0033CE33CED8F9FBAA062443F58274053A00
:1013DE00F583E0FCA3E0FDA3E0FEA3E0FF900398FD
:1013EE00121D0974E82BF58274043AF583E0FCA310
:1013FE00E0FDA3E0FEA3E0FF90039C121D09900503
:10140E0098E0FEA3E07802C333CE33CED8F9FBAA20
:10141E00062447F58274053AF583E0FCA3E0FDA3AC
:10142E00E0FEA3E0FF9003A0121D0974EC2BF582E1
:10143E0074043AF583E0FCA3E0FDA3E0FEA3E0FF15
:10144E009003A4121D0990059EE0FF124BF1AC070C
:10145E00E4121848E4FBFA79707842121717C004A8
:10146E00C005C006C00790059BE0FF124BF1AC070C
:10147E00E4121848D003D002D001D00012151D90EE
:10148E000487121D0978777C047D017B017A03792C
:10149E00987E007F08121A1A787F7C047D017B01EA
:1014AE007A0379A07E007F08121A1A124056900312
:1014BE00E0121D09900597E0FF90059AE0FD90055A
:1014CE009EE09003DBF09005B5E09003DCF0A37492
:1014DE0001F0A37405F0A374ADF090059BE0FB1230
:1014EE00000E90059BE0FF124BF1EFD394105013BA
:1014FE0090059BE0FF124BF1EFC394074005D2CD50
:08150E00020C3CC2CD020C3CB2
:0444E400AB07AA0672
:1044E8007C007D0A121AAA900632EDF07C037DE862
:1044F800AF03AE02121AAA900635EFF07E007C03D5
:104508007DE8121A98C3EB9FFFEA9EFE7C007D644B
:10451800121AAA900634EFF0A3E0FF7E007C037D18
:10452800E8121A98C3EB9FFDEA9EFC900634E075EA
:10453800F064A4FFC3ED9FFFEC95F0FE7C007D0ABC
:10454800121AAA900633EFF0900635E04430FF12B5
:104558004689900634E04430FF124689900633E0DD
:104568004430FF124689900632E04430FF124689F3
:014578002220
:063AB200900462121D09E0
:103AB800900462E0FCA3E0FDA3E0FEA3E0FF12187F
:103AC8007C124D1290046AEEF0A3EFF0E4FFFEFDC5
:103AD800FC900462E0F8A3E0F9A3E0FAA3E0FB128B
:103AE80017B46026402490046AE0FCA3E0FDEC12C1
:103AF8001843A804A905AA06AB07900462E0FCA332
:103B0800E0FDA3E0FEA3E0FF8035900462E0FCA3A3
:103B1800E0FDA3E0FEA3E0FF12182DC004C005C01D
:103B280006C00790046AE0FCA3E0FDEC121843A865
:103B380004A905AA06AB07D007D006D005D0041201
:103B48001519E4FBFA7920784112160E12187C90A8
:103B58000469EFF090046AE0FAA3E0FB7C007D0AB8
:103B6800FFAE02121AFF900466EDF07C037DE8AF09
:103B780003AE02121AFFAB077E007C037DE8121A1F
:103B880098C390046BE09FFF90046AE09EFE7C005F
:103B98007D64121AAA900468EFF0AF037E007C03DC
:103BA8007DE8121A98C390046BE09FFD90046AE0C8
:103BB8009EFC900468E075F064A4FFC3ED9FFFECE1
:103BC80095F0FE7C007D0A121AAA900467EFF0E4D3
:103BD800FFFEFDFC900462E0F8A3E0F9A3E0FAA37D
:103BE800E0FB1217B4400280057F2D12468990042D
:103BF80068E04430FF124689900467E04430FF12C1
:103C08004689900466E04430FF1246897F2E1246AA
:0B3C180089900469E04430FF124689E7
:013C2300227E
:064C7100D2A27F017E00CB
:0E4C7700EF1FAC0670011E4C60030080F3229C
:024B4D00AD07B2
:104B4F00E4FBC2A2ED30E704D2A18002C2A1124C55
:0D4B5F0073124C71ED25E0FD0BEBB408E581
:014B6C002226
:104B6D00E4FDD2A1FBED25E0FDC2A2124C7330A1F4
:0F4B7D0004ED4401FD124C710BEBB408E8AF05D9
:014B8C002206
:104C9900E4FED2A0EF44A0FF124B4D124B6DC2A00F
:014CA90022E8
:104C0200AA07D2A0ED4420FF124B4DAF02124B4D2A
:084C1200AF02124B4DC2A022BB
:0D4CF9005395F85396F8D2A0C2A0C2A22293
:104770009003BBEBF0A3EAF0A3E9F07F09124C9998
:104780009003BBE0FBA3E0FAA3E0F9EF121A867FE7
:1047900007124C999003BEE0FBA3E0FAA3E0F9EF07
:1047A000121A867F06124C999003C1E0FBA3E0FA2F
:1047B000A3E0F9EF121A867F05124C999003C4E02A
:1047C000FBA3E0FAA3E0F9EF121A867F04124C99DA
:0F47D0009003C7E0FBA3E0FAA3E0F9EF021A861B
:104CAA00EFC4540FFEEF540FFFEE75F00AA42FFF66
:014CBA0022D7
:10460500124CAAAC07AF05124CAAEC14B40C00501E
:104615007290462475F003A4C58325F0C583730203
:10462500464802464B02465002465502465A024645
:104635005F02466402466902466E02467602467B82
:104645000246807E0022EF241F8021EF243B801C40
:10465500EF245A8017EF24788012EF2497800DEF0E
:1046650024B58008EF24D48003EF24F3FFE433FE60
:1046750022EF24118008EF24308003EF244EFFE45D
:034685003401FEFF
:01468800220F
:104CBB00759850438E9575D7D875D6FFD2ACD2AFB9
:014CCB0022C6
:104A2500900636EBF0A3EAF0A3E9F0900636E0FB3A
:104A3500A3E0FAA3E0F9121A406017900636A3E442
:104A450075F001121B35A9F0FA121A40FF12000089
:034A550080D922E3
:06000300EFC4540FFF22C0
:054D3800EF540FFF2203
:01000A0022D3
:054D3D00EF2430FF220D
:104C1A00123F58EF75F00A84FEEF75F00A84AFF080
:064C2A00EEC454F04FFF40
:014C30002261
:10483900E4F5917592FF7F96FE124B2F7F03124983
:104849006A7F1E7E00124B2F7F0312496A124B2B7F
:104859007F0312496A124B2B7F0212496A7F017E3C
:1048690000124B2F7F0212496A7F0812496AE4FF3E
:1048790012496A7F0E12496AE4FF12496A7F0612D9
:09488900496A7F147E00024B2FE6
:1046890090046CEFF0D2C0C2B2E0FF5480C413139F
:1046990013540124FF92B7EF5440C4131354032455
:1046A900FF92B6E0FF5420C413540724FF92B5EFDC
:1046B9005410C4540F24FF92B4D2B37F017E001268
:1046C9004B2FC2B390046CE0FF5408131313541F0B
:1046D90024FF92B7EF54041313543F24FF92B6E01A
:1046E900FF5402C31324FF92B5EF1392B4124B295E
:0546F900C2B3C2C022A3
:10496A00C2C0C2B2EF5408131313541F6004D2B763
:10497A008002C2B7EF54041313543F6004D2B680C6
:10498A0002C2B6EF5402C3136004D2B58002C2B5A4
:10499A00EF30E004D2B48002C2B4124B29C2B3226F
:064B2900D2B37F0A7E00FA
:104B2F00EF1FAA0670011E4A6013E4FCFDC3ED944B
:0D4B3F0058EC940250EA0DBD00010C80F00E
:014B4C002246
:104BCA00EFC4540F4430FEEF540F44309003BBF04F
:0D4BDA00AF061246899003BBE0FF0246893A
:0A4D1E00E4FF12496A7F0202496AAD
:0A4D2800E4FF12496A7F0102496AA4
:104C4700EF64014E70047F0880027F0C12496AE40A
:054C5700FF12496A2272
:1026B300C102C101C103C104C18042061C0000451F
:0726C300062068686D6D73CD
:104BAC00EF1FAA0670011E4A6013E4FCFDC3ED94CE
:0D4BBC0058EC940250EA0DBD00010C80F091
:014BC90022C9
:1036260053801E43801EE58044E19003C1F0E0F420
:1036360070030237B0E58044E1F0E0F4700302372E
:10364600AD5380DF4380C1E58044E1F0E0F460479C
:103656009003C1E0FFF4600DA3EFF0E58044E19034
:1036660003C1F080EB9003C2E02411602424F860CB
:103676001824FC600C24FE701E9003C37401F080B5
:10368600169003C37404F0800E9003C37407F08091
:10369600069003C3740CF05380BF4380A1E58044B9
:1036A600E19003C1F0E0F460469003C1E0FFF460EE
:1036B6000DA3EFF0E58044E19003C1F080EB9003A9
:1036C600C2E02411602424F8601824FC600C24FE57
:1036D600701D9003C37402F080159003C37405F047
:1036E600800D9003C37408F08005E49003C3F05383
:1036F600807F438061E58044E19003C1F0E0F4609F
:10370600479003C1E0FFF4600DA3EFF0E58044E1CC
:103716009003C1F080EB9003C2E02411602424F8EA
:10372600601824FC600C24FE701E9003C37403F022
:1037360080169003C37406F0800E9003C37409F0DC
:1037460080069003C3740BF05380FE4380E0E5804F
:1037560044E19003C1F0E0F460479003C1E0FFF458
:10376600600DA3EFF0E58044E19003C1F080EB909B
:1037760003C2E02411602424F8601824FC600C24A1
:10378600FE701E9003C3740DF080169003C3740E72
:10379600F0800E9003C3740FF080069003C374107C
:0C37A600F09003C3E0FF227F64227F64E8
:0137B20022F4
:1030230090061FE090061EF012362690061FEFF062
:10303300BF0E03D2012290061EE0FFB4640EA3E08C
:10304300B40F09300303C20322D2032290061FE008
:10305300FEB41006200203D20222EEB410063002A0
:1030630003C20222EFB4641FEEB40D1B900000E014
:103073007002A3E06008E4900000F0A3F022900047
:1030830000E4F0A304F02290061EE06464600302EF
:1030930032C2A3E0FF646470030232C290061CE0F4
:1030A300FCA3E02420F58274063CF583EFF0900640
:1030B3001DE004F0700690061CE004F090061CE08E
:1030C3007004A3E06405600302326190061CF0A360
:1030D300F0900620E075F00AA4FFA3E0F97C002F2E
:1030E300FFEC35F0AD07FCA3E075F00AA4FFA3E005
:1030F3007A002FFFEA35F0FEA3E0640B7036D3EDC0
:103103009418EC64809480502BEF943BEE6480948D
:10311300805021900620E0C454F0FFE94FFF7D0664
:10312300124C02900622E0C454F0FFA3E04FFF7D4F
:1031330005124C02900620E075F00AA4FFA3E07C80
:10314300002FFEEC35F09003BDF0A3CEF0900622E5
:10315300E075F00AA4FFA3E02FFEEC35F09003BF67
:10316300F0A3CEF0900624E0640C600302323B909F
:1031730003BDE0FEA3E0FFD3940CEE648094804093
:103183000302323BEF9407EE6480948050517D023A
:10319300121AFFED4C6016D39003C0E0941F900306
:1031A300BFE064809480400302323B80699003BD9A
:1031B300E07004A3E064027013D39003C0E0941C96
:1031C3009003BFE064809480506E804AD39003C024
:1031D300E0941E9003BFE064809480505B8037903E
:1031E30003BDE0FEA3E0FF7C007D02121AFFED4C5D
:1031F3007013D39003C0E0941F9003BFE0648094E6
:103203008050358011D39003C0E0941E9003BFE03B
:10321300648094805022900620E0C454F0FFA3E021
:103223004FFF7D09124C02900622E0C454F0FFA325
:10323300E04FFF7D07124C02124D287F0812496AA6
:10324300E4FF12496A7F681246897F681246897FC4
:103253006D1246897F6D1246897F23124689E49059
:1032630003BBF0A3F090061CE0FEA3E0FFC39003B2
:10327300BCE09FEE6480F89003BBE0648098503F0D
:10328300EF9404EE6480948050257F0812496A907D
:1032930003BBA3E0FF12496A9003BBE0FEA3E02453
:1032A30020F58274063EF583E04430FF1246899090
:0F32B30003BCE004F070AE9003BBE004F080A613
:0132C20022E9
:0C4D0600759300759400E4F594F5932279
:1026CA006028010B43340000433E000043480000E9
:1026DA0043520000435C0000436600004370000060
:1026EA00437A00004382000043870000602800A06C
:1026FA0043340000432A0000432000004316000030
:10270A00430C00004302000042F0000042DC0000DB
:10271A0042C8000042B400006258013342EFA3D716
:10272A0042EF385242EDB33342ECC28F42EAE148FB
:10273A0042E8385242E03D7142D170A4429B75C3CF
:10274A0042BEA8F642D5F0A442D5C7AE42D433332E
:10275A0042D08F5C42CAD70A42C1F5C342B2947BC7
:10276A004290051F41F428F6C2AC4CCD42BD051F6C
:10277A0042BC2E1442B9385242B3947B42AB947B8A
:10278A00429C4CCD428338524221F5C3C17051EC70
:10279A00C2DB385242A3E66642A2BD71429E3D7137
:1027AA00429675C3428ADC29426BD70A422B3333DD
:1027BA004143851FC22FAE14C2EEF5C3428A6B8510
:1027CA004288A8F642834CCD42728F5C4252CCCDED
:1027DA004221E14841AA51ECC130F5C3C27B28F637
:1027EA00C2F9947B425D47AE425A1EB8424E3D71D1
:1027FA004237D70A4214666641B95C293FF851EC60
:10280A00C1F228F6C2959EB8C2FC28F64227EB858B
:10281A004223B8524216333341FBD70A41A628F65F
:10282A0040CE6666C1770A3DC235147BC2A73333F0
:10283A00C2FECCCD41E28F5C41D7EB8541B9851F01
:10284A0041830A3D40C1999AC112E148C1F370A47B
:10285A00C265D70AC2B6199AC2FFA8F64161999A07
:10286A00414E147B410CCCCD00000000C107AE14D0
:10287A00C1BC28F6C22C147BC2884CCDC2C1CCCDB7
:10288A00C2FEAE140000000000000000C0B8000044
:10289A00C142E148C1B55C29C212851FC25AE1484A
:1028AA00C299C28FC2CA9EB8C2FF75C3C162B8526A
:1028BA00C170CCCDC1991EB8C1D2F5C3C210E148CE
:1028CA00C242E148C282F0A4C2A7C7AEC2D22E1445
:1028DA00C2FEFAE1C1E1D70AC1EC51ECC204EB85B0
:1028EA00C21E70A4C240EB85C2705C29C295428F99
:1028FA00C2B5C28FC2D9428FC2FF147BC228851FBC
:10290A00C22C5C29C2397AE1C250A3D7C271666669
:10291A00C28D0A3DC2A56148C2C18F5CC2DF947BE9
:10292A00C2FF851FC25E147BC261999AC26F28F6E4
:10293A00C282051FC28F2E14C2A05C29C2B4C7AEC0
:10294A00C2CBD1ECC2E551ECC2FFE666C28A199A43
:10295A00C28C47AEC290D1ECC2990F5CC2A4614846
:10296A00C2B2947BC2C36148C2D5A3D7C2EA0F5C84
:10297A00C3000F5C603C00CF400CCCCD40DCCCCD1A
:10298A004139999A4182666641A8000041CD999AD7
:10299A0041F33333420C6666421F3333423200003E
:1029AA004244CCCD4257999A426A6666427D333395
:1029BA004288000060A00000C1E1D70AC1EC51ECD6
:1029CA00C204EB85C21E70A4C240EB85C2705C29AA
:1029DA00C295428FC2B5C28FC2D9428FC2FF147B41
:1029EA00C228851FC22C5C29C2397AE1C250A3D7FA
:1029FA00C2716666C28D0A3DC2A56148C2C18F5CBA
:102A0A00C2DF947BC2FF851FC25E147BC261999AA2
:102A1A00C26F28F6C282051FC28F2E14C2A05C297B
:102A2A00C2B4C7AEC2CBD1ECC2E551ECC2FFE66676
:102A3A00C28A199AC28C47AEC290D1ECC2990F5C75
:102A4A00C2A46148C2B2947BC2C36148C2D5A3D7AB
:0C2A5A00C2EA0F5CC3000F5C4100C80022
:0A4BE700121D099003DCE0547FFF6B
:104BF100EFC4540FFEEF540FFFEE75F00AA42FFF20
:014C01002290
:014D4200224E
:104892009000CE30071A7404F07B017A0079C912B5
:1048A20041B17F027E00124BAC9000CE740680189C
:1048B2007405F07B017A0079C91241B17F027E0052
:1048C200124BAC9000CE7407F07B017A0079C912CA
:0A48D20041B17F027E00124BAC22C0
:0849AA0090047BEEF0A3EFF096
:1049B200E4A3F0A3F090047DF0A3F090047BE0FE6A
:1049C200A3E0FFC390047EE09F90047DE09E501719
:1049D200A206920712489290047EE004F070DC90E6
:0749E200047DE004F080D425
:0149E90022AB
:064ADA00900477121D0993
:104AE000E4FFFE7DF07C42900477E0F8A3E0F9A3B8
:104AF000E0FAA3E0FB12160E12187CA20592060241
:024B000049AAC0
:1032C300E0FCA3E0FDA3E0FEA3E0FF900614121DC3
:1032D300099005F4E0FCA3E0FDA3E0FEA3E0FF906A
:1032E3000618121D099005C8E0FCA3E0FDA3E0FE4B
:0332F300A3E0FF56
:1032F6009005F8121D0990060CE0FCA3E0FDA3E082
:10330600FEA3E0FF9005FCE0F8A3E0F9A3E0FAA332
:10331600E0FB12160E900610E0F8A3E0F9A3E0FA1F
:10332600A3E0FB12160EC004C005C006C007900637
:1033360008E0FCA3E0FDA3E0FEA3E0FF9005F8E0B3
:10334600F8A3E0F9A3E0FAA3E0FB12160E90061824
:10335600E0F8A3E0F9A3E0FAA3E0FB12160ED0030F
:10336600D002D001D00012151DC004C005C006C091
:1033760007900604E0FCA3E0FDA3E0FEA3E0FF90B7
:103386000600E0F8A3E0F9A3E0FAA3E0FB12160EAC
:10339600900614E0F8A3E0F9A3E0FAA3E0FB121606
:1033A6000ED003D002D001D00012151DC004C005F6
:1033B600C006C007900608E0FCA3E0FDA3E0FEA35C
:1033C600E0FF900600E0F8A3E0F9A3E0FAA3E0FB33
:1033D60012160E900610E0F8A3E0F9A3E0FAA3E0B7
:1033E600FB12160EA804A905AA06AB07D007D0063D
:1033F600D005D004121519C004C005C006C0079038
:103406000604E0FCA3E0FDA3E0FEA3E0FF9005FCBC
:10341600E0F8A3E0F9A3E0FAA3E0FB12160E90068B
:1034260018E0F8A3E0F9A3E0FAA3E0FB12160EA851
:1034360004A905AA06AB07D007D006D005D004120A
:103446001519C004C005C006C00790060CE0FCA311
:10345600E0FDA3E0FEA3E0FF9005F8E0F8A3E0F9A5
:10346600A3E0FAA3E0FB12160E900614E0F8A3E020
:10347600F9A3E0FAA3E0FB12160EA804A905AA0612
:0E348600AB07D007D006D005D00412151922CE
:102D63009005B8121D099005D0E0FCA3E0FDA3E097
:102D7300FEA3E0FF9005FC121D099005D4E0FCA31F
:102D8300E0FDA3E0FEA3E0FF900600121D099005FD
:102D9300D8E0FCA3E0FDA3E0FEA3E0FF900604124D
:102DA3001D099005E0E0FCA3E0FDA3E0FEA3E0FF26
:102DB300900608121D099005E4E0FCA3E0FDA3E0E2
:102DC300FEA3E0FF90060C121D099005E8E0FCA3AA
:102DD300E0FDA3E0FEA3E0FF900610121D0990059D
:102DE300F01232C39005BCE0F8A3E0F9A3E0FAA324
:102DF300E0FB12160EC004C005C006C0079005D044
:102E0300E0FCA3E0FDA3E0FEA3E0FF9005FC121DA0
:102E1300099005D4E0FCA3E0FDA3E0FEA3E0FF904E
:102E23000600121D099005DCE0FCA3E0FDA3E0FE13
:102E3300A3E0FF900604121D099005E0E0FCA3E067
:102E4300FDA3E0FEA3E0FF900608121D099005E430
:102E5300E0FCA3E0FDA3E0FEA3E0FF90060C121D3F
:102E6300099005ECE0FCA3E0FDA3E0FEA3E0FF90E6
:102E73000610121D099005F0E0FCA3E0FDA3E0FE9F
:102E8300A3E0FF900614121D099005F4E0FCA3E0F3
:102E9300FDA3E0FEA3E0FF900618121D099005CCE8
:102EA3001232EB9005B8E0F8A3E0F9A3E0FAA3E04F
:102EB300FB12160ED003D002D001D000121519C098
:102EC30004C005C006C0079005CCE0FCA3E0FDA349
:102ED300E0FEA3E0FF9005FC121D099005D4E0FC81
:102EE300A3E0FDA3E0FEA3E0FF900600121D0990FE
:102EF30005D8E0FCA3E0FDA3E0FEA3E0FF900604F9
:102F0300121D099005DCE0FCA3E0FDA3E0FEA3E0B5
:102F1300FF900608121D099005E4E0FCA3E0FDA361
:102F2300E0FEA3E0FF90060C121D099005E8E0FC0B
:102F3300A3E0FDA3E0FEA3E0FF900610121D09909D
:102F430005EC1232C39005C0E0F8A3E0F9A3E0FA60
:102F5300A3E0FB12160ED003D002D001D00012154D
:102F63001DC004C005C006C0079005CCE0FCA3E06B
:102F7300FDA3E0FEA3E0FF9005FC121D099005D020
:102F8300E0FCA3E0FDA3E0FEA3E0FF900600121D1A
:102F9300099005D8E0FCA3E0FDA3E0FEA3E0FF90C9
:102FA3000604121D099005DCE0FCA3E0FDA3E0FE8E
:102FB300A3E0FF900608121D099005E0E0FCA3E0E2
:102FC300FDA3E0FEA3E0FF90060C121D099005E8A7
:102FD300E0FCA3E0FDA3E0FEA3E0FF900610121DBA
:102FE300099005ECE0FCA3E0FDA3E0FEA3E0FF9065
:102FF3000614121D099005F01232D79005C4E0F8AB
:10300300A3E0F9A3E0FAA3E0FB12160EA804A905B6
:10301300AA06AB07D007D006D005D0041215192293
:10403300787F7C047D017B017E007F08121A1A9031
:104043000436E0FCA3E0FDA3E0FEA3E0FF900487B9
:03405300121D0932
:10405600900487E0F8A3E0F9A3E0FAA3E0FB90045C
:1040660077E0FCA3E0FDA3E0FEA3E0FF1215191222
:10407600182DC004C005C006C00790047FE0F8A351
:10408600E0F9A3E0FAA3E0FB900477E0FCA3E0FDEF
:10409600A3E0FEA3E0FF121519A804A905AA06AB22
:1040A60007D007D006D005D004121717C004C005E4
:1040B600C006C007900483E0F8A3E0F9A3E0FAA3E2
:1040C600E0FB90047BE0FCA3E0FDA3E0FEA3E0FFA1
:1040D600121519D003D002D001D00012160E90048A
:0F40E6007BE0F8A3E0F9A3E0FAA3E0FB12151DBD
:0140F50022A8
:09000E009003DAEBF0AA05A90742
:10001700E49003E6F0A3F0A3F0A3F0A3121D1500EC
:100027000000009003EE121D15000000009003F27F
:10003700121D1500000000900442121D15C0A000FB
:100047000090046C121D15C2932E14900470121D9B
:100057001542360A3D90045A7407F0A374E3F0AFD3
:1000670001124BF1A3E4F0A3EFF0AF02124BF1A39F
:10007700E4F0A3EFF09003DAE0FF124BF1EF240571
:10008700FDE433FCE4121843900460121D09900349
:10009700DBE0FF124BF1AC07E4121848900464123E
:1000A7004BE7AC07E4121848900468121D09900347
:1000B700DDE0FBA3E0FAA3E0F9121C239003EA12A8
:1000C7001D0978777C047D017B017A04795A7E00CB
:1000D7007F12121A1A78897C047D017B017A0479D0
:1000E7006C7E007F08121A1A9004917401F0A374B1
:1000F70004F0A37474F0121ECCE4FBFA793478434D
:1001070012160E7BD07A0F79497840121717900490
:1001170046121D0990045FE024AFFF90045EE034AF
:10012700FFFE7C017D68121A987D6D121AFFEF257C
:10013700E0FDEE33FC1218437BD07A0F7949784003
:1001470012160EE4FBFA7934784312171712381196
:100157007B857AEB791D784112160EC004C005C065
:1001670006C007E4FFFE7D707C41900442E0F8A3DF
:10017700E0F9A3E0FAA3E0FB12160EA804A905AA6A
:1001870006AB0790046CE0FCA3E0FDA3E0FEA3E050
:10019700FF121519E4FBFA7980784012160ED00386
:1001A700D002D001D00012151DC004C005C006C082
:1001B7000790045FE024AFFF90045EE034FFFE7C0D
:1001C700017D68121A987D6D121AFFAC06AD07EC17
:1001D7001218437BD07A0F7949784012160EE4FB48
:1001E700FA793478431217171237FB7BC37AF579FC
:1001F700F0784012160EA804A905AA06AB07D00787
:10020700D006D005D004121519C004C005C006C019
:100217000790045FE024AFFF90045EE034FFFE7CAC
:10022700017D68121A987D6D121AFFAC06AD07ECB6
:100237001218437BD07A0F7949784012160EE4FBE7
:10024700FA79347843121717123811E4FBFA79C098
:10025700783F12160EA804A905AA06AB07D007D047
:1002670006D005D004121519E4FBFA79707842120A
:10027700171790043E121D099003DBE0FF124BF1A4
:10028700AC07E4121848E4FBFA79707842121717A2
:10029700C004C005C006C0079003DAE0FF124BF1A7
:1002A700AC07E4121848D003D002D001D0001215D1
:1002B7001D90043EE0F8A3E0F9A3E0FAA3E0FB12E7
:1002C700151D900432121D097FD07E0F7D497C4099
:1002D700900446E0F8A3E0F9A3E0FAA3E0FB1216C6
:1002E7000EE4FBFA793478431217171237FBC00470
:1002F700C005C006C0077FD07E0F7D497C409004B3
:1003070070E0F8A3E0F9A3E0FAA3E0FB12160EE40D
:10031700FBFA793478431217171237FBD003D00250
:10032700D001D00012160EC004C005C006C007E4F5
:10033700FFFE7D407CC1900432E0F8A3E0F9A3E022
:10034700FAA3E0FB12151D7BD37A7E793C78421223
:10035700160EE4FBFA793478431217171237FBD0DD
:1003670003D002D001D00012160EC004C005C0068B
:10037700C0077FD07E0F7D497C40900446E0F8A3FC
:10038700E0F9A3E0FAA3E0FB12160EE4FBFA7934D6
:100397007843121717123811C004C005C006C007EA
:1003A7007FD07E0F7D497C40900470E0F8A3E0F990
:1003B700A3E0FAA3E0FB12160EE4FBFA79347843C4
:1003C700121717123811D003D002D001D00012161D
:1003D7000ED003D002D001D00012151D1249EA7BBE
:1003E700ED7A2E7965784212160E90043A121D099D
:1003F700E4FFFE7D407CC1900432E0F8A3E0F9A35E
:10040700E0FAA3E0FB12151D7BD37A7E793C784294
:1004170012160EE4FBFA79347843121717123811C3
:10042700C004C005C006C0077FD07E0F7D497C4051
:10043700900446E0F8A3E0F9A3E0FAA3E0FB121664
:100447000EE4FBFA793478431217171237FBD003FF
:10045700D002D001D00012160EC004C005C006C0DD
:100467000790043AE0F8A3E0F9A3E0FAA3E0FBE47D
:10047700FFFE7DB47C421215197BD07A0F7949783B
:100487004012160EE4FBFA79347843121717123824
:1004970011A804A905AA06AB07D007D006D005D036
:1004A700041217171249EA7BED7A2E796578421202
:1004B700160EE4FBFA7934784312151D90043612B0
:1004C7004BE7EF30E003020B0D7FCD7ECC7D0C7C3C
:1004D7004090043AE0F8A3E0F9A3E0FAA3E0FB12A6
:1004E70017B45003020B0DE4FFFE7D887C42900495
:1004F7003AE0F8A3E0F9A3E0FAA3E0FB1217B4602F
:10050700054003020B0DE49003E6F0A3F09003E629
:10051700E0FEA3E0FFC3940AEE94004003020881C3
:10052700EF7802C333CE33CED8F9240FF5827401A6
:100537003EF583E0FCA3E0FDA3E0FEA3E0FF90040B
:1005470036E0F8A3E0F9A3E0FAA3E0FB1217B460E2
:100557000540030206CA9003E6E0FEA3E07802C363
:1005670033CE33CED8F9240BF58274013EF583E000
:10057700FCA3E0FDA3E0FEA3E0FF900436E0F8A3B0
:10058700E0F9A3E0FAA3E0FB1217B450030206CA8E
:10059700E49003E8F0A3F09003E6E0FEA3E078021E
:1005A700C333CE33CED8F9FBAA06240BF5827401E8
:1005B7003AF583E0FCA3E0FDA3E0FEA3E0FF90048F
:1005C7004A121D09740F2BF58274013AF583E0FC7A
:1005D700A3E0FDA3E0FEA3E0FF900452121D0990E3
:1005E70003E6E0FEA3E07802C333CE33CED8F9FBAF
:1005F700AA069003E8E0FEA3E090013375F0281205
:100607001D60EE75F028A42583F583E5822BF5821E
:10061700E5833AF583E0FCA3E0FDA3E0FEA3E0FF5A
:1006270090044E121D099003E8E0FEA3E090013705
:1006370075F028121D60EE75F028A42583F583E573
:10064700822BF582E5833AF583E0FCA3E0FDA3E086
:10065700FEA3E0FF900456121D0978777C047D0104
:100667007B017A04794A7E007F08121A1A7A047984
:1006770052124033C004C005C006C0079003E8E02B
:10068700FEA3E07802C333CE33CED8F924F6F58241
:1006970074033EF583D007D006D005D004121D0998
:1006A7009003E9E004F070069003E8E004F0C390DB
:1006B70003E9E0940F9003E8E09400500302059EDD
:1006C7000208709003E6E0FEA3E07802C333CE335E
:1006D700CED8F924A4F58274003EF583E0FCA3E0AC
:1006E700FDA3E0FEA3E0FF900436E0F8A3E0F9A342
:1006F700E0FAA3E0FB1217B450030208709003E678
:10070700E0FEA3E07802C333CE33CED8F924A0F5B8
:100717008274003EF583E0FCA3E0FDA3E0FEA3E0C6
:10072700FF900436E0F8A3E0F9A3E0FAA3E0FB1298
:1007370017B460054003020870E49003E8F0A3F0E3
:100747009003E6E0FEA3E07802C333CE33CED8F9B8
:10075700FBAA0624A0F58274003AF583E0FCA3E027
:10076700FDA3E0FEA3E0FF90044A121D0974A42B29
:10077700F58274003AF583E0FCA3E0FDA3E0FEA355
:10078700E0FF900452121D099003E6E0FEA3E07813
:1007970002C333CE33CED8F9FBAA069003E8E0FEB6
:1007A700A3E090013375F028121D60EE75F028A4C0
:1007B7002583F583E5822BF582E5833AF583E0FC13
:1007C700A3E0FDA3E0FEA3E0FF90044E121D0990F5
:1007D70003E8E0FEA3E090013775F028121D60EEF4
:1007E70075F028A42583F583E5822BF582E5833A06
:1007F700F583E0FCA3E0FDA3E0FEA3E0FF90045631
:10080700121D0978777C047D017B017A0479527E79
:10081700007F08121A1A7A04794A124033C004C0BA
:1008270005C006C0079003E8E0FEA3E07802C333E3
:10083700CE33CED8F924F6F58274033EF583D0077C
:10084700D006D005D004121D099003E9E004F0702A
:10085700069003E8E004F0C39003E9E0940F9003E7
:10086700E8E0940050030207479003E7E004F070C4
:10087700069003E6E004F0020514E49003E6F0A313
:10088700F09003E6E0FEA3E0FFC3940FEE94004070
:10089700030209DEEF7802C333CE33CED8F924CF73
:1008A700F58274003EF583E0FCA3E0FDA3E0FEA320
:1008B700E0FF90043AE0F8A3E0F9A3E0FAA3E0FB35
:1008C7001217B450030209CD9003E6E0FEA3E078C7
:1008D70002C333CE33CED8F924D3F58274003EF564
:1008E70083E0FCA3E0FDA3E0FEA3E0FF90043AE071
:1008F700F8A3E0F9A3E0FAA3E0FB1217B460054000
:10090700030209CD9003E6E0FEA3E07802C333CEED
:1009170033CED8F9FBAA0624CFF58274003AF583C3
:10092700E0FCA3E0FDA3E0FEA3E0FF90044A121D54
:100937000974D32BF58274003AF583E0FCA3E0FD3C
:10094700A3E0FEA3E0FF900452121D099003E6E026
:10095700FEA3E07802C333CE33CED8F9FBAA062430
:10096700F6F58274033AF583E0FCA3E0FDA3E0FE0D
:10097700A3E0FF90044E121D0974FA2BF58274034D
:100987003AF583E0FCA3E0FDA3E0FEA3E0FF9004BB
:1009970056121D0978777C047D017B017A04794A18
:1009A7007E007F08121A1A787F7C047D017B017A0A
:1009B7000479527E007F08121A1A90043A124045B1
:1009C7009003F2121D099003E7E004F0700690030C
:1009D700E6E004F0020888E4FFFE7D8E7C42900387
:1009E700F2E0F8A3E0F9A3E0FAA3E0FB12151D90EB
:1009F70003E0E0F8A3E0F9A3E0FAA3E0FB12151D7A
:100A07009003EA121D099003DDE0FBA3E0FAA3E0DF
:100A1700F9121CE99003EAE0FCA3E0FDA3E0FEA3C2
:100A2700E0FF1215199003EE121D099003EEE0FC8A
:100A3700A3E0FDA3E0FEA3E0FF12187C124D12AC69
:100A470006AD07EC121843E4FBFAF9783F1217B426
:100A570060054003020B0DE4FFFE7D707CC190032F
:100A6700EAE0F8A3E0F9A3E0FAA3E0FB1217B45019
:100A770003020B0DE4FFFE7D527C439003EAE0F88E
:100A8700A3E0F9A3E0FAA3E0FB1217B460025076E3
:100A9700E4FFFEFDFC9003EEE0F8A3E0F9A3E0FA23
:100AA700A3E0FB1217B4601440129003EEE0FCA31E
:100AB700E0FDA3E0FEA3E0FFD205802BE4FFFEFDEF
:100AC700FC9003EEE0F8A3E0F9A3E0FAA3E0FB1241
:100AD70017B450169003EEE0FCA3E0FDA3E0FEA3DD
:100AE700E0FF12182DC205124ADA9003EAE0FCA3D0
:100AF700E0FDA3E0FEA3E0FF9003DDE0FBA3E0FA47
:060B0700A3E0F9121C73CB
:010B0D0022C5
:101ECC00E4FBFA79707842900485E0FCA3E0FDA372
:101EDC00E0FEA3E0FF121717900481E0F8A3E0F9ED
:101EEC00A3E0FAA3E0FB12151DE4FBFA797078422B
:101EFC0012171790047DE0F8A3E0F9A3E0FAA3E031
:101F0C00FB12151D900498121D0990047AE024F21E
:101F1C00FF900479E034FFFE7C007D0C121AFFEE7A
:101F2C003395E0FDFC9004B8121D09E47F0CFEFD16
:101F3C00FC9004B8E0F8A3E0F9A3E0FAA3E0FB12EC
:101F4C001BA2A804A905AA06AB0790047AE024FEFC
:101F5C00FF900479E034FFFE3395E0FDFCC3EF9B6A
:101F6C00FFEE9AFEED99FDEC98FCE47B6F7A01F99B
:101F7C00F8121BA2E47B0CFAF9F8124926C004C033
:101F8C0005C006C007900478E024C0FF900477E0F9
:101F9C003412FE3395E0FDFC9004B8E0F8A3E0F9B0
:101FAC00A3E0FAA3E02FFFEA3EFEE93DFDE83CFC8E
:101FBC00E47BB57A05F9F8121BA2E47B04FAF9F874
:101FCC00124926D003D002D001D000EF2BFFEE3AFD
:101FDC00FEED39FDEC38FCC004C005C006C007900E
:101FEC000478E02424FF900477E03413FE3395E06A
:101FFC00FDFC9004B8E0F8A3E0F9A3E0FAA3E02F0D
:10200C00FFEA3EFEE93DFDE83CFCE47B64FAF9F8AE
:10201C00124926E47B03FAF9F8121BA2E47B04FABA
:10202C00F9F8124926A804A905AA06AB07D007D0CF
:10203C0006D005D004C3EF9BFBEE9AFAED99F9ECB0
:10204C0098F890047BE0FEA3E0FFEE3395E0FDFCF6
:10205C00EB2FFFEA3EFEE93DFDE83CFCEF24B5FF2B
:10206C00EE3482FEED34FFFDEC34FFFC9004BC1228
:10207C001D099004BCE0FCA3E0FDA3E0FEA3E0FF7F
:10208C00EC12183EE4FBFAF978BF12151DC004C01F
:10209C0005C006C007E4FBFA79C07841900498E0CB
:1020AC00FCA3E0FDA3E0FEA3E0FF121717D003D0C2
:1020BC0002D001D00012151D9004B4121D097F64CA
:1020CC007EA17D157CCA9004B4E0F8A3E0F9A3E0EE
:0D20DC00FAA3E0FB12151D900494121D09DB
:1020E9007F787E3E7D887C3A900494E0F8A3E0F9FD
:1020F900A3E0FAA3E0FB12160EA804A905AA06ABF1
:10210900077F467E257D097C401215199004BC1273
:102119001D097FDE7EEC7D8C7C3C900494E0F8A365
:10212900E0F9A3E0FAA3E0FB12160E7B5B7AA4792F
:102139009C784012151D9004B4121D097F257EEB71
:102149007D8C7C3C900494E0F8A3E0F9A3E0FAA329
:10215900E0FB12160E7B927AAE79C7784012151DF4
:102169009004B8121D099004B8E0FCA3E0FDA3E0B7
:10217900FEA3E0FF1238117B4A7ADF7908783D1215
:10218900160E9004B4E0F8A3E0F9A3E0FAA3E0FB8B
:1021990012151DC004C005C006C007E4FFFEFD7C82
:1021A900409004B8E0F8A3E0F9A3E0FAA3E0FB1239
:1021B900160E1238117BEF7AF179B6783912160EAC
:1021C900D003D002D001D00012151D7B297AD17914
:1021D900ED78B812151DC004C005C006C0079004EB
:1021E900BCE0FCA3E0FDA3E0FEA3E0FF1238117BF5
:1021F900EB7A4979AA783712160EA804A905AA0616
:10220900AB07D007D006D005D00412151990049C4D
:10221900121D099004BCE0FCA3E0FDA3E0FEA3E0CD
:10222900FF1237FB7B2D7A187926783812160EC0E3
:1022390004C005C006C0077FEC7E827DD57C319045
:102249000494E0F8A3E0F9A3E0FAA3E0FB12160E68
:10225900A804A905AA06AB077F9D7E747DD17C3EA3
:10226900121519D003D002D001D00012151D900407
:04227900A0121D0989
:10227D0090049CE0FCA3E0FDA3E0FEA3E0FF123878
:10228D00119004B4121D099004A0E0FCA3E0FDA37D
:10229D00E0FEA3E0FF1237FB9004B4E0F8A3E0F9F1
:1022AD00A3E0FAA3E0FB12160E9004AC121D0990E8
:1022BD00049CE0FCA3E0FDA3E0FEA3E0FF1237FBCE
:1022CD009004B0121D099004B0E0FCA3E0FDA3E062
:1022DD00FEA3E0FF9004D8121D099004ACE0FCA30E
:1022ED00E0FDA3E0FEA3E0FF1243AB9004A4121D9A
:1022FD0009E4FFFEFDFC9004A4E0F8A3E0F9A3E0DF
:10230D00FAA3E0FB1217B4501F9004A4E0FCA3E065
:10231D00FDA3E0FEA3E0FF7BD07A0F79C9784012D0
:10232D00151D9004A4121D099004A0E0FCA3E0FD6E
:10233D00A3E0FEA3E0FF1238119004B4E0F8A3E08F
:10234D00F9A3E0FAA3E0FB12160E1249EA9004A8D5
:03235D00121D0945
:102360007FE07E927D867C3D900494E0F8A3E0F9C6
:10237000A3E0FAA3E0FB12160E7B4D7A5179D678D2
:102380004012151D900498E0F8A3E0F9A3E0FAA329
:10239000E0FB12151D9004B4121D09E4FFFE7D70D0
:1023A0007C419004B4E0F8A3E0F9A3E0FAA3E0FBD9
:1023B00012160E900489E0F8A3E0F9A3E0FAA3E076
:1023C000FB12151D7B2E7AFA798E783C12160E9030
:1023D00004B8121D099004A4E0F8A3E0F9A3E0FA00
:1023E000A3E0FB9004B8E0FCA3E0FDA3E0FEA3E0C3
:1023F000FF1215199004C0121D097F2E7EFA7D8EE2
:102400007C3C90048DE0F8A3E0F9A3E0FAA3E0FBA4
:1024100012160E9004BC121D099004BCE0FCA3E04F
:10242000FDA3E0FEA3E0FF1237FB9004C4121D09D8
:102430009004BCE0FCA3E0FDA3E0FEA3E0FF1238A3
:10244000119004C8121D099004C0E0FCA3E0FDA394
:10245000E0FEA3E0FF1237FB9004CC121D099004AC
:10246000A8E0FCA3E0FDA3E0FEA3E0FF1237FBC061
:1024700004C005C006C0079004CCE0FCA3E0FDA3A7
:10248000E0FEA3E0FF9004C4E0F8A3E0F9A3E0FAC3
:10249000A3E0FB12160ED003D002D001D00012161A
:1024A0000EC004C005C006C0079004A8E0FCA3E06D
:1024B000FDA3E0FEA3E0FF1238119004C8E0F8A3EA
:1024C000E0F9A3E0FAA3E0FB12160ED003D002D08D
:1024D00001D00012151D1248DC900491E0FBA3E02E
:1024E000FAA3E0F9121C739004C0E0FCA3E0FDA382
:1024F000E0FEA3E0FF12381112182D9004AC121D5B
:10250000099004A8E0FCA3E0FDA3E0FEA3E0FF1215
:10251000384D9004C4E0F8A3E0F9A3E0FAA3E0FB8F
:1025200012160EC004C005C006C0079004CCE0FC23
:10253000A3E0FDA3E0FEA3E0FF9004C8E0F8A3E061
:10254000F9A3E0FAA3E0FB12160EA804A905AA0657
:10255000AB07D007D006D005D0041215199004B0EF
:10256000121D099004B0E0FCA3E0FDA3E0FEA3E08F
:10257000FF9004D8121D099004ACE0FCA3E0FDA379
:10258000E0FEA3E0FF1243AB900491E0FBA3E0FA6E
:10259000A3E0F9900004121C8D900004121C43E487
:1025A000FBFAF9F81217B4602F402D900491E0FB6C
:1025B000A3E0FAA3E02404F9E43AFAC003C002C09D
:1025C00001121C237BD07A0F79C9784012151DD0D7
:1025D00001D002D003121C73900491E0FBA3E0FA37
:1025E000A3E02404F9E43AFAC003C002C001121CBB
:1025F000237B2E7AFA798E783C121717D001D002FD
:10260000D003121C73900491E0FBA3E0FAA3E0F95D
:10261000121C231238117B0D7AA0793278381216E9
:102620000E9004D0121D09900491E0FBA3E0FAA3E0
:10263000E0F9121C239004D0E0F8A3E0F9A3E0FA3B
:10264000A3E0FB12151D7B2E7AFA798E783C1217C7
:0F26500017900491E0FBA3E0FAA3E0F9121C73CA
:0E265F009004A8E0FCA3E0FDA3E0FEA3E0FFD2
:01266D00224A
:104B8D00C2A4C2A5C2A64391015392FEE4F5974378
:0F4B9D009D05F5BDF5BE75BC807F02FE024B2F56
:104A5800EF4488F5BC00000000E5BC30E4FB53BC23
:104A6800EFAFBD7E00ADBE7C00EF7802C333CE331E
:0B4A7800CED8F9FFED5403FDEF4DFF19
:014A83002210
:1040F600E49003EEF0A3F09003ECF0A3F09003EE4F
:10410600A3E0FF124A58AC06AD079003EDE025E0A8
:10411600FF9003ECE033FE74D82FF58274033EF56E
:1041260083ECF0A3EDF09003EDE004F0700690034D
:10413600ECE004F0C39003EDE0940A9003ECE06435
:1041460080948040B89003ECE4F0A304F09003EC74
:10415600E0FEA3E0FFD39409EE648094805047EF1D
:1041660025E0FFEE33FE74D82FF58274033EF58307
:10417600E0FEA3E0FF9003D8E0FCA3E0FDC3EF9DC3
:10418600FFEE9CFE124D12D3EF941EEE64809480D7
:104196004004E4FEFF229003EDE004F070AF9003CC
:0A41A600ECE004F080A77E007F012A
:0141B00022EC
:0B2A67009003D8EBF0A3EAF0A3E9F025
:102A7200E49003E1F0A3121D153F000000E490046E
:102A820060F0A3F0900460E0FEA3E0FFC3943CEE8C
:102A9200648094805025EF25E0FFEE33FE74E62F2C
:102AA200F58274033EF583E4F0A3F0900461E00440
:102AB200F070D1900460E004F080C9E4900460F00A
:102AC200A3F07F02124A58C3EE940240649003E2DC
:102AD200E0FCA3E0FDA3E0FEA3E0FFD205124ADA88
:102AE2009003D8E0FBA3E0FAA3E0F9C003C002C060
:102AF20001121C23E4FBFAF9783F12151DD001D014
:102B020002D003121C739003E1E0FF124A58AC0694
:102B1200AD07900461E025E0FF900460E033FE74AD
:102B2200E62FF58274033EF583ECF0A3EDF0022B61
:102B3200EB900460E0FEA3E0FFD3941DEE6480946A
:102B4200805020C3741E9FFDE49EFC121843900324
:102B5200E2E0F8A3E0F9A3E0FAA3E0FB12160ED23A
:102B6200058024900461E024E2FD900460E034FFDB
:102B7200FC1218439003E2E0F8A3E0F9A3E0FAA301
:102B8200E0FB12160EC205124ADA9003D8E0FBA34C
:102B9200E0FAA3E0F9C003C002C001121C23C00482
:102BA200C005C006C007900460E0FEA3E0FFC37446
:102BB2001E9FFDE49EFC1218439003E2E0F8A3E09E
:102BC200F9A3E0FAA3E0FB12160EA804A905AA06CF
:102BD200AB07D007D006D005D00412151DD001D006
:102BE20002D003121C73022C737F0812496A7F05FC
:102BF20012496A7F411246897F441246897F4312F5
:102C020046897F3A124689900461E025E0FF9004EC
:102C120060E033FE74E62FF58274033EF583E0FC38
:102C2200A3E0FDE4121843E4FBFA7980784412171A
:102C320017E4FBFA79A0784012160E123AB27F56C8
:102C42001246897F101246897FDC7E05124B2F9037
:102C52000461E004F07006900460E004F0C39004A4
:102C620061E0943C900460E0648094805003022A06
:102C7200C4900460E07004A3E0643C6003022D622F
:102C82007B017A0379E612444890045EEEF0A3EFEA
:102C9200F0E025E0FF90045EE033FE74E62FF5825B
:102CA20074033EF583E0F9A3E0FF9003DBE0FBA3AE
:102CB200E0FAA3E0C98FF0121B83900420E0F9A38D
:102CC200E0FF9003DEE0FBA3E0FAA3E0C98FF0127D
:102CD2001B8390045EE0FEA3E0FFC3743B9FFDE410
:102CE2009EFCE41218439003E2E0F8A3E0F9A3E0AB
:102CF200FAA3E0FB12160EC205124ADA9003D8E0DC
:102D0200FBA3E0FAA3E0F9C003C002C001121C2336
:102D1200C004C005C006C00790045EE0FEA3E0FF49
:102D2200C3743B9FFDE49EFCE41218439003E2E06F
:102D3200F8A3E0F9A3E0FAA3E0FB12160EA804A997
:102D420005AA06AB07D007D006D005D00412151984
:102D5200D001D002D003121C737FF47E01124B2FDC
:012D6200224E
:10444800E4FDFC900462F0A3741DF0E4A3F0A3F073
:10445800900464E0FEA3E0FFD3943BEE9400507315
:10446800EF25E0FFEE338F82F583121B4BFFD3ED70
:104478009FEC95F04006AE04AF058016900465E009
:1044880025E0FF900464E0338F82F583121B4BFF15
:10449800AEF0AC06AD07900465E025E0FF9004643B
:1044A800E0338F82F583121B4BB50516ECB5F0127D
:1044B8004D600F900464E0FFA3E0900462CFF0A386
:1044C800EFF0900465E004F07086900464E004F076
:0B44D800024458900462E0FEA3E0FFE5
:0144E30022B6
:0B393B009003BBEFF0A3EDF0A3EBF056
:103946009003CC121D1500000000E49003D0F0A3F4
:10395600F0A3F0A3F09003C0E0FBA3E0FAA3E0F924
:10396600121C239003D4121D099003C3E0FBA3E0AD
:10397600FAA3E0F9E4F5F0121B839003C9E0FBA378
:10398600E0FAA3E0F9E4F5F0121B839003C6E0FB2E
:10399600A3E0FAA3E0F9121D46000000001240F66B
:1039A600EF4E7003023AAC9003BEE09003DBF0905A
:1039B60003BFE09003DCF0A37401F0A37403F0A34B
:1039C60074D4F0A3121D15C17000009003BDE0FB76
:1039D6009003BCE0FD9003BBE0FF12000EE4FFFE87
:1039E6007D707C419003D4E0F8A3E0F9A3E0FAA34C
:1039F600E0FB12151D9003C6E0FBA3E0FAA3E0F975
:103A0600121C739003DB7401F0A37403F0A374D04B
:103A1600F0A37401F0A37403F0A374D2F07B017ACF
:103A26000379D4122A679003D0E0F9A3E0FF90034C
:103A3600C3E0FBA3E0FAA3E0C98FF0121B83900357
:103A4600D2E0F9A3E0FF9003C9E0FBA3E0FAA3E00C
:103A5600C98FF0121B839003C6E0FBA3E0FAA3E034
:103A6600F9121CE99003D4E0FCA3E0FDA3E0FEA359
:103A7600E0FF1215199003CC121D099003D4E0FC47
:103A8600A3E0FDA3E0FEA3E0FF9003C0E0FBA3E0FC
:103A9600FAA3E0F9121C739003CCE0FCA3E0FDA3AB
:0B3AA600E0FEA3E0FF22E4FFFEFDFCB9
:013AB10022F2
:0D4A84007F027E00124A91D2CC7F027E009C
:104A9100EF1FAA0670011E4A6013E4FCFDC3ED94EA
:0D4AA10009EC940050EA0DBD00010C80F0FE
:014AAE0022E5
:014D4300224D
:0F4CCC00D2CCD2C7124A8DC2C7124A8DC2CC2297
:104C5C00C2CCC2C7124A8DD2CCC2C77F047E00120E
:054C6C004A91D2C722AD
:104C3100E425E0FBC2CC124A8D30C704EB4401FBF2
:054C4100124A8BAF03D5
:014C4600224B
:054D3200124A84C2CC0E
:014D37002259
:0E4CDB00C2CCD2C7124A84C2CC124A8DC2C7C4
:014CE90022A8
:054B0200F9121A59FF31
:024B0700A907FC
:104B0900E4FBC2CCE930E704D2C78002C2C7124A2B
:0F4B19008DD2CCE925E0F9124A8D0BEBB408E3FD
:014B2800226A
:1041B10090047FEBF0A3EAF0A3E9F0124CCC7F016D
:1041C1007E00124A917F40124B07124C31EF701260
:1041D10090047FE0FBA3E0FAA3E0F9121A40FF127A
:1041E1004B07124C31EF701090047FE0FBA3E0FA13
:1041F100A3E0900001124B02124C31EF70109004B9
:104201007FE0FBA3E0FAA3E0900002124B02124C04
:1042110031EF701190047FE0FBA3E0FAA3E0F99085
:104221000003124B03124C31EF701190047FE0FB3D
:10423100A3E0FAA3E0F9900004124B03124C31EF12
:10424100701190047FE0FBA3E0FAA3E0F990000570
:0D425100124B03124C31EF7003124C5C2233
:0D4AAF007F057E00124ABCD2C37F057E0049
:104ABC00EF1FAA0670011E4A6013E4FCFDC3ED94BF
:0D4ACC0004EC940050EA0DBD00010C80F0D8
:014AD90022BA
:1047DF007B6053B3F143B407C2C1124AB8E49003EC
:1047EF00C9F0A3F0C2C3124AB8EB30E704D2C280BB
:1047FF0002C2C2124AAFEB25E0FB9003CAE004F0FD
:10480F0070069003C9E004F0C39003CAE0940890C7
:10481F0003C9E06480948040CBD2C17F0A7E00122E
:09482F004ABC12430AEF20E0F933
:01483800225D
:1046FE007F327E00124ABC9003C6E0FBA3E0FAA311
:10470E00E0F9121C23EF2401FFE43EFEE43DFDE43C
:05471E003CFC121C73BD
:104723007B06C2C1E49003C9F0A3F0C2C3124AB826
:10473300EB30E704D2C28002C2C2124AAFEB25E0DB
:10474300FB9003CAE004F070069003C9E004F0C3D1
:104753009003CAE094089003C9E06480948040CB3E
:0C476300D2C1124AB812430AEF20E0F95C
:01476F002227
:073E5600E09003CEF07F02B3
:023E5D00AB07B1
:103E5F00C2C1124AB8E49003CFF0A3F0C2C3124A12
:103E6F00B8EB30E704D2C28002C2C2124AAFEB25D0
:103E7F00E0FB9003D0E004F070069003CFE004F075
:103E8F00C39003D0E094089003CFE0648094804007
:103E9F00CBE49003CFF0A3F0C2C3124AB89003CA89
:103EAF00A3E0FDA3A3E4FFFEED5480FDE4FCFBFAC9
:103EBF007980F8C3121BFF7004D2C28002C2C212F3
:103ECF004AAF9003CAE0FCA3E0FDA3E0FEA3E0FF2E
:103EDF007801121C109003CA121D099003D0E00440
:103EEF00F070069003CFE004F0C39003D0E0941875
:103EFF009003CFE064809480409EE49003CFF0A3C2
:103F0F00F0C2C3124AB89003CEE030E704D2C280A9
:103F1F0002C2C2124AAF9003CEE025E0F09003D068
:103F2F00E004F070069003CFE004F0C39003D0E0FC
:103F3F0094089003CFE06480948040C5D2C1124AA8
:083F4F00B812430AEF20E0F96B
:013F57002247
:023D4600AB07C9
:103D4800E490062AF0C2C17F05FE124ABCE4A3F043
:103D5800A3F0C2C3124AB8EB30E704D2C28002C251
:103D6800C2124AAFEB25E0FB90062CE004F0700687
:103D780090062BE004F0C390062CE0940890062BE4
:103D8800E06480948040CBE490062BF0A3F0C2C39B
:103D9800124AB8900626A3E0FDA3A3E4FFFEED5463
:103DA80080FDE4FCFBFA7980F8C3121BFF7004D293
:103DB800C28002C2C2124AAF900626E0FCA3E0FD10
:103DC800A3E0FEA3E0FF7801121C10900626121D46
:103DD8000990062CE004F0700690062BE004F0C36E
:103DE80090062CE0941890062BE064809480409E06
:103DF8007F0A7E00124ABCD2C47F027E00124ABCEF
:103E0800E490062BF0A3F090062AE025E0F0124A91
:103E1800B6C2C3124AB830C404E04401F090062C7C
:103E2800E004F0700690062BE004F0C390062CE046
:103E3800940890062BE06480948040CBD2C1124A4B
:0D3E4800B812430AEF20E0F990062AE0FFCF
:013E5500224A
:10430A00E4FB9003D1F0A3F0A3F07905C2C17F05C5
:10431A00FE124ABCE49003D2F0A3F0C2C3124AB818
:10432A00E930E704D2C28002C2C2124AAFE925E0EC
:10433A00F99003D3E004F070069003D2E004F0C3CE
:10434A009003D3E094089003D2E06480948040CB39
:10435A007F0A7E00124ABCD2C47F027E00124ABC87
:10436A00E49003D2F0A3F0EB25E0FB124AB6C2C3F5
:10437A00124AB830C404EB4401FB9003D3E004F0C2
:10438A0070069003D2E004F0C39003D3E09408903F
:10439A0003D2E06480948040CED2C1124AB8AF03FF
:0143AA0022F0
:103494001247231247DF124AB81247239003C6E0AB
:1034A400FBA3E0FAA3E0F9121C239003CA121D093E
:1034B4009003BB123E569003C6E0FBA3E0FAA3E0E0
:1034C400F9121C23EF2401FFE43EFEE43DFDE43C3D
:1034D400FC121C737F327E00124ABC1247239003F5
:1034E400C6E0FBA3E0FAA3E0F9121C239003CA127E
:1034F4001D099003BC123E561246FE9003C6E0FB23
:10350400A3E0FAA3E0F9121C239003CA121D099048
:1035140003BD123E561246FE9003C6E0FBA3E0FA3A
:10352400A3E0F9121C239003CA121D099003BE12D2
:103534003E561246FE9003C6E0FBA3E0FAA3E0F970
:10354400121C239003CA121D099003BF123E561287
:1035540046FE9003C6E0FBA3E0FAA3E0F9121C23A5
:103564009003CA121D099003C0123E561246FE90E3
:1035740003C6E0FBA3E0FAA3E0F9121C239003CAFC
:10358400121D099003C1123E561246FE9003C6E076
:10359400FBA3E0FAA3E0F9121C239003CA121D094D
:1035A4009003C2123E561246FE9003C6E0FBA3E00F
:1035B400FAA3E0F9121C239003CA121D099003C355
:1035C400123E561246FE9003C6E0FBA3E0FAA3E0C7
:1035D400F9121C239003CA121D099003C4123E560B
:1035E4001246FE9003C6E0FBA3E0FAA3E0F9121C26
:1035F400239003CA121D099003C5123E567F327EE2
:1036040000124ABC9003C6E0FBA3E0FAA3E0F9125F
:103614001C23EF2401FFE43EFEE43DFDE43CFC02F8
:023624001C7315
:030000000245793D
:0C457900787FE4F6D8FD7581210245C072
:101516000218E8E86480F8E933E83360110460F003
:10152600ED33EC337009E8FCE9FDEAFEEBFF22043B
:1015360060DED3EB9FEA9EE99DE8C2E78CF0C2F736
:1015460095F0400CE8CCF8E9CDF9EACEFAEBCFFB02
:101556001218B385D0F05804700320D5B3E8047090
:10156600075002B2D50218F292D5EC0460F7E4CC2B
:10157600C0E0C398F8603B94186008400DD0E0FBCB
:101586000218CAE4FBFAC9FC8028E830E406E4C97C
:10159600FBE4CAFCE830E305E4C9CACBFCE854071F
:1015A6006010F8C3E913F9EA13FAEB13FBEC13FC2A
:1015B600D8F130F52FC3E49CFCEF9BFFEE9AFEEDCD
:1015C60099FDD0E0FBEF4E4D4C701222DB03021862
:1015D600EFEC2CFCEF33FFEE33FEED33FDED30E7A1
:1015E600EB0218CAEF2BFFEE3AFEED39FDD0E0FB19
:1015F60050130BBB00030218F2ED13FDEE13FEEFC2
:0816060013FFEC13FC0218CAEB
:10160E00EC4D6011E8497017ED33EC3304600DE4D6
:10161E00FCFFFEFD22E933E8330470F80218E812ED
:10162E0018B358046009E4CC2481500628500902EE
:10163E0018F22840030218EFC0E0EB4A7044B9805C
:10164E0006D0E0FB0218DEEF4E701CBD8008EBFFEB
:10165E00EAFEE9FD80EBE98DF0A4FEE5F00216F757
:10166E00E9CDF9EAFEEBFFEF89F0A4FCE5F0CE89B7
:10167E00F0A42EFFE435F0CD89F0A42DFEE435F074
:10168E008067EF4E7005BD80D780C3EF8BF0A4ACA2
:10169E00F0EE8BF0A42CFCE435F0F8EF8AF0A42CDD
:1016AE00E5F038FCE433CB8DF0A42CFCE5F03BF8F0
:1016BE00EE8AF0A42CFCE5F038F8E433CF89F0A4E0
:1016CE002CFCE5F038CF3400CE89F0A42FFFE5F0E6
:1016DE003EFEE433C98DF0A42EFEE5F039CD8AF03E
:1016EE00A42FFFE5F03EFEE43DFD33D0E0FB5007B6
:1016FE000BBB000F0218F2EC2CFCEF33FFEE33FEA7
:06170E00ED33FD0218CAD4
:101714000218F2EC5D046005E8590470030218E84D
:101724001218B3580460F6EC4860F2EC7004FDFE45
:10173400FF22C860DB2481C85009C39860025006A8
:101744000218EF9850CAF582E9294B4A7005AB821A
:101754000218DE75F0007C1A7880C3EF9BEE9AEDD8
:1017640099400DC3EF9BFFEE9AFEED99FDE842F020
:10177400DC23ACF0D0E0FFD0E0FED0E0FDAB822073
:10178400E7101BEB60BAEC2CFCEF33FFEE33FEEDFD
:1017940033FD0218CAE803F830E705C0F075F0001D
:1017A400EF2FFFEE33FEED33FD40B830E7C280AAE1
:1017B40074F8CC6480CCC86480C8F58204604FC3DC
:1017C400EB9FF5F0EA9E42F0E99D42F0E89C45F07B
:1017D400603C501DE5825FFFE582D313CB5BCBF405
:1017E4002B5582FB50280ABA002409B9002008802E
:1017F4001DE5825BFBE582D313CF5FCFF4C3132FC8
:101804005582FF50090EBE00050DBD00010CC3EB4F
:101814009FF5F0EA9E42F0E99D42F0E89C45F060B5
:0918240007CC4820E701B3EC22D7
:10182D00ED33EC33600A047003BD8004ECB2E7FCC9
:01183D002288
:10183E0075F020800E75F010800575F0087D007E25
:10184E00007F003392D530D503121BF1EC334010DC
:10185E00EF33FFEE33FEED33FDEC33FCD5F0ED222E
:0E186E00E5F0247EA2D513CC92E7CDCEFF226A
:10187C00EDD2E7CD33EC3392D524814006E4FFFE64
:10188C00FDFC22FCE4CFCECDCC24E0501174FF80C3
:10189C00EDC3CC13CCCD13CDCE13CECF13CF047060
:0718AC00F030D5DE021BF154
:1043AB009004D4121D099004D8E0F8A3E0F9A3E01F
:1043BB00FAA3E0FB9004D4E0FCA3E0FDA3E0FEA392
:1043CB00E0FF121717123C449004D4121D099004FD
:1043DB00D8E030E7599004D4E0FCA3E0FDA3E0FE65
:1043EB00A3E0FFECC0E0EDC0E0EEC0E0EFC0E0E426
:1043FB00FFFEFDFC9004D4E0F8A3E0F9A3E0FAA3E0
:10440B00E0FB1217B47BDB600250087A0F79497816
:10441B004080067A0F794978C0D0E0FFD0E0FED01B
:10442B00E0FDD0E0FC12151D9004D4121D09900480
:0D443B00D4E0FCA3E0FDA3E0FEA3E0FF221F
:1037B3003A70FA83BCAAE9E43E81E0F8BF9DE9E6EA
:1037C3003F80000039283C1ABB9969663DA335E365
:1037D300BF255DE73FC90FDB418DDBCCC44936EE26
:1037E30045C9913FC5B0F83D3F800000C317F5348C
:1037F300452FFA73C60AFDDD1238BC04A2E1920517
:103803001420E0159037B374041218FD8030123879
:10381300BC30E102B20520E0EBA883A9829004D476
:10382300121D09898288839037C774041218FD8595
:1038330082F09004D4121CCD85F08212160EED4C4A
:103843006007300504EC6480FC221238BCC0E0A899
:1038530083A9829004D4121D09898288839037EB4F
:1038630074031218FD8582F09004D4121CCD85F0E8
:103873008212160E9004D4E0CCF0A3E0CDF0A3E0C6
:10388300CEF0A3E0CFF09037DB74031218FDD082A3
:103893008582F09004D4121CCD85F082E58230E05D
:1038A30007121717B2058096EFCBFFEECAFEEDC9DC
:1038B300FDECC8FC1217178085ED33EC547FCC3335
:1038C300920524605007D0E0D0E00218E87B837AA9
:1038D300F97922783E12160EEDF933ECF833248190
:1038E3005011EFFBEEFA12187C12183EECB2E7FC13
:1038F30012151DED33EC33602F2403F8C313FCEDD5
:1039030092E7FDE82481E4501FECF8EDF9EEFAEFBD
:10391300FB12187CEF04C2E0FCF582121848ECB2EB
:10392300E7FC12151DE58203FAED33EC336007144F
:0839330013FCED92E7FDEA220E
:1048DC00ECC0E0F8EDC0E0F9EEC0E0FAEFC0E0FBB0
:1048EC0012160EEC6480FC7B007A007980783F1203
:1048FC00151D124262D0E0FBD0E0FAD0E0F9D0E016
:10490C00F8C0E0121717123C44D0E030E70B7840A7
:0A491C0079497A0F7BD912151D228C
:1049EA00ECC0E0F8EDC0E0F9EEC0E0FAEFC0E0FBA1
:1049FA0012160EEC6480FC7B007A007980783F12F4
:104A0A00151D124262D0E0CFFBD0E0CEFAD0E0CD45
:0B4A1A00F9D0E0CCF8121717023C4462
:1018B300E9D2E7C933E833F892D5EDD2E7CD33EC7B
:0718C30033FC5002B2D522F4
:1018CA00EC30E7100FBF000C0EBE00080DBD00047F
:1018DA000BEB6014A2D5EB13FCED92E7FD2274FF2B
:1018EA00FCFDFEFF22E480F8A2D574FF13FC7D8084
:0318FA00E480EF98
:1018FD00C0E0EFFBEEFAEDF9ECF812160ED0E0F5C4
:10190D00F0EFFBEEFAEDF9ECF8121CBDA3A3A3A3C7
:10191D00E8C0E0E9C0E0EAC0E0EBC0E0C0F01216BC
:10192D000E121CD9A3A3A3A312151DD0F0D0E0FB5A
:0D193D00D0E0FAD0E0F9D0E0F8D5F0D422E7
:10425E000218E822EDA2E7D2E7F9EC3340F260F360
:10426E00B4FF08ED547F70E80218F2F82481C2E022
:10427E00C0E0F40428FAC313FCED92E7FD9004D4D9
:10428E00121D09EEA2E7E9BA7F02C31334009400AF
:10429E00FA75F091A4E5F013F494FE8AF0A433E5D8
:1042AE00F033248CD313FDE492E7FE7F007C3F7540
:1042BE008302ECC0E0F8EDC0E0F9EEC0E0FAEFC02A
:1042CE00E0FB8583F09004D4121CB185F0831217A5
:1042DE0017D0E0FBD0E0FAD0E0F9D0E0F812151DCF
:1042EE00ED6480FD30E7011CD583C7ED33CC33F888
:0C42FE00D0E0A2E71328C313CC13FD226C
:103C2400BE1249253E4CCCCDBEAAAAAB3F800000B3
:103C34003E7ADBB03EED63383F24BC7D3F490FDB69
:103C4400ED33ECC2E7CC339205B4FF13ED547F603F
:103C5400030218E87FDB7E0F7DC97C3F023D39C239
:103C640006C3947F401E7007EDD2E794904015EF91
:103C7400FBEEFAEDF9ECF87F007E007D807C3F12CC
:103C84001717D206ED33EC33248430E705E4C0E0A3
:103C9400806B04FAEDD2E754F0C333DAFD540734F1
:103CA400002323C0E0CCC0E0F8EDC0E0F9EEC0E0B2
:103CB400FAEFC0E0FBE4121848EC24FEFC9004DCAC
:103CC400121D0912160E7B007A007980783F1215B6
:103CD4001D9004DCE0B2E7CCF0A3E0CDF0A3E0CE8D
:103CE400F0A3E0CFF0D0E0FBD0E0FAD0E0F9D0E0F0
:103CF400F812151D9004DC121CCD1217179004DC69
:103D0400121D09903C2474031218FD9004DC121C4B
:103D1400CD12160ED0E0600F2430F582E4343CF569
:103D240083121CD912151D30060B7BDB7A0F79C95F
:103D340078BF12151DED33EC336006ECA20592E753
:023D4400FC225F
:10458500020B0EE493A3F8E493A34003F68001F233
:1045950008DFF48029E493A3F85407240CC8C33337
:1045A500C4540F4420C8834004F456800146F6DF06
:1045B500E4800B010204081020408090266EE47E02
:1045C500019360BCA3FF543F30E509541FFEE493FB
:1045D500A360010ECF54C025E060A840B8E493A3C2
:1045E500FAE493A3F8E493A3C8C582C8CAC583CAED
:1045F500F0A3C8C582C8CAC583CADFE9DEE780BEA5
:012A6600006F
:10194A00E709F608DFFA8046E709F208DFFA803E7F
:10195A0088828C83E709F0A3DFFA8032E309F6086C
:10196A00DFFA8078E309F208DFFA807088828C83D4
:10197A00E309F0A3DFFA806489828A83E0A3F60888
:10198A00DFFA805889828A83E0A3F208DFFA804C62
:10199A0080D280FA80C680D4806980F28033801039
:1019AA0080A680EA809A80A880DA80E280CA8033A2
:1019BA0089828A83ECFAE493A3C8C582C8CCC5831A
:1019CA00CCF0A3C8C582C8CCC583CCDFE9DEE780EA
:1019DA000D89828A83E493A3F608DFF9ECFAA9F069
:1019EA00EDFB2289828A83ECFAE0A3C8C582C8CCBF
:1019FA00C583CCF0A3C8C582C8CCC583CCDFEADED8
:101A0A00E880DB89828A83E493A3F208DFF980CC39
:101A1A0088F0EF60010E4E60C388F0ED2402B40432
:101A2A000050B9F582EB2402B4040050AF232345D9
:061A3A00822390199A734B
:101A4000BB010689828A83E0225002E722BBFE02A4
:091A5000E32289828A83E49322D7
:101A5900BB010CE58229F582E5833AF583E0225042
:101A690006E92582F8E622BBFE06E92582F8E2228C
:0D1A7900E58229F582E5833AF583E49322A6
:101A8600BB010689828A83F0225002F722BBFE013F
:021A9600F32239
:101A9800EF8DF0A4A8F0CF8CF0A428CE8DF0A42E62
:021AA800FE221C
:101AAA00BC000BBE0029EF8DF084FFADF022E4CC20
:101ABA00F875F008EF2FFFEE33FEEC33FCEE9DECE9
:101ACA00984005FCEE9DFE0FD5F0E9E4CEFD22ED2F
:101ADA00F8F5F0EE8420D21CFEADF075F008EF2F79
:101AEA00FFED33FD4007985006D5F0F222C398FD6A
:051AFA000FD5F0EA2207
:101AFF00C2D5EC30E709B2D5E4C39DFDE49CFCEE02
:101B0F0030E715B2D5E4C39FFFE49EFE121AAAC3B5
:101B1F00E49DFDE49CFC8003121AAA30D507C3E4B0
:061B2F009FFFE49EFE2270
:101B3500A3F8E0C5F025F0F0E58215827002158363
:061B4500E0C838F0E822C0
:101B4B00BB0110E58229F582E5833AF583E0F5F0D8
:101B5B00A3E0225009E92582F886F008E622BBFEB5
:101B6B000AE92582F8E2F5F008E222E5832AF583FB
:081B7B00E993F5F0A3E99322C0
:101B8300BB010A89828A83F0E5F0A3F0225006F7AD
:0F1B930009A7F01922BBFE06F3E5F009F31922AA
:101BA200E88FF0A4CC8BF0A42CFCE98EF0A42CFCE2
:101BB2008AF0EDA42CFCEA8EF0A4CDA8F08BF0A460
:101BC2002DCC3825F0FDE98FF0A42CCD35F0FCEBBF
:101BD2008EF0A4FEA9F0EB8FF0A4CFC5F02ECD3984
:0F1BE200FEE43CFCEAA42DCE35F0FDE43CFC22F1
:10492600C2D5E830E70FB2D5E4C39BFBE49AFAE4BC
:1049360099F9E498F8EC30E717B2D512495C121DE4
:10494600BEE4C39BFBE49AFAE499F9E498F8800381
:10495600121DBE30D50DE4C39FFFE49EFEE49DFD0F
:04496600E49CFC22AF
:0E1BF100C3E49FFFE49EFEE49DFDE49CFC2205
:101BFF00EB9FF5F0EA9E42F0E99D42F0E89C45F03C
:011C0F0022B2
:101C1000E8600FEFC333FFEE33FEED33FDEC33FC32
:031C2000D8F122D6
:101C2300BB010789828A83021CB15005E9F8021EB1
:101C330050BBFE05E9F8021E5C89828A83021CBD43
:101C4300BB010DE58229F582E5833AF583021CB1D8
:101C53005007E92582F8021E50BBFE07E92582F8EA
:101C6300021E5CE58229F582E5833AF583021CBDF9
:101C7300BB010789828A83021D095005E9F8021E08
:0A1C830082BBFE05E9F8021E8E2266
:101C8D00BB010DE58229F582E5833AF583021D0935
:101C9D005007E92582F8021E82BBFE07E92582F86E
:041CAD00021E8E2263
:0C1CB100E0FCA3E0FDA3E0FEA3E0FF22A6
:101CBD00E493FC740193FD740293FE740393FF226D
:0C1CCD00E0F8A3E0F9A3E0FAA3E0FB229A
:101CD900E493F8740193F9740293FA740393FB2261
:101CE900BB010789828A83021CCD5005E9F8021ECF
:101CF90068BBFE05E9F8021E7589828A83021CD930
:0C1D0900ECF0A3EDF0A3EEF0A3EFF0224D
:101D1500A8828583F0D083D082121D2C121D2C122F
:101D25001D2C121D2CE473E493A3C583C5F0C58354
:101D3500C8C582C8F0A3C583C5F0C583C8C582C818
:011D4500227B
:101D4600BB010789828A83021D155005E9F8021E28
:0A1D56009ABBFE05E9F8021EB32255
:0C1D6000A42582F582E5F03583F583228E
:0C4D1200EE30E707C3E49FFFE49EFE22A2
:103F580090062DEBF0A3EAF0A3E9F090062DE0FB24
:103F6800A3E0FAA3E0F9121A40FF124C85500C9016
:103F7800062EE475F001121D6C80E0D20990062D22
:103F8800E0FBA3E0FAA3E0F9121A40FF642B6004F7
:103F9800EFB42D1D90062DE0FBA3E475F001121B74
:103FA80035A9F0FA121A40642D6003D38001C39238
:103FB80009E4900630F0A3F090062DE0FBA3E0FAA8
:103FC800A3E0F9121A40FF124CEA504290062DE085
:103FD800FBA3E0FAA3E0F9121A40FF3395E0FEEFE5
:103FE80024D0FBEE34FFFA900630E0FEA3E0FF7C1D
:103FF800007D0A121A98EF2BFFEE3A900630F0A3D4
:10400800EFF090062EE475F001121D6C80AA3009BD
:104018000A900630E0FEA3E0FF800F900630E0FE35
:0B402800A3E0FFC3E49FFFE49EFE2224
:101D6C00C5F0F8A3E028F0C5F0F8E5821582700202
:061D7C001583E038F0229F
:101D820075F008758200EF2FFFEE33FECD33CDCC18
:101D920033CCC58233C5829BED9AEC99E58298409B
:101DA2000CF582EE9BFEED9AFDEC99FC0FD5F0D678
:101DB200E4CEFBE4CDFAE4CCF9A88222B800C1B9A2
:101DC2000059BA002DEC8BF084CFCECDFCE5F0CBE0
:101DD200F97818EF2FFFEE33FEED33FDEC33FCEB19
:101DE20033FB10D703994004EB99FB0FD8E5E4F9D4
:101DF200FA227818EF2FFFEE33FEED33FDEC33FCC1
:101E0200C933C910D7059BE99A4007EC9BFCE99AB4
:101E1200F90FD8E0E4C9FAE4CCFB2275F010EF2FF9
:101E2200FFEE33FEED33FDCC33CCC833C810D707F9
:101E32009BEC9AE899400AED9BFDEC9AFCE899F834
:0E1E42000FD5F0DAE4CDFBE4CCFAE4C8F922C7
:0C1E5000E6FC08E6FD08E6FE08E6FF22BE
:0C1E5C00E2FC08E2FD08E2FE08E2FF22C2
:0D1E6800E6FB08E6F908E6FA08E6CBF822EA
:0D1E7500E2FB08E2F908E2FA08E2CBF822ED
:0C1E8200ECF608EDF608EEF608EFF6228C
:0C1E8E00ECF208EDF208EEF208EFF22290
:101E9A00D083D082E493F608740193F6087402930F
:091EAA00F608740393F674047346
:101EB300D083D082E493F208740193F208740293FE
:091EC300F208740393F274047335
:0F4CEA00EFC394304007EF943A50028001C32289
:104C8500EFC394094005EF940E4004EFB42003D31D
:044C95008001C322B5
:00000001FF
