:102C9C004305BC6868004305BF6D6D0042055E00CE
:102CAC00004205D300004205B500004205B9000002
:102CBC0044052F68686D6D4405CA0000000041058D
:102CCC00331E4405C2000000004204D3000044043B
:052CDC00D768686D6D72
:03000B00020009E7
:0100090032C4
:10000E009003BE7401F0E4A3F0A3F0A3F0A3F0A359
:10001E00F0A3F09003E0F0A3F09003E41213D400E9
:10002E00000000D200D203C202C201E4900000F030
:10003E00A3F0900000F0F5B175B2FF75B04C124A06
:10004E001C124F2A124F37124D95124E64438E805A
:10005E00E4F58A758CB8F589D28CD2A9D2AF7D061B
:10006E007F12124E0A7FF47E01124DB47D05E4FF1D
:10007E00124E0A7FF47E01124DB47F017E00124EA5
:10008E004F7F6812486C7F6812486C7F6D12486C07
:10009E007F6D12486C7F2312486CE49003E2F0A34C
:1000AE00F09003E2E0FAA3E0FBD39414EA648094A8
:1000BE00805074EBAE027802C333CE33CED8F9241F
:1000CE00DBF58274043EF5831213D400000000ADFC
:1000DE0003AC02EC120F02E4FBFAF97840120DD6D3
:1000EE00E4FBFA79E07840120BDCC004C005C006D0
:1000FE00C0079003E2E0FEA3E07802C333CE33CE16
:10010E00D8F92460F58274053EF583D007D006D069
:10011E0005D0041213C89003E3E004F0708390033B
:10012E00E2E004F00200AF12341C7F08124B4D7F48
:10013E0005124B4D7F5012486C7F4F12486C7F5307
:10014E0012486C7F3A12486C9005CAE0FCA3E0FDA1
:10015E00A3E0FEA3E0FF123D327F6D12486C7F6D6F
:10016E0012486C7F027E00124E4F9005B8E0FF12CF
:10017E004DD27F3A12486C9005BBE0FF124DD27FF4
:10018E003A12486C9005D2E0547FFF124DD27F3B5D
:10019E0012486C9005B4E0FF124DD29005B7E0FF07
:1001AE00124DD27F3B12486C900000E07002A3E02B
:1001BE0060047F41800C900000E07002A3E07005A7
:1001CE007F4D12486C30023F900000E07002A3E0B9
:1001DE007035A20392067F2AFE124B8D9005CAE05F
:1001EE00FCA3E0FDA3E0FEA3E0FF7BCD7ACC79CCAF
:1001FE00300304783E800278BE120BDC9005CA12E2
:10020E0013C8E49003BEF0300141900000E070028C
:10021E00A3E07037A20392067F2AFE124B8D900543
:10022E00CAE0FCA3E0FDA3E0FEA3E0FF7BCD7ACC09
:10023E0079CC300304783E800278BE120BDC900538
:10024E00CA1213C8E49003BEF0C20130A335900366
:10025E00BEE0702FFFFEFDFC9005CAE0F8A3E0F9AA
:10026E00A3E0FAA3E0FB120E73600250169005CACB
:10027E001213D4000000009003BE7401F0C202C23B
:10028E0001D203124F439005CEE0A3F09005B8E0E3
:10029E009005CEF09005D0E0A3F09005BBE0900560
:1002AE00D0F09003EB7401F0A37405F0A374B7F0D3
:1002BE00A37401F0A37405F0A374B8F0A37401F055
:1002CE00A37405F0A374BBF0A37401F0A37405F03E
:1002DE00A374D2F07B017A0579B4124953900000D1
:1002EE00E07002A3E07003020B1D7F02124C3B90E4
:1002FE0003BCEEF0A3EFF09005D1E0FE9005D0E048
:10030E006E6003020B1D9005BBE0FFEE6F600302F3
:10031E000B1D9005B8E0FE9005CEE0FD6E60030269
:10032E000B1DA3E06D6003020B1D124DF9900533FA
:10033E00E0FEEF8EF084E5F060030207AC9005D28C
:10034E00E0547FFF124DF9EF60030207AC9005B841
:10035E00E0FF124DF9EFD39410400302079690057B
:10036E00B8E0FF124DF9EFC39407500302079690C1
:10037E0005B4E0FF9005B7E0FDA3E0FB9005BBE000
:10038E009003EBF09005D2E09003ECF012309C124B
:10039E003C08E4FBFA797A7843120CCDC004C00510
:1003AE00C006C0079003BCE0FCA3E0FDE4120F0200
:1003BE00A804A905AA06AB07D007D006D005D0041D
:1003CE00120E7350030204F89005BBE0FF124DF9B4
:1003DE00AC07E4120F07E4FBFA79707842120DD6DF
:1003EE00C004C005C006C0079005B8E0FF124DF965
:1003FE00AC07E4120F07D003D002D001D000120BCD
:10040E00DCE4FBFA79E078C0120BDCE4FBFA7970DD
:10041E007842120CCDC004C005C006C0079005334B
:10042E00E0FCE4120F07A804A905AA06AB07D00743
:10043E00D006D005D004120DD6120F3B9005B5EEA6
:10044E00F0A3EFF0E025E0FF9005B5E033FE743445
:10045E002FF58274053EF583E4F0A304F09005B405
:10046E00E0FF9005B7E0FD9005BBE09003EBF09048
:10047E0005D2E09003ECF0A37401F0A37405F0A391
:10048E0074CAF0A37401F0A37403F0A374C3F0A3B1
:10049E007401F0A37403F0A374E4F0A37401F0A349
:1004AE007403F0A374C1F0A37401F0A37405F0A358
:1004BE0074C2F09005B8E0FB1236E1C004C005C06E
:1004CE0006C0079005B5E0FEA3E07802C333CE3335
:1004DE00CED8F924DBF58274043EF583D007D0061E
:1004EE00D005D0041213C8020681E49005B5F0A31E
:1004FE00F01249069005C2E0FCA3E0FDA3E0FEA3C6
:10050E00E0FF9004C81213C8E49004CCF07F0212EE
:10051E0040CD7F327E00124C9F9005C2E0FCA3E0DE
:10052E00FDA3E0FEA3E02401FFE43EFEE43DFDE476
:10053E003CFC9005C21213C89005B6E004F070069C
:10054E009005B5E004F0D39005B6E094439005B560
:10055E00E064809481409A9005BBE0FF124DF9ACA7
:10056E0007E4120F07E4FBFA79707842120DD6C039
:10057E0004C005C006C0079005B8E0FF124DF9ACE7
:10058E0007E4120F07D003D002D001D000120BDC0B
:10059E00E4FBFA79E078C0120BDCE4FBFA797078B0
:1005AE0042120CCDC004C005C006C007900533E052
:1005BE00FCE4120F07A804A905AA06AB07D007D0C2
:1005CE0006D005D004120DD6120F3B9005B5EEF0F5
:1005DE00A3EFF0E025E0FF9005B5E033FE74342F75
:1005EE00F58274053EF583E4F0A3F09005BBE09030
:1005FE00040FF09005D2E0900410F0A37401F0A364
:10060E007405F0A374CAF09005B5E0FEA3E078027D
:10061E00C333CE33CED8F924DBF58274043EF58392
:10062E00E0FCA3E0FDA3E0FEA3E0FF900414121390
:10063E00C89005B8E0FB9005B7E0FD9005B4E0FF6B
:10064E00121D2D9005CAE0FCA3E0FDA3E0FEA3E081
:10065E00FF9003E41213C8E4FF124C3B9003C3EE69
:10066E00F0A3EFF09003C3E0FFA3E09003C1CFF03F
:10067E00A3EFF09005B4E09003D5F09005B7E090AD
:10068E0003D6F09005B8E09003D7F09005BBE0904C
:10069E0003D8F09003C3E0FEA3E07802CEC313CEDE
:1006AE0013D8F99003D9F09005CAE0FCA3E0FDA39E
:1006BE00E0FEA3E0FF120F3B9003DAEFF0FCE41232
:1006CE000F07A804A905AA06AB079005CAE0FCA36C
:1006DE00E0FDA3E0FEA3E0FF120BD8E4FBFA79C81D
:1006EE007842120CCD120F3B9003DBEFF09003BC5F
:1006FE00E0FEA3E07802CEC313CE13D8F99003DC4C
:10070E00F09003C1E0FEA3E07802CEC313CE13D85F
:10071E00F99003DDF09003E4E0FCA3E0FDA3E0FE1E
:10072E00A3E0FF120F3B9003DEEFF0FCE4120F0785
:10073E00A804A905AA06AB079003E4E0FCA3E0FD1C
:10074E00A3E0FEA3E0FF120BD8E4FBFA79C87842CF
:10075E00120CCD120F3B9003DFEFF07F327E0012B2
:10076E004C9F78E87C037D017B017A0379D57E006E
:10077E007F0B1210D99003F37401F0A37405F0A34C
:10078E0074C2F0123A2180169005B8E0FF124DF9AE
:10079E00EFC3941140089003BFE4F0A304F090035C
:1007AE00BFE07002A3E060030208AF9005B8E0FF5F
:1007BE00124DF9EFD394104003020B1D9005B8E0D3
:1007CE00FF124DF9EFC394075003020B1D9005BBAA
:1007DE00E0FF124DF9AC07E4120F07E4FBFA797053
:1007EE007842120DD6C004C005C006C0079005B8E9
:1007FE00E0FF124DF9AC07E4120F07D003D002D080
:10080E0001D000120BDCE4FBFA79E078C0120BDCAD
:10081E00E4FBFA79707842120CCDC004C005C00614
:10082E00C007900533E0FCE4120F07A804A905AA3F
:10083E0006AB07D007D006D005D004120DD6120F86
:10084E003B9005B5EEF0A3EFF09005BBE090040FE2
:10085E00F09005D2E0900410F0A37401F0A374059B
:10086E00F0A374CAF09005B5E0FEA3E07802C3339E
:10087E00CE33CED8F924DBF58274043EF583E0FC4A
:10088E00A3E0FDA3E0FEA3E0FF9004141213C890B2
:10089E0005B8E0FB9005B7E0FD9005B4E0FF020B54
:1008AE001A9005B8E0FF124DF9EFD39410400302F1
:1008BE000B1D9005B8E0FF124DF9EFC394075003DE
:1008CE00020B1D9005BBE0FF124DF9AC07E4120FB1
:1008DE0007E4FBFA79707842120DD6C004C005C049
:1008EE0006C0079005B8E0FF124DF9AC07E4120FF1
:1008FE0007D003D002D001D000120BDCE4FBFA7952
:10090E00E078C0120BDCE4FBFA79707842120CCD61
:10091E00C004C005C006C007900533E0FCE4120F0A
:10092E0007A804A905AA06AB07D007D006D005D0A4
:10093E0004120DD6120F3B9005B5EEF0A3EFF0901A
:10094E0005B5E0FEA3E07802C333CE33CED8F9FB73
:10095E00AA062460F58274053AF583E0FCA3E0FD57
:10096E00A3E0FEA3E0FF9003C51213C874DB2BF5C2
:10097E008274043AF583E0FCA3E0FDA3E0FEA3E05D
:10098E00FF9003C91213C89005B5E0FAA3E0FBAEC1
:10099E00027802C333CE33CED8F92464F5827405BF
:1009AE003EF583E0FCA3E0FDA3E0FEA3E0FF900391
:1009BE00CD1213C8EB25E0FFEA33FE74342FF58217
:1009CE0074053EF583E0FCA3E064014C6003020A6B
:1009DE00BA74362FF58274053EF583E0FEA3E0640B
:1009EE00014E6003020ABA9005B5E0FEA3E078025C
:1009FE00C333CE33CED8F924DFF58274043EF583AB
:100A0E00E0FCA3E0FDA3E0FEA3E0FF9003D11213F0
:100A1E00C89005BBE0FF124DF9AC07E4120F07E4D6
:100A2E00FBFA79707842120DD6C004C005C006C01C
:100A3E00079005B8E0FF124DF9AC07E4120F07D08E
:100A4E0003D002D001D000120BDC9004A61213C802
:100A5E0078967C047D017B017A0379C57E007F0840
:100A6E001210D9789E7C047D017B017A0379CD7EAC
:100A7E00007F081210D91242C69004141213C890A7
:100A8E0005B4E0FF9005B7E0FD9005BBE090040FC4
:100A9E00F09005D2E0900410F0A37401F0A3740559
:100AAE00F0A374CAF09005B8E0FB80607B017A0574
:100ABE0079349005B5E0FCA3E0FD124D0CEF780201
:100ACE00C333CE33CED8F924DBF58274043EF583DE
:100ADE00E0FCA3E0FDA3E0FEA3E0FF9004141213DC
:100AEE00C89005B4E0FF9005B7E0FD9005BBE0901F
:100AFE00040FF09005D2E0900410F0A37401F0A35F
:100B0E007405F0A374CAF09005B8E0FB121D2D9089
:100B1E0005B8E0FF124DF9EFD3941050129005B8BE
:100B2E00E0FF124DF9EFC394074004D2CD8002C20C
:100B3E00CD900000E064016003020135124F4D7F3D
:100B4E00017E00124E4F7F4312486C7F4C12486C50
:100B5E007F4512486C7F4112486C7F5212486C7F61
:100B6E002E12486C7F2E12486C7F4612486C7F4CBA
:100B7E0012486C7F4112486C7F5312486C7F4812AA
:100B8E00486C1249061249C27F057E00124C9F9096
:100B9E0005C21213D400000000E4900000F0124FC2
:100BAE004D7F08124B4DE4FF124B4D7F6812486C7F
:100BBE007F6812486C7F6D12486C7F6D12486C7F97
:070BCE002312486C020135FF
:064E8E00D2A27F017E00AC
:0E4E9400EF1FAC0670011E4C60030080F3227D
:024D5500AD07A8
:104D5700E4FBC2A2ED30E704D2A18002C2A1124E49
:0D4D670090124E8EED25E0FD0BEBB408E53B
:014D7400221C
:104D7500E4FDD2A1FBED25E0FDC2A2124E9030A1CB
:0F4D850004ED4401FD124E8E0BEBB408E8AF05B0
:014D940022FC
:104ECA00E4FED2A0EF44A0FF124D55124D75C2A0C8
:014EDA0022B5
:104E0A00AA07D2A0ED4420FF124D55AF02124D550C
:084E1A00AF02124D55C2A022A7
:0D4F2A005395F85396F8D2A0C2A0C2A2225F
:104953009003E8EBF0A3EAF0A3E9F07F09124ECA53
:104963009003E8E0FBA3E0FAA3E0F9EF1211457F1F
:1049730007124ECA9003EBE0FBA3E0FAA3E0F9EFC2
:104983001211457F06124ECA9003EEE0FBA3E0FA34
:10499300A3E0F9EF1211457F05124ECA9003F1E02F
:1049A300FBA3E0FAA3E0F9EF1211457F04124ECA0C
:0F49B3009003F4E0FBA3E0FAA3E0F9EF02114553
:104EDB00EFC4540FFEEF540FFFEE75F00AA42FFF33
:014EEB0022A4
:1047E000124EDBAC07AF05124EDBEC14B40C0050DC
:1047F000739047FF75F003A4C58325F0C58373024A
:10480000482302482602482B024830024835024815
:104810003A02483F02484402484902485102485679
:1048200002485B7E0022EF241F8021EF243B801C86
:10483000EF245A8017EF24788012EF2497800DEF31
:1048400024B58008EF24D48003EF24F3FFE433FE83
:1048500022EF24118008EF24308003EF244EFFE480
:074860003401FE22E4FEFF1B
:01486700222E
:104EEC00759850438E9575D7D875D6FFD2ACD2AF86
:014EFC002293
:104C08009005EBEBF0A3EAF0A3E9F09005EBE0FBED
:104C1800A3E0FAA3E0F91210FF60179005EBA3E4F4
:104C280075F0011211F4A9F0FA1210FFFF1200003A
:034C380080D922FE
:06000300EFC4540FFF22C0
:054F5D00EF540FFF22DC
:01000A0022D3
:054F6200EF2430FF22E6
:104E22001241C8EF75F00A84FEEF75F00A84AFF004
:064E3200EEC454F04FFF36
:014E38002257
:104A1C00E4F5917592FF7F96FE124D377F03124B92
:104A2C004D7F1E7E00124D377F03124B4D124D33BE
:104A3C007F03124B4D124D337F02124B4D7F017E83
:104A4C0000124D377F02124B4D7F08124B4DE4FF85
:104A5C00124B4D7F0E124B4DE4FF124B4D7F061245
:094A6C004B4D7F147E00024D3712
:04486800E04430FFF9
:10486C009004D1EFF0D2C0C2B2E0FF5480C4131355
:10487C0013540124FF92B7EF5440C4131354032470
:10488C00FF92B6E0FF5420C413540724FF92B5EFF7
:10489C005410C4540F24FF92B4D2B37F017E001283
:1048AC004D37C2B39004D1E0FF5408131313541FB7
:1048BC0024FF92B7EF54041313543F24FF92B6E035
:1048CC00FF5402C31324FF92B5EF1392B4124D316F
:0548DC00C2B3C2C022BE
:104B4D00C2C0C2B2EF5408131313541F6004D2B77E
:104B5D008002C2B7EF54041313543F6004D2B680E1
:104B6D0002C2B6EF5402C3136004D2B58002C2B5BF
:104B7D00EF30E004D2B48002C2B4124D31C2B32280
:064D3100D2B37F0A7E00F0
:104D3700EF1FAA0670011E4A6013E4FCFDC3ED9441
:0D4D470058EC940250EA0DBD00010C80F004
:014D5400223C
:104DD200EFC4540F4430FEEF540F44309003E8F018
:0D4DE200AF0612486C9003E8E0FF02486C39
:0A4F4300E4FF124B4D7F02024B4DBC
:0A4F4D00E4FF124B4D7F01024B4DB3
:104E4F00EF64014E70047F0880027F0C124B4DE41B
:054E5F00FF124B4D2283
:063D32009004C71213C843
:103D38009004C7E0FCA3E0FDA3E0FEA3E0FF120FA0
:103D48003B124EA29004CFEEF0A3EFF0E4FFFEFD8D
:103D5800FC9004C7E0F8A3E0F9A3E0FAA3E0FB12A3
:103D68000E73602640249004CFE0FCA3E0FDEC1223
:103D78000F02A804A905AA06AB079004C7E0FCA394
:103D8800E0FDA3E0FEA3E0FF80359004C7E0FCA3BC
:103D9800E0FDA3E0FEA3E0FF120EECC004C005C0E6
:103DA80006C0079004CFE0FCA3E0FDEC120F02A8C8
:103DB80004A905AA06AB07D007D006D005D004127F
:103DC8000BD8E4FBFA79207841120CCD120F3B9006
:103DD80004CEEFF09004CFE0FAA3E0FB7C007D0A6C
:103DE800FFAE021211BE9004CBEDF07C037DE8AF6C
:103DF80003AE021211BEAB077E007C037DE81211F0
:103E080057C39004D0E09FFF9004CFE09EFE7C0053
:103E18007D641211699004CDEFF0AF037E007C033E
:103E28007DE8121157C39004D0E09FFD9004CFE0C5
:103E38009EFC9004CDE075F064A4FFC3ED9FFFECF9
:103E480095F0FE7C007D0A1211699004CCEFF0E435
:103E5800FFFEFDFC9004C7E0F8A3E0F9A3E0FAA395
:103E6800E0FB120E73400280057F2D12486C90040F
:103E7800CD1248689004CC1248689004CB12486868
:0B3E88007F2E12486C9004CE12486898
:013E9300220C
:104EA200D3EF9400EE64809480400122C3E49FFF1C
:044EB200E49EFE225A
:102CE100C102C101C103C104C1804205D500004533
:072CF10005D968686D6D73E1
:104DB400EF1FAA0670011E4A6013E4FCFDC3ED94C4
:0D4DC40058EC940250EA0DBD00010C80F087
:014DD10022BF
:1038940053801E43801EE58044E19003EEF0E0F483
:1038A4007003023A1EE58044E1F0E0F47003023A4A
:1038B4001B5380DF4380C1E58044E1F0E0F46047BE
:1038C4009003EEE0FFF4600DA3EFF0E58044E19097
:1038D40003EEF080EB9003EFE02411602424F86001
:1038E4001824FC600C24FE701E9003F07401F08018
:1038F400169003F07404F0800E9003F07407F080C7
:10390400069003F0740CF05380BF4380A1E580441B
:10391400E19003EEF0E0F460469003EEE0FFF46023
:103924000DA3EFF0E58044E19003EEF080EB90030B
:10393400EFE02411602424F8601824FC600C24FEB9
:10394400701D9003F07402F080159003F07405F07C
:10395400800D9003F07408F08005E49003F0F053B8
:10396400807F438061E58044E19003EEF0E0F46001
:10397400479003EEE0FFF4600DA3EFF0E58044E12F
:103984009003EEF080EB9003EFE02411602424F820
:10399400601824FC600C24FE701E9003F07403F085
:1039A40080169003F07406F0800E9003F07409F012
:1039B40080069003F0740BF05380FE4380E0E580B2
:1039C40044E19003EEF0E0F460479003EEE0FFF48E
:1039D400600DA3EFF0E58044E19003EEF080EB90FE
:1039E40003EFE02411602424F8601824FC600C2404
:1039F400FE701E9003F0740DF080169003F0740EA8
:103A0400F0800E9003F0740FF080069003F07410B1
:0C3A1400F09003F0E0FF227F64227F644A
:013A20002283
:10341C009005D8E09005D7F01238949005D8EFF0CD
:10342C00BF0E03D201229005D7E0FFB4640EA3E0D7
:10343C00B40F09300303C20322D203229005D8E053
:10344C00FEB41006200203D20222EEB410063002A3
:10345C0003C20222EFB4641FEEB40D1B900000E017
:10346C007002A3E06008E4900000F0A3F02290004A
:10347C0000E4F0A304F0229005D7E064646003023A
:10348C0036E0A3E0FF646470030236E09005D5E0FB
:10349C00FCA3E024D9F58274053CF583EFF090058C
:1034AC00D6E004F070069005D5E004F09005D5E068
:1034BC007004A3E06405600302367F9005D5F0A389
:1034CC00F09005D9E075F00AA4FFA3E0F97C002F79
:1034DC00FFEC35F0AD07FCA3E075F00AA4FFA3E008
:1034EC007A002FFFEA35F0FEA3E0640B7036D3EDC3
:1034FC009418EC64809480502BEF943BEE64809491
:10350C008050219005D9E0C454F0FFE94FFF7D06AF
:10351C00124E0A9005DBE0C454F0FFA3E04FFF7D90
:10352C0005124E0A9005D9E075F00AA4FFA3E07CC1
:10353C00002FFEEC35F09003EAF0A3CEF09005DB03
:10354C00E075F00AA4FFA3E02FFEEC35F09003EC3D
:10355C00F0A3CEF09005DDE0640C600302363490ED
:10356C0003EAE0FEA3E0FFD3940CEE648094804069
:10357C0003023634EF9407EE6480948050517D0240
:10358C001211BEED4C6016D39003EDE0941F900326
:10359C00ECE064809480400302363480699003EA46
:1035AC00E07004A3E064027013D39003EDE0941C6C
:1035BC009003ECE064809480506E804AD39003EDCD
:1035CC00E0941E9003ECE064809480505B80379014
:1035DC0003EAE0FEA3E0FF7C007D021211BEED4C7D
:1035EC007013D39003EDE0941F9003ECE06480948F
:1035FC008050358011D39003EDE0941E9003ECE0E5
:10360C006480948050229005D9E0C454F0FFA3E06C
:10361C004FFF7D09124E0A9005DBE0C454F0FFA366
:10362C00E04FFF7D07124E0A9005D9E0B40918A3AC
:10363C00E0B40913A3E0B4090EA3E0B40909A3E0B4
:10364C00700590000004F0900000E07026124F4DC1
:10365C007F08124B4DE4FF124B4D7F6812486C7F74
:10366C006812486C7F6D12486C7F6D12486C7F231A
:10367C0012486CE49003E8F0A3F09005D5E0FEA3AB
:10368C00E0FFC39003E9E09FEE6480F89003E8E06C
:10369C00648098503FEF9404EE6480948050257FB2
:1036AC0008124B4D9003E8A3E0FF124B4D9003E83A
:1036BC00E0FEA3E024D9F58274053EF583E04430A6
:1036CC00FF12486C9003E9E004F070AE9003E8E060
:0436DC0004F080A6D0
:0136E00022C7
:0C4F3700759300759400E4F594F5932246
:102CF8006028013043340000433E00004348000090
:102D080043520000435C000043660000437000002B
:102D1800437A00004382000043870000602800A433
:102D280043340000432A00004320000043160000FB
:102D3800430C00004302000042F0000042DC0000A7
:102D480042C8000042B400006258016042EFA3D7B5
:102D580042EF385242EDB33342ECC28F42EAE148C7
:102D680042E8385242E03D7142D170A4429B75C39B
:102D780042BEA8F642D5F0A442D5C7AE42D43333FA
:102D880042D08F5C42CAD70A42C1F5C342B2947B93
:102D98004290051F41F428F6C2AC4CCD42BD051F38
:102DA80042BC2E1442B9385242B3947B42AB947B56
:102DB800429C4CCD428338524221F5C3C17051EC3C
:102DC800C2DB385242A3E66642A2BD71429E3D7103
:102DD800429675C3428ADC29426BD70A422B3333A9
:102DE8004143851FC22FAE14C2EEF5C3428A6B85DC
:102DF8004288A8F642834CCD42728F5C4252CCCDB9
:102E08004221E14841AA51ECC130F5C3C27B28F602
:102E1800C2F9947B425D47AE425A1EB8424E3D719C
:102E28004237D70A4214666641B95C293FF851EC2B
:102E3800C1F228F6C2959EB8C2FC28F64227EB8557
:102E48004223B8524216333341FBD70A41A628F62B
:102E580040CE6666C1770A3DC235147BC2A73333BC
:102E6800C2FECCCD41E28F5C41D7EB8541B9851FCD
:102E780041830A3D40C1999AC112E148C1F370A447
:102E8800C265D70AC2B6199AC2FFA8F64161999AD3
:102E9800414E147B410CCCCD00000000C107AE149C
:102EA800C1BC28F6C22C147BC2884CCDC2C1CCCD83
:102EB800C2FEAE140000000000000000C0B8000010
:102EC800C142E148C1B55C29C212851FC25AE14816
:102ED800C299C28FC2CA9EB8C2FF75C3C162B85236
:102EE800C170CCCDC1991EB8C1D2F5C3C210E1489A
:102EF800C242E148C282F0A4C2A7C7AEC2D22E1411
:102F0800C2FEFAE1C1E1D70AC1EC51ECC204EB857B
:102F1800C21E70A4C240EB85C2705C29C295428F64
:102F2800C2B5C28FC2D9428FC2FF147BC228851F87
:102F3800C22C5C29C2397AE1C250A3D7C271666635
:102F4800C28D0A3DC2A56148C2C18F5CC2DF947BB5
:102F5800C2FF851FC25E147BC261999AC26F28F6B0
:102F6800C282051FC28F2E14C2A05C29C2B4C7AE8C
:102F7800C2CBD1ECC2E551ECC2FFE666C28A199A0F
:102F8800C28C47AEC290D1ECC2990F5CC2A4614812
:102F9800C2B2947BC2C36148C2D5A3D7C2EA0F5C50
:102FA800C3000F5C603C00F4400CCCCD40DCCCCDC1
:102FB8004139999A4182666641A8000041CD999AA3
:102FC80041F33333420C6666421F3333423200000A
:102FD8004244CCCD4257999A426A6666427D333361
:102FE8004288000060A00004C1E1D70AC1EC51EC9E
:102FF800C204EB85C21E70A4C240EB85C2705C2976
:10300800C295428FC2B5C28FC2D9428FC2FF147B0C
:10301800C228851FC22C5C29C2397AE1C250A3D7C5
:10302800C2716666C28D0A3DC2A56148C2C18F5C85
:10303800C2DF947BC2FF851FC25E147BC261999A6E
:10304800C26F28F6C282051FC28F2E14C2A05C2947
:10305800C2B4C7AEC2CBD1ECC2E551ECC2FFE66642
:10306800C28A199AC28C47AEC290D1ECC2990F5C41
:10307800C2A46148C2B2947BC2C36148C2D5A3D777
:10308800C2EA0F5CC3000F5C440000C0A00000410E
:0330980000D40061
:104E64009001581213D4C2932E1490015C1213D4DF
:054E740042360A3D2258
:0A4DEF001213C8900410E0547FFF77
:104DF900EFC4540FFEEF540FFFEE75F00AA42FFF16
:014E09002286
:014F67002227
:104A75009000EC30071A7404F07B017A0079E71294
:104A850044217F027E00124DB49000EC740680181C
:104A95007405F07B017A0079E71244217F027E00DC
:104AA500124DB49000EC7407F07B017A0079E7129F
:0A4AB50044217F027E00124DB4225E
:084B8D009004CBEEF0A3EFF061
:104B9500E4A3F0A3F09004CDF0A3F09004CBE0FEE5
:104BA500A3E0FFC39004CEE09F9004CDE09E501794
:104BB500A2069207124A759004CEE004F070DC90CC
:074BC50004CDE004F080D4F0
:014BCC0022C6
:064CBD009004C71213C8A9
:104CC300E4FFFE7DD07C429004C7E0F8A3E0F9A3A3
:104CD300E0FAA3E0FB120CCD120F3BA205920602F1
:024CE3004B8DF7
:1042A300789E7C047D017B017E007F081210D990EB
:1042B300043AE0FCA3E0FDA3E0FEA3E0FF9004A624
:0342C3001213C80B
:1042C6009004A6E0F8A3E0F9A3E0FAA3E0FB9004CB
:1042D60096E0FCA3E0FDA3E0FEA3E0FF120BD812DC
:1042E6000EECC004C005C006C00790049EE0F8A30B
:1042F600E0F9A3E0FAA3E0FB900496E0FCA3E0FD5E
:10430600A3E0FEA3E0FF120BD8A804A905AA06ABFA
:1043160007D007D006D005D004120DD6C004C005BC
:10432600C006C0079004A2E0F8A3E0F9A3E0FAA350
:10433600E0FB90049AE0FCA3E0FDA3E0FEA3E0FF0F
:10434600120BD8D003D002D001D000120CCD9004AD
:0F4356009AE0F8A3E0F9A3E0FAA3E0FB120BDC76
:014365002235
:0623730090043A1213C8A9
:1023790090047E1213D400000000E4900482F0A3BC
:10238900F0900482E0FEA3E0FFC3940AEE64809417
:10239900804003022700EF7802C333CE33CED8F949
:1023A9002434F58274013EF583E0FCA3E0FDA3E04B
:1023B900FEA3E0FF90043AE0F8A3E0F9A3E0FAA352
:1023C900E0FB120E7360054003022544900482E08D
:1023D900FEA3E07802C333CE33CED8F92430F58298
:1023E90074013EF583E0FCA3E0FDA3E0FEA3E0FF5A
:1023F90090043AE0F8A3E0F9A3E0FAA3E0FB120E97
:10240900735003022544E4900484F0A3F0900482FD
:10241900E0FEA3E07802C333CE33CED8F9FBAA0697
:102429002430F58274013AF583E0FCA3E0FDA3E0D2
:10243900FEA3E0FF9004861213C874342BF582744E
:10244900013AF583E0FCA3E0FDA3E0FEA3E0FF90E1
:10245900048E1213C8900482E0FEA3E07802C3330D
:10246900CE33CED8F9FBAA06900484E0FEA3E0900F
:10247900016075F02812141FEE75F028A42583F564
:1024890083E5822BF582E5833AF583E0FCA3E0FD41
:10249900A3E0FEA3E0FF90048A1213C8900484E02D
:1024A900FEA3E090016475F02812141FEE75F02860
:1024B900A42583F583E5822BF582E5833AF583E04C
:1024C900FCA3E0FDA3E0FEA3E0FF9004921213C871
:1024D90078967C047D017B017A0479867E007F08E9
:1024E9001210D97A04798E1242A3C004C005C0061D
:1024F900C007900484E0FEA3E07802C333CE33CE54
:10250900D8F92442F58274043EF583D007D006D069
:1025190005D0041213C8900485E004F070069004F5
:1025290084E004F0C3900485E0940F900484E0648F
:1025390080948050030224160226EC900482E0FE67
:10254900A3E07802C333CE33CED8F924A8F5827438
:10255900003EF583E0FCA3E0FDA3E0FEA3E0FF90CD
:10256900043AE0F8A3E0F9A3E0FAA3E0FB120E7342
:1025790050030226EC900482E0FEA3E07802C33304
:10258900CE33CED8F924A4F58274003EF583E0FC5D
:10259900A3E0FDA3E0FEA3E0FF90043AE0F8A3E086
:1025A900F9A3E0FAA3E0FB120E73600540030226CB
:1025B900ECE4900484F0A3F0900482E0FEA3E078B8
:1025C90002C333CE33CED8F9FBAA0624A4F582740C
:1025D900003AF583E0FCA3E0FDA3E0FEA3E0FF9051
:1025E90004861213C874A82BF58274003AF583E0A7
:1025F900FCA3E0FDA3E0FEA3E0FF90048E1213C844
:10260900900482E0FEA3E07802C333CE33CED8F93A
:10261900FBAA06900484E0FEA3E090016075F0280F
:1026290012141FEE75F028A42583F583E5822BF596
:1026390082E5833AF583E0FCA3E0FDA3E0FEA3E095
:10264900FF90048A1213C8900484E0FEA3E090016D
:102659006475F02812141FEE75F028A42583F583FC
:10266900E5822BF582E5833AF583E0FCA3E0FDA33F
:10267900E0FEA3E0FF9004921213C878967C047DD3
:10268900017B017A04798E7E007F081210D97A04C1
:1026990079861242A3C004C005C006C0079004840D
:1026A900E0FEA3E07802C333CE33CED8F92442F555
:1026B9008274043EF583D007D006D005D0041213E6
:1026C900C8900485E004F07006900484E004F0C327
:1026D900900485E0940F900484E064809480500312
:1026E9000225C1900483E004F0600302238A900468
:1026F90082E004F002238AE4900482F0A3F09004BB
:1027090082E0FEA3E0FFC3940FEE6480948040034F
:1027190002285FEF7802C333CE33CED8F924F4F51B
:102729008274003EF583E0FCA3E0FDA3E0FEA3E094
:10273900FF90043EE0F8A3E0F9A3E0FAA3E0FB125E
:102749000E73500302284E900482E0FEA3E0780243
:10275900C333CE33CED8F924F8F58274003EF5831D
:10276900E0FCA3E0FDA3E0FEA3E0FF90043EE0F857
:10277900A3E0F9A3E0FAA3E0FB120E73600540039E
:1027890002284E900482E0FEA3E07802C333CE33E0
:10279900CED8F9FBAA0624F4F58274003AF583E051
:1027A900FCA3E0FDA3E0FEA3E0FF9004861213C89A
:1027B90074F82BF58274003AF583E0FCA3E0FDA3DD
:1027C900E0FEA3E0FF90048E1213C8900482E0FE9D
:1027D900A3E07802C333CE33CED8F9FBAA0624424C
:1027E900F58274043AF583E0FCA3E0FDA3E0FEA3BF
:1027F900E0FF90048A1213C874462BF58274043AD8
:10280900F583E0FCA3E0FDA3E0FEA3E0FF900492C2
:102819001213C878967C047D017B017A0479867E3F
:10282900007F081210D9789E7C047D017B017A040F
:10283900798E7E007F081210D990043E1242B5901D
:10284900047E1213C8900483E004F0700690048299
:10285900E004F002270790047EE0FCA3E0FDA3E07A
:04286900FEA3E0FFEB
:01286D002248
:091D2D0090040EEBF0AA05A907D1
:101D3600E490041AF0A3F0A3F0A3F0A31213D400C6
:101D46000000009004221213D40000000090042624
:101D56001213D4000000009004361213D4C0A00061
:101D6600009000D57407F0A374E3F0AF01124DF9AB
:101D7600A3E4F0A3EFF0AF02124DF9A3E4F0A3EF52
:101D8600F090040EE0FF124DF9EF2405FDE433FC5C
:101D9600E4120F029000DB1213C890040FE0FF124A
:101DA6004DF9AC07E4120F079000DF124DEFAC07B8
:101DB600E4120F079000E31213C8900411E0FBA38E
:101DC600E0FAA3E0F91212E290041E1213C8783A60
:101DD6007C047D017B017A0079D57E007F1212108A
:101DE600D9784C7C047D017B017A0179587E007F8D
:101DF600081210D99004547401F0A37400F0A3746F
:101E0600F1F012158BE4FBFA79347843120CCD7B92
:101E1600D07A0F79497840120DD69000CC1213C8AB
:101E26009000DAE024AFFF9000D9E034FFFE7C0199
:101E36007D681211577D6D1211BEEF25E0FDEE3360
:101E4600FC120F027BD07A0F79497840120CCDE450
:101E5600FBFA79347843120DD6123C087B857AEB6F
:101E6600791D7841120CCDC004C005C006C007E438
:101E7600FFFE7D707C41900436E0F8A3E0F9A3E014
:101E8600FAA3E0FB120CCDA804A905AA06AB07909D
:101E96000158E0FCA3E0FDA3E0FEA3E0FF120BD88F
:101EA600E4FBFA79807840120CCDD003D002D00141
:101EB600D000120BDCC004C005C006C0079000DAD3
:101EC600E024AFFF9000D9E034FFFE7C017D68126C
:101ED60011577D6D1211BEAC06AD07EC120F027BD9
:101EE600D07A0F79497840120CCDE4FBFA79347830
:101EF60043120DD6123BF27BC37AF579F078401285
:101F06000CCDA804A905AA06AB07D007D006D005B4
:101F1600D004120BD8C004C005C006C0079000DA72
:101F2600E024AFFF9000D9E034FFFE7C017D68120B
:101F360011577D6D1211BEAC06AD07EC120F027B78
:101F4600D07A0F79497840120CCDE4FBFA793478CF
:101F560043120DD6123C08E4FBFA79C0783F120C06
:101F6600CDA804A905AA06AB07D007D006D005D090
:101F760004120BD8E4FBFA79707842120DD690045D
:101F8600321213C890040FE0FF124DF9AC07E412A9
:101F96000F07E4FBFA79707842120DD6C004C0052B
:101FA600C006C00790040EE0FF124DF9AC07E4121C
:101FB6000F07D003D002D001D000120BDC90043200
:101FC600E0F8A3E0F9A3E0FAA3E0FB120BDC900033
:101FD600ED1213C87FD07E0F7D497C409000CCE087
:101FE600F8A3E0F9A3E0FAA3E0FB120CCDE4FBFAB8
:101FF60079347843120DD6123BF2C004C005C006F0
:10200600C0077FD07E0F7D497C4090015CE0F8A33D
:10201600E0F9A3E0FAA3E0FB120CCDE4FBFA793475
:102026007843120DD6123BF2D003D002D001D00075
:10203600120CCDC004C005C006C007E4FFFE7D40FB
:102046007CC19000EDE0F8A3E0F9A3E0FAA3E0FB81
:10205600120BDC7BD37A7E793C7842120CCDE4FB02
:10206600FA79347843120DD6123BF2D003D002D05F
:1020760001D000120CCDC004C005C006C0077FD039
:102086007E0F7D497C409000CCE0F8A3E0F9A3E008
:10209600FAA3E0FB120CCDE4FBFA79347843120D77
:1020A600D6123C08C004C005C006C0077FD07E0F0C
:1020B6007D497C4090015CE0F8A3E0F9A3E0FAA337
:1020C600E0FB120CCDE4FBFA79347843120DD612FC
:1020D6003C08D003D002D001D000120CCDD003D0E2
:1020E60002D001D000120BDC124BCD7BED7A2E799B
:1020F600657842120CCD90042A1213C8E4FFFE7DC7
:10210600407CC19000EDE0F8A3E0F9A3E0FAA3E07B
:10211600FB120BDC7BD37A7E793C7842120CCDE441
:10212600FBFA79347843120DD6123C08C004C00578
:10213600C006C0077FD07E0F7D497C409000CCE072
:10214600F8A3E0F9A3E0FAA3E0FB120CCDE4FBFA56
:1021560079347843120DD6123BF2D003D002D00167
:10216600D000120CCDC004C005C006C00790042ADA
:10217600E0F8A3E0F9A3E0FAA3E0FBE4FFFE7DB4F8
:102186007C42120BD87BD07A0F79497840120CCD5D
:10219600E4FBFA79347843120DD6123C08A804A958
:1021A60005AA06AB07D007D006D005D004120DD677
:1021B600124BCD7BED7A2E79657842120CCDE4FB7D
:1021C600FA79347843120BDC90042E124DEFEF307F
:1021D600E0030223727FCD7ECC7D0C7C4090042AE6
:1021E600E0F8A3E0F9A3E0FAA3E0FB120E735003B4
:1021F600022372E4FFFE7D887C4290042AE0F8A365
:10220600E0F9A3E0FAA3E0FB120E736005400302B7
:10221600237290042AE0FCA3E0FDA3E0FEA3E0FF06
:1022260090043E1213C890042EE0FCA3E0FDA3E048
:10223600FEA3E0FF1223739004261213C8E4FFFEE8
:102246007D167C43900426E0F8A3E0F9A3E0FAA308
:10225600E0FB120BDC900414E0F8A3E0F9A3E0FA2B
:10226600A3E0FB120BDC90041E1213C8900411E0CD
:10227600FBA3E0FAA3E0F91213A890041EE0FCA366
:10228600E0FDA3E0FEA3E0FF120BD8900422121398
:10229600C8900422E0FCA3E0FDA3E0FEA3E0FF1249
:1022A6000F3B124EA2AC06AD07EC120F02E4FBFA8E
:1022B600F9783F120E7360054003022372E4FFFEB5
:1022C6007D707CC190041EE0F8A3E0F9A3E0FAA3B8
:1022D600E0FB120E735003022372E4FFFE7D527C74
:1022E6004390041EE0F8A3E0F9A3E0FAA3E0FB1292
:1022F6000E7360025076E4FFFEFDFC900422E0F8C7
:10230600A3E0F9A3E0FAA3E0FB120E7360144012F7
:10231600900422E0FCA3E0FDA3E0FEA3E0FFD205CB
:10232600802BE4FFFEFDFC900422E0F8A3E0F9A375
:10233600E0FAA3E0FB120E735016900422E0FCA311
:10234600E0FDA3E0FEA3E0FF120EECC205124CBDB9
:1023560090041EE0FCA3E0FDA3E0FEA3E0FF9004D2
:0C23660011E0FBA3E0FAA3E0F91213322F
:012372002248
:10309C009003EAEBF09000D57407F0A374E3F01200
:1030AC004DF9A3E4F0A3EFF0AF05124DF9A3E4F052
:1030BC00A3EFF09003EAE0FF124DF9EF2405FDE4D5
:1030CC0033FCE4120F029000DB1213C89003EBE008
:1030DC00FF124DF9AC07E4120F079000DF1213C872
:1030EC009003EC124DF5AC07E4120F079000E312BD
:1030FC0013C8783A7C047D017B017A0079D57E0077
:10310C007F121210D9784C7C047D017B017A0179F5
:10311C00587E007F081210D99004547401F0A374E7
:10312C0000F0A374F1F012158BE4FBFA79347843B8
:10313C00120CCD7BD07A0F79497840120DD69000C5
:10314C00CC1213C89000DAE024AFFF9000D9E03421
:10315C00FFFE7C017D681211577D6D1211BEEF25AB
:10316C00E0FDEE33FC120F027BD07A0F79497840E8
:10317C00120CCDE4FBFA79347843120DD6123C08CC
:10318C007B857AEB791D7841120CCDC004C005C04B
:10319C0006C007E4FFFE7D707C41900000E0F8A3C0
:1031AC00E0F9A3E0FAA3E0FB120CCDA804A905AA50
:1031BC0006AB07900158E0FCA3E0FDA3E0FEA3E002
:1031CC00FF120BD8E4FBFA79807840120CCDD003B7
:1031DC00D002D001D000120BDCC004C005C006C068
:1031EC00079000DAE024AFFF9000D9E034FFFE7CBA
:1031FC00017D681211577D6D1211BEAC06AD07EC46
:10320C00120F027BD07A0F79497840120CCDE4FB77
:10321C00FA79347843120DD6123BF27BC37AF579E6
:10322C00F07840120CCDA804A905AA06AB07D0076C
:10323C00D006D005D004120BD8C004C005C006C0FF
:10324C00079000DAE024AFFF9000D9E034FFFE7C59
:10325C00017D681211577D6D1211BEAC06AD07ECE5
:10326C00120F027BD07A0F79497840120CCDE4FB17
:10327C00FA79347843120DD6123C08E4FBFA79C083
:10328C00783F120CCDA804A905AA06AB07D007D02D
:10329C0006D005D004120BD8E4FBFA7970784212F0
:1032AC000DD69000D01213C89003EBE0FF124DF92D
:1032BC00AC07E4120F07E4FBFA79707842120DD6D2
:1032CC00C004C005C006C0079003EAE0FF124DF928
:1032DC00AC07E4120F07D003D002D001D000120BC0
:1032EC00DC9000D0E0F8A3E0F9A3E0FAA3E0FB1235
:1032FC000BDC9000ED1213C87FD07E0F7D497C4013
:10330C009000CCE0F8A3E0F9A3E0FAA3E0FB120CE8
:10331C00CDE4FBFA79347843120DD6123BF2C0049B
:10332C00C005C006C0077FD07E0F7D497C40900150
:10333C005CE0F8A3E0F9A3E0FAA3E0FB120CCDE407
:10334C00FBFA79347843120DD6123BF2D003D0023B
:10335C00D001D000120CCDC004C005C006C007E4DB
:10336C00FFFE7D407CC19000EDE0F8A3E0F9A3E006
:10337C00FAA3E0FB120BDC7BD37A7E793C78421209
:10338C000CCDE4FBFA79347843120DD6123BF2D013
:10339C0003D002D001D000120CCDC004C005C00671
:1033AC00C0077FD07E0F7D497C409000CCE0F8A315
:1033BC00E0F9A3E0FAA3E0FB120CCDE4FBFA7934BC
:1033CC007843120DD6123C08C004C005C006C007D5
:1033DC007FD07E0F7D497C4090015CE0F8A3E0F942
:1033EC00A3E0FAA3E0FB120CCDE4FBFA79347843AA
:1033FC00120DD6123C08D003D002D001D000120C12
:10340C00CDD003D002D001D000120BDC124BCD2258
:10158B00E4FBFA79707842900448E0FCA3E0FDA3F9
:10159B00E0FEA3E0FF120DD6900444E0F8A3E0F9BF
:1015AB00A3E0FAA3E0FB120BDCE4FBFA79707842C0
:1015BB00120DD6900440E0F8A3E0F9A3E0FAA3E003
:1015CB00FB120BDC90045B1213C890043DE024F279
:1015DB00FF90043CE034FFFE7C007D0C1211BEEE4C
:1015EB003395E0FDFC90047B1213C8E47F0CFEFDE9
:1015FB00FC90047BE0F8A3E0F9A3E0FAA3E0FB1274
:10160B001261A804A905AA06AB0790043DE024FECD
:10161B00FF90043CE034FFFE3395E0FDFCC3EF9BF1
:10162B00FFEE9AFEED99FDEC98FCE47B6F7A01F9E5
:10163B00F8121261E47B0CFAF9F8124B09C004C0E2
:10164B0005C006C00790043BE024C0FF90043AE0BD
:10165B003412FE3395E0FDFC90047BE0F8A3E0F937
:10166B00A3E0FAA3E02FFFEA3EFEE93DFDE83CFCD8
:10167B00E47BB57A05F9F8121261E47B04FAF9F808
:10168B00124B09D003D002D001D000EF2BFFEE3A62
:10169B00FEED39FDEC38FCC004C005C006C0079058
:1016AB00043BE02424FF90043AE03413FE3395E02E
:1016BB00FDFC90047BE0F8A3E0F9A3E0FAA3E02F94
:1016CB00FFEA3EFEE93DFDE83CFCE47B64FAF9F8F9
:1016DB00124B09E47B03FAF9F8121261E47B04FA6A
:1016EB00F9F8124B09A804A905AA06AB07D007D035
:1016FB0006D005D004C3EF9BFBEE9AFAED99F9ECFB
:10170B0098F890043EE0FEA3E0FFEE3395E0FDFC7D
:10171B00EB2FFFEA3EFEE93DFDE83CFCEF24B5FF75
:10172B00EE3482FEED34FFFDEC34FFFC90047F12AF
:10173B0013C890047FE0FCA3E0FDA3E0FEA3E0FF51
:10174B00EC120EFDE4FBFAF978BF120BDCC004C0FF
:10175B0005C006C007E4FBFA79C0784190045BE052
:10176B00FCA3E0FDA3E0FEA3E0FF120DD6D003D057
:10177B0002D001D000120BDC9004771213C87F64E7
:10178B007EA17D157CCA900477E0F8A3E0F9A3E075
:0D179B00FAA3E0FB120BDC9004571213C8F8
:1017A8007F787E3E7D887C3A900457E0F8A3E0F984
:1017B800A3E0FAA3E0FB120CCDA804A905AA06AB86
:1017C800077F467E257D097C40120BD890047F1246
:1017D80013C87FDE7EEC7D8C7C3C900457E0F8A338
:1017E800E0F9A3E0FAA3E0FB120CCD7B5B7AA479C5
:1017F8009C7840120BDC9004771213C87F257EEB8F
:101808007D8C7C3C900457E0F8A3E0F9A3E0FAA3B0
:10181800E0FB120CCD7B927AAE79C77840120BDCD4
:1018280090047B1213C890047BE0FCA3E0FDA3E0C6
:10183800FEA3E0FF123C087B4A7ADF7908783D1264
:101848000CCD900477E0F8A3E0F9A3E0FAA3E0FB5D
:10185800120BDCC004C005C006C007E4FFFEFD7C17
:101868004090047BE0F8A3E0F9A3E0FAA3E0FB12C0
:101878000CCD123C087BEF7AF179B67839120CCD91
:10188800D003D002D001D000120BDC7B297AD179A9
:10189800ED78B8120BDCC004C005C006C007900480
:1018A8007FE0FCA3E0FDA3E0FEA3E0FF123C087B81
:1018B800EB7A4979AA7837120CCDA804A905AA06AB
:1018C800AB07D007D006D005D004120BD890045F20
:1018D8001213C890047FE0FCA3E0FDA3E0FEA3E0A0
:1018E800FF123BF27B2D7A1879267838120CCDC07E
:1018F80004C005C006C0077FEC7E827DD57C319090
:101908000457E0F8A3E0F9A3E0FAA3E0FB120CCD3A
:10191800A804A905AA06AB077F9D7E747DD17C3EED
:10192800120BD8D003D002D001D000120BDC9004E7
:04193800631213C85B
:10193C0090045FE0FCA3E0FDA3E0FEA3E0FF123CFB
:10194C00089004771213C8900463E0FCA3E0FDA395
:10195C00E0FEA3E0FF123BF2900477E0F8A3E0F97D
:10196C00A3E0FAA3E0FB120CCD90046F1213C89005
:10197C00045FE0FCA3E0FDA3E0FEA3E0FF123BF25A
:10198C009004731213C8900473E0FCA3E0FDA3E071
:10199C00FEA3E0FF90049B1213C890046FE0FCA31D
:1019AC00E0FDA3E0FEA3E0FF12461B9004671213B8
:1019BC00C8E4FFFEFDFC900467E0F8A3E0F9A3E0A7
:1019CC00FAA3E0FB120E73501F900467E0FCA3E037
:1019DC00FDA3E0FEA3E0FF7BD07A0F79C97840121B
:1019EC000BDC9004671213C8900463E0FCA3E0FDC9
:1019FC00A3E0FEA3E0FF123C08900477E0F8A3E01C
:101A0C00F9A3E0FAA3E0FB120CCD124BCD90046BC2
:031A1C001213C8DA
:101A1F007FE07E927D867C3D900457E0F8A3E0F94D
:101A2F00A3E0FAA3E0FB120CCD7B4D7A5179D67867
:101A3F0040120BDC90045BE0F8A3E0F9A3E0FAA3FB
:101A4F00E0FB120BDC9004771213C8E4FFFE7D70ED
:101A5F007C41900477E0F8A3E0F9A3E0FAA3E0FB60
:101A6F00120CCD90044CE0F8A3E0F9A3E0FAA3E048
:101A7F00FB120BDC7B2E7AFA798E783C120CCD9010
:101A8F00047B1213C8900467E0F8A3E0F9A3E0FA0F
:101A9F00A3E0FB90047BE0FCA3E0FDA3E0FEA3E04A
:101AAF00FF120BD89004831213C87F2E7EFA7D8EFF
:101ABF007C3C900450E0F8A3E0F9A3E0FAA3E0FB2C
:101ACF00120CCD90047F1213C890047FE0FCA3E0AA
:101ADF00FDA3E0FEA3E0FF123BF29004871213C8B0
:101AEF0090047FE0FCA3E0FDA3E0FEA3E0FF123C27
:101AFF000890048B1213C8900483E0FCA3E0FDA3AD
:101B0F00E0FEA3E0FF123BF290048F1213C8900483
:101B1F006BE0FCA3E0FDA3E0FEA3E0FF123BF2C0ED
:101B2F0004C005C006C00790048FE0FCA3E0FDA32E
:101B3F00E0FEA3E0FF900487E0F8A3E0F9A3E0FA4A
:101B4F00A3E0FB120CCDD003D002D001D000120CB9
:101B5F00CDC004C005C006C00790046BE0FCA3E035
:101B6F00FDA3E0FEA3E0FF123C0890048BE0F8A376
:101B7F00E0F9A3E0FAA3E0FB120CCDD003D002D022
:101B8F0001D000120BDC124ABF900454E0FBA3E01B
:101B9F00FAA3E0F9121332900483E0FCA3E0FDA353
:101BAF00E0FEA3E0FF123C08120EEC90046F12133C
:101BBF00C890046BE0FCA3E0FDA3E0FEA3E0FF12DE
:101BCF003C44900487E0F8A3E0F9A3E0FAA3E0FB1C
:101BDF00120CCDC004C005C006C00790048FE0FCF6
:101BEF00A3E0FDA3E0FEA3E0FF90048BE0F8A3E0E9
:101BFF00F9A3E0FAA3E0FB120CCDA804A905AA06ED
:101C0F00AB07D007D006D005D004120BD8900473C1
:101C1F001213C8900473E0FCA3E0FDA3E0FEA3E061
:101C2F00FF90049B1213C890046FE0FCA3E0FDA388
:101C3F00E0FEA3E0FF12461B900454E0FBA3E0FA82
:101C4F00A3E0F990000412134C900004121302E465
:101C5F00FBFAF9F8120E73602F402D900454E0FB3D
:101C6F00A3E0FAA3E02404F9E43AFAC003C002C0E7
:101C7F00011212E27BD07A0F79C97840120BDCD0B7
:101C8F0001D002D003121332900454E0FBA3E0FA08
:101C9F00A3E02404F9E43AFAC003C002C00112120F
:101CAF00E27B2E7AFA798E783C120DD6D001D002D3
:101CBF00D003121332900454E0FBA3E0FAA3E0F92F
:101CCF001212E2123C087B0D7AA079327838120C8E
:101CDF00CD9004931213C8900454E0FBA3E0FAA331
:101CEF00E0F91212E2900493E0F8A3E0F9A3E0FA0E
:101CFF00A3E0FB120BDC7B2E7AFA798E783C120D67
:0F1D0F00D6900454E0FBA3E0FAA3E0F9121332DC
:0E1D1E0090046BE0FCA3E0FDA3E0FEA3E0FF59
:011D2C002294
:104D9500C2A4C2A5C2A64391015392FEE4F597436E
:0F4DA5009D05F5BDF5BE75BC807F02FE024D3742
:104C3B00EF4488F5BC00000000E5BC30E4FB53BC3E
:104C4B00EFAFBD7E00ADBE7C00EF7802C333CE3339
:0B4C5B00CED8F9FFED5403FDEF4DFF34
:014C6600222B
:10436600E4900422F0A3F0900420F0A3F09004223D
:10437600A3E0FF124C3BAC06AD07900421E025E01C
:10438600FF900420E033FE740C2FF58274043EF592
:1043960083ECF0A3EDF0900421E004F070069004A5
:1043A60020E004F0C3900421E0940A900420E06425
:1043B60080948040B8900420E4F0A304F090042098
:1043C600E0FEA3E0FFD39409EE648094805047EFAB
:1043D60025E0FFEE33FE740C2FF58274043EF58360
:1043E600E0FEA3E0FF90040CE0FCA3E0FDC3EF9D1C
:1043F600FFEE9CFE124EA2D3EF941EEE64809480D4
:104406004004E4FEFF22900421E004F070AF900423
:0A44160020E004F080A77E007F0183
:014420002279
:0B286E0090040CEBF0A3EAF0A3E9F0EB
:10287900E4900418F0A31213D43F000000E490047C
:10288900C1F0A3F0A3F0A3F09004C3E0FEA3E0FF1E
:10289900C39451EE648094805025EF25E0FFEE3318
:1028A900FE741D2FF58274043EF583E4F0A3F090C5
:1028B90004C4E004F070D19004C3E004F080C9E4DA
:1028C9009004C3F0A3F0E49004C5F0A3F09004C50C
:1028D900E0FEA3E0FFC39405EE648094805035EFD9
:1028E9004E70069004C1F0A3F0900418E0FF124C5A
:1028F9003B9004C2E02FF09004C1E03EF07F027EDD
:1029090000124D379004C6E004F070C19004C5E090
:1029190004F080B99004C1E0FEA3E0FF7C007D05CE
:10292900121169AC06AD079004C4E025E0FF9004DC
:10293900C3E033FE741D2FF58274043EF583ECF079
:10294900A3EDF01249067F02124C3BEF7802CEC389
:1029590013CE13D8F99004CCF0900415E0FBA3E052
:10296900FAA3E0F91212E29004C81213C87F021206
:1029790040CD7F327E00124C9F900415E0FBA3E00E
:10298900FAA3E0F91212E2EF2401FFE43EFEE43D6E
:10299900FDE43CFC121332124906900415E0FBA336
:1029A900E0FAA3E0F91212E29004C81213C89004E5
:1029B900C4E025E0FF9004C3E033FE741D2FF582C7
:1029C90074043EF583E0FEA3E07802CEC313CE1370
:1029D900D8F99004CCF07F021240CD7F327E0012EC
:1029E9004C9F900415E0FBA3E0FAA3E0F91212E270
:1029F900EF2401FFE43EFEE43DFDE43CFC1213320A
:102A0900124906900415E0FBA3E0FAA3E0F91212BB
:102A1900E29004C81213C890040CE0FBA3E0FAA3E7
:102A2900E0F91212E2120F3B9004CCEFF07F021290
:102A390040CD7F327E00124C9F900415E0FBA3E04D
:102A4900FAA3E0F91212E2EF2401FFE43EFEE43DAD
:102A5900FDE43CFC121332124906900415E0FBA375
:102A6900E0FAA3E0F91212E29004C81213C8900424
:102A79000CE0FBA3E0FAA3E0F91212E2120F3BAC5F
:102A890007EC120F07C004C005C006C00790040C6C
:102A9900E0FBA3E0FAA3E0F91212E2D003D002D0DE
:102AA90001D000120BD8E4FBFA79C87842120CCD98
:102AB900120F3B9004CCEFF07F021240CD7F327EA3
:102AC90000124C9F900415E0FBA3E0FAA3E0F91271
:102AD90012E2EF2401FFE43EFEE43DFDE43CFC127A
:102AE90013327F08124B4D7F05124B4D7F4112481F
:102AF9006C7F4412486C7F4312486C7F3A12486CD1
:102B09009004C4E025E0FF9004C3E033FE741D2F58
:102B1900F58274043EF583E0FCA3E0FDE4120F02A4
:102B2900E4FBFA79807844120DD6E4FBFA79A078AF
:102B390040120CCD123D327F5612486C7F1012485C
:102B49006C7FF47E01124D37900419E0FCA3E0FD7F
:102B5900A3E0FEA3E0FFD205124CBD90040CE0FBFC
:102B6900A3E0FAA3E0F9C003C002C0011212E2E433
:102B7900FBFAF9783F120BDCD001D002D003121313
:102B8900329004C4E004F070069004C3E004F0C37A
:102B99009004C4E094519004C3E06480948050038D
:102BA9000228CF9004C3E07004A3E06451600302DB
:102BB9002C9B7B017A04791D1246B89004BFEEF074
:102BC900A3EFF0E025E0FF9004BFE033FE741D2F72
:102BD900F58274043EF583E0F9A3E0FF90040FE069
:102BE900FBA3E0FAA3E0C98FF012124290046DE052
:102BF900F9A3E0FF900412E0FBA3E0FAA3E0C98F78
:102C0900F01212429004BFE0FEA3E0FFC374519F8B
:102C1900FDE49EFCE4120F02900419E0F8A3E0F928
:102C2900A3E0FAA3E0FB120CCDC205124CBD90043F
:102C39000CE0FBA3E0FAA3E0F9C003C002C0011253
:102C490012E2C004C005C006C0079004BFE0FEA39D
:102C5900E0FFC374519FFDE49EFCE4120F0290044F
:102C690019E0F8A3E0F9A3E0FAA3E0FB120CCDA860
:102C790004A905AA06AB07D007D006D005D00412CF
:102C89000BD8D001D002D0031213327FF47E011287
:022C99004D37B5
:012C9B002216
:1046B800E4FDFC9004C7F0A37428F0E4A3F0A3F091
:1046C8009004C9E0FEA3E0FFC39451EE9400507338
:1046D800EF25E0FFEE338F82F58312120AFFD3ED48
:1046E8009FEC95F04006AE04AF0580169004CAE032
:1046F80025E0FF9004C9E0338F82F58312120AFF88
:10470800AEF0AC06AD079004CAE025E0FF9004C9FE
:10471800E0338F82F58312120AB50516ECB5F01254
:104728004D600F9004C9E0FFA3E09004C7CFF0A349
:10473800EFF09004CAE004F070869004C9E004F039
:0B4748000246C89004C7E0FEA3E0FF9B
:014753002243
:0B36E1009003E8EFF0A3EDF0A3EBF086
:1036EC009003FC1213D400000000E4900400F0A33B
:1036FC00F0A3F0A3F09003F9E0FBA3E0FAA3E0F948
:10370C001212E29004041213C89003EDE0FBA3E044
:10371C00FAA3E0F91212E29004081213C89003F015
:10372C00E0FBA3E0FAA3E0F9E4F5F01212429003F7
:10373C00F6E0FBA3E0FAA3E0F9E4F5F012124290F4
:10374C0003F3E0FBA3E0FAA3E0F912140500000078
:10375C0000124366EF4E700302388E9003EBE0903C
:10376C00040FF09003ECE0900410F0A37401F0A3AC
:10377C007404F0A37408F0A31213D4C1A000009039
:10378C0003EAE0FB9003E9E0FD9003E8E0FF121D83
:10379C002DE4FFFE7DA07C41900408E0F8A3E0F945
:1037AC00A3E0FAA3E0FB120BDC9003F3E0FBA3E035
:1037BC00FAA3E0F912133290040F7401F0A374040D
:1037CC00F0A37400F0A37401F0A37404F0A37402CA
:1037DC00F0A37401F0A37404F0A37404F07B017AD9
:1037EC0004790812286E900404E0FCA3E0FDA3E029
:1037FC00FEA3E0FF9003F9E0FBA3E0FAA3E0F912CB
:10380C001332900400E0F9A3E0FF9003F0E0FBA377
:10381C00E0FAA3E0C98FF0121242900402E0F9A37F
:10382C00E0FF9003F6E0FBA3E0FAA3E0C98FF012EF
:10383C0012429003F3E0FBA3E0FAA3E0F91213A801
:10384C00900408E0FCA3E0FDA3E0FEA3E0FF120B54
:10385C00D89003FC1213C8900408E0FCA3E0FDA36D
:10386C00E0FEA3E0FF9003EDE0FBA3E0FAA3E0F998
:10387C001213329003FCE0FCA3E0FDA3E0FEA3E0F6
:07388C00FF22E4FFFEFDFC3A
:013893002212
:104D0C00C3EC64809480401CED25E0FFEC338F8273
:104D1C00F58312120A640145F07005AF05AE04224A
:044D2C00E4FEFF2280
:014D30002260
:0D4C67007F027E00124C74D2CC7F027E00D2
:104C7400EF1FAA0670011E4A6013E4FCFDC3ED9405
:0D4C840009EC940050EA0DBD00010C80F019
:014C91002200
:014F68002226
:0F4EFD00D2CCD2C7124C70C2C7124C70C2CC229A
:104E7900C2CCC2C7124C70D2CCC2C77F047E00120A
:054E89004C74D2C722A9
:104E3900E425E0FBC2CC124C7030C704EB4401FB03
:054E4900124C6EAF03E6
:014E4E002241
:054F5700124C67C2CC02
:014F5C002232
:0E4F0C00C2CCD2C7124C67C2CC124C70C2C7C6
:014F1A002274
:054CE500F9121118FF97
:024CEA00A90718
:104CEC00E4FBC2CCE930E704D2C78002C2C7124C45
:0F4CFC0070D2CCE925E0F9124C700BEBB408E351
:014D0B002285
:104421009004CFEBF0A3EAF0A3E9F0124EFD7F0177
:104431007E00124C747F40124CEA124E39EF70121A
:104441009004CFE0FBA3E0FAA3E0F91210FFFF1202
:104451004CEA124E39EF70109004CFE0FBA3E0FA62
:10446100A3E0900001124CE5124E39EF7010900458
:10447100CFE0FBA3E0FAA3E0900002124CE5124E5C
:1044810039EF70119004CFE0FBA3E0FAA3E0F990BB
:104491000003124CE6124E39EF70119004CFE0FB8D
:1044A100A3E0FAA3E0F9900004124CE6124E39EFB2
:1044B10070119004CFE0FBA3E0FAA3E0F9900005AE
:0D44C100124CE6124E39EF7003124E7922B4
:0D4C92007F057E00124C9FD2C37F057E007F
:104C9F00EF1FAA0670011E4A6013E4FCFDC3ED94DA
:0D4CAF0004EC940050EA0DBD00010C80F0F3
:014CBC0022D5
:1049C2007B6053B3F143B407C2C1124C9BE4900322
:1049D200E8F0A3F0C2C3124C9BEB30E704D2C280D2
:1049E20002C2C2124C92EB25E0FB9003E9E004F014
:1049F20070069003E8E004F0C39003E9E0940890A5
:104A020003E8E06480948040CBD2C17F0A7E00122A
:094A12004C9F12457AEF20E0F9F7
:014A1B002278
:1048E1007F327E00124C9F9003F3E0FBA3E0FAA31A
:1048F100E0F91212E2EF2401FFE43EFEE43DFDE4A3
:054901003CFC12133222
:104906007B06C2C1E49004C7F0A3F0C2C3124C9B5D
:10491600EB30E704D2C28002C2C2124C92EB25E011
:10492600FB9004C8E004F070069004C7E004F0C3EE
:104936009004C8E094089004C7E06480948040CB5B
:0C494600D2C1124C9B12457AEF20E0F920
:014952002242
:0740C600E09004CCF07F0242
:0240CD00AB073F
:1040CF00C2C1124C9BE49004CDF0A3F0C2C3124CBA
:1040DF009BEB30E704D2C28002C2C2124C92EB2596
:1040EF00E0FB9004CEE004F070069004CDE004F005
:1040FF00C39004CEE094089004CDE0648094804097
:10410F00CBE49004CDF0A3F0C2C3124C9B9004C833
:10411F00A3E0FDA3A3E4FFFEED5480FDE4FCFBFA56
:10412F007980F8C31212BE7004D2C28002C2C212CA
:10413F004C929004C8E0FCA3E0FDA3E0FEA3E0FFD7
:10414F0078011212CF9004C81213C89004CEE00465
:10415F00F070069004CDE004F0C39004CEE0941804
:10416F009004CDE064809480409EE49004CDF0A351
:10417F00F0C2C3124C9B9004CCE030E704D2C28053
:10418F0002C2C2124C929004CCE025E0F09004CE13
:10419F00E004F070069004CDE004F0C39004CEE08C
:1041AF0094089004CDE06480948040C5D2C1124C35
:0841BF009B12457AEF20E0F9A4
:0141C70022D5
:023FB600AB0757
:103FB800E49005E3F0C2C17F05FE124C9FE4A3F034
:103FC800A3F0C2C3124C9BEB30E704D2C28002C2FA
:103FD800C2124C92EB25E0FB9005E5E004F0700678
:103FE8009005E4E004F0C39005E5E094089005E44A
:103FF800E06480948040CBE49005E4F0A3F0C2C371
:10400800124C9B9005DFA3E0FDA3A3E4FFFEED5453
:1040180080FDE4FCFBFA7980F8C31212BE7004D26A
:10402800C28002C2C2124C929005DFE0FCA3E0FD00
:10403800A3E0FEA3E0FF78011212CF9005DF121370
:10404800C89005E5E004F070069005E4E004F0C3CC
:104058009005E5E094189005E4E064809480409E23
:104068007F0A7E00124C9FD2C47F027E00124C9FB2
:10407800E49005E4F0A3F09005E3E025E0F0124CAD
:1040880099C2C3124C9B30C404E04401F09005E58A
:10409800E004F070069005E4E004F0C39005E5E064
:1040A80094089005E4E06480948040CBD2C1124C1F
:0D40B8009B12457AEF20E0F99005E3E0FF50
:0140C50022D8
:10457A00E4FB9004CFF0A3F0A3F07905C2C17F0554
:10458A00FE124C9FE49004D0F0A3F0C2C3124C9BDD
:10459A00E930E704D2C28002C2C2124C92E925E095
:1045AA00F99004D1E004F070069004D0E004F0C35E
:1045BA009004D1E094089004D0E06480948040CBC9
:1045CA007F0A7E00124C9FD2C47F027E00124C9F4B
:1045DA00E49004D0F0A3F0EB25E0FB124C99C2C39F
:1045EA00124C9B30C404EB4401FB9004D1E004F06C
:1045FA0070069004D0E004F0C39004D1E0940890CF
:10460A0004D0E06480948040CED2C1124C9BAF03A8
:01461A00227D
:103A21001249069003F3E0FBA3E0FAA3E0F91212B6
:103A3100E29004C81213C89003E81240C69003F341
:103A4100E0FBA3E0FAA3E0F91212E2EF2401FFE4A4
:103A51003EFEE43DFDE43CFC1213327F327E001257
:103A61004C9F1249069003F3E0FBA3E0FAA3E0F9AF
:103A71001212E29004C81213C89003E91240C61250
:103A810048E19003F3E0FBA3E0FAA3E0F91212E2AC
:103A91009004C81213C89003EA1240C61248E1907C
:103AA10003F3E0FBA3E0FAA3E0F91212E29004C8E9
:103AB1001213C89003EB1240C61248E19003F3E0E1
:103AC100FBA3E0FAA3E0F91212E29004C81213C8B2
:103AD1009003EC1240C61248E19003F3E0FBA3E02F
:103AE100FAA3E0F91212E29004C81213C89003ED90
:103AF1001240C61248E19003F3E0FBA3E0FAA3E011
:103B0100F91212E29004C81213C89003EE1240C6D3
:103B11001248E19003F3E0FBA3E0FAA3E0F91212EB
:103B2100E29004C81213C89003EF1240C61248E194
:103B31009003F3E0FBA3E0FAA3E0F91212E2900490
:103B4100C81213C89003F01240C61248E19003F363
:103B5100E0FBA3E0FAA3E0F91212E29004C8121309
:103B6100C89003F11240C61248E19003F3E0FBA3B1
:103B7100E0FAA3E0F91212E29004C81213C890030C
:103B8100F21240C67F327E00124C9F9003F3E0FB9D
:103B9100A3E0FAA3E0F91212E2EF2401FFE43EFEF2
:093BA100E43DFDE43CFC0213329A
:0300000002475460
:0C475400787FE4F6D8FD75812102479BB8
:100BD500020FA7E86480F8E933E83360110460F098
:100BE500ED33EC337009E8FCE9FDEAFEEBFF220486
:100BF50060DED3EB9FEA9EE99DE8C2E78CF0C2F781
:100C050095F0400CE8CCF8E9CDF9EACEFAEBCFFB4C
:100C1500120F7285D0F05804700320D5B3E8047024
:100C2500075002B2D5020FB192D5EC0460F7E4CCBF
:100C3500C0E0C398F8603B94186008400DD0E0FB15
:100C4500020F89E4FBFAC9FC8028E830E406E4C910
:100C5500FBE4CAFCE830E305E4C9CACBFCE8540769
:100C65006010F8C3E913F9EA13FAEB13FBEC13FC74
:100C7500D8F130F52FC3E49CFCEF9BFFEE9AFEED17
:100C850099FDD0E0FBEF4E4D4C701222DB03020FB5
:100C9500AEEC2CFCEF33FFEE33FEED33FDED30E72C
:100CA500EB020F89EF2BFFEE3AFEED39FDD0E0FBAD
:100CB50050130BBB0003020FB1ED13FDEE13FEEF56
:080CC50013FFEC13FC020F8980
:100CCD00EC4D6011E8497017ED33EC3304600DE421
:100CDD00FCFFFEFD22E933E8330470F8020FA71282
:100CED000F7258046009E4CC248150062850090283
:100CFD000FB1284003020FAEC0E0EB4A7044B9803B
:100D0D0006D0E0FB020F9DEF4E701CBD8008EBFF7F
:100D1D00EAFEE9FD80EBE98DF0A4FEE5F0020DB6EB
:100D2D00E9CDF9EAFEEBFFEF89F0A4FCE5F0CE8901
:100D3D00F0A42EFFE435F0CD89F0A42DFEE435F0BE
:100D4D008067EF4E7005BD80D780C3EF8BF0A4ACEC
:100D5D00F0EE8BF0A42CFCE435F0F8EF8AF0A42C27
:100D6D00E5F038FCE433CB8DF0A42CFCE5F03BF83A
:100D7D00EE8AF0A42CFCE5F038F8E433CF89F0A42A
:100D8D002CFCE5F038CF3400CE89F0A42FFFE5F030
:100D9D003EFEE433C98DF0A42EFEE5F039CD8AF088
:100DAD00A42FFFE5F03EFEE43DFD33D0E0FB500700
:100DBD000BBB000F020FB1EC2CFCEF33FFEE33FE3B
:060DCD00ED33FD020F8969
:100DD300020FB1EC5D046005E859047003020FA72C
:100DE300120F72580460F6EC4860F2EC7004FDFEDA
:100DF300FF22C860DB2481C85009C39860025006F3
:100E0300020FAE9850CAF582E9294B4A7005AB82AE
:100E1300020F9D75F0007C1A7880C3EF9BEE9AED6C
:100E230099400DC3EF9BFFEE9AFEED99FDE842F06A
:100E3300DC23ACF0D0E0FFD0E0FED0E0FDAB8220BD
:100E4300E7101BEB60BAEC2CFCEF33FFEE33FEED47
:100E530033FD020F89E803F830E705C0F075F000B1
:100E6300EF2FFFEE33FEED33FD40B830E7C280AA2B
:100E730074F8CC6480CCC86480C8F58204604FC326
:100E8300EB9FF5F0EA9E42F0E99D42F0E89C45F0C5
:100E9300603C501DE5825FFFE582D313CB5BCBF44F
:100EA3002B5582FB50280ABA002409B90020088078
:100EB3001DE5825BFBE582D313CF5FCFF4C3132F12
:100EC3005582FF50090EBE00050DBD00010CC3EB9A
:100ED3009FF5F0EA9E42F0E99D42F0E89C45F06000
:090EE30007CC4820E701B3EC2222
:100EEC00ED33EC33600A047003BD8004ECB2E7FC14
:010EFC0022D3
:100EFD0075F020800E75F010800575F0087D007E70
:100F0D00007F003392D530D5031212B0EC33401070
:100F1D00EF33FFEE33FEED33FDEC33FCD5F0ED2278
:0E0F2D00E5F0247EA2D513CC92E7CDCEFF22B4
:100F3B00EDD2E7CD33EC3392D524814006E4FFFEAE
:100F4B00FDFC22FCE4CFCECDCC24E0501174FF800D
:100F5B00EDC3CC13CCCD13CDCE13CECF13CF0470AA
:070F6B00F030D5DE0212B0E8
:10461B009004971213C890049BE0F8A3E0F9A3E071
:10462B00FAA3E0FB900497E0FCA3E0FDA3E0FEA35C
:10463B00E0FF120DD6123EB49004971213C89004EB
:10464B009BE030E759900497E0FCA3E0FDA3E0FE6C
:10465B00A3E0FFECC0E0EDC0E0EEC0E0EFC0E0E4B3
:10466B00FFFEFDFC900497E0F8A3E0F9A3E0FAA3AA
:10467B00E0FB120E737BDB600250087A0F794978EE
:10468B004080067A0F794978C0D0E0FFD0E0FED0A9
:10469B00E0FDD0E0FC120BDC9004971213C89004E1
:0D46AB0097E0FCA3E0FDA3E0FEA3E0FF22EA
:103BAA003A70FA83BCAAE9E43E81E0F8BF9DE9E6EF
:103BBA003F80000039283C1ABB9969663DA335E36A
:103BCA00BF255DE73FC90FDB418DDBCCC44936EE2B
:103BDA0045C9913FC5B0F83D3F800000C317F53491
:103BEA00452FFA73C60AFDDD123CB304A2E1920521
:103BFA001420E015903BAA7404120FBC8030123CCA
:103C0A00B330E102B20520E0EBA883A982900497C1
:103C1A001213C889828883903BBE7404120FBC8534
:103C2A0082F090049712138C85F082120CCDED4C21
:103C3A006007300504EC6480FC22123CB3C0E0A8A3
:103C4A0083A9829004971213C889828883903BE2E1
:103C5A007403120FBC8582F090049712138C85F0BE
:103C6A0082120CCD900497E0CCF0A3E0CDF0A3E053
:103C7A00CEF0A3E0CFF0903BD27403120FBCD082F7
:103C8A008582F090049712138C85F082E58230E0E9
:103C9A0007120DD6B2058096EFCBFFEECAFEEDC92C
:103CAA00FDECC8FC120DD68085ED33EC547FCC3385
:103CBA00920524605007D0E0D0E0020FA77B837AF8
:103CCA00F97922783E120CCDEDF933ECF8332481E0
:103CDA005011EFFBEEFA120F3B120EFDECB2E7FCAD
:103CEA00120BDCED33EC33602F2403F8C313FCED25
:103CFA0092E7FDE82481E4501FECF8EDF9EEFAEFC3
:103D0A00FB120F3BEF04C2E0FCF582120F07ECB284
:103D1A00E7FC120BDCE58203FAED33EC336007149F
:083D2A0013FCED92E7FDEA2213
:104ABF00ECC0E0F8EDC0E0F9EEC0E0FAEFC0E0FBCB
:104ACF00120CCDEC6480FC7B007A007980783F1269
:104ADF000BDC1244D2D0E0FBD0E0FAD0E0F9D0E00A
:104AEF00F8C0E0120DD6123EB4D0E030E70B78409C
:0A4AFF0079497A0F7BD9120BDC22F3
:104BCD00ECC0E0F8EDC0E0F9EEC0E0FAEFC0E0FBBC
:104BDD00120CCDEC6480FC7B007A007980783F125A
:104BED000BDC1244D2D0E0CFFBD0E0CEFAD0E0CD3A
:0B4BFD00F9D0E0CCF8120DD6023EB457
:100F7200E9D2E7C933E833F892D5EDD2E7CD33ECC5
:070F820033FC5002B2D5223E
:100F8900EC30E7100FBF000C0EBE00080DBD0004C9
:100F99000BEB6014A2D5EB13FCED92E7FD2274FF75
:100FA900FCFDFEFF22E480F8A2D574FF13FC7D80CE
:030FB900E480EFE2
:100FBC00C0E0EFFBEEFAEDF9ECF8120CCDD0E0F559
:100FCC00F0EFFBEEFAEDF9ECF812137CA3A3A3A35C
:100FDC00E8C0E0E9C0E0EAC0E0EBC0E0C0F0120C11
:100FEC00CD121398A3A3A3A3120BDCD0F0D0E0FB7B
:0D0FFC00D0E0FAD0E0F9D0E0F8D5F0D42232
:1044CE00020FA722EDA2E7D2E7F9EC3340F260F338
:1044DE00B4FF08ED547F70E8020FB1F82481C2E0FA
:1044EE00C0E0F40428FAC313FCED92E7FD900497A4
:1044FE001213C8EEA2E7E9BA7F02C3133400940088
:10450E00FA75F091A4E5F013F494FE8AF0A433E565
:10451E00F033248CD313FDE492E7FE7F007C3F75CD
:10452E008302ECC0E0F8EDC0E0F9EEC0E0FAEFC0B7
:10453E00E0FB8583F090049712137085F083120DC3
:10454E00D6D0E0FBD0E0FAD0E0F9D0E0F8120BDCE8
:10455E00ED6480FD30E7011CD583C7ED33CC33F815
:0C456E00D0E0A2E71328C313CC13FD22F9
:103E9400BE1249253E4CCCCDBEAAAAAB3F80000041
:103EA4003E7ADBB03EED63383F24BC7D3F490FDBF7
:103EB400ED33ECC2E7CC339205B4FF13ED547F60CD
:103EC40003020FA77FDB7E0F7DC97C3F023FA9C29F
:103ED40006C3947F401E7007EDD2E794904015EF1F
:103EE400FBEEFAEDF9ECF87F007E007D807C3F125A
:103EF4000DD6D206ED33EC33248430E705E4C0E07C
:103F0400806B04FAEDD2E754F0C333DAFD5407347E
:103F1400002323C0E0CCC0E0F8EDC0E0F9EEC0E03F
:103F2400FAEFC0E0FBE4120F07EC24FEFC90049FC0
:103F34001213C8120CCD7B007A007980783F120BE3
:103F4400DC90049FE0B2E7CCF0A3E0CDF0A3E0CE98
:103F5400F0A3E0CFF0D0E0FBD0E0FAD0E0F9D0E07D
:103F6400F8120BDC90049F12138C120DD690049F50
:103F74001213C8903E947403120FBC90049F121342
:103F84008C120CCDD0E0600F24A0F582E4343EF511
:103F940083121398120BDC30060B7BDB7A0F79C982
:103FA40078BF120BDCED33EC336006ECA20592E72C
:023FB400FC22ED
:1047600002000EE493A3F8E493A34003F68001F261
:1047700008DFF48029E493A3F85407240CC8C3335A
:10478000C4540F4420C8834004F456800146F6DF29
:10479000E4800B0102040810204080902C9CE47EF1
:1047A000019360BCA3FF543F30E509541FFEE4931E
:1047B000A360010ECF54C025E060A840B8E493A3E5
:1047C000FAE493A3F8E493A3C8C582C8CAC583CA10
:1047D000F0A3C8C582C8CAC583CADFE9DEE780BEC8
:01309B000034
:10100900E709F608DFFA8046E709F208DFFA803EC9
:1010190088828C83E709F0A3DFFA8032E309F608B6
:10102900DFFA8078E309F208DFFA807088828C831E
:10103900E309F0A3DFFA806489828A83E0A3F608D2
:10104900DFFA805889828A83E0A3F208DFFA804CAC
:1010590080D280FA80C680D4806980F28033801083
:1010690080A680EA809A80A880DA80E280CA8033EC
:1010790089828A83ECFAE493A3C8C582C8CCC58364
:10108900CCF0A3C8C582C8CCC583CCDFE9DEE78034
:101099000D89828A83E493A3F608DFF9ECFAA9F0B3
:1010A900EDFB2289828A83ECFAE0A3C8C582C8CC09
:1010B900C583CCF0A3C8C582C8CCC583CCDFEADE22
:1010C900E880DB89828A83E493A3F208DFF980CC84
:1010D90088F0EF60010E4E60C388F0ED2402B4047D
:1010E9000050B9F582EB2402B4040050AF23234524
:0610F900822390105973E0
:1010FF00BB010689828A83E0225002E722BBFE02EF
:09110F00E32289828A83E4932221
:10111800BB010CE58229F582E5833AF583E022508C
:1011280006E92582F8E622BBFE06E92582F8E222D6
:0D113800E58229F582E5833AF583E49322F0
:10114500BB010689828A83F0225002F722BBFE0189
:02115500F32283
:10115700EF8DF0A4A8F0CF8CF0A428CE8DF0A42EAC
:02116700FE2266
:10116900BC000BBE0029EF8DF084FFADF022E4CC6A
:10117900F875F008EF2FFFEE33FEEC33FCEE9DEC33
:10118900984005FCEE9DFE0FD5F0E9E4CEFD22ED79
:10119900F8F5F0EE8420D21CFEADF075F008EF2FC3
:1011A900FFED33FD4007985006D5F0F222C398FDB4
:0511B9000FD5F0EA2251
:1011BE00C2D5EC30E709B2D5E4C39DFDE49CFCEE4C
:1011CE0030E715B2D5E4C39FFFE49EFE121169C34A
:1011DE00E49DFDE49CFC800312116930D507C3E445
:0611EE009FFFE49EFE22BB
:1011F400A3F8E0C5F025F0F0E582158270021583AE
:06120400E0C838F0E8220A
:10120A00BB0110E58229F582E5833AF583E0F5F022
:10121A00A3E0225009E92582F886F008E622BBFEFF
:10122A000AE92582F8E2F5F008E222E5832AF58345
:08123A00E993F5F0A3E993220A
:10124200BB010A89828A83F0E5F0A3F0225006F7F7
:0F12520009A7F01922BBFE06F3E5F009F31922F4
:10126100E88FF0A4CC8BF0A42CFCE98EF0A42CFC2C
:101271008AF0EDA42CFCEA8EF0A4CDA8F08BF0A4AA
:101281002DCC3825F0FDE98FF0A42CCD35F0FCEB09
:101291008EF0A4FEA9F0EB8FF0A4CFC5F02ECD39CE
:0F12A100FEE43CFCEAA42DCE35F0FDE43CFC223B
:104B0900C2D5E830E70FB2D5E4C39BFBE49AFAE4D7
:104B190099F9E498F8EC30E717B2D5124B3F121423
:104B29007DE4C39BFBE49AFAE499F9E498F88003DD
:104B390012147D30D50DE4C39FFFE49EFEE49DFD74
:044B4900E49CFC22CA
:0E12B000C3E49FFFE49EFEE49DFDE49CFC224F
:1012BE00EB9FF5F0EA9E42F0E99D42F0E89C45F086
:0112CE0022FD
:1012CF00E8600FEFC333FFEE33FEED33FDEC33FC7D
:0312DF00D8F12221
:1012E200BB010789828A830213705005E9F802154F
:1012F2000FBBFE05E9F802151B89828A8302137C63
:10130200BB010DE58229F582E5833AF5830213706C
:101312005007E92582F802150FBBFE07E92582F87E
:1013220002151BE58229F582E5833AF58302137CD7
:10133200BB010789828A830213C85005E9F80215A6
:0A13420041BBFE05E9F802154D223B
:10134C00BB010DE58229F582E5833AF5830213C8CA
:10135C005007E92582F8021541BBFE07E92582F802
:04136C0002154D22F7
:0C137000E0FCA3E0FDA3E0FEA3E0FF22F0
:10137C00E493FC740193FD740293FE740393FF22B7
:0C138C00E0F8A3E0F9A3E0FAA3E0FB22E4
:10139800E493F8740193F9740293FA740393FB22AB
:1013A800BB010789828A8302138C5005E9F802156C
:1013B80027BBFE05E9F802153489828A830213984F
:0C13C800ECF0A3EDF0A3EEF0A3EFF02298
:1013D400A8828583F0D083D0821213EB1213EB1210
:1013E40013EB1213EBE473E493A3C583C5F0C58335
:1013F400C8C582C8F0A3C583C5F0C583C8C582C863
:0114040022C5
:10140500BB010789828A830213D45005E9F80215C6
:0A14150059BBFE05E9F8021572222A
:0C141F00A42582F582E5F03583F58322D8
:1041C8009005E6EBF0A3EAF0A3E9F09005E6E0FB42
:1041D800A3E0FAA3E0F91210FFFF124EB6500C90BC
:1041E80005E7E475F00112142B80E0D2099005E68A
:1041F800E0FBA3E0FAA3E0F91210FFFF642B6004D0
:10420800EFB42D1D9005E6E0FBA3E475F001121153
:10421800F4A9F0FA1210FF642D6003D38001C39251
:1042280009E49005E9F0A3F09005E6E0FBA3E0FAC5
:10423800A3E0F91210FFFF124F1B50429005E6E071
:10424800FBA3E0FAA3E0F91210FFFF3395E0FEEFBD
:1042580024D0FBEE34FFFA9005E9E0FEA3E0FF7CF2
:10426800007D0A121157EF2BFFEE3A9005E9F0A3F3
:10427800EFF09005E7E475F00112142B80AA3009DD
:104288000A9005E9E0FEA3E0FF800F9005E9E0FE53
:0B429800A3E0FFC3E49FFFE49EFE22B2
:10142B00C5F0F8A3E028F0C5F0F8E582158270024C
:06143B001583E038F022E9
:1014410075F008758200EF2FFFEE33FECD33CDCC62
:1014510033CCC58233C5829BED9AEC99E5829840E5
:101461000CF582EE9BFEED9AFDEC99FC0FD5F0D6C2
:10147100E4CEFBE4CDFAE4CCF9A88222B800C1B9EC
:101481000059BA002DEC8BF084CFCECDFCE5F0CB2A
:10149100F97818EF2FFFEE33FEED33FDEC33FCEB63
:1014A10033FB10D703994004EB99FB0FD8E5E4F91E
:1014B100FA227818EF2FFFEE33FEED33FDEC33FC0B
:1014C100C933C910D7059BE99A4007EC9BFCE99AFF
:1014D100F90FD8E0E4C9FAE4CCFB2275F010EF2F44
:1014E100FFEE33FEED33FDCC33CCC833C810D70744
:1014F1009BEC9AE899400AED9BFDEC9AFCE899F87F
:0E1501000FD5F0DAE4CDFBE4CCFAE4C8F92211
:0C150F00E6FC08E6FD08E6FE08E6FF2208
:0C151B00E2FC08E2FD08E2FE08E2FF220C
:0D152700E6FB08E6F908E6FA08E6CBF82234
:0D153400E2FB08E2F908E2FA08E2CBF82237
:0C154100ECF608EDF608EEF608EFF622D6
:0C154D00ECF208EDF208EEF208EFF222DA
:10155900D083D082E493F608740193F60874029359
:09156900F608740393F674047390
:10157200D083D082E493F208740193F20874029348
:09158200F208740393F27404737F
:0F4F1B00EFC394304007EF943A50028001C32255
:104EB600EFC394094005EF940E4004EFB42003D3EA
:044EC6008001C32282
:00000001FF
