:102DB6004205C700004205CB000044053B68686D2C
:102DC6006D4405D60000000041053F1E4405CE00B7
:102DD6000000004205D400004105DE004405DA008B
:102DE60000000044056A000000004405C20000001F
:0D2DF600004204DF00004404E368686D6DD6
:03000B0002528A14
:10528A00C0E0C083C082758A88758C969005D5E087
:10529A0004F070069005D4E004F0D082D083D0E008
:0152AA0032D1
:03001B0002545D2F
:09545D00B295758B88758D9632AD
:0300030002464D65
:10464D00C0E0C0F0C083C082C0D075D000C000C033
:10465D0001C002C003C004C005C006C00720B20DD2
:10466D00758A88758C96D28CD2A9024727C28CACDC
:10467D008CE4120F6F9005DA1214349003C01214EB
:10468D0040410000007F007E007D007C40123F35E0
:10469D009005DAE0F8A3E0F9A3E0FAA3E0FB120D30
:1046AD0035C004C005C006C007AC8AE4120F6FD038
:1046BD0003D002D001D000120C447B007A88791609
:1046CD0078C7120C44E4FBFA79D87841120E3E906B
:1046DD0005DA1214349005DAE0F8A3E0F9A3E0FA54
:1046ED00A3E0FBC000C001C002C0039005D4E0FEF2
:1046FD00A3E0FF7C037DE81211D9AC06AD07E412EF
:10470D000F6AD003D002D001D000120C449005DA0C
:10471D001214349005D4E4F0A3F0D007D006D005E0
:10472D00D004D003D002D001D000D0D0D082D0831D
:05473D00D0F0D0E032D5
:10001E009003CA7401F0E4A3F0A3F0A3F0A3F0A33D
:10002E00F0A3F09003ECF0A3F09003F01214400054
:10003E000000009005F5E4F0A304F0E49005F1F063
:10004E00A3F09005EFF0A3F09005F7F0A3F0F5B153
:10005E0075B2FF75B04C124F5512000E12543D1270
:10006E00534112514112543012539E438E80758A61
:10007E0088758C96E4F589758B88758D96D28ED29F
:10008E00ABD2AF7F01FE1253897F68124DA57F68F8
:10009E00124DA57F6D124DA57F6D124DA57F2312BA
:1000AE004DA5E49003EEF0A3F09003EEE0FAA3E08A
:1000BE00FBD39414EA648094805074EBAE02780201
:1000CE00C333CE33CED8F924E7F58274043EF583DC
:1000DE0012144000000000AD03AC02EC120F6AE4F3
:1000EE00FBFAF97840120E3EE4FBFA79E078401202
:1000FE000C44C004C005C006C0079003EEE0FEA38A
:10010E00E07802C333CE33CED8F9246EF58274056F
:10011E003EF583D007D006D005D0041214349003D8
:10012E00EFE004F070839003EEE004F00200B712EB
:10013E0031C47F081250867F061250867F50124DB2
:10014E00A57F53124DA57F3A124DA59005D6E0FC22
:10015E00A3E0FDA3E0FEA3E0FF12409B7F6D124DD6
:10016E00A57F6D124DA57F027E001253899005CAA0
:10017E00E0FF1253097F3A124DA59005CDE0FF1214
:10018E0053097F3A124DA59005DFE0547FFF1253BD
:10019E00097F3B124DA59005C6E0FF12530990054D
:1001AE00C9E0FF1253097F3B124DA59005F3E07095
:1001BE0002A3E060047F41800C9005F3E07002A37F
:1001CE00E070057F4D124DA59005F1E07002A3E0A1
:1001DE0060649005F3E07002A3E0705A9005F5E0BC
:1001EE00FEA3E0FFEE4F24FF92027F1C7E00125012
:1001FE00C69005F5E07004A3E064019005D6701575
:10020E00E0FCA3E0FDA3E0FEA3E0FF7BCD7ACC797A
:10021E00CC783E8013E0FCA3E0FDA3E0FEA3E0FF5C
:10022E007BCD7ACC79CC78BE120C449005D61214C4
:10023E0034E49003CAF09005EFE07002A3E0606A28
:10024E009005F3E07002A3E070609005F5E0FEA368
:10025E00E0FFEE4F24FF92027F1C7E001250C690EC
:10026E0005F5E07004A3E064019005D67015E0FC7E
:10027E00A3E0FDA3E0FEA3E0FF7BCD7ACC79CC78A2
:10028E003E8013E0FCA3E0FDA3E0FEA3E0FF7BCDE8
:10029E007ACC79CC78BE120C449005D6121434E484
:1002AE009003CAF09005EFF0A3F030A3439003CA79
:1002BE00E0703DFFFEFDFC9005D6E0F8A3E0F9A34B
:1002CE00E0FAA3E0FB120EDB600250249005D6127A
:1002DE001440000000009003CA7401F0E49005F190
:1002EE00F0A3F09005EFF0A3F09005F5F0A304F065
:1002FE001254499003F77401F0A37405F0A374C966
:10030E00F0A37401F0A37405F0A374CAF0A37401F2
:10031E00F0A37405F0A374CDF0A37401F0A37405DB
:10032E00F0A374DFF07B017A0579C6124E8C90052E
:10033E00F3E07002A3E07003020BC59005CDE0FF61
:10034E0012533090053FE0FEEF8EF084E5F060032F
:10035E000208549005DFE0547FFF125330EF600324
:10036E000208549005CAE0FF125330EFD3941040A8
:10037E000302083E9005CAE0FF125330EFC3940704
:10038E00500302083E9005C6E0FF9005C9E0FDA3AC
:10039E00E0FB9005CDE09003F7F09005DFE09003D1
:1003AE00F8F0123550123DF57B3D7AFA790C78440F
:1003BE00120D357BC37AF579077842120C449005FD
:1003CE00DAE0F8A3E0F9A3E0FAA3E0FB120EDB50AB
:1003DE000302056D9005CDE0FF125330AC07E41219
:1003EE000F6FE4FBFA79707842120E3EC004C0051E
:1003FE00C006C0079005CAE0FF125330AC07E412E6
:10040E000F6FD003D002D001D000120C44E4FBFADF
:10041E0079E078C0120C44E4FBFA79707842120D40
:10042E0035C004C005C006C00790053FE0FCE412CD
:10043E000F6FA804A905AA06AB07D007D006D005F2
:10044E00D004120E3E120FA39005C7EEF0A3EFF0EC
:10045E00E025E0FF9005C7E033FE74402FF582746F
:10046E00053EF583E4F0A304F09005C6E0FF900589
:10047E00C9E0FD9005CDE09003F7F09005DFE09028
:10048E0003F8F0A37401F0A37405F0A374D6F0A3DF
:10049E007401F0A37403F0A374CFF0A37401F0A35E
:1004AE007403F0A374F0F0A37401F0A37403F0A32B
:1004BE0074CDF0A37401F0A37405F0A374CEF09084
:1004CE0005CAE0FB1238D0C004C005C006C00790B4
:1004DE0005C7E0FEA3E07802C333CE33CED8F924AD
:1004EE00E7F58274043EF583D007D006D005D0041C
:1004FE001214347F9A7E997D997C3F90056AE0F8BC
:10050E00A3E0F9A3E0FAA3E0FB120D359005C2E0DB
:10051E00F8A3E0F9A3E0FAA3E0FB120EDB600250B1
:10052E000302071D9005C7E0FAA3E0FBAE027802B6
:10053E00C333CE33CED8F924E7F58274043EF58367
:10054E0012144000000000EB25E0FFEA33FE744079
:10055E002FF58274053EF583E4F0A3F002071DE447
:10056E009005C7F0A3F0124E3F9005CEE0FCA3E03D
:10057E00FDA3E0FEA3E0FF9004D4121434E4900433
:10058E00D8F07F021245527F327E001251AA90059A
:10059E00CEE0FCA3E0FDA3E0FEA3E02401FFE43ED9
:1005AE00FEE43DFDE43CFC9005CE1214349005C8EB
:1005BE00E004F070069005C7E004F0D39005C8E0A3
:1005CE0094439005C7E064809481409A9005CDE0F5
:1005DE00FF125330AC07E4120F6FE4FBFA79707818
:1005EE0042120E3EC004C005C006C0079005CAE008
:1005FE00FF125330AC07E4120F6FD003D002D001BC
:10060E00D000120C44E4FBFA79E078C0120C44E4FA
:10061E00FBFA79707842120D35C004C005C006C0D1
:10062E000790053FE0FCE4120F6FA804A905AA0687
:10063E00AB07D007D006D005D004120E3E120FA382
:10064E009005C7EEF0A3EFF0E025E0FF9005C7E0C0
:10065E0033FE74402FF58274053EF583E4F0A3F06B
:10066E009005CDE090041BF09005DFE090041CF0A7
:10067E00A37401F0A37405F0A374D6F09005C7E03F
:10068E00FEA3E07802C333CE33CED8F924E7F58249
:10069E0074043EF583E0FCA3E0FDA3E0FEA3E0FFBF
:1006AE009004201214349005CAE0FB9005C9E0FDB9
:1006BE009005C6E0FF121D839005C7E0FEA3E0780B
:1006CE0002C333CE33CED8F924E7F58274043EF557
:1006DE0083E0F8A3E0F9A3E0FAA3E0FB9005D6E0EF
:1006EE00FCA3E0FDA3E0FEA3E0FF120C409003F09C
:1006FE00121434E4FF1251C89003CFEEF0A3EFF0C2
:10070E009003CFE0FFA3E09003CDCFF0A3EFF090E6
:10071E0005C6E09003E1F09005C9E09003E2F09089
:10072E0005CAE09003E3F09005CDE09003E4F0906D
:10073E0003CFE0FEA3E07802CEC313CE13D8F99018
:10074E0003E5F09005D6E0FCA3E0FDA3E0FEA3E0F8
:10075E00FF120FA39003E6EFF0FCE4120F6FA80454
:10076E00A905AA06AB079005D6E0FCA3E0FDA3E021
:10077E00FEA3E0FF120C40E4FBFA79C87842120D9A
:10078E0035120FA39003E7EFF0E4FBFA798078407F
:10079E009005DAE0FCA3E0FDA3E0FEA3E0FF120E5D
:1007AE003E120FA39003E8EFF09003CDE0FEA3E01E
:1007BE007802CEC313CE13D8F99003E9F09003F06C
:1007CE00E0FCA3E0FDA3E0FEA3E0FF120FA3900365
:1007DE00EAEFF0FCE4120F6FA804A905AA06AB0716
:1007EE009003F0E0FCA3E0FDA3E0FEA3E0FF120CFB
:1007FE0040E4FBFA79C87842120D35120FA390032C
:10080E00EBEFF07F327E001251AA78F47C037D016B
:10081E007B017A0379E17E007F0B12115B9003FF5F
:10082E007401F0A37405F0A374CEF0123C2480166C
:10083E009005CAE0FF125330EFC3941140089003A5
:10084E00CBE4F0A304F09003CBE07002A3E06003CE
:10085E000209579005CAE0FF125330EFD3941040AF
:10086E0003020BC59005CAE0FF125330EFC3940785
:10087E005003020BC59005CDE0FF125330AC07E4D8
:10088E00120F6FE4FBFA79707842120E3EC004C06C
:10089E0005C006C0079005CAE0FF125330AC07E44E
:1008AE00120F6FD003D002D001D000120C44E4FB23
:1008BE00FA79E078C0120C44E4FBFA7970784212AF
:1008CE000D35C004C005C006C00790053FE0FCE42E
:1008DE00120F6FA804A905AA06AB07D007D006D041
:1008EE0005D004120E3E120FA39005C7EEF0A3EF33
:1008FE00F09005CDE090041BF09005DFE090041C15
:10090E00F0A37401F0A37405F0A374D6F09005C79C
:10091E00E0FEA3E07802C333CE33CED8F924E7F558
:10092E008274043EF583E0FCA3E0FDA3E0FEA3E0A9
:10093E00FF9004201214349005CAE0FB9005C9E024
:10094E00FD9005C6E0FF020BC29005CAE0FF1253F0
:10095E0030EFD394104003020BC59005CAE0FF128E
:10096E005330EFC394075003020BC59005CDE0FF43
:10097E00125330AC07E4120F6FE4FBFA7970784231
:10098E00120E3EC004C005C006C0079005CAE0FFA7
:10099E00125330AC07E4120F6FD003D002D001D047
:1009AE0000120C44E4FBFA79E078C0120C44E4FB2C
:1009BE00FA79707842120D35C004C005C006C00722
:1009CE0090053FE0FCE4120F6FA804A905AA06AB40
:1009DE0007D007D006D005D004120E3E120FA390FA
:1009EE0005C7EEF0A3EFF09005C7E0FEA3E0780296
:1009FE00C333CE33CED8F9FBAA06246EF582740526
:100A0E003AF583E0FCA3E0FDA3E0FEA3E0FF900334
:100A1E00D112143474E72BF58274043AF583E0FC9A
:100A2E00A3E0FDA3E0FEA3E0FF9003D512143490E3
:100A3E0005C7E0FAA3E0FBAE027802C333CE33CE95
:100A4E00D8F92472F58274053EF583E0FCA3E0FD2F
:100A5E00A3E0FEA3E0FF9003D9121434EB25E0FFD0
:100A6E00EA33FE74402FF58274053EF583E0FCA355
:100A7E00E064014C6003020B6274422FF582740530
:100A8E003EF583E0FEA3E064014E6003020B62902C
:100A9E0005C7E0FEA3E07802C333CE33CED8F924E7
:100AAE00EBF58274043EF583E0FCA3E0FDA3E0FECB
:100ABE00A3E0FF9003DD1214349005CDE0FF125336
:100ACE0030AC07E4120F6FE4FBFA79707842120E25
:100ADE003EC004C005C006C0079005CAE0FF125311
:100AEE0030AC07E4120F6FD003D002D001D0001249
:100AFE000C449004AA121434789A7C047D017B0174
:100B0E007A0379D17E007F0812115B78A27C047D76
:100B1E00017B017A0379D97E007F0812115B12479F
:100B2E00659004201214349005C6E0FF9005C9E0CC
:100B3E00FD9005CDE090041BF09005DFE090041CC5
:100B4E00F0A37401F0A37405F0A374D6F09005CA57
:100B5E00E0FB80607B017A0579409005C7E0FCA33D
:100B6E00E0FD125241EF7802C333CE33CED8F924D2
:100B7E00E7F58274043EF583E0FCA3E0FDA3E0FEFE
:100B8E00A3E0FF9004201214349005C6E0FF9005F8
:100B9E00C9E0FD9005CDE090041BF09005DFE090DC
:100BAE00041CF0A37401F0A37405F0A374D6F090A6
:100BBE0005CAE0FB121D839005CAE0FF125330EF09
:100BCE00D3941050129005CAE0FF125330EFC39425
:100BDE00074004D2CD8002C2CD9005F7E07004A389
:100BEE00E06401600302013D1254537F017E001246
:100BFE0053897F43124DA57F4C124DA57F45124D53
:100C0E00A57F41124DA57F52124DA5124E3F124E99
:100C1E00FB7F057E001251AA9005CE1214400000F3
:0F0C2E000000E49005F7F0A3F012545302013DCB
:0653C800D2A27F017E006D
:0E53CE00EF1FAC0670011E4C60030080F3223E
:0252AB00AD074D
:1052AD00E4FBC2A2ED30E704D2A18002C2A11253E9
:0D52BD00CA1253C8ED25E0FD0BEBB408E567
:0152CA0022C1
:1052CB00E4FDD2A1FBED25E0FDC2A21253CA30A131
:0F52DB0004ED4401FD1253C80BEBB408E8AF0516
:0152EA0022A1
:1053F000E4FED2A0EF44A0FF1252AB1252CBC2A0E7
:015400002289
:10535B00AA07D2A0ED4420FF1252ABAF021252AB00
:08536B00AF021252ABC2A022F6
:0D000E005395F85396F8D2A0C2A0C2A222CA
:104E8C009003F4EBF0A3EAF0A3E9F07F091253F0DE
:104E9C009003F4E0FBA3E0FAA3E0F9EF1211C77F53
:104EAC00071253F09003F7E0FBA3E0FAA3E0F9EF4D
:104EBC001211C77F061253F09003FAE0FBA3E0FA3D
:104ECC00A3E0F9EF1211C77F051253F09003FDE038
:104EDC00FBA3E0FAA3E0F9EF1211C77F041253F021
:0F4EEC00900400E0FBA3E0FAA3E0F9EF0211C786
:10540100EFC4540FFEEF540FFFEE75F00AA42FFF07
:015411002278
:104D1900125401AC07AF05125401EC14B40C005045
:104D290073904D3875F003A4C58325F0C5837302CC
:104D39004D5C024D5F024D64024D69024D6E024D9C
:104D490073024D78024D7D024D82024D8A024D8FCC
:104D5900024D947E0022EF241F8021EF243B801C0A
:104D6900EF245A8017EF24788012EF2497800DEFF3
:104D790024B58008EF24D48003EF24F3FFE433FE45
:104D890022EF24118008EF24308003EF244EFFE442
:074D99003401FE22E4FEFFDD
:014DA00022F0
:104F5500E4F5917592FF7F96FE12526C7F03125015
:104F6500867F1E7E0012526C7F0312508612526895
:104F75007F031250861252687F021250867F017E8F
:104F85000012526C7F021250867F08125086E4FF91
:104F95001250867F0E125086E4FF1250867F06124D
:094FA50050867F147E0002526C5C
:044DA100E04430FFBB
:104DA5009004DEEFF0D2C0C293E0FF5480C4131329
:104DB50013540124FF92B7EF5440C4131354032432
:104DC500FF92B6E0FF5420C413540724FF92B5EFB9
:104DD5005410C4540F24FF92B4D2B37F017E001245
:104DE500526CC2B39004DEE0FF5408131313541F32
:104DF50024FF92B7EF54041313543F24FF92B6E0F7
:104E0500FF5402C31324FF92B5EF1392B4125266F6
:054E1500C2B3C2C0227F
:10508600C2C0C293EF5408131313541F6004D2B75F
:105096008002C2B7EF54041313543F6004D2B680A3
:1050A60002C2B6EF5402C3136004D2B58002C2B581
:1050B600EF30E004D2B48002C2B4125266C2B32208
:06526600D2B37F0A7E00B6
:10526C00EF1FAA0670011E4A6013E4FCFDC3ED9407
:0D527C0058EC940250EA0DBD00010C80F0CA
:015289002202
:10530900EFC4540F4430FEEF540F44309003F4F0CF
:0D531900AF06124DA59003F4E0FF024DA574
:0A544900E4FF1250867F0202508635
:0A545300E4FF1250867F010250862C
:10538900EF64014E70047F0880027F0C125086E49E
:05539900FF1250862206
:06409B009004D31214345E
:1040A1009004D3E0FCA3E0FDA3E0FEA3E0FF120F28
:1040B100A31253DC9004DCEEF0A3EFF0E4FFFEFD6D
:1040C100FC9004D3E0F8A3E0F9A3E0FAA3E0FB122B
:1040D1000EDB602640249004DCE0FCA3E0FDEC1242
:1040E1000F6AA804A905AA06AB079004D3E0FCA3B4
:1040F100E0FDA3E0FEA3E0FF80359004D3E0FCA344
:10410100E0FDA3E0FEA3E0FF120F54C004C005C010
:1041110006C0079004DCE0FCA3E0FDEC120F6AA8E6
:1041210004A905AA06AB07D007D006D005D0041212
:104131000C40E4FBFA79207841120D35120FA3905F
:1041410004DBEFF09004DCE0FAA3E0FB7C007D0AE5
:10415100FFAE021212409004D7EDF07C037DE8AF70
:1041610003AE02121240A9079004DAE9F07E007C46
:10417100037DE81211D9C39004DDE09FFB9004DCBC
:10418100E09EFA7C007D64AF03FE1211EB9004D92E
:10419100EFF0E075F064A4FFC3EB9FFFEA95F0FE3A
:1041A1007C007D0A1211EB9004D8EFF0E4FFFEFDD4
:1041B100FC9004D3E0F8A3E0F9A3E0FAA3E0FB123A
:1041C1000EDB400280057F2D124DA59004DA124DC1
:1041D100A19004D9124DA19004D8124DA19004D7F9
:0E41E100124DA17F2E124DA59004DB124DA1B0
:0141EF0022AD
:1053DC00D3EF9400EE64809480400122C3E49FFFDD
:0453EC00E49EFE221B
:102E03004205F100004205EF00004205F5000042D3
:0D2E130005F300004205F700004105E00056
:1052EB00EF1FAA0670011E4A6013E4FCFDC3ED9488
:0D52FB0058EC940250EA0DBD00010C80F04B
:015308002282
:103A970053801E43801EE58044E19003FAF0E0F472
:103AA7007003023C21E58044E1F0E0F47003023C3E
:103AB7001E5380DF4380C1E58044E1F0E0F46047B6
:103AC7009003FAE0FFF4600DA3EFF0E58044E19086
:103AD70003FAF080EB9003FBE02411602424F860E4
:103AE7001824FC600C24FE701E9003FC7401F08007
:103AF700169003FC7404F0800E9003FC7407F080AA
:103B0700069003FC740CF05380BF4380A1E580440A
:103B1700E19003FAF0E0F460469003FAE0FFF46006
:103B27000DA3EFF0E58044E19003FAF080EB9003FA
:103B3700FBE02411602424F8601824FC600C24FEA8
:103B4700701D9003FC7402F080159003FC7405F05F
:103B5700800D9003FC7408F08005E49003FCF0539B
:103B6700807F438061E58044E19003FAF0E0F460F0
:103B7700479003FAE0FFF4600DA3EFF0E58044E11E
:103B87009003FAF080EB9003FBE02411602424F803
:103B9700601824FC600C24FE701E9003FC7403F074
:103BA70080169003FC7406F0800E9003FC7409F0F5
:103BB70080069003FC740BF05380FE4380E0E580A1
:103BC70044E19003FAF0E0F460479003FAE0FFF471
:103BD700600DA3EFF0E58044E19003FAF080EB90ED
:103BE70003FBE02411602424F8601824FC600C24F3
:103BF700FE701E9003FC740DF080169003FC740E8B
:103C0700F0800E9003FC740FF080069003FC741094
:0C3C1700F09003FCE0FF227F64227F6439
:013C2300227E
:1031C4009005E3E0FFA3E09005E1CFF0A3EFF01258
:1031D4003A977E009005E3EEF0A3EFF0640E7006DC
:1031E4009005EF0232719005E1E0FEA3E0FF646414
:1031F4004E7020A3E07004A3E0640F70169005F5F0
:10320400E07002A3E06006E49005F580589005F5AF
:10321400E4805A9005E3E0FCA3E0FD64104C700FD9
:103224009005F1E07002A3E070059005F1803EED99
:1032340064104C70109005F1E07002A3E06006E4A5
:103244009005F18020EF64644E70279005E3E070F0
:1032540004A3E0640D701B9005F3E07002A3E0602A
:1032640008E49005F3F0A3F0229005F3E4F0A3043E
:10327400F0229005E1E07004A3E064646003023589
:103284004F9005E3E0FCA3E0FD64644C7003023559
:103294004F9005E0E0FF3395E0FEEF25E0FFEE33CD
:1032A400FE74E52FF58274053EF583ECF0A3EDF092
:1032B4009005E0E004F0E0640560030234EDF09072
:1032C40005EDE07004A3E0640B70749005E5E0FE86
:1032D400A3E0FF7C007D0A1211D99005E8E02FFFDE
:1032E4009005E7E03EAB07FA9005E9E0FEA3E0FFB6
:1032F4001211D99005ECE02FFF9005EBE03EFED3D0
:10330400EB9418EA9400400302347CEF943CEE946E
:1033140000400302347C9005E5A3E0C454F0FFA30D
:10332400A3E04FFF7D0612535B9005E9A3E0C4546C
:10333400F0FFA3A3E04FFF7D0512535B02347390AB
:1033440005EDE07004A3E0640C600302347C900596
:10335400E5E0FEA3E0FF7C007D0A1211D99005E8A8
:10336400E02FFF9005E7E03E9003F6F0FAA3EFF0BC
:10337400FB9005E9E0FEA3E0FF1211D99005ECE013
:103384002FFF9005EBE03E9003F8F0A3EFF0D3EBB2
:103394009407EA9400507B9003F7E030E023900315
:1033A400F9E0941F9003F8E0940040030234739012
:1033B40005E5A3E0C454F0FFA3A3E04FFF1D0234CE
:1033C4005D9003F6E07004A3E064027024D39003DC
:1033D400F9E0941C9003F8E09400400302347390E5
:1033E40005E5A3E0C454F0FFA3A3E04FFF7D0980EB
:1033F40068D39003F9E0941E9003F8E09400506FB2
:103404009005E5A3E0C454F0FFA3A3E04FFF7D09BA
:1034140080479003F7E020E021D39003F9E0941F64
:103424009003F8E0940050479005E5A3E0C454F0FD
:10343400FFA3A3E04FFF7D09801FD39003F9E0941D
:103444001E9003F8E0940050269005E5A3E0C454D0
:10345400F0FFA3A3E04FFF7D0912535B9005E9A39E
:10346400E0C454F0FFA3A3E04FFF7D0712535B9029
:1034740005EDE4F0A37464F09005E5E07004A3E0C6
:10348400640970359005E7E07004A3E064097029CD
:103494009005E9E07004A3E06409701D9005EBE079
:1034A4007004A3E0640970119005EDE07002A3E0DC
:1034B40070079005F7F0A304F09005F7E07002A3FD
:1034C400E070261254537F08125086E4FF1250868F
:1034D4007F68124DA57F68124DA57F6D124DA57FA3
:1034E4006D124DA57F23124DA5E49003F4F0A3F0D3
:1034F4009005E0E0FFFD3395E0FCC39003F5E09D0B
:103504009003F4E09C5044EF64809484502D7F0831
:103514001250869003F4A3E0FF1250869003F5E066
:1035240025E0FF9003F4E033FE74E52FF582740583
:103534003EF583A3E04430FF124DA59003F5E0046B
:0B354400F070AD9003F4E004F080A5EF
:01354F002259
:0C543D00759300759400E4F594F593223B
:102E20006028013043340000433E00004348000066
:102E300043520000435C0000436600004370000002
:102E4000437A00004382000043870000602800A40A
:102E500043340000432A00004320000043160000D2
:102E6000430C00004302000042F0000042DC00007E
:102E700042C8000042B400006258016042EFA3D78C
:102E800042EF385242EDB33342ECC28F42EAE1489E
:102E900042E8385242E03D7142D170A4429B75C372
:102EA00042BEA8F642D5F0A442D5C7AE42D43333D1
:102EB00042D08F5C42CAD70A42C1F5C342B2947B6A
:102EC0004290051F41F428F6C2AC4CCD42BD051F0F
:102ED00042BC2E1442B9385242B3947B42AB947B2D
:102EE000429C4CCD428338524221F5C3C17051EC13
:102EF000C2DB385242A3E66642A2BD71429E3D71DA
:102F0000429675C3428ADC29426BD70A422B33337F
:102F10004143851FC22FAE14C2EEF5C3428A6B85B2
:102F20004288A8F642834CCD42728F5C4252CCCD8F
:102F30004221E14841AA51ECC130F5C3C27B28F6D9
:102F4000C2F9947B425D47AE425A1EB8424E3D7173
:102F50004237D70A4214666641B95C293FF851EC02
:102F6000C1F228F6C2959EB8C2FC28F64227EB852E
:102F70004223B8524216333341FBD70A41A628F602
:102F800040CE6666C1770A3DC235147BC2A7333393
:102F9000C2FECCCD41E28F5C41D7EB8541B9851FA4
:102FA00041830A3D40C1999AC112E148C1F370A41E
:102FB000C265D70AC2B6199AC2FFA8F64161999AAA
:102FC000414E147B410CCCCD00000000C107AE1473
:102FD000C1BC28F6C22C147BC2884CCDC2C1CCCD5A
:102FE000C2FEAE140000000000000000C0B80000E7
:102FF000C142E148C1B55C29C212851FC25AE148ED
:10300000C299C28FC2CA9EB8C2FF75C3C162B8520C
:10301000C170CCCDC1991EB8C1D2F5C3C210E14870
:10302000C242E148C282F0A4C2A7C7AEC2D22E14E7
:10303000C2FEFAE1C1E1D70AC1EC51ECC204EB8552
:10304000C21E70A4C240EB85C2705C29C295428F3B
:10305000C2B5C28FC2D9428FC2FF147BC228851F5E
:10306000C22C5C29C2397AE1C250A3D7C27166660C
:10307000C28D0A3DC2A56148C2C18F5CC2DF947B8C
:10308000C2FF851FC25E147BC261999AC26F28F687
:10309000C282051FC28F2E14C2A05C29C2B4C7AE63
:1030A000C2CBD1ECC2E551ECC2FFE666C28A199AE6
:1030B000C28C47AEC290D1ECC2990F5CC2A46148E9
:1030C000C2B2947BC2C36148C2D5A3D7C2EA0F5C27
:1030D000C3000F5C603C00F4400CCCCD40DCCCCD98
:1030E0004139999A4182666641A8000041CD999A7A
:1030F00041F33333420C6666421F333342320000E1
:103100004244CCCD4257999A426A6666427D333337
:103110004288000060A00004C1E1D70AC1EC51EC74
:10312000C204EB85C21E70A4C240EB85C2705C294C
:10313000C295428FC2B5C28FC2D9428FC2FF147BE3
:10314000C228851FC22C5C29C2397AE1C250A3D79C
:10315000C2716666C28D0A3DC2A56148C2C18F5C5C
:10316000C2DF947BC2FF851FC25E147BC261999A45
:10317000C26F28F6C282051FC28F2E14C2A05C291E
:10318000C2B4C7AEC2CBD1ECC2E551ECC2FFE66619
:10319000C28A199AC28C47AEC290D1ECC2990F5C18
:1031A000C2A46148C2B2947BC2C36148C2D5A3D74E
:1031B000C2EA0F5CC3000F5C440000C0A0000041E5
:0331C00000D40038
:10539E00900158121440C2932E1490015C121440C6
:0553AE0042360A3D2219
:0A53260012143490041CE0547FFFC1
:10533000EFC4540FFEEF540FFFEE75F00AA42FFFD9
:01534000224A
:104FAE009000EC30031A7404F07B017A0079E7125A
:104FBE0048C07F027E001252EB9000EC74068018FF
:104FCE007405F07B017A0079E71248C07F027E00FB
:104FDE001252EB9000EC7407F07B017A0079E71225
:0A4FEE0048C07F027E001252EB2241
:0850C6009004D7EEF0A3EFF017
:1050CE00E4A3F0A3F09004D9F0A3F09004D7E0FE8F
:1050DE00A3E0FFC39004DAE09F9004D9E09E50173E
:1050EE00A2029203124FAE9004DAE004F070DC904C
:0750FE0004D9E004F080D4A6
:015105002287
:0651F2009004D3121434F6
:1051F800E4FFFE7D8C7C429004D3E0F8A3E0F9A3A1
:10520800E0FAA3E0FB120D35120FA3A201920202ED
:0252180050C67E
:1047420078A27C047D017B017E007F0812115B90C0
:10475200043EE0FCA3E0FDA3E0FEA3E0FF9004AA78
:03476200121434FA
:104765009004AAE0F8A3E0F9A3E0FAA3E0FB900423
:104775009AE0FCA3E0FDA3E0FEA3E0FF120C4012CB
:104785000F54C004C005C006C0079004A2E0F8A3FA
:10479500E0F9A3E0FAA3E0FB90049AE0FCA3E0FDB6
:1047A500A3E0FEA3E0FF120C40A804A905AA06ABEE
:1047B50007D007D006D005D004120E3EC004C005B0
:1047C500C006C0079004A6E0F8A3E0F9A3E0FAA3A9
:1047D500E0FB90049EE0FCA3E0FDA3E0FEA3E0FF68
:1047E500120C40D003D002D001D000120D35900438
:0F47F5009EE0F8A3E0F9A3E0FAA3E0FB120C4466
:014804002291
:0628BB0090043E121434EB
:1028C10090048212144000000000E4900486F0A3FA
:1028D100F0900486E0FEA3E0FFC3940AEE648094C6
:1028E100804003022C48EF7802C333CE33CED8F9AF
:1028F1002434F58274013EF583E0FCA3E0FDA3E0FE
:10290100FEA3E0FF90043EE0F8A3E0F9A3E0FAA300
:10291100E0FB120EDB60054003022A8C900486E086
:10292100FEA3E07802C333CE33CED8F92430F5824A
:1029310074013EF583E0FCA3E0FDA3E0FEA3E0FF0C
:1029410090043EE0F8A3E0F9A3E0FAA3E0FB120E45
:10295100DB5003022A8CE4900488F0A3F0900486F3
:10296100E0FEA3E07802C333CE33CED8F9FBAA064A
:102971002430F58274013AF583E0FCA3E0FDA3E085
:10298100FEA3E0FF90048A12143474342BF5827490
:10299100013AF583E0FCA3E0FDA3E0FEA3E0FF9094
:1029A1000492121434900486E0FEA3E07802C3334B
:1029B100CE33CED8F9FBAA06900488E0FEA3E090BE
:1029C100016075F02812148BEE75F028A42583F5AB
:1029D10083E5822BF582E5833AF583E0FCA3E0FDF4
:1029E100A3E0FEA3E0FF90048E121434900488E06B
:1029F100FEA3E090016475F02812148BEE75F028A7
:102A0100A42583F583E5822BF582E5833AF583E0FE
:102A1100FCA3E0FDA3E0FEA3E0FF900496121434B2
:102A2100789A7C047D017B017A04798A7E007F0893
:102A310012115B7A047992124742C004C005C006A4
:102A4100C007900488E0FEA3E07802C333CE33CE02
:102A5100D8F92446F58274043EF583D007D006D018
:102A610005D004121434900489E004F07006900437
:102A710088E004F0C3900489E0940F900488E06436
:102A8100809480500302295E022C34900486E0FE7B
:102A9100A3E07802C333CE33CED8F924A8F58274EB
:102AA100003EF583E0FCA3E0FDA3E0FEA3E0FF9080
:102AB100043EE0F8A3E0F9A3E0FAA3E0FB120EDB89
:102AC1005003022C34900486E0FEA3E07802C33365
:102AD100CE33CED8F924A4F58274003EF583E0FC10
:102AE100A3E0FDA3E0FEA3E0FF90043EE0F8A3E035
:102AF100F9A3E0FAA3E0FB120EDB60054003022C10
:102B010034E4900488F0A3F0900486E0FEA3E0781A
:102B110002C333CE33CED8F9FBAA0624A4F58274BE
:102B2100003AF583E0FCA3E0FDA3E0FEA3E0FF9003
:102B3100048A12143474A82BF58274003AF583E0E8
:102B4100FCA3E0FDA3E0FEA3E0FF90049212143485
:102B5100900486E0FEA3E07802C333CE33CED8F9E9
:102B6100FBAA06900488E0FEA3E090016075F028BE
:102B710012148BEE75F028A42583F583E5822BF5DD
:102B810082E5833AF583E0FCA3E0FDA3E0FEA3E048
:102B9100FF90048E121434900488E0FEA3E09001AB
:102BA1006475F02812148BEE75F028A42583F58343
:102BB100E5822BF582E5833AF583E0FCA3E0FDA3F2
:102BC100E0FEA3E0FF900496121434789A7C047D11
:102BD100017B017A0479927E007F0812115B7A04ED
:102BE100798A124742C004C005C006C00790048814
:102BF100E0FEA3E07802C333CE33CED8F92446F504
:102C01008274043EF583D007D006D005D004121497
:102C110034900489E004F07006900488E004F0C365
:102C2100900489E0940F900488E0648094805003BC
:102C3100022B09900487E004F060030228D290047B
:102C410086E004F00228D2E4900486F0A3F0900418
:102C510086E0FEA3E0FFC3940FEE648094804003FE
:102C6100022DA7EF7802C333CE33CED8F924F4F581
:102C71008274003EF583E0FCA3E0FDA3E0FEA3E047
:102C8100FF900442E0F8A3E0F9A3E0FAA3E0FB120D
:102C91000EDB5003022D96900486E0FEA3E078023D
:102CA100C333CE33CED8F924F8F58274003EF583D0
:102CB100E0FCA3E0FDA3E0FEA3E0FF900442E0F806
:102CC100A3E0F9A3E0FAA3E0FB120EDB60054003E9
:102CD100022D96900486E0FEA3E07802C333CE3342
:102CE100CED8F9FBAA0624F4F58274003AF583E004
:102CF100FCA3E0FDA3E0FEA3E0FF90048A121434DC
:102D010074F82BF58274003AF583E0FCA3E0FDA38F
:102D1100E0FEA3E0FF900492121434900486E0FEDA
:102D2100A3E07802C333CE33CED8F9FBAA062446FA
:102D3100F58274043AF583E0FCA3E0FDA3E0FEA371
:102D4100E0FF90048E121434744A2BF58274043A15
:102D5100F583E0FCA3E0FDA3E0FEA3E0FF90049671
:102D6100121434789A7C047D017B017A04798A7E7D
:102D7100007F0812115B78A27C047D017B017A043B
:102D810079927E007F0812115B90044212475490A1
:102D91000482121434900487E004F07006900486D3
:102DA100E004F0022C4F900482E0FCA3E0FDA3E0DC
:042DB100FEA3E0FF9E
:012DB50022FB
:091D830090041AEBF0AA05A9076F
:101D8C00E4900426F0A3F0A3F0A3F0A312144000F7
:101D9C0000000090042E1214400000000090043249
:101DAC00121440000000009000D57407F0A374E3F7
:101DBC00F0AF01125330A3E4F0A3EFF0AF021253D3
:101DCC0030A3E4F0A3EFF090041AE0FF125330EFCD
:101DDC002405FDE433FCE4120F6A9000DB1214348A
:101DEC0090041BE0FF125330AC07E4120F6F90000D
:101DFC00DF125326AC07E4120F6F9000E312143479
:101E0C0090041DE0FBA3E0FAA3E0F912134E90043A
:101E1C002A121434783E7C047D017B017A0079D53A
:101E2C007E007F1212115B78507C047D017B017A5D
:101E3C000179587E007F0812115B9004587401F0F0
:101E4C00A37400F0A374F1F01215E1E4FBFA7934F9
:101E5C007843120D357BD07A0F79497840120E3EBB
:101E6C009000CC1214349000DAE024AFFF9000D92B
:101E7C00E034FFFE7C017D681211D97D6D12124099
:101E8C00EF25E0FDEE33FC120F6A7BD07A0F794917
:101E9C007840120D35E4FBFA79347843120E3E1279
:101EAC003E0B7B857AEB791D7841120D35C004C051
:101EBC0005C006C007E4FFFE7D707C41900000E089
:101ECC00F8A3E0F9A3E0FAA3E0FB120D35A804A9EE
:101EDC0005AA06AB07900158E0FCA3E0FDA3E0FEC9
:101EEC00A3E0FF120C40E4FBFA79807840120D3528
:101EFC00D003D002D001D000120C44C004C005C0E5
:101F0C0006C0079000DAE024AFFF9000D9E034FF60
:101F1C00FE7C017D681211D97D6D121240AC06ADAC
:101F2C0007EC120F6A7BD07A0F79497840120D3585
:101F3C00E4FBFA79347843120E3E123DF57BC37AFA
:101F4C00F579F07840120D35A804A905AA06AB075F
:101F5C00D007D006D005D004120C40C004C005C078
:101F6C0006C0079000DAE024AFFF9000D9E034FF00
:101F7C00FE7C017D681211D97D6D121240AC06AD4C
:101F8C0007EC120F6A7BD07A0F79497840120D3525
:101F9C00E4FBFA79347843120E3E123E0BE4FBFA62
:101FAC0079C0783F120D35A804A905AA06AB07D055
:101FBC0007D006D005D004120C40E4FBFA797078F7
:101FCC0042120E3E9000D012143490041BE0FF120B
:101FDC005330AC07E4120F6FE4FBFA7970784212BD
:101FEC000E3EC004C005C006C00790041AE0FF12E4
:101FFC005330AC07E4120F6FD003D002D001D000E5
:10200C00120C449000D0E0F8A3E0F9A3E0FAA3E0AE
:10201C00FB120C449000ED1214347FD07E0F7D49DE
:10202C007C409000CCE0F8A3E0F9A3E0FAA3E0FB3D
:10203C00120D35E4FBFA79347843120E3E123DF55D
:10204C00C004C005C006C0077FD07E0F7D497C4010
:10205C0090015CE0F8A3E0F9A3E0FAA3E0FB120D19
:10206C0035E4FBFA79347843120E3E123DF5D00379
:10207C00D002D001D000120D35C004C005C006C07E
:10208C0007E4FFFE7D407CC19000EDE0F8A3E0F991
:10209C00A3E0FAA3E0FB120C447BD37A7E793C7864
:1020AC0042120D35E4FBFA79347843120E3E123DA0
:1020BC00F5D003D002D001D000120D35C004C005FC
:1020CC00C006C0077FD07E0F7D497C409000CCE0DD
:1020DC00F8A3E0F9A3E0FAA3E0FB120D35E4FBFA58
:1020EC0079347843120E3E123E0BC004C005C00674
:1020FC00C0077FD07E0F7D497C4090015CE0F8A347
:10210C00E0F9A3E0FAA3E0FB120D35E4FBFA793415
:10211C007843120E3E123E0BD003D002D001D000F9
:10212C00120D35D003D002D001D000120C44125144
:10213C00067BED7A2E79657842120D3590043612B5
:10214C001434E4FFFE7D407CC19000EDE0F8A3E088
:10215C00F9A3E0FAA3E0FB120C447BD37A7E793C22
:10216C007842120D35E4FBFA79347843120E3E12A4
:10217C003E0BC004C005C006C0077FD07E0F7D4952
:10218C007C409000CCE0F8A3E0F9A3E0FAA3E0FBDC
:10219C00120D35E4FBFA79347843120E3E123DF5FC
:1021AC00D003D002D001D000120D35C004C005C040
:1021BC0006C007900436E0F8A3E0F9A3E0FAA3E028
:1021CC00FBE4FFFE7DB47C42120C407BD07A0F798D
:1021DC00497840120D35E4FBFA79347843120E3EFF
:1021EC00123E0BA804A905AA06AB07D007D006D04F
:1021FC0005D004120E3E1251067BED7A2E796578CD
:10220C0042120D35E4FBFA79347843120C449004F5
:10221C003A125326EF30E0030223BE7FCD7ECC7DF5
:10222C000C7C40900436E0F8A3E0F9A3E0FAA3E0BC
:10223C00FB120EDB50030223BEE4FFFE7D887C42C2
:10224C00900436E0F8A3E0F9A3E0FAA3E0FB120E49
:10225C00DB600540030223BE900436E0FCA3E0FDE6
:10226C00A3E0FEA3E0FF90044212143490043AE081
:10227C00FCA3E0FDA3E0FEA3E0FF1228BB90043218
:10228C00121434E4FFFE7D167C43900432E0F8A374
:10229C00E0F9A3E0FAA3E0FB120C44900420E0F870
:1022AC00A3E0F9A3E0FAA3E0FB120C4490042A1279
:1022BC00143490041DE0FBA3E0FAA3E0F91214140B
:1022CC0090042AE0FCA3E0FDA3E0FEA3E0FF120CC7
:1022DC004090042E12143490042EE0FCA3E0FDA3D5
:1022EC00E0FEA3E0FF120FA31253DCAC06AD07EC2B
:1022FC00120F6AE4FBFAF9783F120EDB600540031B
:10230C000223BEE4FFFE7D707CC190042AE0F8A39A
:10231C00E0F9A3E0FAA3E0FB120EDB50030223BEAC
:10232C00E4FFFE7D527C4390042AE0F8A3E0F9A37D
:10233C00E0FAA3E0FB120EDB60025076E4FFFEFD38
:10234C00FC90042EE0F8A3E0F9A3E0FAA3E0FB1262
:10235C000EDB6014401290042EE0FCA3E0FDA3E021
:10236C00FEA3E0FFD201802BE4FFFEFDFC90042EC7
:10237C00E0F8A3E0F9A3E0FAA3E0FB120EDB5016A1
:10238C0090042EE0FCA3E0FDA3E0FEA3E0FF120FFF
:10239C0054C2011251F290042AE0FCA3E0FDA3E028
:1023AC00FEA3E0FF90041DE0FBA3E0FAA3E0F9120A
:0223BC00139E6E
:0123BE0022FC
:103550009003F6EBF09000D57407F0A374E3F0123B
:103560005330A3E4F0A3EFF0AF05125330A3E4F01F
:10357000A3EFF09003F6E0FF125330EF2405FDE4D3
:1035800033FCE4120F6A9000DB1214349003F7E06E
:10359000FF125330AC07E4120F6F9000DF121434A7
:1035A0009003F812532CAC07E4120F6F9000E31253
:1035B0001434783E7C047D017B017A0079D57E004D
:1035C0007F1212115B78507C047D017B017A0179B6
:1035D000587E007F0812115B9004587401F0A374A8
:1035E00000F0A374F1F01215E1E4FBFA79347843AA
:1035F000120D357BD07A0F79497840120E3E90003B
:10360000CC1214349000DAE024AFFF9000D9E034FB
:10361000FFFE7C017D681211D97D6D121240EF25ED
:10362000E0FDEE33FC120F6A7BD07A0F79497840C7
:10363000120D35E4FBFA79347843120E3E123E0B3C
:103640007B857AEB791D7841120D35C004C005C029
:1036500006C007E4FFFE7D707C41900000E0F8A307
:10366000E0F9A3E0FAA3E0FB120D35A804A905AA2E
:1036700006AB07900158E0FCA3E0FDA3E0FEA3E049
:10368000FF120C40E4FBFA79807840120D35D0032C
:10369000D002D001D000120C44C004C005C006C046
:1036A000079000DAE024AFFF9000D9E034FFFE7C01
:1036B000017D681211D97D6D121240AC06AD07EC88
:1036C000120F6A7BD07A0F79497840120D35E4FBEE
:1036D000FA79347843120E3E123DF57BC37AF579C0
:1036E000F07840120D35A804A905AA06AB07D0074B
:1036F000D006D005D004120C40C004C005C006C0DE
:10370000079000DAE024AFFF9000D9E034FFFE7CA0
:10371000017D681211D97D6D121240AC06AD07EC27
:10372000120F6A7BD07A0F79497840120D35E4FB8D
:10373000FA79347843120E3E123E0BE4FBFA79C05C
:10374000783F120D35A804A905AA06AB07D007D00B
:1037500006D005D004120C40E4FBFA7970784212CE
:103760000E3E9000D01214349003F7E0FF12533055
:10377000AC07E4120F6FE4FBFA79707842120E3E48
:10378000C004C005C006C0079003F6E0FF12533026
:10379000AC07E4120F6FD003D002D001D000120C9E
:1037A000449000D0E0F8A3E0F9A3E0FAA3E0FB1214
:1037B0000C449000ED1214347FD07E0F7D497C4084
:1037C0009000CCE0F8A3E0F9A3E0FAA3E0FB120D2F
:1037D00035E4FBFA79347843120E3E123DF5C0040D
:1037E000C005C006C0077FD07E0F7D497C40900198
:1037F0005CE0F8A3E0F9A3E0FAA3E0FB120D35E4E6
:10380000FBFA79347843120E3E123DF5D003D00214
:10381000D001D000120D35C004C005C006C007E4B9
:10382000FFFE7D407CC19000EDE0F8A3E0F9A3E04D
:10383000FAA3E0FB120C447BD37A7E793C784212E7
:103840000D35E4FBFA79347843120E3E123DF5D083
:1038500003D002D001D000120D35C004C005C0064F
:10386000C0077FD07E0F7D497C409000CCE0F8A35C
:10387000E0F9A3E0FAA3E0FB120D35E4FBFA79349A
:103880007843120E3E123E0BC004C005C006C007AE
:103890007FD07E0F7D497C4090015CE0F8A3E0F989
:1038A000A3E0FAA3E0FB120D35E4FBFA7934784388
:1038B000120E3E123E0BD003D002D001D000120DEA
:1038C00035D003D002D001D000120C441251062290
:1015E100E4FBFA7970784290044CE0FCA3E0FDA39F
:1015F100E0FEA3E0FF120E3E900448E0F8A3E0F9FC
:10160100A3E0FAA3E0FB120C44E4FBFA7970784200
:10161100120E3E900444E0F8A3E0F9A3E0FAA3E03F
:10162100FB120C4490045F121434900441E024F244
:10163100FF900440E034FFFE7C007D0C121240EE6E
:101641003395E0FDFC90047F121434E47F0CFEFD21
:10165100FC90047FE0F8A3E0F9A3E0FAA3E0FB1219
:1016610012CDA804A905AA06AB07900441E024FE07
:10167100FF900440E034FFFE3395E0FDFCC3EF9B97
:10168100FFEE9AFEED99FDEC98FCE47B6F7A01F98F
:10169100F81212CDE47B0CFAF9F8125042C004C0E2
:1016A10005C006C00790043FE024C0FF90043EE05F
:1016B1003412FE3395E0FDFC90047FE0F8A3E0F9DD
:1016C100A3E0FAA3E02FFFEA3EFEE93DFDE83CFC82
:1016D100E47BB57A05F9F81212CDE47B04FAF9F846
:1016E100125042D003D002D001D000EF2BFFEE3ACE
:1016F100FEED39FDEC38FCC004C005C006C0079002
:10170100043FE02424FF90043EE03413FE3395E0CF
:10171100FDFC90047FE0F8A3E0F9A3E0FAA3E02F39
:10172100FFEA3EFEE93DFDE83CFCE47B64FAF9F8A2
:10173100125042E47B03FAF9F81212CDE47B04FA69
:10174100F9F8125042A804A905AA06AB07D007D0A0
:1017510006D005D004C3EF9BFBEE9AFAED99F9ECA4
:1017610098F8900442E0FEA3E0FFEE3395E0FDFC23
:10177100EB2FFFEA3EFEE93DFDE83CFCEF24B5FF1F
:10178100EE3482FEED34FFFDEC34FFFC9004831255
:101791001434900483E0FCA3E0FDA3E0FEA3E0FF8A
:1017A100EC120F65E4FBFAF978BF120C44C004C0D7
:1017B10005C006C007E4FBFA79C0784190045FE0F8
:1017C100FCA3E0FDA3E0FEA3E0FF120E3ED003D098
:1017D10002D001D000120C4490047B1214347F64B7
:1017E1007EA17D157CCA90047BE0F8A3E0F9A3E01B
:0D17F100FAA3E0FB120C4490045B121434C8
:1017FE007F787E3E7D887C3A90045BE0F8A3E0F92A
:10180E00A3E0FAA3E0FB120D35A804A905AA06ABC6
:10181E00077F467E257D097C40120C409004831282
:10182E0014347FDE7EEC7D8C7C3C90045BE0F8A370
:10183E00E0F9A3E0FAA3E0FB120D357B5B7AA47905
:10184E009C7840120C4490047B1214347F257EEB5E
:10185E007D8C7C3C90045BE0F8A3E0F9A3E0FAA356
:10186E00E0FB120D357B927AAE79C77840120C44AC
:10187E0090047F12143490047FE0FCA3E0FDA3E0FB
:10188E00FEA3E0FF123E0B7B4A7ADF7908783D1209
:10189E000D3590047BE0F8A3E0F9A3E0FAA3E0FB9A
:1018AE00120C44C004C005C006C007E4FFFEFD7C58
:1018BE004090047FE0F8A3E0F9A3E0FAA3E0FB1266
:1018CE000D35123E0B7BEF7AF179B67839120D3564
:1018DE00D003D002D001D000120C447B297AD179EA
:1018EE00ED78B8120C44C004C005C006C0079004C1
:1018FE0083E0FCA3E0FDA3E0FEA3E0FF123E0B7B22
:10190E00EB7A4979AA7837120D35A804A905AA06EB
:10191E00AB07D007D006D005D004120C409004635C
:10192E00121434900483E0FCA3E0FDA3E0FEA3E0D8
:10193E00FF123DF57B2D7A1879267838120D35C0B9
:10194E0004C005C006C0077FEC7E827DD57C319039
:10195E00045BE0F8A3E0F9A3E0FAA3E0FB120D3577
:10196E00A804A905AA06AB077F9D7E747DD17C3E97
:10197E00120C40D003D002D001D000120C449004BF
:04198E006712143494
:10199200900463E0FCA3E0FDA3E0FEA3E0FF123E9F
:1019A2000B90047B121434900467E0FCA3E0FDA3C7
:1019B200E0FEA3E0FF123DF590047BE0F8A3E0F91E
:1019C200A3E0FAA3E0FB120D3590047312143490D5
:1019D2000463E0FCA3E0FDA3E0FEA3E0FF123DF5FB
:1019E200900477121434900477E0FCA3E0FDA3E0A6
:1019F200FEA3E0FF90049F121434900473E0FCA352
:101A0200E0FDA3E0FEA3E0FF124ABA90046B1214B9
:101A120034E4FFFEFDFC90046BE0F8A3E0F9A3E0E0
:101A2200FAA3E0FB120EDB501F90046BE0FCA3E074
:101A3200FDA3E0FEA3E0FF7BD07A0F79C9784012C4
:101A42000C4490046B121434900467E0FCA3E0FD94
:101A5200A3E0FEA3E0FF123E0B90047BE0F8A3E0BC
:101A6200F9A3E0FAA3E0FB120D3512510690046FC0
:031A720012143417
:101A75007FE07E927D867C3D90045BE0F8A3E0F9F3
:101A8500A3E0FAA3E0FB120D357B4D7A5179D678A8
:101A950040120C4490045FE0F8A3E0F9A3E0FAA338
:101AA500E0FB120C4490047B121434E4FFFE7D70BD
:101AB5007C4190047BE0F8A3E0F9A3E0FAA3E0FB06
:101AC500120D35900450E0F8A3E0F9A3E0FAA3E085
:101AD500FB120C447B2E7AFA798E783C120D3590E8
:101AE500047F12143490046BE0F8A3E0F9A3E0FA44
:101AF500A3E0FB90047FE0FCA3E0FDA3E0FEA3E0F0
:101B0500FF120C409004871214347F2E7EFA7D8ECE
:101B15007C3C900454E0F8A3E0F9A3E0FAA3E0FBD1
:101B2500120D35900483121434900483E0FCA3E075
:101B3500FDA3E0FEA3E0FF123DF590048B121434E3
:101B4500900483E0FCA3E0FDA3E0FEA3E0FF123ECA
:101B55000B90048F121434900487E0FCA3E0FDA3DE
:101B6500E0FEA3E0FF123DF59004931214349004B7
:101B75006FE0FCA3E0FDA3E0FEA3E0FF123DF5C08E
:101B850004C005C006C007900493E0FCA3E0FDA3D4
:101B9500E0FEA3E0FF90048BE0F8A3E0F9A3E0FAF0
:101BA500A3E0FB120D35D003D002D001D000120DF9
:101BB50035C004C005C006C00790046FE0FCA3E073
:101BC500FDA3E0FEA3E0FF123E0B90048FE0F8A317
:101BD500E0F9A3E0FAA3E0FB120D35D003D002D063
:101BE50001D000120C44124FF8900458E0FBA3E01A
:101BF500FAA3E0F912139E900487E0FCA3E0FDA38D
:101C0500E0FEA3E0FF123E0B120F54900473121472
:101C15003490046FE0FCA3E0FDA3E0FEA3E0FF1217
:101C25003E4790048BE0F8A3E0F9A3E0FAA3E0FBBC
:101C3500120D35C004C005C006C007900493E0FC32
:101C4500A3E0FDA3E0FEA3E0FF90048FE0F8A3E08E
:101C5500F9A3E0FAA3E0FB120D35A804A905AA062D
:101C6500AB07D007D006D005D004120C40900477FE
:101C7500121434900477E0FCA3E0FDA3E0FEA3E09A
:101C8500FF90049F121434900473E0FCA3E0FDA3BD
:101C9500E0FEA3E0FF124ABA900458E0FBA3E0FA85
:101CA500A3E0F99000041213B890000412136EE437
:101CB500FBFAF9F8120EDB602F402D900458E0FB7B
:101CC500A3E0FAA3E02404F9E43AFAC003C002C091
:101CD5000112134E7BD07A0F79C97840120C44D08B
:101CE50001D002D00312139E900458E0FBA3E0FA42
:101CF500A3E02404F9E43AFAC003C002C0011213B8
:101D05004E7B2E7AFA798E783C120E3ED001D002A7
:101D1500D00312139E900458E0FBA3E0FAA3E0F968
:101D250012134E123E0B7B0D7AA079327838120DC4
:101D350035900497121434900458E0FBA3E0FAA3FD
:101D4500E0F912134E900497E0F8A3E0F9A3E0FA46
:101D5500A3E0FB120C447B2E7AFA798E783C120EA6
:0F1D65003E900458E0FBA3E0FAA3E0F912139EAE
:0E1D740090046FE0FCA3E0FDA3E0FEA3E0FFFF
:011D8200223E
:10534100C2A4C2A5C2A64391015392FEE4F59743BC
:0A5351009D01F5BDF5BE75BC80227C
:1051C800EF4488F5BC0000E5BC30E4FB53BCEFAF0E
:1051D800BD7E00ADBE7C00EF7802C333CE33CED89F
:0951E800F9FFED5403FDEF4DFF4A
:0151F100229B
:10480500E490042EF0A3F090042CF0A3F090042E75
:10481500A3E0FF1251C8AC06AD0790042DE025E0DA
:10482500FF90042CE033FE74182FF58274043EF5D6
:1048350083ECF0A3EDF090042DE004F070069004F5
:104845002CE004F0C390042DE0940A90042CE0645D
:1048550080948040B890042CE4F0A304F090042CDC
:10486500E0FEA3E0FFD39409EE648094805047EF07
:1048750025E0FFEE33FE74182FF58274043EF583B0
:10488500E0FEA3E0FF900418E0FCA3E0FDC3EF9D6C
:10489500FFEE9CFE1253DCD3EF941EEE64809480F1
:1048A5004004E4FEFF2290042DE004F070AF900474
:0A48B5002CE004F080A77E007F01D4
:0148BF0022D6
:0B23BF00900418EBF0A3EAF0A3E9F093
:1023CA00E4900424F0A31214403F000000E49004B7
:1023DA00CDF0A3F090056A121440000000009005A9
:1023EA00C212144000000000E49004CFF0A3F09061
:1023FA0004CFE0FEA3E0FFC39451EE6480948050C2
:10240A0025EF25E0FFEE33FE74292FF58274043E92
:10241A00F583E4F0A3F09004D0E004F070D19004C6
:10242A00CFE004F080C9E49004CFF0A3F0E4900474
:10243A00D1F0A3F09004D1E0FEA3E0FFC39405EE2F
:10244A00648094805035EF4E70069004CDF0A3F06E
:10245A00900424E0FF1251C89004CEE02FF09004BB
:10246A00CDE03EF07F027E0012526C9004D2E0046E
:10247A00F070C19004D1E004F080B99004CDE0FE80
:10248A00A3E0FF7C007D05121240AC06AD07900464
:10249A00D0E025E0FF9004CFE033FE74292FF582C7
:1024AA0074043EF583ECF0A3EDF0E4FFFEFDFC902E
:1024BA00056AE0F8A3E0F9A3E0FAA3E0FB120EDB59
:1024CA0060369005DAE0FCA3E0FDA3E0FEA3E0FF9E
:1024DA0090056AE0F8A3E0F9A3E0FAA3E0FB120E84
:1024EA00DB500590056A80039005DAE0FCA3E0FD65
:1024FA00A3E0FEA3E0FF800E9005DAE0FCA3E0FD76
:10250A00A3E0FEA3E0FF90056A1214349005DAE016
:10251A00FCA3E0FDA3E0FEA3E0FF9005C2E0F8A360
:10252A00E0F9A3E0FAA3E0FB120EDB600740059096
:10253A0005C280039005DAE0FCA3E0FDA3E0FEA358
:10254A00E0FF9005C2121434124E3F900421E0FBC2
:10255A00A3E0FAA3E0F912134E9004D4121434E45F
:10256A00FBFA798078409005DAE0FCA3E0FDA3E06D
:10257A00FEA3E0FF120E3E120FA39004D8EFF07FE5
:10258A00021245527F327E001251AA900421E0FBCA
:10259A00A3E0FAA3E0F912134EEF2401FFE43EFE92
:1025AA00E43DFDE43CFC12139E124E3F900421E0F0
:1025BA00FBA3E0FAA3E0F912134E9004D4121434E8
:1025CA009004D0E025E0FF9004CFE033FE74292F79
:1025DA00F58274043EF583E0FEA3E0FF7C007D04EF
:1025EA001212409004D8EFF07F021245527F327ED9
:1025FA00001251AA900421E0FBA3E0FAA3E0F91229
:10260A00134EEF2401FFE43EFEE43DFDE43CFC12E0
:10261A00139E124E3F900421E0FBA3E0FAA3E0F9D7
:10262A0012134E9004D4121434900418E0FBA3E061
:10263A00FAA3E0F912134E120FA39004D8EFF07F19
:10264A00021245527F327E001251AA900421E0FB09
:10265A00A3E0FAA3E0F912134EEF2401FFE43EFED1
:10266A00E43DFDE43CFC12139E124E3F900421E02F
:10267A00FBA3E0FAA3E0F912134E9004D412143427
:10268A00900418E0FBA3E0FAA3E0F912134E120F2C
:10269A00A3AC07EC120F6FC004C005C006C00790B8
:1026AA000418E0FBA3E0FAA3E0F912134ED003D01A
:1026BA0002D001D000120C40E4FBFA79C878421229
:1026CA000D35120FA39004D8EFF07F021245527F06
:1026DA00327E001251AA900421E0FBA3E0FAA3E0A3
:1026EA00F912134EEF2401FFE43EFEE43DFDE43C03
:1026FA00FC12139E7F081250867F051250867F4176
:10270A00124DA57F44124DA57F43124DA57F3A1263
:10271A004DA59004D0E025E0FF9004CFE033FE748D
:10272A00292FF58274043EF583E0FCA3E0FDEC1248
:10273A000F6AE4FBFA79807844120E3EE4FBFA79D8
:10274A00A07840120D3512409B7F56124DA57F107E
:10275A00124DA57FC87E0012526C900425E0FCA39E
:10276A00E0FDA3E0FEA3E0FFD2011251F2900418AB
:10277A00E0FBA3E0FAA3E0F9C003C002C001121310
:10278A004EE4FBFAF9783F120C44D001D002D00390
:10279A0012139E7F207E0312526C9004D0E004F044
:1027AA0070069004CFE004F0C39004D0E0945190F6
:1027BA0004CFE06480948050030224377FE87E03CC
:1027CA0012526C9004CFE07004A3E06451600302DB
:1027DA0028BA7B017A047929124B579004CBEEF080
:1027EA00A3EFF0E025E0FF9004CBE033FE74292F3D
:1027FA00F58274043EF583E0F9A3E0FF90041BE040
:10280A00FBA3E0FAA3E0C98FF01212AE900479E0BC
:10281A00F9A3E0FF90041EE0FBA3E0FAA3E0C98F4E
:10282A00F01212AE9004CBE0FEA3E0FFC374539FF4
:10283A00FDE49EFC120F6A900425E0F8A3E0F9A3D8
:10284A00E0FAA3E0FB120D35C2011251F29004180E
:10285A00E0FBA3E0FAA3E0F9C003C002C00112132F
:10286A004EC004C005C006C0079004CBE0FEA3E03A
:10287A00FFC374539FFDE49EFC120F6A900425E087
:10288A00F8A3E0F9A3E0FAA3E0FB120D35A804A926
:10289A0005AA06AB07D007D006D005D004120C4013
:1028AA00D001D002D00312139E7FF47E0112526C23
:0128BA0022FB
:104B5700E4FDFC9004D3F0A37428F0E4A3F0A3F0E1
:104B67009004D5E0FEA3E0FFC39451EE9400507388
:104B7700EF25E0FFEE338F82F583121276FFD3ED38
:104B87009FEC95F04006AE04AF0580169004D6E082
:104B970025E0FF9004D5E0338F82F583121276FF6C
:104BA700AEF0AC06AD079004D6E025E0FF9004D543
:104BB700E0338F82F583121276B50516ECB5F01245
:104BC7004D600F9004D5E0FFA3E09004D3CFF0A38E
:104BD700EFF09004D6E004F070869004D5E004F07E
:0B4BE700024B679004D3E0FEA3E0FF48
:014BF20022A0
:0B38D0009003F4EFF0A3EDF0A3EBF089
:1038DB0090040812144000000000E490040CF0A3C4
:1038EB00F0A3F0A3F0900405E0FBA3E0FAA3E0F94A
:1038FB0012134E9004101214349003F9E0FBA3E062
:10390B00FAA3E0F912134E9004141214349003FC32
:10391B00E0FBA3E0FAA3E0F9E4F5F01212AE900499
:10392B0002E0FBA3E0FAA3E0F9E4F5F01212AE908B
:10393B0003FFE0FBA3E0FAA3E0F91214710000000F
:10394B000090056A121440000000009005C212148A
:10395B004000000000124805EF4E7003023A9190B0
:10396B0003F7E090041BF09003F8E090041CF0A325
:10397B007401F0A37404F0A37414F0A3121440C1E7
:10398B00A000009003F6E0FB9003F5E0FD9003F43C
:10399B00E0FF121D83E4FFFE7DA07C41900414E048
:1039AB00F8A3E0F9A3E0FAA3E0FB120C449003FFA9
:1039BB00E0FBA3E0FAA3E0F912139E90041B740141
:1039CB00F0A37404F0A3740CF0A37401F0A37404BB
:1039DB00F0A3740EF0A37401F0A37404F0A374109D
:1039EB00F07B017A0479141223BF900410E0FCA33E
:1039FB00E0FDA3E0FEA3E0FF900405E0FBA3E0FAEB
:103A0B00A3E0F912139E90040CE0F9A3E0FF9003DE
:103A1B00FCE0FBA3E0FAA3E0C98FF01212AE900416
:103A2B000EE0F9A3E0FF900402E0FBA3E0FAA3E0B1
:103A3B00C98FF01212AE9003FFE0FBA3E0FAA3E0F4
:103A4B00F9121414900414E0FCA3E0FDA3E0FEA310
:103A5B00E0FF120C40900408121434900414E0FCA4
:103A6B00A3E0FDA3E0FEA3E0FF9003F9E0FBA3E0DE
:103A7B00FAA3E0F912139E900408E0FCA3E0FDA367
:0B3A8B00E0FEA3E0FF22E4FFFEFDFCD4
:013A9600220D
:10524100C3EC64809480401CED25E0FFEC338F8239
:10525100F583121276640145F07005AF05AE0422A4
:04526100E4FEFF2246
:015265002226
:0D5172007F027E0012517FD2CC7F027E00B2
:10517F00EF1FAA0670011E4A6013E4FCFDC3ED94F5
:0D518F0009EC940050EA0DBD00010C80F009
:01519C0022F0
:0100060022D7
:0F541200D2CCD2C712517BC2C712517BC2CC225F
:1053B300C2CCC2C712517BD2CCC2C77F047E0012BB
:0553C300517FD2C7225A
:10537300E425E0FBC2CC12517B30C704EB4401FBB4
:05538300125179AF0397
:015388002202
:05546600125172C2CCDE
:01546B00221E
:0E542100C2CCD2C7125172C2CC12517BC2C78C
:01542F00225A
:05521A00F912119AFFDA
:02521F00A907DD
:10522100E4FBC2CCE930E704D2C78002C2C7125105
:0F5231007BD2CCE925E0F912517B0BEBB408E3FB
:01524000224B
:1048C0009004DBEBF0A3EAF0A3E9F01254127F01AD
:1048D0007E0012517F7F4012521F125373EF7012ED
:1048E0009004DBE0FBA3E0FAA3E0F9121181FF12D0
:1048F000521F125373EF70109004DBE0FBA3E0FA39
:10490000A3E090000112521A125373EF701090043A
:10491000DBE0FBA3E0FAA3E090000212521A12536C
:1049200073EF70119004DBE0FBA3E0FAA3E0F990D1
:10493000000312521B125373EF70119004DBE0FB63
:10494000A3E0FAA3E0F990000412521B125373EF94
:1049500070119004DBE0FBA3E0FAA3E0F9900005FE
:0D49600012521B125373EF70031253B32257
:0D519D007F057E001251AAD2C37F057E005F
:1051AA00EF1FAA0670011E4A6013E4FCFDC3ED94CA
:0D51BA0004EC940050EA0DBD00010C80F0E3
:0151C70022C5
:104EFB007B6053B3F143B407C2C11251A6E49003D4
:104F0B00F4F0A3F0C2C31251A6EB30E704D2C28077
:104F1B0002C2C212519DEB25E0FB9003F5E004F0B9
:104F2B0070069003F4E004F0C39003F5E09408904E
:104F3B0003F4E06480948040CBD2C17F0A7E0012E0
:094F4B0051AA124A19EF20E0F905
:014F5400223A
:104E1A007F327E001251AA9003FFE0FBA3E0FAA3BF
:104E2A00E0F912134EEF2401FFE43EFEE43DFDE4F7
:054E3A003CFC12139E78
:104E3F007B06C2C1E49004D3F0A3F0C2C31251A603
:104E4F00EB30E704D2C28002C2C212519DEB25E0C3
:104E5F00FB9004D4E004F070069004D3E004F0C398
:104E6F009004D4E094089004D3E06480948040CB05
:0C4E7F00D2C11251A6124A19EF20E0F92E
:014E8B002204
:07454B00E09004D8F07F02AC
:02455200AB07B5
:10455400C2C11251A6E49004D9F0A3F0C2C312510F
:10456400A6EB30E704D2C28002C2C212519DEB25F1
:10457400E0FB9004DAE004F070069004D9E004F063
:10458400C39004DAE094089004D9E06480948040F5
:10459400CBE49004D9F0A3F0C2C31251A69004D482
:1045A400A3E0FDA3A3E4FFFEED5480FDE4FCFBFACD
:1045B4007980F8C312132A7004D2C28002C2C212D4
:1045C400519D9004D4E0FCA3E0FDA3E0FEA3E0FF32
:1045D400780112133B9004D41214349004DAE004EA
:1045E400F070069004D9E004F0C39004DAE0941863
:1045F4009004D9E064809480409EE49004D9F0A3B0
:10460400F0C2C31251A69004D8E030E704D2C280AD
:1046140002C2C212519D9004D8E025E0F09004DA61
:10462400E004F070069004D9E004F0C39004DAE0EA
:1046340094089004D9E06480948040C5D2C112519A
:08464400A6124A19EF20E0F96B
:01464C00224B
:02443B00AB07CD
:10443D00E49005FEF0C2C17F05FE1251AAE4A3F07F
:10444D00A3F0C2C31251A6EB30E704D2C28002C260
:10445D00C212519DEB25E0FB900600E004F07006C2
:10446D009005FFE004F0C3900600E094089005FF6E
:10447D00E06480948040CBE49005FFF0A3F0C2C3CC
:10448D001251A69005FAA3E0FDA3A3E4FFFEED549F
:10449D0080FDE4FCFBFA7980F8C312132A7004D274
:1044AD00C28002C2C212519D9005FAE0FCA3E0FD4C
:1044BD00A3E0FEA3E0FF780112133B9005FA12145E
:1044CD0034900600E004F070069005FFE004F0C3A0
:1044DD00900600E094189005FFE064809480409E63
:1044ED007F0A7E001251AAD2C47F027E001251AA09
:1044FD00E49005FFF0A3F09005FEE025E0F01251E9
:10450D00A4C2C31251A630C404E04401F0900600C9
:10451D00E004F070069005FFE004F0C3900600E0A3
:10452D0094089005FFE06480948040CBD2C1125175
:0D453D00A6124A19EF20E0F99005FEE0FFFC
:01454A00224E
:104A1900E4FB9004DBF0A3F0A3F07905C2C17F05A4
:104A2900FE1251AAE49004DCF0A3F0C2C31251A60D
:104A3900E930E704D2C28002C2C212519DE925E0E1
:104A4900F99004DDE004F070069004DCE004F0C3A2
:104A59009004DDE094089004DCE06480948040CB0D
:104A69007F0A7E001251AAD2C47F027E001251AA87
:104A7900E49004DCF0A3F0EB25E0FB1251A4C2C3DF
:104A89001251A630C404EB4401FB9004DDE004F0AC
:104A990070069004DCE004F0C39004DDE094089013
:104AA90004DCE06480948040CED2C11251A6AF03E9
:014AB90022DA
:103C2400124E3F9003FFE0FBA3E0FAA3E0F9121366
:103C34004E9004D41214349003F412454B9003FFB5
:103C4400E0FBA3E0FAA3E0F912134EEF2401FFE432
:103C54003EFEE43DFDE43CFC12139E7F327E0012E6
:103C640051AA124E3F9003FFE0FBA3E0FAA3E0F950
:103C740012134E9004D41214349003F512454B12CF
:103C84004E1A9003FFE0FBA3E0FAA3E0F912134EEF
:103C94009004D41214349003F612454B124E1A9029
:103CA40003FFE0FBA3E0FAA3E0F912134E9004D45F
:103CB4001214349003F712454B124E1A9003FFE08E
:103CC400FBA3E0FAA3E0F912134E9004D4121434C7
:103CD4009003F812454B124E1A9003FFE0FBA3E049
:103CE400FAA3E0F912134E9004D41214349003F999
:103CF40012454B124E1A9003FFE0FBA3E0FAA3E037
:103D0400F912134E9004D41214349003FA12454B52
:103D1400124E1A9003FFE0FBA3E0FAA3E0F912139A
:103D24004E9004D41214349003FB12454B124E1AD5
:103D34009003FFE0FBA3E0FAA3E0F912134E900412
:103D4400D41214349003FC12454B124E1A9003FF04
:103D5400E0FBA3E0FAA3E0F912134E9004D412148A
:103D6400349003FD12454B124E1A9003FFE0FBA35F
:103D7400E0FAA3E0F912134E9004D4121434900321
:103D8400FE12454B7F327E001251AA9003FFE0FBE6
:103D9400A3E0FAA3E0F912134EEF2401FFE43EFE80
:093DA400E43DFDE43CFC02139E29
:10514100D296C294C2957F0A7E0012526CD296D238
:1051510094D2957F0A7E0012526CC2967F0A7E001D
:1051610012526CC294C2957F0A7E0012526CD29583
:01517100221B
:0D54300053B2FB43B104C288D2A8D2AF2210
:03000000024C8D22
:0C4C8D00787FE4F6D8FD758120024CD43D
:100C3D0002100FE86480F8E933E83360110460F0C6
:100C4D00ED33EC337009E8FCE9FDEAFEEBFF22041D
:100C5D0060DED3EB9FEA9EE99DE8C2E78CF0C2F718
:100C6D0095F0400CE8CCF8E9CDF9EACEFAEBCFFBE4
:100C7D00120FDA85D0F05804700320D5B3E8047054
:100C8D00075002B2D502101992D5EC0460F7E4CCEE
:100C9D00C0E0C398F8603B94186008400DD0E0FBAD
:100CAD00020FF1E4FBFAC9FC8028E830E406E4C940
:100CBD00FBE4CAFCE830E305E4C9CACBFCE8540701
:100CCD006010F8C3E913F9EA13FAEB13FBEC13FC0C
:100CDD00D8F130F52FC3E49CFCEF9BFFEE9AFEEDAF
:100CED0099FDD0E0FBEF4E4D4C701222DB0302104C
:100CFD0016EC2CFCEF33FFEE33FEED33FDED30E75C
:100D0D00EB020FF1EF2BFFEE3AFEED39FDD0E0FBDC
:100D1D0050130BBB0003021019ED13FDEE13FEEF84
:080D2D0013FFEC13FC020FF1AF
:100D3500EC4D6011E8497017ED33EC3304600DE4B8
:100D4500FCFFFEFD22E933E8330470F802100F12B0
:100D55000FDA58046009E4CC2481500628500902B2
:100D65001019284003021016C0E0EB4A7044B98000
:100D750006D0E0FB021005EF4E701CBD8008EBFFAE
:100D8500EAFEE9FD80EBE98DF0A4FEE5F0020E1E1A
:100D9500E9CDF9EAFEEBFFEF89F0A4FCE5F0CE8999
:100DA500F0A42EFFE435F0CD89F0A42DFEE435F056
:100DB5008067EF4E7005BD80D780C3EF8BF0A4AC84
:100DC500F0EE8BF0A42CFCE435F0F8EF8AF0A42CBF
:100DD500E5F038FCE433CB8DF0A42CFCE5F03BF8D2
:100DE500EE8AF0A42CFCE5F038F8E433CF89F0A4C2
:100DF5002CFCE5F038CF3400CE89F0A42FFFE5F0C8
:100E05003EFEE433C98DF0A42EFEE5F039CD8AF01F
:100E1500A42FFFE5F03EFEE43DFD33D0E0FB500797
:100E25000BBB000F021019EC2CFCEF33FFEE33FE69
:060E3500ED33FD020FF198
:100E3B00021019EC5D046005E85904700302100FF1
:100E4B00120FDA580460F6EC4860F2EC7004FDFE09
:100E5B00FF22C860DB2481C85009C398600250068A
:100E6B000210169850CAF582E9294B4A7005AB82DD
:100E7B0002100575F0007C1A7880C3EF9BEE9AED9B
:100E8B0099400DC3EF9BFFEE9AFEED99FDE842F002
:100E9B00DC23ACF0D0E0FFD0E0FED0E0FDAB822055
:100EAB00E7101BEB60BAEC2CFCEF33FFEE33FEEDDF
:100EBB0033FD020FF1E803F830E705C0F075F000E1
:100ECB00EF2FFFEE33FEED33FD40B830E7C280AAC3
:100EDB0074F8CC6480CCC86480C8F58204604FC3BE
:100EEB00EB9FF5F0EA9E42F0E99D42F0E89C45F05D
:100EFB00603C501DE5825FFFE582D313CB5BCBF4E7
:100F0B002B5582FB50280ABA002409B9002008800F
:100F1B001DE5825BFBE582D313CF5FCFF4C3132FA9
:100F2B005582FF50090EBE00050DBD00010CC3EB31
:100F3B009FF5F0EA9E42F0E99D42F0E89C45F06097
:090F4B0007CC4820E701B3EC22B9
:100F5400ED33EC33600A047003BD8004ECB2E7FCAB
:010F6400226A
:100F650075F020800E75F010800575F0087D007E07
:100F7500007F003392D530D50312131CEC3340109B
:100F8500EF33FFEE33FEED33FDEC33FCD5F0ED2210
:0E0F9500E5F0247EA2D513CC92E7CDCEFF224C
:100FA300EDD2E7CD33EC3392D524814006E4FFFE46
:100FB300FDFC22FCE4CFCECDCC24E0501174FF80A5
:100FC300EDC3CC13CCCD13CDCE13CECF13CF047042
:070FD300F030D5DE02131C13
:104ABA0090049B12143490049FE0F8A3E0F9A3E059
:104ACA00FAA3E0FB90049BE0FCA3E0FDA3E0FEA3B5
:104ADA00E0FF120E3E12433990049B1214349004E4
:104AEA009FE030E75990049BE0FCA3E0FDA3E0FEC1
:104AFA00A3E0FFECC0E0EDC0E0EEC0E0EFC0E0E410
:104B0A00FFFEFDFC90049BE0F8A3E0F9A3E0FAA302
:104B1A00E0FB120EDB7BDB600250087A0F794978E2
:104B2A004080067A0F794978C0D0E0FFD0E0FED005
:104B3A00E0FDD0E0FC120C4490049B121434900463
:0D4B4A009BE0FCA3E0FDA3E0FEA3E0FF2242
:103DAD003A70FA83BCAAE9E43E81E0F8BF9DE9E6EA
:103DBD003F80000039283C1ABB9969663DA335E365
:103DCD00BF255DE73FC90FDB418DDBCCC44936EE26
:103DDD0045C9913FC5B0F83D3F800000C317F5348C
:103DED00452FFA73C60AFDDD123EB604A2E192011B
:103DFD001420E015903DAD740412103E8030123E3B
:103E0D00B630E102B20120E0EBA883A98290049BB9
:103E1D0012143489828883903DC1740412103E853A
:103E2D0082F090049B1213F885F082120D35ED4C43
:103E3D006007300104EC6480FC22123EB6C0E0A89D
:103E4D0083A98290049B12143489828883903DE566
:103E5D00740312103E8582F090049B1213F885F0C6
:103E6D0082120D3590049BE0CCF0A3E0CDF0A3E0E1
:103E7D00CEF0A3E0CFF0903DD5740312103ED0826A
:103E8D008582F090049B1213F885F082E58230E074
:103E9D0007120E3EB2018096EFCBFFEECAFEEDC9C2
:103EAD00FDECC8FC120E3E8085ED33EC547FCC3317
:103EBD00920124605007D0E0D0E002100F7B837A8E
:103ECD00F97922783E120D35EDF933ECF833248172
:103EDD005011EFFBEEFA120FA3120F65ECB2E7FCD7
:103EED00120C44ED33EC33602F2403F8C313FCEDB7
:103EFD0092E7FDE82481E4501FECF8EDF9EEFAEFBE
:103F0D00FB120FA3EF04C2E0FCF582120F6FECB2AF
:103F1D00E7FC120C44E58203FAED33EC3360071431
:083F2D0013FCED92E7FDEA220E
:104FF800ECC0E0F8EDC0E0F9EEC0E0FAEFC0E0FB8D
:10500800120D35EC6480FC7B007A007980783F12C1
:105018000C44124971D0E0FBD0E0FAD0E0F9D0E0BE
:10502800F8C0E0120E3E124339D0E030E70B78406A
:0A50380079497A0F7BD9120C44224B
:10510600ECC0E0F8EDC0E0F9EEC0E0FAEFC0E0FB7D
:10511600120D35EC6480FC7B007A007980783F12B2
:105126000C44124971D0E0CFFBD0E0CEFAD0E0CDEE
:0B513600F9D0E0CCF8120E3E02433925
:103F35009003BC121434E4FFFE7D807C3F9003BCEB
:103F4500E0F8A3E0F9A3E0FAA3E0FB120EDB7006AC
:103F55009003BC02408F9003BCE0FCA3E0FDA3E00E
:103F6500FEA3E0FF121024FBA3E0FCA3E0FDA3E009
:103F7500FEA3E0FF121024FFB40108E4FFFE7D80DC
:103F85007C3F22EF64046029EB64046024EBB401F8
:103F950030E4FFFEFDFC9003C0E0F8A3E0F9A3E0E8
:103FA500FAA3E0FB120EDB60084006E4FFFEFDFC11
:103FB500229003C0121440FFFFFFFF9003C0024090
:103FC5008FE49003C4F0A3F0FFFEFDFC9003BCE07A
:103FD500F8A3E0F9A3E0FAA3E0FB120EDB505F9033
:103FE50003C0E0FCA3E0FDA3E0FEA3E0FF120FA3E6
:103FF5009003C4EEF0A3EFF0FDCCEECCEC120F6A0B
:10400500C8ECC8C9EDC9CAEECACBEFCB9003C0E076
:10401500FCA3E0FDA3E0FEA3E0FF120C40E4FBFAE5
:10402500F9F8120EDB708A9003BCE0FCA3E0FDA357
:10403500E0FEA3E0FF120F549003BC12143490036A
:10404500BCE0FCA3E0FDA3E0FEA3E0FF1242249048
:1040550003C0E0F8A3E0F9A3E0FAA3E0FB120D35F5
:10406500124C2B9003C01214349003C5E030E017B6
:104075009003C0E0FCA3E0FDA3E0FEA3E0FF120F68
:10408500549003C01214349003C0E0FCA3E0FDA3D8
:06409500E0FEA3E0FF22A3
:100FDA00E9D2E7C933E833F892D5EDD2E7CD33EC5D
:070FEA0033FC5002B2D522D6
:100FF100EC30E7100FBF000C0EBE00080DBD000461
:101001000BEB6014A2D5EB13FCED92E7FD2274FF0C
:10101100FCFDFEFF22E480F8A2D574FF13FC7D8065
:03102100E480EF79
:10102400ED33EC33601004700FED547F70057402DF
:0A10340092E0227404220422E42258
:10103E00C0E0EFFBEEFAEDF9ECF8120D35D0E0F56D
:10104E00F0EFFBEEFAEDF9ECF81213E8A3A3A3A36D
:10105E00E8C0E0E9C0E0EAC0E0EBC0E0C0F0120D8D
:10106E0035121404A3A3A3A3120C44D0F0D0E0FBBA
:0D107E00D0E0FAD0E0F9D0E0F8D5F0D422AF
:104BF30033DA929E35B16011377FE5FE392184891E
:104C03003AAEC3FF3C1D955B3D6358473E75FDF0CF
:104C13003F3172183F800000C2D502101902100FF5
:104C2300BD80FA50F3021016ED33EC330460F17BD0
:104C33003B7AAA79B8783F120D35ED33EC3392D530
:104C4300247B5011A2D570DB500BED44802404501B
:104C530004A2D580CEEFFBEEFAEDF9ECF8120FA328
:104C6300EFF582F404FC120F6F120C44C082904BD8
:104C7300F3740912104DED33CC33D0F092D525F0F7
:0A4C8300A2D57001C313CC13FD226B
:1041F0003E9248DA3ECCCCCD3F2AAAAB400000002C
:104200003F8000003F9837F03FB504F33FD744FCB0
:104210003E3172173EB172173F0515913EDE5BD9F4
:10422000D2008002C200EDD2E7F8CD33EC33047047
:104230000BBD800592D502101902100F40FBD3145C
:1042400060F2F5F07C3FEE7A00C39496C8948B4000
:10425000230AC89469C8941A401A0AC89468C89472
:104260001F40110AC8945AC89425400805F07A00E6
:10427000CDC2E7CDC0F09003C6121434EA2323C0A8
:10428000E02400F582E43442F583121404120C4455
:10429000ECC0E0EDC0E0EEC0E0EFC0E01213E8904B
:1042A00003C61213F8120C40D0E0FBD0E0FAD0E0C5
:1042B000F9D0E0B2E7F8120E3E9003C61214349023
:1042C00041F0740312103E9003C61213F8120D351C
:1042D000D0E0600F240CF582E43442F5831214041C
:1042E000120C449003C6121434D0E0C3947FFDE452
:1042F0009400FC120F6A7B187A727931783F120DA4
:10430000359003C61213F8120C4430000B7BD97A97
:094310005B79DE783E120D3522C6
:10496D0002100F22EDA2E7D2E7F9EC3340F260F32B
:10497D00B4FF08ED547F70E8021019F82481C2E0ED
:10498D00C0E0F40428FAC313FCED92E7FD90049BFC
:10499D00121434EEA2E7E9BA7F02C3133400940077
:1049AD00FA75F091A4E5F013F494FE8AF0A433E5C2
:1049BD00F033248CD313FDE492E7FE7F007C3F752A
:1049CD008302ECC0E0F8EDC0E0F9EEC0E0FAEFC014
:1049DD00E0FB8583F090049B1213DC85F083120EAF
:1049ED003ED0E0FBD0E0FAD0E0F9D0E0F8120C4474
:1049FD00ED6480FD30E7011CD583C7ED33CC33F872
:0C4A0D00D0E0A2E71328C313CC13FD2255
:10431900BE1249253E4CCCCDBEAAAAAB3F800000B7
:104329003E7ADBB03EED63383F24BC7D3F490FDB6D
:10433900ED33ECC2E7CC339201B4FF13ED547F6047
:104349000302100F7FDB7E0F7DC97C3F02442EC222
:1043590002C3947F401E7007EDD2E794904015EF99
:10436900FBEEFAEDF9ECF87F007E007D807C3F12D0
:104379000E3ED202ED33EC33248430E705E4C0E08D
:10438900806B04FAEDD2E754F0C333DAFD540734F5
:10439900002323C0E0CCC0E0F8EDC0E0F9EEC0E0B6
:1043A900FAEFC0E0FBE4120F6FEC24FEFC9004A3CB
:1043B900121434120D357B007A007980783F120C83
:1043C900449004A3E0B2E7CCF0A3E0CDF0A3E0CEA3
:1043D900F0A3E0CFF0D0E0FBD0E0FAD0E0F9D0E0F4
:1043E900F8120C449004A31213F8120E3E9004A381
:1043F900121434904319740312103E9004A312133B
:10440900F8120D35D0E0600F2425F582E43443F528
:1044190083121404120C4430020B7BDB7A0F79C926
:1044290078BF120C44ED33EC336006ECA20192E73D
:02443900FC2263
:104C990002001EE493A3F8E493A34003F68001F213
:104CA90008DFF48029E493A3F85407240CC8C3331C
:104CB900C4540F4420C8834004F456800146F6DFEB
:104CC900E4800B0102040810204080902DB6E47E98
:104CD900019360BCA3FF543F30E509541FFEE493E0
:104CE900A360010ECF54C025E060A840B8E493A3A7
:104CF900FAE493A3F8E493A3C8C582C8CAC583CAD2
:104D0900F0A3C8C582C8CAC583CADFE9DEE780BE89
:0131C300000B
:10108B00E709F608DFFA8046E709F208DFFA803E47
:10109B0088828C83E709F0A3DFFA8032E309F60834
:1010AB00DFFA8078E309F208DFFA807088828C839C
:1010BB00E309F0A3DFFA806489828A83E0A3F60850
:1010CB00DFFA805889828A83E0A3F208DFFA804C2A
:1010DB0080D280FA80C680D4806980F28033801001
:1010EB0080A680EA809A80A880DA80E280CA80336A
:1010FB0089828A83ECFAE493A3C8C582C8CCC583E2
:10110B00CCF0A3C8C582C8CCC583CCDFE9DEE780B1
:10111B000D89828A83E493A3F608DFF9ECFAA9F030
:10112B00EDFB2289828A83ECFAE0A3C8C582C8CC86
:10113B00C583CCF0A3C8C582C8CCC583CCDFEADE9F
:10114B00E880DB89828A83E493A3F208DFF980CC01
:10115B0088F0EF60010E4E60C388F0ED2402B404FA
:10116B000050B9F582EB2402B4040050AF232345A1
:06117B0082239010DB73DB
:10118100BB010689828A83E0225002E722BBFE026C
:09119100E32289828A83E493229F
:10119A00BB010CE58229F582E5833AF583E022500A
:1011AA0006E92582F8E622BBFE06E92582F8E22254
:0D11BA00E58229F582E5833AF583E493226E
:1011C700BB010689828A83F0225002F722BBFE0107
:0211D700F32201
:1011D900EF8DF0A4A8F0CF8CF0A428CE8DF0A42E2A
:0211E900FE22E4
:1011EB00BC000BBE0029EF8DF084FFADF022E4CCE8
:1011FB00F875F008EF2FFFEE33FEEC33FCEE9DECB1
:10120B00984005FCEE9DFE0FD5F0E9E4CEFD22EDF6
:10121B00F8F5F0EE8420D21CFEADF075F008EF2F40
:10122B00FFED33FD4007985006D5F0F222C398FD31
:05123B000FD5F0EA22CE
:10124000C2D5EC30E709B2D5E4C39DFDE49CFCEEC9
:1012500030E715B2D5E4C39FFFE49EFE1211EBC345
:10126000E49DFDE49CFC80031211EB30D507C3E440
:061270009FFFE49EFE2238
:10127600BB0110E58229F582E5833AF583E0F5F0B6
:10128600A3E0225009E92582F886F008E622BBFE93
:101296000AE92582F8E2F5F008E222E5832AF583D9
:0812A600E993F5F0A3E993229E
:1012AE00BB010A89828A83F0E5F0A3F0225006F78B
:0F12BE0009A7F01922BBFE06F3E5F009F3192288
:1012CD00E88FF0A4CC8BF0A42CFCE98EF0A42CFCC0
:1012DD008AF0EDA42CFCEA8EF0A4CDA8F08BF0A43E
:1012ED002DCC3825F0FDE98FF0A42CCD35F0FCEB9D
:1012FD008EF0A4FEA9F0EB8FF0A4CFC5F02ECD3962
:0F130D00FEE43CFCEAA42DCE35F0FDE43CFC22CE
:10504200C2D5E830E70FB2D5E4C39BFBE49AFAE499
:1050520099F9E498F8EC30E717B2D51250781214A7
:10506200D3E4C39BFBE49AFAE499F9E498F8800349
:105072001214D330D50DE4C39FFFE49EFEE49DFDE0
:04508200E49CFC228C
:0E131C00C3E49FFFE49EFEE49DFDE49CFC22E2
:10132A00EB9FF5F0EA9E42F0E99D42F0E89C45F019
:01133A002290
:10133B00E8600FEFC333FFEE33FEED33FDEC33FC10
:03134B00D8F122B4
:10134E00BB010789828A830213DC5005E9F8021576
:10135E0065BBFE05E9F802157189828A830213E8DE
:10136E00BB010DE58229F582E5833AF5830213DC94
:10137E005007E92582F8021565BBFE07E92582F8BC
:10138E00021571E58229F582E5833AF5830213E8A9
:10139E00BB010789828A830214345005E9F80215CD
:0A13AE0097BBFE05E9F80215A32223
:1013B800BB010DE58229F582E5833AF583021434F1
:1013C8005007E92582F8021597BBFE07E92582F840
:0413D8000215A32235
:0C13DC00E0FCA3E0FDA3E0FEA3E0FF2284
:1013E800E493FC740193FD740293FE740393FF224B
:0C13F800E0F8A3E0F9A3E0FAA3E0FB2278
:10140400E493F8740193F9740293FA740393FB223E
:10141400BB010789828A830213F85005E9F8021593
:101424007DBBFE05E9F802158A89828A83021404C9
:0C143400ECF0A3EDF0A3EEF0A3EFF0222B
:10144000A8828583F0D083D08212145712145712C9
:101450001457121457E473E493A3C583C5F0C583EE
:10146000C8C582C8F0A3C583C5F0C583C8C582C8F6
:011470002259
:10147100BB010789828A830214405005E9F80215ED
:0A148100AFBBFE05E9F80215C82212
:0C148B00A42582F582E5F03583F583226C
:1014970075F008758200EF2FFFEE33FECD33CDCC0C
:1014A70033CCC58233C5829BED9AEC99E58298408F
:1014B7000CF582EE9BFEED9AFDEC99FC0FD5F0D66C
:1014C700E4CEFBE4CDFAE4CCF9A88222B800C1B996
:1014D7000059BA002DEC8BF084CFCECDFCE5F0CBD4
:1014E700F97818EF2FFFEE33FEED33FDEC33FCEB0D
:1014F70033FB10D703994004EB99FB0FD8E5E4F9C8
:10150700FA227818EF2FFFEE33FEED33FDEC33FCB4
:10151700C933C910D7059BE99A4007EC9BFCE99AA8
:10152700F90FD8E0E4C9FAE4CCFB2275F010EF2FED
:10153700FFEE33FEED33FDCC33CCC833C810D707ED
:101547009BEC9AE899400AED9BFDEC9AFCE899F828
:0E1557000FD5F0DAE4CDFBE4CCFAE4C8F922BB
:0C156500E6FC08E6FD08E6FE08E6FF22B2
:0C157100E2FC08E2FD08E2FE08E2FF22B6
:0D157D00E6FB08E6F908E6FA08E6CBF822DE
:0D158A00E2FB08E2F908E2FA08E2CBF822E1
:0C159700ECF608EDF608EEF608EFF62280
:0C15A300ECF208EDF208EEF208EFF22284
:1015AF00D083D082E493F608740193F60874029303
:0915BF00F608740393F67404733A
:1015C800D083D082E493F208740193F208740293F2
:0915D800F208740393F274047329
:00000001FF
