:102E18004305066868004305096D6D004204A80073
:102E28000042051D00004204FF00004205030000A7
:102E38004404A368686D6D44051400000000410453
:102E4800A71E44050C00000000420447000044048B
:052E58004B68686D6D80
:03000B00020009E7
:0100090032C4
:10000E009002F17401F0E4A3F0A3F0A3F0A3F0A327
:10001E00F0A3F0900313F0A3F09003171220D70073
:10002E00000000D200D203C202C201E4900000F030
:10003E00A3F0900000F0F5B175B2FF75B04C124B05
:10004E00FA1250CE1250DB124F4E438E80E4F58AD8
:10005E00758CB8F589D28CD2A9D2AF7D067F1212DB
:10006E004FC37FF47E01124F6D7D05E4FF124FC327
:10007E007FF47E01124F6D7F017E001250087F6863
:10008E00124A4A7F68124A4A7F6D124A4A7F6D129F
:10009E004A4A7F23124A4AE4900315F0A3F09003D4
:1000AE0015E0FAA3E0FBD39414EA648094805074B4
:1000BE00EBAE027802C333CE33CED8F9244FF5829D
:1000CE0074043EF5831220D700000000AD03AC028D
:1000DE00EC121C05E4FBFAF97840121AD9E4FBFA8B
:1000EE0079E078401218DFC004C005C006C0079042
:1000FE000315E0FEA3E07802C333CE33CED8F92445
:10010E00AAF58274043EF583D007D006D005D0043C
:10011E001220CB900316E004F07083900315E004D8
:10012E00F00200AC12316D7F08124D2B7F05124D7F
:10013E002B7F50124A4A7F4F124A4A7F53124A4A25
:10014E007F3A124A4A900514E0FCA3E0FDA3E0FEBC
:10015E00A3E0FF123F147F6D124A4A7F6D124A4A86
:10016E007F027E00125008900502E0FF124F8B7F37
:10017E003A124A4A900505E0FF124F8B7F3A124A17
:10018E004A90051CE0547FFF124F8B7F3B124A4A68
:10019E009004FEE0FF124F8B900501E0FF124F8B93
:1001AE007F3B124A4A900000E07002A3E060047F99
:1001BE0041800C900000E07002A3E070057F4D12AC
:1001CE004A4A30023F900000E07002A3E07035A270
:1001DE000392067F27FE124D6B900514E0FCA3E000
:1001EE00FDA3E0FEA3E0FF7BCD7ACC79CC300304F7
:1001FE00783E800278BE1218DF9005141220CBE4F0
:10020E009002F1F0300141900000E07002A3E07026
:10021E0037A20392067F27FE124D6B900514E0FC69
:10022E00A3E0FDA3E0FEA3E0FF7BCD7ACC79CC303A
:10023E000304783E800278BE1218DF900514122057
:10024E00CBE49002F1F0C20130A3359002F1E070E0
:10025E002FFFFEFDFC900514E0F8A3E0F9A3E0FAF1
:10026E00A3E0FB121B76600250169005141220D7E5
:10027E00000000009002F17401F0C202C201D2032C
:10028E001250E7900518E0A3F0900502E0900518D3
:10029E00F090051AE0A3F0900505E090051AF09095
:1002AE00031E7401F0A37405F0A37401F0A374018E
:1002BE00F0A37405F0A37402F0A37401F0A3740507
:1002CE00F0A37405F0A37401F0A37405F0A3741CDD
:1002DE00F07B017A0479FE124B31900000E070023F
:1002EE00A3E07003020D207F02124E199002EFEE72
:1002FE00F0A3EFF090051BE0FE90051AE06E600390
:10030E00020D20900505E0FFEE6F6003020D2090B8
:10031E000502E0FE900518E0FD6E6003020D20A3BD
:10032E00E06D6003020D209002F2E07002A3E06027
:10033E0003020786124FB29004A7E0FEEF8EF08400
:10034E00E5F0600302069090051CE0547FFF124F0B
:10035E00B2EF6003020690900502E0FF124FB2EF7B
:10036E00D39410400302067C900502E0FF124FB2B8
:10037E00EFC39407500302067C9002EFE094025004
:10038E000302049B900505E0FF124FB2AC07E41286
:10039E001C0AE4FBFA79707842121AD9C004C0051F
:1003AE00C006C007900502E0FF124FB2AC07E41280
:1003BE001C0AD003D002D001D0001218DFE4FBFAE1
:1003CE0079E078C01218DFE4FBFA797078421219DE
:1003DE00D0C004C005C006C0079004A7E0FCE4121C
:1003EE001C0AA804A905AA06AB07D007D006D0059B
:1003FE00D004121AD9121C3E9004FFEEF0A3EFF0B7
:10040E009004FEE0FF900501E0FD900505E09003ED
:10041E001EF090051CE090031FF0A37401F0A3746E
:10042E0005F0A37414F0A37401F0A37402F0A37486
:10043E00F6F0A37401F0A37403F0A37417F0A37481
:10044E0001F0A37402F0A374F4F0A37401F0A3748A
:10045E0005F0A3740CF0900502E0FB1238C3C00443
:10046E00C005C006C0079004FFE0FEA3E07802C3FB
:10047E0033CE33CED8F9244FF58274043EF583D0B3
:10048E0007D006D005D0041220CB0205DBE4900481
:10049E00FFF0A3F0124AE490050CE0FCA3E0FDA3EC
:1004AE00E0FEA3E0FF9003CD1220CBE49003D1F049
:1004BE007F021242AF7F327E00124E7D90050CE01D
:1004CE00FCA3E0FDA3E0FEA3E02401FFE43EFEE476
:1004DE003DFDE43CFC90050C1220CB900500E004A1
:1004EE00F070069004FFE004F0D3900500E09477DE
:1004FE009004FFE064809480409A900505E0FF121E
:10050E004FB2AC07E4121C0AE4FBFA79707842127F
:10051E001AD9C004C005C006C007900502E0FF123C
:10052E004FB2AC07E4121C0AD003D002D001D000A7
:10053E001218DFE4FBFA79E078C01218DFE4FBFA58
:10054E00797078421219D0C004C005C006C0079059
:10055E0004A7E0FCE4121C0AA804A905AA06AB072E
:10056E00D007D006D005D004121AD9121C3E900422
:10057E00FFEEF0A3EFF09004FFE0FEA3E07802C3DD
:10058E0033CE33CED8F9244FF58274043EF583E092
:10059E00F8A3E0F9A3E0FAA3E0FB900514E0FCA3B6
:1005AE00E0FDA3E0FEA3E0FF1218DB90031712207C
:1005BE00CBE4FF124E199002F6EEF0A3EFF090028C
:1005CE00F6E0FFA3E09002F4CFF0A3EFF09004FE6C
:1005DE00E0900308F0900501E0900309F090050209
:1005EE00E090030AF0900505E090030BF09002F600
:1005FE00E0FEA3E07802CEC313CE13D8F990030C1D
:10060E00F0900514E0FCA3E0FDA3E0FEA3E0FF12D2
:10061E001C3E90030DEFF0FCE4121C0AA804A90581
:10062E00AA06AB07900514E0FCA3E0FDA3E0FEA331
:10063E00E0FF1218DBE4FBFA79C878421219D012E7
:10064E001C3E90030EEFF09002EFE0FEA3E0780266
:10065E00CEC313CE13D8F990030FF09002F4E0FE40
:10066E00A3E07802CEC313CE13D8F9020AC29005C6
:10067E0002E0FF124FB2EFC394115003020D20029D
:10068E000B4B900502E0FF124FB2EFD394104003D4
:10069E00020D20900502E0FF124FB2EFC3940750F7
:1006AE0003020D20900505E0FF124FB2AC07E412D5
:1006BE001C0AE4FBFA79707842121AD9C004C005FC
:1006CE00C006C007900502E0FF124FB2AC07E4125D
:1006DE001C0AD003D002D001D0001218DFE4FBFABE
:1006EE0079E078C01218DFE4FBFA797078421219BB
:1006FE00D0C004C005C006C0079004A7E0FCE412F9
:10070E001C0AA804A905AA06AB07D007D006D00577
:10071E00D004121AD9121C3E9004FFEEF0A3EFF093
:10072E00900505E0900342F090051CE0900343F025
:10073E00A37401F0A37405F0A37414F09004FFE009
:10074E00FEA3E07802C333CE33CED8F9244FF58220
:10075E0074043EF583E0FCA3E0FDA3E0FEA3E0FFFE
:10076E009003471220CB900502E0FB900501E0FDBF
:10077E009004FEE0FF020D1D900505E0FF124FB242
:10078E009004A7E0FEEF8EF084E5F06003020B56B6
:10079E0090051CE0547FFF124FB2EF6003020B5620
:1007AE00900502E0FF124FB2EFD394104003020BFC
:1007BE003A900502E0FF124FB2EFC39407500302C6
:1007CE000B3A9002EFE0940250030208E490050504
:1007DE00E0FF124FB2AC07E4121C0AE4FBFA797088
:1007EE007842121AD9C004C005C006C0079005028F
:1007FE00E0FF124FB2AC07E4121C0AD003D002D0B5
:10080E0001D0001218DFE4FBFA79E078C01218DF8D
:10081E00E4FBFA797078421219D0C004C005C00604
:10082E00C0079004A7E0FCE4121C0AA804A905AABC
:10083E0006AB07D007D006D005D004121AD9121C69
:10084E003E9004FFEEF0A3EFF09004FEE0FF900563
:10085E0001E0FD900505E090031EF090051CE09070
:10086E00031FF0A37401F0A37405F0A37414F0A396
:10087E007401F0A37402F0A374F6F0A37401F0A354
:10088E007403F0A37417F0A37401F0A37402F0A321
:10089E0074F4F0A37401F0A37405F0A3740CF0903B
:1008AE000502E0FB1238C3C004C005C006C00790A5
:1008BE0004FFE0FEA3E07802C333CE33CED8F92492
:1008CE004FF58274043EF583D007D006D005D004D0
:1008DE001220CB020A24E49004FFF0A3F0124AE4A3
:1008EE0090050CE0FCA3E0FDA3E0FEA3E0FF900367
:1008FE00CD1220CBE49003D1F07F021242AF7F32B3
:10090E007E00124E7D90050CE0FCA3E0FDA3E0FE00
:10091E00A3E02401FFE43EFEE43DFDE43CFC900533
:10092E000C1220CB900500E004F070069004FFE05E
:10093E0004F0D3900500E094779004FFE064809477
:10094E0080409A900505E0FF124FB2AC07E4121CEE
:10095E000AE4FBFA79707842121AD9C004C005C0B5
:10096E0006C007900502E0FF124FB2AC07E4121C5E
:10097E000AD003D002D001D0001218DFE4FBFA79BE
:10098E00E078C01218DFE4FBFA797078421219D0C1
:10099E00C004C005C006C0079004A7E0FCE4121C0A
:1009AE000AA804A905AA06AB07D007D006D005D021
:1009BE0004121AD9121C3E9004FFEEF0A3EFF09031
:1009CE0004FFE0FEA3E07802C333CE33CED8F92481
:1009DE004FF58274043EF583E0F8A3E0F9A3E0FA44
:1009EE00A3E0FB900514E0FCA3E0FDA3E0FEA3E072
:1009FE00FF1218DB9003171220CBE4FF124E199052
:100A0E0002F6EEF0A3EFF09002F6E0FFA3E0900204
:100A1E00F4CFF0A3EFF09004FEE0900308F0900501
:100A2E0001E0900309F0900502E090030AF09005B2
:100A3E0005E090030BF09002F6E0FEA3E07802CE04
:100A4E00C313CE13D8F990030CF0900514E0FCA359
:100A5E00E0FDA3E0FEA3E0FF121C3E90030DEFF0BD
:100A6E00FCE4121C0AA804A905AA06AB07900514FB
:100A7E00E0FCA3E0FDA3E0FEA3E0FF1218DBE4FB25
:100A8E00FA79C878421219D0121C3E90030EEFF07C
:100A9E009002EFE0FEA3E07802CEC313CE13D8F996
:100AAE0090030FF09002F4E0FEA3E07802CEC313A1
:100ABE00CE13D8F9900310F0900317E0FCA3E0FDDD
:100ACE00A3E0FEA3E0FF121C3E900311EFF0FCE446
:100ADE00121C0AA804A905AA06AB07900317E0FC8E
:100AEE00A3E0FDA3E0FEA3E0FF1218DBE4FBFA791E
:100AFE00C878421219D0121C3E900312EFF07F32CA
:100B0E007E00124E7D781B7C037D017B017A03797A
:100B1E00087E007F0B121DDC9003267401F0A37477
:100B2E0005F0A3740CF0123C03020D20900502E0B8
:100B3E00FF124FB2EFC394115003020D209002F238
:100B4E00E4F0A304F0020D20900502E0FF124FB274
:100B5E00EFD394104003020D20900502E0FF124FD8
:100B6E00B2EFC394075003020D20900505E0FF126B
:100B7E004FB2AC07E4121C0AE4FBFA797078421209
:100B8E001AD9C004C005C006C007900502E0FF12C6
:100B9E004FB2AC07E4121C0AD003D002D001D00031
:100BAE001218DFE4FBFA79E078C01218DFE4FBFAE2
:100BBE00797078421219D0C004C005C006C00790E3
:100BCE0004A7E0FCE4121C0AA804A905AA06AB07B8
:100BDE00D007D006D005D004121AD9121C3E9004AC
:100BEE00FFEEF0A3EFF09004FFE0FEA3E07802C367
:100BFE0033CE33CED8F9FBAA0624AAF58274043A72
:100C0E00F583E0FCA3E0FDA3E0FEA3E0FF9002F875
:100C1E001220CB744F2BF58274043AF583E0FCA3BB
:100C2E00E0FDA3E0FEA3E0FF9002FC1220CB9004B7
:100C3E00FFE0FEA3E07802C333CE33CED8F9FBAA91
:100C4E000624AEF58274043AF583E0FCA3E0FDA31E
:100C5E00E0FEA3E0FF9003001220CB74532BF5822D
:100C6E0074043AF583E0FCA3E0FDA3E0FEA3E0FFED
:100C7E009003041220CB900505E0FF124FB2AC0793
:100C8E00E4121C0AE4FBFA79707842121AD9C004F5
:100C9E00C005C006C007900502E0FF124FB2AC07B8
:100CAE00E4121C0AD003D002D001D0001218DF903B
:100CBE0003EE1220CB78DE7C037D017B017A027974
:100CCE00F87E007F08121DDC78E67C037D017B0137
:100CDE007A0379007E007F08121DDC1244A890036F
:100CEE00471220CB9004FEE0FF900501E0FD900539
:100CFE0005E0900342F090051CE0900343F0A374CE
:100D0E0001F0A37405F0A37414F0900502E0FB1239
:100D1E000DD8900502E0FF124FB2EFD3941050128F
:100D2E00900502E0FF124FB2EFC394074004D2CDFC
:100D3E008002C2CD900000E0640160030201321215
:100D4E0050F17F017E001250087F43124A4A7F4CB9
:100D5E00124A4A7F45124A4A7F41124A4A7F52122C
:100D6E004A4A7F2E124A4A7F2E124A4A7F46124A1A
:100D7E004A7F4C124A4A7F41124A4A7F53124A4ACC
:100D8E007F48124A4A124AE4124BA07F057E001297
:100D9E004E7D90050C1220D700000000E49000005C
:100DAE00F01250F17F08124D2BE4FF124D2B7F688D
:100DBE00124A4A7F68124A4A7F6D124A4A7F6D1262
:0A0DCE004A4A7F23124A4A0201320A
:06503200D2A27F017E0006
:0E503800EF1FAC0670011E4C60030080F322D7
:024F0E00AD07ED
:104F1000E4FBC2A2ED30E704D2A18002C2A112508C
:0D4F200034125032ED25E0FD0BEBB408E536
:014F2D002261
:104F2E00E4FDD2A1FBED25E0FDC2A212503430A16A
:0F4F3E0004ED4401FD1250320BEBB408E8AF054F
:014F4D002241
:10506E00E4FED2A0EF44A0FF124F0E124F2EC2A0AC
:01507E00220F
:104FC300AA07D2A0ED4420FF124F0EAF02124F0EDC
:084FD300AF02124F0EC2A02232
:0D50CE005395F85396F8D2A0C2A0C2A222BA
:104B310090031BEBF0A3EAF0A3E9F07F0912506E9A
:104B410090031BE0FBA3E0FAA3E0F9EF121E487FFC
:104B51000712506E90031EE0FBA3E0FAA3E0F9EF09
:104B6100121E487F0612506E900321E0FBA3E0FA6B
:104B7100A3E0F9EF121E487F0512506E900324E066
:104B8100FBA3E0FAA3E0F9EF121E487F0412506E76
:0F4B9100900327E0FBA3E0FAA3E0F9EF021E4830
:10507F00EFC4540FFEEF540FFFEE75F00AA42FFF8D
:01508F0022FE
:1049C20012507FAC07AF0512507FEC14B40C0050AC
:1049D200729049E175F003A4C58325F0C583730283
:1049E2004A05024A08024A0D024A12024A17024ABC
:1049F2001C024A21024A26024A2B024A33024A3840
:104A0200024A3D7E0022EF241F8021EF243B801CBE
:104A1200EF245A8017EF24788012EF2497800DEF4D
:104A220024B58008EF24D48003EF24F3FFE433FE9F
:104A320022EF24118008EF24308003EF244EFFE49C
:034A42003401FE3E
:014A4500224E
:10509000759850438E9575D7D875D6FFD2ACD2AFE0
:0150A00022ED
:104DE600900599EBF0A3EAF0A3E9F0900599E0FBB2
:104DF600A3E0FAA3E0F9121E026017900599A3E456
:104E060075F001121EF7A9F0FA121E02FF12000039
:034E160080D9221E
:06000300EFC4540FFF22C0
:05510100EF540FFF2236
:01000A0022D3
:05510600EF2430FF2240
:104FDB001243AAEF75F00A84FEEF75F00A84AFF066
:064FEB00EEC454F04FFF7C
:014FF100229D
:104BFA00E4F5917592FF7F96FE124EF07F03124DF7
:104C0A002B7F1E7E00124EF07F03124D2B124EECAC
:104C1A007F03124D2B124EEC7F02124D2B7F017E29
:104C2A0000124EF07F02124D2B7F08124D2BE4FF2B
:104C3A00124D2B7F0E124D2BE4FF124D2B7F0612C5
:094C4A004D2B7F147E00024EF098
:044A4600E04430FF19
:104A4A009003D6EFF0D2C0C2B2E0FF5480C4131371
:104A5A0013540124FF92B7EF5440C4131354032490
:104A6A00FF92B6E0FF5420C413540724FF92B5EF17
:104A7A005410C4540F24FF92B4D2B37F017E0012A3
:104A8A004EF0C2B39003D6E0FF5408131313541F19
:104A9A0024FF92B7EF54041313543F24FF92B6E055
:104AAA00FF5402C31324FF92B5EF1392B4124EEAD5
:054ABA00C2B3C2C022DE
:104D2B00C2C0C2B2EF5408131313541F6004D2B79E
:104D3B008002C2B7EF54041313543F6004D2B68001
:104D4B0002C2B6EF5402C3136004D2B58002C2B5DF
:104D5B00EF30E004D2B48002C2B4124EEAC2B322E6
:064EEA00D2B37F0A7E0036
:104EF000EF1FAA0670011E4A6013E4FCFDC3ED9487
:0D4F000058EC940250EA0DBD00010C80F049
:014F0D002281
:104F8B00EFC4540F4430FEEF540F443090031BF02A
:0D4F9B00AF06124A4A90031BE0FF024A4A8B
:0A50E700E4FF124D2B7F02024D2B57
:0A50F100E4FF124D2B7F01024D2B4E
:10500800EF64014E70047F0880027F0C124D2BE480
:05501800FF124D2B22E8
:063F14009003CC1220CB4B
:103F1A009003CCE0FCA3E0FDA3E0FEA3E0FF121CAB
:103F2A003E1250469003D4EEF0A3EFF0E4FFFEFDFC
:103F3A00FC9003CCE0F8A3E0F9A3E0FAA3E0FB12BB
:103F4A001B76602640249003D4E0FCA3E0FDEC122B
:103F5A001C05A804A905AA06AB079003CCE0FCA39C
:103F6A00E0FDA3E0FEA3E0FF80359003CCE0FCA3D4
:103F7A00E0FDA3E0FEA3E0FF121BEFC004C005C0F2
:103F8A0006C0079003D4E0FCA3E0FDEC121C05A8D0
:103F9A0004A905AA06AB07D007D006D005D004129B
:103FAA0018DBE4FBFA792078411219D0121C3E90F2
:103FBA0003D3EFF09003D4E0FAA3E0FB7C007D0A80
:103FCA00FFAE02121EC19003D0EDF07C037DE8AF74
:103FDA0003AE02121EC1AB077E007C037DE8121EEF
:103FEA005AC39003D5E09FFF9003D4E09EFE7C0065
:103FFA007D64121E6C9003D2EFF0AF037E007C0347
:10400A007DE8121E5AC39003D5E09FFD9003D4E0C9
:10401A009EFC9003D2E075F064A4FFC3ED9FFFEC11
:10402A0095F0FE7C007D0A121E6C9003D1EFF0E43D
:10403A00FFFEFDFC9003CCE0F8A3E0F9A3E0FAA3AD
:10404A00E0FB121B76400280057F2D124A4A90033C
:10405A00D2124A469003D1124A469003D0124A46D7
:0B406A007F2E124A4A9003D3124A46F0
:014075002228
:10504600D3EF9400EE64809480400122C3E49FFF76
:04505600E49EFE22B4
:102E5D00C102C101C103C104C18042058300004507
:072E6D00058768686D6D73B5
:104F6D00EF1FAA0670011E4A6013E4FCFDC3ED9409
:0D4F7D0058EC940250EA0DBD00010C80F0CC
:014F8A002204
:103A760053801E43801EE58044E1900321F0E0F46C
:103A86007003023C00E58044E1F0E0F47003023B81
:103A9600FD5380DF4380C1E58044E1F0E0F46047F8
:103AA600900321E0FFF4600DA3EFF0E58044E19080
:103AB6000321F080EB900322E02411602424F860B7
:103AC6001824FC600C24FE701E9003237401F08001
:103AD600169003237404F0800E9003237407F0807D
:103AE60006900323740CF05380BF4380A1E5804405
:103AF600E1900321F0E0F46046900321E0FFF460DA
:103B06000DA3EFF0E58044E1900321F080EB9003F4
:103B160022E02411602424F8601824FC600C24FEA2
:103B2600701D9003237402F080159003237405F032
:103B3600800D9003237408F08005E4900323F0536E
:103B4600807F438061E58044E1900321F0E0F460EA
:103B560047900321E0FFF4600DA3EFF0E58044E118
:103B6600900321F080EB900322E02411602424F8D6
:103B7600601824FC600C24FE701E9003237403F06E
:103B860080169003237406F0800E9003237409F0C8
:103B96008006900323740BF05380FE4380E0E5809B
:103BA60044E1900321F0E0F46047900321E0FFF444
:103BB600600DA3EFF0E58044E1900321F080EB90E7
:103BC6000322E02411602424F8601824FC600C24ED
:103BD600FE701E900323740DF08016900323740E5E
:103BE600F0800E900323740FF08006900323741068
:0C3BF600F0900323E0FF227F64227F6434
:013C0200229F
:10316D00900586E0900585F0123A76900586EFF091
:10317D00BF0E03D20122900585E0FFB4640EA3E0DB
:10318D00B40F09300303C20322D20322900586E057
:10319D00FEB41006200203D20222EEB41006300255
:1031AD0003C20222EFB4641FEEB40D1B900000E0C9
:1031BD007002A3E06008E4900000F0A3F0229000FC
:1031CD0000E4F0A304F022900585E064646003023E
:1031DD003431A3E0FF64647003023431900583E061
:1031ED00FCA3E02487F58274053CF583EFF0900590
:1031FD0084E004F07006900583E004F0900583E010
:10320D007004A3E0640560030233D0900583F0A33E
:10321D00F0900587E075F00AA4FFA3E0F97C002F7C
:10322D00FFEC35F0AD07FCA3E075F00AA4FFA3E0B9
:10323D007A002FFFEA35F0FEA3E0640B7036D3ED74
:10324D009418EC64809480502BEF943BEE64809442
:10325D00805021900587E0C454F0FFE94FFF7D06B3
:10326D00124FC3900589E0C454F0FFA3E04FFF7DDA
:10327D0005124FC3900587E075F00AA4FFA3E07C0B
:10328D00002FFEEC35F090031DF0A3CEF0900589D4
:10329D00E075F00AA4FFA3E02FFEEC35F090031FBC
:1032AD00F0A3CEF090058BE0640C600302338590A3
:1032BD00031DE0FEA3E0FFD3940CEE6480948040E8
:1032CD0003023385EF9407EE6480948050517D02A4
:1032DD00121EC1ED4C6016D3900320E0941F900395
:1032ED001FE0648094804003023385806990031D44
:1032FD00E07004A3E064027013D3900320E0941CEB
:10330D0090031FE064809480506E804AD390032018
:10331D00E0941E90031FE064809480505B80379092
:10332D00031DE0FEA3E0FF7C007D02121EC1ED4CEB
:10333D007013D3900320E0941F90031FE0648094DA
:10334D008050358011D3900320E0941E90031FE030
:10335D00648094805022900587E0C454F0FFA3E070
:10336D004FFF7D09124FC3900589E0C454F0FFA3B0
:10337D00E04FFF7D07124FC3900587E0B40918A3F6
:10338D00E0B40913A3E0B4090EA3E0B40909A3E066
:10339D00700590000004F0900000E070261250F1CE
:1033AD007F08124D2BE4FF124D2B7F68124A4A7F86
:1033BD0068124A4A7F6D124A4A7F6D124A4A7F232C
:1033CD00124A4AE490031BF0A3F0900583E0FEA39C
:1033DD00E0FFC390031CE09FEE6480F890031BE0B8
:1033ED00648098503FEF9404EE6480948050257F64
:1033FD0008124D2B90031BA3E0FF124D2B90031BC6
:10340D00E0FEA3E02487F58274053EF583E04430A9
:10341D00FF124A4A90031CE004F070AE90031BE0CB
:04342D0004F080A681
:013431002278
:0C50DB00759300759400E4F594F59322A1
:102E74006028006B43340000433E000043480000D8
:102E840043520000435C00004366000043700000AE
:102E9400437A00004382000043870000602800005A
:102EA40043340000432A000043200000431600007E
:102EB400430C00004302000042F0000042DC00002A
:102EC40042C8000042B400006258009342EFA3D706
:102ED40042EF385242EDB33342ECC28F42EAE1484A
:102EE40042E8385242E03D7142D170A4429B75C31E
:102EF40042BEA8F642D5F0A442D5C7AE42D433337D
:102F040042D08F5C42CAD70A42C1F5C342B2947B15
:102F14004290051F41F428F6C2AC4CCD42BD051FBA
:102F240042BC2E1442B9385242B3947B42AB947BD8
:102F3400429C4CCD428338524221F5C3C17051ECBE
:102F4400C2DB385242A3E66642A2BD71429E3D7185
:102F5400429675C3428ADC29426BD70A422B33332B
:102F64004143851FC22FAE14C2EEF5C3428A6B855E
:102F74004288A8F642834CCD42728F5C4252CCCD3B
:102F84004221E14841AA51ECC130F5C3C27B28F685
:102F9400C2F9947B425D47AE425A1EB8424E3D711F
:102FA4004237D70A4214666641B95C293FF851ECAE
:102FB400C1F228F6C2959EB8C2FC28F64227EB85DA
:102FC4004223B8524216333341FBD70A41A628F6AE
:102FD40040CE6666C1770A3DC235147BC2A733333F
:102FE400C2FECCCD41E28F5C41D7EB8541B9851F50
:102FF40041830A3D40C1999AC112E148C1F370A4CA
:10300400C265D70AC2B6199AC2FFA8F64161999A55
:10301400414E147B410CCCCD00000000C107AE141E
:10302400C1BC28F6C22C147BC2884CCDC2C1CCCD05
:10303400C2FEAE140000000000000000C0B8000092
:10304400C142E148C1B55C29C212851FC25AE14898
:10305400C299C28FC2CA9EB8C2FF75C3C162B852B8
:10306400C170CCCDC1991EB8C1D2F5C3C210E1481C
:10307400C242E148C282F0A4C2A7C7AEC2D22E1493
:10308400C2FEFAE1C1E1D70AC1EC51ECC204EB85FE
:10309400C21E70A4C240EB85C2705C29C295428FE7
:1030A400C2B5C28FC2D9428FC2FF147BC228851F0A
:1030B400C22C5C29C2397AE1C250A3D7C2716666B8
:1030C400C28D0A3DC2A56148C2C18F5CC2DF947B38
:1030D400C2FF851FC25E147BC261999AC26F28F633
:1030E400C282051FC28F2E14C2A05C29C2B4C7AE0F
:1030F400C2CBD1ECC2E551ECC2FFE666C28A199A92
:10310400C28C47AEC290D1ECC2990F5CC2A4614894
:10311400C2B2947BC2C36148C2D5A3D7C2EA0F5CD2
:10312400C3000F5C603C002F400CCCCD40DCCCCD08
:103134004139999A4182666641A8000041CD999A25
:1031440041F33333420C6666421F3333423200008C
:103154004244CCCD4257999A426A6666427D3333E3
:08316400428800004100280030
:0A4FA8001220CB900343E0547FFF7A
:104FB200EFC4540FFEEF540FFFEE75F00AA42FFF5B
:014FC20022CC
:01510B002281
:104C530090002E30071A7404F07B017A0079291230
:104C630046037F027E00124F6D90002E740680185B
:104C73007405F07B017A0079291246037F027E00D6
:104C8300124F6D90002E7407F07B017A0079291280
:0A4C930046037F027E00124F6D22DF
:084D6B009003E2EEF0A3EFF06B
:104D7300E4A3F0A3F09003E4F0A3F09003E2E0FED9
:104D8300A3E0FFC39003E5E09F9003E4E09E501788
:104D9300A2069207124C539003E5E004F070DC90F6
:074DA30003E4E004F080D4FA
:014DAA0022E6
:064E9B009003DE1220CBA3
:104EA100E4FFFE7DC27C429003DEE0F8A3E0F9A3BB
:104EB100E0FAA3E0FB1219D0121C3EA205920602F1
:024EC1004D6B37
:1036F200E0FCA3E0FDA3E0FEA3E0FF90057B122027
:10370200CB90055BE0FCA3E0FDA3E0FEA3E0FF900D
:10371200057F1220CB90052FE0FCA3E0FDA3E0FE85
:03372200A3E0FF22
:1037250090055F1220CB900573E0FCA3E0FDA3E0BC
:10373500FEA3E0FF900563E0F8A3E0F9A3E0FAA398
:10374500E0FB1219D0900577E0F8A3E0F9A3E0FAC1
:10375500A3E0FB1219D0C004C005C006C007900540
:103765006FE0FCA3E0FDA3E0FEA3E0FF90055FE0B2
:10377500F8A3E0F9A3E0FAA3E0FB1219D090057FC6
:10378500E0F8A3E0F9A3E0FAA3E0FB1219D0D00317
:10379500D002D001D0001218DFC004C005C006C099
:1037A5000790056BE0FCA3E0FDA3E0FEA3E0FF901E
:1037B5000567E0F8A3E0F9A3E0FAA3E0FB1219D04E
:1037C50090057BE0F8A3E0F9A3E0FAA3E0FB12196A
:1037D500D0D003D002D001D0001218DFC004C0053C
:1037E500C006C00790056FE0FCA3E0FDA3E0FEA3C3
:1037F500E0FF900567E0F8A3E0F9A3E0FAA3E0FB9A
:103805001219D0900577E0F8A3E0F9A3E0FAA3E058
:10381500FB1219D0A804A905AA06AB07D007D00644
:10382500D005D0041218DBC004C005C006C007903F
:10383500056BE0FCA3E0FDA3E0FEA3E0FF900563BC
:10384500E0F8A3E0F9A3E0FAA3E0FB1219D0900594
:103855007FE0F8A3E0F9A3E0FAA3E0FB1219D0A8F2
:1038650004A905AA06AB07D007D006D005D00412D7
:1038750018DBC004C005C006C007900573E0FCA3B3
:10388500E0FDA3E0FEA3E0FF90055FE0F8A3E0F90B
:10389500A3E0FAA3E0FB1219D090057BE0F8A3E0C2
:1038A500F9A3E0FAA3E0FB1219D0A804A905AA061A
:0E38B500AB07D007D006D005D0041218DB22D6
:1034320090051F1220CB900537E0FCA3E0FDA3E02E
:10344200FEA3E0FF9005631220CB90053BE0FCA3B6
:10345200E0FDA3E0FEA3E0FF9005671220CB9005FC
:103462003FE0FCA3E0FDA3E0FEA3E0FF90056B12AA
:1034720020CB900547E0FCA3E0FDA3E0FEA3E0FF24
:1034820090056F1220CB90054BE0FCA3E0FDA3E07A
:10349200FEA3E0FF9005731220CB90054FE0FCA342
:1034A200E0FDA3E0FEA3E0FF9005771220CB90059C
:1034B200571236F2900523E0F8A3E0F9A3E0FAA34D
:1034C200E0FB1219D0C004C005C006C00790053742
:1034D200E0FCA3E0FDA3E0FEA3E0FF900563122061
:1034E200CB90053BE0FCA3E0FDA3E0FEA3E0FF9050
:1034F20005671220CB900543E0FCA3E0FDA3E0FEAC
:10350200A3E0FF90056B1220CB900547E0FCA3E0FF
:10351200FDA3E0FEA3E0FF90056F1220CB90054BC8
:10352200E0FCA3E0FDA3E0FEA3E0FF900573122000
:10353200CB900553E0FCA3E0FDA3E0FEA3E0FF90E7
:1035420005771220CB900557E0FCA3E0FDA3E0FE37
:10355200A3E0FF90057B1220CB90055BE0FCA3E08B
:10356200FDA3E0FEA3E0FF90057F1220CB90053380
:1035720012371A90051FE0F8A3E0F9A3E0FAA3E0DE
:10358200FB1219D0D003D002D001D0001218DBC038
:1035920004C005C006C007900533E0FCA3E0FDA30C
:1035A200E0FEA3E0FF9005631220CB90053BE0FC18
:1035B200A3E0FDA3E0FEA3E0FF9005671220CB90FD
:1035C200053FE0FCA3E0FDA3E0FEA3E0FF90056B56
:1035D2001220CB900543E0FCA3E0FDA3E0FEA3E0B4
:1035E200FF90056F1220CB90054BE0FCA3E0FDA3FA
:1035F200E0FEA3E0FF9005731220CB90054FE0FCA4
:10360200A3E0FDA3E0FEA3E0FF9005771220CB909C
:1036120005531236F2900527E0F8A3E0F9A3E0FA89
:10362200A3E0FB1219D0D003D002D001D0001218AF
:10363200DFC004C005C006C007900533E0FCA3E06C
:10364200FDA3E0FEA3E0FF9005631220CB900537B7
:10365200E0FCA3E0FDA3E0FEA3E0FF9005671220DB
:10366200CB90053FE0FCA3E0FDA3E0FEA3E0FF90CA
:10367200056B1220CB900543E0FCA3E0FDA3E0FE26
:10368200A3E0FF90056F1220CB900547E0FCA3E07A
:10369200FDA3E0FEA3E0FF9005731220CB90054F3F
:1036A200E0FCA3E0FDA3E0FEA3E0FF90057712207B
:1036B200CB900553E0FCA3E0FDA3E0FEA3E0FF9066
:1036C200057B1220CB90055712370690052BE0F8A8
:1036D200A3E0F9A3E0FAA3E0FB1219D0A804A9051C
:1036E200AA06AB07D007D006D005D0041218DB22F9
:1044850078E67C037D017B017E007F08121DDC90B0
:10449500039DE0FCA3E0FDA3E0FEA3E0FF9003EE97
:0344A5001220CB17
:1044A8009003EEE0F8A3E0F9A3E0FAA3E0FB9003A1
:1044B800DEE0FCA3E0FDA3E0FEA3E0FF1218DB12A0
:1044C8001BEFC004C005C006C0079003E6E0F8A3D0
:1044D800E0F9A3E0FAA3E0FB9003DEE0FCA3E0FD33
:1044E800A3E0FEA3E0FF1218DBA804A905AA06AB07
:1044F80007D007D006D005D004121AD9C004C005C9
:10450800C006C0079003EAE0F8A3E0F9A3E0FAA325
:10451800E0FB9003E2E0FCA3E0FDA3E0FEA3E0FFE4
:104528001218DBD003D002D001D0001219D09003AA
:0F453800E2E0F8A3E0F9A3E0FAA3E0FB1218DF3A
:014547002251
:090DD800900341EBF0AA05A90704
:100DE100E490034DF0A3F0A3F0A3F0A31220D700E9
:100DF1000000009003551220D70000000090035915
:100E01001220D7000000009003A91220D7C0A00033
:100E1100009003D31220D7C2932E149003D712202F
:100E2100D742360A3D9003C17407F0A374E3F0AFD3
:100E310001124FB2A3E4F0A3EFF0AF02124FB2A33D
:100E4100E4F0A3EFF0900341E0FF124FB2EF24056D
:100E5100FDE433FCE4121C059003C71220CB900380
:100E610042E0FF124FB2AC07E4121C0A9003CB120E
:100E71004FA8AC07E4121C0A9003CF1220CB9003B9
:100E810044E0FBA3E0FAA3E0F9121FE5900351123D
:100E910020CB78DE7C037D017B017A0379C17E0062
:100EA1007F12121DDC78F07C037D017B017A0379CE
:100EB100D37E007F08121DDC9003F87401F0A37447
:100EC10003F0A374DBF012228EE4FBFA7934784349
:100ED1001219D07BD07A0F79497840121AD9900330
:100EE100AD1220CB9003C6E024AFFF9003C5E034E0
:100EF100FFFE7C017D68121E5A7D6D121EC1EF2519
:100F0100E0FDEE33FC121C057BD07A0F7949784065
:100F11001219D0E4FBFA79347843121AD9123DEA56
:100F21007B857AEB791D78411219D0C004C005C0C8
:100F310006C007E4FFFE7D707C419003A9E0F8A3A1
:100F4100E0F9A3E0FAA3E0FB1219D0A804A905AACD
:100F510006AB079003D3E0FCA3E0FDA3E0FEA3E012
:100F6100FF1218DBE4FBFA798078401219D0D00324
:100F7100D002D001D0001218DFC004C005C006C0E5
:100F8100079003C6E024AFFF9003C5E034FFFE7C69
:100F9100017D68121E5A7D6D121EC1AC06AD07ECB3
:100FA100121C057BD07A0F794978401219D0E4FBE5
:100FB100FA79347843121AD9123DD47BC37AF57980
:100FC100F078401219D0A804A905AA06AB07D007EA
:100FD100D006D005D0041218DBC004C005C006C07D
:100FE100079003C6E024AFFF9003C5E034FFFE7C09
:100FF100017D68121E5A7D6D121EC1AC06AD07EC53
:10100100121C057BD07A0F794978401219D0E4FB84
:10101100FA79347843121AD9123DEAE4FBFA79C01D
:10102100783F1219D0A804A905AA06AB07D007D0AA
:1010310006D005D0041218DBE4FBFA79707842126D
:101041001AD99003A51220CB900342E0FF124FB2B0
:10105100AC07E4121C0AE4FBFA79707842121AD93F
:10106100C004C005C006C007900341E0FF124FB2A3
:10107100AC07E4121C0AD003D002D001D000121830
:10108100DF9003A5E0F8A3E0F9A3E0FAA3E0FB12E7
:1010910018DF9003991220CB7FD07E0F7D497C40D1
:1010A1009003ADE0F8A3E0F9A3E0FAA3E0FB121985
:1010B100D0E4FBFA79347843121AD9123DD4C00432
:1010C100C005C006C0077FD07E0F7D497C409003DC
:1010D100D7E0F8A3E0F9A3E0FAA3E0FB1219D0E40A
:1010E100FBFA79347843121AD9123DD4D003D002D5
:1010F100D001D0001219D0C004C005C006C007E459
:10110100FFFE7D407CC1900399E0F8A3E0F9A3E0E4
:10111100FAA3E0FB1218DF7BD37A7E793C78421286
:1011210019D0E4FBFA79347843121AD9123DD4D09C
:1011310003D002D001D0001219D0C004C005C006EE
:10114100C0077FD07E0F7D497C409003ADE0F8A3BE
:10115100E0F9A3E0FAA3E0FB1219D0E4FBFA793439
:101161007843121AD9123DEAC004C005C006C0076F
:101171007FD07E0F7D497C409003D7E0F8A3E0F952
:10118100A3E0FAA3E0FB1219D0E4FBFA7934784327
:10119100121AD9123DEAD003D002D001D00012199F
:1011A100D0D003D002D001D0001218DF124DAB7B9A
:1011B100ED7A2E796578421219D09003A11220CBD5
:1011C100E4FFFE7D407CC1900399E0F8A3E0F9A320
:1011D100E0FAA3E0FB1218DF7BD37A7E793C7842F8
:1011E1001219D0E4FBFA79347843121AD9123DEA84
:1011F100C004C005C006C0077FD07E0F7D497C407A
:101201009003ADE0F8A3E0F9A3E0FAA3E0FB121923
:10121100D0E4FBFA79347843121AD9123DD4D003C1
:10122100D002D001D0001219D0C004C005C006C040
:10123100079003A1E0F8A3E0F9A3E0FAA3E0FBE43F
:10124100FFFE7DB47C421218DB7BD07A0F7949789E
:10125100401219D0E4FBFA79347843121AD9123DBD
:10126100EAA804A905AA06AB07D007D006D005D085
:1012710004121AD9124DAB7BED7A2E7965784212A0
:1012810019D0E4FBFA793478431218DF90039D12E8
:101291004FA8EF30E0030218D77FCD7ECC7D0C7CC8
:1012A100409003A1E0F8A3E0F9A3E0FAA3E0FB1268
:1012B1001B7650030218D7E4FFFE7D887C42900321
:1012C100A1E0F8A3E0F9A3E0FAA3E0FB121B76602A
:1012D1000540030218D7E490034DF0A3F090034DAD
:1012E100E0FEA3E0FFC3940AEE9400400302164B14
:1012F100EF7802C333CE33CED8F9246FF582740070
:101301003EF583E0FCA3E0FDA3E0FEA3E0FF900334
:101311009DE0F8A3E0F9A3E0FAA3E0FB121B7660DD
:1013210005400302149490034DE0FEA3E07802C34C
:1013310033CE33CED8F9246BF58274003EF583E0C9
:10134100FCA3E0FDA3E0FEA3E0FF90039DE0F8A372
:10135100E0F9A3E0FAA3E0FB121B76500302149418
:10136100E490034FF0A3F090034DE0FEA3E0780278
:10137100C333CE33CED8F9FBAA06246BF5827400B1
:101381003AF583E0FCA3E0FDA3E0FEA3E0FF9003B8
:10139100B11220CB746F2BF58274003AF583E0FC17
:1013A100A3E0FDA3E0FEA3E0FF9003B91220CB90E0
:1013B100034DE0FEA3E07802C333CE33CED8F9FB70
:1013C100AA0690034FE0FEA3E090009375F0281267
:1013D1002122EE75F028A42583F583E5822BF58281
:1013E100E5833AF583E0FCA3E0FDA3E0FEA3E0FF83
:1013F1009003B51220CB90034FE0FEA3E09000973D
:1014010075F028122122EE75F028A42583F583E5D5
:10141100822BF582E5833AF583E0FCA3E0FDA3E0AE
:10142100FEA3E0FF9003BD1220CB78DE7C037D019B
:101431007B017A0379B17E007F08121DDC7A037982
:10144100B9124485C004C005C006C00790034FE02F
:10145100FEA3E07802C333CE33CED8F9245DF58202
:1014610074033EF583D007D006D005D0041220CBFB
:10147100900350E004F0700690034FE004F0C39035
:101481000350E0940F90034FE0940050030213685F
:1014910002163A90034DE0FEA3E07802C333CE3347
:1014A100CED8F92404F58274003EF583E0FCA3E074
:1014B100FDA3E0FEA3E0FF90039DE0F8A3E0F9A304
:1014C100E0FAA3E0FB121B76500302163A90034D9B
:1014D100E0FEA3E07802C333CE33CED8F92400F581
:1014E1008274003EF583E0FCA3E0FDA3E0FEA3E0EF
:1014F100FF90039DE0F8A3E0F9A3E0FAA3E0FB125B
:101501001B766005400302163AE490034FF0A3F006
:1015110090034DE0FEA3E07802C333CE33CED8F979
:10152100FBAA062400F58274003AF583E0FCA3E0EF
:10153100FDA3E0FEA3E0FF9003B11220CB74042BC6
:10154100F58274003AF583E0FCA3E0FDA3E0FEA37D
:10155100E0FF9003B91220CB90034DE0FEA3E078A9
:1015610002C333CE33CED8F9FBAA0690034FE0FE77
:10157100A3E090009375F028122122EE75F028A4C3
:101581002583F583E5822BF582E5833AF583E0FC3B
:10159100A3E0FDA3E0FEA3E0FF9003B51220CB90F2
:1015A100034FE0FEA3E090009775F028122122EE90
:1015B10075F028A42583F583E5822BF582E5833A2E
:1015C100F583E0FCA3E0FDA3E0FEA3E0FF9003BDF3
:1015D1001220CB78DE7C037D017B017A0379B97E11
:1015E100007F08121DDC7A0379B1124485C004C062
:1015F10005C006C00790034FE0FEA3E07802C333A5
:10160100CE33CED8F9245DF58274033EF583D0073D
:10161100D006D005D0041220CB900350E004F07026
:101621000690034FE004F0C3900350E0940F900341
:101631004FE09400500302151190034EE004F07046
:101641000690034DE004F00212DEE490034DF0A396
:10165100F090034DE0FEA3E0FFC3940FEE94004031
:10166100030217A8EF7802C333CE33CED8F9242F63
:10167100F58274003EF583E0FCA3E0FDA3E0FEA348
:10168100E0FF9003A1E0F8A3E0F9A3E0FAA3E0FBF7
:10169100121B76500302179790034DE0FEA3E078EA
:1016A10002C333CE33CED8F92433F58274003EF52C
:1016B10083E0FCA3E0FDA3E0FEA3E0FF9003A1E033
:1016C100F8A3E0F9A3E0FAA3E0FB121B7660054062
:1016D1000302179790034DE0FEA3E07802C333CED7
:1016E10033CED8F9FBAA06242FF58274003AF5838C
:1016F100E0FCA3E0FDA3E0FEA3E0FF9003B1122014
:10170100CB74332BF58274003AF583E0FCA3E0FD42
:10171100A3E0FEA3E0FF9003B91220CB90034DE0BC
:10172100FEA3E07802C333CE33CED8F9FBAA062458
:101731005DF58274033AF583E0FCA3E0FDA3E0FECE
:10174100A3E0FF9003B51220CB74612BF5827403E3
:101751003AF583E0FCA3E0FDA3E0FEA3E0FF9003E4
:10176100BD1220CB78DE7C037D017B017A0379B148
:101771007E007F08121DDC78E67C037D017B017A07
:101781000379B97E007F08121DDC9003A1124497F2
:101791009003591220CB90034EE004F070069003A1
:1017A1004DE004F0021652E4FFFE7D8E7C42900370
:1017B10059E0F8A3E0F9A3E0FAA3E0FB1218DF90E7
:1017C1000347E0F8A3E0F9A3E0FAA3E0FB1218DF76
:1017D1009003511220CB900344E0FBA3E0FAA3E075
:1017E100F91220AB900351E0FCA3E0FDA3E0FEA3BE
:1017F100E0FF1218DB9003551220CB900355E0FC5B
:10180100A3E0FDA3E0FEA3E0FF121C3E125046AC94
:1018110006AD07EC121C05E4FBFAF9783F121B76C2
:10182100600540030218D7E4FFFE7D707CC1900380
:1018310051E0F8A3E0F9A3E0FAA3E0FB121B765014
:10184100030218D7E4FFFE7D527C43900351E0F878
:10185100A3E0F9A3E0FAA3E0FB121B766002507645
:10186100E4FFFEFDFC900355E0F8A3E0F9A3E0FAE4
:10187100A3E0FB121B7660144012900355E0FCA319
:10188100E0FDA3E0FEA3E0FFD205802BE4FFFEFD17
:10189100FC900355E0F8A3E0F9A3E0FAA3E0FB1202
:1018A1001B765016900355E0FCA3E0FDA3E0FEA3D8
:1018B100E0FF121BEFC205124E9B900351E0FCA307
:1018C100E0FDA3E0FEA3E0FF900344E0FBA3E0FA08
:0618D100A3E0F91220352E
:0118D70022EE
:10228E00E4FBFA797078429003ECE0FCA3E0FDA346
:10229E00E0FEA3E0FF121AD99003E8E0F8A3E0F9FC
:1022AE00A3E0FAA3E0FB1218DFE4FBFA79707842A0
:1022BE00121AD99003E4E0F8A3E0F9A3E0FAA3E040
:1022CE00FB1218DF9003FF1220CB9003E1E024F203
:1022DE00FF9003E0E034FFFE7C007D0C121EC1EE89
:1022EE003395E0FDFC90041F1220CBE47F0CFEFD25
:1022FE00FC90041FE0F8A3E0F9A3E0FAA3E0FB12C0
:10230E001F64A804A905AA06AB079003E1E024FE0A
:10231E00FF9003E0E034FFFE3395E0FDFCC3EF9B3E
:10232E00FFEE9AFEED99FDEC98FCE47B6F7A01F9D5
:10233E00F8121F64E47B0CFAF9F8124CE7C004C0E3
:10234E0005C006C0079003DFE024C0FF9003DEE067
:10235E003412FE3395E0FDFC90041FE0F8A3E0F983
:10236E00A3E0FAA3E02FFFEA3EFEE93DFDE83CFCC8
:10237E00E47BB57A05F9F8121F64E47B04FAF9F8E8
:10238E00124CE7D003D002D001D000EF2BFFEE3A73
:10239E00FEED39FDEC38FCC004C005C006C0079048
:1023AE0003DFE02424FF9003DEE03413FE3395E0D8
:1023BE00FDFC90041FE0F8A3E0F9A3E0FAA3E02FE0
:1023CE00FFEA3EFEE93DFDE83CFCE47B64FAF9F8E9
:1023DE00124CE7E47B03FAF9F8121F64E47B04FA6B
:1023EE00F9F8124CE7A804A905AA06AB07D007D046
:1023FE0006D005D004C3EF9BFBEE9AFAED99F9ECEB
:10240E0098F89003E2E0FEA3E0FFEE3395E0FDFCCA
:10241E00EB2FFFEA3EFEE93DFDE83CFCEF24B5FF65
:10242E00EE3482FEED34FFFDEC34FFFC90042312FB
:10243E0020CB900423E0FCA3E0FDA3E0FEA3E0FF8D
:10244E00EC121C00E4FBFAF978BF1218DFC004C0CE
:10245E0005C006C007E4FBFA79C078419003FFE09F
:10246E00FCA3E0FDA3E0FEA3E0FF121AD9D003D037
:10247E0002D001D0001218DF90041B1220CB7F6413
:10248E007EA17D157CCA90041BE0F8A3E0F9A3E0C1
:0D249E00FAA3E0FB1218DF9003FB1220CB25
:1024AB007F787E3E7D887C3A9003FBE0F8A3E0F9D1
:1024BB00A3E0FAA3E0FB1219D0A804A905AA06AB66
:1024CB00077F467E257D097C401218DB9004231282
:1024DB0020CB7FDE7EEC7D8C7C3C9003FBE0F8A375
:1024EB00E0F9A3E0FAA3E0FB1219D07B5B7AA479A5
:1024FB009C78401218DF90041B1220CB7F257EEBBB
:10250B007D8C7C3C9003FBE0F8A3E0F9A3E0FAA3FD
:10251B00E0FB1219D07B927AAE79C778401218DFA4
:10252B0090041F1220CB90041FE0FCA3E0FDA3E05E
:10253B00FEA3E0FF123DEA7B4A7ADF7908783D1271
:10254B0019D090041BE0F8A3E0F9A3E0FAA3E0FB99
:10255B001218DFC004C005C006C007E4FFFEFD7CF7
:10256B004090041FE0F8A3E0F9A3E0FAA3E0FB120C
:10257B0019D0123DEA7BEF7AF179B678391219D07E
:10258B00D003D002D001D0001218DF7B297AD17989
:10259B00ED78B81218DFC004C005C006C007900460
:1025AB0023E0FCA3E0FDA3E0FEA3E0FF123DEA7BEA
:1025BB00EB7A4979AA78371219D0A804A905AA068B
:1025CB00AB07D007D006D005D0041218DB9004035C
:1025DB001220CB900423E0FCA3E0FDA3E0FEA3E0DC
:1025EB00FF123DD47B2D7A18792678381219D0C07A
:1025FB0004C005C006C0077FEC7E827DD57C319080
:10260B0003FBE0F8A3E0F9A3E0FAA3E0FB1219D077
:10261B00A804A905AA06AB077F9D7E747DD17C3EDD
:10262B001218DBD003D002D001D0001218DF9004B7
:04263B00071220CB97
:10263F00900403E0FCA3E0FDA3E0FEA3E0FF123D46
:10264F00EA90041B1220CB900407E0FCA3E0FDA34B
:10265F00E0FEA3E0FF123DD490041BE0F8A3E0F9E5
:10266F00A3E0FAA3E0FB1219D09004131220CB9031
:10267F000403E0FCA3E0FDA3E0FEA3E0FF123DD4C2
:10268F009004171220CB900417E0FCA3E0FDA3E009
:10269F00FEA3E0FF90043F1220CB900413E0FCA3B5
:1026AF00E0FDA3E0FEA3E0FF1247FD90040B122014
:1026BF00CBE4FFFEFDFC90040BE0F8A3E0F9A3E0F0
:1026CF00FAA3E0FB121B76501F90040BE0FCA3E073
:1026DF00FDA3E0FEA3E0FF7BD07A0F79C97840120B
:1026EF0018DF90040B1220CB900407E0FCA3E0FD51
:1026FF00A3E0FEA3E0FF123DEA90041BE0F8A3E085
:10270F00F9A3E0FAA3E0FB1219D0124DAB90040F1E
:03271F001220CBBA
:102722007FE07E927D867C3D9003FBE0F8A3E0F99A
:10273200A3E0FAA3E0FB1219D07B4D7A5179D67847
:10274200401218DF9003FFE0F8A3E0F9A3E0FAA338
:10275200E0FB1218DF90041B1220CBE4FFFE7D7019
:102762007C4190041BE0F8A3E0F9A3E0FAA3E0FBAC
:102772001219D09003F0E0F8A3E0F9A3E0FAA3E085
:10278200FB1218DF7B2E7AFA798E783C1219D090E0
:10279200041F1220CB90040BE0F8A3E0F9A3E0FAA7
:1027A200A3E0FB90041FE0FCA3E0FDA3E0FEA3E096
:1027B200FF1218DB9004271220CB7F2E7EFA7D8E2B
:1027C2007C3C9003F4E0F8A3E0F9A3E0FAA3E0FB79
:1027D2001219D09004231220CB900423E0FCA3E032
:1027E200FDA3E0FEA3E0FF123DD490042B1220CB08
:1027F200900423E0FCA3E0FDA3E0FEA3E0FF123D72
:10280200EA90042F1220CB900427E0FCA3E0FDA362
:10281200E0FEA3E0FF123DD49004331220CB9004DB
:102822000FE0FCA3E0FDA3E0FEA3E0FF123DD4C055
:1028320004C005C006C007900433E0FCA3E0FDA37A
:10284200E0FEA3E0FF90042BE0F8A3E0F9A3E0FA96
:10285200A3E0FB1219D0D003D002D001D00012198C
:10286200D0C004C005C006C00790040FE0FCA3E07E
:10287200FDA3E0FEA3E0FF123DEA90042FE0F8A3DF
:10288200E0F9A3E0FAA3E0FB1219D0D003D002D002
:1028920001D0001218DF124C9D9003F8E0FBA3E078
:1028A200FAA3E0F9122035900427E0FCA3E0FDA38F
:1028B200E0FEA3E0FF123DEA121BEF900413122088
:1028C200CB90040FE0FCA3E0FDA3E0FEA3E0FF1227
:1028D2003E2690042BE0F8A3E0F9A3E0FAA3E0FB84
:1028E2001219D0C004C005C006C007900433E0FC32
:1028F200A3E0FDA3E0FEA3E0FF90042FE0F8A3E035
:10290200F9A3E0FAA3E0FB1219D0A804A905AA06CC
:10291200AB07D007D006D005D0041218DB900417FD
:102922001220CB900417E0FCA3E0FDA3E0FEA3E09D
:10293200FF90043F1220CB900413E0FCA3E0FDA320
:10294200E0FEA3E0FF1247FD9003F8E0FBA3E0FAEC
:10295200A3E0F990000412204F900004122005E435
:10296200FBFAF9F8121B76602F402D9003F8E0FB7A
:10297200A3E0FAA3E02404F9E43AFAC003C002C0D7
:1029820001121FE57BD07A0F79C978401218DFD087
:1029920001D002D0031220359003F8E0FBA3E0FA45
:1029A200A3E02404F9E43AFAC003C002C001121FF2
:1029B200E57B2E7AFA798E783C121AD9D001D002B0
:1029C200D0031220359003F8E0FBA3E0FAA3E0F96C
:1029D200121FE5123DEA7B0D7AA07932783812197E
:1029E200D09004371220CB9003F8E0FBA3E0FAA3C7
:1029F200E0F9121FE5900437E0F8A3E0F9A3E0FA4A
:102A0200A3E0FB1218DF7B2E7AFA798E783C121A39
:0F2A1200D99003F8E0FBA3E0FAA3E0F912203516
:0E2A210090040FE0FCA3E0FDA3E0FEA3E0FFA5
:012A2F002284
:104F4E00C2A4C2A5C2A64391015392FEE4F59743B3
:0F4F5E009D05F5BDF5BE75BC807F02FE024EF0CD
:104E1900EF4488F5BC00000000E5BC30E4FB53BC5E
:104E2900EFAFBD7E00ADBE7C00EF7802C333CE3359
:0B4E3900CED8F9FFED5403FDEF4DFF54
:014E4400224B
:10454800E4900355F0A3F0900353F0A3F0900355C3
:10455800A3E0FF124E19AC06AD07900354E025E026
:10456800FF900353E033FE743F2FF58274033EF54A
:1045780083ECF0A3EDF0900354E004F07006900390
:1045880053E004F0C3900354E0940A900353E064AA
:1045980080948040B8900353E4F0A304F090035350
:1045A800E0FEA3E0FFD39409EE648094805047EFC7
:1045B80025E0FFEE33FE743F2FF58274033EF5834A
:1045C800E0FEA3E0FF90033FE0FCA3E0FDC3EF9D06
:1045D800FFEE9CFE125046D3EF941EEE648094804A
:1045E8004004E4FEFF22900354E004F070AF90030F
:0A45F80053E004F080A77E007F016D
:014602002295
:0B2A300090033FEBF0A3EAF0A3E9F0F5
:102A3B00E490034BF0A31220D73F000000E4900377
:102A4B00CAF0A3F09003CAE0FEA3E0FFC3943CEEF0
:102A5B00648094805025EF25E0FFEE33FE74502FF9
:102A6B00F58274033EF583E4F0A3F09003CBE0040E
:102A7B00F070D19003CAE004F080C9E49003CAF06F
:102A8B00A3F090034CE0FCA3E0FDA3E0FEA3E0FF6A
:102A9B00D205124E9B90033FE0FBA3E0FAA3E0F9B3
:102AAB00C003C002C001121FE5E4FBFAF9783F1224
:102ABB0018DFD001D002D00312203590034BE0FF7A
:102ACB00124E19AC06AD079003CAE0FAA3E0FB2542
:102ADB00E0FFEA33FE74502FF58274033EF583EC6E
:102AEB00F0A3EDF07C007D02AF03AE02121EC1ED30
:102AFB004C6003022CA0124AE47F02124E19EF78AD
:102B0B0002CEC313CE13D8F99003D1F0900348E053
:102B1B00FBA3E0FAA3E0F9121FE59003CD1220CB43
:102B2B007F021242AF7F327E00124E7D900348E04F
:102B3B00FBA3E0FAA3E0F9121FE5EF2401FFE43E4B
:102B4B00FEE43DFDE43CFC122035124AE4900348C0
:102B5B00E0FBA3E0FAA3E0F9121FE59003CD1220EE
:102B6B00CB9003CBE025E0FF9003CAE033FE74501B
:102B7B002FF58274033EF583E0FEA3E07802CEC30B
:102B8B0013CE13D8F99003D1F07F021242AF7F32EC
:102B9B007E00124E7D900348E0FBA3E0FAA3E0F920
:102BAB00121FE5EF2401FFE43EFEE43DFDE43CFC97
:102BBB00122035124AE4900348E0FBA3E0FAA3E0AD
:102BCB00F9121FE59003CD1220CB90033FE0FBA33E
:102BDB00E0FAA3E0F9121FE5121C3E9003D1EFF0CF
:102BEB007F021242AF7F327E00124E7D900348E08F
:102BFB00FBA3E0FAA3E0F9121FE5EF2401FFE43E8B
:102C0B00FEE43DFDE43CFC122035124AE4900348FF
:102C1B00E0FBA3E0FAA3E0F9121FE59003CD12202D
:102C2B00CB90033FE0FBA3E0FAA3E0F9121FE51200
:102C3B001C3EAC07EC121C0AC004C005C006C00742
:102C4B0090033FE0FBA3E0FAA3E0F9121FE5D003EA
:102C5B00D002D001D0001218DBE4FBFA79C878421D
:102C6B001219D0121C3E9003D1EFF07F021242AF2B
:102C7B007F327E00124E7D900348E0FBA3E0FAA367
:102C8B00E0F9121FE5EF2401FFE43EFEE43DFDE415
:102C9B003CFC1220357F08124D2B7F05124D2B7FEC
:102CAB0041124A4A7F44124A4A7F43124A4A7F3AA8
:102CBB00124A4A9003CBE025E0FF9003CAE033FEB3
:102CCB0074502FF58274033EF583E0FCA3E0FDE422
:102CDB00121C05E4FBFA79807844121AD9E4FBFA4A
:102CEB0079A078401219D0123F147F56124A4A7FAE
:102CFB0010124A4A7FDC7E05124EF09003CBE004A3
:102D0B00F070069003CAE004F0C39003CBE0943C50
:102D1B009003CAE0648094805003022A8D9003CA0A
:102D2B00E07004A3E0643C6003022E177B017A037E
:102D3B00795012489A9003C8EEF0A3EFF0E025E02B
:102D4B00FF9003C8E033FE74502FF58274033EF5F9
:102D5B0083E0F9A3E0FF900342E0FBA3E0FAA3E0DA
:102D6B00C98FF0121F4590038AE0F9A3E0FF90038F
:102D7B0045E0FBA3E0FAA3E0C98FF0121F459003D7
:102D8B00C8E0FEA3E0FFC3743B9FFDE49EFCE4128E
:102D9B001C0590034CE0F8A3E0F9A3E0FAA3E0FBD9
:102DAB001219D0C205124E9B90033FE0FBA3E0FA31
:102DBB00A3E0F9C003C002C001121FE5C004C005A7
:102DCB00C006C0079003C8E0FEA3E0FFC3743B9F9F
:102DDB00FDE49EFCE4121C0590034CE0F8A3E0F923
:102DEB00A3E0FAA3E0FB1219D0A804A905AA06AB2D
:102DFB0007D007D006D005D0041218DBD001D002C3
:0C2E0B00D0031220357FF47E01124EF03F
:012E17002298
:10489A00E4FDFC9003CCF0A3741DF0E4A3F0A3F0B4
:1048AA009003CEE0FEA3E0FFD3943BEE9400507356
:1048BA00EF25E0FFEE338F82F583121F0DFFD3ED54
:1048CA009FEC95F04006AE04AF0580169003CFE04A
:1048DA0025E0FF9003CEE0338F82F583121F0DFF90
:1048EA00AEF0AC06AD079003CFE025E0FF9003CE13
:1048FA00E0338F82F583121F0DB50516ECB5F01261
:10490A004D600F9003CEE0FFA3E09003CCCFF0A35D
:10491A00EFF09003CFE004F070869003CEE004F04D
:0B492A000248AA9003CCE0FEA3E0FFCF
:01493500225F
:0B38C30090031BEFF0A3EDF0A3EBF06F
:1038CE0090032F1220D700000000E4900333F0A3E2
:1038DE00F0A3F0A3F090032CE0FBA3E0FAA3E0F931
:1038EE00121FE59003371220CB900320E0FBA3E0DC
:1038FE00FAA3E0F9121FE590033B1220CB900323AD
:10390E00E0FBA3E0FAA3E0F9E4F5F0121F45900303
:10391E0029E0FBA3E0FAA3E0F9E4F5F0121F4590CD
:10392E000326E0FBA3E0FAA3E0F912210800000051
:10393E0000124548EF4E7003023A7090031EE0905D
:10394E000342F090031FE0900343F0A37401F0A331
:10395E007403F0A3743BF0A31220D7C17000009043
:10396E00031DE0FB90031CE0FD90031BE0FF120D16
:10397E00D8E4FFFE7D707C4190033BE0F8A3E0F9B4
:10398E00A3E0FAA3E0FB1218DF900326E0FBA3E00E
:10399E00FAA3E0F91220359003427401F0A37403E8
:1039AE00F0A37433F0A37401F0A37403F0A3743581
:1039BE00F0A37401F0A37403F0A37437F07B017AC3
:1039CE0003793B122A30900337E0FCA3E0FDA3E01D
:1039DE00FEA3E0FF90032CE0FBA3E0FAA3E0F912B4
:1039EE002035900333E0F9A3E0FF900323E0FBA31F
:1039FE00E0FAA3E0C98FF0121F45900335E0F9A35A
:103A0E00E0FF900329E0FBA3E0FAA3E0C98FF012D8
:103A1E001F45900326E0FBA3E0FAA3E0F91220ABCA
:103A2E0090033BE0FCA3E0FDA3E0FEA3E0FF121831
:103A3E00DB90032F1220CB90033BE0FCA3E0FDA311
:103A4E00E0FEA3E0FF900320E0FBA3E0FAA3E0F981
:103A5E0012203590032FE0FCA3E0FDA3E0FEA3E0CF
:073A6E00FF22E4FFFEFDFC56
:013A7500222E
:0D4E45007F027E00124E52D2CC7F027E0012
:104E5200EF1FAA0670011E4A6013E4FCFDC3ED9425
:0D4E620009EC940050EA0DBD00010C80F039
:014E6F002220
:01510C002280
:0F50A100D2CCD2C7124E4EC2C7124E4EC2CC2234
:10501D00C2CCC2C7124E4ED2CCC2C77F047E001284
:05502D004E52D2C72223
:104FF200E425E0FBC2CC124E4E30C704EB4401FB69
:05500200124E4CAF034B
:015007002286
:0550FB00124E45C2CC7D
:01510000228C
:0E50B000C2CCD2C7124E45C2CC124E4EC2C761
:0150BE0022CF
:054EC300F9121E1BFFA7
:024EC800A90738
:104ECA00E4FBC2CCE930E704D2C78002C2C7124E63
:0F4EDA004ED2CCE925E0F9124E4E0BEBB408E3B3
:014EE90022A6
:104603009003E6EBF0A3EAF0A3E9F01250A17F01D7
:104613007E00124E527F40124EC8124FF2EF7012BC
:104623009003E6E0FBA3E0FAA3E0F9121E02FF12F7
:104633004EC8124FF2EF70109003E6E0FBA3E0FACE
:10464300A3E0900001124EC3124FF2EF70109003DB
:10465300E6E0FBA3E0FAA3E0900002124EC3124F80
:10466300F2EF70119003E6E0FBA3E0FAA3E0F99008
:104673000003124EC4124FF2EF70119003E6E0FBF9
:10468300A3E0FAA3E0F9900004124EC4124FF2EF34
:1046930070119003E6E0FBA3E0FAA3E0F9900005B4
:0D46A300124EC4124FF2EF700312501D2290
:0D4E70007F057E00124E7DD2C37F057E00BF
:104E7D00EF1FAA0670011E4A6013E4FCFDC3ED94FA
:0D4E8D0004EC940050EA0DBD00010C80F013
:014E9A0022F5
:104BA0007B6053B3F143B407C2C1124E79E4900362
:104BB0001BF0A3F0C2C3124E79EB30E704D2C280DF
:104BC00002C2C2124E70EB25E0FB90031CE004F021
:104BD000700690031BE004F0C390031CE09408905F
:104BE000031BE06480948040CBD2C17F0A7E001218
:094BF0004E7D12475CEF20E0F954
:014BF9002299
:104ABF007F327E00124E7D900326E0FBA3E0FAA327
:104ACF00E0F9121FE5EF2401FFE43EFEE43DFDE4B3
:054ADF003CFC12203533
:104AE4007B06C2C1E49003CCF0A3F0C2C3124E799A
:104AF400EB30E704D2C28002C2C2124E70EB25E052
:104B0400FB9003CDE004F070069003CCE004F0C306
:104B14009003CDE094089003CCE06480948040CB73
:0C4B2400D2C1124E7912475CEF20E0F97C
:014B30002262
:0742A800E09003D1F07F025A
:0242AF00AB075B
:1042B100C2C1124E79E49003D2F0A3F0C2C3124EF0
:1042C10079EB30E704D2C28002C2C2124E70EB25F4
:1042D100E0FB9003D3E004F070069003D2E004F019
:1042E100C39003D3E094089003D2E06480948040AB
:1042F100CBE49003D2F0A3F0C2C3124E799003CD68
:10430100A3E0FDA3A3E4FFFEED5480FDE4FCFBFA72
:104311007980F8C3121FC17004D2C28002C2C212D6
:104321004E709003CDE0FCA3E0FDA3E0FEA3E0FF0F
:104331007801121FD29003CD1220CB9003D3E00459
:10434100F070069003D2E004F0C39003D3E0941818
:104351009003D2E064809480409EE49003D2F0A365
:10436100F0C2C3124E799003D1E030E704D2C2808B
:1043710002C2C2124E709003D1E025E0F09003D347
:10438100E004F070069003D2E004F0C39003D3E0A0
:1043910094089003D2E06480948040C5D2C1124E4B
:0843A1007912475CEF20E0F9FE
:0143A90022F1
:02419800AB0773
:10419A00E4900591F0C2C17F05FE124E7DE4A3F0C2
:1041AA00A3F0C2C3124E79EB30E704D2C28002C236
:1041BA00C2124E70EB25E0FB900593E004F0700606
:1041CA00900592E004F0C3900593E094089005925C
:1041DA00E06480948040CBE4900592F0A3F0C2C3DF
:1041EA00124E7990058DA3E0FDA3A3E4FFFEED54E2
:1041FA0080FDE4FCFBFA7980F8C3121FC17004D277
:10420A00C28002C2C2124E7090058DE0FCA3E0FD8E
:10421A00A3E0FEA3E0FF7801121FD290058D1220C1
:10422A00CB900593E004F07006900592E004F0C389
:10423A00900593E09418900592E064809480409EE3
:10424A007F0A7E00124E7DD2C47F027E00124E7D0E
:10425A00E4900592F0A3F0900591E025E0F0124E6B
:10426A0077C2C3124E7930C404E04401F09005933A
:10427A00E004F07006900592E004F0C3900593E024
:10428A009408900592E06480948040CBD2C1124E8B
:0D429A007912475CEF20E0F9900591E0FFFC
:0142A70022F4
:10475C00E4FB9003D4F0A3F0A3F07905C2C17F056C
:10476C00FE124E7DE49003D5F0A3F0C2C3124E7935
:10477C00E930E704D2C28002C2C2124E70E925E0D1
:10478C00F99003D6E004F070069003D5E004F0C372
:10479C009003D6E094089003D5E06480948040CBDD
:1047AC007F0A7E00124E7DD2C47F027E00124E7DA7
:1047BC00E49003D5F0A3F0EB25E0FB124E77C2C3D7
:1047CC00124E7930C404EB4401FB9003D6E004F0A4
:1047DC0070069003D5E004F0C39003D6E0940890E3
:1047EC0003D5E06480948040CED2C1124E79AF03E1
:0147FC00229A
:103C0300124AE4900326E0FBA3E0FAA3E0F9121FB3
:103C1300E59003CD1220CB90031B1242A8900326FC
:103C2300E0FBA3E0FAA3E0F9121FE5EF2401FFE4B0
:103C33003EFEE43DFDE43CFC1220357F327E001263
:103C43004E7D124AE4900326E0FBA3E0FAA3E0F9D9
:103C5300121FE59003CD1220CB90031C1242A81231
:103C63004ABF900326E0FBA3E0FAA3E0F9121FE5A5
:103C73009003CD1220CB90031D1242A8124ABF908D
:103C83000326E0FBA3E0FAA3E0F9121FE59003CDBE
:103C93001220CB90031E1242A8124ABF900326E0C3
:103CA300FBA3E0FAA3E0F9121FE59003CD1220CBAA
:103CB30090031F1242A8124ABF900326E0FBA3E021
:103CC300FAA3E0F9121FE59003CD1220CB90032055
:103CD3001242A8124ABF900326E0FBA3E0FAA3E036
:103CE300F9121FE59003CD1220CB9003211242A8B5
:103CF300124ABF900326E0FBA3E0FAA3E0F9121FE8
:103D0300E59003CD1220CB9003221242A8124ABFA2
:103D1300900326E0FBA3E0FAA3E0F9121FE590036A
:103D2300CD1220CB9003231242A8124ABF90032640
:103D3300E0FBA3E0FAA3E0F9121FE59003CD122004
:103D4300CB9003241242A8124ABF900326E0FBA3A0
:103D5300E0FAA3E0F9121FE59003CD1220CB900304
:103D6300251242A87F327E00124E7D900326E0FB8F
:103D7300A3E0FAA3E0F9121FE5EF2401FFE43EFEFE
:093D8300E43DFDE43CFC022035A6
:030000000249367C
:0C493600787FE4F6D8FD75812102497DF0
:1018D800021CAAE86480F8E933E83360110460F078
:1018E800ED33EC337009E8FCE9FDEAFEEBFF220476
:1018F80060DED3EB9FEA9EE99DE8C2E78CF0C2F771
:1019080095F0400CE8CCF8E9CDF9EACEFAEBCFFB3C
:10191800121C7585D0F05804700320D5B3E8047004
:10192800075002B2D5021CB492D5EC0460F7E4CC9F
:10193800C0E0C398F8603B94186008400DD0E0FB05
:10194800021C8CE4FBFAC9FC8028E830E406E4C9F0
:10195800FBE4CAFCE830E305E4C9CACBFCE8540759
:101968006010F8C3E913F9EA13FAEB13FBEC13FC64
:10197800D8F130F52FC3E49CFCEF9BFFEE9AFEED07
:1019880099FDD0E0FBEF4E4D4C701222DB03021C98
:10199800B1EC2CFCEF33FFEE33FEED33FDED30E719
:1019A800EB021C8CEF2BFFEE3AFEED39FDD0E0FB8D
:1019B80050130BBB0003021CB4ED13FDEE13FEEF36
:0819C80013FFEC13FC021C8C60
:1019D000EC4D6011E8497017ED33EC3304600DE411
:1019E000FCFFFEFD22E933E8330470F8021CAA1262
:1019F0001C7558046009E4CC248150062850090263
:101A00001CB4284003021CB1C0E0EB4A7044B9800A
:101A100006D0E0FB021CA0EF4E701CBD8008EBFF5F
:101A2000EAFEE9FD80EBE98DF0A4FEE5F0021AB9CB
:101A3000E9CDF9EAFEEBFFEF89F0A4FCE5F0CE89F1
:101A4000F0A42EFFE435F0CD89F0A42DFEE435F0AE
:101A50008067EF4E7005BD80D780C3EF8BF0A4ACDC
:101A6000F0EE8BF0A42CFCE435F0F8EF8AF0A42C17
:101A7000E5F038FCE433CB8DF0A42CFCE5F03BF82A
:101A8000EE8AF0A42CFCE5F038F8E433CF89F0A41A
:101A90002CFCE5F038CF3400CE89F0A42FFFE5F020
:101AA0003EFEE433C98DF0A42EFEE5F039CD8AF078
:101AB000A42FFFE5F03EFEE43DFD33D0E0FB5007F0
:101AC0000BBB000F021CB4EC2CFCEF33FFEE33FE1B
:061AD000ED33FD021C8C49
:101AD600021CB4EC5D046005E859047003021CAAFC
:101AE600121C75580460F6EC4860F2EC7004FDFEBA
:101AF600FF22C860DB2481C85009C39860025006E3
:101B0600021CB19850CAF582E9294B4A7005AB828E
:101B1600021CA075F0007C1A7880C3EF9BEE9AED4C
:101B260099400DC3EF9BFFEE9AFEED99FDE842F05A
:101B3600DC23ACF0D0E0FFD0E0FED0E0FDAB8220AD
:101B4600E7101BEB60BAEC2CFCEF33FFEE33FEED37
:101B560033FD021C8CE803F830E705C0F075F00091
:101B6600EF2FFFEE33FEED33FD40B830E7C280AA1B
:101B760074F8CC6480CCC86480C8F58204604FC316
:101B8600EB9FF5F0EA9E42F0E99D42F0E89C45F0B5
:101B9600603C501DE5825FFFE582D313CB5BCBF43F
:101BA6002B5582FB50280ABA002409B90020088068
:101BB6001DE5825BFBE582D313CF5FCFF4C3132F02
:101BC6005582FF50090EBE00050DBD00010CC3EB8A
:101BD6009FF5F0EA9E42F0E99D42F0E89C45F060F0
:091BE60007CC4820E701B3EC2212
:101BEF00ED33EC33600A047003BD8004ECB2E7FC04
:011BFF0022C3
:101C000075F020800E75F010800575F0087D007E5F
:101C1000007F003392D530D503121FB3EC33401050
:101C2000EF33FFEE33FEED33FDEC33FCD5F0ED2268
:0E1C3000E5F0247EA2D513CC92E7CDCEFF22A4
:101C3E00EDD2E7CD33EC3392D524814006E4FFFE9E
:101C4E00FDFC22FCE4CFCECDCC24E0501174FF80FD
:101C5E00EDC3CC13CCCD13CDCE13CECF13CF04709A
:071C6E00F030D5DE021FB3C8
:1047FD0090043B1220CB90043FE0F8A3E0F9A3E036
:10480D00FAA3E0FB90043BE0FCA3E0FDA3E0FEA3D4
:10481D00E0FF121AD912409690043B1220CB90045F
:10482D003FE030E75990043BE0FCA3E0FDA3E0FE40
:10483D00A3E0FFECC0E0EDC0E0EEC0E0EFC0E0E4CF
:10484D00FFFEFDFC90043BE0F8A3E0F9A3E0FAA322
:10485D00E0FB121B767BDB600250087A0F794978FA
:10486D004080067A0F794978C0D0E0FFD0E0FED0C5
:10487D00E0FDD0E0FC1218DF90043B1220CB900439
:0D488D003BE0FCA3E0FDA3E0FEA3E0FF2262
:103D8C003A70FA83BCAAE9E43E81E0F8BF9DE9E60B
:103D9C003F80000039283C1ABB9969663DA335E386
:103DAC00BF255DE73FC90FDB418DDBCCC44936EE47
:103DBC0045C9913FC5B0F83D3F800000C317F534AD
:103DCC00452FFA73C60AFDDD123E9504A2E1920559
:103DDC001420E015903D8C7404121CBF8030123EF0
:103DEC009530E102B20520E0EBA883A98290043B58
:103DFC001220CB89828883903DA07404121CBF854D
:103E0C0082F090043B12208F85F0821219D0ED4C79
:103E1C006007300504EC6480FC22123E95C0E0A8DB
:103E2C0083A98290043B1220CB89828883903DC465
:103E3C007403121CBF8582F090043B12208F85F016
:103E4C00821219D090043BE0CCF0A3E0CDF0A3E0BB
:103E5C00CEF0A3E0CFF0903DB47403121CBFD0821F
:103E6C008582F090043B12208F85F082E58230E051
:103E7C0007121AD9B2058096EFCBFFEECAFEEDC938
:103E8C00FDECC8FC121AD98085ED33EC547FCC3391
:103E9C00920524605007D0E0D0E0021CAA7B837A04
:103EAC00F97922783E1219D0EDF933ECF8332481EC
:103EBC005011EFFBEEFA121C3E121C00ECB2E7FCA8
:103ECC001218DFED33EC33602F2403F8C313FCED31
:103EDC0092E7FDE82481E4501FECF8EDF9EEFAEFDF
:103EEC00FB121C3EEF04C2E0FCF582121C0AECB281
:103EFC00E7FC1218DFE58203FAED33EC33600714AC
:083F0C0013FCED92E7FDEA222F
:104C9D00ECC0E0F8EDC0E0F9EEC0E0FAEFC0E0FBEB
:104CAD001219D0EC6480FC7B007A007980783F1279
:104CBD0018DF1246B4D0E0FBD0E0FAD0E0F9D0E036
:104CCD00F8C0E0121AD9124096D0E030E70B7840C8
:0A4CDD0079497A0F7BD91218DF2203
:104DAB00ECC0E0F8EDC0E0F9EEC0E0FAEFC0E0FBDC
:104DBB001219D0EC6480FC7B007A007980783F126A
:104DCB0018DF1246B4D0E0CFFBD0E0CEFAD0E0CD66
:0B4DDB00F9D0E0CCF8121AD902409683
:101C7500E9D2E7C933E833F892D5EDD2E7CD33ECB5
:071C850033FC5002B2D5222E
:101C8C00EC30E7100FBF000C0EBE00080DBD0004B9
:101C9C000BEB6014A2D5EB13FCED92E7FD2274FF65
:101CAC00FCFDFEFF22E480F8A2D574FF13FC7D80BE
:031CBC00E480EFD2
:101CBF00C0E0EFFBEEFAEDF9ECF81219D0D0E0F539
:101CCF00F0EFFBEEFAEDF9ECF812207FA3A3A3A33C
:101CDF00E8C0E0E9C0E0EAC0E0EBC0E0C0F01219F4
:101CEF00D012209BA3A3A3A31218DFD0F0D0E0FB48
:0D1CFF00D0E0FAD0E0F9D0E0F8D5F0D42222
:1046B000021CAA22EDA2E7D2E7F9EC3340F260F344
:1046C000B4FF08ED547F70E8021CB4F82481C2E006
:1046D000C0E0F40428FAC313FCED92E7FD90043B1C
:1046E0001220CBEEA2E7E9BA7F02C3133400940094
:1046F000FA75F091A4E5F013F494FE8AF0A433E582
:10470000F033248CD313FDE492E7FE7F007C3F75E9
:104710008302ECC0E0F8EDC0E0F9EEC0E0FAEFC0D3
:10472000E0FB8583F090043B12207385F083121A1E
:10473000D9D0E0FBD0E0FAD0E0F9D0E0F81218DFF1
:10474000ED6480FD30E7011CD583C7ED33CC33F831
:0C475000D0E0A2E71328C313CC13FD2215
:10407600BE1249253E4CCCCDBEAAAAAB3F8000005D
:104086003E7ADBB03EED63383F24BC7D3F490FDB13
:10409600ED33ECC2E7CC339205B4FF13ED547F60E9
:1040A60003021CAA7FDB7E0F7DC97C3F02418BC2C7
:1040B60006C3947F401E7007EDD2E794904015EF3B
:1040C600FBEEFAEDF9ECF87F007E007D807C3F1276
:1040D6001AD9D206ED33EC33248430E705E4C0E088
:1040E600806B04FAEDD2E754F0C333DAFD5407349B
:1040F600002323C0E0CCC0E0F8EDC0E0F9EEC0E05C
:10410600FAEFC0E0FBE4121C0AEC24FEFC90044328
:104116001220CB1219D07B007A007980783F1218D2
:10412600DF900443E0B2E7CCF0A3E0CDF0A3E0CE0D
:10413600F0A3E0CFF0D0E0FBD0E0FAD0E0F9D0E099
:10414600F81218DF90044312208F121AD9900443F4
:104156001220CB9040767403121CBF9004431220A9
:104166008F1219D0D0E0600F2482F582E43440F536
:104176008312209B1218DF30060B7BDB7A0F79C97E
:1041860078BF1218DFED33EC336006ECA20592E738
:02419600FC2209
:1049420002000EE493A3F8E493A34003F68001F27D
:1049520008DFF48029E493A3F85407240CC8C33376
:10496200C4540F4420C8834004F456800146F6DF45
:10497200E4800B0102040810204080902E18E47E8F
:10498200019360BCA3FF543F30E509541FFEE4933A
:10499200A360010ECF54C025E060A840B8E493A301
:1049A200FAE493A3F8E493A3C8C582C8CAC583CA2C
:1049B200F0A3C8C582C8CAC583CADFE9DEE780BEE4
:01316C000062
:101D0C00E709F608DFFA8046E709F208DFFA803EB9
:101D1C0088828C83E709F0A3DFFA8032E309F608A6
:101D2C00DFFA8078E309F208DFFA807088828C830E
:101D3C00E309F0A3DFFA806489828A83E0A3F608C2
:101D4C00DFFA805889828A83E0A3F208DFFA804C9C
:101D5C0080D280FA80C680D4806980F28033801073
:101D6C0080A680EA809A80A880DA80E280CA8033DC
:101D7C0089828A83ECFAE493A3C8C582C8CCC58354
:101D8C00CCF0A3C8C582C8CCC583CCDFE9DEE78024
:101D9C000D89828A83E493A3F608DFF9ECFAA9F0A3
:101DAC00EDFB2289828A83ECFAE0A3C8C582C8CCF9
:101DBC00C583CCF0A3C8C582C8CCC583CCDFEADE12
:101DCC00E880DB89828A83E493A3F208DFF980CC74
:101DDC0088F0EF60010E4E60C388F0ED2402B4046D
:101DEC000050B9F582EB2402B4040050AF23234514
:061DFC008223901D5C73C0
:101E0200BB010689828A83E0225002E722BBFE02DE
:091E1200E32289828A83E4932211
:101E1B00BB010CE58229F582E5833AF583E022507C
:101E2B0006E92582F8E622BBFE06E92582F8E222C6
:0D1E3B00E58229F582E5833AF583E49322E0
:101E4800BB010689828A83F0225002F722BBFE0179
:021E5800F32273
:101E5A00EF8DF0A4A8F0CF8CF0A428CE8DF0A42E9C
:021E6A00FE2256
:101E6C00BC000BBE0029EF8DF084FFADF022E4CC5A
:101E7C00F875F008EF2FFFEE33FEEC33FCEE9DEC23
:101E8C00984005FCEE9DFE0FD5F0E9E4CEFD22ED69
:101E9C00F8F5F0EE8420D21CFEADF075F008EF2FB3
:101EAC00FFED33FD4007985006D5F0F222C398FDA4
:051EBC000FD5F0EA2241
:101EC100C2D5EC30E709B2D5E4C39DFDE49CFCEE3C
:101ED10030E715B2D5E4C39FFFE49EFE121E6CC32A
:101EE100E49DFDE49CFC8003121E6C30D507C3E425
:061EF1009FFFE49EFE22AB
:101EF700A3F8E0C5F025F0F0E5821582700215839E
:061F0700E0C838F0E822FA
:101F0D00BB0110E58229F582E5833AF583E0F5F012
:101F1D00A3E0225009E92582F886F008E622BBFEEF
:101F2D000AE92582F8E2F5F008E222E5832AF58335
:081F3D00E993F5F0A3E99322FA
:101F4500BB010A89828A83F0E5F0A3F0225006F7E7
:0F1F550009A7F01922BBFE06F3E5F009F31922E4
:101F6400E88FF0A4CC8BF0A42CFCE98EF0A42CFC1C
:101F74008AF0EDA42CFCEA8EF0A4CDA8F08BF0A49A
:101F84002DCC3825F0FDE98FF0A42CCD35F0FCEBF9
:101F94008EF0A4FEA9F0EB8FF0A4CFC5F02ECD39BE
:0F1FA400FEE43CFCEAA42DCE35F0FDE43CFC222B
:104CE700C2D5E830E70FB2D5E4C39BFBE49AFAE4F8
:104CF70099F9E498F8EC30E717B2D5124D1D122157
:104D070080E4C39BFBE49AFAE499F9E498F88003FA
:104D170012218030D50DE4C39FFFE49EFEE49DFD84
:044D2700E49CFC22EA
:0E1FB300C3E49FFFE49EFEE49DFDE49CFC223F
:101FC100EB9FF5F0EA9E42F0E99D42F0E89C45F076
:011FD10022ED
:101FD200E8600FEFC333FFEE33FEED33FDEC33FC6D
:031FE200D8F12211
:101FE500BB010789828A830220735005E9F8022222
:101FF50012BBFE05E9F802221E89828A8302207F30
:10200500BB010DE58229F582E5833AF5830220734C
:102015005007E92582F8022212BBFE07E92582F85E
:1020250002221EE58229F582E5833AF58302207FA7
:10203500BB010789828A830220CB5005E9F8022279
:0A20450044BBFE05E9F80222502218
:10204F00BB010DE58229F582E5833AF5830220CBAA
:10205F005007E92582F8022244BBFE07E92582F8E2
:04206F0002225022D7
:0C207300E0FCA3E0FDA3E0FEA3E0FF22E0
:10207F00E493FC740193FD740293FE740393FF22A7
:0C208F00E0F8A3E0F9A3E0FAA3E0FB22D4
:10209B00E493F8740193F9740293FA740393FB229B
:1020AB00BB010789828A8302208F5005E9F802223F
:1020BB002ABBFE05E9F802223789828A8302209B1C
:0C20CB00ECF0A3EDF0A3EEF0A3EFF02288
:1020D700A8828583F0D083D0821220EE1220EE12E0
:1020E70020EE1220EEE473E493A3C583C5F0C58305
:1020F700C8C582C8F0A3C583C5F0C583C8C582C853
:0121070022B5
:10210800BB010789828A830220D75005E9F8022299
:0A2118005CBBFE05E9F80222752207
:0C212200A42582F582E5F03583F58322C8
:1043AA00900594EBF0A3EAF0A3E9F0900594E0FB02
:1043BA00A3E0FAA3E0F9121E02FF12505A500C9021
:1043CA000595E475F00112212E80E0D2099005943A
:1043DA00E0FBA3E0FAA3E0F9121E02FF642B6004DB
:1043EA00EFB42D1D900594E0FBA3E475F001121EB5
:1043FA00F7A9F0FA121E02642D6003D38001C3925A
:10440A0009E4900597F0A3F0900594E0FBA3E0FA85
:10441A00A3E0F9121E02FF1250BF5042900594E029
:10442A00FBA3E0FAA3E0F9121E02FF3395E0FEEFC8
:10443A0024D0FBEE34FFFA900597E0FEA3E0FF7C60
:10444A00007D0A121E5AEF2BFFEE3A900597F0A351
:10445A00EFF0900595E475F00112212E80AA30093B
:10446A000A900597E0FEA3E0FF800F900597E0FE13
:0B447A00A3E0FFC3E49FFFE49EFE22CE
:10212E00C5F0F8A3E028F0C5F0F8E582158270023C
:06213E001583E038F022D9
:1021440075F008758200EF2FFFEE33FECD33CDCC52
:1021540033CCC58233C5829BED9AEC99E5829840D5
:102164000CF582EE9BFEED9AFDEC99FC0FD5F0D6B2
:10217400E4CEFBE4CDFAE4CCF9A88222B800C1B9DC
:102184000059BA002DEC8BF084CFCECDFCE5F0CB1A
:10219400F97818EF2FFFEE33FEED33FDEC33FCEB53
:1021A40033FB10D703994004EB99FB0FD8E5E4F90E
:1021B400FA227818EF2FFFEE33FEED33FDEC33FCFB
:1021C400C933C910D7059BE99A4007EC9BFCE99AEF
:1021D400F90FD8E0E4C9FAE4CCFB2275F010EF2F34
:1021E400FFEE33FEED33FDCC33CCC833C810D70734
:1021F4009BEC9AE899400AED9BFDEC9AFCE899F86F
:0E2204000FD5F0DAE4CDFBE4CCFAE4C8F92201
:0C221200E6FC08E6FD08E6FE08E6FF22F8
:0C221E00E2FC08E2FD08E2FE08E2FF22FC
:0D222A00E6FB08E6F908E6FA08E6CBF82224
:0D223700E2FB08E2F908E2FA08E2CBF82227
:0C224400ECF608EDF608EEF608EFF622C6
:0C225000ECF208EDF208EEF208EFF222CA
:10225C00D083D082E493F608740193F60874029349
:09226C00F608740393F674047380
:10227500D083D082E493F208740193F20874029338
:09228500F208740393F27404736F
:0F50BF00EFC394304007EF943A50028001C322B0
:10505A00EFC394094005EF940E4004EFB42003D344
:04506A008001C322DC
:00000001FF
