:100026006C00001A000000003F8000004000000045
:10003600404000000000000000000000000000003A
:1000460000000000000000000000000000000000AA
:10005600000000000000000000000000000000009A
:10006600000000000000000000000000000000008A
:10007600000000000000000000000000000000007A
:10032600000000004080000040A0000040C0000027
:1003360040E0000000000000000000000000000097
:1003460000000000000000000000000000000000A7
:100356000000000000000000000000000000000097
:100366000000000000000000000000000000000087
:100376000000000000000000000000000000000077
:1006260000000000410000004110000041200000D1
:100636004130000000000000000000000000000043
:1006460000000000000000000000000000000000A4
:100656000000000000000000000000000000000094
:100666000000000000000000000000000000000084
:100676000000000000000000000000000000000074
:100C2600000000004300106868004300136D6D006B
:100C360042000C0000420C1A000042000E00004464
:100C4600000868686D6D4200000000440004686892
:020C56006D6DC2
:03000B0002000AE6
:01000A0032C3
:10146800E4900C28F0A3F0900C2F1211D8B892D465
:101478007B900C331211D83C356324900C37121131
:10148800D8400CBAC7900C3B1211D8C350947B902B
:101498000C3F1211D8430A0000900C4B1211D8408F
:1014A800000000900C3FE0FCA3E0FDA3E0FEA3E0F9
:1014B800FF1216AD900C33E0F8A3E0F9A3E0FAA30D
:1014C800E0FB120D5EC004C005C006C007900C4BBF
:1014D8001211D840400000900C3FE0FCA3E0FDA3AF
:1014E800E0FEA3E0FF1216AD900C2FE0F8A3E0F9A0
:1014F800A3E0FAA3E0FB120D5ED003D002D001D026
:1015080000120C6DC004C005C006C007900C3FE077
:10151800FCA3E0FDA3E0FEA3E0FF900C37E0F8A3F6
:10152800E0F9A3E0FAA3E0FB120D5ED003D002D0ED
:1015380001D000120C6D900C3BE0F8A3E0F9A3E099
:10154800FAA3E0FB120C6D900C431211CC121F266B
:101558001222B0120003122281122209438E80E463
:10156800F58A758CB8F589D28CD2A9D2AF7D067F61
:10157800121221DA7FF47E011221667D057F121294
:1015880021DA7FF47E011221667F017E0012000EAF
:101598007F68121E427F68121E427F6D121E427FB4
:1015A8006D121E427F23121E42900C43E0FCA3E002
:1015B800FDA3E0FEA3E0FF120E64121E427D017C33
:1015C800007FC87E00121F7A12121F900C29E004B7
:1015D800F07006900C28E004F07F027E0012000EE6
:1015E800900C23E0FF1221A27F3A121E42900C2297
:1015F800E0FF1221A27F3A121E42900C21E0547F94
:10160800FF1221A2900C25E0FF1221A2900C24E0E9
:10161800FF1221A2E4900C28F0A3F07F08FE121B11
:10162800ED900C26EEF0A3EFF0121D211222BD90D2
:101638000C4A7401F0A3740CF0A37424F0A3740191
:10164800F0A3740CF0A37423F0A37401F0A3740C3A
:10165800F0A37422F0A37401F0A3740CF0A3742116
:10166800F07B017A0C7925121EB7900C1AE07002F3
:10167800A3E070030215D0900016E0FF7D0612214A
:10168800DA900017E0FF7D051221DAE4900C1AF0D9
:10169800A3F0900016E0FF1222D1900017E0FF128D
:0516A80022D10215D063
:03002300021B526B
:101B5200C0E0C0F0C083C082C0D075D00830987990
:101B620090000DE004F0700690000CE004F0C298C2
:101B720090000CE0FEA3E0FFD39402EE6480948018
:101B8200500F740F2FF58274003EF583E599F080B3
:101B920048C3EF9403EE64809480403D74102FF5A7
:101BA2008274003EF583E599F0EF64044E702A904A
:101BB200000CF0A3F07B017A0079101221F2900060
:101BC20016EFF07B017A0079131221F2900017EFE1
:101BD200F0900C1AE4F0A304F0309904C299C20206
:0B1BE200D0D0D082D083D0F0D0E03211
:0922D1002002FDD202EFF5992272
:041D2100AB07AA065C
:101D25007C007D0A1210F1900C47EDF07C037DE8F4
:101D3500AF03AE021210F1900C4AEFF07E007C0367
:101D45007DE81210DFC3EB9FFFEA9EFE7C007D64F9
:101D55001210F1900C49EFF0A3E0FF7E007C037DAB
:101D6500E81210DFC3EB9FFDEA9EFC900C49E0757D
:101D7500F064A4FFC3ED9FFFEC95F0FE7C007D0AA7
:101D85001210F1900C48EFF0900C4AE04430FF122D
:101D95001E42900C49E04430FF121E42900C48E070
:101DA5004430FF121E42900C47E04430FF121E42A1
:011DB500220B
:06223500D2A17F017E0032
:0E223B00EF1FAC0670011E4C60030080F32202
:02212600AD0703
:10212800E4FBC2A1ED30E704D2A28002C2A21222CF
:0D21380037122235ED25E0FD0BEBB408E574
:012145002277
:10214600E4FDD2A2FBED25E0FDC2A112223730A2AA
:0F21560004ED4401FD1222350BEBB408E8AF0590
:012165002257
:10227000E4FED2A0EF44A0FF122126122146C2A004
:01228000223B
:1021DA00AA07D2A0ED4420FF122126AF021221261F
:0821EA00AF02122126C2A0225F
:0D22B0005395F85396F8D2A0C2A0C2A12207
:101EB700900C47EBF0A3EAF0A3E9F07F0912227038
:101EC700900C47E0FBA3E0FAA3E0F9EF1210CD7FF7
:101ED70007122270900C4AE0FBA3E0FAA3E0F9EFA7
:101EE7001210CD7F06122270900C4DE0FBA3E0FA92
:101EF700A3E0F9EF1210CD7F05122270900C50E08D
:101F0700FBA3E0FAA3E0F9EF1210CD7F04122270D1
:0F1F1700900C53E0FBA3E0FAA3E0F9EF0210CD2A
:10228100759850438E9575D7D875D6FFD2ACD2AF1D
:01229100222A
:10205600900C5FEBF0A3EAF0A3E9F0900C5FE0FBD5
:10206600A3E0FAA3E0F91210B46017900C5FA3E4A2
:1020760075F00112117CA9F0FA1210B4FF1222D1E8
:0320860080D922DC
:0622DA00EFC4540FFF22C7
:0522EC00EF540FFF227A
:0122F60022C5
:0522F100EF2430FF2284
:1021F200121A77EF75F00A84FEEF75F00A84AFF0D9
:06220200EEC454F04FFF92
:0122080022B3
:101F26007F967E001220E67F031220167F1E7E001B
:101F36001220E67F031220161220E27F03122016DB
:101F46001220E27F021220167F017E001220E67F19
:101F5600021220167F08122016E4FF1220167F0EAA
:101F6600122016E4FF1220167F061220167F147E1A
:041F7600000220E65F
:101E4200900C4DEFF0D291C292E0FF5480C4131374
:101E520013540124FF9297EF5440C41313540324E4
:101E6200FF9296E0FF5420C413540724FF9295EF8B
:101E72005410C4540F24FF9294D2937F017E001217
:101E820020E6C293900C4DE0FF5408131313541F25
:101E920024FF9297EF54041313543F24FF9296E0C9
:101EA200FF5402C31324FF9295EF1392941220E081
:051EB200C293C2912261
:10201600C291C292EF5408131313541F6004D2974F
:102026008002C297EF54041313543F6004D2968083
:1020360002C296EF5402C3136004D2958002C29581
:10204600EF30E004D2948002C2941220E0C29322C0
:0620E000D2937F0A7E008E
:1020E600EF1FAA0670011E4A6013E4FCFDC3ED94BF
:0D20F60058EC940250EA0DBD00010C80F082
:0121030022B9
:1021A200EFC4540F4430FEEF540F4430900C47F00C
:0D21B200AF06121E42900C47E0FF021E42D5
:0A22BD00E4FF1220167F0202201633
:0A22C700E4FF1220167F010220162A
:10000E00EF64014E70047F0880027F0C122016E40C
:05001E00FF1220162274
:0D0C5800420C560000450C5A68686D6D7323
:10216600EF1FAA0670011E4A6013E4FCFDC3ED943E
:0D21760058EC940250EA0DBD00010C80F001
:012183002239
:1018130053801F43801EE58044E1900C4DF0E0F4BB
:10182300700302194B7F0A7E00122166E58044E1B2
:10183300F0E0F470030219485380DF4380C0E58071
:1018430044E1F0E0F46047900C4DE0FFF4600DA339
:10185300EFF0E58044E1900C4DF080EB900C4EE00E
:101863002411602424F8601824FC600C24FE701EEC
:10187300900C4F7401F08016900C4F7404F0800E9E
:10188300900C4F7407F08006900C4F740CF053804B
:10189300BF4380A0E58044E1900C4DF0E0F4604646
:1018A300900C4DE0FFF4600DA3EFF0E58044E19070
:1018B3000C4DF080EB900C4EE02411602424F86072
:1018C3001824FC600C24FE701D900C4F7402F080F1
:1018D30015900C4F7405F0800D900C4F7408F08038
:1018E30005E4900C4FF053807F438060E58044E132
:1018F300900C4DF0E0F46047900C4DE0FFF4600D68
:10190300A3EFF0E58044E1900C4DF080EB900C4E9A
:10191300E02411602424F8601824FC600C24FE7079
:101923001E900C4F7403F08016900C4F7406F080D9
:101933000E900C4F7409F08006900C4F740BF090CE
:0A1943000C4FE0FF227F64227F6456
:01194D002277
:10121F00900C59E0900C58F0121813900C59EFF0F5
:10122F00900C58E064646003021467A3E0FF6464E9
:10123F007003021467900C56E0FCA3E0245AF58269
:10124F00740C3CF583EFF0900C57E004F0700690AF
:10125F000C56E004F0900C56E07004A3E0640560B7
:10126F0003021406900C56F0A3F0900C5AE075F0A0
:10127F000AA4FFA3E0F97C002FFFEC35F0AD07FCCB
:10128F00A3E075F00AA4FFA3E07A002FFFEA35F080
:10129F00FEA3E0640B7036D3ED9418EC6480948059
:1012AF00502BEF943BEE648094805021900C5AE0C9
:1012BF00C454F0FFE94FFF7D061221DA900C5CE079
:1012CF00C454F0FFA3E04FFF7D051221DA900C5AB2
:1012DF00E075F00AA4FFA3E07C002FFEEC35F09040
:1012EF000C49F0A3CEF0900C5CE075F00AA4FFA3BC
:1012FF00E02FFEEC35F0900C4BF0A3CEF0900C5E8F
:10130F00E0640C60030213E0900C49E0FEA3E0FFE1
:10131F00D3940CEE6480948040030213E0EF9407A3
:10132F00EE6480948050517D02121146ED4C601690
:10133F00D3900C4CE0941F900C4BE0648094804051
:10134F00030213E08069900C49E07004A3E064028B
:10135F007013D3900C4CE0941C900C4BE064809471
:10136F0080506E804AD3900C4CE0941E900C4BE052
:10137F0064809480505B8037900C49E0FEA3E0FFBF
:10138F007C007D02121146ED4C7013D3900C4CE093
:10139F00941F900C4BE06480948050358011D39053
:1013AF000C4CE0941E900C4BE06480948050229083
:1013BF000C5AE0C454F0FFA3E04FFF7D091221DA6D
:1013CF00900C5CE0C454F0FFA3E04FFF7D071221A7
:1013DF00DA1222C77F08122016E4FF1220167F6848
:1013EF00121E427F68121E427F6D121E427F6D12C7
:1013FF001E427F23121E42E4900C47F0A3F0900C84
:10140F0056E0FEA3E0FFC3900C48E09FEE6480F827
:10141F00900C47E0648098503FEF9404EE64809402
:10142F008050257F08122016900C47A3E0FF122052
:10143F0016900C47E0FEA3E0245AF582740C3EF59B
:10144F0083E04430FF121E42900C48E004F070AE6F
:08145F00900C47E004F080A6A8
:011467002262
:070003005393015394012205
:10218400EF1FAA0670011E4A6013E4FCFDC3ED9420
:0D21940009EC940050EA0DBD00010C80F034
:0121A100221B
:0D20B5007F027E001220C2D2B27F027E00A8
:1020C200EF1FAA0670011E4A6013E4FCFDC3ED94E3
:0D20D20001EC940050EA0DBD00010C80F0FF
:0120DF0022DE
:0122F70022C4
:10225D00D2B2D2B17F027E00122184C2B11220BE51
:03226D00C2B222D8
:10222000C2B2C2B11220BED2B2C2B17F047E0012CD
:0522300020C2D2B12222
:0521BF007FC0122104A5
:1021C400E425E0FBC2B21220BE30B104EB4401FBB3
:0521D4001220BCAF0366
:0121D90022E3
:0522E0001220B5C2B29E
:0122E50022D6
:0E229200C2B2D2B11220B5C2B21220BEC2B189
:0122A000221B
:1022090053B1F953B2F9E4FBFD7F03121FCD7B8073
:072219007D077F04021FCDC9
:02210400A90729
:10210600E4FBC2B2E930E704D2B18002C2B11220C8
:0F211600BED2B2E925E0F91220BE0BEBB408E30C
:012125002297
:0620890043B10253B2F95D
:10208F00E4F9FBE925E0F9C2B21220BE30B104E950
:10209F004401F91220BCEBB40704C2B2C2B10BEB7E
:0520AF00B408E0AF01E0
:0120B4002209
:101FCD00900C47EFF0A3EDF0A3EBF012225D7F0133
:101FDD007E001220C21221BFEF7008900C47E0FF67
:101FED001221041221C4EF7008900C49E0FF122158
:101FFD00041221C4EF7008900C48E0FF1221041266
:09200D0021C4EF7003122220220D
:081BED00900C47EEF0A3EFF0AD
:101BF500E4A3F0A3F0A3F0A3F0A3F0A3F012225DF9
:101C05001220BE7FC11221041221C4EF70111220CF
:101C150089900C4BE4F0A3EFF053B1F953B2F912EC
:101C250022E07F047E001220C2122089900C4DE430
:101C3500F0A3EFF053B1F953B2F91222921220BE7C
:101C45001222201220BE12225D1220BE1221BFEFE9
:101C55007009900C47A3E0FF1221041221C4EF7014
:101C650012C2B27F01FE1221841222207F027E0061
:101C7500122184900C4EE0FE900C4BE04EFEA3E04A
:011C8500FF5F
:011C8600223B
:0622E600900C62EFF022F3
:0E1F7A00900C47EEF0A3EFF0A3ECF0A3EDF017
:101F8800E4A3F0A3F0900C4BF0A3F0900C47E0FE14
:101F9800A3E0FFC3900C4CE09F900C4BE09E5024B4
:101FA80043C0067F0A7E001220E653C0FC7F0A7EEB
:101FB800001220E6900C4CE004F070CF900C4BE03F
:041FC80004F080C7DA
:011FCC0022F2
:03000000021DB628
:0C1DB600787FE4F6D8FD758120021DFD49
:100C6600020ED0E86480F8E933E83360110460F0DE
:100C7600ED33EC337009E8FCE9FDEAFEEBFF2204F4
:100C860060DED3EB9FEA9EE99DE8C2E78CF0C2F7EF
:100C960095F0400CE8CCF8E9CDF9EACEFAEBCFFBBB
:100CA600120E9B85D0F05804700320D5B3E804706B
:100CB600075002B2D5020EDA92D5EC0460F7E4CC06
:100CC600C0E0C398F8603B94186008400DD0E0FB84
:100CD600020EB2E4FBFAC9FC8028E830E406E4C957
:100CE600FBE4CAFCE830E305E4C9CACBFCE85407D8
:100CF6006010F8C3E913F9EA13FAEB13FBEC13FCE3
:100D0600D8F130F52FC3E49CFCEF9BFFEE9AFEED85
:100D160099FDD0E0FBEF4E4D4C701222DB03020E24
:100D2600D7EC2CFCEF33FFEE33FEED33FDED30E771
:100D3600EB020EB2EF2BFFEE3AFEED39FDD0E0FBF3
:100D460050130BBB0003020EDAED13FDEE13FEEF9C
:080D560013FFEC13FC020EB2C6
:100D5E00EC4D6011E8497017ED33EC3304600DE48F
:100D6E00FCFFFEFD22E933E8330470F8020ED012C8
:100D7E000E9B58046009E4CC2481500628500902C9
:100D8E000EDA284003020ED7C0E0EB4A7044B98059
:100D9E0006D0E0FB020EC6EF4E701CBD8008EBFFC6
:100DAE00EAFEE9FD80EBE98DF0A4FEE5F0020E47C8
:100DBE00E9CDF9EAFEEBFFEF89F0A4FCE5F0CE8970
:100DCE00F0A42EFFE435F0CD89F0A42DFEE435F02D
:100DDE008067EF4E7005BD80D780C3EF8BF0A4AC5B
:100DEE00F0EE8BF0A42CFCE435F0F8EF8AF0A42C96
:100DFE00E5F038FCE433CB8DF0A42CFCE5F03BF8A9
:100E0E00EE8AF0A42CFCE5F038F8E433CF89F0A498
:100E1E002CFCE5F038CF3400CE89F0A42FFFE5F09E
:100E2E003EFEE433C98DF0A42EFEE5F039CD8AF0F6
:100E3E00A42FFFE5F03EFEE43DFD33D0E0FB50076E
:100E4E000BBB000F020EDAEC2CFCEF33FFEE33FE81
:060E5E00ED33FD020EB2AF
:100E6400EDD2E7CD33EC3392D524814006E4FFFE86
:100E7400FDFC22FCE4CFCECDCC24E0501174FF80E5
:100E8400EDC3CC13CCCD13CDCE13CECF13CF047082
:070E9400F030D5DE021192DF
:1016AD00900C471211CCE4FFFE7D807C3F900C47DF
:1016BD00E0F8A3E0F9A3E0FAA3E0FB120EFF700639
:1016CD00900C47021807900C47E0FCA3E0FDA3E047
:1016DD00FEA3E0FF120EE5FBA3E0FCA3E0FDA3E0FB
:1016ED00FEA3E0FF120EE5FFB40108E4FFFE7D80CE
:1016FD007C3F22EF64046029EB64046024EBB401A9
:10170D0030E4FFFEFDFC900C4BE0F8A3E0F9A3E004
:10171D00FAA3E0FB120EFF60084006E4FFFEFDFC9D
:10172D0022900C4B1211D8FFFFFFFF900C4B0218AB
:10173D0007E4900C4FF0A3F0FFFEFDFC900C47E08A
:10174D00F8A3E0F9A3E0FAA3E0FB120EFF505F90BF
:10175D000C4BE0FCA3E0FDA3E0FEA3E0FF120E6442
:10176D00900C4FEEF0A3EFF0FDCCEECCEC120F8E03
:10177D00C8ECC8C9EDC9CAEECACBEFCB900C4BE093
:10178D00FCA3E0FDA3E0FEA3E0FF120C69E4FBFA6D
:10179D00F9F8120EFF708A900C47E0FCA3E0FDA350
:1017AD00E0FEA3E0FF120F78900C471211CC900CC5
:1017BD0047E0FCA3E0FDA3E0FEA3E0FF1219829039
:1017CD000C4BE0F8A3E0F9A3E0FAA3E0FB120D5EE9
:1017DD00121CBF900C4B1211CC900C50E030E01746
:1017ED00900C4BE0FCA3E0FDA3E0FEA3E0FF120F85
:1017FD0078900C4B1211CC900C4BE0FCA3E0FDA3A8
:06180D00E0FEA3E0FF2253
:100E9B00E9D2E7C933E833F892D5EDD2E7CD33EC9D
:070EAB0033FC5002B2D52216
:100EB200EC30E7100FBF000C0EBE00080DBD0004A1
:100EC2000BEB6014A2D5EB13FCED92E7FD2274FF4D
:100ED200FCFDFEFF22E480F8A2D574FF13FC7D80A6
:030EE200E480EFBA
:100EE500ED33EC33601004700FED547F7005740220
:0A0EF50092E0227404220422E42299
:100EFF0074F8CC6480CCC86480C8F58204604FC39A
:100F0F00EB9FF5F0EA9E42F0E99D42F0E89C45F038
:100F1F00603C501DE5825FFFE582D313CB5BCBF4C2
:100F2F002B5582FB50280ABA002409B900200880EB
:100F3F001DE5825BFBE582D313CF5FCFF4C3132F85
:100F4F005582FF50090EBE00050DBD00010CC3EB0D
:100F5F009FF5F0EA9E42F0E99D42F0E89C45F06073
:090F6F0007CC4820E701B3EC2295
:100F7800ED33EC33600A047003BD8004ECB2E7FC87
:010F88002246
:100F890075F020800E75F010800575F0087D007EE3
:100F9900007F003392D530D503121192EC33401003
:100FA900EF33FFEE33FEED33FDEC33FCD5F0ED22EC
:0E0FB900E5F0247EA2D513CC92E7CDCEFF2228
:101C870033DA929E35B16011377FE5FE39218489B9
:101C97003AAEC3FF3C1D955B3D6358473E75FDF06B
:101CA7003F3172183F800000C2D5020EDA020ED013
:101CB700BD80FA50F3020ED7ED33EC330460F17BAD
:101CC7003B7AAA79B8783F120D5EED33EC3392D5A3
:101CD700247B5011A2D570DB500BED4480240450B7
:101CE70004A2D580CEEFFBEEFAEDF9ECF8120E6404
:101CF700EFF582F404FC120F93120C6DC082901C56
:101D0700877409121076ED33CC33D0F092D525F0D5
:0A1D1700A2D57001C313CC13FD2206
:10194E003E9248DA3ECCCCCD3F2AAAAB40000000F6
:10195E003F8000003F9837F03FB504F33FD744FC7B
:10196E003E3172173EB172173F0515913EDE5BD9BF
:10197E00D2018002C201EDD2E7F8CD33EC33047010
:10198E000BBD800592D5020EDA020ED040FBD314A9
:10199E0060F2F5F07C3FEE7A00C39496C8948B40CB
:1019AE00230AC89469C8941A401A0AC89468C8943D
:1019BE001F40110AC8945AC89425400805F07A00B1
:1019CE00CDC2E7CDC0F0900C511211CCEA2323C04A
:1019DE00E0245EF582E43419F5831211BC120C6D0D
:1019EE00ECC0E0EDC0E0EEC0E0EFC0E01211A09060
:1019FE000C511211B0120C69D0E0FBD0E0FAD0E01D
:101A0E00F9D0E0B2E7F8120FCA900C511211CC9037
:101A1E00194E7403121067900C511211B0120D5E14
:101A2E00D0E0600F246AF582E43419F5831211BCFC
:101A3E00120C6D900C511211CCD0E0C3947FFDE4CA
:101A4E009400FC120F8E7B187A727931783F120D4A
:101A5E005E900C511211B0120C6D30010B7BD97AC5
:091A6E005B79DE783E120D5E2268
:100FC700020EDAEC5D046005E859047003020ED0E6
:100FD700120E9B580460F6EC4860F2EC7004FDFEBC
:100FE700FF22C860DB2481C85009C39860025006FD
:100FF700020ED79850CAF582E9294B4A7005AB8291
:10100700020EC675F0007C1A7880C3EF9BEE9AED4E
:1010170099400DC3EF9BFFEE9AFEED99FDE842F074
:10102700DC23ACF0D0E0FFD0E0FED0E0FDAB8220C7
:10103700E7101BEB60BAEC2CFCEF33FFEE33FEED51
:1010470033FD020EB2E803F830E705C0F075F00093
:10105700EF2FFFEE33FEED33FD40B830E7C280AA35
:10106700C0E0EFFBEEFAEDF9ECF8120D5ED0E0F51B
:10107700F0EFFBEEFAEDF9ECF81211A0A3A3A3A38E
:10108700E8C0E0E9C0E0EAC0E0EBC0E0C0F0120D64
:101097005E1211BCA3A3A3A3120C6DD0F0D0E0FB8A
:0D10A700D0E0FAD0E0F9D0E0F8D5F0D42286
:101DC200021468E493A3F8E493A34003F68001F2BB
:101DD20008DFF48029E493A3F85407240CC8C33322
:101DE200C4540F4420C8834004F456800146F6DFF1
:101DF200E4800B0102040810204080900026E47E5B
:101E0200019360BCA3FF543F30E509541FFEE493E5
:101E1200A360010ECF54C025E060A840B8E493A3AC
:101E2200FAE493A3F8E493A3C8C582C8CAC583CAD7
:101E3200F0A3C8C582C8CAC583CADFE9DEE780BE8F
:010C6500008E
:1010B400BB010689828A83E0225002E722BBFE023A
:0910C400E32289828A83E493226D
:1010CD00BB010689828A83F0225002F722BBFE0102
:0210DD00F322FC
:1010DF00EF8DF0A4A8F0CF8CF0A428CE8DF0A42E25
:0210EF00FE22DF
:1010F100BC000BBE0029EF8DF084FFADF022E4CCE3
:10110100F875F008EF2FFFEE33FEEC33FCEE9DECAB
:10111100984005FCEE9DFE0FD5F0E9E4CEFD22EDF1
:10112100F8F5F0EE8420D21CFEADF075F008EF2F3B
:10113100FFED33FD4007985006D5F0F222C398FD2C
:051141000FD5F0EA22C9
:10114600C2D5EC30E709B2D5E4C39DFDE49CFCEEC4
:1011560030E715B2D5E4C39FFFE49EFE1210F1C33B
:10116600E49DFDE49CFC80031210F130D507C3E436
:061176009FFFE49EFE2233
:10117C00A3F8E0C5F025F0F0E58215827002158326
:06118C00E0C838F0E82283
:0E119200C3E49FFFE49EFEE49DFDE49CFC226E
:1011A000E493FC740193FD740293FE740393FF2295
:0C11B000E0F8A3E0F9A3E0FAA3E0FB22C2
:1011BC00E493F8740193F9740293FA740393FB2289
:0C11CC00ECF0A3EDF0A3EEF0A3EFF02296
:1011D800A8828583F0D083D0821211EF1211EF120A
:1011E80011EF1211EFE473E493A3C583C5F0C5832F
:1011F800C8C582C8F0A3C583C5F0C583C8C582C861
:0112080022C3
:101A7700900C1CEBF0A3EAF0A3E9F0900C1CE0FB40
:101A8700A3E0FAA3E0F91210B4FF122249500C9018
:101A97000C1DE475F00112120980E0D200900C1CB5
:101AA700E0FBA3E0FAA3E0F91210B4FF642B600493
:101AB700EFB42D1D900C1CE0FBA3E475F00112118F
:101AC7007CA9F0FA1210B4642D6003D38001C3928D
:101AD70000E4900C1FF0A3F0900C1CE0FBA3E0FACD
:101AE700A3E0F91210B4FF1222A15042900C1CE09F
:101AF700FBA3E0FAA3E0F91210B4FF3395E0FEEF81
:101B070024D0FBEE34FFFA900C1FE0FEA3E0FF7C2D
:101B1700007D0A1210DFEF2BFFEE3A900C1FF0A3A7
:101B2700EFF0900C1DE475F00112120980AA300045
:101B37000A900C1FE0FEA3E0FF800F900C1FE0FE51
:0B1B4700A3E0FFC3E49FFFE49EFE222A
:10120900C5F0F8A3E028F0C5F0F8E5821582700270
:061219001583E038F0220D
:0F22A100EFC394304007EF943A50028001C322FC
:10224900EFC394094005EF940E4004EFB42003D383
:042259008001C3221B
:00000001FF
