:1056B9003132330041542B43495053544152543DE4
:1056C90022544350222C223139322E3136382E3190
:1056D900312E323033222C383038300D0A00252E45
:1056E90034660041542B43495053454E443D390DCE
:1056F9000A00540D0A004D0D0A004C0D0A00570D01
:025709000A0094
:1033DA004204B300004204AD00004204BB000044B2
:1033EA00041868686D6D4404BE000000004404CFF0
:1033FA000000000041041C1E4404C20000000042F8
:10340A0004CD00004104DB004404D3000000004462
:10341A000450000000004404A8000000004203BC5D
:09342A0000004403C068686D6DE8
:03000B00025AD8BE
:105AD800C0E0C083C082758A00758CB89004CEE09F
:105AE80004F070069004CDE004F0D082D083D0E0BA
:015AF800327B
:03001B00025D087B
:095D0800B295758B00758DB8325F
:03000300024C7D2F
:104C7D00C0E0C0F0C083C082C0D075D000C000C0FD
:104C8D0001C002C003C004C005C006C00720B20D9C
:104C9D00758A00758CB8D28CD2A9024D57C28CACD6
:104CAD008CE41203589004D31209E59004E1120923
:104CBD00F1410000007F007E007D007C40124565C3
:104CCD009004D3E0F8A3E0F9A3E0FAA3E0FB12010E
:104CDD001EC004C005C006C007AC8AE4120358D03C
:104CED0003D002D001D00012002DE4FBFA79387800
:104CFD00C712002D7BBC7A747993784112022790EC
:104D0D0004D31209E59004D3E0F8A3E0F9A3E0FA87
:104D1D00A3E0FBC000C001C002C0039004CDE0FEC3
:104D2D00A3E0FF7C037DE8120774AC06AD07E41227
:104D3D000353D003D002D001D00012002D9004D324
:104D4D001209E59004CDE4F0A3F0D007D006D0050C
:104D5D00D004D003D002D001D000D0D0D082D083E7
:054D6D00D0F0D0E0329F
:100BEE009004EB7401F0E4A3F0A3F0A3F0A3F0A340
:100BFE00F0A3F090050DF0A3F09005111209F1008D
:100C0E000000009006B5E4F0A304F0E49006B1F005
:100C1E00A3F09006AFF0A3F09006B7F0A3F0125633
:100C2E0060125CB5125CDC125B8F12591C125CC236
:100C3E00125C03438E80E4F58A758CB8F589F58BCA
:100C4E00758DB8D28ED2ABD2AF7D067F09125BA95D
:100C5E007F647E00125B397D05E4FF125BA97F6421
:100C6E007E00125B397F017E00125BEE7F681254AC
:100C7E00B07F681254B07F6D1254B07F6D1254B0B5
:100C8E007F231254B0E490050FF0A3F090050FE00F
:100C9E00FAA3E0FBAE027802C333CE33CED8F924EA
:100CAE00C4F58274033EF5831209F100000000AD15
:100CBE0003AC02EC120353E4FBFAF978401202275C
:100CCE00E4FBFA79E0784012002DC004C005C0069E
:100CDE00C00790050FE0FAA3E0FBAE027802C33323
:100CEE00CE33CED8F92454F58274043EF583D00762
:100CFE00D006D005D0041209E5EB25E0FFEA33FE5D
:100D0E0074262FF58274043EF583E4F0A3F090056B
:100D1E0010E004F0700690050FE004F090050FE06F
:100D2E007004A3E064156003020C9A125C777F4096
:100D3E007E1F125B39125D1A7FF47E01125B397BC6
:100D4E00FF7A5679B9125AB412554A7F327E001282
:100D5E0059851256067F057E001259857F327E0018
:100D6E0012598512554A90051A1209F1000000C752
:100D7E0090051E7401F07F02124B827F327E0012AC
:100D8E00598512554A90051A1209F1000000C890B3
:100D9E00051E7463F07F02124B827F327E00125961
:100DAE008512554A90051A1209F1000000C99005E6
:100DBE001E7432F07F02124B821237F47F081258E3
:100DCE002E7F0612582E7F501254B07F531254B0FD
:100DDE007F3A1254B09004CFE0FCA3E0FDA3E0FEF6
:100DEE00A3E0FF1246CB7F6D1254B07F6D1254B04C
:100DFE007F027E00125BEE9004B6E0FF125B577F1F
:100E0E003A1254B09004BDE0FF125B577F3A125471
:100E1E00B09004DCE0547FFF125B577F3B1254B05E
:100E2E009004ACE0FF125B579004B5E0FF125B57E5
:100E3E007F3B1254B09006B3E07002A3E060047FD3
:100E4E0041800C9006B3E07002A3E070057F4D1256
:100E5E0054B09006B1E07002A3E060649006B3E077
:100E6E007002A3E0705A9006B5E0FEA3E0FFEE4FCD
:100E7E0024FF92017F2A7E0012586E9006B5E07014
:100E8E0004A3E064019004CF7015E0FCA3E0FDA381
:100E9E00E0FEA3E0FF7BCD7ACC79CC783E8013E0E8
:100EAE00FCA3E0FDA3E0FEA3E0FF7BCD7ACC79CCE2
:100EBE0078BE12002D9004CF1209E5E49004EBF0F9
:100ECE009006AFE07002A3E0606A9006B3E0700295
:100EDE00A3E070609006B5E0FEA3E0FFEE4F24FFA6
:100EEE0092017F2A7E0012586E9006B5E07004A320
:100EFE00E064019004CF7015E0FCA3E0FDA3E0FEDA
:100F0E00A3E0FF7BCD7ACC79CC783E8013E0FCA3B6
:100F1E00E0FDA3E0FEA3E0FF7BCD7ACC79CC78BEDA
:100F2E0012002D9004CF1209E5E49004EBF0900628
:100F3E00AFF0A3F030A3439004EBE0703DFFFEFD55
:100F4E00FC9004CFE0F8A3E0F9A3E0FAA3E0FB12D3
:100F5E0002C4600250249004CF1209F10000000078
:100F6E009004EB7401F0E49006B1F0A3F09006AF9C
:100F7E00F0A3F09006B5F0A304F0125CF49004BD5B
:100F8E00E09004CAF090051C7401F0A37404F0A361
:100F9E0074B5F0A37401F0A37404F0A374B6F0A3B7
:100FAE007401F0A37404F0A374BDF0A37401F0A354
:100FBE007404F0A374DCF07B017A0479AC125597BB
:100FCE009004BDE0FF125B7EEF75F03284E5F070A9
:100FDE002D9004DCE0547FFF125B7EEF70207BFFD0
:100FEE007A5679BD1258E97F2C7E01125B397BFF50
:100FFE007A5679B9125AB47F2C7E01125B3990055C
:10100E001A1209F1000000C77F03124A6B90051AED
:10101E00BF01461209F1000000C97F03124A6BACF2
:10102E0007E4120358E4FBFA79C87842120227C08B
:10103E0004C005C006C00790051A1209F100000091
:10104E00C87F03124A6BAC07E4120358D003D002D8
:10105E00D001D00012002D80471209F1000000C906
:10106E007F03124A6BAC07E4120358E4FBFA79C80B
:10107E007842120227C004C005C006C00790051AA8
:10108E001209F1000000C87F03124A6BAC07E4128C
:10109E000358D003D002D001D00012002D12033D10
:1010AE009004B71209E57F017E00125BEE9004B743
:1010BE00E0FCA3E0FDA3E0FEA3E0FF1246CB90040C
:1010CE00B6E0FF125B7EEFD394104003020DC79083
:1010DE0004B6E0FF125B7EEFC394075003020DC708
:1010EE009004BDE0FF125B7EAC07E4120358E4FBF4
:1010FE00FA79707842120227C004C005C006C007F4
:10110E009004B6E0FF125B7EAC07E4120358D003E6
:10111E00D002D001D00012002DE4FBFA79E078C0A5
:10112E0012002DE4FBFA7970784212011EC004C041
:10113E0005C006C00790041CE0FCE4120358A80486
:10114E00A905AA06AB07D007D006D005D004120217
:10115E002712038C9004B3EEF0A3EFF09004B3E0EB
:10116E00FEA3E07802C333CE33CED8F9FBAA062411
:10117E0054F58274043AF583E0FCA3E0FDA3E0FE8F
:10118E00A3E0FF9004F21209E574C42BF5827403F8
:10119E003AF583E0FCA3E0FDA3E0FEA3E0FF90049C
:1011AE00F61209E5C297D2929004B3E0FAA3E0FBDF
:1011BE0025E0FFEA33FE74262FF58274043EF58394
:1011CE00E0FEA3E064014E60030213C3EBAE0278AF
:1011DE0002C333CE33CED8F92458F58274043EF5CB
:1011EE0083E0FCA3E0FDA3E0FEA3E0FF9004FA126F
:1011FE0009E5EB2401FFE43AFE7C007D031207743F
:10120E00EE3395E0FDFC90051A1209E57F02124AB5
:10121E006B7E009004D7EEF0A3EFF064017078902F
:10122E0004B3E0FEA3E0FF7C007D03120774EF24FD
:10123E0005FFE43EFE3395E0FDFC90051A1209E52C
:10124E007F02124A6BAC07E4120358E4FBFA79C82A
:10125E007842120227C004C005C006C0079004B32E
:10126E00E0FEA3E0FF7C007D03120774EF2404FF71
:10127E00E43EFE3395E0FDFC90051A1209E57F026F
:10128E00124A6BAC07E4120358D003D002D001D03F
:10129E000012002D02132A9004D7E07002A3E06022
:1012AE00030213419004B3E0FEA3E0FF7C007D0334
:1012BE00120774EF2405FFE43EFE3395E0FDFC902B
:1012CE00051A1209E57F02124A6BAC07E4120358A5
:1012DE00E4FBFA79C87842120227C004C005C006A2
:1012EE00C0079004B3E0FEA3E0FF7C007D0312076D
:1012FE0074EF2404FFE43EFE3395E0FDFC90051AE6
:10130E001209E57F02124A6BAC07E412035812036E
:10131E003DD003D002D001D0001200299004BEE0CF
:10132E00F8A3E0F9A3E0FAA3E0FB12002D9004FE6F
:10133E001209E57F017E00125BEE9004F6E0FCA33D
:10134E00E0FDA3E0FEA3E0FF1246CB9004BDE0FF5C
:10135E00125B7EAC07E4120358E4FBFA7970784214
:10136E00120227C004C005C006C0079004B6E0FFF5
:10137E00125B7EAC07E4120358D003D002D001D02A
:10138E000012002D9005AB1209E5789B7C057D01BE
:10139E007B017A0479F27E007F081206F678A37C30
:1013AE00057D017B017A0479FA7E007F081206F62C
:1013BE00124E70802F7B017A0479269004B3E0FCE4
:1013CE00A3E0FD125A6BEF7802C333CE33CED8F9B9
:1013DE0024C4F58274033EF583E0FCA3E0FDA3E094
:1013EE00FEA3E0FF9005211209E59004ACE0FF900A
:1013FE0004B5E0FD9004BDE090051CF09004DCE027
:10140E0090051DF0A37401F0A37404F0A374CFF043
:10141E009004B6E0FB12248B9004BDE0FF9004CA4A
:10142E00E06F7003020DC7125B7EAC07E412035827
:10143E00E4FBFA79707842120227C004C005C00698
:10144E00C0079004B6E0FF125B7EAC07E4120358AF
:10145E00D003D002D001D00012002DC004C005C0B0
:10146E0006C0079004DCE0547FFF125B7EAC07E4FD
:10147E00120358E4FBFA79617845120227D003D0A3
:10148E0002D001D00012002D90051F1209E5900523
:10149E001C74FFF0A37456F0A374E7F07B017A047A
:1014AE00791D122FBC7BFF7A5679EC1258E97FC852
:1014BE007E00125B397B017A04791D1258E97BFF9D
:1014CE007A5679FB1258E97FC87E00125A9690051B
:1014DE001C74FFF0A37456F0A374E7F09004CFE0F1
:1014EE00FCA3E0FDA3E0FEA3E0FF90051F1209E5BB
:1014FE007B017A04791D122FBC7BFF7A5679EC1290
:10150E0058E97FC87E00125A967B017A04791D1223
:10151E0058E97BFF7A5679FF1258E97FC87E001290
:10152E005A9690051C74FFF0A37456F0A374E7F05E
:10153E009004D3E0FCA3E0FDA3E0FEA3E0FF900542
:10154E001F1209E57B017A04791D122FBC7BFF7AED
:10155E005679EC1258E97FC87E00125A967B017AB2
:10156E0004791D1258E97FC87E00125A967BFF7AC5
:10157E005779031258E97FC87E00125A96E4FF127B
:10158E0059A3AC06AD07E4120353E4FBFA79807855
:10159E0044120227E4FBFA79A0784012011E90054E
:1015AE001F1209E590051C74FFF0A37456F0A37486
:1015BE00E7F07B017A04791D122FBC7BFF7A5679F6
:1015CE00EC1258E97FC87E00125A967B017A047994
:1015DE001D1258E97BFF7A5779071258E97FC87EAA
:0715EE0000125A96020DC71E
:0300230002000ECA
:0D000E00309802C298309904C299C20A329B
:095D1100200AFDD20AEFF59922E7
:065C2D00D2A27F017E00FF
:0E5C3300EF1FAC0670011E4C60030080F322D0
:025AF900AD07F7
:105AFB00E4FBC2A2ED30E704D2A18002C2A1125C8A
:0D5B0B002F125C2DED25E0FD0BEBB408E53D
:015B1800226A
:105B1900E4FDD2A1FBED25E0FDC2A2125C2F30A16C
:0F5B290004ED4401FD125C2D0BEBB408E8AF0551
:015B3800224A
:105C5500E4FED2A0EF44A0FF125AF9125B19C2A0CC
:015C6500221C
:105BA900AA07D2A0ED4420FF125AF9AF02125AF9FE
:085BB900AF02125AF9C2A0224A
:0D5CB5005395F85396F8D2A0C2A0C2A222C7
:10559700900519EBF0A3EAF0A3E9F07F09125C5537
:1055A700900519E0FBA3E0FAA3E0F9EF1207627F89
:1055B70007125C5590051CE0FBA3E0FAA3E0F9EFA6
:1055C7001207627F06125C5590051FE0FBA3E0FA05
:1055D700A3E0F9EF1207627F05125C55900522E000
:1055E700FBA3E0FAA3E0F9EF1207627F04125C5510
:0F55F700900525E0FBA3E0FAA3E0F9EF020762BD
:105C6600EFC4540FFEEF540FFFEE75F00AA42FFF9A
:015C7600220B
:10542400125C66AC07AF05125C66EC14B40C005059
:105434007390544375F003A4C58325F0C5837302A8
:10544400546702546A02546F025474025479025429
:105454007E02548302548802548D02549502549A55
:1054640002549F7E0022EF241F8021EF243B801CE6
:10547400EF245A8017EF24788012EF2497800DEFE1
:1054840024B58008EF24D48003EF24F3FFE433FE33
:1054940022EF24118008EF24308003EF244EFFE430
:0754A4003401FE22E4FEFFCB
:0154AB0022DE
:10566000E4F5917592FF7F96FE125A967F031258C9
:105670002E7F1E7E00125A967F0312582E125A92C7
:105680007F0312582E125A927F0212582E7F017EEB
:1056900000125A967F0212582E7F0812582EE4FFED
:1056A00012582E7F0E12582EE4FF12582E7F06122B
:0956B000582E7F147E00025A9668
:0454AC00E04430FFA9
:1054B000900524EFF0D2C0C293E0FF5480C41313D0
:1054C00013540124FF92B7EF5440C4131354032420
:1054D000FF92B6E0FF5420C413540724FF92B5EFA7
:1054E0005410C4540F24FF92B4D2B37F017E001233
:1054F0005A96C2B3900524E0FF5408131313541FA7
:1055000024FF92B7EF54041313543F24FF92B6E0E4
:10551000FF5402C31324FF92B5EF1392B4125A90B2
:05552000C2B3C2C0226D
:10582E00C2C0C293EF5408131313541F6004D2B7AF
:10583E008002C2B7EF54041313543F6004D2B680F3
:10584E0002C2B6EF5402C3136004D2B58002C2B5D1
:10585E00EF30E004D2B48002C2B4125A90C2B32226
:065A9000D2B37F0A7E0084
:105A9600EF1FAA0670011E4A6013E4FCFDC3ED94D5
:0D5AA60058EC940250EA0DBD00010C80F098
:015AB30022D0
:105B5700EFC4540F4430FEEF540F4430900519F052
:0D5B6700AF061254B0900519E0FF0254B0D3
:0A5CF400E4FF12582E7F0202582E22
:0A5CFE00E4FF12582E7F0102582E19
:105BEE00EF64014E70047F0880027F0C12582EE481
:055BFE00FF12582E22E9
:0646CB009005191209E53B
:1046D100900519E0FCA3E0FDA3E0FEA3E0FF1203B7
:1046E1008C125CE8900522EEF0A3EFF0E4FFFEFDF2
:1046F100FC900519E0F8A3E0F9A3E0FAA3E0FB12AE
:1047010002C460264024900522E0FCA3E0FDEC12E7
:104711000353A804A905AA06AB07900519E0FCA359
:10472100E0FDA3E0FEA3E0FF8035900519E0FCA3C6
:10473100E0FDA3E0FEA3E0FF12033DC004C005C0FD
:1047410006C007900522E0FCA3E0FDEC120353A88C
:1047510004A905AA06AB07D007D006D005D00412DC
:104761000029E4FBFA7920784112011E12038C9092
:104771000521EFF0900522E0FAA3E0FB7C007D0A21
:10478100FFAE021207DB90051DEDF07C037DE8AF63
:1047910003AE021207DBA907900520E9F07E007C39
:1047A100037DE8120774C3900523E09FFB90052267
:1047B100E09EFA7C007D64AF03FE12078690051F20
:1047C100EFF0E075F064A4FFC3EB9FFFEA95F0FE04
:1047D1007C007D0A12078690051EEFF0E4FFFEFDC6
:1047E100FC900519E0F8A3E0F9A3E0FAA3E0FB12BD
:1047F10002C4400280057F2D1254B090052012544E
:10480100AC90051F1254AC90051E1254AC90051DBE
:0E4811001254AC7F2E1254B09005211254ACFC
:01481F002276
:103433004206B100004206AF00004206B50000425A
:0D34430006B300004206B700004106A000DD
:105B3900EF1FAA0670011E4A6013E4FCFDC3ED9431
:0D5B490058EC940250EA0DBD00010C80F0F4
:015B5600222C
:1040C70053801E43801EE58044E190051FF0E0F415
:1040D7007003024251E58044E1F0E0F470030242CC
:1040E7004E5380DF4380C1E58044E1F0E0F4604750
:1040F70090051FE0FFF4600DA3EFF0E58044E19029
:10410700051FF080EB900520E02411602424F8605F
:104117001824FC600C24FE701E9005217401F080A9
:10412700169005217404F0800E9005217407F08025
:1041370006900521740CF05380BF4380A1E58044AD
:10414700E190051FF0E0F4604690051FE0FFF46082
:104157000DA3EFF0E58044E190051FF080EB90059B
:1041670020E02411602424F8601824FC600C24FE4D
:10417700701D9005217402F080159005217405F0DB
:10418700800D9005217408F08005E4900521F05317
:10419700807F438061E58044E190051FF0E0F46093
:1041A7004790051FE0FFF4600DA3EFF0E58044E1C1
:1041B70090051FF080EB900520E02411602424F87F
:1041C700601824FC600C24FE701E9005217403F017
:1041D70080169005217406F0800E9005217409F071
:1041E7008006900521740BF05380FE4380E0E58044
:1041F70044E190051FF0E0F4604790051FE0FFF4ED
:10420700600DA3EFF0E58044E190051FF080EB908F
:104217000520E02411602424F8601824FC600C2495
:10422700FE701E900521740DF08016900521740E06
:10423700F0800E900521740FF08006900521741010
:0C424700F0900521E0FF227F64227F64DC
:014253002248
:1037F4009006A3E0FFA3E09006A1CFF0A3EFF012A0
:1038040040C77E009006A3EEF0A3EFF0640E7006AE
:103814009006AF0238A19006A1E0FEA3E0FF646425
:103824004E7020A3E07004A3E0640F70169006B5F8
:10383400E07002A3E06006E49006B580589006B5F7
:10384400E4805A9006A3E0FCA3E0FD64104C700FE2
:103854009006B1E07002A3E070059006B1803EEDE1
:1038640064104C70109006B1E07002A3E06006E4AE
:103874009006B18020EF64644E70279006A3E07038
:1038840004A3E0640D701B9006B3E07002A3E06033
:1038940008E49006B3F0A3F0229006B3E4F0A30486
:1038A400F0229006A1E07004A3E064646003023B8C
:1038B4007F9006A3E0FCA3E0FD64644C7003023B2C
:1038C4007F9006A0E0FF3395E0FEEF25E0FFEE33A6
:1038D400FE74A52FF58274063EF583ECF0A3EDF09B
:1038E4009006A0E004F0E064056003023B1DF09044
:1038F40006ADE07004A3E0640B70749006A5E0FECE
:10390400A3E0FF7C007D0A1207749006A8E02FFF55
:103914009006A7E03EAB07FA9006A9E0FEA3E0FFFD
:103924001207749006ACE02FFF9006ABE03EFED386
:10393400EB9418EA94004003023AACEF943CEE9402
:10394400004003023AAC9006A5A3E0C454F0FFA3E0
:10395400A3E04FFF7D06125BA99006A9A3E0C4541F
:10396400F0FFA3A3E04FFF7D05125BA9023AA390E9
:1039740006ADE07004A3E0640C6003023AAC900668
:10398400A5E0FEA3E0FF7C007D0A1207749006A860
:10399400E02FFF9006A7E03E90051BF0FAA3EFF09E
:1039A400FB9006A9E0FEA3E0FF1207749006ACE0CA
:1039B4002FFF9006ABE03E90051DF0A3EFF0D3EB94
:1039C4009407EA9400507B90051CE030E0239005B6
:1039D4001EE0941F90051DE094004003023AA3905A
:1039E40006A5A3E0C454F0FFA3A3E04FFF1D023AD1
:1039F4008D90051BE07004A3E064027024D390054D
:103A04001EE0941C90051DE094004003023AA3902C
:103A140006A5A3E0C454F0FFA3A3E04FFF7D0980F3
:103A240068D390051EE0941E90051DE09400506F2D
:103A34009006A5A3E0C454F0FFA3A3E04FFF7D09C3
:103A4400804790051CE020E021D390051EE0941FE0
:103A540090051DE0940050479006A5A3E0C454F0DF
:103A6400FFA3A3E04FFF7D09801FD390051EE094C0
:103A74001E90051DE0940050269006A5A3E0C454B2
:103A8400F0FFA3A3E04FFF7D09125BA99006A9A351
:103A9400E0C454F0FFA3A3E04FFF7D07125BA9909D
:103AA40006ADE4F0A37464F09006A5E07004A3E00E
:103AB400640970359006A7E07004A3E064097029D6
:103AC4009006A9E07004A3E06409701D9006ABE0C1
:103AD4007004A3E0640970119006ADE07002A3E0E5
:103AE40070079006B7F0A304F09006B7E07002A345
:103AF400E07026125CFE7F0812582EE4FF12582E46
:103B04007F681254B07F681254B07F6D1254B07F36
:103B14006D1254B07F231254B0E4900519F0A3F051
:103B24009006A0E0FFFD3395E0FCC390051AE09DEC
:103B3400900519E09C5044EF64809484502D7F08D4
:103B440012582E900519A3E0FF12582E90051AE082
:103B540025E0FF900519E033FE74A52FF582740665
:103B64003EF583A3E04430FF1254B090051AE004FC
:0B3B7400F070AD900519E004F080A592
:013B7F002223
:0C5CDC00759300759400E4F594F5932294
:103450006028013043340000433E00004348000030
:1034600043520000435C00004366000043700000CC
:10347000437A00004382000043870000602800A4D4
:1034800043340000432A000043200000431600009C
:10349000430C00004302000042F0000042DC000048
:1034A00042C8000042B400006258016042EFA3D756
:1034B00042EF385242EDB33342ECC28F42EAE14868
:1034C00042E8385242E03D7142D170A4429B75C33C
:1034D00042BEA8F642D5F0A442D5C7AE42D433339B
:1034E00042D08F5C42CAD70A42C1F5C342B2947B34
:1034F0004290051F41F428F6C2AC4CCD42BD051FD9
:1035000042BC2E1442B9385242B3947B42AB947BF6
:10351000429C4CCD428338524221F5C3C17051ECDC
:10352000C2DB385242A3E66642A2BD71429E3D71A3
:10353000429675C3428ADC29426BD70A422B333349
:103540004143851FC22FAE14C2EEF5C3428A6B857C
:103550004288A8F642834CCD42728F5C4252CCCD59
:103560004221E14841AA51ECC130F5C3C27B28F6A3
:10357000C2F9947B425D47AE425A1EB8424E3D713D
:103580004237D70A4214666641B95C293FF851ECCC
:10359000C1F228F6C2959EB8C2FC28F64227EB85F8
:1035A0004223B8524216333341FBD70A41A628F6CC
:1035B00040CE6666C1770A3DC235147BC2A733335D
:1035C000C2FECCCD41E28F5C41D7EB8541B9851F6E
:1035D00041830A3D40C1999AC112E148C1F370A4E8
:1035E000C265D70AC2B6199AC2FFA8F64161999A74
:1035F000414E147B410CCCCD00000000C107AE143D
:10360000C1BC28F6C22C147BC2884CCDC2C1CCCD23
:10361000C2FEAE140000000000000000C0B80000B0
:10362000C142E148C1B55C29C212851FC25AE148B6
:10363000C299C28FC2CA9EB8C2FF75C3C162B852D6
:10364000C170CCCDC1991EB8C1D2F5C3C210E1483A
:10365000C242E148C282F0A4C2A7C7AEC2D22E14B1
:10366000C2FEFAE1C1E1D70AC1EC51ECC204EB851C
:10367000C21E70A4C240EB85C2705C29C295428F05
:10368000C2B5C28FC2D9428FC2FF147BC228851F28
:10369000C22C5C29C2397AE1C250A3D7C2716666D6
:1036A000C28D0A3DC2A56148C2C18F5CC2DF947B56
:1036B000C2FF851FC25E147BC261999AC26F28F651
:1036C000C282051FC28F2E14C2A05C29C2B4C7AE2D
:1036D000C2CBD1ECC2E551ECC2FFE666C28A199AB0
:1036E000C28C47AEC290D1ECC2990F5CC2A46148B3
:1036F000C2B2947BC2C36148C2D5A3D7C2EA0F5CF1
:10370000C3000F5C603C00F4400CCCCD40DCCCCD61
:103710004139999A4182666641A8000041CD999A43
:1037200041F33333420C6666421F333342320000AA
:103730004244CCCD4257999A426A6666427D333301
:103740004288000060A00004C1E1D70AC1EC51EC3E
:10375000C204EB85C21E70A4C240EB85C2705C2916
:10376000C295428FC2B5C28FC2D9428FC2FF147BAD
:10377000C228851FC22C5C29C2397AE1C250A3D766
:10378000C2716666C28D0A3DC2A56148C2C18F5C26
:10379000C2DF947BC2FF851FC25E147BC261999A0F
:1037A000C26F28F6C282051FC28F2E14C2A05C29E8
:1037B000C2B4C7AEC2CBD1ECC2E551ECC2FFE666E3
:1037C000C28A199AC28C47AEC290D1ECC2990F5CE2
:1037D000C2A46148C2B2947BC2C36148C2D5A3D718
:1037E000C2EA0F5CC3000F5C440000C0A0000041AF
:0337F00000D40002
:105C03009001581209F1C2932E1490015C1209F10C
:055C130042360A3D22AB
:0A5B74001209E590051DE0547FFFC3
:105B7E00EFC4540FFEEF540FFFEE75F00AA42FFF83
:015B8E0022F4
:105756009000EC30021A7404F07B017A0079E712AB
:105766004FCB7F027E00125B399000EC74068018E6
:105776007405F07B017A0079E7124FCB7F027E0039
:10578600125B399000EC7407F07B017A0079E7121E
:0A5796004FCB7F027E00125B392228
:08586E00900519EEF0A3EFF024
:10587600E4A3F0A3F090051BF0A3F0900519E0FE59
:10588600A3E0FFC390051CE09F90051BE09E501708
:10589600A201920212575690051CE004F070DC90AB
:0758A600051BE004F080D4B3
:0158AD0022D8
:0659CD009006E91209E555
:1059D300E4FFFE7DD07C429006E9E0F8A3E0F9A362
:1059E300E0FAA3E0FB12011E12038CA20B92010248
:0259F300586EEC
:104E4D0078A37C057D017B017E007F081206F6901C
:104E5D00053FE0FCA3E0FDA3E0FEA3E0FF9005AB62
:034E6D001209E542
:104E70009005ABE0F8A3E0F9A3E0FAA3E0FB90050E
:104E80009BE0FCA3E0FDA3E0FEA3E0FF12002912DB
:104E9000033DC004C005C006C0079005A3E0F8A309
:104EA000E0F9A3E0FAA3E0FB90059BE0FCA3E0FDA2
:104EB000A3E0FEA3E0FF120029A804A905AA06ABFF
:104EC00007D007D006D005D004120227C004C005C1
:104ED000C006C0079005A7E0F8A3E0F9A3E0FAA395
:104EE000E0FB90059FE0FCA3E0FDA3E0FEA3E0FF54
:104EF000120029D003D002D001D00012011E90056B
:0F4F00009FE0F8A3E0F9A3E0FAA3E0FB12002D75
:014F0F00227F
:062A5C0090053F1209E5A0
:102A62009005831209F100000000E4900587F0A3AD
:102A7200F0900587E0FEA3E0FFC3940AEE64809421
:102A8200804003022DE9EF7802C333CE33CED8F96A
:102A92002434F58274013EF583E0FCA3E0FDA3E05B
:102AA200FEA3E0FF90053FE0F8A3E0F9A3E0FAA35C
:102AB200E0FB1202C460054003022C2D900587E062
:102AC200FEA3E07802C333CE33CED8F92430F582A8
:102AD20074013EF583E0FCA3E0FDA3E0FEA3E0FF6A
:102AE20090053FE0F8A3E0F9A3E0FAA3E0FB1202AD
:102AF200C45003022C2DE4900589F0A3F0900587C1
:102B0200E0FEA3E07802C333CE33CED8F9FBAA06A7
:102B12002430F58274013AF583E0FCA3E0FDA3E0E2
:102B2200FEA3E0FF90058B1209E574342BF5827445
:102B3200013AF583E0FCA3E0FDA3E0FEA3E0FF90F1
:102B420005931209E5900587E0FEA3E07802C333FE
:102B5200CE33CED8F9FBAA06900589E0FEA3E09019
:102B6200016075F028120A3CEE75F028A42583F561
:102B720083E5822BF582E5833AF583E0FCA3E0FD51
:102B8200A3E0FEA3E0FF90058F1209E5900589E01E
:102B9200FEA3E090016475F028120A3CEE75F0285D
:102BA200A42583F583E5822BF582E5833AF583E05C
:102BB200FCA3E0FDA3E0FEA3E0FF9005971209E568
:102BC200789B7C057D017B017A05798B7E007F08ED
:102BD2001206F67A057993124E4DC004C005C0065E
:102BE200C007900589E0FEA3E07802C333CE33CE5E
:102BF200D8F92447F58274053EF583D007D006D074
:102C020005D0041209E590058AE004F070069005EB
:102C120089E004F0C390058AE0940F900589E0648E
:102C22008094805003022AFF022DD5900587E0FE92
:102C3200A3E07802C333CE33CED8F924A8F5827448
:102C4200003EF583E0FCA3E0FDA3E0FEA3E0FF90DD
:102C5200053FE0F8A3E0F9A3E0FAA3E0FB1202C407
:102C62005003022DD5900587E0FEA3E07802C3331E
:102C7200CE33CED8F924A4F58274003EF583E0FC6D
:102C8200A3E0FDA3E0FEA3E0FF90053FE0F8A3E090
:102C9200F9A3E0FAA3E0FB1202C460054003022D8F
:102CA200D5E4900589F0A3F0900587E0FEA3E078D3
:102CB20002C333CE33CED8F9FBAA0624A4F582741C
:102CC200003AF583E0FCA3E0FDA3E0FEA3E0FF9061
:102CD200058B1209E574A82BF58274003AF583E09E
:102CE200FCA3E0FDA3E0FEA3E0FF9005931209E53B
:102CF200900587E0FEA3E07802C333CE33CED8F945
:102D0200FBAA06900589E0FEA3E090016075F02819
:102D1200120A3CEE75F028A42583F583E5822BF593
:102D220082E5833AF583E0FCA3E0FDA3E0FEA3E0A5
:102D3200FF90058F1209E5900589E0FEA3E090015E
:102D42006475F028120A3CEE75F028A42583F583F9
:102D5200E5822BF582E5833AF583E0FCA3E0FDA34F
:102D6200E0FEA3E0FF9005971209E5789B7C057DC4
:102D7200017B017A0579937E007F081206F67A05B7
:102D8200798B124E4DC004C005C006C0079005895C
:102D9200E0FEA3E07802C333CE33CED8F92447F560
:102DA2008274053EF583D007D006D005D0041209FF
:102DB200E590058AE004F07006900589E004F0C30E
:102DC20090058AE0940F900589E064809480500316
:102DD200022CAA900588E004F06003022A73900591
:102DE20087E004F0022A73E4900587F0A3F09005CF
:102DF20087E0FEA3E0FFC3940FEE6480948040035B
:102E0200022F48EF7802C333CE33CED8F924F4F53B
:102E12008274003EF583E0FCA3E0FDA3E0FEA3E0A4
:102E2200FF900543E0F8A3E0F9A3E0FAA3E0FB1268
:102E320002C45003022F37900587E0FEA3E0780218
:102E4200C333CE33CED8F924F8F58274003EF5832D
:102E5200E0FCA3E0FDA3E0FEA3E0FF900543E0F861
:102E6200A3E0F9A3E0FAA3E0FB1202C46005400369
:102E7200022F37900587E0FEA3E07802C333CE33FA
:102E8200CED8F9FBAA0624F4F58274003AF583E061
:102E9200FCA3E0FDA3E0FEA3E0FF90058B1209E591
:102EA20074F82BF58274003AF583E0FCA3E0FDA3ED
:102EB200E0FEA3E0FF9005931209E5900587E0FE8E
:102EC200A3E07802C333CE33CED8F9FBAA06244757
:102ED200F58274053AF583E0FCA3E0FDA3E0FEA3CE
:102EE200E0FF90058F1209E5744B2BF58274053AC9
:102EF200F583E0FCA3E0FDA3E0FEA3E0FF900597CD
:102F02001209E5789B7C057D017B017A05798B7E30
:102F1200007F081206F678A37C057D017B017A0505
:102F220079937E007F081206F6900543124E5F9059
:102F320005831209E5900588E004F0700690058784
:102F4200E004F0022DF0900583E0FCA3E0FDA3E095
:042F5200FEA3E0FFFB
:012F56002258
:09248B0090051BEBF0AA05A9075E
:10249400E4900527F0A3F0A3F0A3F0A31209F10040
:1024A40000000090052F1209F10000000090053390
:1024B4001209F1000000009000D57407F0A374E342
:1024C400F0AF01125B7EA3E4F0A3EFF0AF02125B66
:1024D4007EA3E4F0A3EFF090051BE0FF125B7EEF18
:1024E4002405FDE433FCE41203539000DB1209E5F8
:1024F40090051CE0FF125B7EAC07E41203589000C9
:10250400DF125B74AC07E41203589000E31209E590
:1025140090051EE0FBA3E0FAA3E0F91208FF900582
:102524002B1209E5783F7C057D017B017A0079D582
:102534007E007F121206F678517C057D017B017ABC
:102544000179587E007F081206F69005597401F04F
:10255400A37400F0A374F1F01215F5E4FBFA7934D6
:10256400784312011E7BD07A0F79497840120227F2
:102574009000CC1209E59000DAE024AFFF9000D976
:10258400E034FFFE7C017D681207747D6D1207DB69
:10259400EF25E0FDEE33FC1203537BD07A0F79492B
:1025A400784012011EE4FBFA7934784312022712B0
:1025B400443B7B857AEB791D784112011EC004C02F
:1025C40005C006C007E4FFFE7D707C41900000E07A
:1025D400F8A3E0F9A3E0FAA3E0FB12011EA804A902
:1025E40005AA06AB07900158E0FCA3E0FDA3E0FEBA
:1025F400A3E0FF120029E4FBFA7980784012011E5F
:10260400D003D002D001D00012002DC004C005C0F8
:1026140006C0079000DAE024AFFF9000D9E034FF51
:10262400FE7C017D681207747D6D1207DBAC06AD7C
:1026340007EC1203537BD07A0F7949784012011EBC
:10264400E4FBFA793478431202271244257BC37AD7
:10265400F579F0784012011EA804A905AA06AB0773
:10266400D007D006D005D004120029C004C005C08C
:1026740006C0079000DAE024AFFF9000D9E034FFF1
:10268400FE7C017D681207747D6D1207DBAC06AD1C
:1026940007EC1203537BD07A0F7949784012011E5C
:1026A400E4FBFA7934784312022712443BE4FBFA40
:1026B40079C0783F12011EA804A905AA06AB07D069
:1026C40007D006D005D004120029E4FBFA7970780B
:1026D400421202279000D01209E590051CE0FF1277
:1026E4005B7EAC07E4120358E4FBFA79707842127B
:1026F4000227C004C005C006C00790051BE0FF12F6
:102704005B7EAC07E4120358D003D002D001D000A2
:1027140012002D9000D0E0F8A3E0F9A3E0FAA3E0C2
:10272400FB12002D9000ED1209E57FD07E0F7D494C
:102734007C409000CCE0F8A3E0F9A3E0FAA3E0FB2E
:1027440012011EE4FBFA793478431202271244255D
:10275400C004C005C006C0077FD07E0F7D497C4001
:1027640090015CE0F8A3E0F9A3E0FAA3E0FB120116
:102774001EE4FBFA79347843120227124425D0036D
:10278400D002D001D00012011EC004C005C006C092
:1027940007E4FFFE7D407CC19000EDE0F8A3E0F982
:1027A400A3E0FAA3E0FB12002D7BD37A7E793C7878
:1027B4004212011EE4FBFA793478431202271244D0
:1027C40025D003D002D001D00012011EC004C005E0
:1027D400C006C0077FD07E0F7D497C409000CCE0CE
:1027E400F8A3E0F9A3E0FAA3E0FB12011EE4FBFA6C
:1027F4007934784312022712443BC004C005C00652
:10280400C0077FD07E0F7D497C4090015CE0F8A337
:10281400E0F9A3E0FAA3E0FB12011EE4FBFA793429
:10282400784312022712443BD003D002D001D000D7
:1028340012011ED003D002D001D00012002D125874
:10284400AE7BED7A2E7965784212011E900537121F
:1028540009E5E4FFFE7D407CC19000EDE0F8A3E0D3
:10286400F9A3E0FAA3E0FB12002D7BD37A7E793C36
:10287400784212011EE4FBFA7934784312022712DB
:10288400443BC004C005C006C0077FD07E0F7D490D
:102894007C409000CCE0F8A3E0F9A3E0FAA3E0FBCD
:1028A40012011EE4FBFA79347843120227124425FC
:1028B400D003D002D001D00012011EC004C005C054
:1028C40006C007900537E0F8A3E0F9A3E0FAA3E017
:1028D400FBE4FFFE7DB47C421200297BD07A0F79A1
:1028E40049784012011EE4FBFA7934784312022736
:1028F40012443BA804A905AA06AB07D007D006D00A
:1029040005D0041202271258AE7BED7A2E79657831
:102914004212011EE4FBFA7934784312002D90052B
:102924003B125B74EF30E003022A5B7FCD7ECC7DEB
:102934000C7C40900537E0F8A3E0F9A3E0FAA3E0AB
:10294400FB1202C45003022A5BE4FFFE7D887C4232
:10295400900537E0F8A3E0F9A3E0FAA3E0FB120244
:10296400C460054003022A5B900537E0FCA3E0FD48
:10297400A3E0FEA3E0FF9005431209E590053BE0C8
:10298400FCA3E0FDA3E0FEA3E0FF122A5C90053364
:102994001209E5E4FFFE7D167C43900533E0F8A3BD
:1029A400E0F9A3E0FAA3E0FB12002D900521E0F882
:1029B400A3E0F9A3E0FAA3E0FB12002D90052B128B
:1029C40009E590051EE0FBA3E0FAA3E0F91209C5AE
:1029D40090052BE0FCA3E0FDA3E0FEA3E0FF1200C2
:1029E4002990052F1209E590052FE0FCA3E0FDA333
:1029F400E0FEA3E0FF125CCFE4FBFAF9783F120299
:102A0400C460025052E4FFFE7D707CC190052BE04F
:102A1400F8A3E0F9A3E0FAA3E0FB1202C44038E40F
:102A2400FFFE7D527C4390052BE0F8A3E0F9A3E080
:102A3400FAA3E0FB1202C46002501C90052BE0FCD8
:102A4400A3E0FDA3E0FEA3E0FF90051EE0FBA3E0EE
:072A5400FAA3E0F912094F9B
:012A5B002258
:103B80009006E1EBF09000D57407F0A374E3F01217
:103B90005B7EA3E4F0A3EFF0AF05125B7EA3E4F03D
:103BA000A3EFF09006E1E0FF125B7EEF2405FDE459
:103BB00033FCE41203539000DB1209E59006E2E0C7
:103BC000FF125B7EAC07E41203589000DF1209E598
:103BD0009006E3125B7AAC07E41203589000E312FC
:103BE00009E5783F7C057D017B017A0079D57E006F
:103BF0007F121206F678517C057D017B017A0179EE
:103C0000587E007F081206F69005597401F0A374DF
:103C100000F0A374F1F01215F5E4FBFA793478435F
:103C200012011E7BD07A0F7949784012022790004A
:103C3000CC1209E59000DAE024AFFF9000D9E0341F
:103C4000FFFE7C017D681207747D6D1207DBEF2596
:103C5000E0FDEE33FC1203537BD07A0F79497840B4
:103C600012011EE4FBFA7934784312022712443B16
:103C70007B857AEB791D784112011EC004C005C016
:103C800006C007E4FFFE7D707C41900000E0F8A3D1
:103C9000E0F9A3E0FAA3E0FB12011EA804A905AA1B
:103CA00006AB07900158E0FCA3E0FDA3E0FEA3E013
:103CB000FF120029E4FBFA7980784012011ED0033C
:103CC000D002D001D00012002DC004C005C006C033
:103CD000079000DAE024AFFF9000D9E034FFFE7CCB
:103CE000017D681207747D6D1207DBAC06AD07EC31
:103CF0001203537BD07A0F7949784012011EE4FBFE
:103D0000FA793478431202271244257BC37AF57975
:103D1000F0784012011EA804A905AA06AB07D00737
:103D2000D006D005D004120029C004C005C006C0CA
:103D3000079000DAE024AFFF9000D9E034FFFE7C6A
:103D4000017D681207747D6D1207DBAC06AD07ECD0
:103D50001203537BD07A0F7949784012011EE4FB9D
:103D6000FA7934784312022712443BE4FBFA79C013
:103D7000783F12011EA804A905AA06AB07D007D0F8
:103D800006D005D004120029E4FBFA7970784212BB
:103D900002279000D01209E59006E2E0FF125B7E58
:103DA000AC07E4120358E4FBFA7970784212022758
:103DB000C004C005C006C0079006E1E0FF125B7EAC
:103DC000AC07E4120358D003D002D001D000120097
:103DD0002D9000D0E0F8A3E0F9A3E0FAA3E0FB12F5
:103DE000002D9000ED1209E57FD07E0F7D497C40CB
:103DF0009000CCE0F8A3E0F9A3E0FAA3E0FB120105
:103E00001EE4FBFA79347843120227124425C004D9
:103E1000C005C006C0077FD07E0F7D497C40900161
:103E20005CE0F8A3E0F9A3E0FAA3E0FB12011EE4D2
:103E3000FBFA79347843120227124425D003D002CA
:103E4000D001D00012011EC004C005C006C007E4A6
:103E5000FFFE7D407CC19000EDE0F8A3E0F9A3E017
:103E6000FAA3E0FB12002D7BD37A7E793C784212D4
:103E7000011EE4FBFA79347843120227124425D05C
:103E800003D002D001D00012011EC004C005C0063C
:103E9000C0077FD07E0F7D497C409000CCE0F8A326
:103EA000E0F9A3E0FAA3E0FB12011EE4FBFA793487
:103EB000784312022712443BC004C005C006C00765
:103EC0007FD07E0F7D497C4090015CE0F8A3E0F953
:103ED000A3E0FAA3E0FB12011EE4FBFA7934784375
:103EE00012022712443BD003D002D001D0001201AD
:103EF0001ED003D002D001D00012002D1258AE22E5
:1015F500E4FBFA7970784290054DE0FCA3E0FDA389
:10160500E0FEA3E0FF120227900549E0F8A3E0F908
:10161500A3E0FAA3E0FB12002DE4FBFA797078420F
:10162500120227900545E0F8A3E0F9A3E0FAA3E04C
:10163500FB12002D9005601209E5900542E024F2A9
:10164500FF900541E034FFFE7C007D0C1207DBEEC8
:101655003395E0FDFC9005801209E5E47F0CFEFD65
:10166500FC900580E0F8A3E0F9A3E0FAA3E0FB1203
:10167500087EA804A905AA06AB07900542E024FE4A
:10168500FF900541E034FFFE3395E0FDFCC3EF9B81
:10169500FFEE9AFEED99FDEC98FCE47B6F7A01F97B
:1016A500F812087EE47B0CFAF9F81257EAC004C078
:1016B50005C006C007900540E024C0FF90053FE047
:1016C5003412FE3395E0FDFC900580E0F8A3E0F9C7
:1016D500A3E0FAA3E02FFFEA3EFEE93DFDE83CFC6E
:1016E500E47BB57A05F9F812087EE47B04FAF9F88B
:1016F5001257EAD003D002D001D000EF2BFFEE3A0B
:10170500FEED39FDEC38FCC004C005C006C00790ED
:101715000540E02424FF90053FE03413FE3395E0B7
:10172500FDFC900580E0F8A3E0F9A3E0FAA3E02F23
:10173500FFEA3EFEE93DFDE83CFCE47B64FAF9F88E
:101745001257EAE47B03FAF9F812087EE47B04FAFF
:10175500F9F81257EAA804A905AA06AB07D007D0DD
:1017650006D005D004C3EF9BFBEE9AFAED99F9EC90
:1017750098F8900543E0FEA3E0FFEE3395E0FDFC0D
:10178500EB2FFFEA3EFEE93DFDE83CFCEF24B5FF0B
:10179500EE3482FEED34FFFDEC34FFFC900584123F
:1017A50009E5900584E0FCA3E0FDA3E0FEA3E0FFCE
:1017B500EC12034EE4FBFAF978BF12002DC004C009
:1017C50005C006C007E4FBFA79C07841900560E0E2
:1017D500FCA3E0FDA3E0FEA3E0FF120227D003D0A7
:1017E50002D001D00012002D90057C1209E57F641E
:1017F5007EA17D157CCA90057CE0F8A3E0F9A3E005
:0D180500FAA3E0FB12002D90055C1209E52E
:101812007F787E3E7D887C3A90055CE0F8A3E0F913
:10182200A3E0FAA3E0FB12011EA804A905AA06ABD5
:10183200077F467E257D097C40120029900584128F
:1018420009E57FDE7EEC7D8C7C3C90055CE0F8A3B4
:10185200E0F9A3E0FAA3E0FB12011E7B5B7AA47914
:101862009C784012002D90057C1209E57F257EEBC5
:101872007D8C7C3C90055CE0F8A3E0F9A3E0FAA340
:10188200E0FB12011E7B927AAE79C7784012002DDE
:101892009005801209E5900580E0FCA3E0FDA3E03D
:1018A200FEA3E0FF12443B7B4A7ADF7908783D12BF
:1018B200011E90057CE0F8A3E0F9A3E0FAA3E0FBA7
:1018C20012002DC004C005C006C007E4FFFEFD7C67
:1018D20040900580E0F8A3E0F9A3E0FAA3E0FB1250
:1018E200011E12443B7BEF7AF179B6783912011E60
:1018F200D003D002D001D00012002D7B297AD179F9
:10190200ED78B812002DC004C005C006C0079005CE
:1019120084E0FCA3E0FDA3E0FEA3E0FF12443B7BD6
:10192200EB7A4979AA783712011EA804A905AA06FA
:10193200AB07D007D006D005D00412002990056469
:101942001209E5900584E0FCA3E0FDA3E0FEA3E01C
:10195200FF1244257B2D7A187926783812011EC091
:1019620004C005C006C0077FEC7E827DD57C319025
:10197200055CE0F8A3E0F9A3E0FAA3E0FB12011E84
:10198200A804A905AA06AB077F9D7E747DD17C3E83
:10199200120029D003D002D001D00012002D9005F0
:0419A200681209E5D9
:1019A600900564E0FCA3E0FDA3E0FEA3E0FF124483
:1019B6003B90057C1209E5900568E0FCA3E0FDA3D9
:1019C600E0FEA3E0FF12442590057CE0F8A3E0F9D1
:1019D600A3E0FAA3E0FB12011E9005741209E5903C
:1019E6000564E0FCA3E0FDA3E0FEA3E0FF124425AE
:1019F6009005781209E5900578E0FCA3E0FDA3E0E8
:101A0600FEA3E0FF9005A01209E5900574E0FCA393
:101A1600E0FDA3E0FEA3E0FF1251C590056C12099C
:101A2600E5E4FFFEFDFC90056CE0F8A3E0F9A3E019
:101A3600FAA3E0FB1202C4501F90056CE0FCA3E081
:101A4600FDA3E0FEA3E0FF7BD07A0F79C9784012B0
:101A5600002D90056C1209E5900568E0FCA3E0FDF9
:101A6600A3E0FEA3E0FF12443B90057CE0F8A3E070
:101A7600F9A3E0FAA3E0FB12011E1258AE9005701E
:031A86001209E55D
:101A89007FE07E927D867C3D90055CE0F8A3E0F9DD
:101A9900A3E0FAA3E0FB12011E7B4D7A5179D678B7
:101AA9004012002D900560E0F8A3E0F9A3E0FAA345
:101AB900E0FB12002D90057C1209E5E4FFFE7D7024
:101AC9007C4190057CE0F8A3E0F9A3E0FAA3E0FBF0
:101AD90012011E900551E0F8A3E0F9A3E0FAA3E092
:101AE900FB12002D7B2E7AFA798E783C12011E901A
:101AF90005801209E590056CE0F8A3E0F9A3E0FA86
:101B0900A3E0FB900580E0FCA3E0FDA3E0FEA3E0D9
:101B1900FF1200299005881209E57F2E7EFA7D8E35
:101B29007C3C900555E0F8A3E0F9A3E0FAA3E0FBBB
:101B390012011E9005841209E5900584E0FCA3E0DA
:101B4900FDA3E0FEA3E0FF12442590058C1209E5F0
:101B5900900584E0FCA3E0FDA3E0FEA3E0FF1244AE
:101B69003B9005901209E5900588E0FCA3E0FDA3F0
:101B7900E0FEA3E0FF1244259005941209E59005C3
:101B890070E0FCA3E0FDA3E0FEA3E0FF124425C042
:101B990004C005C006C007900594E0FCA3E0FDA3BE
:101BA900E0FEA3E0FF90058CE0F8A3E0F9A3E0FADA
:101BB900A3E0FB12011ED003D002D001D000120114
:101BC9001EC004C005C006C007900570E0FCA3E074
:101BD900FDA3E0FEA3E0FF12443B900590E0F8A3CB
:101BE900E0F9A3E0FAA3E0FB12011ED003D002D072
:101BF90001D00012002D1257A0900559E0FBA3E077
:101C0900FAA3E0F912094F900588E0FCA3E0FDA3CF
:101C1900E0FEA3E0FF12443B12033D900574120954
:101C2900E5900570E0FCA3E0FDA3E0FEA3E0FF1250
:101C3900447790058CE0F8A3E0F9A3E0FAA3E0FB70
:101C490012011EC004C005C006C007900594E0FC3F
:101C5900A3E0FDA3E0FEA3E0FF900590E0F8A3E078
:101C6900F9A3E0FAA3E0FB12011EA804A905AA063C
:101C7900AB07D007D006D005D0041200299005780B
:101C89001209E5900578E0FCA3E0FDA3E0FEA3E0DE
:101C9900FF9005A01209E5900574E0FCA3E0FDA3FF
:101CA900E0FEA3E0FF1251C5900559E0FBA3E0FA5D
:101CB900A3E0F990000412096990000412091FE4D5
:101CC900FBFAF9F81202C4602F402D900559E0FB88
:101CD900A3E0FAA3E02404F9E43AFAC003C002C07D
:101CE900011208FF7BD07A0F79C9784012002DD0F4
:101CF90001D002D00312094F900559E0FBA3E0FA85
:101D0900A3E02404F9E43AFAC003C002C0011208AE
:101D1900FF7B2E7AFA798E783C120227D001D00205
:101D2900D00312094F900559E0FBA3E0FAA3E0F9AB
:101D39001208FF12443B7B0D7AA0793278381201E0
:101D49001E9005981209E5900559E0FBA3E0FAA356
:101D5900E0F91208FF900598E0F8A3E0F9A3E0FA8A
:101D6900A3E0FB12002D7B2E7AFA798E783C1202C1
:0F1D790027900559E0FBA3E0FAA3E0F912094F08
:0E1D8800900570E0FCA3E0FDA3E0FEA3E0FFE9
:011D9600222A
:105B8F00C2A4C2A5C2A64391015392FEE4F5974366
:0A5B9F009D01F5BDF5BE75BC802226
:1059A300EF4488F5BC0000E5BC30E4FB53BCEFAF2B
:1059B300BD7E00ADBE7C00EF7802C333CE33CED8BC
:0959C300F9FFED5403FDEF4DFF67
:0159CC0022B8
:1059F500252E34660041542B43495053454E443DB2
:105A0500390D0A004A0D0A00570D0A004D0D0A000E
:085A15004C0D0A00540D0A00BB
:104F1000E49006CFF0A3F09006CDF0A3F09006CF7A
:104F2000A3E0FF1259A3AC06AD079006CEE025E042
:104F3000FF9006CDE033FE74B92FF58274063EF57E
:104F400083ECF0A3EDF09006CEE004F0700690063E
:104F5000CDE004F0C39006CEE0940A9006CDE06464
:104F600080948040B89006CDE4F0A304F09006CD84
:104F7000E0FEA3E0FFD39409EE648094805047EFF5
:104F800025E0FFEE33FE74B92FF58274063EF583FB
:104F9000E0FEA3E0FF9006B9E0FCA3E0FDC3EF9DB7
:104FA000FFEE9CFE125CE8D3EF941EEE64809480CA
:104FB0004004E4FEFF229006CEE004F070AF9006BD
:0A4FC000CDE004F080A77E007F0121
:014FCA0022C4
:0B1D97009005AFEBF0A3EAF0A3E9F029
:101DA200E49005C0F0A31209F13F000000E49006A0
:101DB20076F0A3F09004501209F1000000009004A4
:101DC200A81209F1000000001208FFE4FBFA79A052
:101DD200784112002D9005C51209E5E4900678F0CD
:101DE200A3F0900678E0FEA3E0FFC39451EE648076
:101DF20094805025EF25E0FFEE33FE74D22FF5825A
:101E020074053EF583E4F0A3F0900679E004F070E7
:101E1200D1900678E004F080C9E4900678F0A3F04F
:101E2200E490067AF0A3F090067AE0FEA3E0FFC306
:101E32009405EE648094805035EF4E7006900676DD
:101E4200F0A3F09005C0E0FF1259A3900677E02FAF
:101E5200F0900676E03EF07F027E00125A969006DF
:101E62007BE004F070C190067AE004F080B990063D
:101E720076E0FEA3E0FF7C007D051207DBAC06AD39
:101E820007900679E025E0FF900678E033FE74D2F1
:101E92002FF58274053EF583ECF0A3EDF090051C5E
:101EA20074FFF0A37459F0A374F5F09005C5E0FC3B
:101EB200A3E0FDA3E0FEA3E0FF90051F1209E57B6E
:101EC200017A0579C9122FBC7BFF7A5979FA125827
:101ED200E97FC87E00125A967B017A0579C91258A9
:101EE200E97BFF7A5A79091258E97F907E01125AEA
:101EF2009690051C74FFF0A37459F0A374F5F0904A
:101F02000679E025E0FF900678E033FE74D22FF5E3
:101F12008274053EF583E0FCA3E0FDEC120353E47A
:101F2200FBFA79807844120227E4FBFA79A0784020
:101F320012011E90051F1209E57B017A0579C9126B
:101F42002FBC7BFF7A5979FA1258E97FC87E0012BA
:101F52005A967B017A0579C91258E97BFF7A5A7938
:101F62000D1258E97FC87E00125A96E4FFFEFDFC6E
:101F7200900450E0F8A3E0F9A3E0FAA3E0FB120218
:101F8200C460369004D3E0FCA3E0FDA3E0FEA3E02E
:101F9200FF900450E0F8A3E0F9A3E0FAA3E0FB12FB
:101FA20002C4500590045080039004D3E0FCA3E0E7
:101FB200FDA3E0FEA3E0FF800E9004D3E0FCA3E0CB
:101FC200FDA3E0FEA3E0FF9004501209E59004D3C4
:101FD200E0FCA3E0FDA3E0FEA3E0FF9004A8E0F88C
:101FE200A3E0F9A3E0FAA3E0FB1202C460074005F4
:101FF2009004A880039004D3E0FCA3E0FDA3E0FEDC
:10200200A3E0FF9004A81209E57F0812582E7F056D
:1020120012582E7F411254B07F441254B07F4312A3
:1020220054B07F3A1254B0900679E025E0FF900652
:1020320078E033FE74D22FF58274053EF583E0FC1E
:10204200A3E0FDEC120353E4FBFA79807844120218
:1020520027E4FBFA79A0784012011E1246CB7F5684
:102062001254B07F101254B07FC87E00125A96905C
:10207200051C74FFF0A37459F0A374F5F09005AF3A
:10208200E0FBA3E0FAA3E0F91208FF90051F120992
:10209200E57B017A0579C9122FBC7BFF7A5979FA5F
:1020A2001258E97FC87E00125A967B017A0579C9D7
:1020B2001258E97BFF7A5A79111258E97FC87E00DB
:1020C200125A9690051C74FFF0A37459F0A374F58C
:1020D200F09004D3E0FCA3E0FDA3E0FEA3E0FF90B8
:1020E200051F1209E57B017A0579C9122FBC7BFF16
:1020F2007A5979FA1258E97FC87E00125A967B0102
:102102007A0579C91258E97BFF7A5A79151258E98A
:102112007FC87E00125A969005C1E0FCA3E0FDA3A1
:10212200E0FEA3E0FFD20B1259CD9005AFE0FBA376
:10213200E0FAA3E0F9C003C002C0011208FFE4FB09
:10214200FAF9783F12002DD001D002D00312094FC4
:102152007FC87E00125A9690051C7401F0A3740584
:10216200F0A374BEF0A37401F0A37405F0A374BDD0
:10217200F0A37401F0A37405F0A374BCF0A374017E
:10218200F0A37405F0A374BBF07B017A0579BF124A
:1021920055979005BCE0FF125B7EAC07E412035832
:1021A200E4FBFA79707842120227C004C005C00627
:1021B200C0079005BDE0FF125B7EAC07E412035836
:1021C200D003D002D001D00012002DC004C005C03F
:1021D20006C0079005BBE0547FFF125B7EAC07E4AC
:1021E200120358E4FBFA79617845120227D003D032
:1021F20002D001D00012002D90051F1209E59005B2
:102202001C74FFF0A37459F0A374F5F07B017A05F6
:1022120079C9122FBC7BFF7A5979FA1258E97FC823
:102222007E00125A967B017A0579C91258E97BFF22
:102232007A5A79191258E97FC87E00125A96900686
:1022420079E004F07006900678E004F0C390067915
:10225200E09451900678E0648094805003021E223C
:102262007FE87E03125A96900678E07004A3E06439
:1022720051600302248A7B017A0579D2125262905C
:102282000674EEF0A3EFF0E025E0FF900674E03371
:10229200FE74D22FF58274053EF583E0F9A3E0FFC8
:1022A2009005B2E0FBA3E0FAA3E0C98FF012085F49
:1022B200900622E0F9A3E0FF9005B5E0FBA3E0FA67
:1022C200A3E0C98FF012085F900674E0FEA3E0FF5E
:1022D200C374539FFDE49EFC1203539005C1E0F8C2
:1022E200A3E0F9A3E0FAA3E0FB12011EC20B12590C
:1022F200CD9005AFE0FBA3E0FAA3E0F9C003C00272
:10230200C0011208FFC004C005C006C007900674D1
:10231200E0FEA3E0FFC374539FFDE49EFC1203534F
:102322009005C1E0F8A3E0F9A3E0FAA3E0FB1201F3
:102332001EA804A905AA06AB07D007D006D005D06F
:1023420004120029D001D002D00312094F90051CBB
:1023520074FFF0A37459F0A374F5F09005AFE0FB9D
:10236200A3E0FAA3E0F91208FF90051F1209E57B2A
:10237200017A0579C9122FBC7BFF7A5979FA125872
:10238200E97FC87E00125A967B017A0579C91258F4
:10239200E97BFF7A5A79111258E97FC87E00125AF6
:1023A2009690051C7401F0A37405F0A374BEF0A30B
:1023B2007401F0A37405F0A374BDF0A37401F0A33B
:1023C2007405F0A374BCF0A37401F0A37405F0A328
:1023D20074BBF07B017A0579BF1255979005BCE07A
:1023E200FF125B7EAC07E4120358E4FBFA797078C3
:1023F20042120227C004C005C006C0079005BDE016
:10240200FF125B7EAC07E4120358D003D002D00166
:10241200D00012002DC004C005C006C0079005BB45
:10242200E0547FFF125B7EAC07E4120358E4FBFA30
:1024320079617845120227D003D002D001D0001270
:10244200002D90051F1209E590051C74FFF0A3747E
:1024520059F0A374F5F07B017A0579C9122FBC7B80
:10246200FF7A5979FA1258E97FC87E00125A967B90
:10247200017A0579C91258E97BFF7A5A79191258FB
:08248200E97FC87E00125A96A2
:01248A00222F
:10526200E4FDFC9006EDF0A37428F0E4A3F0A3F0B3
:105272009006EFE0FEA3E0FFC39451EE940050735A
:10528200EF25E0FFEE338F82F583120827FFD3ED7F
:105292009FEC95F04006AE04AF0580169006F0E054
:1052A20025E0FF9006EFE0338F82F583120827FF97
:1052B200AEF0AC06AD079006F0E025E0FF9006EFF9
:1052C200E0338F82F583120827B50516ECB5F0128C
:1052D2004D600F9006EFE0FFA3E09006EDCFF0A344
:1052E200EFF09006F0E004F070869006EFE004F034
:0B52F2000252729006EDE0FEA3E0FF08
:0152FD00228E
:0B3F000090067CEFF0A3EDF0A3EBF0C7
:103F0B009006901209F100000000E4900694F0A3D3
:103F1B00F0A3F0A3F090068DE0FBA3E0FAA3E0F989
:103F2B001208FF9006981209E5900681E0FBA3E0CA
:103F3B00FAA3E0F91208FF90069C1209E59006849B
:103F4B00E0FBA3E0FAA3E0F9E4F5F012085F9006BA
:103F5B008AE0FBA3E0FAA3E0F9E4F5F012085F9026
:103F6B000687E0FBA3E0FAA3E0F9120A22000000A7
:103F7B00009004501209F1000000009004A81209EF
:103F8B00F100000000124F10EF4E70030240C19081
:103F9B00067FE090051CF0900680E090051DF0A3D5
:103FAB007401F0A37406F0A3749CF0A31209F1C181
:103FBB00A0000090067EE0FB90067DE0FD90067C65
:103FCB00E0FF12248BE4FFFE7DA07C4190069CE079
:103FDB00F8A3E0F9A3E0FAA3E0FB12002D9006870B
:103FEB00E0FBA3E0FAA3E0F912094F9005B27401CC
:103FFB00F0A37406F0A37494F0A37401F0A37406F9
:10400B00F0A37496F0A37401F0A37406F0A3749854
:10401B00F07B017A06799C121D97900698E0FCA321
:10402B00E0FDA3E0FEA3E0FF90068DE0FBA3E0FA2A
:10403B00A3E0F912094F900694E0F9A3E0FF900674
:10404B0084E0FBA3E0FAA3E0C98FF012085F9006AF
:10405B0096E0F9A3E0FF90068AE0FBA3E0FAA3E069
:10406B00C98FF012085F900687E0FBA3E0FAA3E08C
:10407B00F91209C590069CE0FCA3E0FDA3E0FEA3AA
:10408B00E0FF1200299006901209E590069CE0FCD7
:10409B00A3E0FDA3E0FEA3E0FF900681E0FBA3E01D
:1040AB00FAA3E0F912094F900690E0FCA3E0FDA300
:0B40BB00E0FEA3E0FF22E4FFFEFDFC9E
:0140C60022D7
:105A6B00C3EC64809480401CED25E0FFEC338F8207
:105A7B00F583120827640145F07005AF05AE0422CB
:045A8B00E4FEFF2214
:015A8F0022F4
:0D594D007F027E0012595AD2CC7F027E00EC
:10595A00EF1FAA0670011E4A6013E4FCFDC3ED9412
:0D596A0009EC940050EA0DBD00010C80F026
:01597700220D
:015D2F002251
:0F5C8800D2CCD2C7125956C2C7125956C2CC221B
:105C1800C2CCC2C7125956D2CCC2C77F047E00126A
:055C2800595AD2C72209
:105BD800E425E0FBC2CC12595630C704EB4401FB64
:055BE800125954AF0347
:015BED002295
:055D230012594DC2CC35
:015D28002258
:0E5C9700C2CCD2C712594DC2CC125956C2C748
:015CA50022DC
:055A1D00F9120735FF3E
:025A2200A907D2
:105A2400E4FBC2CCE930E704D2C78002C2C71259F2
:0F5A340056D2CCE925E0F91259560BEBB408E332
:015A43002240
:104FCB0090051DEBF0A3EAF0A3E9F0125C887F01DA
:104FDB007E0012595A7F40125A22125BD8EF701280
:104FEB0090051DE0FBA3E0FAA3E0F912071CFF12EA
:104FFB005A22125BD8EF701090051DE0FBA3E0FA6C
:10500B00A3E0900001125A1D125BD8EF70109005AF
:10501B001DE0FBA3E0FAA3E0900002125A1D125B05
:10502B00D8EF701190051DE0FBA3E0FAA3E0F99017
:10503B000003125A1E125BD8EF701190051DE0FB96
:10504B00A3E0FAA3E0F9900004125A1E125BD8EF0A
:10505B00701190051DE0FBA3E0FAA3E0F9900005A9
:0D506B00125A1E125BD8EF7003125C18225F
:0D5978007F057E00125985D2C37F057E0099
:10598500EF1FAA0670011E4A6013E4FCFDC3ED94E7
:0D59950004EC940050EA0DBD00010C80F000
:0159A20022E2
:105606007B6053B3F143B407C2C1125981E49005DC
:1056160019F0A3F0C2C3125981EB30E704D2C2805D
:1056260002C2C2125978EB25E0FB90051AE004F09D
:105636007006900519E004F0C390051AE0940890EE
:105646000519E06480948040CBD2C17F0A7E0012A7
:095656005985125124EF20E0F9FE
:01565F002228
:105525007F327E001259859006DCE0FBA3E0FAA3EA
:10553500E0F91208FFEF2401FFE43EFEE43DFDE43F
:055545003CFC12094FBF
:10554A007B06C2C1E4900519F0A3F0C2C3125981C7
:10555A00EB30E704D2C28002C2C2125978EB25E0CE
:10556A00FB90051AE004F07006900519E004F0C3F8
:10557A0090051AE09408900519E06480948040CB65
:0C558A00D2C1125981125124EF20E0F927
:0155960022F2
:074B7B00E090051EF07F022F
:024B8200AB077F
:104B8400C2C1125981E490051FF0A3F0C2C31259A7
:104B940081EB30E704D2C28002C2C2125978EB25FD
:104BA400E0FB900520E004F0700690051FE004F09F
:104BB400C3900520E0940890051FE0648094804031
:104BC400CBE490051FF0A3F0C2C312598190051ADB
:104BD400A3E0FDA3A3E4FFFEED5480FDE4FCFBFA97
:104BE4007980F8C31208DB7004D2C28002C2C212F8
:104BF400597890051AE0FCA3E0FDA3E0FEA3E0FFD2
:104C040078011208EC90051A1209E5900520E004D9
:104C1400F0700690051FE004F0C3900520E094189E
:104C240090051FE064809480409EE490051FF0A3EB
:104C3400F0C2C312598190051EE030E704D2C2804D
:104C440002C2C212597890051EE025E0F0900520BA
:104C5400E004F0700690051FE004F0C3900520E026
:104C6400940890051FE06480948040C5D2C1125915
:084C740081125124EF20E0F948
:014C7C002215
:024A6B00AB0797
:104A6D00E490051EF0C2C17F05FE125985E4A3F046
:104A7D00A3F0C2C3125981EB30E704D2C28002C247
:104A8D00C2125978EB25E0FB900520E004F070068A
:104A9D0090051FE004F0C3900520E0940890051FD9
:104AAD00E06480948040CBE490051FF0A3F0C2C376
:104ABD0012598190051AA3E0FDA3A3E4FFFEED5466
:104ACD0080FDE4FCFBFA7980F8C31208DB7004D298
:104ADD00C28002C2C212597890051AE0FCA3E0FD13
:104AED00A3E0FEA3E0FF78011208EC90051A12096D
:104AFD00E5900520E004F0700690051FE004F0C37A
:104B0D00900520E0941890051FE064809480409EED
:104B1D007F0A7E00125985D2C47F027E001259850C
:104B2D00E490051FF0A3F090051EE025E0F012596A
:104B3D007FC2C312598130C404E04401F0900520B6
:104B4D00E004F0700690051FE004F0C3900520E02E
:104B5D00940890051FE06480948040CBD2C1125917
:0D4B6D0081125124EF20E0F990051EE0FFB9
:014B7A002218
:10512400E4FB900521F0A3F0A3F07905C2C17F054B
:10513400FE125985E4900522F0A3F0C2C3125981EE
:10514400E930E704D2C28002C2C2125978E925E0EC
:10515400F9900523E004F07006900522E004F0C302
:10516400900523E09408900522E06480948040CB6D
:105174007F0A7E00125985D2C47F027E00125985AF
:10518400E4900522F0A3F0EB25E0FB12597FC2C3A3
:1051940012598130C404EB4401FB900523E004F070
:1051A4007006900522E004F0C3900523E094089073
:1051B4000522E06480948040CED2C1125981AF03AD
:0151C40022C8
:1042540012554A9006DCE0FBA3E0FAA3E0F9120849
:10426400FF90051A1209E59006D1124B7B9006DCEB
:10427400E0FBA3E0FAA3E0F91208FFEF2401FFE456
:104284003EFEE43DFDE43CFC12094F7F327E001209
:10429400598512554A9006DCE0FBA3E0FAA3E0F945
:1042A4001208FF90051A1209E59006D2124B7B12F0
:1042B40055259006DCE0FBA3E0FAA3E0F91208FF21
:1042C40090051A1209E59006D3124B7B12552590DE
:1042D40006DCE0FBA3E0FAA3E0F91208FF90051A5C
:1042E4001209E59006D4124B7B1255259006DCE0AA
:1042F400FBA3E0FAA3E0F91208FF90051A1209E5FE
:104304009006D5124B7B1255259006DCE0FBA3E00A
:10431400FAA3E0F91208FF90051A1209E59006D6EF
:10432400124B7B1255259006DCE0FBA3E0FAA3E0D8
:10433400F91208FF90051A1209E59006D7124B7B73
:104344001255259006DCE0FBA3E0FAA3E0F912087D
:10435400FF90051A1209E59006D8124B7B125525D9
:104364009006DCE0FBA3E0FAA3E0F91208FF900555
:104374001A1209E59006D9124B7B1255259006DCDA
:10438400E0FBA3E0FAA3E0F91208FF90051A120972
:10439400E59006DA124B7B1255259006DCE0FBA370
:1043A400E0FAA3E0F91208FF90051A1209E5900655
:1043B400DB124B7B7F327E001259859006DCE0FBDA
:1043C400A3E0FAA3E0F91208FFEF2401FFE43EFEA4
:0943D400E43DFDE43CFC02094F4C
:10591C00D296C294C2957F0A7E00125A96D296D223
:10592C0094D2957F0A7E00125A96C2967F0A7E0008
:10593C00125A96C294C2957F0A7E00125A96D2953C
:01594C002238
:0D5CC20053B2FB43B104C288D2A8D2AF2276
:10570B0041542B43495053544152543D225443501E
:10571B00222C223139322E3136382E31312E323085
:10572B0033222C383038300D0A0041542B4349506A
:10573B0053454E443D31360D0A0048656C6C6F2065
:0B574B0066726F6D204553500D0A0080
:105C7700759850438E9575D7D875D6FFD2ACD2AFED
:015C870022FA
:1058E90090051CEBF0A3EAF0A3E9F090051CE0FB9E
:1058F900A3E0FAA3E0F912071C601790051CA3E4C2
:1059090075F001120811A9F0FA12071CFF125D11B6
:0359190080D92210
:065D2900EFC4540FFF223D
:05000600EF540FFF2282
:015D30002250
:05001E00EF2430FF2279
:105BC100124D72EF75F00A84FEEF75F00A84AFF0A2
:065BD100EEC454F04FFF8A
:015BD70022AB
:095D1A007BFF7A57790B0258E96E
:105AB400900519EBF0A3EAF0A3E9F07BFF7A57799C
:105AC400351258E97FE87E03125B397BFF7A5779F8
:045AD400450258E946
:0300000002539810
:0C539800787FE4F6D8FD7581210253DF18
:100026000203F8E86480F8E933E83360110460F00D
:10003600ED33EC337009E8FCE9FDEAFEEBFF220440
:1000460060DED3EB9FEA9EE99DE8C2E78CF0C2F73B
:1000560095F0400CE8CCF8E9CDF9EACEFAEBCFFB07
:100066001203C385D0F05804700320D5B3E804709A
:10007600075002B2D502040292D5EC0460F7E4CC34
:10008600C0E0C398F8603B94186008400DD0E0FBD0
:100096000203DAE4FBFAC9FC8028E830E406E4C986
:1000A600FBE4CAFCE830E305E4C9CACBFCE8540724
:1000B6006010F8C3E913F9EA13FAEB13FBEC13FC2F
:1000C600D8F130F52FC3E49CFCEF9BFFEE9AFEEDD2
:1000D60099FDD0E0FBEF4E4D4C701222DB0302037C
:1000E600FFEC2CFCEF33FFEE33FEED33FDED30E796
:1000F600EB0203DAEF2BFFEE3AFEED39FDD0E0FB23
:1001060050130BBB0003020402ED13FDEE13FEEFCA
:0801160013FFEC13FC0203DAF5
:10011E00EC4D6011E8497017ED33EC3304600DE4DB
:10012E00FCFFFEFD22E933E8330470F80203F812F7
:10013E0003C358046009E4CC2481500628500902F8
:10014E0004022840030203FFC0E0EB4A7044B9806A
:10015E0006D0E0FB0203EEEF4E701CBD8008EBFFF5
:10016E00EAFEE9FD80EBE98DF0A4FEE5F002020760
:10017E00E9CDF9EAFEEBFFEF89F0A4FCE5F0CE89BC
:10018E00F0A42EFFE435F0CD89F0A42DFEE435F079
:10019E008067EF4E7005BD80D780C3EF8BF0A4ACA7
:1001AE00F0EE8BF0A42CFCE435F0F8EF8AF0A42CE2
:1001BE00E5F038FCE433CB8DF0A42CFCE5F03BF8F5
:1001CE00EE8AF0A42CFCE5F038F8E433CF89F0A4E5
:1001DE002CFCE5F038CF3400CE89F0A42FFFE5F0EB
:1001EE003EFEE433C98DF0A42EFEE5F039CD8AF043
:1001FE00A42FFFE5F03EFEE43DFD33D0E0FB5007BB
:10020E000BBB000F020402EC2CFCEF33FFEE33FEAF
:06021E00ED33FD0203DADE
:10022400020402EC5D046005E8590470030203F85B
:100234001203C3580460F6EC4860F2EC7004FDFE4F
:10024400FF22C860DB2481C85009C39860025006AD
:100254000203FF9850CAF582E9294B4A7005AB8224
:100264000203EE75F0007C1A7880C3EF9BEE9AEDE2
:1002740099400DC3EF9BFFEE9AFEED99FDE842F025
:10028400DC23ACF0D0E0FFD0E0FED0E0FDAB822078
:10029400E7101BEB60BAEC2CFCEF33FFEE33FEED02
:1002A40033FD0203DAE803F830E705C0F075F00027
:1002B400EF2FFFEE33FEED33FD40B830E7C280AAE6
:1002C40074F8CC6480CCC86480C8F58204604FC3E1
:1002D400EB9FF5F0EA9E42F0E99D42F0E89C45F080
:1002E400603C501DE5825FFFE582D313CB5BCBF40A
:1002F4002B5582FB50280ABA002409B90020088033
:100304001DE5825BFBE582D313CF5FCFF4C3132FCC
:100314005582FF50090EBE00050DBD00010CC3EB54
:100324009FF5F0EA9E42F0E99D42F0E89C45F060BA
:0903340007CC4820E701B3EC22DC
:10033D00ED33EC33600A047003BD8004ECB2E7FCCE
:01034D00228D
:10034E0075F020800E75F010800575F0087D007E2A
:10035E00007F003392D530D5031208CDEC33401018
:10036E00EF33FFEE33FEED33FDEC33FCD5F0ED2233
:0E037E00E5F0247EA2D513CC92E7CDCEFF226F
:10038C00EDD2E7CD33EC3392D524814006E4FFFE69
:10039C00FDFC22FCE4CFCECDCC24E0501174FF80C8
:1003AC00EDC3CC13CCCD13CDCE13CECF13CF047065
:0703BC00F030D5DE0208CD90
:102F5700E508241CF582E43405F583E00508229092
:102F6700051930080390051CE475F001120A4802A0
:102F7700071C2001E97F2ED2018018EF540F2490FF
:102F8700D43440D4FF30050BEF24BFB41A005003EC
:102F97002461FFE50960021509050CE50C700205BF
:102FA7000B30080E900519E475F001120A48EF027C
:102FB7000762025A447403D2088003E4C208F50882
:102FC700900519120A5FE4F509F50BF50CE50960A0
:102FD700077F20122F9A80F5750AFFC202C201C22D
:102FE70003C204C206C207C209122F66FF700D3062
:102FF70008057F00122FABAF0CAE0B22B4255FC2C2
:10300700D5C205122F66FF24D0B40A00501A75F0F6
:103017000A780930D50508B6FF0106C6A426F620AA
:10302700D5047002D20480D924CFB41A00EF50041B
:10303700C2E5D20502329DD20280C6D20180C0D23B
:103047000380BCD2D580BAD20680B47F20122F9AD3
:103057002003077401B5090040F1122F57FF122F03
:103067009A022FD4D209D2078095122F57FB122F1D
:1030770057FA122F57F94A4B7006799B7A337BFF21
:1030870020032EE509602A7E008E827583001207D1
:103097003560060EEE650A70F0C2D5EBC0E0EAC0F7
:1030A700E0E9C0E0EE1232FED0E0F9D0E0FAD0E07D
:1030B700FB12071CFF60AAEBC0E0EAC0E0E9C0E032
:1030C700122F9AD0E02401F9D0E03400FAD0E0FBC7
:1030D700E50A0460DCD50AD98087D20380A21232C0
:1030E700E060F7E50A700104120427A90A600DE5FC
:1030F7000A600914F50A123388EF60F3EA30E70231
:10310700F404C3995079EAF4250A0430E701E4048A
:10311700F50A800D1232E060C1EA050A250A120499
:1031270027EA900548F030E701E4250A04D50A04A8
:10313700200601141232FEE4C0E0123388900548DD
:10314700E0601320E70714F0122F82802204F0D0EA
:10315700E014C0E07F00122F82E50A6007122F7982
:10316700150A800B300603122F79D0E0022FD4D036
:10317700E00480C41232E0609EE50A04120427903E
:103187000548EAF0E50A2006026001042404123229
:01319700FE39
:1031980074FF04C0E0123388122F82E50A20060269
:1031A8006003122F79D0E0B50AE87F45122F8C9082
:1031B8000548E07F2B30E7047F2DF404C0E0122F90
:1031C8009AD0E075F00A84C0F0122F83D0E0122F55
:1031D80083022FD4791080027908C207C2098008B7
:1031E800D2D5790A8004790AC2D5E50A047002F5B5
:1031F8000AE4FAFDFEFF122F57FC7B082002131287
:103208002F57FD7B1030010A122F57FE122F57FF40
:103218007B20EC3382D592D55013C3E43001069F4E
:10322800FFE49EFEE42002039DFDE49CFCE4CBF851
:10323800C202EC700CCFCECDCCE824F8F870F38045
:1032480017C3EF33FFEE33FEED33FDEC33FCEB3306
:10325800FB994002FB0FD8E9EB300205F8D0E0C437
:1032680048B202C0E00AEC4D4E4F78207B0070C295
:10327800EAB50A0040BCC0E0123300D0F0D0E0202C
:103288000204C4C0E0C4B202C0F0122F83D0F0D54B
:10329800F0EB022FD4120A6830715331DC583042F7
:1032A8004C303E4231E04F31E84431E84930574331
:1032B80031EE55311B46317B4530E54733BB503045
:1032C800462D304A2E306D2B304E23306B2033A4E0
:1032D8002A30064800003065E50AB4FF03750A067F
:1032E800122F57FC122F57FD122F57FE122F57FF80
:1032F800900541020464790AA2D520041430060915
:10330800B910020404B9080104A2D520070250012B
:10331800042003689203B509005034C0E07F2030D0
:1033280004197F30A20372077206500F123357C276
:1033380003C207C206C2097F30800F300603E9C006
:10334800E0122F9A300603D0E0F9D0E0B509CC306E
:1033580006177F30B9100C122F9A7F583005077F57
:10336800788003B90803122F9A3003057F2D022FA6
:103378009A7F202009F87F2B2007F322920380CF21
:103388007F00B40700500B2441F582E43405F5832F
:10339800E0FF22286E756C6C2900D202122F57307C
:1033A80002F8C202780930D50108F60230062D501D
:1033B800434958122F572403B405004001E49033C1
:1033C800B693122F8B743A122F8BD204750904020C
:0233D80031DCE6
:0D5CCF00ED33EC3360065004EC6480FC22E1
:1051C50090059C1209E59005A0E0F8A3E0F9A3E09D
:1051D500FAA3E0FB90059CE0FCA3E0FDA3E0FEA3A1
:1051E500E0FF12022712496990059C1209E5900516
:1051F500A0E030E75990059CE0FCA3E0FDA3E0FEAC
:10520500A3E0FFECC0E0EDC0E0EEC0E0EFC0E0E4FD
:10521500FFFEFDFC90059CE0F8A3E0F9A3E0FAA3EE
:10522500E0FB1202C47BDB600250087A0F794978F3
:105235004080067A0F794978C0D0E0FFD0E0FED0F3
:10524500E0FDD0E0FC12002D90059C1209E59005CB
:0D5255009CE0FCA3E0FDA3E0FEA3E0FF222F
:1043DD003A70FA83BCAAE9E43E81E0F8BF9DE9E6B4
:1043ED003F80000039283C1ABB9969663DA335E32F
:1043FD00BF255DE73FC90FDB418DDBCCC44936EEF0
:10440D0045C9913FC5B0F83D3F800000C317F53455
:10441D00452FFA73C60AFDDD1244E604A2E19201AE
:10442D001420E0159043DD740412056980301244A8
:10443D00E630E102B20120E0EBA883A98290059C51
:10444D001209E5898288839043F174041205698508
:10445D0082F090059C1209A985F08212011EED4C87
:10446D006007300104EC6480FC221244E6C0E0A831
:10447D0083A98290059C1209E58982888390441551
:10448D0074031205698582F090059C1209A985F0C7
:10449D008212011E90059CE0CCF0A3E0CDF0A3E0CC
:1044AD00CEF0A3E0CFF09044057403120569D082DD
:1044BD008582F090059C1209A985F082E58230E095
:1044CD0007120227B2018096EFCBFFEECAFEEDC9AF
:1044DD00FDECC8FC1202278085ED33EC547FCC3304
:1044ED00920124605007D0E0D0E00203F87B837A7C
:1044FD00F97922783E12011EEDF933ECF83324815F
:10450D005011EFFBEEFA12038C12034EECB2E7FCE6
:10451D0012002DED33EC33602F2403F8C313FCEDA3
:10452D0092E7FDE82481E4501FECF8EDF9EEFAEF87
:10453D00FB12038CEF04C2E0FCF582120358ECB2BF
:10454D00E7FC12002DE58203FAED33EC336007141E
:08455D0013FCED92E7FDEA22D8
:1057A000ECC0E0F8EDC0E0F9EEC0E0FAEFC0E0FBDD
:1057B00012011EEC6480FC7B007A007980783F1235
:1057C000002D12507CD0E0FBD0E0FAD0E0F9D0E020
:1057D000F8C0E0120227124969D0E030E70B7840A8
:0A57E00079497A0F7BD912002D22BF
:1058AE00ECC0E0F8EDC0E0F9EEC0E0FAEFC0E0FBCE
:1058BE0012011EEC6480FC7B007A007980783F1226
:1058CE00002D12507CD0E0CFFBD0E0CEFAD0E0CD50
:0B58DE00F9D0E0CCF812022702496963
:104565009004DD1209E5E4FFFE7D807C3F9004DDCB
:10457500E0F8A3E0F9A3E0FAA3E0FB1202C4700699
:104585009004DD0246BF9004DDE0FCA3E0FDA3E05E
:10459500FEA3E0FF12040DFBA3E0FCA3E0FDA3E0F6
:1045A500FEA3E0FF12040DFFB40108E4FFFE7D80C9
:1045B5007C3F22EF64046029EB64046024EBB401C2
:1045C50030E4FFFEFDFC9004E1E0F8A3E0F9A3E090
:1045D500FAA3E0FB1202C460084006E4FFFEFDFCFE
:1045E500229004E11209F1FFFFFFFF9004E102466A
:1045F500BFE49004E5F0A3F0FFFEFDFC9004DDE0D0
:10460500F8A3E0F9A3E0FAA3E0FB1202C4505F901F
:1046150004E1E0FCA3E0FDA3E0FEA3E0FF12038CB0
:104625009004E5EEF0A3EFF0FDCCEECCEC120353D5
:10463500C8ECC8C9EDC9CAEECACBEFCB9004E1E01E
:10464500FCA3E0FDA3E0FEA3E0FF120029E4FBFAD2
:10465500F9F81202C4708A9004DDE0FCA3E0FDA322
:10466500E0FEA3E0FF12033D9004DD1209E590048E
:10467500DDE0FCA3E0FDA3E0FEA3E0FF12485490BB
:1046850004E1E0F8A3E0F9A3E0FAA3E0FB12011EC0
:104695001253369004E11209E59004E6E030E01784
:1046A5009004E1E0FCA3E0FDA3E0FEA3E0FF12031C
:1046B5003D9004E11209E59004E1E0FCA3E0FDA3CF
:0646C500E0FEA3E0FF226D
:1003C300E9D2E7C933E833F892D5EDD2E7CD33EC80
:0703D30033FC5002B2D522F9
:1003DA00EC30E7100FBF000C0EBE00080DBD000484
:1003EA000BEB6014A2D5EB13FCED92E7FD2274FF30
:1003FA00FCFDFEFF22E480F8A2D574FF13FC7D8089
:03040A00E480EF9C
:10040D00ED33EC33601004700FED547F7005740202
:0A041D0092E0227404220422E4227B
:10042700F920E73624F950037907E4F42402FBE5C1
:1004370082158270021583DBF6E024FB501BE9600E
:1004470014E4F0E582158270021583E004F0B40A23
:0D04570008E4F0D9EE7401F00A22C2D522AB
:10046400ED33EC3392D5FA602AB4FF33EDC2E77B67
:10047400FF60067A047989E4227A04799220D5040B
:100484007A04798D224E614E002B494E46002D4947
:100494004E4600E47A08F0A3DAFC7B00740722C01D
:1004A40083C082ECC0E0EDC0E0EEC0E0EFC0E0EA63
:1004B40075F010A4CAABF075F04DA42BFBE435F035
:1004C400FCEA2410FAEB34C5FBEC34D9FCEDC2E7AA
:1004D400FF75F056A4F42411C5F0F434C58FF0A4CC
:1004E4002AE5F03BE43CF020E7141205E6D0E0FFF7
:1004F400D0E0FED0E0FDD0E0FC1202278014F4042A
:100504001205E6D0E0FFD0E0FED0E0FDD0E0FC1222
:10051400011ED082D083E0FAEDD2E7CD33EC332450
:1005240082FBE4C3CF33CFCE33CECD33CD33DBF335
:100534007B0775F00A846004F0A31B0AE5F0F0A3BE
:100544008FF0740AA4FFACF08EF0740AA42CFEACF5
:10055400F050010C8DF0740AA42CFDE435F0F0A3E6
:05056400DBDE7407223C
:10056900C0E0EFFBEEFAEDF9ECF812011ED0E0F570
:10057900F0EFFBEEFAEDF9ECF8120999A3A3A3A3A6
:10058900E8C0E0E9C0E0EAC0E0EBC0E0C0F0120179
:100599001E1209B5A3A3A3A312002DD0F0D0E0FB2E
:0D05A900D0E0FAD0E0F9D0E0F8D5F0D4228F
:1052FE0033DA929E35B16011377FE5FE392184890C
:10530E003AAEC3FF3C1D955B3D6358473E75FDF0BD
:10531E003F3172183F800000C2D50204020203F82A
:10532E00BD80FA50F30203FFED33EC330460F17BE2
:10533E003B7AAA79B8783F12011EED33EC3392D541
:10534E00247B5011A2D570DB500BED448024045009
:10535E0004A2D580CEEFFBEEFAEDF9ECF812038C39
:10536E00EFF582F404FC12035812002DC082905205
:10537E00FE7409120578ED33CC33D0F092D525F0BA
:0A538E00A2D57001C313CC13FD2259
:104820003E9248DA3ECCCCCD3F2AAAAB40000000F5
:104830003F8000003F9837F03FB504F33FD744FC7A
:104840003E3172173EB172173F0515913EDE5BD9BE
:10485000D2008002C200EDD2E7F8CD33EC33047011
:104860000BBD800592D50204020203F840FBD3146D
:1048700060F2F5F07C3FEE7A00C39496C8948B40CA
:10488000230AC89469C8941A401A0AC89468C8943C
:104890001F40110AC8945AC89425400805F07A00B0
:1048A000CDC2E7CDC0F09004E71209E5EA2323C0AA
:1048B000E02430F582E43448F5831209B512002D66
:1048C000ECC0E0EDC0E0EEC0E0EFC0E0120999906E
:1048D00004E71209A9120029D0E0FBD0E0FAD0E0E9
:1048E000F9D0E0B2E7F81202279004E71209E59048
:1048F000482074031205699004E71209A912011EE9
:10490000D0E0600F243CF582E43448F5831209B509
:1049100012002D9004E71209E5D0E0C3947FFDE476
:104920009400FC1203537B187A727931783F12019C
:104930001E9004E71209A912002D30000B7BD97AD2
:094940005B79DE783E12011E22B3
:105078000203F822EDA2E7D2E7F9EC3340F260F33D
:10508800B4FF08ED547F70E8020402F82481C2E0FE
:10509800C0E0F40428FAC313FCED92E7FD90059CE8
:1050A8001209E5EEA2E7E9BA7F02C31334009400BF
:1050B800FA75F091A4E5F013F494FE8AF0A433E5B0
:1050C800F033248CD313FDE492E7FE7F007C3F7518
:1050D8008302ECC0E0F8EDC0E0F9EEC0E0FAEFC002
:1050E800E0FB8583F090059C12098D85F083120200
:1050F80027D0E0FBD0E0FAD0E0F9D0E0F812002D9C
:10510800ED6480FD30E7011CD583C7ED33CC33F85F
:0C511800D0E0A2E71328C313CC13FD2243
:10494900BE1249253E4CCCCDBEAAAAAB3F80000081
:104959003E7ADBB03EED63383F24BC7D3F490FDB37
:10496900ED33ECC2E7CC339201B4FF13ED547F6011
:10497900030203F87FDB7E0F7DC97C3F024A5EC2DA
:1049890002C3947F401E7007EDD2E794904015EF63
:10499900FBEEFAEDF9ECF87F007E007D807C3F129A
:1049A9000227D202ED33EC33248430E705E4C0E07A
:1049B900806B04FAEDD2E754F0C333DAFD540734BF
:1049C900002323C0E0CCC0E0F8EDC0E0F9EEC0E080
:1049D900FAEFC0E0FBE4120358EC24FEFC9005A4B6
:1049E9001209E512011E7B007A007980783F1200D6
:1049F9002D9005A4E0B2E7CCF0A3E0CDF0A3E0CE82
:104A0900F0A3E0CFF0D0E0FBD0E0FAD0E0F9D0E0BD
:104A1900F812002D9005A41209A91202279005A4E5
:104A29001209E590494974031205699005A4120910
:104A3900A912011ED0E0600F2455F582E43449F52E
:104A4900831209B512002D30020B7BDB7A0F79C96D
:104A590078BF12002DED33EC336006ECA20192E72A
:024A6900FC222D
:1005B6003F8000004120000042C80000447A00004D
:1005C600461C400047C35000497424004B189680CF
:1005D6004CBEBC205A0E1BCA6753C21C749DC5AEC6
:1005E600FB60065407601C2323120614EB54386084
:1005F6000912060012060F12011EECF8EDF9EEFACA
:10060600EFCB22EB12060F80F1543803241C900521
:10061600B6FE93FC0EEE93FD0EEE930ECE93FF22E6
:1053A400020BEEE493A3F8E493A34003F68001F226
:1053B40008DFF48029E493A3F85407240CC8C3330A
:1053C400C4540F4420C8834004F456800146F6DFD9
:1053D400E4800B01020408102040809033DAE47E5C
:1053E400019360BCA3FF543F30E509541FFEE493CE
:1053F400A360010ECF54C025E060A840B8E493A395
:10540400FAE493A3F8E493A3C8C582C8CAC583CABF
:10541400F0A3C8C582C8CAC583CADFE9DEE780BE77
:0137F30000D5
:10062600E709F608DFFA8046E709F208DFFA803EB6
:1006360088828C83E709F0A3DFFA8032E309F608A3
:10064600DFFA8078E309F208DFFA807088828C830B
:10065600E309F0A3DFFA806489828A83E0A3F608BF
:10066600DFFA805889828A83E0A3F208DFFA804C99
:1006760080D280FA80C680D4806980F28033801070
:1006860080A680EA809A80A880DA80E280CA8033D9
:1006960089828A83ECFAE493A3C8C582C8CCC58351
:1006A600CCF0A3C8C582C8CCC583CCDFE9DEE78021
:1006B6000D89828A83E493A3F608DFF9ECFAA9F0A0
:1006C600EDFB2289828A83ECFAE0A3C8C582C8CCF6
:1006D600C583CCF0A3C8C582C8CCC583CCDFEADE0F
:1006E600E880DB89828A83E493A3F208DFF980CC71
:1006F60088F0EF60010E4E60C388F0ED2402B4046A
:100706000050B9F582EB2402B4040050AF23234510
:06071600822390067673B9
:10071C00BB010689828A83E0225002E722BBFE02DB
:09072C00E32289828A83E493220E
:10073500BB010CE58229F582E5833AF583E0225079
:1007450006E92582F8E622BBFE06E92582F8E222C3
:0D075500E58229F582E5833AF583E49322DD
:10076200BB010689828A83F0225002F722BBFE0176
:02077200F32270
:10077400EF8DF0A4A8F0CF8CF0A428CE8DF0A42E99
:02078400FE2253
:10078600BC000BBE0029EF8DF084FFADF022E4CC57
:10079600F875F008EF2FFFEE33FEEC33FCEE9DEC20
:1007A600984005FCEE9DFE0FD5F0E9E4CEFD22ED66
:1007B600F8F5F0EE8420D21CFEADF075F008EF2FB0
:1007C600FFED33FD4007985006D5F0F222C398FDA1
:0507D6000FD5F0EA223E
:1007DB00C2D5EC30E709B2D5E4C39DFDE49CFCEE39
:1007EB0030E715B2D5E4C39FFFE49EFE120786C324
:1007FB00E49DFDE49CFC800312078630D507C3E41F
:06080B009FFFE49EFE22A7
:10081100A3F8E0C5F025F0F0E5821582700215839A
:06082100E0C838F0E822F7
:10082700BB0110E58229F582E5833AF583E0F5F00F
:10083700A3E0225009E92582F886F008E622BBFEEC
:100847000AE92582F8E2F5F008E222E5832AF58332
:08085700E993F5F0A3E99322F7
:10085F00BB010A89828A83F0E5F0A3F0225006F7E4
:0F086F0009A7F01922BBFE06F3E5F009F31922E1
:10087E00E88FF0A4CC8BF0A42CFCE98EF0A42CFC19
:10088E008AF0EDA42CFCEA8EF0A4CDA8F08BF0A497
:10089E002DCC3825F0FDE98FF0A42CCD35F0FCEBF6
:1008AE008EF0A4FEA9F0EB8FF0A4CFC5F02ECD39BB
:0F08BE00FEE43CFCEAA42DCE35F0FDE43CFC2228
:1057EA00C2D5E830E70FB2D5E4C39BFBE49AFAE4EA
:1057FA0099F9E498F8EC30E717B2D5125820120A52
:10580A00E0E4C39BFBE49AFAE499F9E498F880038C
:10581A00120AE030D50DE4C39FFFE49EFEE49DFD2D
:04582A00E49CFC22DC
:0E08CD00C3E49FFFE49EFEE49DFDE49CFC223C
:1008DB00EB9FF5F0EA9E42F0E99D42F0E89C45F073
:0108EB0022EA
:1008EC00E8600FEFC333FFEE33FEED33FDEC33FC6A
:0308FC00D8F1220E
:1008FF00BB010789828A8302098D5005E9F8020B33
