:0E09D20044000940F6666644000D3D4CCCCD55
:03000B00020A13D3
:070A1300758A00758CB832F2
:03001B00020A1ABC
:070A1A00758B00758DB832E9
:030003000209C12E
:1009C10020B20B758A00758CB8D28CD2A932C28C38
:0109D10032F3
:1006CE001207C9438E80E4F58A758CB8F589F58BCF
:1006DE00758DB8D28ED2ABD2AF7F01FE1209977F45
:1006EE00681207547F681207547F6D1207547F6D8E
:1006FE001207547F2312075474FFFFFE1208227F45
:10070E00D77EA37D907C3F900009E0F8A3E0F9A38B
:10071E00E0FAA3E0FB120116E4FBFA79207841120D
:10072E00021FA804A905AA06AB077FD77EA37D905A
:10073E007C3F1200219000131204B074FFFFFE02E2
:02074E0008227F
:1007C900E4F5917592FF7F96FE1209247F031208C2
:1007D900747F1E7E001209247F03120874120920F7
:1007E9007F031208741209207F021208747F017EA8
:1007F900001209247F021208747F08120874E4FFAA
:100809001208747F0E120874E4FF1208747F06122E
:0908190008747F147E000209241A
:04075000E04430FF52
:1007540090002AEFF0D2C0C293E0FF5480C4131378
:1007640013540124FF92B7EF5440C41313540324C9
:10077400FF92B6E0FF5420C413540724FF92B5EF50
:100784005410C4540F24FF92B4D2B37F017E0012DC
:100794000924C2B390002AE0FF5408131313541F12
:1007A40024FF92B7EF54041313543F24FF92B6E08E
:1007B400FF5402C31324FF92B5EF1392B412091E1F
:0507C400C2B3C2C02217
:10087400C2C0C293EF5408131313541F6004D2B7B9
:100884008002C2B7EF54041313543F6004D2B680FD
:1008940002C2B6EF5402C3136004D2B58002C2B5DB
:1008A400EF30E004D2B48002C2B412091EC2B322F3
:06091E00D2B37F0A7E0047
:10092400EF1FAA0670011E4A6013E4FCFDC3ED9498
:0D09340058EC940250EA0DBD00010C80F05B
:010941002293
:10096400EFC4540F4430FEEF540F443090002DF088
:0D097400AF0612075490002DE0FF0207545B
:0A09FF00E4FF1208747F020208747E
:0A0A0900E4FF1208747F0102087474
:10099700EF64014E70047F0880027F0C120874E434
:0509A700FF120874229C
:0604ED009000171204B09C
:1004F300900017E0FCA3E0FDA3E0FEA3E0FF1203DE
:100503008412000E900020EEF0A3EFF0E4FFFEFD56
:10051300FC900017E0F8A3E0F9A3E0FAA3E0FB12D4
:1005230002BC60264024900020E0FCA3E0FDEC1216
:10053300034BA804A905AA06AB07900017E0FCA388
:10054300E0FDA3E0FEA3E0FF8035900017E0FCA3ED
:10055300E0FDA3E0FEA3E0FF120335C004C005C025
:1005630006C007900020E0FCA3E0FDEC12034BA8BB
:1005730004A905AA06AB07D007D006D005D00412FC
:100583000021E4FBFA7920784112011612038490CA
:10059300001FEFF0900020E0FAA3E0FB7C007D0A4F
:1005A300FFAE0212046C90001BEDF07C037DE8AFFC
:1005B30003AE0212046CA90790001EE9F07E007CD2
:1005C300037DE8120405C3900021E09FFB90002007
:1005D300E09EFA7C007D64AF03FE12041790001DB9
:1005E300EFF0E075F064A4FFC3EB9FFFEA95F0FE24
:1005F3007C007D0A12041790001CEFF0E4FFFEFD5F
:10060300FC900017E0F8A3E0F9A3E0FAA3E0FB12E3
:1006130002BC400280057F2D12075490001E120772
:100623005090001D12075090001C12075090001BA1
:0E0633001207507F2E12075490001F1207501E
:010641002296
:0D08F3007F027E00120900D2C37F027E004A
:10090000EF1FAA0670011E4A6013E4FCFDC3ED94BC
:0D09100009EC940050EA0DBD00010C80F0D0
:01091D0022B7
:0100060022D7
:0F09E100D2C3D2C41208FCC2C41208FCC2C32283
:1009AC00C2C3C2C41208FCD2C3C2C47F047E0012EC
:0509BC000900D2C42275
:10098100E425E0FBC2C31208FC30C404EB4401FBC4
:050991001208FAAF039B
:01099600223E
:050A21001208F3C2C33E
:010A260022AD
:0E09F000C2C3D2C41208F3C2C31208FCC2C4B0
:0109FE0022D6
:02094200A90703
:10094400E4FBC2C3E930E704D2C48002C2C4120883
:0F095400FCD2C3E925E0F91208FC0BEBB408E371
:010963002271
:04082200AD07AC066C
:10082600ECFF3395E0FE90002AEFF0EDA3F01209FD
:10083600E17F017E001209007FC012094212098180
:10084600EF70057F40120942120981EF700890008F
:100856002AE0FF120942120981EF700890002BE08E
:0D086600FF120942120981EF70031209AC64
:010873002262
:0608B4009000221204B0C6
:1008BA009000261204BC40A00000E4FFFE7D807C6C
:1008CA0045900022E0F8A3E0F9A3E0FAA3E0FB12C6
:1008DA000116900026E0F8A3E0F9A3E0FAA3E0FBF2
:0908EA0012021F1203840208220D
:03000000020642B3
:0C064200787FE4F6D8FD7581200206895F
:10001E000203F0E86480F8E933E83360110460F01D
:10002E00ED33EC337009E8FCE9FDEAFEEBFF220448
:10003E0060DED3EB9FEA9EE99DE8C2E78CF0C2F743
:10004E0095F0400CE8CCF8E9CDF9EACEFAEBCFFB0F
:10005E001203BB85D0F05804700320D5B3E80470AA
:10006E00075002B2D50203FA92D5EC0460F7E4CC45
:10007E00C0E0C398F8603B94186008400DD0E0FBD8
:10008E000203D2E4FBFAC9FC8028E830E406E4C996
:10009E00FBE4CAFCE830E305E4C9CACBFCE854072C
:1000AE006010F8C3E913F9EA13FAEB13FBEC13FC37
:1000BE00D8F130F52FC3E49CFCEF9BFFEE9AFEEDDA
:1000CE0099FDD0E0FBEF4E4D4C701222DB03020384
:1000DE00F7EC2CFCEF33FFEE33FEED33FDED30E7A6
:1000EE00EB0203D2EF2BFFEE3AFEED39FDD0E0FB33
:1000FE0050130BBB00030203FAED13FDEE13FEEFDC
:08010E0013FFEC13FC0203D205
:10011600EC4D6011E8497017ED33EC3304600DE4E3
:10012600FCFFFEFD22E933E8330470F80203F01207
:1001360003BB58046009E4CC248150062850090208
:1001460003FA2840030203F7C0E0EB4A7044B98083
:1001560006D0E0FB0203E6EF4E701CBD8008EBFF05
:10016600EAFEE9FD80EBE98DF0A4FEE5F00201FF71
:10017600E9CDF9EAFEEBFFEF89F0A4FCE5F0CE89C4
:10018600F0A42EFFE435F0CD89F0A42DFEE435F081
:100196008067EF4E7005BD80D780C3EF8BF0A4ACAF
:1001A600F0EE8BF0A42CFCE435F0F8EF8AF0A42CEA
:1001B600E5F038FCE433CB8DF0A42CFCE5F03BF8FD
:1001C600EE8AF0A42CFCE5F038F8E433CF89F0A4ED
:1001D6002CFCE5F038CF3400CE89F0A42FFFE5F0F3
:1001E6003EFEE433C98DF0A42EFEE5F039CD8AF04B
:1001F600A42FFFE5F03EFEE43DFD33D0E0FB5007C3
:100206000BBB000F0203FAEC2CFCEF33FFEE33FEC0
:06021600ED33FD0203D2EE
:10021C000203FAEC5D046005E8590470030203F074
:10022C001203BB580460F6EC4860F2EC7004FDFE5F
:10023C00FF22C860DB2481C85009C39860025006B5
:10024C000203F79850CAF582E9294B4A7005AB8234
:10025C000203E675F0007C1A7880C3EF9BEE9AEDF2
:10026C0099400DC3EF9BFFEE9AFEED99FDE842F02D
:10027C00DC23ACF0D0E0FFD0E0FED0E0FDAB822080
:10028C00E7101BEB60BAEC2CFCEF33FFEE33FEED0A
:10029C0033FD0203D2E803F830E705C0F075F00037
:1002AC00EF2FFFEE33FEED33FD40B830E7C280AAEE
:1002BC0074F8CC6480CCC86480C8F58204604FC3E9
:1002CC00EB9FF5F0EA9E42F0E99D42F0E89C45F088
:1002DC00603C501DE5825FFFE582D313CB5BCBF412
:1002EC002B5582FB50280ABA002409B9002008803B
:1002FC001DE5825BFBE582D313CF5FCFF4C3132FD5
:10030C005582FF50090EBE00050DBD00010CC3EB5C
:10031C009FF5F0EA9E42F0E99D42F0E89C45F060C2
:09032C0007CC4820E701B3EC22E4
:10033500ED33EC33600A047003BD8004ECB2E7FCD6
:010345002295
:1003460075F020800E75F010800575F0087D007E32
:10035600007F003392D530D5031204A2EC3340104F
:10036600EF33FFEE33FEED33FDEC33FCD5F0ED223B
:0E037600E5F0247EA2D513CC92E7CDCEFF2277
:10038400EDD2E7CD33EC3392D524814006E4FFFE71
:10039400FDFC22FCE4CFCECDCC24E0501174FF80D0
:1003A400EDC3CC13CCCD13CDCE13CECF13CF04706D
:0703B400F030D5DE0204A2C7
:1003BB00E9D2E7C933E833F892D5EDD2E7CD33EC88
:0703CB0033FC5002B2D52201
:1003D200EC30E7100FBF000C0EBE00080DBD00048C
:1003E2000BEB6014A2D5EB13FCED92E7FD2274FF38
:1003F200FCFDFEFF22E480F8A2D574FF13FC7D8091
:03040200E480EFA4
:10064E000206CEE493A3F8E493A34003F68001F2EE
:10065E0008DFF48029E493A3F85407240CC8C333AD
:10066E00C4540F4420C8834004F456800146F6DF7C
:10067E00E4800B01020408102040809009D2E47E31
:10068E00019360BCA3FF543F30E509541FFEE49371
:10069E00A360010ECF54C025E060A840B8E493A338
:1006AE00FAE493A3F8E493A3C8C582C8CAC583CA63
:1006BE00F0A3C8C582C8CAC583CADFE9DEE780BE1B
:0109E0000016
:10040500EF8DF0A4A8F0CF8CF0A428CE8DF0A42E0B
:02041500FE22C5
:10041700BC000BBE0029EF8DF084FFADF022E4CCC9
:10042700F875F008EF2FFFEE33FEEC33FCEE9DEC92
:10043700984005FCEE9DFE0FD5F0E9E4CEFD22EDD8
:10044700F8F5F0EE8420D21CFEADF075F008EF2F22
:10045700FFED33FD4007985006D5F0F222C398FD13
:050467000FD5F0EA22B0
:10046C00C2D5EC30E709B2D5E4C39DFDE49CFCEEAB
:10047C0030E715B2D5E4C39FFFE49EFE120417C308
:10048C00E49DFDE49CFC800312041730D507C3E403
:06049C009FFFE49EFE221A
:0E04A200C3E49FFFE49EFEE49DFDE49CFC226B
:0C04B000ECF0A3EDF0A3EEF0A3EFF022BF
:1004BC00A8828583F0D083D0821204D31204D31285
:1004CC0004D31204D3E473E493A3C583C5F0C583AA
:1004DC00C8C582C8F0A3C583C5F0C583C8C582C88A
:0104EC0022ED
:0C000E00EE30E707C3E49FFFE49EFE22F3
:00000001FF
