:1026FA0043059F6868004305A26D6D0042054100CD
:10270A00004205B20000420598000042059C000004
:10271A0044053C68686D6D4405A942FE0000410508
:0E272A00401E4204E000004404E468686D6D47
:03000B00020009E7
:0100090032C4
:100B0E009003917401F0E4A3F0A3F0A3F0A3F0908E
:100B1E0003B3F0A3F09003B7121DA10000000090E4
:100B2E0003BB121DA100000000D200D203C202C2FC
:100B3E0001E4900000F0A3F0F5B175B2FF75B04C72
:100B4E00124779124C89124C96124B1D438E80E43B
:100B5E00F58A758CB8F589D28CD2A9D2AF7D067F75
:100B6E0012124B927FF47E01124B3C7D05E4FF1274
:100B7E004B927FF47E01124B3C7F017E00124BD7CD
:100B8E007F6812463B7F6812463B7F6D12463B7F65
:100B9E006D12463B7F2312463BE49003B5F0A3F063
:100BAE009003B5E0FAA3E0FBD39414EA648094803A
:100BBE005074EBAE027802C333CE33CED8F924E8AC
:100BCE00F58274043EF583121DA100000000AD03F2
:100BDE00AC02EC1218CFE4FBFAF978401217A3E43A
:100BEE00FBFA79E078401215A9C004C005C006C012
:100BFE00079003B5E0FEA3E07802C333CE33CED820
:100C0E00F92443F58274053EF583D007D006D0054E
:100C1E00D004121D959003B6E004F070839003B5D6
:100C2E00E004F0020BAE1230B57F081248FA7F05D1
:100C3E001248FA7F5012463B7F4F12463B7F5312AB
:100C4E00463B7F3A12463B9005A9E0FCA3E0FDA38C
:100C5E00E0FEA3E0FF12383B7F6D12463B7F6D1224
:100C6E00463B7F027E00124BD790059BE0FF124B56
:100C7E005A7F3A12463B90059EE0FF124B5A7F3A3E
:100C8E0012463B9005B1E0547FFF124B5A7F3B1248
:100C9E00463B900597E0FF124B5A90059AE0FF12E3
:100CAE004B5A7F3B12463B900000E07002A3E0607F
:100CBE00047F41800C900000E07002A3E070057F7D
:100CCE004D12463B30023F900000E07002A3E070F0
:100CDE0035A20392067F30FE12493A9005A9E0FC38
:100CEE00A3E0FDA3E0FEA3E0FF7BCD7ACC79CC3070
:100CFE000304783E800278BE1215A99005A9121D34
:100D0E0095E4900391F0300141900000E07002A351
:100D1E00E07037A20392067F30FE12493A9005A981
:100D2E00E0FCA3E0FDA3E0FEA3E0FF7BCD7ACC794F
:100D3E00CC300304783E800278BE1215A99005A926
:100D4E00121D95E4900391F0C20130A335900391EA
:100D5E00E0702FFFFEFDFC9005A9E0F8A3E0F9A3DB
:100D6E00E0FAA3E0FB121840600250169005A9129B
:100D7E001DA1000000009003917401F0C202C20197
:100D8E00D203124CAE9005ADE0A3F090059BE0901F
:100D9E0005ADF09005AFE0A3F090059EE09005AF95
:100DAE00F09003C27401F0A37405F0A3749AF0A33B
:100DBE007401F0A37405F0A3749BF0A37401F0A367
:100DCE007405F0A3749EF0A37401F0A37405F0A350
:100DDE0074B1F07B017A0579971246B0900000E06D
:100DEE007002A3E0700302157C7F021249E89003A3
:100DFE008FEEF0A3EFF09005B0E0FE9005AFE06E41
:100E0E00600302157C90059EE0FFEE6F60030215F5
:100E1E007C90059BE0FE9005ADE0FD6E6003021533
:100E2E007CA3E06D600302157C900392E07002A338
:100E3E00E06003021158124B81900540E0FEEF8EE8
:100E4E00F084E5F060030210629005B1E0547FFF7C
:100E5E00124B81EF6003021062C390038FE0940285
:100E6E00500302106290059BE0FF124B81EFD3946A
:100E7E0010400302104E90059BE0FF124B81EFC312
:100E8E009407500302104E90059EE0FF124B81AC6A
:100E9E0007E41218D4E4FBFA797078421217A3C053
:100EAE0004C005C006C00790059BE0FF124B81AC45
:100EBE0007E41218D4D003D002D001D0001215A925
:100ECE00E4FBFA79E078C01215A9E4FBFA797078A0
:100EDE004212169AC004C005C006C007900540E035
:100EEE00FCE41218D4A804A905AA06AB07D007D0B3
:100EFE0006D005D0041217A3121908900598EEF02B
:100F0E00A3EFF0900597E0FF90059AE0FD90059E07
:100F1E00E09003C2F09005B1E09003C3F0A374011A
:100F2E00F0A37405F0A374A9F0A37401F0A37403E5
:100F3E00F0A37494F0A37401F0A37403F0A374B738
:100F4E00F0A37401F0A37403F0A37496F090059BC4
:100F5E00E0FB1239ADC004C005C006C0079005986D
:100F6E00E0FEA3E07802C333CE33CED8F924E8F501
:100F7E008274043EF583D007D006D005D004121D2E
:100F8E0095900597E09003A8F090059AE09003A93C
:100F9E00F090059BE09003AAF090059EE09003ABC5
:100FAE00F0900394A3E09003ACF09005A9E0FCA3AD
:100FBE00E0FDA3E0FEA3E0FF1219089003ADEFF0F1
:100FCE00FCE41218D4A804A905AA06AB079005A93B
:100FDE00E0FCA3E0FDA3E0FEA3E0FF1215A51219AD
:100FEE0008EF75F064A49003AEF0E4A3F0900396BE
:100FFE00A3E09003B0F09003B7E0FCA3E0FDA3E004
:10100E00FEA3E0FF1219089003B1EFF0FCE41218F2
:10101E00D4A804A905AA06AB079003B7E0FCA3E089
:10102E00FDA3E0FEA3E0FF1215A5121908EF75F05F
:10103E0064A49003B2F07F327E00124A4C02136F0A
:10104E0090059BE0FF124B81EFC3941150030215E4
:10105E007C0213A790059BE0FF124B81EFD39410F7
:10106E00400302157C90059BE0FF124B81EFC39469
:10107E0007500302157C90059EE0FF124B81AC07D2
:10108E00E41218D4E4FBFA797078421217A3C00464
:10109E00C005C006C00790059BE0FF124B81AC0750
:1010AE00E41218D4D003D002D001D0001215A9E456
:1010BE00FBFA79E078C01215A9E4FBFA7970784250
:1010CE0012169AC004C005C006C007900540E0FC89
:1010DE00E41218D4A804A905AA06AB07D007D006B7
:1010EE00D005D0041217A3121908900598EEF0A39C
:1010FE00EFF090059EE09003DBF09005B1E09003D9
:10110E00DCF0A37401F0A37405F0A374A9F09005AC
:10111E0098E0FEA3E07802C333CE33CED8F924E8AC
:10112E00F58274043EF583E0FCA3E0FDA3E0FEA38C
:10113E00E0FF9003E0121D9590059BE0FB90059A51
:10114E00E0FD900597E0FF02157990059EE0FF12F5
:10115E004B81900540E0FEEF8EF084E5F0600302D7
:10116E0013B29005B1E0547FFF124B81EF60030282
:10117E0013B2C390038FE0940250030213B2900592
:10118E009BE0FF124B81EFD3941040030213969015
:10119E00059BE0FF124B81EFC39407500302139699
:1011AE0090059EE0FF124B81AC07E41218D4E4FBCD
:1011BE00FA797078421217A3C004C005C006C007A2
:1011CE0090059BE0FF124B81AC07E41218D4D003BC
:1011DE00D002D001D0001215A9E4FBFA79E078C054
:1011EE001215A9E4FBFA7970784212169AC004C05F
:1011FE0005C006C007900540E0FCE41218D4A80410
:10120E00A905AA06AB07D007D006D005D004121741
:10121E00A3121908900598EEF0A3EFF0900597E051
:10122E00FF90059AE0FD90059EE09003C2F09005B8
:10123E00B1E09003C3F0A37401F0A37405F0A3749E
:10124E00A9F0A37401F0A37403F0A37494F0A37433
:10125E0001F0A37403F0A374B7F0A37401F0A374A8
:10126E0003F0A37496F090059BE0FB1239ADC00419
:10127E00C005C006C007900598E0FEA3E07802C343
:10128E0033CE33CED8F924E8F58274043EF583D0FC
:10129E0007D006D005D004121D95900597E0900357
:1012AE00A8F090059AE09003A9F090059BE09003BA
:1012BE00AAF090059EE09003ABF0900394A3E0900B
:1012CE0003ACF09005A9E0FCA3E0FDA3E0FEA3E0D3
:1012DE00FF1219089003ADEFF0FCE41218D4A80425
:1012EE00A905AA06AB079005A9E0FCA3E0FDA3E0C3
:1012FE00FEA3E0FF1215A5E4FBFA79C87842121698
:10130E009A1219089003AEEFF090038FA3E09003AA
:10131E00AFF0900396A3E09003B0F09003B7E0FC1B
:10132E00A3E0FDA3E0FEA3E0FF1219089003B1EFC6
:10133E00F0FCE41218D4A804A905AA06AB07900382
:10134E00B7E0FCA3E0FDA3E0FEA3E0FF1215A5E4C9
:10135E00FBFA79C8784212169A1219089003B2EF66
:10136E00F078BF7C037D017B017A0379A87E007F34
:10137E000B121AA69003CA7401F0A37403F0A3749F
:10138E00BBF0123D1102157C90059BE0FF124B81C4
:10139E00EFC39411500302157C900392E4F0A30462
:1013AE00F002157C90059BE0FF124B81EFD3941059
:1013BE00400302157C90059BE0FF124B81EFC39416
:1013CE0007500302157C90059EE0FF124B81AC077F
:1013DE00E41218D4E4FBFA797078421217A3C00411
:1013EE00C005C006C00790059BE0FF124B81AC07FD
:1013FE00E41218D4D003D002D001D0001215A9E403
:10140E00FBFA79E078C01215A9E4FBFA79707842FC
:10141E0012169AC004C005C006C007900540E0FC35
:10142E00E41218D4A804A905AA06AB07D007D00663
:10143E00D005D0041217A3121908900598EEF0A348
:10144E00EFF0900598E0FEA3E07802C333CE33CEE2
:10145E00D8F9FBAA062443F58274053AF583E0FC1D
:10146E00A3E0FDA3E0FEA3E0FF900398121D957488
:10147E00E82BF58274043AF583E0FCA3E0FDA3E0CB
:10148E00FEA3E0FF90039C121D95900598E0FEA32D
:10149E00E07802C333CE33CED8F9FBAA062447F543
:1014AE008274053AF583E0FCA3E0FDA3E0FEA3E021
:1014BE00FF9003A0121D9574EC2BF58274043AF57F
:1014CE0083E0FCA3E0FDA3E0FEA3E0FF9003A412E3
:1014DE001D9590059EE0FF124B81AC07E41218D4C7
:1014EE00E4FBFA797078421217A3C004C005C00657
:1014FE00C00790059BE0FF124B81AC07E41218D495
:10150E00D003D002D001D0001215A9900487121D6D
:10151E009578777C047D017B017A0379987E007F34
:10152E0008121AA6787F7C047D017B017A0379A0CC
:10153E007E007F08121AA61240089003E0121D9535
:10154E00900597E0FF90059AE0FD90059EE09003D0
:10155E00DBF09005B1E09003DCF0A37401F0A3740E
:10156E0005F0A374A9F090059BE0FB12000E900508
:10157E009BE0FF124B81EFD39410501390059BE02C
:10158E00FF124B81EFC394074005D2CD020C34C23B
:04159E00CD020C343A
:04449600AB07AA06C0
:10449A007C007D0A121B3690062EEDF07C037DE827
:1044AA00AF03AE02121B36900631EFF07E007C039A
:1044BA007DE8121B24C3EB9FFFEA9EFE7C007D640D
:1044CA00121B36900630EFF0A3E0FF7E007C037DDE
:1044DA00E8121B24C3EB9FFDEA9EFC900630E075B0
:1044EA00F064A4FFC3ED9FFFEC95F0FE7C007D0A0B
:1044FA00121B3690062FEFF0900631E04430FF127F
:10450A00463B900630E04430FF12463B90062FE0CF
:10451A004430FF12463B90062EE04430FF12463BE1
:01452A00226E
:06383B00900462121D95CD
:10384100900462E0FCA3E0FDA3E0FEA3E0FF1219F7
:1038510008124CA290046AEEF0A3EFF0E4FFFEFD23
:10386100FC900462E0F8A3E0F9A3E0FAA3E0FB1204
:1038710018406026402490046AE0FCA3E0FDEC12AD
:1038810018CFA804A905AA06AB07900462E0FCA31F
:10389100E0FDA3E0FEA3E0FF8035900462E0FCA31D
:1038A100E0FDA3E0FEA3E0FF1218B9C004C005C00B
:1038B10006C00790046AE0FCA3E0FDEC1218CFA853
:1038C10004A905AA06AB07D007D006D005D004127B
:1038D10015A5E4FBFA7920784112169A121908907D
:1038E1000469EFF090046AE0FAA3E0FB7C007D0A32
:1038F100FFAE02121B8B900466EDF07C037DE8AFF6
:1039010003AE02121B8BAB077E007C037DE8121B0A
:1039110024C390046BE09FFF90046AE09EFE7C004C
:103921007D64121B36900468EFF0AF037E007C03C8
:103931007DE8121B24C390046BE09FFD90046AE0B4
:103941009EFC900468E075F064A4FFC3ED9FFFEC5A
:1039510095F0FE7C007D0A121B36900467EFF0E4BF
:10396100FFFEFDFC900462E0F8A3E0F9A3E0FAA3F6
:10397100E0FB121840400280057F2D12463B900467
:1039810068E04430FF12463B900467E04430FF1288
:10399100463B900466E04430FF12463B7F2E1246C0
:0B39A1003B900469E04430FF12463BFD
:0139AC0022F8
:064C0100D2A27F017E003B
:0E4C0700EF1FAC0670011E4C60030080F3220C
:024ADD00AD0723
:104ADF00E4FBC2A2ED30E704D2A18002C2A1124CC6
:0D4AEF0003124C01ED25E0FD0BEBB408E5D2
:014AFC002297
:104AFD00E4FDD2A1FBED25E0FDC2A2124C0330A1D5
:0F4B0D0004ED4401FD124C010BEBB408E8AF05B9
:014B1C002276
:104C2900E4FED2A0EF44A0FF124ADD124AFDC2A061
:014C39002258
:104B9200AA07D2A0ED4420FF124ADDAF02124ADD7D
:084BA200AF02124ADDC2A0229D
:0D4C89005395F85396F8D2A0C2A0C2A22203
:1046B0009003BFEBF0A3EAF0A3E9F07F09124C29C5
:1046C0009003BFE0FBA3E0FAA3E0F9EF121B127F17
:1046D00007124C299003C2E0FBA3E0FAA3E0F9EF34
:1046E000121B127F06124C299003C5E0FBA3E0FACF
:1046F000A3E0F9EF121B127F05124C299003C8E0CA
:10470000FBA3E0FAA3E0F9EF121B127F04124C297D
:0F4710009003CBE0FBA3E0FAA3E0F9EF021B124A
:104C3A00EFC4540FFEEF540FFFEE75F00AA42FFFD6
:014C4A002247
:1045B700124C3AAC07AF05124C3AEC14B40C00504D
:1045C700729045D675F003A4C58325F0C5837302A1
:1045D70045FA0245FD02460202460702460C02461C
:1045E7001102461602461B02462002462802462DA5
:1045F7000246327E0022EF241F8021EF243B801CDD
:10460700EF245A8017EF24788012EF2497800DEF5C
:1046170024B58008EF24D48003EF24F3FFE433FEAE
:1046270022EF24118008EF24308003EF244EFFE4AB
:034637003401FE4D
:01463A00225D
:104C4B00759850438E9575D7D875D6FFD2ACD2AF29
:014C5B002236
:1049B500900632EBF0A3EAF0A3E9F0900632E0FBB3
:1049C500A3E0FAA3E0F9121ACC6017900632A3E42B
:1049D50075F001121BC1A9F0FA121ACCFF120000E2
:0349E50080D92254
:06000300EFC4540FFF22C0
:054CC800EF540FFF2274
:01000A0022D3
:054CCD00EF2430FF227E
:104BAA00123F0AEF75F00A84FEEF75F00A84AFF03F
:064BBA00EEC454F04FFFB1
:014BC00022D2
:10477900E4F5917592FF7F96FE124ABF7F031248B6
:10478900FA7F1E7E00124ABF7F031248FA124ABB03
:104799007F031248FA124ABB7F021248FA7F017E50
:1047A90000124ABF7F021248FA7F081248FAE4FF52
:1047B9001248FA7F0E1248FAE4FF1248FA7F0612ED
:0947C90048FA7F147E00024ABF89
:10463B0090046CEFF0D2C0C2B2E0FF5480C41313ED
:10464B0013540124FF92B7EF5440C41313540324A3
:10465B00FF92B6E0FF5420C413540724FF92B5EF2A
:10466B005410C4540F24FF92B4D2B37F017E0012B6
:10467B004ABFC2B390046CE0FF5408131313541FCA
:10468B0024FF92B7EF54041313543F24FF92B6E068
:10469B00FF5402C31324FF92B5EF1392B4124AB91D
:0546AB00C2B3C2C022F1
:1048FA00C2C0C2B2EF5408131313541F6004D2B7D4
:10490A008002C2B7EF54041313543F6004D2B68036
:10491A0002C2B6EF5402C3136004D2B58002C2B514
:10492A00EF30E004D2B48002C2B4124AB9C2B32250
:064AB900D2B37F0A7E006B
:104ABF00EF1FAA0670011E4A6013E4FCFDC3ED94BC
:0D4ACF0058EC940250EA0DBD00010C80F07F
:014ADC0022B7
:104B5A00EFC4540F4430FEEF540F44309003BFF0BB
:0D4B6A00AF0612463B9003BFE0FF02463B42
:0A4CAE00E4FF1248FA7F020248FA00
:0A4CB800E4FF1248FA7F010248FAF7
:104BD700EF64014E70047F0880027F0C1248FAE4EC
:054BE700FF1248FA2254
:10273800C102C101C103C104C1804206180000459D
:07274800061C68686D6D734B
:104B3C00EF1FAA0670011E4A6013E4FCFDC3ED943E
:0D4B4C0058EC940250EA0DBD00010C80F001
:014B59002239
:1035260053801E43801EE58044E19003C5F0E0F41D
:1035360070030236B0E58044E1F0E0F47003023631
:10354600AD5380DF4380C1E58044E1F0E0F460479D
:103556009003C5E0FFF4600DA3EFF0E58044E19031
:1035660003C5F080EB9003C6E02411602424F860C4
:103576001824FC600C24FE701E9003C77401F080B2
:10358600169003C77404F0800E9003C77407F0808A
:10359600069003C7740CF05380BF4380A1E58044B6
:1035A600E19003C5F0E0F460469003C5E0FFF460E7
:1035B6000DA3EFF0E58044E19003C5F080EB9003A6
:1035C600C6E02411602424F8601824FC600C24FE54
:1035D600701D9003C77402F080159003C77405F040
:1035E600800D9003C77408F08005E49003C7F0537C
:1035F600807F438061E58044E19003C5F0E0F4609C
:10360600479003C5E0FFF4600DA3EFF0E58044E1C9
:103616009003C5F080EB9003C6E02411602424F8E3
:10362600601824FC600C24FE701E9003C77403F01F
:1036360080169003C77406F0800E9003C77409F0D5
:1036460080069003C7740BF05380FE4380E0E5804C
:1036560044E19003C5F0E0F460479003C5E0FFF451
:10366600600DA3EFF0E58044E19003C5F080EB9098
:1036760003C6E02411602424F8601824FC600C249E
:10368600FE701E9003C7740DF080169003C7740E6B
:10369600F0800E9003C7740FF080069003C7741075
:0C36A600F09003C7E0FF227F64227F64E5
:0136B20022F5
:1030B50090061BE090061AF012352690061BEFF0DD
:1030C500BF0E03D2012290061AE0FFB4640EA3E0FE
:1030D500B40F09300303C20322D2032290061BE07A
:1030E500FEB41006200203D20222EEB4100630020E
:1030F50003C20222EFB4641FEEB40D1B900000E082
:103105007002A3E06008E4900000F0A3F0229000B4
:1031150000E4F0A304F02290061AE0646460030260
:103125003354A3E0FF64647003023354900618E03F
:10313500FCA3E0241CF58274063CF583EFF09006B1
:1031450019E004F07006900618E004F0900618E007
:103155007004A3E0640560030232F3900618F0A33F
:10316500F090061CE075F00AA4FFA3E0F97C002F9F
:10317500FFEC35F0AD07FCA3E075F00AA4FFA3E072
:103185007A002FFFEA35F0FEA3E0640B7036D3ED2D
:103195009418EC64809480502BEF943BEE648094FB
:1031A50080502190061CE0C454F0FFE94FFF7D06D6
:1031B500124B9290061EE0C454F0FFA3E04FFF7D32
:1031C50005124B9290061CE075F00AA4FFA3E07C63
:1031D500002FFEEC35F09003C1F0A3CEF090061E53
:1031E500E075F00AA4FFA3E02FFEEC35F09003C3D1
:1031F500F0A3CEF0900620E0640C60030232CD907F
:1032050003C1E0FEA3E0FFD3940CEE6480948040FC
:10321500030232CDEF9407EE6480948050517D0215
:10322500121B8BED4C6016D39003C4E0941F9003E2
:10323500C3E06480948040030232CD80699003C16D
:10324500E07004A3E064027013D39003C4E0941CFF
:103255009003C3E064809480506E804AD39003C489
:10326500E0941E9003C3E064809480505B803790A7
:1032750003C1E0FEA3E0FF7C007D02121B8BED4C39
:103285007013D39003C4E0941F9003C3E06480944B
:103295008050358011D39003C4E0941E9003C3E0A1
:1032A50064809480502290061CE0C454F0FFA3E093
:1032B5004FFF7D09124B9290061EE0C454F0FFA308
:1032C500E04FFF7D07124B92124CB87F081248FA67
:1032D500E4FF1248FA7F6812463B7F6812463B7F3F
:1032E5006D12463B7F6D12463B7F2312463BE490B1
:1032F50003BFF0A3F0900618E0FEA3E0FFC3900320
:10330500C0E09FEE6480F89003BFE0648098503F72
:10331500EF9404EE6480948050257F081248FA905B
:1033250003BFA3E0FF1248FA9003BFE0FEA3E02429
:103335001CF58274063EF583E04430FF12463B904F
:0F33450003C0E004F070AE9003BFE004F080A678
:013354002256
:0C4C9600759300759400E4F594F59322EA
:10274F006028010B43340000433E00004348000063
:10275F0043520000435C00004366000043700000DA
:10276F00437A00004382000043870000602800A0E6
:10277F0043340000432A00004320000043160000AA
:10278F00430C00004302000042F0000042DC000056
:10279F0042C8000042B400006258013342EFA3D791
:1027AF0042EF385242EDB33342ECC28F42EAE14876
:1027BF0042E8385242E03D7142D170A4429B75C34A
:1027CF0042BEA8F642D5F0A442D5C7AE42D43333A9
:1027DF0042D08F5C42CAD70A42C1F5C342B2947B42
:1027EF004290051F41F428F6C2AC4CCD42BD051FE7
:1027FF0042BC2E1442B9385242B3947B42AB947B05
:10280F00429C4CCD428338524221F5C3C17051ECEA
:10281F00C2DB385242A3E66642A2BD71429E3D71B1
:10282F00429675C3428ADC29426BD70A422B333357
:10283F004143851FC22FAE14C2EEF5C3428A6B858A
:10284F004288A8F642834CCD42728F5C4252CCCD67
:10285F004221E14841AA51ECC130F5C3C27B28F6B1
:10286F00C2F9947B425D47AE425A1EB8424E3D714B
:10287F004237D70A4214666641B95C293FF851ECDA
:10288F00C1F228F6C2959EB8C2FC28F64227EB8506
:10289F004223B8524216333341FBD70A41A628F6DA
:1028AF0040CE6666C1770A3DC235147BC2A733336B
:1028BF00C2FECCCD41E28F5C41D7EB8541B9851F7C
:1028CF0041830A3D40C1999AC112E148C1F370A4F6
:1028DF00C265D70AC2B6199AC2FFA8F64161999A82
:1028EF00414E147B410CCCCD00000000C107AE144B
:1028FF00C1BC28F6C22C147BC2884CCDC2C1CCCD32
:10290F00C2FEAE140000000000000000C0B80000BE
:10291F00C142E148C1B55C29C212851FC25AE148C4
:10292F00C299C28FC2CA9EB8C2FF75C3C162B852E4
:10293F00C170CCCDC1991EB8C1D2F5C3C210E14848
:10294F00C242E148C282F0A4C2A7C7AEC2D22E14BF
:10295F00C2FEFAE1C1E1D70AC1EC51ECC204EB852A
:10296F00C21E70A4C240EB85C2705C29C295428F13
:10297F00C2B5C28FC2D9428FC2FF147BC228851F36
:10298F00C22C5C29C2397AE1C250A3D7C2716666E4
:10299F00C28D0A3DC2A56148C2C18F5CC2DF947B64
:1029AF00C2FF851FC25E147BC261999AC26F28F65F
:1029BF00C282051FC28F2E14C2A05C29C2B4C7AE3B
:1029CF00C2CBD1ECC2E551ECC2FFE666C28A199ABE
:1029DF00C28C47AEC290D1ECC2990F5CC2A46148C1
:1029EF00C2B2947BC2C36148C2D5A3D7C2EA0F5CFF
:1029FF00C3000F5C603C00CF400CCCCD40DCCCCD95
:102A0F004139999A4182666641A8000041CD999A51
:102A1F0041F33333420C6666421F333342320000B8
:102A2F004244CCCD4257999A426A6666427D33330F
:102A3F004288000060A00000C1E1D70AC1EC51EC50
:102A4F00C204EB85C21E70A4C240EB85C2705C2924
:102A5F00C295428FC2B5C28FC2D9428FC2FF147BBB
:102A6F00C228851FC22C5C29C2397AE1C250A3D774
:102A7F00C2716666C28D0A3DC2A56148C2C18F5C34
:102A8F00C2DF947BC2FF851FC25E147BC261999A1D
:102A9F00C26F28F6C282051FC28F2E14C2A05C29F6
:102AAF00C2B4C7AEC2CBD1ECC2E551ECC2FFE666F1
:102ABF00C28A199AC28C47AEC290D1ECC2990F5CF0
:102ACF00C2A46148C2B2947BC2C36148C2D5A3D726
:0C2ADF00C2EA0F5CC3000F5C4100C8009D
:0A4B7700121D959003DCE0547FFF4F
:104B8100EFC4540FFEEF540FFFEE75F00AA42FFF90
:014B91002201
:014CD20022BF
:104822009000CE30071A7404F07B017A0079C91225
:1048320041637F027E00124B3C9000CE74068018CA
:104842007405F07B017A0079C91241637F027E0010
:10485200124B3C9000CE7407F07B017A0079C912AA
:0A48620041637F027E00124B3C22EE
:08493A0090047BEEF0A3EFF006
:10494200E4A3F0A3F090047DF0A3F090047BE0FEDA
:10495200A3E0FFC390047EE09F90047DE09E501789
:10496200A206920712482290047EE004F070DC90C6
:07497200047DE004F080D495
:01497900221B
:064A6A00900477121D9577
:104A7000E4FFFE7DF07C42900477E0F8A3E0F9A328
:104A8000E0FAA3E0FB12169A121908A20592060298
:024A9000493AA1
:10335500E0FCA3E0FDA3E0FEA3E0FF900610121D34
:10336500959005F0E0FCA3E0FDA3E0FEA3E0FF904F
:103375000614121D959005C4E0FCA3E0FDA3E0FE34
:03338500A3E0FFC3
:103388009005F4121D95900608E0FCA3E0FDA3E06B
:10339800FEA3E0FF9005F8E0F8A3E0F9A3E0FAA3A4
:1033A800E0FB12169A90060CE0F8A3E0F9A3E0FA05
:1033B800A3E0FB12169AC004C005C006C007900619
:1033C80004E0FCA3E0FDA3E0FEA3E0FF9005F4E029
:1033D800F8A3E0F9A3E0FAA3E0FB12169A9006140A
:1033E800E0F8A3E0F9A3E0FAA3E0FB12169AD003F1
:1033F800D002D001D0001215A9C004C005C006C073
:1034080007900600E0FCA3E0FDA3E0FEA3E0FF9028
:1034180005FCE0F8A3E0F9A3E0FAA3E0FB12169A92
:10342800900610E0F8A3E0F9A3E0FAA3E0FB121677
:103438009AD003D002D001D0001215A9C004C0054B
:10344800C006C007900604E0FCA3E0FDA3E0FEA3CD
:10345800E0FF9005FCE0F8A3E0F9A3E0FAA3E0FBA5
:1034680012169A90060CE0F8A3E0F9A3E0FAA3E09C
:10347800FB12169AA804A905AA06AB07D007D0061E
:10348800D005D0041215A5C004C005C006C0079019
:103498000600E0FCA3E0FDA3E0FEA3E0FF9005F832
:1034A800E0F8A3E0F9A3E0FAA3E0FB12169A90066D
:1034B80014E0F8A3E0F9A3E0FAA3E0FB12169AA837
:1034C80004A905AA06AB07D007D006D005D0041278
:1034D80015A5C004C005C006C007900608E0FCA3F7
:1034E800E0FDA3E0FEA3E0FF9005F4E0F8A3E0F917
:1034F800A3E0FAA3E0FB12169A900610E0F8A3E006
:10350800F9A3E0FAA3E0FB12169AA804A905AA06F3
:0E351800AB07D007D006D005D0041215A522AF
:102DF5009005B4121D959005CCE0FCA3E0FDA3E081
:102E0500FEA3E0FF9005F8121D959005D0E0FCA308
:102E1500E0FDA3E0FEA3E0FF9005FC121D959005E3
:102E2500D4E0FCA3E0FDA3E0FEA3E0FF90060012C2
:102E35001D959005DCE0FCA3E0FDA3E0FEA3E0FF0B
:102E4500900604121D959005E0E0FCA3E0FDA3E0CB
:102E5500FEA3E0FF900608121D959005E4E0FCA393
:102E6500E0FDA3E0FEA3E0FF90060C121D95900582
:102E7500EC1233559005B8E0F8A3E0F9A3E0FAA306
:102E8500E0FB12169AC004C005C006C0079005CC29
:102E9500E0FCA3E0FDA3E0FEA3E0FF9005F8121D12
:102EA500959005D0E0FCA3E0FDA3E0FEA3E0FF9034
:102EB50005FC121D959005D8E0FCA3E0FDA3E0FEFE
:102EC500A3E0FF900600121D959005DCE0FCA3E051
:102ED500FDA3E0FEA3E0FF900604121D959005E01A
:102EE500E0FCA3E0FDA3E0FEA3E0FF900608121DB1
:102EF500959005E8E0FCA3E0FDA3E0FEA3E0FF90CC
:102F0500060C121D959005ECE0FCA3E0FDA3E0FE88
:102F1500A3E0FF900610121D959005F0E0FCA3E0DC
:102F2500FDA3E0FEA3E0FF900614121D959005C8D1
:102F350012337D9005B4E0F8A3E0F9A3E0FAA3E02D
:102F4500FB12169AD003D002D001D0001215A5C0ED
:102F550004C005C006C0079005C8E0FCA3E0FDA3BA
:102F6500E0FEA3E0FF9005F8121D959005D0E0FC6A
:102F7500A3E0FDA3E0FEA3E0FF9005FC121D9590E4
:102F850005D4E0FCA3E0FDA3E0FEA3E0FF9006006E
:102F9500121D959005D8E0FCA3E0FDA3E0FEA3E09B
:102FA500FF900604121D959005E0E0FCA3E0FDA34B
:102FB500E0FEA3E0FF900608121D959005E4E0FCF5
:102FC500A3E0FDA3E0FEA3E0FF90060C121D959083
:102FD50005E81233559005BCE0F8A3E0F9A3E0FA43
:102FE500A3E0FB12169AD003D002D001D00012152F
:102FF500A9C004C005C006C0079005C8E0FCA3E051
:10300500FDA3E0FEA3E0FF9005F8121D959005CC09
:10301500E0FCA3E0FDA3E0FEA3E0FF9005FC121D8C
:10302500959005D4E0FCA3E0FDA3E0FEA3E0FF90AE
:103035000600121D959005D8E0FCA3E0FDA3E0FE77
:10304500A3E0FF900604121D959005DCE0FCA3E0CB
:10305500FDA3E0FEA3E0FF900608121D959005E490
:10306500E0FCA3E0FDA3E0FEA3E0FF90060C121D2B
:10307500959005E8E0FCA3E0FDA3E0FEA3E0FF904A
:103085000610121D959005EC1233699005C0E0F805
:10309500A3E0F9A3E0FAA3E0FB12169AA804A90598
:1030A500AA06AB07D007D006D005D0041215A52275
:103FE500787F7C047D017B017E007F08121AA690F4
:103FF5000436E0FCA3E0FDA3E0FEA3E0FF90048708
:03400500121D95F4
:10400800900487E0F8A3E0F9A3E0FAA3E0FB9004AA
:1040180077E0FCA3E0FDA3E0FEA3E0FF1215A512E4
:1040280018B9C004C005C006C00790047FE0F8A313
:10403800E0F9A3E0FAA3E0FB900477E0FCA3E0FD3D
:10404800A3E0FEA3E0FF1215A5A804A905AA06ABE4
:1040580007D007D006D005D0041217A3C004C005A6
:10406800C006C007900483E0F8A3E0F9A3E0FAA330
:10407800E0FB90047BE0FCA3E0FDA3E0FEA3E0FFEF
:104088001215A5D003D002D001D00012169A9004C0
:0F4098007BE0F8A3E0F9A3E0FAA3E0FB1215A97F
:0140A70022F6
:09000E009003DAEBF0AA05A90742
:10001700E49003E6F0A3F0A3F0A3F0A3121DA10060
:100027000000009003EE121DA1000000009003F2F3
:10003700121DA100000000900442121DA1C0A000E3
:100047000090046C121DA1C2932E14900470121D0F
:10005700A142360A3D90045A7407F0A374E3F0AF47
:1000670001124B81A3E4F0A3EFF0AF02124B81A37F
:10007700E4F0A3EFF09003DAE0FF124B81EF2405E1
:10008700FDE433FCE41218CF900460121D95900331
:10009700DBE0FF124B81AC07E41218D49004641222
:1000A7004B77AC07E41218D4900468121D9590039F
:1000B700DDE0FBA3E0FAA3E0F9121CAF9003EA121C
:1000C7001D9578777C047D017B017A04795A7E003F
:1000D7007F12121AA678897C047D017B017A047944
:1000E7006C7E007F08121AA69004917401F0A37425
:1000F70004F0A37474F0121F58E4FBFA79347843C0
:1001070012169A7BD07A0F794978401217A3900478
:1001170046121D9590045FE024AFFF90045EE03423
:10012700FFFE7C017D68121B247D6D121B8BEF2562
:10013700E0FDEE33FC1218CF7BD07A0F7949784077
:1001470012169AE4FBFA793478431217A31237117F
:100157007B857AEB791D784112169AC004C005C0D9
:1001670006C007E4FFFE7D707C41900442E0F8A3DF
:10017700E0F9A3E0FAA3E0FB12169AA804A905AADE
:1001870006AB0790046CE0FCA3E0FDA3E0FEA3E050
:10019700FF1215A5E4FBFA7980784012169AD0036E
:1001A700D002D001D0001215A9C004C005C006C0F6
:1001B7000790045FE024AFFF90045EE034FFFE7C0D
:1001C700017D68121B247D6D121B8BAC06AD07ECFD
:1001D7001218CF7BD07A0F7949784012169AE4FB30
:1001E700FA793478431217A31236FB7BC37AF57971
:1001F700F0784012169AA804A905AA06AB07D007FB
:10020700D006D005D0041215A5C004C005C006C08D
:100217000790045FE024AFFF90045EE034FFFE7CAC
:10022700017D68121B247D6D121B8BAC06AD07EC9C
:100237001218CF7BD07A0F7949784012169AE4FBCF
:10024700FA793478431217A3123711E4FBFA79C00D
:10025700783F12169AA804A905AA06AB07D007D0BB
:1002670006D005D0041215A5E4FBFA79707842127E
:1002770017A390043E121D959003DBE0FF124B81FC
:10028700AC07E41218D4E4FBFA797078421217A38A
:10029700C004C005C006C0079003DAE0FF124B8117
:1002A700AC07E41218D4D003D002D001D000121545
:1002B700A990043EE0F8A3E0F9A3E0FAA3E0FB125B
:1002C70015A9900432121D957FD07E0F7D497C4081
:1002D700900446E0F8A3E0F9A3E0FAA3E0FB1216C6
:1002E7009AE4FBFA793478431217A31236FBC00459
:1002F700C005C006C0077FD07E0F7D497C409004B3
:1003070070E0F8A3E0F9A3E0FAA3E0FB12169AE481
:10031700FBFA793478431217A31236FBD003D002C5
:10032700D001D00012169AC004C005C006C007E469
:10033700FFFE7D407CC1900432E0F8A3E0F9A3E022
:10034700FAA3E0FB1215A97BD37A7E793C78421297
:10035700169AE4FBFA793478431217A31236FBD0C6
:1003670003D002D001D00012169AC004C005C006FF
:10037700C0077FD07E0F7D497C40900446E0F8A3FC
:10038700E0F9A3E0FAA3E0FB12169AE4FBFA79344A
:1003970078431217A3123711C004C005C006C0075F
:1003A7007FD07E0F7D497C40900470E0F8A3E0F990
:1003B700A3E0FAA3E0FB12169AE4FBFA7934784338
:1003C7001217A3123711D003D002D001D000121692
:1003D7009AD003D002D001D0001215A912497A7B16
:1003E700ED7A2E7965784212169A90043A121D9585
:1003F700E4FFFE7D407CC1900432E0F8A3E0F9A35E
:10040700E0FAA3E0FB1215A97BD37A7E793C784208
:1004170012169AE4FBFA793478431217A3123711AC
:10042700C004C005C006C0077FD07E0F7D497C4051
:10043700900446E0F8A3E0F9A3E0FAA3E0FB121664
:100447009AE4FBFA793478431217A31236FBD003E8
:10045700D002D001D00012169AC004C005C006C051
:100467000790043AE0F8A3E0F9A3E0FAA3E0FBE47D
:10047700FFFE7DB47C421215A57BD07A0F794978AF
:100487004012169AE4FBFA793478431217A312370D
:1004970011A804A905AA06AB07D007D006D005D036
:1004A700041217A312497A7BED7A2E7965784212E6
:1004B700169AE4FBFA793478431215A99004361298
:1004C7004B77EF30E003020B0D7FCD7ECC7D0C7CAC
:1004D7004090043AE0F8A3E0F9A3E0FAA3E0FB12A6
:1004E70018405003020B0DE4FFFE7D887C42900408
:1004F7003AE0F8A3E0F9A3E0FAA3E0FB12184060A2
:10050700054003020B0DE49003E6F0A3F09003E629
:10051700E0FEA3E0FFC3940AEE94004003020881C3
:10052700EF7802C333CE33CED8F9240FF5827401A6
:100537003EF583E0FCA3E0FDA3E0FEA3E0FF90040B
:1005470036E0F8A3E0F9A3E0FAA3E0FB1218406055
:100557000540030206CA9003E6E0FEA3E07802C363
:1005670033CE33CED8F9240BF58274013EF583E000
:10057700FCA3E0FDA3E0FEA3E0FF900436E0F8A3B0
:10058700E0F9A3E0FAA3E0FB12184050030206CA01
:10059700E49003E8F0A3F09003E6E0FEA3E078021E
:1005A700C333CE33CED8F9FBAA06240BF5827401E8
:1005B7003AF583E0FCA3E0FDA3E0FEA3E0FF90048F
:1005C7004A121D95740F2BF58274013AF583E0FCEE
:1005D700A3E0FDA3E0FEA3E0FF900452121D959057
:1005E70003E6E0FEA3E07802C333CE33CED8F9FBAF
:1005F700AA069003E8E0FEA3E090013375F0281205
:100607001DECEE75F028A42583F583E5822BF58292
:10061700E5833AF583E0FCA3E0FDA3E0FEA3E0FF5A
:1006270090044E121D959003E8E0FEA3E090013779
:1006370075F028121DECEE75F028A42583F583E5E7
:10064700822BF582E5833AF583E0FCA3E0FDA3E086
:10065700FEA3E0FF900456121D9578777C047D0178
:100667007B017A04794A7E007F08121AA67A0479F8
:1006770052123FE5C004C005C006C0079003E8E07A
:10068700FEA3E07802C333CE33CED8F924F6F58241
:1006970074033EF583D007D006D005D004121D950C
:1006A7009003E9E004F070069003E8E004F0C390DB
:1006B70003E9E0940F9003E8E09400500302059EDD
:1006C7000208709003E6E0FEA3E07802C333CE335E
:1006D700CED8F924A4F58274003EF583E0FCA3E0AC
:1006E700FDA3E0FEA3E0FF900436E0F8A3E0F9A342
:1006F700E0FAA3E0FB12184050030208709003E6EB
:10070700E0FEA3E07802C333CE33CED8F924A0F5B8
:100717008274003EF583E0FCA3E0FDA3E0FEA3E0C6
:10072700FF900436E0F8A3E0F9A3E0FAA3E0FB1298
:10073700184060054003020870E49003E8F0A3F056
:100747009003E6E0FEA3E07802C333CE33CED8F9B8
:10075700FBAA0624A0F58274003AF583E0FCA3E027
:10076700FDA3E0FEA3E0FF90044A121D9574A42B9D
:10077700F58274003AF583E0FCA3E0FDA3E0FEA355
:10078700E0FF900452121D959003E6E0FEA3E07887
:1007970002C333CE33CED8F9FBAA069003E8E0FEB6
:1007A700A3E090013375F028121DECEE75F028A434
:1007B7002583F583E5822BF582E5833AF583E0FC13
:1007C700A3E0FDA3E0FEA3E0FF90044E121D959069
:1007D70003E8E0FEA3E090013775F028121DECEE68
:1007E70075F028A42583F583E5822BF582E5833A06
:1007F700F583E0FCA3E0FDA3E0FEA3E0FF90045631
:10080700121D9578777C047D017B017A0479527EED
:10081700007F08121AA67A04794A123FE5C004C07D
:1008270005C006C0079003E8E0FEA3E07802C333E3
:10083700CE33CED8F924F6F58274033EF583D0077C
:10084700D006D005D004121D959003E9E004F0709E
:10085700069003E8E004F0C39003E9E0940F9003E7
:10086700E8E0940050030207479003E7E004F070C4
:10087700069003E6E004F0020514E49003E6F0A313
:10088700F09003E6E0FEA3E0FFC3940FEE94004070
:10089700030209DEEF7802C333CE33CED8F924CF73
:1008A700F58274003EF583E0FCA3E0FDA3E0FEA320
:1008B700E0FF90043AE0F8A3E0F9A3E0FAA3E0FB35
:1008C70012184050030209CD9003E6E0FEA3E0783A
:1008D70002C333CE33CED8F924D3F58274003EF564
:1008E70083E0FCA3E0FDA3E0FEA3E0FF90043AE071
:1008F700F8A3E0F9A3E0FAA3E0FB12184060054073
:10090700030209CD9003E6E0FEA3E07802C333CEED
:1009170033CED8F9FBAA0624CFF58274003AF583C3
:10092700E0FCA3E0FDA3E0FEA3E0FF90044A121D54
:100937009574D32BF58274003AF583E0FCA3E0FDB0
:10094700A3E0FEA3E0FF900452121D959003E6E09A
:10095700FEA3E07802C333CE33CED8F9FBAA062430
:10096700F6F58274033AF583E0FCA3E0FDA3E0FE0D
:10097700A3E0FF90044E121D9574FA2BF5827403C1
:100987003AF583E0FCA3E0FDA3E0FEA3E0FF9004BB
:1009970056121D9578777C047D017B017A04794A8C
:1009A7007E007F08121AA6787F7C047D017B017A7E
:1009B7000479527E007F08121AA690043A123FF774
:1009C7009003F2121D959003E7E004F07006900380
:1009D700E6E004F0020888E4FFFE7D8E7C42900387
:1009E700F2E0F8A3E0F9A3E0FAA3E0FB1215A9905F
:1009F70003E0E0F8A3E0F9A3E0FAA3E0FB1215A9EE
:100A07009003EA121D959003DDE0FBA3E0FAA3E053
:100A1700F9121D759003EAE0FCA3E0FDA3E0FEA335
:100A2700E0FF1215A59003EE121D959003EEE0FC72
:100A3700A3E0FDA3E0FEA3E0FF121908124CA2AC4D
:100A470006AD07EC1218CFE4FBFAF9783F1218400D
:100A570060054003020B0DE4FFFE7D707CC190032F
:100A6700EAE0F8A3E0F9A3E0FAA3E0FB121840508C
:100A770003020B0DE4FFFE7D527C439003EAE0F88E
:100A8700A3E0F9A3E0FAA3E0FB1218406002507656
:100A9700E4FFFEFDFC9003EEE0F8A3E0F9A3E0FA23
:100AA700A3E0FB121840601440129003EEE0FCA391
:100AB700E0FDA3E0FEA3E0FFD205802BE4FFFEFDEF
:100AC700FC9003EEE0F8A3E0F9A3E0FAA3E0FB1241
:100AD700184050169003EEE0FCA3E0FDA3E0FEA350
:100AE700E0FF1218B9C205124A6A9003EAE0FCA3B4
:100AF700E0FDA3E0FEA3E0FF9003DDE0FBA3E0FA47
:060B0700A3E0F9121CFF3F
:010B0D0022C5
:101F5800E4FBFA79707842900485E0FCA3E0FDA3E5
:101F6800E0FEA3E0FF1217A3900481E0F8A3E0F9D4
:101F7800A3E0FAA3E0FB1215A9E4FBFA7970784212
:101F88001217A390047DE0F8A3E0F9A3E0FAA3E018
:101F9800FB1215A9900498121D9590047AE024F27A
:101FA800FF900479E034FFFE7C007D0C121B8BEE61
:101FB8003395E0FDFC9004B8121D95E47F0CFEFDFE
:101FC800FC9004B8E0F8A3E0F9A3E0FAA3E0FB1260
:101FD8001C2EA804A905AA06AB0790047AE024FEE3
:101FE800FF900479E034FFFE3395E0FDFCC3EF9BDE
:101FF800FFEE9AFEED99FDEC98FCE47B6F7A01F90F
:10200800F8121C2EE47B0CFAF9F81248B6C004C08A
:1020180005C006C007900478E024C0FF900477E06C
:102028003412FE3395E0FDFC9004B8E0F8A3E0F923
:10203800A3E0FAA3E02FFFEA3EFEE93DFDE83CFC01
:10204800E47BB57A05F9F8121C2EE47B04FAF9F85A
:102058001248B6D003D002D001D000EF2BFFEE3AE1
:10206800FEED39FDEC38FCC004C005C006C0079081
:102078000478E02424FF900477E03413FE3395E0DD
:10208800FDFC9004B8E0F8A3E0F9A3E0FAA3E02F80
:10209800FFEA3EFEE93DFDE83CFCE47B64FAF9F822
:1020A8001248B6E47B03FAF9F8121C2EE47B04FA12
:1020B800F9F81248B6A804A905AA06AB07D007D0B4
:1020C80006D005D004C3EF9BFBEE9AFAED99F9EC24
:1020D80098F890047BE0FEA3E0FFEE3395E0FDFC6A
:1020E800EB2FFFEA3EFEE93DFDE83CFCEF24B5FF9F
:1020F800EE3482FEED34FFFDEC34FFFC9004BC129C
:102108001D959004BCE0FCA3E0FDA3E0FEA3E0FF66
:10211800EC1218CAE4FBFAF978BF1215A9C004C07A
:1021280005C006C007E4FBFA79C07841900498E03E
:10213800FCA3E0FDA3E0FEA3E0FF1217A3D003D0A9
:1021480002D001D0001215A99004B4121D957F6425
:102158007EA17D157CCA9004B4E0F8A3E0F9A3E061
:0D216800FAA3E0FB1215A9900494121D9536
:102175007F787E3E7D887C3A900494E0F8A3E0F970
:10218500A3E0FAA3E0FB12169AA804A905AA06ABD8
:10219500077F467E257D097C401215A59004BC125B
:1021A5001D957FDE7EEC7D8C7C3C900494E0F8A34D
:1021B500E0F9A3E0FAA3E0FB12169A7B5B7AA47917
:1021C5009C78401215A99004B4121D957F257EEBCD
:1021D5007D8C7C3C900494E0F8A3E0F9A3E0FAA39D
:1021E500E0FB12169A7B927AAE79C778401215A950
:1021F5009004B8121D959004B8E0FCA3E0FDA3E09F
:10220500FEA3E0FF1237117B4A7ADF7908783D1289
:10221500169A9004B4E0F8A3E0F9A3E0FAA3E0FB72
:102225001215A9C004C005C006C007E4FFFEFD7C69
:10223500409004B8E0F8A3E0F9A3E0FAA3E0FB12AC
:10224500169A1237117BEF7AF179B6783912169A08
:10225500D003D002D001D0001215A97B297AD179FB
:10226500ED78B81215A9C004C005C006C0079004D2
:10227500BCE0FCA3E0FDA3E0FEA3E0FF1237117B69
:10228500EB7A4979AA783712169AA804A905AA06FD
:10229500AB07D007D006D005D0041215A590049C35
:1022A500121D959004BCE0FCA3E0FDA3E0FEA3E0B5
:1022B500FF1236FB7B2D7A187926783812169AC0CC
:1022C50004C005C006C0077FEC7E827DD57C3190B9
:1022D5000494E0F8A3E0F9A3E0FAA3E0FB12169A50
:1022E500A804A905AA06AB077F9D7E747DD17C3E17
:1022F5001215A5D003D002D001D0001215A9900463
:04230500A0121D9570
:1023090090049CE0FCA3E0FDA3E0FEA3E0FF1237EC
:10231900119004B4121D959004A0E0FCA3E0FDA364
:10232900E0FEA3E0FF1236FB9004B4E0F8A3E0F965
:10233900A3E0FAA3E0FB12169A9004AC121D959043
:10234900049CE0FCA3E0FDA3E0FEA3E0FF1236FB42
:102359009004B0121D959004B0E0FCA3E0FDA3E049
:10236900FEA3E0FF9004D8121D959004ACE0FCA3F5
:10237900E0FDA3E0FEA3E0FF12435D9004A4121D5B
:1023890095E4FFFEFDFC9004A4E0F8A3E0F9A3E0C6
:10239900FAA3E0FB121840501F9004A4E0FCA3E04C
:1023A900FDA3E0FEA3E0FF7BD07A0F79C978401244
:1023B90015A99004A4121D959004A0E0FCA3E0FDCA
:1023C900A3E0FEA3E0FF1237119004B4E0F8A3E004
:1023D900F9A3E0FAA3E0FB12169A12497A9004A82D
:0323E900121D952D
:1023EC007FE07E927D867C3D900494E0F8A3E0F93A
:1023FC00A3E0FAA3E0FB12169A7B4D7A5179D678BA
:10240C00401215A9900498E0F8A3E0F9A3E0FAA310
:10241C00E0FB1215A99004B4121D95E4FFFE7D702B
:10242C007C419004B4E0F8A3E0F9A3E0FAA3E0FB4C
:10243C0012169A900489E0F8A3E0F9A3E0FAA3E05D
:10244C00FB1215A97B2E7AFA798E783C12169A908B
:10245C0004B8121D959004A4E0F8A3E0F9A3E0FAE7
:10246C00A3E0FB9004B8E0FCA3E0FDA3E0FEA3E036
:10247C00FF1215A59004C0121D957F2E7EFA7D8E3D
:10248C007C3C90048DE0F8A3E0F9A3E0FAA3E0FB18
:10249C0012169A9004BC121D959004BCE0FCA3E0AB
:1024AC00FDA3E0FEA3E0FF1236FB9004C4121D95C1
:1024BC009004BCE0FCA3E0FDA3E0FEA3E0FF123718
:1024CC00119004C8121D959004C0E0FCA3E0FDA37C
:1024DC00E0FEA3E0FF1236FB9004CC121D95900495
:1024EC00A8E0FCA3E0FDA3E0FEA3E0FF1236FBC0D6
:1024FC0004C005C006C0079004CCE0FCA3E0FDA31B
:10250C00E0FEA3E0FF9004C4E0F8A3E0F9A3E0FA36
:10251C00A3E0FB12169AD003D002D001D000121601
:10252C009AC004C005C006C0079004A8E0FCA3E054
:10253C00FDA3E0FEA3E0FF1237119004C8E0F8A35E
:10254C00E0F9A3E0FAA3E0FB12169AD003D002D074
:10255C0001D0001215A912486C900491E0FBA3E085
:10256C00FAA3E0F9121CFF9004C0E0FCA3E0FDA369
:10257C00E0FEA3E0FF1237111218B99004AC121D43
:10258C00959004A8E0FCA3E0FDA3E0FEA3E0FF12FD
:10259C00374D9004C4E0F8A3E0F9A3E0FAA3E0FB04
:1025AC0012169AC004C005C006C0079004CCE0FC0B
:1025BC00A3E0FDA3E0FEA3E0FF9004C8E0F8A3E0D5
:1025CC00F9A3E0FAA3E0FB12169AA804A905AA063F
:1025DC00AB07D007D006D005D0041215A59004B0D7
:1025EC00121D959004B0E0FCA3E0FDA3E0FEA3E077
:1025FC00FF9004D8121D959004ACE0FCA3E0FDA361
:10260C00E0FEA3E0FF12435D900491E0FBA3E0FA2F
:10261C00A3E0F9900004121D19900004121CCFE4E1
:10262C00FBFAF9F8121840602F402D900491E0FB52
:10263C00A3E0FAA3E02404F9E43AFAC003C002C010
:10264C0001121CAF7BD07A0F79C978401215A9D032
:10265C0001D002D003121CFF900491E0FBA3E0FA1E
:10266C00A3E02404F9E43AFAC003C002C001121C2E
:10267C00AF7B2E7AFA798E783C1217A3D001D00258
:10268C00D003121CFF900491E0FBA3E0FAA3E0F945
:10269C00121CAF1237117B0D7AA0793278381216D2
:1026AC009A9004D0121D95900491E0FBA3E0FAA33C
:1026BC00E0F9121CAF9004D0E0F8A3E0F9A3E0FA23
:1026CC00A3E0FB1215A97B2E7AFA798E783C1217AF
:0F26DC00A3900491E0FBA3E0FAA3E0F9121CFF26
:0E26EB009004A8E0FCA3E0FDA3E0FEA3E0FF46
:0126F90022BE
:104B1D00C2A4C2A5C2A64391015392FEE4F59743E8
:0F4B2D009D05F5BDF5BE75BC807F02FE024ABF37
:1049E800EF4488F5BC00000000E5BC30E4FB53BC94
:1049F800EFAFBD7E00ADBE7C00EF7802C333CE338F
:0B4A0800CED8F9FFED5403FDEF4DFF89
:014A13002280
:1040A800E49003EEF0A3F09003ECF0A3F09003EE9D
:1040B800A3E0FF1249E8AC06AD079003EDE025E068
:1040C800FF9003ECE033FE74D82FF58274033EF5BD
:1040D80083ECF0A3EDF09003EDE004F0700690039C
:1040E800ECE004F0C39003EDE0940A9003ECE06484
:1040F80080948040B89003ECE4F0A304F09003ECC3
:10410800E0FEA3E0FFD39409EE648094805047EF6B
:1041180025E0FFEE33FE74D82FF58274033EF58355
:10412800E0FEA3E0FF9003D8E0FCA3E0FDC3EF9D11
:10413800FFEE9CFE124CA2D3EF941EEE6480948096
:104148004004E4FEFF229003EDE004F070AF90031A
:0A415800ECE004F080A77E007F0178
:01416200223A
:0B2AEC009003D8EBF0A3EAF0A3E9F0A0
:102AF700E49003E1F0A3121DA13F000000E490045D
:102B070060F0A3F0900460E0FEA3E0FFC3943CEE06
:102B1700648094805025EF25E0FFEE33FE74E62FA6
:102B2700F58274033EF583E4F0A3F0900461E004BA
:102B3700F070D1900460E004F080C9E4900460F084
:102B4700A3F07F021249E8C3EE94025003022BDD83
:102B57009003E2E0FCA3E0FDA3E0FEA3E0FFD205C3
:102B6700124A6A9003D8E0FBA3E0FAA3E0F9C00396
:102B7700C002C001121CAFE4FBFAF9783F1215A995
:102B8700D001D002D003121CFF9003E1E0FF1249ED
:102B9700E8AC06AD07900460E0FAA3E0FB25E0FF90
:102BA700EA33FE74E62FF58274033EF583ECF0A357
:102BB700EDF0EB641D4A6003022C95900420E0F9C8
:102BC700A3E0FF9003DEE0FBA3E0FAA3E0C98FF0E8
:102BD700121C0F022C95900460E0FEA3E0FFD39433
:102BE7001DEE648094805020C3741E9FFDE49EFCFC
:102BF7001218CF9003E2E0F8A3E0F9A3E0FAA3E00C
:102C0700FB12169AD2058024900461E024E2FD901D
:102C17000460E034FFFC1218CF9003E2E0F8A3E071
:102C2700F9A3E0FAA3E0FB12169AC205124A6A90CA
:102C370003D8E0FBA3E0FAA3E0F9C003C002C00198
:102C4700121CAFC004C005C006C007900460E0FEB8
:102C5700A3E0FFC3741E9FFDE49EFC1218CF9003F0
:102C6700E2E0F8A3E0F9A3E0FAA3E0FB12169AA8C2
:102C770004A905AA06AB07D007D006D005D00412D1
:102C870015A9D001D002D003121CFF022D1D7F0809
:102C97001248FA7F051248FA7F4112463B7F4412D9
:102CA700463B7F4312463B7F3A12463B900461E026
:102CB70025E0FF900460E033FE74E62FF58274038D
:102CC7003EF583E0FCA3E0FDE41218CFE4FBFA79BC
:102CD7008078441217A3E4FBFA79A0784012169A79
:102CE70012383B7F5612463B7F1012463B7FDC7EF5
:102CF70005124ABF900461E004F07006900460E09A
:102D070004F0C3900461E0943C900460E064809414
:102D1700805003022B49900460E07004A3E0643CF8
:102D27006003022DF47B017A0379E61243FA9004DB
:102D37005EEEF0A3EFF0E025E0FF90045EE033FEE7
:102D470074E62FF58274033EF583E0F9A3E0FF9064
:102D570003DBE0FBA3E0FAA3E0C98FF0121C0F909E
:102D6700045EE0FEA3E0FFC3743B9FFDE49EFCE42A
:102D77001218CF9003E2E0F8A3E0F9A3E0FAA3E08A
:102D8700FB12169AC205124A6A9003D8E0FBA3E029
:102D9700FAA3E0F9C003C002C001121CAFC004C00F
:102DA70005C006C00790045EE0FEA3E0FFC3743BC6
:102DB7009FFDE49EFCE41218CF9003E2E0F8A3E045
:102DC700F9A3E0FAA3E0FB12169AA804A905AA063C
:102DD700AB07D007D006D005D0041215A5D001D077
:0D2DE70002D003121CFF7FF47E01124ABFD0
:012DF40022BC
:1043FA00E4FDFC900462F0A3741DF0E4A3F0A3F0C2
:10440A00900464E0FEA3E0FFD3943BEE9400507363
:10441A00EF25E0FFEE338F82F583121BD7FFD3ED32
:10442A009FEC95F04006AE04AF058016900465E057
:10443A0025E0FF900464E0338F82F583121BD7FFD7
:10444A00AEF0AC06AD07900465E025E0FF90046489
:10445A00E0338F82F583121BD7B50516ECB5F0123F
:10446A004D600F900464E0FFA3E0900462CFF0A3D4
:10447A00EFF0900465E004F07086900464E004F0C4
:0B448A0002440A900462E0FEA3E0FF81
:014495002204
:0B39AD009003BFEFF0A3EDF0A3EBF0E0
:1039B8009003D0121DA1000000009003C4E0FBA3F7
:1039C800E0FAA3E0F9121CAF9003D4121D959003FE
:1039D800C7E0FBA3E0FAA3E0F9E4F5F0121C0F90AE
:1039E80003CDE0FBA3E0FAA3E0F9E4F5F0121C0F25
:1039F8009003CAE0FBA3E0FAA3E0F9121DD200008D
:103A080000001240A8EF4E7003023AE39003C2E0B0
:103A18009003DBF09003C3E09003DCF0A37401F0A3
:103A2800A37403F0A374D4F0A3121DA1C170000005
:103A38009003C1E0FB9003C0E0FD9003BFE0FF12DC
:103A4800000EE4FFFE7D707C419003D4E0F8A3E013
:103A5800F9A3E0FAA3E0FB1215A99003CAE0FBA3BF
:103A6800E0FAA3E0F9121CFF9003DB7401F0A374E1
:103A780003F0A374C7F0A37401F0A37403F0A37454
:103A8800CDF07B017A0379D4122AEC9003CAE0FBCB
:103A9800A3E0FAA3E0F9121D759003D4E0FCA3E0BB
:103AA800FDA3E0FEA3E0FF1215A59003D0121D951B
:103AB8009003D4E0FCA3E0FDA3E0FEA3E0FF9003A5
:103AC800C4E0FBA3E0FAA3E0F9121CFF9003D0E0E6
:103AD800FCA3E0FDA3E0FEA3E0FF22E4FFFEFDFC63
:013AE80022BB
:0D4A14007F027E00124A21D2CC7F027E007C
:104A2100EF1FAA0670011E4A6013E4FCFDC3ED945A
:0D4A310009EC940050EA0DBD00010C80F06E
:014A3E002255
:014CD30022BE
:0F4C5C00D2CCD2C7124A1DC2C7124A1DC2CC22E7
:104BEC00C2CCC2C7124A1DD2CCC2C77F047E0012EF
:054BFC004A21D2C7228E
:104BC100E425E0FBC2CC124A1D30C704EB4401FBD3
:054BD100124A1BAF03B6
:014BD60022BC
:054CC200124A14C2CCEF
:014CC70022CA
:0E4C6B00C2CCD2C7124A14C2CC124A1DC2C714
:014C79002218
:054A9200F9121AE5FF16
:024A9700A9076D
:104A9900E4FBC2CCE930E704D2C78002C2C7124A9C
:0F4AA9001DD2CCE925E0F9124A1D0BEBB408E34E
:014AB80022DB
:1041630090047FEBF0A3EAF0A3E9F0124C5C7F012B
:104173007E00124A217F40124A97124BC1EF701200
:1041830090047FE0FBA3E0FAA3E0F9121ACCFF123C
:104193004A97124BC1EF701090047FE0FBA3E0FA43
:1041A300A3E0900001124A92124BC1EF70109004E9
:1041B3007FE0FBA3E0FAA3E0900002124A92124BC5
:1041C300C1EF701190047FE0FBA3E0FAA3E0F99044
:1041D3000003124A93124BC1EF701190047FE0FB6E
:1041E300A3E0FAA3E0F9900004124A93124BC1EF43
:1041F300701190047FE0FBA3E0FAA3E0F9900005BF
:0D420300124A93124BC1EF7003124BEC22D4
:0D4A3F007F017E00124A4CD2C37F017E0031
:104A4C00EF1FAA0670011E4A6013E4FCFDC3ED942F
:0D4A5C0004EC940050EA0DBD00010C80F048
:014A6900222A
:10471F007B6053B3F143B407C2C1124A48E490031C
:10472F00CDF0A3F0C2C3124A48EB30E704D2C280E7
:10473F0002C2C2124A3FEB25E0FB9003CEE004F029
:10474F0070069003CDE004F0C39003CEE094089080
:10475F0003CDE06480948040CBD2C17F0A7E0012EB
:09476F004A4C1242BCEF20E0F9B3
:01477800221E
:0747D2007F327E00124A4C09
:1047D9007B06C2C1E49003CDF0A3F0C2C3124A48DC
:1047E900EB30E704D2C28002C2C2124A3FEB25E095
:1047F900FB9003CEE004F070069003CDE004F0C313
:104809009003CEE094089003CDE06480948040CB7F
:09481900D2C17F017E00024A4C6D
:073E0F00E09003D2F07F02F6
:023E1600AB07F8
:103E1800C2C1124A48E49003D3F0A3F0C2C3124AC5
:103E280048EB30E704D2C28002C2C2124A3FEB25F7
:103E3800E0FB9003D4E004F070069003D3E004F0B4
:103E4800C39003D4E094089003D3E0648094804046
:103E5800CBE49003D3F0A3F0C2C3124A489003CE38
:103E6800A3A3A3E05480FFE4FEFDFC7B80FAF9F8ED
:103E7800C3121C8B7004D2C28002C2C2124A3F9085
:103E880003CEE0FCA3E0FDA3E0FEA3E0FF7801126F
:103E98001C9C9003CE121D959003D4E004F070068C
:103EA8009003D3E004F0C39003D4E094189003D3B4
:103EB800E06480948040A1E49003D3F0A3F0C2C3EF
:103EC800124A489003D2E030E704D2C28002C2C24C
:103ED800124A3F9003D2E025E0F09003D4E004F0CA
:103EE80070069003D3E004F0C39003D4E0940890E4
:103EF80003D3E06480948040C5D2C17F017E000274
:023F08004A4C21
:023C0B00AB0705
:103C0D00E4900626F0C2C17F01FE124A4CE4A3F0F7
:103C1D00A3F0C2C3124A48EB30E704D2C28002C2FD
:103C2D00C2124A3FEB25E0FB900628E004F0700637
:103C3D00900627E004F0C3900628E094089006272C
:103C4D00E06480948040CBE4900627F0A3F0C2C3DB
:103C5D00124A48900622A3A3A3E05480FFE4FEFD80
:103C6D00FC7B80FAF9F8C3121C8B7004D2C280025F
:103C7D00C2C2124A3F900622E0FCA3E0FDA3E0FE83
:103C8D00A3E0FF7801121C9C900622121D95900650
:103C9D0028E004F07006900627E004F0C390062893
:103CAD00E09418900627E06480948040A17F0A7EFE
:103CBD0000124A4CD2C47F027E00124A4CE4900698
:103CCD0027F0A3F0900626E025E0F0124A46C2C385
:103CDD00124A4830C404E04401F0900628E004F094
:103CED007006900627E004F0C3900628E094089033
:103CFD000627E06480948040CBD2C1124A489006DA
:033D0D0026E0FFAE
:013D10002290
:1042BC00E4FB9003CFF0A3F0A3F07905C2C17F011A
:1042CC00FE124A4CE49003D0F0A3F0C2C3124A4849
:1042DC00E930E704D2C28002C2C2124A3FE925E0AB
:1042EC00F99003D1E004F070069003D0E004F0C321
:1042FC009003D1E094089003D0E06480948040CB8C
:10430C007F0A7E00124A4CD2C47F027E00124A4CB5
:10431C00E49003D0F0A3F0EB25E0FB124A46C2C3B5
:10432C00124A4830C404EB4401FB9003D1E004F082
:10433C0070069003D0E004F0C39003D1E094089091
:10434C0003D0E06480948040CED2C1124A48AF03BF
:01435C00223E
:103D11009003CAE0FBA3E0FAA3E0F9121CAFE4FBB5
:103D2100FAF9F8C3121C8B700D1247D912471F7F85
:103D3100057E00124A4C1247D99003CE121DA100F4
:103D41000000009003BF123E0F1247D29003CE1223
:103D51001DA1000000019003C0123E0F1247D29036
:103D610003CE121DA1000000029003C1123E0F12EA
:103D710047D29003CE121DA1000000039003C2128E
:103D81003E0F1247D29003CE121DA10000000490F5
:103D910003C3123E0F1247D29003CE121DA10000A1
:103DA10000059003C4123E0F1247D29003CE121D9C
:103DB100A1000000069003C5123E0F1247D29003E6
:103DC100CE121DA1000000079003C6123E0F12473C
:103DD100D29003CE121DA1000000089003C7123E2D
:103DE1000F1247D29003CE121DA1000000099003CB
:103DF100C8123E0F1247D29003CE121DA10000003F
:0E3E01000A9003C9123E0F7F327E00024A4C27
:0300000002452B8B
:0C452B00787FE4F6D8FD7581210245720E
:1015A200021974E86480F8E933E83360110460F0EA
:1015B200ED33EC337009E8FCE9FDEAFEEBFF2204AF
:1015C20060DED3EB9FEA9EE99DE8C2E78CF0C2F7AA
:1015D20095F0400CE8CCF8E9CDF9EACEFAEBCFFB76
:1015E20012193F85D0F05804700320D5B3E8047077
:1015F200075002B2D502197E92D5EC0460F7E4CC12
:10160200C0E0C398F8603B94186008400DD0E0FB3E
:10161200021956E4FBFAC9FC8028E830E406E4C962
:10162200FBE4CAFCE830E305E4C9CACBFCE8540792
:101632006010F8C3E913F9EA13FAEB13FBEC13FC9D
:10164200D8F130F52FC3E49CFCEF9BFFEE9AFEED40
:1016520099FDD0E0FBEF4E4D4C701222DB030219D4
:101662007BEC2CFCEF33FFEE33FEED33FDED30E788
:10167200EB021956EF2BFFEE3AFEED39FDD0E0FBFF
:1016820050130BBB000302197EED13FDEE13FEEFA8
:0816920013FFEC13FC021956D2
:10169A00EC4D6011E8497017ED33EC3304600DE44A
:1016AA00FCFFFEFD22E933E8330470F802197412D4
:1016BA00193F58046009E4CC2481500628500902D5
:1016CA00197E28400302197BC0E0EB4A7044B980B6
:1016DA0006D0E0FB02196AEF4E701CBD8008EBFFD2
:1016EA00EAFEE9FD80EBE98DF0A4FEE5F00217833E
:1016FA00E9CDF9EAFEEBFFEF89F0A4FCE5F0CE892B
:10170A00F0A42EFFE435F0CD89F0A42DFEE435F0E7
:10171A008067EF4E7005BD80D780C3EF8BF0A4AC15
:10172A00F0EE8BF0A42CFCE435F0F8EF8AF0A42C50
:10173A00E5F038FCE433CB8DF0A42CFCE5F03BF863
:10174A00EE8AF0A42CFCE5F038F8E433CF89F0A453
:10175A002CFCE5F038CF3400CE89F0A42FFFE5F059
:10176A003EFEE433C98DF0A42EFEE5F039CD8AF0B1
:10177A00A42FFFE5F03EFEE43DFD33D0E0FB500729
:10178A000BBB000F02197EEC2CFCEF33FFEE33FE8D
:06179A00ED33FD021956BB
:1017A00002197EEC5D046005E859047003021974A7
:1017B00012193F580460F6EC4860F2EC7004FDFE2C
:1017C000FF22C860DB2481C85009C398600250061C
:1017D00002197B9850CAF582E9294B4A7005AB8201
:1017E00002196A75F0007C1A7880C3EF9BEE9AEDBF
:1017F00099400DC3EF9BFFEE9AFEED99FDE842F094
:10180000DC23ACF0D0E0FFD0E0FED0E0FDAB8220E6
:10181000E7101BEB60BAEC2CFCEF33FFEE33FEED70
:1018200033FD021956E803F830E705C0F075F00003
:10183000EF2FFFEE33FEED33FD40B830E7C280AA54
:1018400074F8CC6480CCC86480C8F58204604FC34F
:10185000EB9FF5F0EA9E42F0E99D42F0E89C45F0EE
:10186000603C501DE5825FFFE582D313CB5BCBF478
:101870002B5582FB50280ABA002409B900200880A1
:101880001DE5825BFBE582D313CF5FCFF4C3132F3B
:101890005582FF50090EBE00050DBD00010CC3EBC3
:1018A0009FF5F0EA9E42F0E99D42F0E89C45F06029
:0918B00007CC4820E701B3EC224B
:1018B900ED33EC33600A047003BD8004ECB2E7FC3D
:0118C90022FC
:1018CA0075F020800E75F010800575F0087D007E99
:1018DA00007F003392D530D503121C7DEC334010C3
:1018EA00EF33FFEE33FEED33FDEC33FCD5F0ED22A2
:0E18FA00E5F0247EA2D513CC92E7CDCEFF22DE
:10190800EDD2E7CD33EC3392D524814006E4FFFED7
:10191800FDFC22FCE4CFCECDCC24E0501174FF8036
:10192800EDC3CC13CCCD13CDCE13CECF13CF0470D3
:07193800F030D5DE021C7D3A
:10435D009004D4121D959004D8E0F8A3E0F9A3E0E1
:10436D00FAA3E0FB9004D4E0FCA3E0FDA3E0FEA3E0
:10437D00E0FF1217A3123B099004D4121D9590046F
:10438D00D8E030E7599004D4E0FCA3E0FDA3E0FEB3
:10439D00A3E0FFECC0E0EDC0E0EEC0E0EFC0E0E474
:1043AD00FFFEFDFC9004D4E0F8A3E0F9A3E0FAA32E
:1043BD00E0FB1218407BDB600250087A0F794978D8
:1043CD004080067A0F794978C0D0E0FFD0E0FED06A
:1043DD00E0FDD0E0FC1215A99004D4121D959004B7
:0D43ED00D4E0FCA3E0FDA3E0FEA3E0FF226E
:1036B3003A70FA83BCAAE9E43E81E0F8BF9DE9E6EB
:1036C3003F80000039283C1ABB9969663DA335E366
:1036D300BF255DE73FC90FDB418DDBCCC44936EE27
:1036E30045C9913FC5B0F83D3F800000C317F5348D
:1036F300452FFA73C60AFDDD1237BC04A2E1920519
:103703001420E0159036B3740412198980301237EF
:10371300BC30E102B20520E0EBA883A9829004D477
:10372300121D95898288839036C77404121989857E
:1037330082F09004D4121D5985F08212169AED4C32
:103743006007300504EC6480FC221237BCC0E0A89B
:1037530083A9829004D4121D95898288839036EBC5
:1037630074031219898582F09004D4121D5985F0CF
:103773008212169A9004D4E0CCF0A3E0CDF0A3E03B
:10378300CEF0A3E0CFF09036DB7403121989D08218
:103793008582F09004D4121D5985F082E58230E0D1
:1037A300071217A3B2058096EFCBFFEECAFEEDC951
:1037B300FDECC8FC1217A38085ED33EC547FCC33AA
:1037C300920524605007D0E0D0E00219747B837A1D
:1037D300F97922783E12169AEDF933ECF833248105
:1037E3005011EFFBEEFA1219081218CAECB2E7FCFB
:1037F3001215A9ED33EC33602F2403F8C313FCED4A
:1038030092E7FDE82481E4501FECF8EDF9EEFAEFBE
:10381300FB121908EF04C2E0FCF5821218D4ECB2D3
:10382300E7FC1215A9E58203FAED33EC33600714C4
:0838330013FCED92E7FDEA220F
:10486C00ECC0E0F8EDC0E0F9EEC0E0FAEFC0E0FB20
:10487C0012169AEC6480FC7B007A007980783F12E7
:10488C0015A9124214D0E0FBD0E0FAD0E0F9D0E048
:10489C00F8C0E01217A3123B09D0E030E70B7840C8
:0A48AC0079497A0F7BD91215A92271
:10497A00ECC0E0F8EDC0E0F9EEC0E0FAEFC0E0FB11
:10498A0012169AEC6480FC7B007A007980783F12D8
:10499A0015A9124214D0E0CFFBD0E0CEFAD0E0CD78
:0B49AA00F9D0E0CCF81217A3023B0983
:10193F00E9D2E7C933E833F892D5EDD2E7CD33ECEE
:07194F0033FC5002B2D52267
:10195600EC30E7100FBF000C0EBE00080DBD0004F2
:101966000BEB6014A2D5EB13FCED92E7FD2274FF9E
:10197600FCFDFEFF22E480F8A2D574FF13FC7D80F7
:03198600E480EF0B
:10198900C0E0EFFBEEFAEDF9ECF812169AD0E0F5AB
:10199900F0EFFBEEFAEDF9ECF8121D49A3A3A3A3AE
:1019A900E8C0E0E9C0E0EAC0E0EBC0E0C0F0121630
:1019B9009A121D65A3A3A3A31215A9D0F0D0E0FB29
:0D19C900D0E0FAD0E0F9D0E0F8D5F0D4225B
:1042100002197422EDA2E7D2E7F9EC3340F260F321
:10422000B4FF08ED547F70E802197EF82481C2E0E3
:10423000C0E0F40428FAC313FCED92E7FD9004D427
:10424000121D95EEA2E7E9BA7F02C3133400940071
:10425000FA75F091A4E5F013F494FE8AF0A433E526
:10426000F033248CD313FDE492E7FE7F007C3F758E
:104270008302ECC0E0F8EDC0E0F9EEC0E0FAEFC078
:10428000E0FB8583F09004D4121D3D85F083121766
:10429000A3D0E0FBD0E0FAD0E0F9D0E0F81215A905
:1042A000ED6480FD30E7011CD583C7ED33CC33F8D6
:0C42B000D0E0A2E71328C313CC13FD22BA
:103AE900BE1249253E4CCCCDBEAAAAAB3F800000F0
:103AF9003E7ADBB03EED63383F24BC7D3F490FDBA6
:103B0900ED33ECC2E7CC339205B4FF13ED547F607B
:103B1900030219747FDB7E0F7DC97C3F023BFEC225
:103B290006C3947F401E7007EDD2E794904015EFCD
:103B3900FBEEFAEDF9ECF87F007E007D807C3F1208
:103B490017A3D206ED33EC33248430E705E4C0E053
:103B5900806B04FAEDD2E754F0C333DAFD5407342D
:103B6900002323C0E0CCC0E0F8EDC0E0F9EEC0E0EE
:103B7900FAEFC0E0FBE41218D4EC24FEFC9004DC5C
:103B8900121D9512169A7B007A007980783F1215DA
:103B9900A99004DCE0B2E7CCF0A3E0CDF0A3E0CE3D
:103BA900F0A3E0CFF0D0E0FBD0E0FAD0E0F9D0E02C
:103BB900F81215A99004DC121D591217A39004DC00
:103BC900121D95903AE974031219899004DC121DAB
:103BD9005912169AD0E0600F24F5F582E4343AF5CB
:103BE90083121D651215A930060B7BDB7A0F79C983
:103BF90078BF1215A9ED33EC336006ECA20592E704
:023C0900FC229B
:10453700020B0EE493A3F8E493A34003F68001F281
:1045470008DFF48029E493A3F85407240CC8C33385
:10455700C4540F4420C8834004F456800146F6DF54
:10456700E4800B01020408102040809026FAE47EC4
:10457700019360BCA3FF543F30E509541FFEE49349
:10458700A360010ECF54C025E060A840B8E493A310
:10459700FAE493A3F8E493A3C8C582C8CAC583CA3B
:1045A700F0A3C8C582C8CAC583CADFE9DEE780BEF3
:012AEB0000EA
:1019D600E709F608DFFA8046E709F208DFFA803EF3
:1019E60088828C83E709F0A3DFFA8032E309F608E0
:1019F600DFFA8078E309F208DFFA807088828C8348
:101A0600E309F0A3DFFA806489828A83E0A3F608FB
:101A1600DFFA805889828A83E0A3F208DFFA804CD5
:101A260080D280FA80C680D4806980F280338010AC
:101A360080A680EA809A80A880DA80E280CA803315
:101A460089828A83ECFAE493A3C8C582C8CCC5838D
:101A5600CCF0A3C8C582C8CCC583CCDFE9DEE7805D
:101A66000D89828A83E493A3F608DFF9ECFAA9F0DC
:101A7600EDFB2289828A83ECFAE0A3C8C582C8CC32
:101A8600C583CCF0A3C8C582C8CCC583CCDFEADE4B
:101A9600E880DB89828A83E493A3F208DFF980CCAD
:101AA60088F0EF60010E4E60C388F0ED2402B404A6
:101AB6000050B9F582EB2402B4040050AF2323454D
:061AC6008223901A267332
:101ACC00BB010689828A83E0225002E722BBFE0218
:091ADC00E32289828A83E493224B
:101AE500BB010CE58229F582E5833AF583E02250B6
:101AF50006E92582F8E622BBFE06E92582F8E22200
:0D1B0500E58229F582E5833AF583E4932219
:101B1200BB010689828A83F0225002F722BBFE01B2
:021B2200F322AC
:101B2400EF8DF0A4A8F0CF8CF0A428CE8DF0A42ED5
:021B3400FE228F
:101B3600BC000BBE0029EF8DF084FFADF022E4CC93
:101B4600F875F008EF2FFFEE33FEEC33FCEE9DEC5C
:101B5600984005FCEE9DFE0FD5F0E9E4CEFD22EDA2
:101B6600F8F5F0EE8420D21CFEADF075F008EF2FEC
:101B7600FFED33FD4007985006D5F0F222C398FDDD
:051B86000FD5F0EA227A
:101B8B00C2D5EC30E709B2D5E4C39DFDE49CFCEE75
:101B9B0030E715B2D5E4C39FFFE49EFE121B36C39C
:101BAB00E49DFDE49CFC8003121B3630D507C3E497
:061BBB009FFFE49EFE22E4
:101BC100A3F8E0C5F025F0F0E582158270021583D7
:061BD100E0C838F0E82234
:101BD700BB0110E58229F582E5833AF583E0F5F04C
:101BE700A3E0225009E92582F886F008E622BBFE29
:101BF7000AE92582F8E2F5F008E222E5832AF5836F
:081C0700E993F5F0A3E9932233
:101C0F00BB010A89828A83F0E5F0A3F0225006F720
:0F1C1F0009A7F01922BBFE06F3E5F009F319221D
:101C2E00E88FF0A4CC8BF0A42CFCE98EF0A42CFC55
:101C3E008AF0EDA42CFCEA8EF0A4CDA8F08BF0A4D3
:101C4E002DCC3825F0FDE98FF0A42CCD35F0FCEB32
:101C5E008EF0A4FEA9F0EB8FF0A4CFC5F02ECD39F7
:0F1C6E00FEE43CFCEAA42DCE35F0FDE43CFC2264
:1048B600C2D5E830E70FB2D5E4C39BFBE49AFAE42D
:1048C60099F9E498F8EC30E717B2D51248EC121EC5
:1048D6004AE4C39BFBE49AFAE499F9E498F8800366
:1048E600121E4A30D50DE4C39FFFE49EFEE49DFDF3
:0448F600E49CFC2220
:0E1C7D00C3E49FFFE49EFEE49DFDE49CFC2278
:101C8B00EB9FF5F0EA9E42F0E99D42F0E89C45F0AF
:011C9B002226
:101C9C00E8600FEFC333FFEE33FEED33FDEC33FCA6
:031CAC00D8F1224A
:101CAF00BB010789828A83021D3D5005E9F8021E98
:101CBF00DCBBFE05E9F8021EE889828A83021D4912
:101CCF00BB010DE58229F582E5833AF583021D3DBF
:101CDF005007E92582F8021EDCBBFE07E92582F8D2
:101CEF00021EE8E58229F582E5833AF583021D4954
:101CFF00BB010789828A83021D955005E9F8021FEF
:0A1D0F000EBBFE05E9F8021F1A22C0
:101D1900BB010DE58229F582E5833AF583021D951C
:101D29005007E92582F8021F0EBBFE07E92582F854
:041D3900021F1A2249
:0C1D3D00E0FCA3E0FDA3E0FEA3E0FF2219
:101D4900E493FC740193FD740293FE740393FF22E0
:0C1D5900E0F8A3E0F9A3E0FAA3E0FB220D
:101D6500E493F8740193F9740293FA740393FB22D4
:101D7500BB010789828A83021D595005E9F8021EB5
:101D8500F4BBFE05E9F8021F0189828A83021D65FD
:0C1D9500ECF0A3EDF0A3EEF0A3EFF022C1
:101DA100A8828583F0D083D082121DB8121DB8128B
:101DB1001DB8121DB8E473E493A3C583C5F0C583B0
:101DC100C8C582C8F0A3C583C5F0C583C8C582C88C
:011DD10022EF
:101DD200BB010789828A83021DA15005E9F8021F0F
:0A1DE20026BBFE05E9F8021F3F22B0
:0C1DEC00A42582F582E5F03583F5832202
:0C4CA200EE30E707C3E49FFFE49EFE2213
:103F0A00900629EBF0A3EAF0A3E9F0900629E0FB7A
:103F1A00A3E0FAA3E0F9121ACCFF124C15500C9048
:103F2A00062AE475F001121DF880E0D209900629EC
:103F3A00E0FBA3E0FAA3E0F9121ACCFF642B6004B9
:103F4A00EFB42D1D900629E0FBA3E475F001121BC6
:103F5A00C1A9F0FA121ACC642D6003D38001C3926E
:103F6A0009E490062CF0A3F0900629E0FBA3E0FAFE
:103F7A00A3E0F9121ACCFF124C7A5042900629E0BB
:103F8A00FBA3E0FAA3E0F9121ACCFF3395E0FEEFA7
:103F9A0024D0FBEE34FFFA90062CE0FEA3E0FF7C6F
:103FAA00007D0A121B24EF2BFFEE3A90062CF0A399
:103FBA00EFF090062AE475F001121DF880AA300984
:103FCA000A90062CE0FEA3E0FF800F90062CE0FE8C
:0B3FDA00A3E0FFC3E49FFFE49EFE2273
:101DF800C5F0F8A3E028F0C5F0F8E5821582700276
:061E08001583E038F02212
:101E0E0075F008758200EF2FFFEE33FECD33CDCC8B
:101E1E0033CCC58233C5829BED9AEC99E58298400E
:101E2E000CF582EE9BFEED9AFDEC99FC0FD5F0D6EB
:101E3E00E4CEFBE4CDFAE4CCF9A88222B800C1B915
:101E4E000059BA002DEC8BF084CFCECDFCE5F0CB53
:101E5E00F97818EF2FFFEE33FEED33FDEC33FCEB8C
:101E6E0033FB10D703994004EB99FB0FD8E5E4F947
:101E7E00FA227818EF2FFFEE33FEED33FDEC33FC34
:101E8E00C933C910D7059BE99A4007EC9BFCE99A28
:101E9E00F90FD8E0E4C9FAE4CCFB2275F010EF2F6D
:101EAE00FFEE33FEED33FDCC33CCC833C810D7076D
:101EBE009BEC9AE899400AED9BFDEC9AFCE899F8A8
:0E1ECE000FD5F0DAE4CDFBE4CCFAE4C8F9223B
:0C1EDC00E6FC08E6FD08E6FE08E6FF2232
:0C1EE800E2FC08E2FD08E2FE08E2FF2236
:0D1EF400E6FB08E6F908E6FA08E6CBF8225E
:0D1F0100E2FB08E2F908E2FA08E2CBF82260
:0C1F0E00ECF608EDF608EEF608EFF622FF
:0C1F1A00ECF208EDF208EEF208EFF22203
:101F2600D083D082E493F608740193F60874029382
:091F3600F608740393F6740473B9
:101F3F00D083D082E493F208740193F20874029371
:091F4F00F208740393F2740473A8
:0F4C7A00EFC394304007EF943A50028001C322F9
:104C1500EFC394094005EF940E4004EFB42003D38D
:044C25008001C32225
:00000001FF
