:100A63004300326868004300356D6D0042002E007C
:100A73000042003C0000420030000044002A686845
:0E0A83006D6D420022000044002668686D6D13
:03000B0002000AE6
:01000A0032C3
:1003AA00E490000CF0A3F01209CF120BF91200032B
:1003BA00120BD9120000438E80E4F58A758CB8F5C9
:1003CA0089D28CD2A9D2AF7D067F12120B717FF42B
:1003DA007E01120B367D057F12120B717FF47E01AE
:1003EA00120B367F017E0012000E7F681208EB7F27
:1003FA00681208EB7F6D1208EB7F6D1208EB7F2302
:10040A001208EB12002690000DE004F0700690002E
:10041A000CE004F07F027E0012000E900007E0FF5D
:10042A00120B547F3A1208EB900006E0FF120B54AD
:10043A007F3A1208EB900005E0547FFF120B5490AC
:10044A000009E0FF120B54900008E0FF120B547FE2
:10045A00087E0012000090000AEEF0A3EFF01207E7
:10046A004E120C069000167401F0A37400F0A374E7
:10047A0008F0A37401F0A37400F0A37407F0A37446
:10048A0001F0A37400F0A37406F0A37401F0A3743E
:10049A0000F0A37405F07B017A00790912096090D3
:1004AA00003CE07002A3E0700302040D900038E003
:1004BA00FF7D06120B71900039E0FF7D05120B716A
:1004CA00E490003CF0A3F0900038E0FF120C1A9080
:0A04DA000039E0FF120C1A02040DB5
:030023000206B31F
:1006B300C0E0C0F0C083C082C0D075D00830987944
:1006C30090002FE004F0700690002EE004F0C29832
:1006D30090002EE0FEA3E0FFD39402EE64809480AA
:1006E300500F74312FF58274003EF583E599F08045
:1006F30048C3EF9403EE64809480403D74322FF539
:100703008274003EF583E599F0EF64044E702A90FD
:10071300002EF0A3F07B017A007932120B8990004E
:1007230038EFF07B017A007935120B89900039EFAD
:10073300F090003CE4F0A304F0309904C299C200A5
:0B074300D0D0D082D083D0F0D0E032C4
:090C1A002000FDD200EFF5992243
:04074E00AB07AA0645
:100752007C007D0A120521900013EDF07C037DE8F8
:10076200AF03AE02120521900016EFF07E007C036B
:100772007DE812050FC3EB9FFFEA9EFE7C007D64BD
:10078200120521900015EFF0A3E0FF7E007C037DAF
:10079200E812050FC3EB9FFDEA9EFC900015E07581
:1007A200F064A4FFC3ED9FFFEC95F0FE7C007D0A90
:1007B200120521900014EFF0900016E04430FF1271
:1007C20008EB900015E04430FF1208EB900014E0B3
:1007D2004430FF1208EB900013E04430FF1208EBA4
:0107E20022F4
:060BA000D2A17F017E00DE
:0E0BA600EF1FAC0670011E4C60030080F322AE
:020AF600AD074A
:100AF800E4FBC2A1ED30E704D2A28002C2A2120B2D
:0D0B0800A2120BA0ED25E0FD0BEBB408E5FB
:010B150022BD
:100B1600E4FDD2A2FBED25E0FDC2A1120BA230A29C
:0F0B260004ED4401FD120BA00BEBB408E8AF0582
:010B3500229D
:100BC800E4FED2A0EF44A0FF120AF6120B16C2A050
:010BD80022FA
:100B7100AA07D2A0ED4420FF120AF6AF02120AF62C
:080B8100AF02120AF6C2A02225
:0D0BF9005395F85396F8D2A0C2A0C2A122D5
:10096000900013EBF0A3EAF0A3E9F07F09120BC8A3
:10097000900013E0FBA3E0FAA3E0F9EF1204FD7F7F
:1009800007120BC8900016E0FBA3E0FAA3E0F9EF12
:100990001204FD7F06120BC8900019E0FBA3E0FAD9
:1009A000A3E0F9EF1204FD7F05120BC890001CE0D4
:1009B000FBA3E0FAA3E0F9EF1204FD7F04120BC8D9
:0F09C00090001FE0FBA3E0FAA3E0F9EF0204FDB3
:10086F00EF14B40C00507490088475F003A4C58382
:10087F0025F0C583730208A80208AD0208B202086A
:10088F00B70208BC0208C10208C60208CB0208D092
:10089F000208D80208DD0208E2EDFF7E0022ED24F7
:1008AF001F8021ED243B801CED245A8017ED247806
:1008BF008012ED2497800DED24B58008ED24D480AF
:1008CF0003ED24F3FFE433FE22ED24118008ED2421
:0C08DF00308003ED244EFFE43401FE22C3
:100BD900759850438E9575D7D875D6FFD2ACD2AFDC
:010BE90022E9
:100A9F00900047EBF0A3EAF0A3E9F0900047E0FBEA
:100AAF00A3E0FAA3E0F91204E46017900047A3E46F
:100ABF0075F0011205ACA9F0FA1204E4FF120C1A3A
:030ACF0080D922A9
:060C2300EFC4540FFF2294
:050C2900EF540FFF2253
:010C3300229E
:050C2E00EF2430FF225D
:100B89001205D8EF75F00A84FEEF75F00A84AFF00C
:060B9900EEC454F04FFF12
:010B9F002233
:1009CF007F967E00120AD87F03120A237F1E7E00B5
:1009DF00120AD87F03120A23120AD47F03120A23A2
:1009EF00120AD47F02120A237F017E00120AD87FD7
:1009FF0002120A237F08120A23E4FF120A237F0E32
:100A0F00120A23E4FF120A237F06120A237F147EA1
:040A1F0000020AD8EF
:1008EB00900019EFF0D291C292E0FF5480C4131321
:1008FB0013540124FF9297EF5440C4131354032451
:10090B00FF9296E0FF5420C413540724FF9295EFF7
:10091B005410C4540F24FF9294D2937F017E001283
:10092B000AD8C293900019E0FF5408131313541FF5
:10093B0024FF9297EF54041313543F24FF9296E035
:10094B00FF5402C31324FF9295EF139294120AD211
:05095B00C293C29122CD
:100A2300C291C292EF5408131313541F6004D29758
:100A33008002C297EF54041313543F6004D296808C
:100A430002C296EF5402C3136004D2958002C2958A
:100A5300EF30E004D2948002C294120AD2C29322ED
:060AD200D2937F0A7E00B2
:100AD800EF1FAA0670011E4A6013E4FCFDC3ED94E3
:0D0AE80058EC940250EA0DBD00010C80F0A6
:010AF50022DE
:100B5400EFC4540F4430FEEF540F4430900013F0B0
:0D0B6400AF061208EB900013E0FF0208EB53
:0A0C0600E4FF120A237F02020A2312
:0A0C1000E4FF120A237F01020A2309
:10000E00EF64014E70047F0880027F0C120A23E415
:05001E00FF120A23227D
:0D0A910042003E000045004268686D6D7334
:100B3600EF1FAA0670011E4A6013E4FCFDC3ED9484
:0D0B460058EC940250EA0DBD00010C80F047
:010B5300227F
:10026F0053801F43801EE58044E1900019F0E0F4B5
:10027F0070030203A77F0A7E00120B36E58044E16C
:10028F00F0E0F470030203A45380DF4380C0E580E5
:10029F0044E1F0E0F46047900019E0FFF4600DA333
:1002AF00EFF0E58044E1900019F080EB90001AE048
:1002BF002411602424F8601824FC600C24FE701EA6
:1002CF0090001B7401F0801690001B7404F0800ED8
:1002DF0090001B7407F0800690001B740CF0538085
:1002EF00BF4380A0E58044E1900019F0E0F4604640
:1002FF00900019E0FFF4600DA3EFF0E58044E1906A
:10030F000019F080EB90001AE02411602424F860AB
:10031F001824FC600C24FE701D90001B7402F080EA
:10032F001590001B7405F0800D90001B7408F08071
:10033F0005E490001BF053807F438060E58044E12B
:10034F00900019F0E0F46047900019E0FFF4600DA1
:10035F00A3EFF0E58044E1900019F080EB90001AD4
:10036F00E02411602424F8601824FC600C24FE7033
:10037F001E90001B7403F0801690001B7406F08013
:10038F000E90001B7409F0800690001B740BF09008
:0A039F00001BE0FF227F64227F6450
:0103A9002231
:10002600900041E0900040F012026F900041EFF026
:10003600900040E06464600302026EA3E0FF646423
:10004600700302026E90003EE0FCA3E02442F582BB
:1000560074003CF583EFF090003FE004F0700690EA
:10006600003EE004F090003EE07004A3E06405600A
:100076000302020D90003EF0A3F0900042E075F0FE
:100086000AA4FFA3E0F97C002FFFEC35F0AD07FCD6
:10009600A3E075F00AA4FFA3E07A002FFFEA35F08B
:1000A600FEA3E0640B7036D3ED9418EC6480948064
:1000B600502BEF943BEE648094805021900042E0F8
:1000C600C454F0FFE94FFF7D06120B71900044E027
:1000D600C454F0FFA3E04FFF7D05120B7190004260
:1000E600E075F00AA4FFA3E07C002FFEEC35F0904B
:1000F6000015F0A3CEF0900044E075F00AA4FFA32B
:10010600E02FFEEC35F0900017F0A3CEF0900046FD
:10011600E0640C60030201E7900015E0FEA3E0FF37
:10012600D3940CEE6480948040030201E7EF9407B9
:10013600EE6480948050517D02120576ED4C601677
:10014600D3900018E0941F900017E06480948040DC
:10015600030201E78069900015E07004A3E06402E1
:100166007013D3900018E0941C900017E0648094FC
:1001760080506E804AD3900018E0941E900017E0DD
:1001860064809480505B8037900015E0FEA3E0FF0A
:100196007C007D02120576ED4C7013D3900018E0BA
:1001A600941F900017E06480948050358011D3909E
:1001B6000018E0941E900017E0648094805022900E
:1001C6000042E0C454F0FFA3E04FFF7D09120B711B
:1001D600900044E0C454F0FFA3E04FFF7D07120BEC
:1001E60071120C107F08120A23E4FF120A237F689B
:1001F6001208EB7F681208EB7F6D1208EB7F6D1219
:1002060008EB7F231208EBE4900013F0A3F09000B4
:100216003EE0FEA3E0FFC3900014E09FEE6480F88A
:10022600900013E0648098503FEF9404EE6480944D
:100236008050257F08120A23900013A3E0FF120ABC
:1002460023900013E0FEA3E02442F58274003EF5FD
:1002560083E04430FF1208EB900014E004F070AE27
:08026600900013E004F080A6F3
:01026E00226D
:070003005393015394012205
:030000000207E311
:0C07E300787FE4F6D8FD75812002082A1A
:1007EF000203AAE493A3F8E493A34003F68001F273
:1007FF0008DFF48029E493A3F85407240CC8C3330B
:10080F00C4540F4420C8834004F456800146F6DFD9
:10081F00E4800B0102040810204080900A63E47EFC
:10082F00019360BCA3FF543F30E509541FFEE493CE
:10083F00A360010ECF54C025E060A840B8E493A395
:10084F00FAE493A3F8E493A3C8C582C8CAC583CAC0
:10085F00F0A3C8C582C8CAC583CADFE9DEE780BE78
:010A9E000057
:1004E400BB010689828A83E0225002E722BBFE0216
:0904F400E32289828A83E4932249
:1004FD00BB010689828A83F0225002F722BBFE01DE
:02050D00F322D7
:10050F00EF8DF0A4A8F0CF8CF0A428CE8DF0A42E00
:02051F00FE22BA
:10052100BC000BBE0029EF8DF084FFADF022E4CCBE
:10053100F875F008EF2FFFEE33FEEC33FCEE9DEC87
:10054100984005FCEE9DFE0FD5F0E9E4CEFD22EDCD
:10055100F8F5F0EE8420D21CFEADF075F008EF2F17
:10056100FFED33FD4007985006D5F0F222C398FD08
:050571000FD5F0EA22A5
:10057600C2D5EC30E709B2D5E4C39DFDE49CFCEEA0
:1005860030E715B2D5E4C39FFFE49EFE120521C3F2
:10059600E49DFDE49CFC800312052130D507C3E4ED
:0605A6009FFFE49EFE220F
:1005AC00A3F8E0C5F025F0F0E58215827002158302
:0605BC00E0C838F0E8225F
:1005D800900000EBF0A3EAF0A3E9F0900000E0FB44
:1005E800A3E0FAA3E0F91204E4FF120BB4500C9054
:1005F8000001E475F0011205C280E0D2019000000C
:10060800E0FBA3E0FAA3E0F91204E4FF642B600422
:10061800EFB42D1D900000E0FBA3E475F001120576
:10062800ACA9F0FA1204E4642D6003D38001C392EC
:1006380001E4900003F0A3F0900000E0FBA3E0FACF
:10064800A3E0F91204E4FF120BEA5042900000E024
:10065800FBA3E0FAA3E0F91204E4FF3395E0FEEF10
:1006680024D0FBEE34FFFA900003E0FEA3E0FF7C09
:10067800007D0A12050FEF2BFFEE3A900003F0A35E
:10068800EFF0900001E475F0011205C280AA300174
:100698000A900003E0FEA3E0FF800F900003E0FE55
:0B06A800A3E0FFC3E49FFFE49EFE22DE
:1005C200C5F0F8A3E028F0C5F0F8E58215827002C4
:0605D2001583E038F02261
:0F0BEA00EFC394304007EF943A50028001C322CA
:100BB400EFC394094005EF940E4004EFB42003D32F
:040BC4008001C322C7
:00000001FF
