:106CB9003132330041542B43495053544152543DCE
:106CC90022544350222C223139322E3136382E317A
:106CD900312E323033222C383038300D0A00252E2F
:106CE90034660041542B43495053454E443D390DB8
:106CF9000A00540D0A004A0D0A00570D0A004D0DED
:066D09000A004C0D0A0017
:1049DA00420610000042060A000042061400004483
:1049EA00057568686D6D44061700000000440628C6
:1049FA00000000004105791E44061B000000004229
:104A0A00062600004106340044062C00000000443B
:104A1A0005AD00000000440605000000004205192B
:094A2A00000044051D68686D6D73
:03000B000270DCA4
:1070DC00C0E0C083C082758A00758CB8900627E02A
:1070EC0004F07006900626E004F0D082D083D0E045
:0170FC003261
:03001B0002730C61
:09730C00B295758B00758DB83245
:0300030002627D19
:10627D00C0E0C0F0C083C082C0D075D000C000C0E7
:10628D0001C002C003C004C005C006C00720B20D86
:10629D00758A00758CB8D28CD2A9026357C28CACAA
:1062AD008CE412235F90062C1229EC9003C0122966
:1062BD00F8410000007F007E007D007C40125B6590
:1062CD0090062CE0F8A3E0F9A3E0FAA3E0FB12217D
:1062DD0025C004C005C006C007AC8AE412235FD0F8
:1062ED0003D002D001D000122034E4FBFA793878C3
:1062FD00C71220347BBC7A747993784112222E9088
:10630D00062C1229EC90062CE0F8A3E0F9A3E0FA94
:10631D00A3E0FBC000C001C002C003900626E0FE52
:10632D00A3E0FF7C037DE812277BAC06AD07E412EA
:10633D00235AD003D002D001D00012203490062C65
:10634D001229EC900626E4F0A3F0D007D006D00574
:10635D00D004D003D002D001D000D0D0D082D083D1
:05636D00D0F0D0E03289
:100026009003CA7401F0E4A3F0A3F0A3F0A3F0A335
:10003600F0A3F09003ECF0A3F09003F01229F8007F
:1000460000000090064BE4F0A304F0E4900647F0AD
:10005600A3F0900645F0A3F090064DF0A3F0126CC5
:10006600601272B91272E0127193126F201272C688
:10007600127207438E80E4F58A758CB8F589F58B84
:10008600758DB8D28ED2ABD2AF7D067F091271AD17
:100096007F647E0012713D7D05E4FF1271AD7F64C1
:1000A6007E0012713D7F017E001271F27F68126A36
:1000B600B07F68126AB07F6D126AB07F6D126AB047
:1000C6007F23126AB0E49003EEF0A3F09003EEE013
:1000D600FAA3E0FBAE027802C333CE33CED8F924BE
:1000E60021F58274053EF5831229F800000000AD63
:1000F60003AC02EC12235AE4FBFAF9784012222EE2
:10010600E4FBFA79E07840122034C004C005C0064A
:10011600C0079003EEE0FAA3E0FBAE027802C33319
:10012600CE33CED8F924B1F58274053EF583D007D7
:10013600D006D005D0041229ECEB25E0FFEA33FE09
:1001460074832FF58274053EF583E4F0A3F09003E3
:10015600EFE004F070069003EEE004F09003EEE0AA
:100166007004A3E0641560030200D212727B7F4024
:100176007E1F12713D12731E7FF47E0112713D7B4C
:10018600FF7A6C79B91270B8124DF47F08126E328C
:100196007F06126E327F50126AB07F53126AB07FAA
:1001A6003A126AB0900628E0FCA3E0FDA3E0FEA3A5
:1001B600E0FF125CCB7F6D126AB07F6D126AB07F72
:1001C600027E001271F2900613E0FF12715B7F3A15
:1001D600126AB0900616E0FF12715B7F3A126AB09F
:1001E600900635E0547FFF12715B7F3B126AB09038
:1001F6000609E0FF12715B900612E0FF12715B7F49
:100206003B126AB0900649E07002A3E060047F41A9
:10021600800C900649E07002A3E070057F4D126ADB
:10022600B0900647E07002A3E06064900649E07073
:1002360002A3E0705A90064BE0FEA3E0FFEE4F24C7
:10024600FF92027F2A7E00126E7290064BE07004C7
:10025600A3E064019006287015E0FCA3E0FDA3E08E
:10026600FEA3E0FF7BCD7ACC79CC783E8013E0FC10
:10027600A3E0FDA3E0FEA3E0FF7BCD7ACC79CC78AA
:10028600BE1220349006281229ECE49003CAF0909E
:100296000645E07002A3E0606A900649E07002A39A
:1002A600E0706090064BE0FEA3E0FFEE4F24FF9265
:1002B600027F2A7E00126E7290064BE07004A3E065
:1002C60064019006287015E0FCA3E0FDA3E0FEA300
:1002D600E0FF7BCD7ACC79CC783E8013E0FCA3E0BE
:1002E600FDA3E0FEA3E0FF7BCD7ACC79CC78BE12ED
:1002F60020349006281229ECE49003CAF0900645B3
:10030600F0A3F030A3439003CAE0703DFFFEFDFC6E
:10031600900628E0F8A3E0F9A3E0FAA3E0FB122296
:10032600CB600250249006281229F80000000090A5
:1003360003CA7401F0E4900647F0A3F0900645F076
:10034600A3F090064BF0A304F01272F8900616E0A4
:10035600900623F09004EC7401F0A37406F0A374E5
:1003660012F0A37401F0A37406F0A37413F0A3743F
:1003760001F0A37406F0A37416F0A37401F0A3743D
:1003860006F0A37435F07B017A067909126B979013
:100396000616E0FF127182EF75F03284E5F0702DDB
:1003A600900635E0547FFF127182EF70207BFF7A52
:1003B6006C79BD126EED7F2C7E0112713D7BFF7A4A
:1003C6006C79B91270B87F2C7E0112713D90064986
:1003D600E07002A3E070030213A4900616E0FF1279
:1003E6007182900579E0FEEF8EF084E5F0600302FD
:1003F6000D40900635E0547FFF127182EF600302D4
:100406000D40900613E0FF127182EFD39410400363
:10041600020D2A900613E0FF127182EFC394075073
:1004260003020D2A900609E0FF900612E0FDA3E004
:10043600FB900616E09003FBF0900635E09003FC77
:10044600F01251809003F41229EC900616E0FF1288
:100456007182AC07E412235FE4FBFA7970784212EA
:10046600222EC004C005C006C007900613E0FF1286
:100476007182AC07E412235FD003D002D001D00012
:100486001220349004EF1229EC9004EC74FFF0A3D0
:10049600746CF0A374E7F07B017A05797A1245BC97
:1004A6007BFF7A6C79EC126EED7F0A7E0012713D4D
:1004B6007B017A05797A126EED7BFF7A6C79FB12F5
:1004C6006EED7F0A7E0012713D900616E0FF1271F6
:1004D60082AC07E412235FE4FBFA797078421222B9
:1004E6002EC004C005C006C007900613E0FF1271B7
:1004F60082AC07E412235FD003D002D001D00012F1
:100506002034E4FBFA79E078C0122034E4FBFA796F
:10051600707842122125C004C005C006C0079005A8
:1005260079E0FCE412235FA804A905AA06AB07D06C
:1005360007D006D005D00412222E1223939006105F
:10054600EEF0A3EFF0E025E0FF900610E033FE7436
:10055600832FF58274053EF583E4F0A304F0D29769
:10056600C292900609E0FF900612E0FD900616E0A2
:100576009003FBF0900635E09003FCF0A37401F0C5
:10058600A37406F0A37428F0A37401F0A37403F017
:10059600A374CFF0A37401F0A37403F0A374F0F076
:1005A600A37401F0A37403F0A374CDF0A37401F057
:1005B600A37406F0A3741BF0900613E0FB1255001B
:1005C600C004C005C006C007900610E0FEA3E07890
:1005D60002C333CE33CED8F92421F58274053EF515
:1005E60083D007D006D005D0041229EC7F9A7E99D5
:1005F6007D997C3F9005ADE0F8A3E0F9A3E0FAA36E
:10060600E0FB122125900605E0F8A3E0F9A3E0FA45
:10061600A3E0FB1222CB607D407B900616E090049F
:100626001FF0900635E0900420F0A37401F0A37447
:1006360006F0A37428F0A31229F800000000900623
:1006460013E0FB900612E0FD900609E0FF123A8BDC
:10065600900610E0FAA3E0FBAE027802C333CE3375
:10066600CED8F92421F58274053EF5831229F800C7
:10067600000000EB25E0FFEA33FE74832FF5827459
:10068600053EF583E4F0A3F09006171229F8000062
:100696000000020AA0900611E0243FFF900610E039
:1006A6003400FE3395E0FDFC9003F91229EC7F033C
:1006B60012606BEF64016003020870900610E0FEA2
:1006C600A3E0FF7C007D0312277BEE3395E0FDFC63
:1006D6009003F91229EC7F0312606BEF640160034B
:1006E600020798900610E0FEA3E0FF7C007D03124F
:1006F600277BEF2402FFE43EFE3395E0FDFC9003EA
:10070600F91229EC7F0312606BAC07E412235FE455
:10071600FBFA79C8784212222EC004C005C006C072
:1007260007900610E0FEA3E0FF7C007D0312277B06
:10073600EF2401FFE43EFE3395E0FDFC9003F91241
:1007460029EC7F0312606BAC07E412235FD003D061
:1007560002D001D000122034C004C005C006C00774
:10076600900610E0FEA3E07802C333CE33CED8F96C
:100776002421F58274053EF583E0FCA3E0FDA3E0A9
:10078600FEA3E0FFD003D002D001D0001220300239
:10079600086A900610E0FEA3E0FF7C007D031227A6
:1007A6007BEE3395E0FDFC9003F91229EC7F0312F2
:1007B600606BEF6003020870900610E0FEA3E0FF96
:1007C6007C007D0312277BEF2401FFE43EFE339578
:1007D600E0FDFC9003F91229EC7F0312606BAC0775
:1007E600E412235FC004C005C006C007900610E0EF
:1007F600FEA3E07802C333CE33CED8F92421F582A6
:1008060074053EF583E0F8A3E0F9A3E0FAA3E0FB64
:10081600D007D006D005D004122034C004C005C0CD
:1008260006C007900610E0FEA3E0FF7C007D0312E1
:10083600277BEF2402FFE43EFE3395E0FDFC9003A8
:10084600F91229EC7F0312606BAC07E412235FE414
:10085600FBFA79C8784212222ED003D002D001D0FA
:10086600001220349006171229EC7F327E00126F98
:1008760089126B4A900610E0FAA3E0FB243FFFE4DE
:100886003AFE3395E0FDFC9004071229ECEB25E0D7
:10089600FFEA33FE74832FF58274053EF583A3E0E9
:1008A60090040BF07F021261827F327E00126F8904
:1008B600126B4A900610E0FEA3E07802C333CE33F3
:1008C600CED8F92421F58274053EF583E0FCA3E039
:1008D600FDA3E0FEA3E0FFE4FBFAF9F81222CB90B9
:1008E60003CBE0FEA3E0FF7C007D64502C12277B47
:1008F600AA06AB07900610E0FEA3E0FF7D031227D1
:100906007BEF2BFFEE3AFE3395E0FDFC90040712D9
:1009160029EC90040B7401802912277BAA06AB07E9
:10092600900610E0FEA3E0FF7D0312277BEF2BFF6E
:10093600EE3AFE3395E0FDFC9004071229ECE490B4
:10094600040BF07F021261827F327E00126F897F74
:10095600327E00126F89126B4A900610E0FEA3E009
:100966007802C333CE33CED8F92421F58274053EFE
:10097600F583E0FCA3E0FDA3E0FEA3E0FF122393D2
:100986001272EC90040BEFF0900610E0FEA3E0FF6D
:100996007C007D0312277BEF2401FBE43EFA9003E3
:1009A600CBE0FEA3E0FF7D6412277BEF2BFFEE3A40
:1009B600FE3395E0FDFC9004071229EC7F021261DC
:1009C600827F327E00126F897F327E00126F89121B
:1009D6006B4A900610E0FEA3E07802C333CE33CE16
:1009E600D8F92421F58274053EF583E0FCA3E0FDE9
:1009F600A3E0FEA3E0FF1272D3C004C005C006C088
:100A060007900610E0FEA3E07802C333CE33CED8BB
:100A1600F92421F58274053EF583E0FCA3E0FDA3ED
:100A2600E0FEA3E0FF1223931272ECAC06AD07ECD6
:100A360012235AA804A905AA06AB07D007D006D0E8
:100A460005D004122030E4FBFA79C8784212212539
:100A560012239390040BEFF0900610E0FEA3E0FF44
:100A66007C007D0312277BEF2402FBE43EFA900311
:100A7600CBE0FEA3E0FF7D6412277BEF2BFFEE3A6F
:100A8600FE3395E0FDFC9004071229EC7F0212610B
:100A9600827F327E00126F898000900609E0900303
:100AA600E1F0900612E09003E2F0900613E0900366
:100AB600E3F0900616E09003E4F09003CFE0FEA387
:100AC600E07802CEC313CE13D8F99003E5F0900672
:100AD60028E0FCA3E0FDA3E0FEA3E0FF1223939031
:100AE60003E6EFF0FCE412235FA804A905AA06AB0F
:100AF60007900628E0FCA3E0FDA3E0FEA3E0FF12BA
:100B06002030E4FBFA79C87842122125122393900B
:100B160003E7EFF0E4FBFA7980784090062CE0FCDE
:100B2600A3E0FDA3E0FEA3E0FF12222E1223939082
:100B360003E8EFF09003CDE0FEA3E07802CEC31306
:100B4600CE13D8F99003E9F09003F0E0FCA3E0FDA2
:100B5600A3E0FEA3E0FF1223939003EAEFF0FCE488
:100B660012235FA804A905AA06AB079003F0E0FCD0
:100B7600A3E0FDA3E0FEA3E0FF122030E4FBFA7938
:100B8600C878421221251223939003EBEFF07F32AF
:100B96007E00126F8978F87C037D017B017A0379E8
:100BA600E17E007F0B1226FD9004037401F0A3740E
:100BB60006F0A3741BF01258549004EC74FFF0A3D3
:100BC600746CF0A374E7F09003F0E0FCA3E0FDA3DF
:100BD600E0FEA3E0FF9004EF1229EC7B017A057991
:100BE6007A1245BC7BFF7A6C79EC126EED7FC87E7B
:100BF6000012709A7B017A05797A126EED7BFF7A84
:100C06006C79FF126EED7F907E0112709A9004EC63
:100C160074FFF0A3746CF0A374E7F09003CFE0FCCC
:100C2600A3E0FDE412235AE4FBFA79807844122209
:100C36002EE4FBFA79A078401221259004EF1229C0
:100C4600EC7B017A05797A1245BC7BFF7A6C79ECEC
:100C5600126EED7FC87E0012709A7B017A05797A52
:100C6600126EED7BFF7A6D7903126EED7F907E0139
:100C760012709A9004EC74FFF0A3746CF0A374E7FE
:100C8600F0900628E0FCA3E0FDA3E0FEA3E0FF90C1
:100C960004EF1229EC7B017A05797A1245BC7BFFB9
:100CA6007A6C79EC126EED7FC87E0012709A7B0129
:100CB6007A05797A126EED7BFF7A6D7907126EED01
:100CC6007F907E0112709A9004EC74FFF0A3746C0E
:100CD600F0A374E7F090062CE0FCA3E0FDA3E0FE91
:100CE600A3E0FF9004EF1229EC7B017A05797A12D2
:100CF60045BC7BFF7A6C79EC126EED7FC87E0012E4
:100D0600709A7B017A05797A126EED7FC87E0012A1
:100D1600709A7BFF7A6D790B126EED7FC87E00129A
:100D2600709A8016900613E0FF127182EFC3941238
:100D360040089003CBE4F0A304F09003CBE07002EC
:100D4600A3E06003020E71900616E0FF1271829016
:100D56000579E0FEEF8EF084E5F07003020E7190E7
:100D66000613E0FF127182EFD3941040030213A41E
:100D7600900613E0FF127182EFC39407500302132B
:100D8600A4900616E0FF127182AC07E412235FE41A
:100D9600FBFA7970784212222EC004C005C006C044
:100DA60007900613E0FF127182AC07E412235FD0AE
:100DB60003D002D001D000122034E4FBFA79E078A7
:100DC600C0122034E4FBFA79707842122125C0045F
:100DD600C005C006C007900579E0FCE412235FA8B1
:100DE60004A905AA06AB07D007D006D005D0041281
:100DF600222E122393900610EEF0A3EFF0C297D2A4
:100E060092900616E090041FF0900635E0900420BC
:100E1600F0A37401F0A37406F0A37428F0900610F2
:100E2600E0FEA3E07802C333CE33CED8F92421F511
:100E36008274053EF583E0FCA3E0FDA3E0FEA3E09B
:100E4600FF9004241229EC900613E0FB900612E0B2
:100E5600FD900609E0FF123A8B900616E0FF900619
:100E660023E06F70030213A40211E79003CBE07036
:100E760004A3E0640160030213A4900616E0FF12C7
:100E86007182900579E0FEEF8EF084E5F070030242
:100E960013A4900613E0FF127182EFD3941040035F
:100EA6000213A4900613E0FF127182EFC394075059
:100EB600030213A4900616E0FF127182AC07E41237
:100EC600235FE4FBFA7970784212222EC004C00533
:100ED600C006C007900613E0FF127182AC07E41249
:100EE600235FD003D002D001D000122034E4FBFAF5
:100EF60079E078C0122034E4FBFA79707842122146
:100F060025C004C005C006C007900579E0FCE412C0
:100F1600235FA804A905AA06AB07D007D006D0050B
:100F2600D00412222E122393900610EEF0A3EFF0B7
:100F3600900610E0FEA3E07802C333CE33CED8F994
:100F4600FBAA0624B1F58274053AF583E0FCA3E01A
:100F5600FDA3E0FEA3E0FF9003D11229EC74212B40
:100F6600F58274053AF583E0FCA3E0FDA3E0FEA359
:100F7600E0FF9003D51229ECC297D292900610E0BA
:100F8600FAA3E0FB25E0FFEA33FE74832FF58274B3
:100F9600053EF583E0FEA3E064014E600302117591
:100FA600EBAE027802C333CE33CED8F924B5F58240
:100FB60074053EF583E0FCA3E0FDA3E0FEA3E0FF9D
:100FC6009003D91229ECEB2401FFE43AFE7C007D64
:100FD6000312277BEE3395E0FDFC9003F91229EC12
:100FE6007F0312606BEF64019006107074E0FEA33D
:100FF600E0FF7C007D0312277BEF2405FFE43EFE25
:101006003395E0FDFC9003F91229EC7F0312606B27
:10101600AC07E412235FE4FBFA79C8784212222E69
:10102600C004C005C006C007900610E0FEA3E0FF9E
:101036007C007D0312277BEF2404FFE43EFE3395FC
:10104600E0FDFC9003F91229EC7F0312606BAC07FC
:10105600E412235FD003D002D001D00012203480E6
:1010660075E0FEA3E0FF7C007D0312277BEF2405DD
:10107600FFE43EFE3395E0FDFC9003F91229EC7F78
:101086000312606BAC07E412235FE4FBFA79C878BD
:101096004212222EC004C005C006C007900610E00A
:1010A600FEA3E0FF7C007D0312277BEF2404FFE410
:1010B6003EFE3395E0FDFC9003F91229EC7F031206
:1010C600606BAC07E412235FD003D002D001D000DE
:1010D600122034122344900617E0F8A3E0F9A3E0A7
:1010E600FAA3E0FB1220349003DD1229EC7F017E87
:1010F600001271F29003DDE0FCA3E0FDA3E0FEA385
:10110600E0FF125CCB900616E0FF127182AC07E49A
:1011160012235FE4FBFA7970784212222EC004C0D3
:1011260005C006C007900613E0FF127182AC07E403
:1011360012235FD003D002D001D0001220349004D5
:10114600AE1229EC789E7C047D017B017A0379D16D
:101156007E007F081226FD78A67C047D017B017A3D
:101166000379D97E007F081226FD126470802F7BDA
:10117600017A057983900610E0FCA3E0FD12706FFA
:10118600EF7802C333CE33CED8F92421F582740525
:101196003EF583E0FCA3E0FDA3E0FEA3E0FF9004A0
:1011A600241229EC900609E0FF900612E0FD900655
:1011B60016E090041FF0900635E0900420F0A3742A
:1011C60001F0A37406F0A37428F0900613E0FB1256
:1011D6003A8B900616E0FF900623E06F7003021329
:1011E600A4127182AC07E412235FE4FBFA797078EB
:1011F6004212222EC004C005C006C007900613E0A6
:10120600FF127182AC07E412235FD003D002D00133
:10121600D000122034C004C005C006C007900635B1
:10122600E0547FFF127182AC07E412235FE4FBFAFD
:101236007961784512222ED003D002D001D0001257
:1012460020349004EF1229EC9004EC74FFF0A374A0
:101256006CF0A374E7F07B017A05797A1245BC7BC2
:10126600FF7A6C79EC126EED7FC87E0012713D7BC1
:10127600017A05797A126EED7BFF7A6C79FB126E34
:10128600ED7FC87E0012709A9004EC74FFF0A37490
:101296006CF0A374E7F0900628E0FCA3E0FDA3E061
:1012A600FEA3E0FF9004EF1229EC7B017A05797A20
:1012B6001245BC7BFF7A6C79EC126EED7FC87E001E
:1012C60012709A7B017A05797A126EED7BFF7A6D40
:1012D6007907126EED7FC87E0012709A9004EC7446
:1012E600FFF0A3746CF0A374E7F090062CE0FCA367
:1012F600E0FDA3E0FEA3E0FF9004EF1229EC7B01E2
:101306007A05797A1245BC7BFF7A6C79EC126EED20
:101316007FC87E0012709A7B017A05797A126EED8B
:101326007FC87E0012709A7BFF7A6D790B126EED84
:101336007FC87E0012709AE4FF126FA7AC06AD0755
:10134600E412235AE4FBFA7980784412222EE4FB55
:10135600FA79A078401221259004EF1229EC900426
:10136600EC74FFF0A3746CF0A374E7F07B017A05CC
:10137600797A1245BC7BFF7A6C79EC126EED7FC8E8
:101386007E0012709A7B017A05797A126EED7BFFE8
:101396007A6D7903126EED7FC87E0012709A900600
:1013A60013E0FF127182EFD394105013900613E0EE
:1013B600FF127182EFC394074005D2CD021FD7906A
:1013C6000613E0FF127182EF64116003021F429060
:1013D6000616E0FF127182EF6003021F4290063587
:1013E600E0547FFF127182EF6003021F42C2CD906C
:1013F60003CBE07004A3E064016003021636126BAF
:101406004A126C067F057E00126F89E490061FF073
:10141600A3F090061FE0FEA3E0FFD39414EE6480D1
:1014260094804003021636EF25E0FFEE33FE748308
:101436002FF58274053EF583E0FEA3E064014E605D
:10144600030216257F32FE126F89126B4A90061F21
:10145600E0FAA3E0FB243FFFE43AFE3395E0FDFC0F
:101466009004071229ECEB25E0FFEA33FE74832F84
:10147600F58274053EF583A3E090040BF07F02121B
:1014860061827F327E00126F89126B4A90061FE0DE
:10149600FEA3E07802C333CE33CED8F92421F582F9
:1014A60074053EF583E0FCA3E0FDA3E0FEA3E0FFA8
:1014B600E4FBFAF9F81222CB90061FE0FEA3E0FF48
:1014C6007C007D03501612277BEE3395E0FDFC90E1
:1014D60004071229EC90040B7401801312277BEE8B
:1014E6003395E0FDFC9004071229ECE490040BF020
:1014F6007F021261827F327E00126F897F327E0008
:10150600126F89126B4A90061FE0FEA3E07802C3B1
:1015160033CE33CED8F92421F58274053EF583E027
:10152600FCA3E0FDA3E0FEA3E0FF1223931272ECFE
:1015360090040BEFF090061FE0FEA3E0FF7C007D19
:101546000312277BEF2401FFE43EFE3395E0FDFC0A
:101556009004071229EC7F021261827F327E00120C
:101566006F897F327E00126F89126B4A90061FE0E8
:10157600FEA3E07802C333CE33CED8F92421F58218
:1015860074053EF583E0FCA3E0FDA3E0FEA3E0FFC7
:101596001272D3C004C005C006C00790061FE0FE45
:1015A600A3E07802C333CE33CED8F92421F5827472
:1015B600053EF583E0FCA3E0FDA3E0FEA3E0FF12F9
:1015C60023931272ECAC06AD07EC12235AA804A9B9
:1015D60005AA06AB07D007D006D005D004122030E6
:1015E600E4FBFA79C8784212212512239390040B62
:1015F600EFF090061FE0FEA3E0FF7C007D031227BC
:101606007BEF2402FFE43EFE3395E0FDFC900407E9
:101616001229EC7F021261827F327E00126F89905E
:101626000620E004F0700690061FE004F00214188D
:10163600E4900630F0A3F090060AE07004A3E0649C
:1016460001600302191790060DE02401FE90060CB6
:10165600E03400900632F0A3CEF090060EE0FEA332
:10166600E0FFC3900633E09FEE6480F8900632E018
:1016760064809840030218E0789E7C047D017B011B
:101686007A0379D17E007F081226FD78A67C047D38
:10169600017B017A0379D97E007F081226FD900628
:1016A60032E0FEA3E07802C333CE33CED8F924B1BC
:1016B600F58274053EF583E0FCA3E0FDA3E0FEA3FE
:1016C600E0FF9004AE1229EC126470C004C005C09D
:1016D60006C007900632E0FEA3E07802C333CE339D
:1016E600CED8F92421F58274053EF583D007D006BD
:1016F600D005D0041229EC7F327E00126F89126B5E
:101706004A900632E0FEA3E07802C333CE33CED849
:10171600F92421F58274053EF583E0FCA3E0FDA3E0
:10172600E0FEA3E0FFE4FBFAF9F81222CB900632C2
:10173600E0FEA3E0FF7C007D03501612277BEE330C
:1017460095E0FDFC9004071229EC90040B740180CF
:101756001312277BEE3395E0FDFC9004071229EC6B
:10176600E490040BF07F021261827F327E00126FDA
:10177600897F327E00126F89126B4A900632E0FE34
:10178600A3E07802C333CE33CED8F92421F5827490
:10179600053EF583E0FCA3E0FDA3E0FEA3E0FF1217
:1017A60023931272EC90040BEFF0900632E0FEA346
:1017B600E0FF7C007D0312277BEF2401FFE43EFE61
:1017C6003395E0FDFC9004071229EC7F021261823A
:1017D6007F327E00126F897F327E00126F89126B14
:1017E6004A900632E0FEA3E07802C333CE33CED869
:1017F600F92421F58274053EF583E0FCA3E0FDA300
:10180600E0FEA3E0FF1272D3C004C005C006C00705
:10181600900632E0FEA3E07802C333CE33CED8F989
:101826002421F58274053EF583E0FCA3E0FDA3E0E8
:10183600FEA3E0FF1223931272ECAC06AD07EC1286
:10184600235AA804A905AA06AB07D007D006D005D7
:10185600D004122030E4FBFA79C87842122125120E
:10186600239390040BEFF0900632E0FEA3E0FF7C9A
:10187600007D0312277BEF2402FFE43EFE3395E052
:10188600FDFC9004071229EC7F021261827F327EF2
:1018960000126F897F327E00126F89126B4A9006A2
:1018A60033E0243FFF900632E03400FE3395E0FD3E
:1018B600FC9004071229EC90040B7401F07F0212CD
:1018C60061827F327E00126F89900633E004F070E9
:1018D60006900632E004F00216609003D9E0FCA3FD
:1018E600E0FDA3E0FEA3E0FF9003D11229EC9003F4
:1018F600DDE0FCA3E0FDA3E0FEA3E0FF9003D5122C
:1019060029EC90060EE0FFA3E090060CCFF0A3EFC3
:10191600F0900631E025E0FF900630E033FE748358
:101926002FF58274053EF583E0FEA3E064014E7058
:101936006690060AE07004A3E06401705A900630CF
:10194600E0FEA3E07802C333CE33CED8F9FBAA0675
:1019560024B1F58274053AF583E0FCA3E0FDA3E02B
:10196600FEA3E0FF9003D91229EC74212BF58274B3
:10197600053AF583E0FCA3E0FDA3E0FEA3E0FF90BB
:1019860003DD1229EC900630E0FFA3E090060ECFAF
:10199600F0A3EFF0021CBD900631E025E0FF9006B3
:1019A60030E033FE74832FF58274053EF583E0FE46
:1019B600A3E064014E6003021CBD90060AE07002BB
:1019C600A3E06003021CBD900630E0FEA3E07802AF
:1019D600C333CE33CED8F9FBAA0624B1F5827405FB
:1019E6003AF583E0FCA3E0FDA3E0FEA3E0FF90034D
:1019F600D11229EC74212BF58274053AF583E0FCAB
:101A0600A3E0FDA3E0FEA3E0FF9003D51229EC902E
:101A16000630E0FEA3E0FF90060CEEF0A3EFF0A385
:101A2600EEF0A3EFF09003D1E0FCA3E0FDA3E0FE0F
:101A3600A3E0FF9003D91229EC9003D5E0FCA3E0C4
:101A4600FDA3E0FEA3E0FF9003DD1229EC90060A59
:101A5600E4F0A304F0900583E07002A3E0600302C3
:101A66001CBD90061FF0A3F0900630E0FEA3E0FF39
:101A7600C3900620E09FEE6480F890061FE0648025
:101A8600984003021CBDEF7802C333CE33CED8F99B
:101A96002421F58274053EF583E0FCA3E0FDA3E076
:101AA600FEA3E0FFC004C005C006C00790061FE005
:101AB600FEA3E07802C333CE33CED8F92421F582D3
:101AC60074053EF583D007D006D005D0041229EC64
:101AD6007F327E00126F89126B4A900620E0243F07
:101AE600FF90061FE03400FE3395E0FDFC900407EE
:101AF6001229EC90040B7401F07F021261827F328E
:101B06007E00126F89126B4A90061FE0FEA3E078F2
:101B160002C333CE33CED8F92421F58274053EF5BF
:101B260083E0FCA3E0FDA3E0FEA3E0FFE4FBFAF9FB
:101B3600F81222CB90061F6002501FE0FEA3E0FFC2
:101B46007C007D0312277BEE3395E0FDFC900407B5
:101B56001229EC90040B7401801CE0FEA3E0FF7CCC
:101B6600007D0312277BEE3395E0FDFC90040712FF
:101B760029ECE490040BF07F021261827F327E0032
:101B8600126F897F327E00126F89126B4A90061F90
:101B9600E0FEA3E07802C333CE33CED8F92421F594
:101BA6008274053EF583E0FCA3E0FDA3E0FEA3E01E
:101BB600FF1223931272EC90040BEFF090061FE0D5
:101BC600FEA3E0FF7C007D0312277BEF2401FFE4E8
:101BD6003EFE3395E0FDFC9004071229EC7F0212CD
:101BE60061827F327E00126F897F327E00126F899A
:101BF600126B4A90061FE0FEA3E07802C333CE3391
:101C0600CED8F92421F58274053EF583E0FCA3E0E5
:101C1600FDA3E0FEA3E0FF1272D3C004C005C00618
:101C2600C00790061FE0FEA3E07802C333CE33CE92
:101C3600D8F92421F58274053EF583E0FCA3E0FD86
:101C4600A3E0FEA3E0FF1223931272ECAC06AD07ED
:101C5600EC12235AA804A905AA06AB07D007D0069A
:101C6600D005D004122030E4FBFA79C8784212215C
:101C76002512239390040BEFF090061FE0FEA3E0DD
:101C8600FF7C007D0312277BEF2402FFE43EFE3338
:101C960095E0FDFC9004071229EC7F021261827F19
:101CA600327E00126F89900620E004F070069006DE
:101CB6001FE004F0021A6E900631E004F070069000
:101CC6000630E004F0D3900631E09414900630E03C
:101CD60064809480500302163D9005ABE07002A329
:101CE600E06003021FD790060EE0FFA3E0900632E5
:101CF600CFF0A3EFF0D3900633E09414900632E0D1
:101D0600648094804003021FD790060EE0FEA3E095
:101D16007802C333CE33CED8F92421F58274053E3A
:101D2600F583E0FCA3E0FDA3E0FEA3E0FFC004C052
:101D360005C006C007900632E0FEA3E07802C33372
:101D4600CE33CED8F92421F58274053EF583D0072B
:101D5600D006D005D0041229EC7F327E00126F899E
:101D6600126B4A900632E0FEA3E07802C333CE330C
:101D7600CED8F92421F58274053EF583E0FCA3E074
:101D8600FDA3E0FEA3E0FFE4FBFAF9F81222CB90F4
:101D96000632E0FEA3E0FF7C007D03501612277B8F
:101DA600EE3395E0FDFC9004071229EC90040B74C9
:101DB60001801312277BEE3395E0FDFC9004071299
:101DC60029ECE490040BF07F021261827F327E00E0
:101DD600126F897F327E00126F89126B4A9006322B
:101DE600E0FEA3E07802C333CE33CED8F92421F542
:101DF6008274053EF583E0FCA3E0FDA3E0FEA3E0CC
:101E0600FF1223931272EC90040BEFF0900632E06F
:101E1600FEA3E0FF7C007D0312277BEF2401FFE495
:101E26003EFE3395E0FDFC9004071229EC7F02127A
:101E360061827F327E00126F897F327E00126F8947
:101E4600126B4A900632E0FEA3E07802C333CE332B
:101E5600CED8F92421F58274053EF583E0FCA3E093
:101E6600FDA3E0FEA3E0FF1272D3C004C005C006C6
:101E7600C007900632E0FEA3E07802C333CE33CE2D
:101E8600D8F92421F58274053EF583E0FCA3E0FD34
:101E9600A3E0FEA3E0FF1223931272ECAC06AD079B
:101EA600EC12235AA804A905AA06AB07D007D00648
:101EB600D005D004122030E4FBFA79C8784212210A
:101EC6002512239390040BEFF0900632E0FEA3E078
:101ED600FF7C007D0312277BEF2402FFE43EFE33E6
:101EE60095E0FDFC9004071229EC7F021261827FC7
:101EF600327E00126F897F327E00126F89126B4A22
:101F0600900633E0243FFF900632E03400FE33951E
:101F1600E0FDFC9004071229EC90040B7401F07F9D
:101F2600021261827F327E00126F89900633E004CE
:101F3600F07006900632E004F0021CFB900613E0F7
:101F4600FF127182EF64127072900616E0FF127132
:101F560082EF7067900635E0547FFF127182EF7052
:101F66005A900630F0A3F0900630E0FAA3E0FBAEFC
:101F7600027802C333CE33CED8F92421F582740514
:101F86003EF5831229F800000000EB25E0FFEA3356
:101F9600FE74832FF58274053EF583E4F0A3F0907A
:101FA6000631E004F07006900630E004F09006304A
:101FB600E07004A3E0641570AE8016900613E0FF8F
:101FC600127182EFC3941240089003CBE4F0A3048D
:101FD600F090064DE07004A3E06401600302018EF8
:101FE6001273027F017E001271F27F43126AB07F84
:101FF6004C126AB07F45126AB07F41126AB07F52B6
:10200600126AB0126B4A126C067F057E00126F8947
:1020160090061B1229F8000000C8E490064DF0A3B4
:07202600F012730202018EAB
:0300230002000ECA
:0D000E00309802C298309904C299C20A329B
:09731500200AFDD20AEFF59922CD
:06723100D2A27F017E00E5
:0E723700EF1FAC0670011E4C60030080F322B6
:0270FD00AD07DD
:1070FF00E4FBC2A2ED30E704D2A18002C2A112725A
:0D710F0033127231ED25E0FD0BEBB408E505
:01711C002250
:10711D00E4FDD2A1FBED25E0FDC2A212723330A138
:0F712D0004ED4401FD1272310BEBB408E8AF051D
:01713C002230
:10725900E4FED2A0EF44A0FF1270FD12711DC2A07E
:017269002202
:1071AD00AA07D2A0ED4420FF1270FDAF021270FDB0
:0871BD00AF021270FDC2A02216
:0D72B9005395F85396F8D2A0C2A0C2A222AD
:106B97009004E9EBF0A3EAF0A3E9F07F0912725938
:106BA7009004E9E0FBA3E0FAA3E0F9EF1227697F7D
:106BB700071272599004ECE0FBA3E0FAA3E0F9EFA7
:106BC7001227697F061272599004EFE0FBA3E0FADF
:106BD700A3E0F9EF1227697F051272599004F2E0DA
:106BE700FBA3E0FAA3E0F9EF1227697F04127259B9
:0F6BF7009004F5E0FBA3E0FAA3E0F9EF022769B1
:10726A00EFC4540FFEEF540FFFEE75F00AA42FFF80
:01727A0022F1
:106A240012726AAC07AF0512726AEC14B40C00500F
:106A340073906A4375F003A4C58325F0C58373027C
:106A44006A67026A6A026A6F026A74026A79026A8F
:106A54007E026A83026A88026A8D026A95026A9AD1
:106A6400026A9F7E0022EF241F8021EF243B801CBA
:106A7400EF245A8017EF24788012EF2497800DEFCB
:106A840024B58008EF24D48003EF24F3FFE433FE1D
:106A940022EF24118008EF24308003EF244EFFE41A
:076AA4003401FE22E4FEFFB5
:016AAB0022C8
:106C6000E4F5917592FF7F96FE12709A7F03126E83
:106C7000327F1E7E0012709A7F03126E321270965F
:106C80007F03126E321270967F02126E327F017E87
:106C90000012709A7F02126E327F08126E32E4FF89
:106CA000126E327F0E126E32E4FF126E327F0612C7
:096CB0006E327F147E0002709A1E
:046AAC00E04430FF93
:106AB0009004F4EFF0D2C0C293E0FF5480C41313EB
:106AC00013540124FF92B7EF5440C413135403240A
:106AD000FF92B6E0FF5420C413540724FF92B5EF91
:106AE0005410C4540F24FF92B4D2B37F017E00121D
:106AF000709AC2B39004F4E0FF5408131313541FA8
:106B000024FF92B7EF54041313543F24FF92B6E0CE
:106B1000FF5402C31324FF92B5EF1392B412709482
:056B2000C2B3C2C02257
:106E3200C2C0C293EF5408131313541F6004D2B795
:106E42008002C2B7EF54041313543F6004D2B680D9
:106E520002C2B6EF5402C3136004D2B58002C2B5B7
:106E6200EF30E004D2B48002C2B4127094C2B322F2
:06709400D2B37F0A7E006A
:10709A00EF1FAA0670011E4A6013E4FCFDC3ED94BB
:0D70AA0058EC940250EA0DBD00010C80F07E
:0170B70022B6
:10715B00EFC4540F4430FEEF540F44309003F8F05B
:0D716B00AF06126AB09003F8E0FF026AB0B0
:0A72F800E4FF126E327F02026E32D4
:0A730200E4FF126E327F01026E32CA
:1071F200EF64014E70047F0880027F0C126E32E44D
:05720200FF126E3222B4
:065CCB009004E91229EC2F
:105CD1009004E9E0FCA3E0FDA3E0FEA3E0FF1223B2
:105CE100931272EC9004F2EEF0A3EFF0E4FFFEFDEC
:105CF100FC9004E9E0F8A3E0F9A3E0FAA3E0FB12C9
:105D010022CB602640249004F2E0FCA3E0FDEC12DB
:105D1100235AA804A905AA06AB079004E9E0FCA34D
:105D2100E0FDA3E0FEA3E0FF80359004E9E0FCA3E1
:105D3100E0FDA3E0FEA3E0FF122344C004C005C0C0
:105D410006C0079004F2E0FCA3E0FDEC12235AA880
:105D510004A905AA06AB07D007D006D005D00412C6
:105D61002030E4FBFA792078411221251223939007
:105D710004F1EFF09004F2E0FAA3E0FB7C007D0A6D
:105D8100FFAE021227E29004EDEDF07C037DE8AF57
:105D910003AE021227E2A9079004F0E9F07E007C2D
:105DA100037DE812277BC39004F3E09FFB9004F28C
:105DB100E09EFA7C007D64AF03FE12278D9004EF14
:105DC100EFF0E075F064A4FFC3EB9FFFEA95F0FEEE
:105DD1007C007D0A12278D9004EEEFF0E4FFFEFDBA
:105DE100FC9004E9E0F8A3E0F9A3E0FAA3E0FB12D8
:105DF10022CB400280057F2D126AB09004F0126A16
:105E0100AC9004EF126AAC9004EE126AAC9004ED0F
:0E5E1100126AAC7F2E126AB09004F1126AACD5
:015E1F002260
:104A33004206470000420645000042064B00004282
:0D4A43000649000042064D00004106360005
:10713D00EF1FAA0670011E4A6013E4FCFDC3ED9417
:0D714D0058EC940250EA0DBD00010C80F0DA
:01715A002212
:1056C70053801E43801EE58044E19003FEF0E0F422
:1056D7007003025851E58044E1F0E0F4700302588A
:1056E7004E5380DF4380C1E58044E1F0E0F460473A
:1056F7009003FEE0FFF4600DA3EFF0E58044E19036
:1057070003FEF080EB9003FFE02411602424F8608F
:105717001824FC600C24FE701E9004007401F080B5
:10572700169004007404F0800E9004007407F08053
:1057370006900400740CF05380BF4380A1E58044B9
:10574700E19003FEF0E0F460469003FEE0FFF460B2
:105757000DA3EFF0E58044E19003FEF080EB9003AA
:10576700FFE02411602424F8601824FC600C24FE58
:10577700701D9004007402F080159004007405F009
:10578700800D9004007408F08005E4900400F05345
:10579700807F438061E58044E19003FEF0E0F460A0
:1057A700479003FEE0FFF4600DA3EFF0E58044E1CE
:1057B7009003FEF080EB9003FFE02411602424F8AF
:1057C700601824FC600C24FE701E9004007403F023
:1057D70080169004007406F0800E9004007409F09F
:1057E7008006900400740BF05380FE4380E0E58050
:1057F70044E19003FEF0E0F460479003FEE0FFF41D
:10580700600DA3EFF0E58044E19003FEF080EB909C
:1058170003FFE02411602424F8601824FC600C24A2
:10582700FE701E900400740DF08016900400740E34
:10583700F0800E900400740FF0800690040074103E
:0C584700F0900400E0FF227F64227F64E8
:015853002232
:104DF400900639E0FFA3E0900637CFF0A3EFF0125E
:104E040056C77E00900639EEF0A3EFF0640E7006EC
:104E1400900645024EA1900637E0FEA3E0FF6464CD
:104E24004E7020A3E07004A3E0640F701690064B4C
:104E3400E07002A3E06006E490064B805890064BB5
:104E4400E4805A900639E0FCA3E0FD64104C700F36
:104E5400900647E07002A3E07005900647803EED9F
:104E640064104C7010900647E07002A3E06006E402
:104E74009006478020EF64644E7027900639E070F6
:104E840004A3E0640D701B900649E07002A3E06087
:104E940008E4900649F0A3F022900649E4F0A30444
:104EA400F022900637E07004A3E0646460030251CA
:104EB4007F900639E0FCA3E0FD64644C700302516A
:104EC4007F900636E0FF3395E0FEEF25E0FFEE33FA
:104ED400FE743B2FF58274063EF583ECF0A3EDF0EF
:104EE400900636E004F0E06405600302511DF09082
:104EF4000643E07004A3E0640B707490063BE0FE8C
:104F0400A3E0FF7C007D0A12277B90063EE02FFF82
:104F140090063DE03EAB07FA90063FE0FEA3E0FFBB
:104F240012277B900642E02FFF900641E03EFED31D
:104F3400EB9418EA940040030250ACEF943CEE94D6
:104F44000040030250AC90063BA3E0C454F0FFA31E
:104F5400A3E04FFF7D061271AD90063FA3E0C45459
:104F6400F0FFA3A3E04FFF7D051271AD0250A390A3
:104F74000643E07004A3E0640C60030250AC9006A6
:104F84003BE0FEA3E0FF7C007D0A12277B90063EF7
:104F9400E02FFF90063DE03E9003FAF0FAA3EFF015
:104FA400FB90063FE0FEA3E0FF12277B900642E061
:104FB4002FFF900641E03E9003FCF0A3EFF0D3EB0B
:104FC4009407EA9400507B9003FBE030E0239003C5
:104FD400FDE0941F9003FCE0940040030250A39072
:104FE400063BA3E0C454F0FFA3A3E04FFF1D02500F
:104FF4008D9003FAE07004A3E064027024D390035C
:10500400FDE0941C9003FCE0940040030250A39044
:10501400063BA3E0C454F0FFA3A3E04FFF7D098047
:1050240068D39003FDE0941E9003FCE09400506F5D
:1050340090063BA3E0C454F0FFA3A3E04FFF7D0917
:1050440080479003FBE020E021D39003FDE0941F10
:105054009003FCE09400504790063BA3E0C454F056
:10506400FFA3A3E04FFF7D09801FD39003FDE094CD
:105074001E9003FCE09400502690063BA3E0C45429
:10508400F0FFA3A3E04FFF7D091271AD90063FA38B
:10509400E0C454F0FFA3A3E04FFF7D071271AD906D
:1050A4000643E4F0A37464F090063BE07004A3E0CC
:1050B4006409703590063DE07004A3E0640970292A
:1050C40090063FE07004A3E06409701D900641E07F
:1050D4007004A3E064097011900643E07002A3E039
:1050E400700790064DF0A304F090064DE07002A303
:1050F400E070261273027F08126E32E4FF126E32E1
:105104007F68126AB07F68126AB07F6D126AB07FDE
:105114006D126AB07F23126AB0E49003F8F0A3F032
:10512400900636E0FFFD3395E0FCC39003F9E09D63
:105134009003F8E09C5044EF64809484502D7F08E1
:10514400126E329003F8A3E0FF126E329003F9E07E
:1051540025E0FF9003F8E033FE743B2FF5827406DC
:105164003EF583A3E04430FF126AB09003F9E004F3
:0B517400F070AD9003F8E004F080A59F
:01517F00220D
:0C72E000759300759400E4F594F593227A
:104A50006028013043340000433E0000434800001A
:104A600043520000435C00004366000043700000B6
:104A7000437A00004382000043870000602800A4BE
:104A800043340000432A0000432000004316000086
:104A9000430C00004302000042F0000042DC000032
:104AA00042C8000042B400006258016042EFA3D740
:104AB00042EF385242EDB33342ECC28F42EAE14852
:104AC00042E8385242E03D7142D170A4429B75C326
:104AD00042BEA8F642D5F0A442D5C7AE42D4333385
:104AE00042D08F5C42CAD70A42C1F5C342B2947B1E
:104AF0004290051F41F428F6C2AC4CCD42BD051FC3
:104B000042BC2E1442B9385242B3947B42AB947BE0
:104B1000429C4CCD428338524221F5C3C17051ECC6
:104B2000C2DB385242A3E66642A2BD71429E3D718D
:104B3000429675C3428ADC29426BD70A422B333333
:104B40004143851FC22FAE14C2EEF5C3428A6B8566
:104B50004288A8F642834CCD42728F5C4252CCCD43
:104B60004221E14841AA51ECC130F5C3C27B28F68D
:104B7000C2F9947B425D47AE425A1EB8424E3D7127
:104B80004237D70A4214666641B95C293FF851ECB6
:104B9000C1F228F6C2959EB8C2FC28F64227EB85E2
:104BA0004223B8524216333341FBD70A41A628F6B6
:104BB00040CE6666C1770A3DC235147BC2A7333347
:104BC000C2FECCCD41E28F5C41D7EB8541B9851F58
:104BD00041830A3D40C1999AC112E148C1F370A4D2
:104BE000C265D70AC2B6199AC2FFA8F64161999A5E
:104BF000414E147B410CCCCD00000000C107AE1427
:104C0000C1BC28F6C22C147BC2884CCDC2C1CCCD0D
:104C1000C2FEAE140000000000000000C0B800009A
:104C2000C142E148C1B55C29C212851FC25AE148A0
:104C3000C299C28FC2CA9EB8C2FF75C3C162B852C0
:104C4000C170CCCDC1991EB8C1D2F5C3C210E14824
:104C5000C242E148C282F0A4C2A7C7AEC2D22E149B
:104C6000C2FEFAE1C1E1D70AC1EC51ECC204EB8506
:104C7000C21E70A4C240EB85C2705C29C295428FEF
:104C8000C2B5C28FC2D9428FC2FF147BC228851F12
:104C9000C22C5C29C2397AE1C250A3D7C2716666C0
:104CA000C28D0A3DC2A56148C2C18F5CC2DF947B40
:104CB000C2FF851FC25E147BC261999AC26F28F63B
:104CC000C282051FC28F2E14C2A05C29C2B4C7AE17
:104CD000C2CBD1ECC2E551ECC2FFE666C28A199A9A
:104CE000C28C47AEC290D1ECC2990F5CC2A461489D
:104CF000C2B2947BC2C36148C2D5A3D7C2EA0F5CDB
:104D0000C3000F5C603C00F4400CCCCD40DCCCCD4B
:104D10004139999A4182666641A8000041CD999A2D
:104D200041F33333420C6666421F33334232000094
:104D30004244CCCD4257999A426A6666427D3333EB
:104D40004288000060A00004C1E1D70AC1EC51EC28
:104D5000C204EB85C21E70A4C240EB85C2705C2900
:104D6000C295428FC2B5C28FC2D9428FC2FF147B97
:104D7000C228851FC22C5C29C2397AE1C250A3D750
:104D8000C2716666C28D0A3DC2A56148C2C18F5C10
:104D9000C2DF947BC2FF851FC25E147BC261999AF9
:104DA000C26F28F6C282051FC28F2E14C2A05C29D2
:104DB000C2B4C7AEC2CBD1ECC2E551ECC2FFE666CD
:104DC000C28A199AC28C47AEC290D1ECC2990F5CCC
:104DD000C2A46148C2B2947BC2C36148C2D5A3D702
:104DE000C2EA0F5CC3000F5C440000C0A000004199
:034DF00000D400EC
:107207009001581229F8C2932E1490015C1229F8A4
:0572170042360A3D2291
:0A7178001229EC900420E0547FFF80
:10718200EFC4540FFEEF540FFFEE75F00AA42FFF69
:0171920022DA
:106D5A009000EC30031A7404F07B017A0079E71290
:106D6A0065CB7F027E0012713D9000EC740680189C
:106D7A007405F07B017A0079E71265CB7F027E0009
:106D8A0012713D9000EC7407F07B017A0079E712EA
:0A6D9A0065CB7F027E0012713D22DE
:086E72009004EDEEF0A3EFF037
:106E7A00E4A3F0A3F09004EFF0A3F09004EDE0FE99
:106E8A00A3E0FFC39004F0E09F9004EFE09E501748
:106E9A00A2029203126D5A9004F0E004F070DC90A2
:076EAA0004EFE004F080D4C6
:016EB10022BE
:066FD1009004E91229EC16
:106FD700E4FFFE7DD07C429004E9E0F8A3E0F9A34A
:106FE700E0FAA3E0FB122125122393A201920202E9
:026FF7006E72B8
:10644D0078A67C047D017B017E007F081226FD90DD
:10645D000442E0FCA3E0FDA3E0FEA3E0FF9004AE48
:03646D001229EC05
:106470009004AEE0F8A3E0F9A3E0FAA3E0FB9004F7
:106480009EE0FCA3E0FDA3E0FEA3E0FF122030129B
:106490002344C004C005C006C0079004A6E0F8A3CA
:1064A000E0F9A3E0FAA3E0FB90049EE0FCA3E0FD8A
:1064B000A3E0FEA3E0FF122030A804A905AA06ABC2
:1064C00007D007D006D005D00412222EC004C00584
:1064D000C006C0079004AAE0F8A3E0F9A3E0FAA37D
:1064E000E0FB9004A2E0FCA3E0FDA3E0FEA3E0FF3C
:1064F000122030D003D002D001D000122125900408
:0F650000A2E0F8A3E0F9A3E0FAA3E0FB12203435
:01650F002269
:06405C009004421229EC61
:104062009004861229F800000000E490048AF0A36C
:10407200F090048AE0FEA3E0FFC3940AEE64809409
:104082008040030243E9EF7802C333CE33CED8F93E
:104092002434F58274013EF583E0FCA3E0FDA3E045
:1040A200FEA3E0FF900442E0F8A3E0F9A3E0FAA344
:1040B200E0FB1222CB6005400302422D90048AE00D
:1040C200FEA3E07802C333CE33CED8F92430F58292
:1040D20074013EF583E0FCA3E0FDA3E0FEA3E0FF54
:1040E200900442E0F8A3E0F9A3E0FAA3E0FB122275
:1040F200CB500302422DE490048CF0A3F090048A8A
:10410200E0FEA3E07802C333CE33CED8F9FBAA0691
:104112002430F58274013AF583E0FCA3E0FDA3E0CC
:10412200FEA3E0FF90048E1229EC74342BF5827406
:10413200013AF583E0FCA3E0FDA3E0FEA3E0FF90DB
:1041420004961229EC90048AE0FEA3E07802C333BD
:10415200CE33CED8F9FBAA0690048CE0FEA3E09001
:10416200016075F028122A43EE75F028A42583F524
:1041720083E5822BF582E5833AF583E0FCA3E0FD3B
:10418200A3E0FEA3E0FF9004921229EC90048CE0DD
:10419200FEA3E090016475F028122A43EE75F02820
:1041A200A42583F583E5822BF582E5833AF583E046
:1041B200FCA3E0FDA3E0FEA3E0FF90049A1229EC29
:1041C200789E7C047D017B017A04798E7E007F08D3
:1041D2001226FD7A04799612644DC004C005C00609
:1041E200C00790048CE0FEA3E07802C333CE33CE46
:1041F200D8F9244AF58274043EF583D007D006D05C
:1042020005D0041229EC90048DE004F070069004AD
:104212008CE004F0C390048DE0940F90048CE06471
:1042220080948050030240FF0243D590048AE0FE4E
:10423200A3E07802C333CE33CED8F924A8F5827432
:10424200003EF583E0FCA3E0FDA3E0FEA3E0FF90C7
:104252000442E0F8A3E0F9A3E0FAA3E0FB1222CBC8
:1042620050030243D590048AE0FEA3E07802C333F0
:10427200CE33CED8F924A4F58274003EF583E0FC57
:10428200A3E0FDA3E0FEA3E0FF900442E0F8A3E078
:10429200F9A3E0FAA3E0FB1222CB6005400302433C
:1042A200D5E490048CF0A3F090048AE0FEA3E078B9
:1042B20002C333CE33CED8F9FBAA0624A4F5827406
:1042C200003AF583E0FCA3E0FDA3E0FEA3E0FF904B
:1042D200048E1229EC74A82BF58274003AF583E05F
:1042E200FCA3E0FDA3E0FEA3E0FF9004961229ECFC
:1042F20090048AE0FEA3E07802C333CE33CED8F92D
:10430200FBAA0690048CE0FEA3E090016075F02801
:10431200122A43EE75F028A42583F583E5822BF556
:1043220082E5833AF583E0FCA3E0FDA3E0FEA3E08F
:10433200FF9004921229EC90048CE0FEA3E090011D
:104342006475F028122A43EE75F028A42583F583BC
:10435200E5822BF582E5833AF583E0FCA3E0FDA339
:10436200E0FEA3E0FF90049A1229EC789E7C047D83
:10437200017B017A0479967E007F081226FD7A0479
:10438200798E12644DC004C005C006C00790048C2B
:10439200E0FEA3E07802C333CE33CED8F9244AF547
:1043A2008274043EF583D007D006D005D0041229CA
:1043B200EC90048DE004F0700690048CE004F0C3ED
:1043C20090048DE0940F90048CE0648094805003FC
:1043D2000242AA90048BE004F0600302407390044E
:1043E2008AE004F0024073E490048AF0A3F090049F
:1043F2008AE0FEA3E0FFC3940FEE64809480400342
:10440200024548EF7802C333CE33CED8F924F4F50F
:104412008274003EF583E0FCA3E0FDA3E0FEA3E08E
:10442200FF900446E0F8A3E0F9A3E0FAA3E0FB1250
:1044320022CB500302453790048AE0FEA3E07802C3
:10444200C333CE33CED8F924F8F58274003EF58317
:10445200E0FCA3E0FDA3E0FEA3E0FF900446E0F849
:10446200A3E0F9A3E0FAA3E0FB1222CB600540032C
:1044720002453790048AE0FEA3E07802C333CE33CC
:10448200CED8F9FBAA0624F4F58274003AF583E04B
:10449200FCA3E0FDA3E0FEA3E0FF90048E1229EC52
:1044A20074F82BF58274003AF583E0FCA3E0FDA3D7
:1044B200E0FEA3E0FF9004961229EC90048AE0FE4D
:1044C200A3E07802C333CE33CED8F9FBAA06244A3E
:1044D200F58274043AF583E0FCA3E0FDA3E0FEA3B9
:1044E200E0FF9004921229EC744E2BF58274043A88
:1044F200F583E0FCA3E0FDA3E0FEA3E0FF90049AB5
:104502001229EC789E7C047D017B017A04798E7EEF
:10451200007F081226FD78A67C047D017B017A04C7
:1045220079967E007F081226FD90044612645F9001
:1045320004861229EC90048BE004F0700690048A41
:10454200E004F00243F0900486E0FCA3E0FDA3E067
:04455200FEA3E0FFE5
:014556002242
:093A8B0090041EEBF0AA05A90746
:103A9400E490042AF0A3F0A3F0A3F0A31229F80001
:103AA4000000009004321229F8000000009004364F
:103AB4001229F8000000009000D57407F0A374E305
:103AC400F0AF01127182A3E4F0A3EFF0AF02127120
:103AD40082A3E4F0A3EFF090041EE0FF127182EFE2
:103AE4002405FDE433FCE412235A9000DB1229EC94
:103AF40090041FE0FF127182AC07E412235F900070
:103B0400DF127178AC07E412235F9000E31229EC12
:103B1400900421E0FBA3E0FAA3E0F9122906900443
:103B24002E1229EC78427C047D017B017A0079D540
:103B34007E007F121226FD78547C047D017B017A7D
:103B44000179587E007F081226FD90045C7401F010
:103B5400A37400F0A374F1F0122BF5E4FBFA7934AA
:103B640078431221257BD07A0F7949784012222E8E
:103B74009000CC1229EC9000DAE024AFFF9000D939
:103B8400E034FFFE7C017D6812277B7D6D1227E205
:103B9400EF25E0FDEE33FC12235A7BD07A0F7949EE
:103BA4007840122125E4FBFA7934784312222E124C
:103BB4005A3B7B857AEB791D7841122125C004C0DC
:103BC40005C006C007E4FFFE7D707C41900000E064
:103BD400F8A3E0F9A3E0FAA3E0FB122125A804A9C5
:103BE40005AA06AB07900158E0FCA3E0FDA3E0FEA4
:103BF400A3E0FF122030E4FBFA79807840122125FB
:103C0400D003D002D001D000122034C004C005C0BB
:103C140006C0079000DAE024AFFF9000D9E034FF3B
:103C2400FE7C017D6812277B7D6D1227E2AC06AD18
:103C340007EC12235A7BD07A0F7949784012212558
:103C4400E4FBFA7934784312222E125A257BC37A84
:103C5400F579F07840122125A804A905AA06AB0736
:103C6400D007D006D005D004122030C004C005C04F
:103C740006C0079000DAE024AFFF9000D9E034FFDB
:103C8400FE7C017D6812277B7D6D1227E2AC06ADB8
:103C940007EC12235A7BD07A0F79497840122125F8
:103CA400E4FBFA7934784312222E125A3BE4FBFAED
:103CB40079C0783F122125A804A905AA06AB07D02C
:103CC40007D006D005D004122030E4FBFA797078CE
:103CD4004212222E9000D01229EC90041FE0FF1211
:103CE4007182AC07E412235FE4FBFA797078421224
:103CF400222EC004C005C006C00790041EE0FF12B7
:103D04007182AC07E412235FD003D002D001D0004B
:103D14001220349000D0E0F8A3E0F9A3E0FAA3E085
:103D2400FB1220349000ED1229EC7FD07E0F7D49E8
:103D34007C409000CCE0F8A3E0F9A3E0FAA3E0FB18
:103D4400122125E4FBFA7934784312222E125A25E3
:103D5400C004C005C006C0077FD07E0F7D497C40EB
:103D640090015CE0F8A3E0F9A3E0FAA3E0FB1221E0
:103D740025E4FBFA7934784312222E125A25D00313
:103D8400D002D001D000122125C004C005C006C055
:103D940007E4FFFE7D407CC19000EDE0F8A3E0F96C
:103DA400A3E0FAA3E0FB1220347BD37A7E793C783B
:103DB40042122125E4FBFA7934784312222E125A56
:103DC40025D003D002D001D000122125C004C005A3
:103DD400C006C0077FD07E0F7D497C409000CCE0B8
:103DE400F8A3E0F9A3E0FAA3E0FB122125E4FBFA2F
:103DF4007934784312222E125A3BC004C005C006FF
:103E0400C0077FD07E0F7D497C4090015CE0F8A321
:103E1400E0F9A3E0FAA3E0FB122125E4FBFA7934EC
:103E2400784312222E125A3BD003D002D001D00084
:103E3400122125D003D002D001D000122034126EFA
:103E4400B27BED7A2E7965784212212590043A12DC
:103E540029ECE4FFFE7D407CC19000EDE0F8A3E096
:103E6400F9A3E0FAA3E0FB1220347BD37A7E793CF9
:103E74007842122125E4FBFA7934784312222E1277
:103E84005A3BC004C005C006C0077FD07E0F7D49E1
:103E94007C409000CCE0F8A3E0F9A3E0FAA3E0FBB7
:103EA400122125E4FBFA7934784312222E125A2582
:103EB400D003D002D001D000122125C004C005C017
:103EC40006C00790043AE0F8A3E0F9A3E0FAA3E0FF
:103ED400FBE4FFFE7DB47C421220307BD07A0F7964
:103EE400497840122125E4FBFA7934784312222ED2
:103EF400125A3BA804A905AA06AB07D007D006D0DE
:103F040005D00412222E126EB27BED7A2E796578DA
:103F140042122125E4FBFA793478431220349004C8
:103F24003E127178EF30E00302405B7FCD7ECC7DA2
:103F34000C7C4090043AE0F8A3E0F9A3E0FAA3E093
:103F4400FB1222CB500302405BE4FFFE7D887C42DF
:103F540090043AE0F8A3E0F9A3E0FAA3E0FB12220C
:103F6400CB6005400302405B90043AE0FCA3E0FD13
:103F7400A3E0FEA3E0FF9004461229EC90043EE087
:103F8400FCA3E0FDA3E0FEA3E0FF12405C90043636
:103F94001229ECE4FFFE7D167C43900436E0F8A37E
:103FA400E0F9A3E0FAA3E0FB122034900424E0F843
:103FB400A3E0F9A3E0FAA3E0FB12203490042E124C
:103FC40029EC900421E0FBA3E0FAA3E0F91229CC48
:103FD40090042EE0FCA3E0FDA3E0FEA3E0FF12208A
:103FE400309004321229EC900432E0FCA3E0FDA3EB
:103FF400E0FEA3E0FF1272D3E4FBFAF9783F122249
:10400400CB60025052E4FFFE7D707CC190042EE030
:10401400F8A3E0F9A3E0FAA3E0FB1222CB4038E4D2
:10402400FFFE7D527C4390042EE0F8A3E0F9A3E068
:10403400FAA3E0FB1222CB6002501C90042EE0FC99
:10404400A3E0FDA3E0FEA3E0FF900421E0FBA3E0D6
:07405400FAA3E0F91229565E
:01405B002242
:105180009003FAEBF09000D57407F0A374E3F012EB
:105190007182A3E4F0A3EFF0AF05127182A3E4F0F3
:1051A000A3EFF09003FAE0FF127182EF2405FDE413
:1051B00033FCE412235A9000DB1229EC9003FBE04D
:1051C000FF127182AC07E412235F9000DF1229EC1A
:1051D0009003FC12717EAC07E412235F9000E3128F
:1051E00029EC78427C047D017B017A0079D57E0030
:1051F0007F121226FD78547C047D017B017A0179AF
:10520000587E007F081226FD90045C7401F0A374A0
:1052100000F0A374F1F0122BF5E4FBFA7934784333
:105220001221257BD07A0F7949784012222E9000E6
:10523000CC1229EC9000DAE024AFFF9000D9E034E2
:10524000FFFE7C017D6812277B7D6D1227E2EF2532
:10525000E0FDEE33FC12235A7BD07A0F7949784077
:10526000122125E4FBFA7934784312222E125A3B9C
:105270007B857AEB791D7841122125C004C005C0D9
:1052800006C007E4FFFE7D707C41900000E0F8A3BB
:10529000E0F9A3E0FAA3E0FB122125A804A905AADE
:1052A00006AB07900158E0FCA3E0FDA3E0FEA3E0FD
:1052B000FF122030E4FBFA79807840122125D003D8
:1052C000D002D001D000122034C004C005C006C0F6
:1052D000079000DAE024AFFF9000D9E034FFFE7CB5
:1052E000017D6812277B7D6D1227E2AC06AD07ECCD
:1052F00012235A7BD07A0F79497840122125E4FB9A
:10530000FA7934784312222E125A257BC37AF57922
:10531000F07840122125A804A905AA06AB07D007FA
:10532000D006D005D004122030C004C005C006C08D
:10533000079000DAE024AFFF9000D9E034FFFE7C54
:10534000017D6812277B7D6D1227E2AC06AD07EC6C
:1053500012235A7BD07A0F79497840122125E4FB39
:10536000FA7934784312222E125A3BE4FBFA79C0C0
:10537000783F122125A804A905AA06AB07D007D0BB
:1053800006D005D004122030E4FBFA79707842127E
:10539000222E9000D01229EC9003FBE0FF127182C4
:1053A000AC07E412235FE4FBFA7970784212222EF4
:1053B000C004C005C006C0079003FAE0FF12718266
:1053C000AC07E412235FD003D002D001D00012203A
:1053D000349000D0E0F8A3E0F9A3E0FAA3E0FB12D8
:1053E00020349000ED1229EC7FD07E0F7D497C4067
:1053F0009000CCE0F8A3E0F9A3E0FAA3E0FB1221CF
:1054000025E4FBFA7934784312222E125A25C0047F
:10541000C005C006C0077FD07E0F7D497C4090014B
:105420005CE0F8A3E0F9A3E0FAA3E0FB122125E495
:10543000FBFA7934784312222E125A25D003D00277
:10544000D001D000122125C004C005C006C007E469
:10545000FFFE7D407CC19000EDE0F8A3E0F9A3E001
:10546000FAA3E0FB1220347BD37A7E793C78421297
:105470002125E4FBFA7934784312222E125A25D0E2
:1054800003D002D001D000122125C004C005C006FF
:10549000C0077FD07E0F7D497C409000CCE0F8A310
:1054A000E0F9A3E0FAA3E0FB122125E4FBFA79344A
:1054B000784312222E125A3BC004C005C006C00712
:1054C0007FD07E0F7D497C4090015CE0F8A3E0F93D
:1054D000A3E0FAA3E0FB122125E4FBFA7934784338
:1054E00012222E125A3BD003D002D001D00012213A
:1054F00025D003D002D001D000122034126EB22287
:102BF500E4FBFA79707842900450E0FCA3E0FDA371
:102C0500E0FEA3E0FF12222E90044CE0F8A3E0F9C9
:102C1500A3E0FAA3E0FB122034E4FBFA79707842D2
:102C250012222E900448E0F8A3E0F9A3E0FAA3E00D
:102C3500FB1220349004631229EC900445E024F241
:102C4500FF900444E034FFFE7C007D0C1227E2EE89
:102C55003395E0FDFC9004831229ECE47F0CFEFD26
:102C6500FC900483E0F8A3E0F9A3E0FAA3E0FB12EB
:102C75002885A804A905AA06AB07900445E024FE0B
:102C8500FF900444E034FFFE3395E0FDFCC3EF9B69
:102C9500FFEE9AFEED99FDEC98FCE47B6F7A01F965
:102CA500F8122885E47B0CFAF9F8126DEEC004C021
:102CB50005C006C007900443E024C0FF900442E02D
:102CC5003412FE3395E0FDFC900483E0F8A3E0F9AF
:102CD500A3E0FAA3E02FFFEA3EFEE93DFDE83CFC58
:102CE500E47BB57A05F9F8122885E47B04FAF9F84E
:102CF500126DEED003D002D001D000EF2BFFEE3ADB
:102D0500FEED39FDEC38FCC004C005C006C00790D7
:102D15000443E02424FF900442E03413FE3395E09D
:102D2500FDFC900483E0F8A3E0F9A3E0FAA3E02F0B
:102D3500FFEA3EFEE93DFDE83CFCE47B64FAF9F878
:102D4500126DEEE47B03FAF9F8122885E47B04FAA8
:102D5500F9F8126DEEA804A905AA06AB07D007D0AD
:102D650006D005D004C3EF9BFBEE9AFAED99F9EC7A
:102D750098F8900446E0FEA3E0FFEE3395E0FDFCF5
:102D8500EB2FFFEA3EFEE93DFDE83CFCEF24B5FFF5
:102D9500EE3482FEED34FFFDEC34FFFC9004871227
:102DA50029EC900487E0FCA3E0FDA3E0FEA3E0FF8F
:102DB500EC122355E4FBFAF978BF122034C004C0A5
:102DC50005C006C007E4FBFA79C07841900463E0CA
:102DD500FCA3E0FDA3E0FEA3E0FF12222ED003D06A
:102DE50002D001D00012203490047F1229EC7F64B8
:102DF5007EA17D157CCA90047FE0F8A3E0F9A3E0ED
:0D2E0500FAA3E0FB12203490045F1229ECC8
:102E12007F787E3E7D887C3A90045FE0F8A3E0F9FB
:102E2200A3E0FAA3E0FB122125A804A905AA06AB98
:102E3200077F467E257D097C401220309004871250
:102E420029EC7FDE7EEC7D8C7C3C90045FE0F8A375
:102E5200E0F9A3E0FAA3E0FB1221257B5B7AA479D7
:102E62009C784012203490047F1229EC7F257EEB5F
:102E72007D8C7C3C90045FE0F8A3E0F9A3E0FAA328
:102E8200E0FB1221257B927AAE79C778401220347A
:102E92009004831229EC900483E0FCA3E0FDA3E0FC
:102EA200FEA3E0FF125A3B7B4A7ADF7908783D1293
:102EB200212590047FE0F8A3E0F9A3E0FAA3E0FB68
:102EC200122034C004C005C006C007E4FFFEFD7C2A
:102ED20040900483E0F8A3E0F9A3E0FAA3E0FB1238
:102EE2002125125A3B7BEF7AF179B67839122125E6
:102EF200D003D002D001D0001220347B297AD179BC
:102F0200ED78B8122034C004C005C006C007900492
:102F120087E0FCA3E0FDA3E0FEA3E0FF125A3B7BA7
:102F2200EB7A4979AA7837122125A804A905AA06BD
:102F3200AB07D007D006D005D0041220309004672A
:102F42001229EC900487E0FCA3E0FDA3E0FEA3E0DD
:102F5200FF125A257B2D7A1879267838122125C03E
:102F620004C005C006C0077FEC7E827DD57C31900F
:102F7200045FE0F8A3E0F9A3E0FAA3E0FB12212545
:102F8200A804A905AA06AB077F9D7E747DD17C3E6D
:102F9200122030D003D002D001D00012203490048D
:042FA2006B1229EC99
:102FA600900467E0FCA3E0FDA3E0FEA3E0FF125A55
:102FB6003B90047F1229EC90046BE0FCA3E0FDA398
:102FC600E0FEA3E0FF125A2590047FE0F8A3E0F9A3
:102FD600A3E0FAA3E0FB1221259004771229EC90D6
:102FE6000467E0FCA3E0FDA3E0FEA3E0FF125A2580
:102FF60090047B1229EC90047BE0FCA3E0FDA3E0A7
:10300600FEA3E0FF9004A31229EC900477E0FCA352
:10301600E0FDA3E0FEA3E0FF1267C590046F12294E
:10302600ECE4FFFEFDFC90046FE0F8A3E0F9A3E0FA
:10303600FAA3E0FB1222CB501F90046FE0FCA3E042
:10304600FDA3E0FEA3E0FF7BD07A0F79C97840129A
:10305600203490046F1229EC90046BE0FCA3E0FD91
:10306600A3E0FEA3E0FF125A3B90047FE0F8A3E042
:10307600F9A3E0FAA3E0FB122125126EB2900473C5
:033086001229EC20
:103089007FE07E927D867C3D90045FE0F8A3E0F9C5
:10309900A3E0FAA3E0FB1221257B4D7A5179D6787A
:1030A90040122034900463E0F8A3E0F9A3E0FAA306
:1030B900E0FB12203490047F1229ECE4FFFE7D70BE
:1030C9007C4190047FE0F8A3E0F9A3E0FAA3E0FBD8
:1030D900122125900454E0F8A3E0F9A3E0FAA3E053
:1030E900FB1220347B2E7AFA798E783C12212590B6
:1030F90004831229EC90046FE0F8A3E0F9A3E0FA45
:10310900A3E0FB900483E0FCA3E0FDA3E0FEA3E0C1
:10311900FF12203090048B1229EC7F2E7EFA7D8ECF
:103129007C3C900458E0F8A3E0F9A3E0FAA3E0FBA3
:103139001221259004871229EC900487E0FCA3E072
:10314900FDA3E0FEA3E0FF125A2590048F1229EC9B
:10315900900487E0FCA3E0FDA3E0FEA3E0FF125A80
:103169003B9004931229EC90048BE0FCA3E0FDA3AF
:10317900E0FEA3E0FF125A259004971229EC90046F
:1031890073E0FCA3E0FDA3E0FEA3E0FF125A25C013
:1031990004C005C006C007900497E0FCA3E0FDA3A6
:1031A900E0FEA3E0FF90048FE0F8A3E0F9A3E0FAC2
:1031B900A3E0FB122125D003D002D001D0001221B7
:1031C90025C004C005C006C007900473E0FCA3E055
:1031D900FDA3E0FEA3E0FF125A3B900493E0F8A39D
:1031E900E0F9A3E0FAA3E0FB122125D003D002D035
:1031F90001D000122034126DA490045CE0FBA3E01E
:10320900FAA3E0F912295690048BE0FCA3E0FDA390
:10321900E0FEA3E0FF125A3B1223449004771229DF
:10322900EC900473E0FCA3E0FDA3E0FEA3E0FF1231
:103239005A7790048FE0F8A3E0F9A3E0FAA3E0FB42
:10324900122125C004C005C006C007900497E0FC00
:10325900A3E0FDA3E0FEA3E0FF900493E0F8A3E060
:10326900F9A3E0FAA3E0FB122125A804A905AA06FF
:10327900AB07D007D006D005D00412203090047BCC
:103289001229EC90047BE0FCA3E0FDA3E0FEA3E09F
:10329900FF9004A31229EC900477E0FCA3E0FDA3BE
:1032A900E0FEA3E0FF1267C590045CE0FBA3E0FA2F
:1032B900A3E0F9900004122970900004122926E471
:1032C900FBFAF9F81222CB602F402D90045CE0FB49
:1032D900A3E0FAA3E02404F9E43AFAC003C002C067
:1032E900011229067BD07A0F79C97840122034D08F
:1032F90001D002D00312295690045CE0FBA3E0FA46
:10330900A3E02404F9E43AFAC003C002C001122977
:10331900067B2E7AFA798E783C12222ED001D002C1
:10332900D00312295690045CE0FBA3E0FAA3E0F96C
:10333900122906125A3B7B0D7AA07932783812216C
:103349002590049B1229EC90045CE0FBA3E0FAA30E
:10335900E0F912290690049BE0F8A3E0F9A3E0FA4A
:10336900A3E0FB1220347B2E7AFA798E783C122264
:0F3379002E90045CE0FBA3E0FAA3E0F9122956C2
:0E338800900473E0FCA3E0FDA3E0FEA3E0FFD1
:013396002214
:10719300C2A4C2A5C2A64391015392FEE4F597434C
:0A71A3009D01F5BDF5BE75BC80220C
:106FA700EF4488F5BC0000E5BC30E4FB53BCEFAF11
:106FB700BD7E00ADBE7C00EF7802C333CE33CED8A2
:096FC700F9FFED5403FDEF4DFF4D
:016FD000229E
:106FF900252E34660041542B43495053454E443D98
:10700900390D0A004A0D0A00570D0A004D0D0A00F4
:087019004C0D0A00540D0A00A1
:10651000E4900432F0A3F0900430F0A3F090043241
:10652000A3E0FF126FA7AC06AD07900431E025E0B1
:10653000FF900430E033FE741C2FF58274043EF5A6
:1065400083ECF0A3EDF0900431E004F070069004C9
:1065500030E004F0C3900431E0940A900430E06429
:1065600080948040B8900430E4F0A304F0900430AC
:10657000E0FEA3E0FFD39409EE648094805047EFDF
:1065800025E0FFEE33FE741C2FF58274043EF58384
:10659000E0FEA3E0FF90041CE0FCA3E0FDC3EF9D40
:1065A000FFEE9CFE1272ECD3EF941EEE648094809A
:1065B0004004E4FEFF22900431E004F070AF900448
:0A65C00030E004F080A77E007F01A8
:0165CA0022AE
:0B33970090041CEBF0A3EAF0A3E9F0A7
:1033A200E490042DF0A31229F83F000000E49004F9
:1033B200E3F0A3F09005AD1229F80000000090069A
:1033C200051229F800000000122906E4FBFA79A090
:1033D20078411220349004321229ECE49004E5F092
:1033E200A3F09004E5E0FEA3E0FFC39451EE6480F5
:1033F20094805025EF25E0FFEE33FE743F2FF582D7
:1034020074043EF583E4F0A3F09004E6E004F07067
:10341200D19004E5E004F080C9E49004E5F0A3F063
:10342200E49004E7F0A3F09004E7E0FEA3E0FFC31A
:103432009405EE648094805035EF4E70069004E35C
:10344200F0A3F090042DE0FF126FA79004E4E02FA8
:10345200F09004E3E03EF07F027E0012709A900446
:10346200E8E004F070C19004E7E004F080B9900451
:10347200E3E0FEA3E0FF7C007D051227E2AC06AD8F
:10348200079004E6E025E0FF9004E5E033FE743F98
:103492002FF58274043EF583ECF0A3EDF09004EC7A
:1034A20074FFF0A3746FF0A374F9F0900432E0FC9F
:1034B200A3E0FDA3E0FEA3E0FF9004EF1229EC7B62
:1034C200017A0479361245BC7BFF7A6F79FE126E5F
:1034D200ED7FC87E0012709A7B017A047936126EF3
:1034E200ED7BFF7A70790D126EED7F907E01127086
:1034F2009A9004EC74FFF0A3746FF0A374F9F09047
:1035020004E6E025E0FF9004E5E033FE743F2FF58A
:103512008274043EF583E0FCA3E0FDEC12235AE43E
:10352200FBFA7980784412222EE4FBFA79A07840E3
:103532001221259004EF1229EC7B017A04793612CC
:1035420045BC7BFF7A6F79FE126EED7FC87E00125A
:10355200709A7B017A047936126EED7BFF7A70796C
:1035620011126EED7FC87E0012709AE4FFFEFDFC20
:103572009005ADE0F8A3E0F9A3E0FAA3E0FB122284
:10358200CB603690062CE0FCA3E0FDA3E0FEA3E0B6
:10359200FF9005ADE0F8A3E0F9A3E0FAA3E0FB1287
:1035A20022CB50059005AD800390062CE0FCA3E0F1
:1035B200FDA3E0FEA3E0FF800E90062CE0FCA3E05A
:1035C200FDA3E0FEA3E0FF9005AD1229EC90062CCE
:1035D200E0FCA3E0FDA3E0FEA3E0FF900605E0F817
:1035E200A3E0F9A3E0FAA3E0FB1222CB60074005B7
:1035F200900605800390062CE0FCA3E0FDA3E0FE0C
:10360200A3E0FF9006051229EC7F08126E327F05B7
:10361200126E327F41126AB07F44126AB07F431247
:103622006AB07F3A126AB09004E6E025E0FF9004A7
:10363200E5E033FE743F2FF58274043EF583E0FC2F
:10364200A3E0FDEC12235AE4FBFA798078441222BB
:103652002EE4FBFA79A07840122125125CCB7F562A
:10366200126AB07F10126AB07FC87E0012709A9000
:1036720004EC74FFF0A3746FF0A374F9F090041CCF
:10368200E0FBA3E0FAA3E0F91229069004EF122965
:10369200EC7B017A0479361245BC7BFF7A6F79FEA6
:1036A200126EED7FC87E0012709A7B017A04793621
:1036B200126EED7BFF7A707915126EED7FC87E0077
:1036C20012709A9004EC74FFF0A3746FF0A374F973
:1036D200F090062CE0FCA3E0FDA3E0FEA3E0FF9047
:1036E20004EF1229EC7B017A0479361245BC7BFF88
:1036F2007A6F79FE126EED7FC87E0012709A7B019E
:103702007A047936126EED7BFF7A707919126EEDBA
:103712007FC87E0012709A90042EE0FCA3E0FDA305
:10372200E0FEA3E0FFD201126FD190041CE0FBA3E4
:10373200E0FAA3E0F9C003C002C001122906E4FBCB
:10374200FAF9783F122034D001D002D00312295660
:103752007FC87E0012709A9004EC7401F0A3740486
:10376200F0A3742BF0A37401F0A37404F0A3742AE1
:10377200F0A37401F0A37404F0A37429F0A37401FC
:10378200F0A37404F0A37428F07B017A04792C125C
:103792006B97900429E0FF127182AC07E412235F59
:1037A200E4FBFA7970784212222EC004C005C006EA
:1037B200C00790042AE0FF127182AC07E412235F73
:1037C200D003D002D001D000122034C004C005C002
:1037D20006C007900428E0547FFF127182AC07E410
:1037E20012235FE4FBFA7961784512222ED003D0CE
:1037F20002D001D0001220349004EF1229EC900480
:10380200EC74FFF0A3746FF0A374F9F07B017A04F7
:1038120079361245BC7BFF7A6F79FE126EED7FC856
:103822007E0012709A7B017A047936126EED7BFF6C
:103832007A70791D126EED7FC87E0012709A900424
:10384200E6E004F070069004E5E004F0C39004E6BC
:10385200E094519004E5E0648094805003023422A5
:103862007FE87E0312709A9004E5E07004A3E0649E
:10387200516003023A8A7B017A04793F12686290AE
:1038820004E1EEF0A3EFF0E025E0FF9004E1E03385
:10389200FE743F2FF58274043EF583E0F9A3E0FF46
:1038A20090041FE0FBA3E0FAA3E0C98FF0122866A0
:1038B20090048FE0F9A3E0FF900422E0FBA3E0FA7A
:1038C200A3E0C98FF01228669004E1E0FEA3E0FFB6
:1038D200C374539FFDE49EFC12235A90042EE0F819
:1038E200A3E0F9A3E0FAA3E0FB122125C201126FC3
:1038F200D190041CE0FBA3E0FAA3E0F9C003C002EC
:10390200C001122906C004C005C006C0079004E128
:10391200E0FEA3E0FFC374539FFDE49EFC12235A12
:1039220090042EE0F8A3E0F9A3E0FAA3E0FB122151
:1039320025A804A905AA06AB07D007D006D005D052
:1039420004122030D001D002D0031229569004EC88
:1039520074FFF0A3746FF0A374F9F090041CE0FB01
:10396200A3E0FAA3E0F91229069004EF1229EC7BF6
:10397200017A0479361245BC7BFF7A6F79FE126EAA
:10398200ED7FC87E0012709A7B017A047936126E3E
:10399200ED7BFF7A707915126EED7FC87E00127092
:1039A2009A9004EC7401F0A37404F0A3742BF0A3B6
:1039B2007401F0A37404F0A3742AF0A37401F0A3B9
:1039C2007404F0A37429F0A37401F0A37404F0A3A7
:1039D2007428F07B017A04792C126B97900429E009
:1039E200FF127182AC07E412235FE4FBFA7970786C
:1039F2004212222EC004C005C006C00790042AE06D
:103A0200FF127182AC07E412235FD003D002D0010F
:103A1200D000122034C004C005C006C0079004289C
:103A2200E0547FFF127182AC07E412235FE4FBFAD9
:103A32007961784512222ED003D002D001D0001233
:103A420020349004EF1229EC9004EC74FFF0A3747C
:103A52006FF0A374F9F07B017A0479361245BC7BCE
:103A6200FF7A6F79FE126EED7FC87E0012709A7B2C
:103A7200017A047936126EED7BFF7A70791D126E2F
:083A8200ED7FC87E0012709A6E
:013A8A002219
:10686200E4FDFC9004E9F0A37428F0E4A3F0A3F0A3
:106872009004EBE0FEA3E0FFC39451EE940050734A
:10688200EF25E0FFEE338F82F58312282EFFD3ED42
:106892009FEC95F04006AE04AF0580169004ECE044
:1068A20025E0FF9004EBE0338F82F58312282EFF60
:1068B200AEF0AC06AD079004ECE025E0FF9004EBEF
:1068C200E0338F82F58312282EB50516ECB5F0124F
:1068D2004D600F9004EBE0FFA3E09004E9CFF0A33A
:1068E200EFF09004ECE004F070869004EBE004F02A
:0B68F2000268729004E9E0FEA3E0FFE2
:0168FD002278
:0B5500009003F8EFF0A3EDF0A3EBF038
:10550B0090040C1229F800000000E4900410F0A3A2
:10551B00F0A3F0A3F0900409E0FBA3E0FAA3E0F9F9
:10552B001229069004141229EC9003FDE0FBA3E072
:10553B00FAA3E0F91229069004181229EC90040042
:10554B00E0FBA3E0FAA3E0F9E4F5F012286690047F
:10555B0006E0FBA3E0FAA3E0F9E4F5F0122866906D
:10556B000403E0FBA3E0FAA3E0F9122A29000000F0
:10557B00009005AD1229F8000000009006051229D5
:10558B00F800000000126510EF4E70030256C19038
:10559B0003FBE090041FF09003FCE0900420F0A3C9
:1055AB007401F0A37404F0A37418F0A31229F8C1CA
:1055BB00A000009003FAE0FB9003F9E0FD9003F8E4
:1055CB00E0FF123A8BE4FFFE7DA07C41900418E0D3
:1055DB00F8A3E0F9A3E0FAA3E0FB12203490040354
:1055EB00E0FBA3E0FAA3E0F912295690041F740123
:1055FB00F0A37404F0A37410F0A37401F0A374046B
:10560B00F0A37412F0A37401F0A37404F0A3741448
:10561B00F07B017A047918123397900414E0FCA301
:10562B00E0FDA3E0FEA3E0FF900409E0FBA3E0FA9A
:10563B00A3E0F9122956900410E0F9A3E0FF9004BF
:10564B0000E0FBA3E0FAA3E0C98FF01228669004F8
:10565B0012E0F9A3E0FF900406E0FBA3E0FAA3E05D
:10566B00C98FF0122866900403E0FBA3E0FAA3E0D5
:10567B00F91229CC900418E0FCA3E0FDA3E0FEA3F3
:10568B00E0FF12203090040C1229EC900418E0FC7F
:10569B00A3E0FDA3E0FEA3E0FF9003FDE0FBA3E08E
:1056AB00FAA3E0F912295690040CE0FCA3E0FDA349
:0B56BB00E0FEA3E0FF22E4FFFEFDFC88
:0156C60022C1
:10706F00C3EC64809480401CED25E0FFEC338F82ED
:10707F00F58312282E640145F07005AF05AE04228A
:04708F00E4FEFF22FA
:0170930022DA
:0D6F51007F027E00126F5ED2CC7F027E00B8
:106F5E00EF1FAA0670011E4A6013E4FCFDC3ED94F8
:0D6F6E0009EC940050EA0DBD00010C80F00C
:016F7B0022F3
:017333002237
:0F728C00D2CCD2C7126F5AC2C7126F5AC2CC22CD
:10721C00C2CCC2C7126F5AD2CCC2C77F047E001236
:05722C006F5ED2C722D5
:1071DC00E425E0FBC2CC126F5A30C704EB4401FB30
:0571EC00126F58AF0313
:0171F100227B
:05732700126F51C2CC01
:01732C00223E
:0E729B00C2CCD2C7126F51C2CC126F5AC2C7FA
:0172A90022C2
:05702100F912273CFFFD
:02702600A907B8
:10702800E4FBC2CCE930E704D2C78002C2C7126FC2
:0F7038005AD2CCE925E0F9126F5A0BEBB408E3FA
:017047002226
:1065CB009004F1EBF0A3EAF0A3E9F012728C7F01D7
:1065DB007E00126F5E7F401270261271DCEF70121C
:1065EB009004F1E0FBA3E0FAA3E0F9122723FF12DA
:1065FB0070261271DCEF70109004F1E0FBA3E0FA4F
:10660B00A3E09000011270211271DCEF7010900466
:10661B00F1E0FBA3E0FAA3E09000021270211271EB
:10662B00DCEF70119004F1E0FBA3E0FAA3E0F9902A
:10663B0000031270221271DCEF70119004F1E0FB79
:10664B00A3E0FAA3E0F99000041270221271DCEFC0
:10665B0070119004F1E0FBA3E0FAA3E0F9900005C0
:0D666B001270221271DCEF700312721C22FB
:0D6F7C007F057E00126F89D2C37F057E0065
:106F8900EF1FAA0670011E4A6013E4FCFDC3ED94CD
:0D6F990004EC940050EA0DBD00010C80F0E6
:016FA60022C8
:106C06007B6053B3F143B407C2C1126F85E49003AE
:106C1600F8F0A3F0C2C3126F85EB30E704D2C2804E
:106C260002C2C2126F7CEB25E0FB9003F9E004F090
:106C360070069003F8E004F0C39003F9E09408901E
:106C460003F8E06480948040CBD2C17F0A7E0012B4
:096C56006F89126724EF20E0F9B8
:016C5F002212
:106B25007F327E00126F89900403E0FBA3E0FAA395
:106B3500E0F9122906EF2401FFE43EFEE43DFDE401
:056B45003CFC12295682
:106B4A007B06C2C1E4900406F0A3F0C2C3126F85AB
:106B5A00EB30E704D2C28002C2C2126F7CEB25E09E
:106B6A00FB900407E004F07006900406E004F0C30A
:106B7A00900407E09408900406E06480948040CB77
:0C6B8A00D2C1126F85126724EF20E0F9E1
:016B960022DC
:07617B00E090040BF07F022D
:02618200AB0769
:10618400C2C1126F85E490040CF0A3F0C2C3126F75
:1061940085EB30E704D2C28002C2C2126F7CEB25C9
:1061A400E0FB90040DE004F0700690040CE004F0B1
:1061B400C390040DE0940890040CE0648094804043
:1061C400CBE490040CF0A3F0C2C3126F85900407D3
:1061D400A3E0FDA3A3E4FFFEED5480FDE4FCFBFA81
:1061E4007980F8C31228E27004D2C28002C2C212BB
:1061F4006F7C900407E0FCA3E0FDA3E0FEA3E0FFB6
:1062040078011228F39004071229EC90040DE0049D
:10621400F0700690040CE004F0C390040DE09418B0
:1062240090040CE064809480409EE490040CF0A3FD
:10623400F0C2C3126F8590040BE030E704D2C28031
:1062440002C2C2126F7C90040BE025E0F090040DB2
:10625400E004F0700690040CE004F0C390040DE038
:10626400940890040CE06480948040C5D2C1126FFD
:0862740085126724EF20E0F918
:01627C0022FF
:02606B00AB0781
:10606D00E49003FDF0C2C17F05FE126F89E4A3F039
:10607D00A3F0C2C3126F85EB30E704D2C28002C217
:10608D00C2126F7CEB25E0FB9003FFE004F070067D
:10609D009003FEE004F0C39003FFE094089003FE2C
:1060AD00E06480948040CBE49003FEF0A3F0C2C383
:1060BD00126F859003F9A3E0FDA3A3E4FFFEED5459
:1060CD0080FDE4FCFBFA7980F8C31228E27004D25B
:1060DD00C28002C2C2126F7C9003F9E0FCA3E0FD06
:1060ED00A3E0FEA3E0FF78011228F39003F9122933
:1060FD00EC9003FFE004F070069003FEE004F0C3A3
:10610D009003FFE094189003FEE064809480409E1D
:10611D007F0A7E00126F89D2C47F027E00126F89C2
:10612D00E49003FEF0A3F09003FDE025E0F0126F84
:10613D0083C2C3126F8530C404E04401F09003FFA5
:10614D00E004F070069003FEE004F0C39003FFE05E
:10615D0094089003FEE06480948040CBD2C1126F0E
:0D616D0085126724EF20E0F99003FDE0FFAC
:01617A002202
:10672400E4FB90040EF0A3F0A3F07905C2C17F0549
:10673400FE126F89E490040FF0A3F0C2C3126F85B8
:10674400E930E704D2C28002C2C2126F7CE925E0BC
:10675400F9900410E004F0700690040FE004F0C314
:10676400900410E0940890040FE06480948040CB7F
:106774007F0A7E00126F89D2C47F027E00126F8965
:10678400E490040FF0A3F0EB25E0FB126F83C2C387
:10679400126F8530C404EB4401FB900410E004F054
:1067A400700690040FE004F0C3900410E094089085
:1067B400040FE06480948040CED2C1126F85AF0391
:0167C40022B2
:10585400126B4A900403E0FBA3E0FAA3E0F91229D7
:10586400069004071229EC9003F812617B9004035C
:10587400E0FBA3E0FAA3E0F9122906EF2401FFE418
:105884003EFEE43DFDE43CFC1229567F327E0012CC
:105894006F89126B4A900403E0FBA3E0FAA3E0F9DA
:1058A4001229069004071229EC9003F912617B1265
:1058B4006B25900403E0FBA3E0FAA3E0F9122906A8
:1058C4009004071229EC9003FA12617B126B259065
:1058D4000403E0FBA3E0FAA3E0F91229069004070D
:1058E4001229EC9003FB12617B126B25900403E0F8
:1058F400FBA3E0FAA3E0F91229069004071229ECAD
:105904009003FC12617B126B25900403E0FBA3E07F
:10591400FAA3E0F91229069004071229EC9003FD7A
:1059240012617B126B25900403E0FBA3E0FAA3E071
:10593400F91229069004071229EC9003FE12617BE8
:10594400126B25900403E0FBA3E0FAA3E0F912290B
:10595400069004071229EC9003FF12617B126B2559
:10596400900403E0FBA3E0FAA3E0F91229069004F3
:10597400071229EC90040012617B126B259004033A
:10598400E0FBA3E0FAA3E0F9122906900407122928
:10599400EC90040112617B126B25900403E0FBA3DD
:1059A400E0FAA3E0F91229069004071229EC900406
:1059B4000212617B7F327E00126F89900403E0FB48
:1059C400A3E0FAA3E0F9122906EF2401FFE43EFE66
:0959D400E43DFDE43CFC0229560F
:106F2000D296C294C2957F0A7E0012709AD296D2EF
:106F300094D2957F0A7E0012709AC2967F0A7E00D4
:106F400012709AC294C2957F0A7E0012709AD295EE
:016F5000221E
:0D72C60053B2FB43B104C288D2A8D2AF225C
:106D0F0041542B43495053544152543D2254435004
:106D1F00222C223139322E3136382E31312E32306B
:106D2F0033222C383038300D0A0041542B43495050
:106D3F0053454E443D31360D0A0048656C6C6F204B
:0B6D4F0066726F6D204553500D0A0066
:10727B00759850438E9575D7D875D6FFD2ACD2AFD3
:01728B0022E0
:106EED009004E9EBF0A3EAF0A3E9F09004E9E0FBEC
:106EFD00A3E0FAA3E0F912272360179004E9A3E4B5
:106F0D0075F001122818A9F0FA122723FF12731534
:036F1D0080D922F6
:06732D00EFC4540FFF2223
:05000600EF540FFF2282
:017334002236
:05001E00EF2430FF2279
:1071C500126372EF75F00A84FEEF75F00A84AFF072
:0671D500EEC454F04FFF70
:0171DB002291
:09731E007BFF7A6D790F026EED20
:1070B8009003F8EBF0A3EAF0A3E9F07BFF7A6D798F
:1070C80039126EED7FE87E0312713D7BFF7A6D7990
:0470D80049026EED0E
:03000000026998FA
:0C699800787FE4F6D8FD7581210269DFEC
:10202D000223FFE86480F8E933E83360110460F0BF
:10203D00ED33EC337009E8FCE9FDEAFEEBFF220419
:10204D0060DED3EB9FEA9EE99DE8C2E78CF0C2F714
