:10244F004305836868004305866D6D0042052500CE
:10245F0000420596000042057C0000420580000006
:10246F0044052068686D6D44058D0000000041052E
:0E247F00241E4204C400004404C868686D6D49
:03000B00020009E7
:0100090032C4
:101435009003917401F0E4A3F0A3F09003A4F0A34A
:10144500F0D200D203C202C201900000F0A3F0F571
:10145500B175B2FF75B04C1240241244B91244C69E
:1014650012434D438E80E4F58A758CB8F589D28C8C
:10147500D2A9D2AF7D067F121243C27FF47E01123C
:10148500436C7D05E4FF1243C27FF47E0112436C79
:101495007F017E001244077F68123F407F68123F3C
:1014A500407F6D123F407F6D123F407F23123F40CA
:1014B500E49003A6F0A3F09003A6E0FAA3E0FBD323
:1014C5009414EA648094805074EBAE027802C333BE
:1014D500CE33CED8F924CCF58274043EF5831212AE
:1014E500CA00000000AD03AC02EC120E3BE4FBFAAF
:1014F500F97840120D0FE4FBFA79E07840120B15EC
:10150500C004C005C006C0079003A6E0FEA3E078AE
:1015150002C333CE33CED8F92427F58274053EF5C0
:1015250083D007D006D005D0041212BE9003A7E0E1
:1015350004F070839003A6E004F00214BC122DB2EF
:101545007F081241557F051241557F50123F407F5C
:101555004F123F407F53123F407F3A123F40900564
:101565008DE0FCA3E0FDA3E0FEA3E0FF1235387F8C
:101575006D123F407F6D123F407F027E001244078F
:1015850090057FE0FF12438A7F3A123F4090058223
:10159500E0FF12438A7F3A123F40900595E0547F61
:1015A500FF12438A7F3B123F4090057BE0FF1243C9
:1015B5008A90057EE0FF12438A7F3B123F409000F0
:1015C50000E07002A3E060047F41800C900000E021
:1015D5007002A3E070057F4D123F4030023F90003E
:1015E50000E07002A3E07035A20392067F30FE1280
:1015F500419590058DE0FCA3E0FDA3E0FEA3E0FF8F
:101605007BCD7ACC79CC300304783E800278BE124B
:101615000B1590058D1212BEE4900391F030014137
:10162500900000E07002A3E07037A20392067F30BD
:10163500FE12419590058DE0FCA3E0FDA3E0FEA31D
:10164500E0FF7BCD7ACC79CC300304783E800278FC
:10165500BE120B1590058D1212BEE4900391F0C2D7
:101665000130A335900391E0702FFFFEFDFC90053E
:101675008DE0F8A3E0F9A3E0FAA3E0FB120DAC605E
:1016850002501690058D1212CA00000000900391B9
:101695007401F0C202C201D2031244DE900591E04A
:1016A500A3F090057FE0900591F0900593E0A3F0FD
:1016B500900582E0900593F09003AB7401F0A3745C
:1016C50005F0A3747EF0A37401F0A37405F0A37470
:1016D5007FF0A37401F0A37405F0A37482F0A374E2
:1016E50001F0A37405F0A37495F07B017A05797B6D
:1016F500123FB5900000E07002A3E07003021C8762
:101705007F0212424390038FEEF0A3EFF090059411
:10171500E0FE900593E06E6003021C87900582E071
:10172500FFEE6F6003021C8790057FE0FE90059138
:10173500E0FD6E6003021C87A3E06D6003021C8759
:10174500900392E07002A3E060030219721243B1A4
:10175500900524E0FEEF8EF084E5F0600302187C2E
:10176500900595E0547FFF1243B1EF600302187CAA
:10177500C390038FE09402500302187C90057FE02C
:10178500FF1243B1EFD39410400302186890057F10
:10179500E0FF1243B1EFC3940750030218689005A8
:1017A50082E0FF1243B1AC07E4120E40E4FBFA7984
:1017B500707842120D0FC004C005C006C007900521
:1017C5007FE0FF1243B1AC07E4120E40D003D00214
:1017D500D001D000120B15E4FBFA79E078C0120BAA
:1017E50015E4FBFA79707842120C06C004C005C0F6
:1017F50006C007900524E0FCE4120E40A804A905E4
:10180500AA06AB07D007D006D005D004120D0F12DB
:101815000E7490057CEEF0A3EFF090057BE0FF9051
:10182500057EE0FD900582E09003ABF0900595E024
:101835009003ACF0A37401F0A37405F0A3748DF0CC
:1018450090057FE0FB1237CCC004C005C006C00779
:1018550090057CE0FEA3E07802C333CE33CED8F901
:10186500021A8A90057FE0FF1243B1EFC39411502D
:1018750003021C87021AB290057FE0FF1243B1EF05
:10188500D394104003021C8790057FE0FF1243B1FB
:10189500EFC394075003021C87900582E0FF1243B3
:1018A500B1AC07E4120E40E4FBFA79707842120DF0
:1018B5000FC004C005C006C00790057FE0FF1243B6
:1018C500B1AC07E4120E40D003D002D001D0001213
:1018D5000B15E4FBFA79E078C0120B15E4FBFA79F5
:1018E500707842120C06C004C005C006C0079005FA
:1018F50024E0FCE4120E40A804A905AA06AB07D013
:1019050007D006D005D004120D0F120E7490057C79
:10191500EEF0A3EFF0900582E09003BFF0900595FF
:10192500E09003C0F0A37401F0A37405F0A3748DD7
:10193500F090057CE0FEA3E07802C333CE33CED829
:10194500F924CCF58274043EF583E0FCA3E0FDA305
:10195500E0FEA3E0FF9003C41212BE90057FE0FBFA
:1019650090057EE0FD90057BE0FF021C84900582DA
:10197500E0FF1243B1900524E0FEEF8EF084E5F020
:101985006003021ABD900595E0547FFF1243B1EF45
:101995006003021ABDC390038FE094025003021A3C
:1019A500BD90057FE0FF1243B1EFD39410400302D1
:1019B5001AA190057FE0FF1243B1EFC394075003CE
:1019C500021AA1900582E0FF1243B1AC07E4120EA2
:1019D50040E4FBFA79707842120D0FC004C005C0CF
:1019E50006C00790057FE0FF1243B1AC07E4120E75
:1019F50040D003D002D001D000120B15E4FBFA79D8
:101A0500E078C0120B15E4FBFA79707842120C06E7
:101A1500C004C005C006C007900524E0FCE4120E12
:101A250040A804A905AA06AB07D007D006D005D063
:101A350004120D0F120E7490057CEEF0A3EFF090DA
:101A4500057BE0FF90057EE0FD900582E09003AB0D
:101A5500F0900595E09003ACF0A37401F0A3740534
:101A6500F0A3748DF090057FE0FB1237CCC004C065
:101A750005C006C00790057CE0FEA3E07802C333ED
:101A8500CE33CED8F924CCF58274043EF583D00745
:101A9500D006D005D0041212BE021C8790057FE047
:101AA500FF1243B1EFC394115003021C87900392B8
:101AB500E4F0A304F0021C8790057FE0FF1243B118
:101AC500EFD394104003021C8790057FE0FF12437B
:101AD500B1EFC394075003021C87900582E0FF1203
:101AE50043B1AC07E4120E40E4FBFA797078421278
:101AF5000D0FC004C005C006C00790057FE0FF12AA
:101B050043B1AC07E4120E40D003D002D001D0009F
:101B1500120B15E4FBFA79E078C0120B15E4FBFA19
:101B250079707842120C06C004C005C006C0079043
:101B35000524E0FCE4120E40A804A905AA06AB079B
:101B4500D007D006D005D004120D0F120E749005E3
:101B55007CEEF0A3EFF090057CE0FEA3E07802C3F5
:101B650033CE33CED8F9FBAA062427F58274053A7D
:101B7500F583E0FCA3E0FDA3E0FEA3E0FF90039462
:101B85001212BE74CC2BF58274043AF583E0FCA3E3
:101B9500E0FDA3E0FEA3E0FF9003981212BE9005BE
:101BA5007CE0FEA3E07802C333CE33CED8F9FBAA9E
:101BB50006242BF58274053AF583E0FCA3E0FDA32A
:101BC500E0FEA3E0FF90039C1212BE74D02BF582B9
:101BD50074043AF583E0FCA3E0FDA3E0FEA3E0FF77
:101BE5009003A01212BE900582E0FF1243B1AC072C
:101BF500E4120E40E4FBFA79707842120D0FC0042E
:101C0500C005C006C00790057FE0FF1243B1AC07D1
:101C1500E4120E40D003D002D001D000120B159073
:101C2500046B1212BE785B7C047D017B017A03791B
:101C3500947E007F0812101278637C047D017B017D
:101C45007A03799C7E007F081210121239AE900338
:101C5500C41212BE90057BE0FF90057EE0FD900565
:101C650082E09003BFF0900595E09003C0F0A37467
:101C750001F0A37405F0A3748DF090057FE0FB12CD
:101C8500000E90057FE0FF1243B1EFD3941050137F
:101C950090057FE0FF1243B1EFC394074005D2CD15
:081CA500021542C2CD021542F6
:043D9B00AB07AA06C2
:103D9F007C007D0A1210A290060AEDF07C037DE8EC
:103DAF00AF03AE021210A290060DEFF07E007C035F
:103DBF007DE8121090C3EB9FFFEA9EFE7C007D64AE
:103DCF001210A290060CEFF0A3E0FF7E007C037DA3
:103DDF00E8121090C3EB9FFDEA9EFC90060CE07575
:103DEF00F064A4FFC3ED9FFFEC95F0FE7C007D0A0D
:103DFF001210A290060BEFF090060DE04430FF1268
:103E0F003F4090060CE04430FF123F4090060BE01D
:103E1F004430FF123F4090060AE04430FF123F400B
:013E2F002270
:063538009004401212BED7
:10353E00900440E0FCA3E0FDA3E0FEA3E0FF120E2A
:10354E00741244D2900448EEF0A3EFF0E4FFFEFDB7
:10355E00FC900440E0F8A3E0F9A3E0FAA3E0FB122C
:10356E000DAC60264024900448E0FCA3E0FDEC1274
:10357E000E3BA804A905AA06AB07900440E0FCA3E5
:10358E00E0FDA3E0FEA3E0FF8035900440E0FCA345
:10359E00E0FDA3E0FEA3E0FF120E25C004C005C0AF
:1035AE0006C007900448E0FCA3E0FDEC120E3BA819
:1035BE0004A905AA06AB07D007D006D005D0041281
:1035CE000B11E4FBFA79207841120C06120E74905E
:1035DE000447EFF0900448E0FAA3E0FB7C007D0A7C
:1035EE00FFAE021210F7900444EDF07C037DE8AFBD
:1035FE0003AE021210F7AB077E007C037DE81210BB
:10360E0090C3900449E09FFF900448E09EFE7C002A
:10361E007D641210A2900446EFF0AF037E007C038F
:10362E007DE8121090C3900449E09FFD900448E09D
:10363E009EFC900446E075F064A4FFC3ED9FFFEC82
:10364E0095F0FE7C007D0A1210A2900445EFF0E486
:10365E00FFFEFDFC900440E0F8A3E0F9A3E0FAA31E
:10366E00E0FB120DAC400280057F2D123F4090040E
:10367E0046E04430FF123F40900445E04430FF12D4
:10368E003F40900444E04430FF123F407F2E123FF3
:0B369E0040900447E04430FF123F4022
:0136A90022FE
:06443100D2A27F017E0013
:0E443700EF1FAC0670011E4C60030080F322E4
:02430D00AD07FA
:10430F00E4FBC2A2ED30E704D2A18002C2A11244A5
:0D431F0033124431ED25E0FD0BEBB408E551
:01432C00226E
:10432D00E4FDD2A1FBED25E0FDC2A212443330A184
:0F433D0004ED4401FD1244310BEBB408E8AF0569
:01434C00224E
:10445900E4FED2A0EF44A0FF12430D12432DC2A0E7
:014469002230
:1043C200AA07D2A0ED4420FF12430DAF0212430D03
:0843D200AF0212430DC2A0224C
:0D44B9005395F85396F8D2A0C2A0C2A222DB
:103FB5009003A8EBF0A3EAF0A3E9F07F09124459B6
:103FC5009003A8E0FBA3E0FAA3E0F9EF12107E7FCF
:103FD500071244599003ABE0FBA3E0FAA3E0F9EF25
:103FE50012107E7F061244599003AEE0FBA3E0FA5F
:103FF500A3E0F9EF12107E7F051244599003B1E05A
:10400500FBA3E0FAA3E0F9EF12107E7F04124459F6
:0F4015009003B4E0FBA3E0FAA3E0F9EF02107E02
:10446A00EFC4540FFEEF540FFFEE75F00AA42FFFAE
:01447A00221F
:103EBC0012446AAC07AF0512446AEC14B40C0050FF
:103ECC0072903EDB75F003A4C58325F0C5837302A5
:103EDC003EFF023F02023F07023F0C023F11023F2E
:103EEC0016023F1B023F20023F25023F2D023F32AC
:103EFC00023F377E0022EF241F8021EF243B801CE1
:103F0C00EF245A8017EF24788012EF2497800DEF5E
:103F1C0024B58008EF24D48003EF24F3FFE433FEB0
:103F2C0022EF24118008EF24308003EF244EFFE4AD
:033F3C003401FE4F
:013F3F00225F
:10447B00759850438E9575D7D875D6FFD2ACD2AF01
:01448B00220E
:1042100090060EEBF0A3EAF0A3E9F090060EE0FBA7
:10422000A3E0FAA3E0F9121038601790060EA3E499
:1042300075F00112112DA9F0FA121038FF120000CA
:0342400080D92200
:06000300EFC4540FFF22C0
:0544F800EF540FFF224C
:01000A0022D3
:0544FD00EF2430FF2256
:1043DA001238B0EF75F00A84FEEF75F00A84AFF078
:0643EA00EEC454F04FFF89
:0143F00022AA
:10402400E4F5917592FF7F96FE1242EF7F031241F1
:10403400557F1E7E001242EF7F031241551242EB60
:104044007F031241551242EB7F021241557F017EDC
:10405400001242EF7F021241557F08124155E4FFDE
:104064001241557F0E124155E4FF1241557F06124D
:0940740041557F147E000242EF69
:103F400090044AEFF0D2C0C2B2E0FF5480C4131311
:103F500013540124FF92B7EF5440C41313540324A5
:103F6000FF92B6E0FF5420C413540724FF92B5EF2C
:103F70005410C4540F24FF92B4D2B37F017E0012B8
:103F800042EFC2B390044AE0FF5408131313541FC6
:103F900024FF92B7EF54041313543F24FF92B6E06A
:103FA000FF5402C31324FF92B5EF1392B41242E9F7
:053FB000C2B3C2C022F3
:10415500C2C0C2B2EF5408131313541F6004D2B780
:104165008002C2B7EF54041313543F6004D2B680E3
:1041750002C2B6EF5402C3136004D2B58002C2B5C1
:10418500EF30E004D2B48002C2B41242E9C2B322D5
:0642E900D2B37F0A7E0043
:1042EF00EF1FAA0670011E4A6013E4FCFDC3ED9494
:0D42FF0058EC940250EA0DBD00010C80F057
:01430C00228E
:10438A00EFC4540F4430FEEF540F44309003A8F0AA
:0D439A00AF06123F409003A8E0FF023F4035
:0A44DE00E4FF1241557F0202415530
:0A44E800E4FF1241557F0102415527
:10440700EF64014E70047F0880027F0C124155E46F
:05441700FF12415522D7
:10248D00C102C101C103C104C1804205FC00004568
:07249D00060068686D6D7315
:10436C00EF1FAA0670011E4A6013E4FCFDC3ED9416
:0D437C0058EC940250EA0DBD00010C80F0D9
:014389002211
:1032230053801E43801EE58044E19003AEF0E0F43A
:1032330070030233ADE58044E1F0E0F47003023340
:10324300AA5380DF4380C1E58044E1F0E0F46047A6
:103253009003AEE0FFF4600DA3EFF0E58044E1904E
:1032630003AEF080EB9003AFE02411602424F860F8
:103273001824FC600C24FE701E9003B07401F080CF
:10328300169003B07404F0800E9003B07407F080BE
:10329300069003B0740CF05380BF4380A1E58044D3
:1032A300E19003AEF0E0F460469003AEE0FFF4601B
:1032B3000DA3EFF0E58044E19003AEF080EB9003C3
:1032C300AFE02411602424F8601824FC600C24FE71
:1032D300701D9003B07402F080159003B07405F074
:1032E300800D9003B07408F08005E49003B0F053B0
:1032F300807F438061E58044E19003AEF0E0F460B9
:10330300479003AEE0FFF4600DA3EFF0E58044E1E6
:103313009003AEF080EB9003AFE02411602424F817
:10332300601824FC600C24FE701E9003B07403F03C
:1033330080169003B07406F0800E9003B07409F009
:1033430080069003B0740BF05380FE4380E0E58069
:1033530044E19003AEF0E0F460479003AEE0FFF485
:10336300600DA3EFF0E58044E19003AEF080EB90B5
:1033730003AFE02411602424F8601824FC600C24BB
:10338300FE701E9003B0740DF080169003B0740E9F
:10339300F0800E9003B0740FF080069003B07410A9
:0C33A300F09003B0E0FF227F64227F6402
:0133AF0022FB
:102DB2009005FFE09005FEF01232239005FFEFF040
:102DC200BF0E03D201229005FEE0FFB4640EA3E021
:102DD200B40F09300303C20322D203229005FFE09D
:102DE200FEB41006200203D20222EEB41006300214
:102DF20003C20222EFB4641FEEB40D1B900000E088
:102E02007002A3E06008E4900000F0A3F0229000BA
:102E120000E4F0A304F0229005FEE0646460030283
:102E22003051A3E0FF646470030230519005FCE06E
:102E3200FCA3E02400F58274063CF583EFF09005D4
:102E4200FDE004F070069005FCE004F09005FCE063
:102E52007004A3E064056003022FF09005FCF0A368
:102E6200F0900600E075F00AA4FFA3E0F97C002FC1
:102E7200FFEC35F0AD07FCA3E075F00AA4FFA3E078
:102E82007A002FFFEA35F0FEA3E0640B7036D3ED33
:102E92009418EC64809480502BEF943BEE64809401
:102EA200805021900600E0C454F0FFE94FFF7D06F8
:102EB2001243C2900602E0C454F0FFA3E04FFF7D2C
:102EC200051243C2900600E075F00AA4FFA3E07C5D
:102ED200002FFEEC35F09003AAF0A3CEF09006028C
:102EE200E075F00AA4FFA3E02FFEEC35F09003ACEE
:102EF200F0A3CEF0900604E0640C6003022FCA90A7
:102F020003AAE0FEA3E0FFD3940CEE648094804019
:102F120003022FCAEF9407EE6480948050517D0221
:102F22001210F7ED4C6016D39003ADE0941F90039E
:102F3200ACE0648094804003022FCA80699003AAA7
:102F4200E07004A3E064027013D39003ADE0941C1C
:102F52009003ACE064809480506E804AD39003ADBD
:102F6200E0941E9003ACE064809480505B803790C4
:102F720003AAE0FEA3E0FF7C007D021210F7ED4CF5
:102F82007013D39003ADE0941F9003ACE06480947F
:102F92008050358011D39003ADE0941E9003ACE0D5
:102FA200648094805022900600E0C454F0FFA3E0B5
:102FB2004FFF7D091243C2900602E0C454F0FFA302
:102FC200E04FFF7D071243C21244E87F08124155C9
:102FD200E4FF1241557F68123F407F68123F407FF5
:102FE2006D123F407F6D123F407F23123F40E490BD
:102FF20003A8F0A3F09005FCE0FEA3E0FFC390035A
:10300200A9E09FEE6480F89003A8E0648098503FA6
:10301200EF9404EE6480948050257F08124155900D
:1030220003A8A3E0FF1241559003A8E0FEA3E02409
:1030320000F58274063EF583E04430FF123F409073
:0F30420003A9E004F070AE9003A8E004F080A6AC
:01305100225C
:0C44C600759300759400E4F594F59322C2
:1024A4006028010B43340000433E00004348000011
:1024B40043520000435C0000436600004370000088
:1024C400437A00004382000043870000602800A094
:1024D40043340000432A0000432000004316000058
:1024E400430C00004302000042F0000042DC000004
:1024F40042C8000042B400006258013342EFA3D73F
:1025040042EF385242EDB33342ECC28F42EAE14823
:1025140042E8385242E03D7142D170A4429B75C3F7
:1025240042BEA8F642D5F0A442D5C7AE42D4333356
:1025340042D08F5C42CAD70A42C1F5C342B2947BEF
:102544004290051F41F428F6C2AC4CCD42BD051F94
:1025540042BC2E1442B9385242B3947B42AB947BB2
:10256400429C4CCD428338524221F5C3C17051EC98
:10257400C2DB385242A3E66642A2BD71429E3D715F
:10258400429675C3428ADC29426BD70A422B333305
:102594004143851FC22FAE14C2EEF5C3428A6B8538
:1025A4004288A8F642834CCD42728F5C4252CCCD15
:1025B4004221E14841AA51ECC130F5C3C27B28F65F
:1025C400C2F9947B425D47AE425A1EB8424E3D71F9
:1025D4004237D70A4214666641B95C293FF851EC88
:1025E400C1F228F6C2959EB8C2FC28F64227EB85B4
:1025F4004223B8524216333341FBD70A41A628F688
:1026040040CE6666C1770A3DC235147BC2A7333318
:10261400C2FECCCD41E28F5C41D7EB8541B9851F29
:1026240041830A3D40C1999AC112E148C1F370A4A3
:10263400C265D70AC2B6199AC2FFA8F64161999A2F
:10264400414E147B410CCCCD00000000C107AE14F8
:10265400C1BC28F6C22C147BC2884CCDC2C1CCCDDF
:10266400C2FEAE140000000000000000C0B800006C
:10267400C142E148C1B55C29C212851FC25AE14872
:10268400C299C28FC2CA9EB8C2FF75C3C162B85292
:10269400C170CCCDC1991EB8C1D2F5C3C210E148F6
:1026A400C242E148C282F0A4C2A7C7AEC2D22E146D
:1026B400C2FEFAE1C1E1D70AC1EC51ECC204EB85D8
:1026C400C21E70A4C240EB85C2705C29C295428FC1
:1026D400C2B5C28FC2D9428FC2FF147BC228851FE4
:1026E400C22C5C29C2397AE1C250A3D7C271666692
:1026F400C28D0A3DC2A56148C2C18F5CC2DF947B12
:10270400C2FF851FC25E147BC261999AC26F28F60C
:10271400C282051FC28F2E14C2A05C29C2B4C7AEE8
:10272400C2CBD1ECC2E551ECC2FFE666C28A199A6B
:10273400C28C47AEC290D1ECC2990F5CC2A461486E
:10274400C2B2947BC2C36148C2D5A3D7C2EA0F5CAC
:10275400C3000F5C603C00CF400CCCCD40DCCCCD42
:102764004139999A4182666641A8000041CD999AFF
:1027740041F33333420C6666421F33334232000066
:102784004244CCCD4257999A426A6666427D3333BD
:102794004288000060A00000C1E1D70AC1EC51ECFE
:1027A400C204EB85C21E70A4C240EB85C2705C29D2
:1027B400C295428FC2B5C28FC2D9428FC2FF147B69
:1027C400C228851FC22C5C29C2397AE1C250A3D722
:1027D400C2716666C28D0A3DC2A56148C2C18F5CE2
:1027E400C2DF947BC2FF851FC25E147BC261999ACB
:1027F400C26F28F6C282051FC28F2E14C2A05C29A4
:10280400C2B4C7AEC2CBD1ECC2E551ECC2FFE6669E
:10281400C28A199AC28C47AEC290D1ECC2990F5C9D
:10282400C2A46148C2B2947BC2C36148C2D5A3D7D3
:0C283400C2EA0F5CC3000F5C4100C8004A
:0A43A7001212BE9003C0E0547FFF25
:1043B100EFC4540FFEEF540FFFEE75F00AA42FFF68
:0143C10022D9
:014502002296
:10407D009000CE30071A7404F07B017A0079C912D2
:10408D003B097F027E0012436C9000CE74068018AF
:10409D007405F07B017A0079C9123B097F027E001D
:1040AD0012436C9000CE7407F07B017A0079C9122F
:0A40BD003B097F027E0012436C22D3
:0841950090045FEEF0A3EFF0CF
:10419D00E4A3F0A3F0900461F0A3F090045FE0FEBF
:1041AD00A3E0FFC3900462E09F900461E09E50176E
:1041BD00A206920712407D900462E004F070DC903C
:0741CD000461E004F080D45E
:0141D40022C8
:06429A0090045B1212BE4D
:1042A000E4FFFE7DF07C4290045BE0F8A3E0F9A31C
:1042B000E0FAA3E0FB120C06120E74A205920602AD
:0242C000419526
:10305200E0FCA3E0FDA3E0FEA3E0FF9005F4121262
:10306200BE9005D4E0FCA3E0FDA3E0FEA3E0FF9048
:1030720005F81212BE9005A8E0FCA3E0FDA3E0FE55
:03308200A3E0FFC9
:103085009005D81212BE9005ECE0FCA3E0FDA3E08C
:10309500FEA3E0FF9005DCE0F8A3E0F9A3E0FAA3C6
:1030A500E0FB120C069005F0E0F8A3E0F9A3E0FAC6
:1030B500A3E0FB120C06C004C005C006C0079005BE
:1030C500E8E0FCA3E0FDA3E0FEA3E0FF9005D8E067
:1030D500F8A3E0F9A3E0FAA3E0FB120C069005F8CB
:1030E500E0F8A3E0F9A3E0FAA3E0FB120C06D00395
:1030F500D002D001D000120B15C004C005C006C017
:10310500079005E4E0FCA3E0FDA3E0FEA3E0FF904B
:1031150005E0E0F8A3E0F9A3E0FAA3E0FB120C0652
:103125009005F4E0F8A3E0F9A3E0FAA3E0FB120CA4
:1031350006D003D002D001D000120B15C004C00583
:10314500C006C0079005E8E0FCA3E0FDA3E0FEA3F0
:10315500E0FF9005E0E0F8A3E0F9A3E0FAA3E0FBC7
:10316500120C069005F0E0F8A3E0F9A3E0FAA3E05D
:10317500FB120C06A804A905AA06AB07D007D006C2
:10318500D005D004120B11C004C005C006C00790BD
:1031950005E4E0FCA3E0FDA3E0FEA3E0FF9005DC71
:1031A500E0F8A3E0F9A3E0FAA3E0FB120C06900512
:1031B500F8E0F8A3E0F9A3E0FAA3E0FB120C06A8F7
:1031C50004A905AA06AB07D007D006D005D004127E
:1031D5000B11C004C005C006C0079005ECE0FCA3B8
:1031E500E0FDA3E0FEA3E0FF9005D8E0F8A3E0F939
:1031F500A3E0FAA3E0FB120C069005F4E0F8A3E0C7
:10320500F9A3E0FAA3E0FB120C06A804A905AA0697
:0E321500AB07D007D006D005D004120B112253
:102841009005981212BE9005B0E0FCA3E0FDA3E054
:10285100FEA3E0FF9005DC1212BE9005B4E0FCA3DC
:10286100E0FDA3E0FEA3E0FF9005E01212BE90059B
:10287100B8E0FCA3E0FDA3E0FEA3E0FF9005E412B5
:1028810012BE9005C0E0FCA3E0FDA3E0FEA3E0FFC3
:102891009005E81212BE9005C4E0FCA3E0FDA3E0A0
:1028A100FEA3E0FF9005EC1212BE9005C8E0FCA368
:1028B100E0FDA3E0FEA3E0FF9005F01212BE90053B
:1028C100D012305290059CE0F8A3E0F9A3E0FAA3FE
:1028D100E0FB120C06C004C005C006C0079005B09D
:1028E100E0FCA3E0FDA3E0FEA3E0FF9005DC1212F3
:1028F100BE9005B4E0FCA3E0FDA3E0FEA3E0FF90E1
:1029010005E01212BE9005BCE0FCA3E0FDA3E0FED1
:10291100A3E0FF9005E41212BE9005C0E0FCA3E025
:10292100FDA3E0FEA3E0FF9005E81212BE9005C4EE
:10293100E0FCA3E0FDA3E0FEA3E0FF9005EC121292
:10294100BE9005CCE0FCA3E0FDA3E0FEA3E0FF9078
:1029510005F01212BE9005D0E0FCA3E0FDA3E0FE5D
:10296100A3E0FF9005F41212BE9005D4E0FCA3E0B1
:10297100FDA3E0FEA3E0FF9005F81212BE9005ACA6
:1029810012307A900598E0F8A3E0F9A3E0FAA3E009
:10299100FB120C06D003D002D001D000120B11C0E3
:1029A10004C005C006C0079005ACE0FCA3E0FDA390
:1029B100E0FEA3E0FF9005DC1212BE9005B4E0FC3E
:1029C100A3E0FDA3E0FEA3E0FF9005E01212BE909C
:1029D10005B8E0FCA3E0FDA3E0FEA3E0FF9005E461
:1029E1001212BE9005BCE0FCA3E0FDA3E0FEA3E053
:1029F100FF9005E81212BE9005C4E0FCA3E0FDA320
:102A0100E0FEA3E0FF9005EC1212BE9005C8E0FCC9
:102A1100A3E0FDA3E0FEA3E0FF9005F01212BE903B
:102A210005CC1230529005A0E0F8A3E0F9A3E0FA3A
:102A3100A3E0FB120C06D003D002D001D000120B90
:102A410015C004C005C006C0079005ACE0FCA3E0BA
:102A5100FDA3E0FEA3E0FF9005DC1212BE9005B0DD
:102A6100E0FCA3E0FDA3E0FEA3E0FF9005E012126D
:102A7100BE9005B8E0FCA3E0FDA3E0FEA3E0FF905B
:102A810005E41212BE9005BCE0FCA3E0FDA3E0FE4C
:102A9100A3E0FF9005E81212BE9005C0E0FCA3E0A0
:102AA100FDA3E0FEA3E0FF9005EC1212BE9005C865
:102AB100E0FCA3E0FDA3E0FEA3E0FF9005F012120D
:102AC100BE9005CCE0FCA3E0FDA3E0FEA3E0FF90F7
:102AD10005F41212BE9005D01230669005A4E0F8FC
:102AE100A3E0F9A3E0FAA3E0FB120C06A804A905F0
:102AF100AA06AB07D007D006D005D004120B1122CD
:10398B0078637C047D017B017E007F08121012900E
:10399B00041AE0FCA3E0FDA3E0FEA3E0FF90046BA0
:0339AB001212BE37
:1039AE0090046BE0F8A3E0F9A3E0FAA3E0FB900427
:1039BE005BE0FCA3E0FDA3E0FEA3E0FF120B1112FF
:1039CE000E25C004C005C006C007900463E0F8A32E
:1039DE00E0F9A3E0FAA3E0FB90045BE0FCA3E0FDBA
:1039EE00A3E0FEA3E0FF120B11A804A905AA06ABE3
:1039FE0007D007D006D005D004120D0FC004C005A5
:103A0E00C006C007900467E0F8A3E0F9A3E0FAA3AC
:103A1E00E0FB90045FE0FCA3E0FDA3E0FEA3E0FF6B
:103A2E00120B11D003D002D001D000120C0690045C
:0F3A3E005FE0F8A3E0F9A3E0FAA3E0FB120B1599
:013A4D002256
:09000E009003BEEBF0AA05A9075E
:10001700E49003CAF0A3F0A3F0A3F0A31212CA005E
:100027000000009003D21212CA000000009003D60D
:100037001212CA000000009004261212CAC0A000C3
:10004700009004501212CAC2932E14900454121234
:10005700CA42360A3D90043E7407F0A374E3F0AF3A
:10006700011243B1A3E4F0A3EFF0AF021243B1A32F
:10007700E4F0A3EFF09003BEE0FF1243B1EF2405D5
:10008700FDE433FCE4120E3B9004441212BE9003CD
:10009700BFE0FF1243B1AC07E4120E4090044812D0
:1000A70043A7AC07E4120E4090044C1212BE900313
:1000B700C1E0FBA3E0FAA3E0F91211D89003CE1236
:1000C70012BE785B7C047D017B017A04793E7E0059
:1000D7007F12121012786D7C047D017B017A0479FE
:1000E700507E007F081210129004757401F0A374FB
:1000F70004F0A37458F0121CADE4FBFA793478438A
:10010700120C067BD07A0F79497840120D0F9004B4
:100117002A1212BE900443E024AFFF900442E03459
:10012700FFFE7C017D681210907D6D1210F7EF25A0
:10013700E0FDEE33FC120E3B7BD07A0F7949784015
:10014700120C06E4FBFA79347843120D0F12340EC1
:100157007B857AEB791D7841120C06C004C005C077
:1001670006C007E4FFFE7D707C41900426E0F8A3FB
:10017700E0F9A3E0FAA3E0FB120C06A804A905AA7C
:1001870006AB07900450E0FCA3E0FDA3E0FEA3E06C
:10019700FF120B11E4FBFA79807840120C06D003AA
:1001A700D002D001D000120B15C004C005C006C094
:1001B70007900443E024AFFF900442E034FFFE7C45
:1001C700017D681210907D6D1210F7AC06AD07EC3B
:1001D700120E3B7BD07A0F79497840120C06E4FB6C
:1001E700FA79347843120D0F1233F87BC37AF57915
:1001F700F07840120C06A804A905AA06AB07D00799
:10020700D006D005D004120B11C004C005C006C02B
:1002170007900443E024AFFF900442E034FFFE7CE4
:10022700017D681210907D6D1210F7AC06AD07ECDA
:10023700120E3B7BD07A0F79497840120C06E4FB0B
:10024700FA79347843120D0F12340EE4FBFA79C0B1
:10025700783F120C06A804A905AA06AB07D007D059
:1002670006D005D004120B11E4FBFA79707842121C
:100277000D0F9004221212BE9003BFE0FF1243B18C
:10028700AC07E4120E40E4FBFA79707842120D0FC6
:10029700C004C005C006C0079003BEE0FF1243B10B
:1002A700AC07E4120E40D003D002D001D000120BED
:1002B70015900422E0F8A3E0F9A3E0FAA3E0FB120B
:1002C7000B159004161212BE7FD07E0F7D497C401D
:1002D70090042AE0F8A3E0F9A3E0FAA3E0FB120CEC
:1002E70006E4FBFA79347843120D0F1233F8C00491
:1002F700C005C006C0077FD07E0F7D497C409004B3
:1003070054E0F8A3E0F9A3E0FAA3E0FB120C06E43B
:10031700FBFA79347843120D0F1233F8D003D00269
:10032700D001D000120C06C004C005C006C007E407
:10033700FFFE7D407CC1900416E0F8A3E0F9A3E03E
:10034700FAA3E0FB120B157BD37A7E793C78421235
:100357000C06E4FBFA79347843120D0F1233F8D008
:1003670003D002D001D000120C06C004C005C0069D
:10037700C0077FD07E0F7D497C4090042AE0F8A318
:10038700E0F9A3E0FAA3E0FB120C06E4FBFA7934E8
:100397007843120D0F12340EC004C005C006C00703
:1003A7007FD07E0F7D497C40900454E0F8A3E0F9AC
:1003B700A3E0FAA3E0FB120C06E4FBFA79347843D6
:1003C700120D0F12340ED003D002D001D000120C40
:1003D70006D003D002D001D000120B151241D57BF5
:1003E700ED7A2E79657842120C0690041E1212BE21
:1003F700E4FFFE7D407CC1900416E0F8A3E0F9A37A
:10040700E0FAA3E0FB120B157BD37A7E793C7842A6
:10041700120C06E4FBFA79347843120D0F12340EEE
:10042700C004C005C006C0077FD07E0F7D497C4051
:1004370090042AE0F8A3E0F9A3E0FAA3E0FB120C8A
:1004470006E4FBFA79347843120D0F1233F8D00320
:10045700D002D001D000120C06C004C005C006C0EF
:100467000790041EE0F8A3E0F9A3E0FAA3E0FBE499
:10047700FFFE7DB47C42120B117BD07A0F7949784D
:1004870040120C06E4FBFA79347843120D0F12344C
:100497000EA804A905AA06AB07D007D006D005D039
:1004A70004120D0F1241D57BED7A2E796578421231
:1004B7000C06E4FBFA79347843120B1590041A12F0
:1004C70043A7EF30E003020B0D7FCD7ECC7D0C7C84
:1004D7004090041EE0F8A3E0F9A3E0FAA3E0FB12C2
:1004E7000DAC5003020B0DE4FFFE7D887C429004A7
:1004F7001EE0F8A3E0F9A3E0FAA3E0FB120DAC605D
:10050700054003020B0DE49003CAF0A3F09003CA61
:10051700E0FEA3E0FFC3940AEE94004003020881C3
:10052700EF7802C333CE33CED8F9240FF5827401A6
:100537003EF583E0FCA3E0FDA3E0FEA3E0FF90040B
:100547001AE0F8A3E0F9A3E0FAA3E0FB120DAC6010
:100557000540030206CA9003CAE0FEA3E07802C37F
:1005670033CE33CED8F9240BF58274013EF583E000
:10057700FCA3E0FDA3E0FEA3E0FF90041AE0F8A3CC
:10058700E0F9A3E0FAA3E0FB120DAC50030206CAA0
:10059700E49003CCF0A3F09003CAE0FEA3E0780256
:1005A700C333CE33CED8F9FBAA06240BF5827401E8
:1005B7003AF583E0FCA3E0FDA3E0FEA3E0FF90048F
:1005C7002E1212BE740F2BF58274013AF583E0FCEC
:1005D700A3E0FDA3E0FEA3E0FF9004361212BE9055
:1005E70003CAE0FEA3E07802C333CE33CED8F9FBCB
:1005F700AA069003CCE0FEA3E090013375F0281221
:1006070012FBEE75F028A42583F583E5822BF5828E
:10061700E5833AF583E0FCA3E0FDA3E0FEA3E0FF5A
:100627009004321212BE9003CCE0FEA3E090013793
:1006370075F0281212FBEE75F028A42583F583E5E3
:10064700822BF582E5833AF583E0FCA3E0FDA3E086
:10065700FEA3E0FF90043A1212BE785B7C047D0192
:100667007B017A04792E7E007F081210127A0479B2
:100677003612398BC004C005C006C0079003CCE012
:10068700FEA3E07802C333CE33CED8F924DAF5825D
:1006970074033EF583D007D006D005D0041212BEEE
:1006A7009003CDE004F070069003CCE004F0C39013
:1006B70003CDE0940F9003CCE09400500302059E15
:1006C7000208709003CAE0FEA3E07802C333CE337A
:1006D700CED8F924A4F58274003EF583E0FCA3E0AC
:1006E700FDA3E0FEA3E0FF90041AE0F8A3E0F9A35E
:1006F700E0FAA3E0FB120DAC50030208709003CAA6
:10070700E0FEA3E07802C333CE33CED8F924A0F5B8
:100717008274003EF583E0FCA3E0FDA3E0FEA3E0C6
:10072700FF90041AE0F8A3E0F9A3E0FAA3E0FB12B4
:100737000DAC60054003020870E49003CCF0A3F011
:100747009003CAE0FEA3E07802C333CE33CED8F9D4
:10075700FBAA0624A0F58274003AF583E0FCA3E027
:10076700FDA3E0FEA3E0FF90042E1212BE74A42B9B
:10077700F58274003AF583E0FCA3E0FDA3E0FEA355
:10078700E0FF9004361212BE9003CAE0FEA3E078A1
:1007970002C333CE33CED8F9FBAA069003CCE0FED2
:1007A700A3E090013375F0281212FBEE75F028A430
:1007B7002583F583E5822BF582E5833AF583E0FC13
:1007C700A3E0FDA3E0FEA3E0FF9004321212BE9067
:1007D70003CCE0FEA3E090013775F0281212FBEE80
:1007E70075F028A42583F583E5822BF582E5833A06
:1007F700F583E0FCA3E0FDA3E0FEA3E0FF90043A4D
:100807001212BE785B7C047D017B017A0479367E07
:10081700007F081210127A04792E12398BC004C097
:1008270005C006C0079003CCE0FEA3E07802C333FF
:10083700CE33CED8F924DAF58274033EF583D00798
:10084700D006D005D0041212BE9003CDE004F0709C
:10085700069003CCE004F0C39003CDE0940F90031F
:10086700CCE0940050030207479003CBE004F070FC
:10087700069003CAE004F0020514E49003CAF0A34B
:10088700F09003CAE0FEA3E0FFC3940FEE9400408C
:10089700030209DEEF7802C333CE33CED8F924CF73
:1008A700F58274003EF583E0FCA3E0FDA3E0FEA320
:1008B700E0FF90041EE0F8A3E0F9A3E0FAA3E0FB51
:1008C700120DAC50030209CD9003CAE0FEA3E078F5
:1008D70002C333CE33CED8F924D3F58274003EF564
:1008E70083E0FCA3E0FDA3E0FEA3E0FF90041EE08D
:1008F700F8A3E0F9A3E0FAA3E0FB120DAC60054012
:10090700030209CD9003CAE0FEA3E07802C333CE09
:1009170033CED8F9FBAA0624CFF58274003AF583C3
:10092700E0FCA3E0FDA3E0FEA3E0FF90042E12127B
:10093700BE74D32BF58274003AF583E0FCA3E0FD87
:10094700A3E0FEA3E0FF9004361212BE9003CAE0B4
:10095700FEA3E07802C333CE33CED8F9FBAA062430
:10096700DAF58274033AF583E0FCA3E0FDA3E0FE29
:10097700A3E0FF9004321212BE74DE2BF5827403DB
:100987003AF583E0FCA3E0FDA3E0FEA3E0FF9004BB
:100997003A1212BE785B7C047D017B017A04792EC2
:1009A7007E007F0812101278637C047D017B017A38
:1009B7000479367E007F0812101290041E12399DAA
:1009C7009003D61212BE9003CBE004F0700690039A
:1009D700CAE004F0020888E4FFFE7D8E7C429003A3
:1009E700D6E0F8A3E0F9A3E0FAA3E0FB120B159019
:1009F70003C4E0F8A3E0F9A3E0FAA3E0FB120B15A8
:100A07009003CE1212BE9003C1E0FBA3E0FAA3E06D
:100A1700F912129E9003CEE0FCA3E0FDA3E0FEA333
:100A2700E0FF120B119003D21212BE9003D2E0FC2A
:100A3700A3E0FDA3E0FEA3E0FF120E741244D2ACC4
:100A470006AD07EC120E3BE4FBFAF9783F120DAC4A
:100A570060054003020B0DE4FFFE7D707CC190032F
:100A6700CEE0F8A3E0F9A3E0FAA3E0FB120DAC5047
:100A770003020B0DE4FFFE7D527C439003CEE0F8AA
:100A8700A3E0F9A3E0FAA3E0FB120DAC60025076F5
:100A9700E4FFFEFDFC9003D2E0F8A3E0F9A3E0FA3F
:100AA700A3E0FB120DAC601440129003D2E0FCA34C
:100AB700E0FDA3E0FEA3E0FFD205802BE4FFFEFDEF
:100AC700FC9003D2E0F8A3E0F9A3E0FAA3E0FB125D
:100AD7000DAC50169003D2E0FCA3E0FDA3E0FEA30B
:100AE700E0FF120E25C20512429A9003CEE0FCA346
:100AF700E0FDA3E0FEA3E0FF9003C1E0FBA3E0FA63
:060B0700A3E0F912122820
:010B0D0022C5
:101CAD00E4FBFA79707842900469E0FCA3E0FDA3AF
:101CBD00E0FEA3E0FF120D0F900465E0F8A3E0F93C
:101CCD00A3E0FAA3E0FB120B15E4FBFA797078425E
:101CDD00120D0F900461E0F8A3E0F9A3E0FAA3E080
:101CED00FB120B1590047C1212BE90045EE024F2E0
:101CFD00FF90045DE034FFFE7C007D0C1210F7EECA
:101D0D003395E0FDFC90049C1212BEE47F0CFEFDA9
:101D1D00FC90049CE0F8A3E0F9A3E0FAA3E0FB1229
:101D2D00117BA804A905AA06AB0790045EE024FE6A
:101D3D00FF90045DE034FFFE3395E0FDFCC3EF9BA7
:101D4D00FFEE9AFEED99FDEC98FCE47B6F7A01F9BC
:101D5D00F812117BE47B0CFAF9F8124111C004C0A2
:101D6D0005C006C00790045CE024C0FF90045BE052
:101D7D003412FE3395E0FDFC90049CE0F8A3E0F9ED
:101D8D00A3E0FAA3E02FFFEA3EFEE93DFDE83CFCAF
:101D9D00E47BB57A05F9F812117BE47B04FAF9F8C6
:101DAD00124111D003D002D001D000EF2BFFEE3A3B
:101DBD00FEED39FDEC38FCC004C005C006C007902F
:101DCD00045CE02424FF90045BE03413FE3395E0C3
:101DDD00FDFC90049CE0F8A3E0F9A3E0FAA3E02F4A
:101DED00FFEA3EFEE93DFDE83CFCE47B64FAF9F8D0
:101DFD00124111E47B03FAF9F812117BE47B04FA2A
:101E0D00F9F8124111A804A905AA06AB07D007D00D
:101E1D0006D005D004C3EF9BFBEE9AFAED99F9ECD1
:101E2D0098F890045FE0FEA3E0FFEE3395E0FDFC33
:101E3D00EB2FFFEA3EFEE93DFDE83CFCEF24B5FF4C
:101E4D00EE3482FEED34FFFDEC34FFFC9004A01265
:101E5D0012BE9004A0E0FCA3E0FDA3E0FEA3E0FF12
:101E6D00EC120E36E4FBFAF978BF120B15C004C064
:101E7D0005C006C007E4FBFA79C0784190047CE008
:101E8D00FCA3E0FDA3E0FEA3E0FF120D0FD003D0F5
:101E9D0002D001D000120B159004981212BE7F646F
:101EAD007EA17D157CCA900498E0F8A3E0F9A3E02B
:0D1EBD00FAA3E0FB120B159004781212BE80
:101ECA007F787E3E7D887C3A900478E0F8A3E0F93A
:101EDA00A3E0FAA3E0FB120C06A804A905AA06AB24
:101EEA00077F467E257D097C40120B119004A012C3
:101EFA0012BE7FDE7EEC7D8C7C3C900478E0F8A3F9
:101F0A00E0F9A3E0FAA3E0FB120C067B5B7AA47962
:101F1A009C7840120B159004981212BE7F257EEB16
:101F2A007D8C7C3C900478E0F8A3E0F9A3E0FAA366
:101F3A00E0FB120C067B927AAE79C77840120B1539
:101F4A0090049C1212BE90049CE0FCA3E0FDA3E066
:101F5A00FEA3E0FF12340E7B4A7ADF7908783D123D
:101F6A000C06900498E0F8A3E0F9A3E0FAA3E0FBDA
:101F7A00120B15C004C005C006C007E4FFFEFD7CB5
:101F8A004090049CE0F8A3E0F9A3E0FAA3E0FB1276
:101F9A000C0612340E7BEF7AF179B67839120C06F8
:101FAA00D003D002D001D000120B157B297AD17947
:101FBA00ED78B8120B15C004C005C006C00790041E
:101FCA00A0E0FCA3E0FDA3E0FEA3E0FF12340E7B39
:101FDA00EB7A4979AA7837120C06A804A905AA0649
:101FEA00AB07D007D006D005D004120B119004809D
:101FFA001212BE9004A0E0FCA3E0FDA3E0FEA3E061
:10200A00FF1233F87B2D7A1879267838120C06C01D
:10201A0004C005C006C0077FEC7E827DD57C319066
:10202A000478E0F8A3E0F9A3E0FAA3E0FB120C06B7
:10203A00A804A905AA06AB077F9D7E747DD17C3EC4
:10204A00120B11D003D002D001D000120B1590044C
:04205A00841212BE1C
:10205E00900480E0FCA3E0FDA3E0FEA3E0FF1234B9
:10206E000E9004981212BE900484E0FCA3E0FDA32F
:10207E00E0FEA3E0FF1233F8900498E0F8A3E0F935
:10208E00A3E0FAA3E0FB120C069004901212BE908D
:10209E000480E0FCA3E0FDA3E0FEA3E0FF1233F812
:1020AE009004941212BE900494E0FCA3E0FDA3E011
:1020BE00FEA3E0FF9004BC1212BE900490E0FCA3BD
:1020CE00E0FDA3E0FEA3E0FF123C62900488121232
:1020DE00BEE4FFFEFDFC900488E0F8A3E0F9A3E067
:1020EE00FAA3E0FB120DAC501F900488E0FCA3E0B5
:1020FE00FDA3E0FEA3E0FF7BD07A0F79C9784012F2
:10210E000B159004881212BE900484E0FCA3E0FD2F
:10211E00A3E0FEA3E0FF12340E900498E0F8A3E0D3
:10212E00F9A3E0FAA3E0FB120C061241D590048C41
:03213E001212BEBC
:102141007FE07E927D867C3D900478E0F8A3E0F903
:10215100A3E0FAA3E0FB120C067B4D7A5179D67805
:1021610040120B1590047CE0F8A3E0F9A3E0FAA378
:10217100E0FB120B159004981212BEE4FFFE7D7075
:102181007C41900498E0F8A3E0F9A3E0FAA3E0FB16
:10219100120C0690046DE0F8A3E0F9A3E0FAA3E0C5
:1021A100FB120B157B2E7AFA798E783C120C069075
:1021B100049C1212BE900488E0F8A3E0F9A3E0FAAF
:1021C100A3E0FB90049CE0FCA3E0FDA3E0FEA3E000
:1021D100FF120B119004A41212BE7F2E7EFA7D8E87
:1021E1007C3C900471E0F8A3E0F9A3E0FAA3E0FBE2
:1021F100120C069004A01212BE9004A0E0FCA3E011
:10220100FDA3E0FEA3E0FF1233F89004A81212BE72
:102211009004A0E0FCA3E0FDA3E0FEA3E0FF1234E4
:102221000E9004AC1212BE9004A4E0FCA3E0FDA346
:10223100E0FEA3E0FF1233F89004B01212BE900446
:102241008CE0FCA3E0FDA3E0FEA3E0FF1233F8C0A5
:1022510004C005C006C0079004B0E0FCA3E0FDA3E4
:10226100E0FEA3E0FF9004A8E0F8A3E0F9A3E0FA00
:10227100A3E0FB120C06D003D002D001D000120C57
:1022810006C004C005C006C00790048CE0FCA3E0B2
:10229100FDA3E0FEA3E0FF12340E9004ACE0F8A32E
:1022A100E0F9A3E0FAA3E0FB120C06D003D002D0C0
:1022B10001D000120B151240C7900475E0FBA3E09A
:1022C100FAA3E0F91212289004A4E0FCA3E0FDA314
:1022D100E0FEA3E0FF12340E120E259004901212BC
:1022E100BE90048CE0FCA3E0FDA3E0FEA3E0FF129E
:1022F100344A9004A8E0F8A3E0F9A3E0FAA3E0FBD4
:10230100120C06C004C005C006C0079004B0E0FC72
:10231100A3E0FDA3E0FEA3E0FF9004ACE0F8A3E09E
:10232100F9A3E0FAA3E0FB120C06A804A905AA068A
:10233100AB07D007D006D005D004120B119004943E
:102341001212BE900494E0FCA3E0FDA3E0FEA3E022
:10235100FF9004BC1212BE900490E0FCA3E0FDA328
:10236100E0FEA3E0FF123C62900475E0FBA3E0FAFB
:10237100A3E0F99000041212429000041211F8E453
:10238100FBFAF9F8120DAC602F402D900475E0FBBB
:10239100A3E0FAA3E02404F9E43AFAC003C002C0BE
:1023A100011211D87BD07A0F79C97840120B15D060
:1023B10001D002D003121228900475E0FBA3E0FAC9
:1023C100A3E02404F9E43AFAC003C002C0011211E7
:1023D100D87B2E7AFA798E783C120D0FD001D0027B
:1023E100D003121228900475E0FBA3E0FAA3E0F9F0
:1023F1001211D812340E7B0D7AA079327838120C72
:10240100069004B41212BE900475E0FBA3E0FAA397
:10241100E0F91211D89004B4E0F8A3E0F9A3E0FACE
:10242100A3E0FB120B157B2E7AFA798E783C120D04
:0F2431000F900475E0FBA3E0FAA3E0F912122864
:0E24400090048CE0FCA3E0FDA3E0FEA3E0FF0F
:01244E00226B
:10434D00C2A4C2A5C2A64391015392FEE4F59743C0
:0F435D009D05F5BDF5BE75BC807F02FE0242EFE7
:10424300EF4488F5BC00000000E5BC30E4FB53BC40
:10425300EFAFBD7E00ADBE7C00EF7802C333CE333B
:0B426300CED8F9FFED5403FDEF4DFF36
:01426E00222D
:103A4E00E49003D2F0A3F09003D0F0A3F09003D251
:103A5E00A3E0FF124243AC06AD079003D1E025E090
:103A6E00FF9003D0E033FE74BC2FF58274033EF555
:103A7E0083ECF0A3EDF09003D1E004F07006900318
:103A8E00D0E004F0C39003D1E0940A9003D0E06438
:103A9E0080948040B89003D0E4F0A304F09003D05B
:103AAE00E0FEA3E0FFD39409EE648094805047EFCC
:103ABE0025E0FFEE33FE74BC2FF58274033EF583D2
:103ACE00E0FEA3E0FF9003BCE0FCA3E0FDC3EF9D8E
:103ADE00FFEE9CFE1244D2D3EF941EEE64809480CF
:103AEE004004E4FEFF229003D1E004F070AF900397
:0A3AFE00D0E004F080A77E007F01F5
:013B0800229A
:0B2B01009003BCEBF0A3EAF0A3E9F0A6
:102B0C00E4A3F0A31212CA3F000000E490043EF0CC
:102B1C00A3F090043EE0FEA3E0FFC3943CEE64807F
:102B2C0094805025EF25E0FFEE33FE74C42FF58220
:102B3C0074033EF583E4F0A3F090043FE004F070DE
:102B4C00D190043EE004F080C9E490043EF0A3F080
:102B5C007F02124243C3EE940240649003C0E0FC37
:102B6C00A3E0FDA3E0FEA3E0FFD20512429A90037E
:102B7C00BCE0FBA3E0FAA3E0F9C003C002C0011261
:102B8C0011D8E4FBFAF9783F120B15D001D002D022
:102B9C00031212289003BFE0FF124243AC06AD07AC
:102BAC0090043FE025E0FF90043EE033FE74C42F18
:102BBC00F58274033EF583ECF0A3EDF0022C8390C8
:102BCC00043EE0FEA3E0FFD3941DEE64809480509D
:102BDC0020C3741E9FFDE49EFC120E3B9003C0E0CC
:102BEC00F8A3E0F9A3E0FAA3E0FB120C06D20580EF
:102BFC002490043FE024E2FD90043EE034FFFC12FC
:102C0C000E3B9003C0E0F8A3E0F9A3E0FAA3E0FBCD
:102C1C00120C06C20512429A9003BCE0FBA3E0FA28
:102C2C00A3E0F9C003C002C0011211D8C004C00552
:102C3C00C006C00790043EE0FEA3E0FFC3741E9FD5
:102C4C00FDE49EFC120E3B9003C0E0F8A3E0F9A358
:102C5C00E0FAA3E0FB120C06A804A905AA06AB0730
:102C6C00D007D006D005D004120B15D001D002D05D
:102C7C0003121228022D0B7F081241557F051241B9
:102C8C00557F41123F407F44123F407F43123F40EB
:102C9C007F3A123F4090043FE025E0FF90043EE075
:102CAC0033FE74C42FF58274033EF583E0FCA3E07D
:102CBC00FDE4120E3BE4FBFA79807844120D0FE42C
:102CCC00FBFA79A07840120C061235387F56123F69
:102CDC00407F10123F407FDC7E051242EF90043F94
:102CEC00E004F0700690043EE004F0C390043FE072
:102CFC00943C90043EE0648094805003022B5C90E2
:102D0C00043EE07004A3E0643C6003022DB17B013F
:102D1C007A0379C4123CFF90043CEEF0A3EFF0C3AD
:102D2C00743B9FFDE49EFCE4120E3B9003C0E0F864
:102D3C00A3E0F9A3E0FAA3E0FB120C06C2051242D1
:102D4C009A9003BCE0FBA3E0FAA3E0F9C003C00235
:102D5C00C0011211D8C004C005C006C00790043CC5
:102D6C00E0FEA3E0FFC3743B9FFDE49EFCE4120E67
:102D7C003B9003C0E0F8A3E0F9A3E0FAA3E0FB1258
:102D8C000C06A804A905AA06AB07D007D006D005E7
:102D9C00D004120B11D001D002D0031212287FF4F0
:052DAC007E011242EF60
:012DB10022FF
:103CFF00E4FDFC900440F0A3741DF0E4A3F0A3F0E6
:103D0F00900442E0FEA3E0FFD3943BEE9400507387
:103D1F00EF25E0FFEE338F82F583121143FFD3EDD2
:103D2F009FEC95F04006AE04AF058016900443E07B
:103D3F0025E0FF900442E0338F82F583121143FF99
:103D4F00AEF0AC06AD07900443E025E0FF900442CF
:103D5F00E0338F82F583121143B50516ECB5F012DF
:103D6F004D600F900442E0FFA3E0900440CFF0A31A
:103D7F00EFF0900443E004F07086900442E004F00A
:0B3D8F00023D0F900440E0FEA3E0FFA7
:013D9A002206
:0B37CC009003A8EFF0A3EDF0A3EBF0DA
:1037D7009003B01212CA000000009003ADE0FBA3F3
:1037E700E0FAA3E0F91211D89003B81212BE123A08
:1037F7004EEF4E70030238AA9003ABE09003BFF080
:103807009003ACE09003C0F0A37401F0A37403F03D
:10381700A374B8F0A31212CAC17000009003AAE003
:10382700FB9003A9E0FD9003A8E0FF12000EE4FF60
:10383700FE7D707C419003B8E0F8A3E0F9A3E0FABD
:10384700A3E0FB120B159003B41212BE7B017A039F
:1038570079B8122B019003B4E0F8A3E0F9A3E0FADA
:10386700A3E0FBA3E0FCA3E0FDA3E0FEA3E0FF12BF
:103877000B119003B01212BE9003B8E0FCA3E0FD59
:10388700A3E0FEA3E0FF9003ADE0FBA3E0FAA3E013
:10389700F91212289003B0E0FCA3E0FDA3E0FEA319
:0838A700E0FF22E4FFFEFDFC3E
:0138AF0022F6
:0D426F007F027E0012427CD2CC7F027E00D6
:10427C00EF1FAA0670011E4A6013E4FCFDC3ED9407
:0D428C0009EC940050EA0DBD00010C80F01B
:014299002202
:014503002295
:0F448C00D2CCD2C7124278C2C7124278C2CC2219
:10441C00C2CCC2C7124278D2CCC2C77F047E001273
:05442C00427CD2C72212
:1043F100E425E0FBC2CC12427830C704EB4401FB58
:05440100124276AF033A
:014406002293
:0544F20012426FC2CC74
:0144F70022A2
:0E449B00C2CCD2C712426FC2CC124278C2C746
:0144A90022F0
:0542C200F9121051FF8C
:0242C700A90745
:1042C900E4FBC2CCE930E704D2C78002C2C712427C
:0F42D90078D2CCE925E0F91242780BEBB408E378
:0142E80022B3
:103B0900900463EBF0A3EAF0A3E9F012448C7F017F
:103B19007E0012427C7F401242C71243F1EF7012BD
:103B2900900463E0FBA3E0FAA3E0F9121038FF1256
:103B390042C71243F1EF7010900463E0FBA3E0FA6F
:103B4900A3E09000011242C21243F1EF70109004F9
:103B590063E0FBA3E0FAA3E09000021242C2124321
:103B6900F1EF7011900463E0FBA3E0FAA3E0F99090
:103B790000031242C31243F1EF7011900463E0FB9A
:103B8900A3E0FAA3E0F99000041242C31243F1EF53
:103B99007011900463E0FBA3E0FAA3E0F99000053B
:0D3BA9001242C31243F1EF700312441C22BC
:03000000023E308D
:0C3E3000787FE4F6D8FD758121023E7712
:100B0E00020EE0E86480F8E933E83360110460F027
:100B1E00ED33EC337009E8FCE9FDEAFEEBFF22044D
:100B2E0060DED3EB9FEA9EE99DE8C2E78CF0C2F748
:100B3E0095F0400CE8CCF8E9CDF9EACEFAEBCFFB14
:100B4E00120EAB85D0F05804700320D5B3E80470B4
:100B5E00075002B2D5020EEA92D5EC0460F7E4CC4F
:100B6E00C0E0C398F8603B94186008400DD0E0FBDD
:100B7E00020EC2E4FBFAC9FC8028E830E406E4C9A0
:100B8E00FBE4CAFCE830E305E4C9CACBFCE8540731
:100B9E006010F8C3E913F9EA13FAEB13FBEC13FC3C
:100BAE00D8F130F52FC3E49CFCEF9BFFEE9AFEEDDF
:100BBE0099FDD0E0FBEF4E4D4C701222DB03020E7E
:100BCE00E7EC2CFCEF33FFEE33FEED33FDED30E7BB
:100BDE00EB020EC2EF2BFFEE3AFEED39FDD0E0FB3D
:100BEE0050130BBB0003020EEAED13FDEE13FEEFE6
:080BFE0013FFEC13FC020EC210
:100C0600EC4D6011E8497017ED33EC3304600DE4E8
:100C1600FCFFFEFD22E933E8330470F8020EE01211
:100C26000EAB58046009E4CC248150062850090212
:100C36000EEA284003020EE7C0E0EB4A7044B98092
:100C460006D0E0FB020ED6EF4E701CBD8008EBFF0F
:100C5600EAFEE9FD80EBE98DF0A4FEE5F0020CEF7B
:100C6600E9CDF9EAFEEBFFEF89F0A4FCE5F0CE89C9
:100C7600F0A42EFFE435F0CD89F0A42DFEE435F086
:100C86008067EF4E7005BD80D780C3EF8BF0A4ACB4
:100C9600F0EE8BF0A42CFCE435F0F8EF8AF0A42CEF
:100CA600E5F038FCE433CB8DF0A42CFCE5F03BF802
:100CB600EE8AF0A42CFCE5F038F8E433CF89F0A4F2
:100CC6002CFCE5F038CF3400CE89F0A42FFFE5F0F8
:100CD6003EFEE433C98DF0A42EFEE5F039CD8AF050
:100CE600A42FFFE5F03EFEE43DFD33D0E0FB5007C8
:100CF6000BBB000F020EEAEC2CFCEF33FFEE33FECB
:060D0600ED33FD020EC2F8
:100D0C00020EEAEC5D046005E859047003020EE083
:100D1C00120EAB580460F6EC4860F2EC7004FDFE69
:100D2C00FF22C860DB2481C85009C39860025006BA
:100D3C00020EE79850CAF582E9294B4A7005AB823E
:100D4C00020ED675F0007C1A7880C3EF9BEE9AEDFC
:100D5C0099400DC3EF9BFFEE9AFEED99FDE842F032
:100D6C00DC23ACF0D0E0FFD0E0FED0E0FDAB822085
:100D7C00E7101BEB60BAEC2CFCEF33FFEE33FEED0F
:100D8C0033FD020EC2E803F830E705C0F075F00041
:100D9C00EF2FFFEE33FEED33FD40B830E7C280AAF3
:100DAC0074F8CC6480CCC86480C8F58204604FC3EE
:100DBC00EB9FF5F0EA9E42F0E99D42F0E89C45F08D
:100DCC00603C501DE5825FFFE582D313CB5BCBF417
:100DDC002B5582FB50280ABA002409B90020088040
:100DEC001DE5825BFBE582D313CF5FCFF4C3132FDA
:100DFC005582FF50090EBE00050DBD00010CC3EB62
:100E0C009FF5F0EA9E42F0E99D42F0E89C45F060C7
:090E1C0007CC4820E701B3EC22E9
:100E2500ED33EC33600A047003BD8004ECB2E7FCDB
:010E3500229A
:100E360075F020800E75F010800575F0087D007E37
:100E4600007F003392D530D5031211CAEC3340101F
:100E5600EF33FFEE33FEED33FDEC33FCD5F0ED2240
:0E0E6600E5F0247EA2D513CC92E7CDCEFF227C
:100E7400EDD2E7CD33EC3392D524814006E4FFFE76
:100E8400FDFC22FCE4CFCECDCC24E0501174FF80D5
:100E9400EDC3CC13CCCD13CDCE13CECF13CF047072
:070EA400F030D5DE0211CA97
:103C62009004B81212BE9004BCE0F8A3E0F9A3E0FD
:103C7200FAA3E0FB9004B8E0FCA3E0FDA3E0FEA3FE
:103C8200E0FF120D0F1236CA9004B81212BE900451
:103C9200BCE030E7599004B8E0FCA3E0FDA3E0FEED
:103CA200A3E0FFECC0E0EDC0E0EEC0E0EFC0E0E476
:103CB200FFFEFDFC9004B8E0F8A3E0F9A3E0FAA34C
:103CC200E0FB120DAC7BDB600250087A0F79497879
:103CD2004080067A0F794978C0D0E0FFD0E0FED06C
:103CE200E0FDD0E0FC120B159004B81212BE900455
:0D3CF200B8E0FCA3E0FDA3E0FEA3E0FF228C
:1033B0003A70FA83BCAAE9E43E81E0F8BF9DE9E6F1
:1033C0003F80000039283C1ABB9969663DA335E36C
:1033D000BF255DE73FC90FDB418DDBCCC44936EE2D
:1033E00045C9913FC5B0F83D3F800000C317F53493
:1033F000452FFA73C60AFDDD1234B904A2E1920525
:103400001420E0159033B07404120EF5803012349D
:10341000B930E102B20520E0EBA883A9829004B89C
:103420001212BE898288839033C47404120EF5850B
:1034300082F09004B812128285F082120C06ED4CD4
:103440006007300504EC6480FC221234B9C0E0A8A7
:1034500083A9829004B81212BE898288839033E8CF
:103460007403120EF58582F09004B812128285F072
:1034700082120C069004B8E0CCF0A3E0CDF0A3E0FB
:10348000CEF0A3E0CFF09033D87403120EF5D082C3
:103490008582F09004B812128285F082E58230E0D5
:1034A00007120D0FB2058096EFCBFFEECAFEEDC9F5
:1034B000FDECC8FC120D0F8085ED33EC547FCC334E
:1034C000920524605007D0E0D0E0020EE07B837AC2
:1034D000F97922783E120C06EDF933ECF8332481A9
:1034E0005011EFFBEEFA120E74120E36ECB2E7FC3E
:1034F000120B15ED33EC33602F2403F8C313FCEDEE
:1035000092E7FDE82481E4501FECF8EDF9EEFAEFC4
:10351000FB120E74EF04C2E0FCF582120E40ECB216
:10352000E7FC120B15E58203FAED33EC3360071468
:0835300013FCED92E7FDEA2215
:1040C700ECC0E0F8EDC0E0F9EEC0E0FAEFC0E0FBCD
:1040D700120C06EC6480FC7B007A007980783F1232
:1040E7000B15123BBAD0E0FBD0E0FAD0E0F9D0E0F4
:1040F700F8C0E0120D0F1236CAD0E030E70B784057
:0A41070079497A0F7BD9120B1522BB
:1041D500ECC0E0F8EDC0E0F9EEC0E0FAEFC0E0FBBE
:1041E500120C06EC6480FC7B007A007980783F1223
:1041F5000B15123BBAD0E0CFFBD0E0CEFAD0E0CD24
:0B420500F9D0E0CCF8120D0F0236CA11
:100EAB00E9D2E7C933E833F892D5EDD2E7CD33EC8D
:070EBB0033FC5002B2D52206
:100EC200EC30E7100FBF000C0EBE00080DBD000491
:100ED2000BEB6014A2D5EB13FCED92E7FD2274FF3D
:100EE200FCFDFEFF22E480F8A2D574FF13FC7D8096
:030EF200E480EFAA
:100EF500C0E0EFFBEEFAEDF9ECF8120C06D0E0F5E8
:100F0500F0EFFBEEFAEDF9ECF8121272A3A3A3A32E
:100F1500E8C0E0E9C0E0EAC0E0EBC0E0C0F0120CD8
:100F25000612128EA3A3A3A3120B15D0F0D0E0FBDB
:0D0F3500D0E0FAD0E0F9D0E0F8D5F0D422F9
:103BB600020EE022EDA2E7D2E7F9EC3340F260F321
:103BC600B4FF08ED547F70E8020EEAF82481C2E0E3
:103BD600C0E0F40428FAC313FCED92E7FD9004B8A4
:103BE6001212BEEEA2E7E9BA7F02C31334009400B4
:103BF600FA75F091A4E5F013F494FE8AF0A433E587
:103C0600F033248CD313FDE492E7FE7F007C3F75EE
:103C16008302ECC0E0F8EDC0E0F9EEC0E0FAEFC0D8
:103C2600E0FB8583F09004B812126685F083120DCE
:103C36000FD0E0FBD0E0FAD0E0F9D0E0F8120B1597
:103C4600ED6480FD30E7011CD583C7ED33CC33F836
:0C3C5600D0E0A2E71328C313CC13FD221A
:1036AA00BE1249253E4CCCCDBEAAAAAB3F80000033
:1036BA003E7ADBB03EED63383F24BC7D3F490FDBE9
:1036CA00ED33ECC2E7CC339205B4FF13ED547F60BF
:1036DA0003020EE07FDB7E0F7DC97C3F0237BFC24B
:1036EA0006C3947F401E7007EDD2E794904015EF11
:1036FA00FBEEFAEDF9ECF87F007E007D807C3F124C
:10370A000D0FD206ED33EC33248430E705E4C0E034
:10371A00806B04FAEDD2E754F0C333DAFD54073470
:10372A00002323C0E0CCC0E0F8EDC0E0F9EEC0E031
:10373A00FAEFC0E0FBE4120E40EC24FEFC9004C059
:10374A001212BE120C067B007A007980783F120BA7
:10375A00159004C0E0B2E7CCF0A3E0CDF0A3E0CE30
:10376A00F0A3E0CFF0D0E0FBD0E0FAD0E0F9D0E06F
:10377A00F8120B159004C0121282120D0F9004C099
:10378A001212BE9036AA7403120EF59004C01212D9
:10379A0082120C06D0E0600F24B6F582E43436F5C6
:1037AA008312128E120B1530060B7BDB7A0F79C946
:1037BA0078BF120B15ED33EC336006ECA20592E7E5
:0237CA00FC22DF
:103E3C00021435E493A3F8E493A34003F68001F253
:103E4C0008DFF48029E493A3F85407240CC8C33387
:103E5C00C4540F4420C8834004F456800146F6DF56
:103E6C00E4800B010204081020408090244FE47E73
:103E7C00019360BCA3FF543F30E509541FFEE4934B
:103E8C00A360010ECF54C025E060A840B8E493A312
:103E9C00FAE493A3F8E493A3C8C582C8CAC583CA3D
:103EAC00F0A3C8C582C8CAC583CADFE9DEE780BEF5
:012840000097
:100F4200E709F608DFFA8046E709F208DFFA803E91
:100F520088828C83E709F0A3DFFA8032E309F6087E
:100F6200DFFA8078E309F208DFFA807088828C83E6
:100F7200E309F0A3DFFA806489828A83E0A3F6089A
:100F8200DFFA805889828A83E0A3F208DFFA804C74
:100F920080D280FA80C680D4806980F2803380104B
:100FA20080A680EA809A80A880DA80E280CA8033B4
:100FB20089828A83ECFAE493A3C8C582C8CCC5832C
:100FC200CCF0A3C8C582C8CCC583CCDFE9DEE780FC
:100FD2000D89828A83E493A3F608DFF9ECFAA9F07B
:100FE200EDFB2289828A83ECFAE0A3C8C582C8CCD1
:100FF200C583CCF0A3C8C582C8CCC583CCDFEADEEA
:10100200E880DB89828A83E493A3F208DFF980CC4B
:1010120088F0EF60010E4E60C388F0ED2402B40444
:101022000050B9F582EB2402B4040050AF232345EB
:061032008223900F92736F
:10103800BB010689828A83E0225002E722BBFE02B6
:09104800E32289828A83E49322E9
:10105100BB010CE58229F582E5833AF583E0225054
:1010610006E92582F8E622BBFE06E92582F8E2229E
:0D107100E58229F582E5833AF583E49322B8
:10107E00BB010689828A83F0225002F722BBFE0151
:02108E00F3224B
:10109000EF8DF0A4A8F0CF8CF0A428CE8DF0A42E74
:0210A000FE222E
:1010A200BC000BBE0029EF8DF084FFADF022E4CC32
:1010B200F875F008EF2FFFEE33FEEC33FCEE9DECFB
:1010C200984005FCEE9DFE0FD5F0E9E4CEFD22ED41
:1010D200F8F5F0EE8420D21CFEADF075F008EF2F8B
:1010E200FFED33FD4007985006D5F0F222C398FD7C
:0510F2000FD5F0EA2219
:1010F700C2D5EC30E709B2D5E4C39DFDE49CFCEE14
:1011070030E715B2D5E4C39FFFE49EFE1210A2C3D9
:10111700E49DFDE49CFC80031210A230D507C3E4D4
:061127009FFFE49EFE2282
:10112D00A3F8E0C5F025F0F0E58215827002158375
:06113D00E0C838F0E822D2
:10114300BB0110E58229F582E5833AF583E0F5F0EA
:10115300A3E0225009E92582F886F008E622BBFEC7
:101163000AE92582F8E2F5F008E222E5832AF5830D
:08117300E993F5F0A3E99322D2
:10117B00E88FF0A4CC8BF0A42CFCE98EF0A42CFC13
:10118B008AF0EDA42CFCEA8EF0A4CDA8F08BF0A491
:10119B002DCC3825F0FDE98FF0A42CCD35F0FCEBF0
:1011AB008EF0A4FEA9F0EB8FF0A4CFC5F02ECD39B5
:0F11BB00FEE43CFCEAA42DCE35F0FDE43CFC2222
:10411100C2D5E830E70FB2D5E4C39BFBE49AFAE4D9
:1041210099F9E498F8EC30E717B2D5124147121328
:1041310059E4C39BFBE49AFAE499F9E498F8800303
:1041410012135930D50DE4C39FFFE49EFEE49DFD9B
:04415100E49CFC22CC
:0E11CA00C3E49FFFE49EFEE49DFDE49CFC2236
:1011D800BB010789828A830212665005E9F8021367
:1011E800EBBBFE05E9F80213F789828A83021272C3
:1011F800BB010DE58229F582E5833AF58302126683
:101208005007E92582F80213EBBBFE07E92582F8AF
:101218000213F7E58229F582E5833AF58302127213
:10122800BB010789828A830212BE5005E9F80214BD
:0A1238001DBBFE05E9F8021429228F
:10124200BB010DE58229F582E5833AF5830212BEE0
:101252005007E92582F802141DBBFE07E92582F832
:041262000214292227
:0C126600E0FCA3E0FDA3E0FEA3E0FF22FB
:10127200E493FC740193FD740293FE740393FF22C2
:0C128200E0F8A3E0F9A3E0FAA3E0FB22EF
:10128E00E493F8740193F9740293FA740393FB22B6
:10129E00BB010789828A830212825005E9F8021483
:1012AE0003BBFE05E9F802141089828A8302128EAE
:0C12BE00ECF0A3EDF0A3EEF0A3EFF022A3
:1012CA00A8828583F0D083D0821212E11212E11231
:1012DA0012E11212E1E473E493A3C583C5F0C58356
:1012EA00C8C582C8F0A3C583C5F0C583C8C582C86E
:0112FA0022D1
:0C12FB00A42582F582E5F03583F58322FE
:0C44D200EE30E707C3E49FFFE49EFE22EB
:1038B000900605EBF0A3EAF0A3E9F0900605E0FB23
:1038C000A3E0FAA3E0F9121038FF124445500C901F
:1038D0000606E475F00112130780E0D20990060590
:1038E000E0FBA3E0FAA3E0F9121038FF642B6004B8
:1038F000EFB42D1D900605E0FBA3E475F001121155
:103900002DA9F0FA121038642D6003D38001C39200
:1039100009E4900608F0A3F0900605E0FBA3E0FAA6
:10392000A3E0F9121038FF1244AA5042900605E0B5
:10393000FBA3E0FAA3E0F9121038FF3395E0FEEFA5
:1039400024D0FBEE34FFFA900608E0FEA3E0FF7CF3
:10395000007D0A121090EF2BFFEE3A900608F0A3BC
:10396000EFF0900606E475F00112130780AA300903
:103970000A900608E0FEA3E0FF800F900608E0FE34
:0B398000A3E0FFC3E49FFFE49EFE22D3
:10130700C5F0F8A3E028F0C5F0F8E5821582700271
:061317001583E038F0220E
:10131D0075F008758200EF2FFFEE33FECD33CDCC87
:10132D0033CCC58233C5829BED9AEC99E58298400A
:10133D000CF582EE9BFEED9AFDEC99FC0FD5F0D6E7
:10134D00E4CEFBE4CDFAE4CCF9A88222B800C1B911
:10135D000059BA002DEC8BF084CFCECDFCE5F0CB4F
:10136D00F97818EF2FFFEE33FEED33FDEC33FCEB88
:10137D0033FB10D703994004EB99FB0FD8E5E4F943
:10138D00FA227818EF2FFFEE33FEED33FDEC33FC30
:10139D00C933C910D7059BE99A4007EC9BFCE99A24
:1013AD00F90FD8E0E4C9FAE4CCFB2275F010EF2F69
:1013BD00FFEE33FEED33FDCC33CCC833C810D70769
:1013CD009BEC9AE899400AED9BFDEC9AFCE899F8A4
:0E13DD000FD5F0DAE4CDFBE4CCFAE4C8F92237
:0C13EB00E6FC08E6FD08E6FE08E6FF222E
:0C13F700E2FC08E2FD08E2FE08E2FF2232
:0D140300E6FB08E6F908E6FA08E6CBF82259
:0D141000E2FB08E2F908E2FA08E2CBF8225C
:0C141D00ECF608EDF608EEF608EFF622FB
:0C142900ECF208EDF208EEF208EFF222FF
:0F44AA00EFC394304007EF943A50028001C322D1
:10444500EFC394094005EF940E4004EFB42003D365
:044455008001C322FD
:00000001FF
