:1023680043057F6868004305826D6D0042052100C2
:10237800004205920000420578000042057C0000FA
:1023880044051C68686D6D4405890000000041051E
:0E239800201E4204C000004404C468686D6D3D
:03000B00020009E7
:0100090032C4
:10137D009003A17401F0E4A3F0A3F09003B4F0A3E3
:10138D00F0D200D203C202C201900000F0A3F0F52A
:10139D00B175B2FF75B04C123E1A1242A71242B48B
:1013AD00124178438E80E4F58A758CB8F589D28C1C
:1013BD00D2A9D2AF7D067F121241B07FF47E011209
:1013CD00413D7D05E4FF1241B07FF47E0112413DA8
:1013DD007F017E001241F57F68123D367F68123D18
:1013ED00367F6D123D367F6D123D367F23123D36B1
:1013FD00E49003B6F0A3F09003B6E0FAA3E0FBD3BC
:10140D009414EA648094805074EBAE027802C33376
:10141D00CE33CED8F924C8F58274043EF58312126A
:10142D001200000000AD03AC02EC120D83E4FBFAD8
:10143D00F97840120C57E4FBFA79E07840120A5D16
:10144D00C004C005C006C0079003B6E0FEA3E07857
:10145D0002C333CE33CED8F92423F58274053EF57D
:10146D0083D007D006D005D0041212069003B7E042
:10147D0004F070839003B6E004F0021404122A2DD8
:10148D007F08123F4B7F05123F4B7F50123D367F39
:10149D004F123D367F53123D367F3A123D36900541
:1014AD0089E0FCA3E0FDA3E0FEA3E0FF122E9E7FEA
:1014BD00027E001241F590057BE0FF12415B7F3A01
:1014CD00123D3690057EE0FF12415B7F3A123D36AC
:1014DD00900591E0547FFF12415B7F3B123D3690AA
:1014ED000577E0FF12415B90057AE0FF12415B7FCB
:1014FD003B123D36900000E07002A3E060047F4196
:10150D00800C900000E07002A3E070057F4D123D4D
:10151D003630023F900000E07002A3E07035A20368
:10152D0092067F30FE123F8B900589E0FCA3E0FD13
:10153D00A3E0FEA3E0FF7BCD7ACC79CC3003047819
:10154D003E800278BE120A5D900589121206E49063
:10155D0003A1F0300141900000E07002A3E070376C
:10156D00A20392067F30FE123F8B900589E0FCA30B
:10157D00E0FDA3E0FEA3E0FF7BCD7ACC79CC300378
:10158D0004783E800278BE120A5D9005891212061B
:10159D00E49003A1F0C20130A3359003A1E0702FB8
:1015AD00FFFEFDFC900589E0F8A3E0F9A3E0FAA3A6
:1015BD00E0FB120CF4600250169005891212120015
:1015CD000000009003A17401F0C202C201D2031207
:1015DD0042CC90058DE0A3F090057BE090058DF059
:1015ED0090058FE0A3F090057EE090058FF09003BD
:1015FD00BB7401F0A37405F0A3747AF0A37401F029
:10160D00A37405F0A3747BF0A37401F0A37405F02B
:10161D00A3747EF0A37401F0A37405F0A37491F08C
:10162D007B017A057977123DAB900000E07002A343
:10163D00E07003021BA0900590E0FE90058FE06E18
:10164D006003021BA090057EE0FFEE6F6003021B9E
:10165D00A090057BE0FE90058DE0FD6E6003021B02
:10166D00A0A3E06D6003021BA09003A2E07002A393
:10167D00E0600302189712419F900520E0FEEF8E67
:10168D00F084E5F060030217A1900591E0547FFF0F
:10169D0012419FEF60030217A190057BE0FF1241FD
:1016AD009FEFD39410400302178D90057BE0FF123E
:1016BD00419FEFC39407500302178D90057EE0FF05
:1016CD0012419FAC07E4120D88E4FBFA7970784261
:1016DD00120C57C004C005C006C00790057BE0FF83
:1016ED0012419FAC07E4120D88D003D002D001D077
:1016FD0000120A5DE4FBFA79E078C0120A5DE4FBA2
:10170D00FA79707842120B4EC004C005C006C007AE
:10171D00900520E0FCE4120D88A804A905AA06ABEB
:10172D0007D007D006D005D004120C57120DBC906F
:10173D000578EEF0A3EFF0900577E0FF90057AE0E5
:10174D00FD90057EE09003BBF0900591E09003BC09
:10175D00F0A37401F0A37405F0A37489F090057BD8
:10176D00E0FB1235C8C004C005C006C0079005785F
:10177D00E0FEA3E07802C333CE33CED8F90219A32D
:10178D0090057BE0FF12419FEFC394115003021BA4
:10179D00A00219CB90057BE0FF12419FEFD394106F
:1017AD004003021BA090057BE0FF12419FEFC39405
:1017BD00075003021BA090057EE0FF12419FAC076E
:1017CD00E4120D88E4FBFA79707842120C57C004CC
:1017DD00C005C006C00790057BE0FF12419FAC0716
:1017ED00E4120D88D003D002D001D000120A5DE4BE
:1017FD00FBFA79E078C0120A5DE4FBFA7970784261
:10180D00120B4EC004C005C006C007900520E0FCB9
:10181D00E4120D88A804A905AA06AB07D007D006C7
:10182D00D005D004120C57120DBC900578EEF0A324
:10183D00EFF090057EE09003CFF0900591E09003DE
:10184D00D0F0A37401F0A37405F0A37489F0900592
:10185D0078E0FEA3E07802C333CE33CED8F924C8A6
:10186D00F58274043EF583E0FCA3E0FDA3E0FEA346
:10187D00E0FF9003D412120690057BE0FB90057AF1
:10188D00E0FD900577E0FF021B9D90057EE0FF12C5
:10189D00419F900520E0FEEF8EF084E5F06003029D
:1018AD0019D6900591E0547FFF12419FEF6003021E
:1018BD0019D690057BE0FF12419FEFD394104003A2
:1018CD000219BA90057BE0FF12419FEFC3940750B8
:1018DD00030219BA90057EE0FF12419FAC07E41296
:1018ED000D88E4FBFA79707842120C57C004C005DC
:1018FD00C006C00790057BE0FF12419FAC07E412C4
:10190D000D88D003D002D001D000120A5DE4FBFA9D
:10191D0079E078C0120A5DE4FBFA79707842120B17
:10192D004EC004C005C006C007900520E0FCE412BF
:10193D000D88A804A905AA06AB07D007D006D005C7
:10194D00D004120C57120DBC900578EEF0A3EFF0F9
:10195D00900577E0FF90057AE0FD90057EE090031D
:10196D00BBF0900591E09003BCF0A37401F0A3745B
:10197D0005F0A37489F090057BE0FB1235C8C00417
:10198D00C005C006C007900578E0FEA3E07802C34D
:10199D0033CE33CED8F924C8F58274043EF583D006
:1019AD0007D006D005D004121206021BA090057BAD
:1019BD00E0FF12419FEFC394115003021BA090034F
:1019CD00A2E4F0A304F0021BA090057BE0FF1241FE
:1019DD009FEFD394104003021BA090057BE0FF12F4
:1019ED00419FEFC394075003021BA090057EE0FFBB
:1019FD0012419FAC07E4120D88E4FBFA797078422E
:101A0D00120C57C004C005C006C00790057BE0FF4F
:101A1D0012419FAC07E4120D88D003D002D001D043
:101A2D0000120A5DE4FBFA79E078C0120A5DE4FB6E
:101A3D00FA79707842120B4EC004C005C006C0077B
:101A4D00900520E0FCE4120D88A804A905AA06ABB8
:101A5D0007D007D006D005D004120C57120DBC903C
:101A6D000578EEF0A3EFF0900578E0FEA3E07802A4
:101A7D00C333CE33CED8F9FBAA062423F5827405E1
:101A8D003AF583E0FCA3E0FDA3E0FEA3E0FF9003A5
:101A9D00A412120674C82BF58274043AF583E0FC87
:101AAD00A3E0FDA3E0FEA3E0FF9003A812120690B1
:101ABD000578E0FEA3E07802C333CE33CED8F9FB30
:101ACD00AA062427F58274053AF583E0FCA3E0FD10
:101ADD00A3E0FEA3E0FF9003AC12120674CC2BF52D
:101AED008274043AF583E0FCA3E0FDA3E0FEA3E0DD
:101AFD00FF9003B012120690057EE0FF12419FACDD
:101B0D0007E4120D88E4FBFA79707842120C57C085
:101B1D0004C005C006C00790057BE0FF12419FACD5
:101B2D0007E4120D88D003D002D001D000120A5D57
:101B3D0090046712120678577C047D017B017A03AD
:101B4D0079A47E007F08120F5A785F7C047D017B9B
:101B5D00017A0379AC7E007F08120F5A1237AA90D2
:101B6D0003D4121206900577E0FF90057AE0FD9000
:101B7D00057EE09003CFF0900591E09003D0F0A3A7
:101B8D007401F0A37405F0A37489F090057BE0FB5C
:101B9D0012000E90057BE0FF12419FEFD394105081
:101BAD001390057BE0FF12419FEFC394074005D2D0
:091BBD00CD02148AC2CD02148A83
:043B9100AB07AA06CE
:103B95007C007D0A120FEA900606EDF07C037DE8B5
:103BA500AF03AE02120FEA900609EFF07E007C0328
:103BB5007DE8120FD8C3EB9FFFEA9EFE7C007D6473
:103BC500120FEA900608EFF0A3E0FF7E007C037D6C
:103BD500E8120FD8C3EB9FFDEA9EFC900608E0753E
:103BE500F064A4FFC3ED9FFFEC95F0FE7C007D0A19
:103BF500120FEA900607EFF0900609E04430FF1235
:103C05003D36900608E04430FF123D36900607E049
:103C15004430FF123D36900606E04430FF123D3633
:013C2500227C
:062E9E009003B8121206B9
:102EA4009003B8E0FCA3E0FDA3E0FEA3E0FF120D55
:102EB400BC1242C09003C0EEF0A3EFF0E4FFFEFDAD
:102EC400FC9003B8E0F8A3E0F9A3E0FAA3E0FB1256
:102ED4000CF4602640249003C0E0FCA3E0FDEC1257
:102EE4000D83A804A905AA06AB079003B8E0FCA3C8
:102EF400E0FDA3E0FEA3E0FF80359003B8E0FCA36F
:102F0400E0FDA3E0FEA3E0FF120D6DC004C005C008
:102F140006C0079003C0E0FCA3E0FDEC120D83A8FB
:102F240004A905AA06AB07D007D006D005D0041221
:102F34000A59E4FBFA79207841120B4E120DBC9029
:102F440003BFEFF09003C0E0FAA3E0FB7C007D0A2E
:102F5400FFAE0212103F9003BCEDF07C037DE8AF9E
:102F640003AE0212103FAB077E007C037DE8120F14
:102F7400D8C39003C1E09FFF9003C0E09EFE7C0095
:102F84007D64120FEA9003BEEFF0AF037E007C0372
:102F94007DE8120FD8C39003C1E09FFD9003C0E009
:102FA4009EFC9003BEE075F064A4FFC3ED9FFFECAC
:102FB40095F0FE7C007D0A120FEA9003BDEFF0E469
:102FC400FFFEFDFC9003B8E0F8A3E0F9A3E0FAA348
:102FD400E0FB120CF4403B9003BEE04430FF123D92
:102FE400369003BDE04430FF123D369003BCE0440C
:102FF40030FF123D367F2E123D369003BFE0443041
:10300400FF123D367F6D123D367F6D123D367F20B7
:1030140080397F2D123D369003BEE04430FF123DCF
:10302400369003BDE04430FF123D369003BCE044CB
:1030340030FF123D367F2E123D369003BFE0443000
:0E304400FF123D367F6D123D367F6D123D3618
:01305200225B
:06421F00D2A27F017E0027
:0E422500EF1FAC0670011E4C60030080F322F8
:0240FD00AD070D
:1040FF00E4FBC2A2ED30E704D2A18002C2A11242BA
:0D410F002112421FED25E0FD0BEBB408E589
:01411C002280
:10411D00E4FDD2A1FBED25E0FDC2A212422130A1AA
:0F412D0004ED4401FD12421F0BEBB408E8AF058F
:01413C002260
:10424700E4FED2A0EF44A0FF1240FD12411DC2A020
:014257002244
:1041B000AA07D2A0ED4420FF1240FDAF021240FD3D
:0841C000AF021240FDC2A02273
:0D42A7005395F85396F8D2A0C2A0C2A222EF
:103DAB009003B8EBF0A3EAF0A3E9F07F09124247C6
:103DBB009003B8E0FBA3E0FAA3E0F9EF120FC67F84
:103DCB00071242479003BBE0FBA3E0FAA3E0F9EF35
:103DDB00120FC67F061242479003BEE0FBA3E0FA28
:103DEB00A3E0F9EF120FC67F051242479003C1E023
:103DFB00FBA3E0FAA3E0F9EF120FC67F04124247D0
:0F3E0B009003C4E0FBA3E0FAA3E0F9EF020FC6B7
:10425800EFC4540FFEEF540FFFEE75F00AA42FFFC2
:014268002233
:103CB200124258AC07AF05124258EC14B40C005033
:103CC20072903CD175F003A4C58325F0C5837302BD
:103CD2003CF5023CF8023CFD023D02023D07023D7A
:103CE2000C023D11023D16023D1B023D23023D28FE
:103CF200023D2D7E0022EF241F8021EF243B801CF9
:103D0200EF245A8017EF24788012EF2497800DEF6A
:103D120024B58008EF24D48003EF24F3FFE433FEBC
:103D220022EF24118008EF24308003EF244EFFE4B9
:033D32003401FE5B
:013D3500226B
:10426900759850438E9575D7D875D6FFD2ACD2AF15
:014279002222
:1040060090060AEBF0A3EAF0A3E9F090060AE0FBBB
:10401600A3E0FAA3E0F9120F80601790060AA3E462
:1040260075F001121075A9F0FA120F80FF12000048
:0340360080D9220C
:06000300EFC4540FFF22C0
:0542E600EF540FFF2260
:01000A0022D3
:0542EB00EF2430FF226A
:1041C8001236ACEF75F00A84FEEF75F00A84AFF092
:0641D800EEC454F04FFF9D
:0141DE0022BE
:103E1A00E4F5917592FF7F96FE1240DF7F03123F11
:103E2A004B7F1E7E001240DF7F03123F4B1240DBA6
:103E3A007F03123F4B1240DB7F02123F4B7F017E12
:103E4A00001240DF7F02123F4B7F08123F4BE4FF14
:103E5A00123F4B7F0E123F4BE4FF123F4B7F06127D
:093E6A003F4B7F147E000240DF93
:103D36009003C2EFF0D2C0C2B2E0FF5480C41313A6
:103D460013540124FF92B7EF5440C41313540324B1
:103D5600FF92B6E0FF5420C413540724FF92B5EF38
:103D66005410C4540F24FF92B4D2B37F017E0012C4
:103D760040DFC2B39003C2E0FF5408131313541F6D
:103D860024FF92B7EF54041313543F24FF92B6E076
:103D9600FF5402C31324FF92B5EF1392B41240D915
:053DA600C2B3C2C022FF
:103F4B00C2C0C2B2EF5408131313541F6004D2B78C
:103F5B008002C2B7EF54041313543F6004D2B680EF
:103F6B0002C2B6EF5402C3136004D2B58002C2B5CD
:103F7B00EF30E004D2B48002C2B41240D9C2B322F3
:0640D900D2B37F0A7E0055
:1040DF00EF1FAA0670011E4A6013E4FCFDC3ED94A6
:0D40EF0058EC940250EA0DBD00010C80F069
:0140FC0022A1
:10415B00EFC4540F4430FEEF540F44309003B8F0CB
:0D416B00AF06123D369003B8E0FF023D366E
:0A42CC00E4FF123F4B7F02023F4B5C
:0A42D600E4FF123F4B7F01023F4B53
:1041F500EF64014E70047F0880027F0C123F4BE490
:05420500FF123F4B22F7
:1023A600C102C101C103C104C1804205F800004554
:0723B60005FC68686D6D7302
:10413D00EF1FAA0670011E4A6013E4FCFDC3ED9447
:0D414D0058EC940250EA0DBD00010C80F00A
:01415A002242
:1030530053801E43801EE58044E19003BEF0E0F4FC
:1030630070030231DDE58044E1F0E0F470030231E6
:10307300DA5380DF4380C1E58044E1F0E0F4604748
:103083009003BEE0FFF4600DA3EFF0E58044E19010
:1030930003BEF080EB9003BFE02411602424F860AA
:1030A3001824FC600C24FE701E9003C07401F08091
:1030B300169003C07404F0800E9003C07407F08070
:1030C300069003C0740CF05380BF4380A1E5804495
:1030D300E19003BEF0E0F460469003BEE0FFF460CD
:1030E3000DA3EFF0E58044E19003BEF080EB900385
:1030F300BFE02411602424F8601824FC600C24FE33
:10310300701D9003C07402F080159003C07405F025
:10311300800D9003C07408F08005E49003C0F05361
:10312300807F438061E58044E19003BEF0E0F4607A
:10313300479003BEE0FFF4600DA3EFF0E58044E1A8
:103143009003BEF080EB9003BFE02411602424F8C9
:10315300601824FC600C24FE701E9003C07403F0FE
:1031630080169003C07406F0800E9003C07409F0BB
:1031730080069003C0740BF05380FE4380E0E5802B
:1031830044E19003BEF0E0F460479003BEE0FFF437
:10319300600DA3EFF0E58044E19003BEF080EB9077
:1031A30003BFE02411602424F8601824FC600C247D
:1031B300FE701E9003C0740DF080169003C0740E51
:1031C300F0800E9003C0740FF080069003C074105B
:0C31D300F09003C0E0FF227F64227F64C4
:0131DF0022CD
:102A2D009005FBE09005FAF01230539005FBEFF0A6
:102A3D00BF0E03D201229005FAE0FFB4640EA3E0AD
:102A4D00B40F09300303C20322D203229005FBE029
:102A5D00FEB41006200203D20222EEB4100630029C
:102A6D0003C20222EFB4641FEEB40D1B900000E010
:102A7D007002A3E06008E4900000F0A3F022900043
:102A8D0000E4F0A304F0229005FAE0646460030210
:102A9D002CCCA3E0FF64647003022CCC9005F8E00D
:102AAD00FCA3E024FCF58274053CF583EFF0900562
:102ABD00F9E004F070069005F8E004F09005F8E0F8
:102ACD007004A3E064056003022C6B9005F8F0A37D
:102ADD00F09005FCE075F00AA4FFA3E0F97C002F4F
:102AED00FFEC35F0AD07FCA3E075F00AA4FFA3E001
:102AFD007A002FFFEA35F0FEA3E0640B7036D3EDBC
:102B0D009418EC64809480502BEF943BEE64809489
:102B1D008050219005FCE0C454F0FFE94FFF7D0685
:102B2D001241B09005FEE0C454F0FFA3E04FFF7DCD
:102B3D00051241B09005FCE075F00AA4FFA3E07CFE
:102B4D00002FFEEC35F09003BAF0A3CEF09005FE09
:102B5D00E075F00AA4FFA3E02FFEEC35F09003BC66
:102B6D00F0A3CEF0900600E0640C6003022C4590BB
:102B7D0003BAE0FEA3E0FFD3940CEE648094804092
:102B8D0003022C45EF9407EE6480948050517D0232
:102B9D0012103FED4C6016D39003BDE0941F9003CF
:102BAD00BCE0648094804003022C4580699003BA98
:102BBD00E07004A3E064027013D39003BDE0941C95
:102BCD009003BCE064809480506E804AD39003BD26
:102BDD00E0941E9003BCE064809480505B8037903D
:102BED0003BAE0FEA3E0FF7C007D0212103FED4C26
:102BFD007013D39003BDE0941F9003BCE0648094E8
:102C0D008050358011D39003BDE0941E9003BCE03D
:102C1D006480948050229005FCE0C454F0FFA3E042
:102C2D004FFF7D091241B09005FEE0C454F0FFA3A3
:102C3D00E04FFF7D071241B01242D67F08123F4B85
:102C4D00E4FF123F4B7F68123D367F68123D367FA1
:102C5D006D123D367F6D123D367F23123D36E49069
:102C6D0003B8F0A3F09005F8E0FEA3E0FFC39003D6
:102C7D00B9E09FEE6480F89003B8E0648098503F0F
:102C8D00EF9404EE6480948050257F08123F4B90A2
:102C9D0003B8A3E0FF123F4B9003B8E0FEA3E0247E
:102CAD00FCF58274053EF583E04430FF123D36900D
:0F2CBD0003B9E004F070AE9003B8E004F080A615
:012CCC0022E5
:0C42B400759300759400E4F594F59322D6
:1023BD006028006B43340000433E0000434800009A
:1023CD0043520000435C0000436600004370000070
:1023DD00437A00004382000043870000602800001C
:1023ED0043340000432A0000432000004316000040
:1023FD00430C00004302000042F0000042DC0000EC
:10240D0042C8000042B40000625800A342EFA3D7B7
:10241D0042EF385242EDB33342ECC28F42EAE1480B
:10242D0042E8385242E03D7142D170A4429B75C3DF
:10243D0042BEA8F642D5F0A442D5C7AE42D433333E
:10244D0042D08F5C42CAD70A42C1F5C342B2947BD7
:10245D004290051F41F428F6C2AC4CCD42BD051F7C
:10246D0042BC2E1442B9385242B3947B42AB947B9A
:10247D00429C4CCD428338524221F5C3C17051EC80
:10248D00C2DB385242A3E66642A2BD71429E3D7147
:10249D00429675C3428ADC29426BD70A422B3333ED
:1024AD004143851FC22FAE14C2EEF5C3428A6B8520
:1024BD004288A8F642834CCD42728F5C4252CCCDFD
:1024CD004221E14841AA51ECC130F5C3C27B28F647
:1024DD00C2F9947B425D47AE425A1EB8424E3D71E1
:1024ED004237D70A4214666641B95C293FF851EC70
:1024FD00C1F228F6C2959EB8C2FC28F64227EB859C
:10250D004223B8524216333341FBD70A41A628F66F
:10251D0040CE6666C1770A3DC235147BC2A7333300
:10252D00C2FECCCD41E28F5C41D7EB8541B9851F11
:10253D0041830A3D40C1999AC112E148C1F370A48B
:10254D00C265D70AC2B6199AC2FFA8F64161999A17
:10255D00414E147B410CCCCD00000000C107AE14E0
:10256D00C1BC28F6C22C147BC2884CCDC2C1CCCDC7
:10257D00C2FEAE140000000000000000C0B8000054
:10258D00C142E148C1B55C29C212851FC25AE1485A
:10259D00C299C28FC2CA9EB8C2FF75C3C162B8527A
:1025AD00C170CCCDC1991EB8C1D2F5C3C210E148DE
:1025BD00C242E148C282F0A4C2A7C7AEC2D22E1455
:1025CD00C2FEFAE1C1E1D70AC1EC51ECC204EB85C0
:1025DD00C21E70A4C240EB85C2705C29C295428FA9
:1025ED00C2B5C28FC2D9428FC2FF147BC228851FCC
:1025FD00C22C5C29C2397AE1C250A3D7C27166667A
:10260D00C28D0A3DC2A56148C2C18F5CC2DF947BF9
:10261D00C2FF851FC25E147BC261999AC26F28F6F4
:10262D00C282051FC28F2E14C2A05C29C2B4C7AED0
:10263D00C2CBD1ECC2E551ECC2FFE666C28A199A53
:10264D00C28C47AEC290D1ECC2990F5CC2A4614856
:10265D00C2B2947BC2C36148C2D5A3D7C2EA0F5C94
:10266D00C3000F5C603C002F400CCCCD40DCCCCDCA
:10267D004139999A4182666641A8000041CD999AE7
:10268D0041F33333420C6666421F3333423200004E
:10269D004244CCCD4257999A426A6666427D3333A5
:1026AD004288000060A002FBC1E1D70AC1EC51ECE9
:1026BD00C204EB85C21E70A4C240EB85C2705C29BA
:1026CD00C295428FC2B5C28FC2D9428FC2FF147B51
:1026DD00C228851FC22C5C29C2397AE1C250A3D70A
:1026ED00C2716666C28D0A3DC2A56148C2C18F5CCA
:1026FD00C2DF947BC2FF851FC25E147BC261999AB3
:10270D00C26F28F6C282051FC28F2E14C2A05C298B
:10271D00C2B4C7AEC2CBD1ECC2E551ECC2FFE66686
:10272D00C28A199AC28C47AEC290D1ECC2990F5C85
:10273D00C2A46148C2B2947BC2C36148C2D5A3D7BB
:10274D00C2EA0F5CC3000F5C5000934257999A4246
:0F275D006A6666427D33334288000041002800DF
:0A4195001212069003D0E0547FFFE1
:10419F00EFC4540FFEEF540FFFEE75F00AA42FFF7C
:0141AF0022ED
:0142F00022AB
:103E730090002E30071A7404F07B017A007929121E
:103E830039057F027E0012413D90002E7406801892
:103E93007405F07B017A0079291239057F027E00CF
:103EA30012413D90002E7407F07B017A00792912AC
:0A3EB30039057F027E0012413D2216
:083F8B00900454EEF0A3EFF0E6
:103F9300E4A3F0A3F0900456F0A3F0900454E0FEE1
:103FA300A3E0FFC3900457E09F900456E09E501790
:103FB300A2069207123E73900457E004F070DC905F
:073FC3000456E004F080D475
:013FCA0022D4
:0640640090045012120648
:10406A00E4FFFE7DF07C42900450E0F8A3E0F9A35F
:10407A00E0FAA3E0FB120B4E120DBCA20592060257
:02408A003F8B6A
:102CCD00E0FCA3E0FDA3E0FEA3E0FF9005F01212EF
:102CDD00069005D0E0FCA3E0FDA3E0FEA3E0FF908D
:102CED0005F41212069005A4E0FCA3E0FDA3E0FE9E
:032CFD00A3E0FF52
:102D00009005D41212069005E8E0FCA3E0FDA3E0D4
:102D1000FEA3E0FF9005D8E0F8A3E0F9A3E0FAA352
:102D2000E0FB120B4E9005ECE0F8A3E0F9A3E0FA0B
:102D3000A3E0FB120B4EC004C005C006C0079005FF
:102D4000E4E0FCA3E0FDA3E0FEA3E0FF9005D4E0F7
:102D5000F8A3E0F9A3E0FAA3E0FB120B4E9005F410
:102D6000E0F8A3E0F9A3E0FAA3E0FB120B4ED003D6
:102D7000D002D001D000120A5DC004C005C006C058
:102D8000079005E0E0FCA3E0FDA3E0FEA3E0FF90D8
:102D900005DCE0F8A3E0F9A3E0FAA3E0FB120B4E98
:102DA0009005F0E0F8A3E0F9A3E0FAA3E0FB120B32
:102DB0004ED003D002D001D000120A5DC004C0057D
:102DC000C006C0079005E4E0FCA3E0FDA3E0FEA37D
:102DD000E0FF9005DCE0F8A3E0F9A3E0FAA3E0FB54
:102DE000120B4E9005ECE0F8A3E0F9A3E0FAA3E0A3
:102DF000FB120B4EA804A905AA06AB07D007D00604
:102E0000D005D004120A59C004C005C006C00790FE
:102E100005E0E0FCA3E0FDA3E0FEA3E0FF9005D801
:102E2000E0F8A3E0F9A3E0FAA3E0FB120B4E900553
:102E3000F4E0F8A3E0F9A3E0FAA3E0FB120B4EA83C
:102E400004A905AA06AB07D007D006D005D0041206
:102E50000A59C004C005C006C0079005E8E0FCA3FD
:102E6000E0FDA3E0FEA3E0FF9005D4E0F8A3E0F9C5
:102E7000A3E0FAA3E0FB120B4E9005F0E0F8A3E00C
:102E8000F9A3E0FAA3E0FB120B4EA804A905AA06D9
:0E2E9000AB07D007D006D005D004120A592295
:10276D009005941212069005ACE0FCA3E0FDA3E0E9
:10277D00FEA3E0FF9005D81212069005B0E0FCA371
:10278D00E0FDA3E0FEA3E0FF9005DC12120690052C
:10279D00B4E0FCA3E0FDA3E0FEA3E0FF9005E01292
:1027AD0012069005BCE0FCA3E0FDA3E0FEA3E0FF54
:1027BD009005E41212069005C0E0FCA3E0FDA3E035
:1027CD00FEA3E0FF9005E81212069005C4E0FCA3FD
:1027DD00E0FDA3E0FEA3E0FF9005EC1212069005CC
:1027ED00CC122CCD900598E0F8A3E0F9A3E0FAA364
:1027FD00E0FB120B4EC004C005C006C0079005AC2F
:10280D00E0FCA3E0FDA3E0FEA3E0FF9005D81212CB
:10281D00069005B0E0FCA3E0FDA3E0FEA3E0FF9071
:10282D0005DC1212069005B8E0FCA3E0FDA3E0FE66
:10283D00A3E0FF9005E01212069005BCE0FCA3E0BA
:10284D00FDA3E0FEA3E0FF9005E41212069005C083
:10285D00E0FCA3E0FDA3E0FEA3E0FF9005E812126B
:10286D00069005C8E0FCA3E0FDA3E0FEA3E0FF9009
:10287D0005EC1212069005CCE0FCA3E0FDA3E0FEF2
:10288D00A3E0FF9005F01212069005D0E0FCA3E046
:10289D00FDA3E0FEA3E0FF9005F41212069005A83B
:1028AD00122CF5900594E0F8A3E0F9A3E0FAA3E06B
:1028BD00FB120B4ED003D002D001D000120A59C02A
:1028CD0004C005C006C0079005A8E0FCA3E0FDA369
:1028DD00E0FEA3E0FF9005D81212069005B0E0FCD3
:1028ED00A3E0FDA3E0FEA3E0FF9005DC121206902D
:1028FD0005B4E0FCA3E0FDA3E0FEA3E0FF9005E03E
:10290D001212069005B8E0FCA3E0FDA3E0FEA3E0E3
:10291D00FF9005E41212069005C0E0FCA3E0FDA3B4
:10292D00E0FEA3E0FF9005E81212069005C4E0FC5E
:10293D00A3E0FDA3E0FEA3E0FF9005EC12120690CC
:10294D0005C8122CCD90059CE0F8A3E0F9A3E0FAA0
:10295D00A3E0FB120B4ED003D002D001D000120A1F
:10296D005DC004C005C006C0079005A8E0FCA3E04B
:10297D00FDA3E0FEA3E0FF9005D81212069005AC72
:10298D00E0FCA3E0FDA3E0FEA3E0FF9005DC121246
:10299D00069005B4E0FCA3E0FDA3E0FEA3E0FF90EC
:1029AD0005E01212069005B8E0FCA3E0FDA3E0FEE1
:1029BD00A3E0FF9005E41212069005BCE0FCA3E035
:1029CD00FDA3E0FEA3E0FF9005E81212069005C4FA
:1029DD00E0FCA3E0FDA3E0FEA3E0FF9005EC1212E6
:1029ED00069005C8E0FCA3E0FDA3E0FEA3E0FF9088
:1029FD0005F01212069005CC122CE19005A0E0F81E
:102A0D00A3E0F9A3E0FAA3E0FB120B4EA804A9057D
:102A1D00AA06AB07D007D006D005D004120A59225A
:10378700785F7C047D017B017E007F08120F5A90D1
:103797000416E0FCA3E0FDA3E0FEA3E0FF900467AE
:0337A700121206F5
:1037AA00900467E0F8A3E0F9A3E0FAA3E0FB900431
:1037BA0057E0FCA3E0FDA3E0FEA3E0FF120A5912C2
:1037CA000D6DC004C005C006C00790045FE0F8A3F1
:1037DA00E0F9A3E0FAA3E0FB900457E0FCA3E0FDC4
:1037EA00A3E0FEA3E0FF120A59A804A905AA06ABA2
:1037FA0007D007D006D005D004120C57C004C00564
:10380A00C006C007900463E0F8A3E0F9A3E0FAA3B6
:10381A00E0FB90045BE0FCA3E0FDA3E0FEA3E0FF75
:10382A00120A59D003D002D001D000120B4E9004D4
:0F383A005BE0F8A3E0F9A3E0FAA3E0FB120A5D5C
:01384900225C
:09000E009003CEEBF0AA05A9074E
:10001700E49003DAF0A3F0A3F0A3F0A31212120006
:100027000000009003E2121212000000009003E6A5
:1000370012121200000000900422121212C0A00037
:100047000090044C121212C2932E149004501212F4
:100057001242360A3D90043A7407F0A374E3F0AFF6
:100067000112419FA3E4F0A3EFF0AF0212419FA357
:10007700E4F0A3EFF09003CEE0FF12419FEF2405D9
:10008700FDE433FCE4120D83900440121206900342
:10009700CFE0FF12419FAC07E4120D889004441291
:1000A7004195AC07E4120D8890044812120690039C
:1000B700D1E0FBA3E0FAA3E0F91211209003DE12CE
:1000C700120678577C047D017B017A04793A7E0019
:1000D7007F12120F5A78697C047D017B017A0479BB
:1000E7004C7E007F08120F5A9004717401F0A374BC
:1000F70004F0A37454F0121BC6E4FBFA7934784376
:10010700120B4E7BD07A0F79497840120C57900426
:100117002612120690043FE024AFFF90043EE0341D
:10012700FFFE7C017D68120FD87D6D12103FEF2511
:10013700E0FDEE33FC120D837BD07A0F79497840CE
:10014700120B4EE4FBFA79347843120C5712323E05
:100157007B857AEB791D7841120B4EC004C005C030
:1001670006C007E4FFFE7D707C41900422E0F8A3FF
:10017700E0F9A3E0FAA3E0FB120B4EA804A905AA35
:1001870006AB0790044CE0FCA3E0FDA3E0FEA3E070
:10019700FF120A59E4FBFA79807840120B4ED0031C
:1001A700D002D001D000120A5DC004C005C006C04D
:1001B7000790043FE024AFFF90043EE034FFFE7C4D
:1001C700017D68120FD87D6D12103FAC06AD07ECAC
:1001D700120D837BD07A0F79497840120B4EE4FBDE
:1001E700FA79347843120C571232287BC37AF5799F
:1001F700F07840120B4EA804A905AA06AB07D00752
:10020700D006D005D004120A59C004C005C006C0E4
:100217000790043FE024AFFF90043EE034FFFE7CEC
:10022700017D68120FD87D6D12103FAC06AD07EC4B
:10023700120D837BD07A0F79497840120B4EE4FB7D
:10024700FA79347843120C5712323EE4FBFA79C03C
:10025700783F120B4EA804A905AA06AB07D007D012
:1002670006D005D004120A59E4FBFA7970784212D5
:100277000C5790041E1212069003CFE0FF12419F05
:10028700AC07E4120D88E4FBFA79707842120C5738
:10029700C004C005C006C0079003CEE0FF12419F0F
:1002A700AC07E4120D88D003D002D001D000120AA7
:1002B7005D90041EE0F8A3E0F9A3E0FAA3E0FB12C7
:1002C7000A5D9004121212067FD07E0F7D497C4092
:1002D700900426E0F8A3E0F9A3E0FAA3E0FB120BF1
:1002E7004EE4FBFA79347843120C57123228C004D3
:1002F700C005C006C0077FD07E0F7D497C409004B3
:1003070050E0F8A3E0F9A3E0FAA3E0FB120B4EE4F8
:10031700FBFA79347843120C57123228D003D002F3
:10032700D001D000120B4EC004C005C006C007E4C0
:10033700FFFE7D407CC1900412E0F8A3E0F9A3E042
:10034700FAA3E0FB120A5D7BD37A7E793C784212EE
:100357000B4EE4FBFA79347843120C57123228D04B
:1003670003D002D001D000120B4EC004C005C00656
:10037700C0077FD07E0F7D497C40900426E0F8A31C
:10038700E0F9A3E0FAA3E0FB120B4EE4FBFA7934A1
:100397007843120C5712323EC004C005C006C0078E
:1003A7007FD07E0F7D497C40900450E0F8A3E0F9B0
:1003B700A3E0FAA3E0FB120B4EE4FBFA793478438F
:1003C700120C5712323ED003D002D001D000120BCC
:1003D7004ED003D002D001D000120A5D123FCB7B72
:1003E700ED7A2E79657842120B4E90041A12120696
:1003F700E4FFFE7D407CC1900412E0F8A3E0F9A37E
:10040700E0FAA3E0FB120A5D7BD37A7E793C78425F
:10041700120B4EE4FBFA79347843120C5712323E32
:10042700C004C005C006C0077FD07E0F7D497C4051
:10043700900426E0F8A3E0F9A3E0FAA3E0FB120B8F
:100447004EE4FBFA79347843120C57123228D00362
:10045700D002D001D000120B4EC004C005C006C0A8
:100467000790041AE0F8A3E0F9A3E0FAA3E0FBE49D
:10047700FFFE7DB47C42120A597BD07A0F79497806
:1004870040120B4EE4FBFA79347843120C571232C0
:100497003EA804A905AA06AB07D007D006D005D009
:1004A70004120C57123FCB7BED7A2E7965784212F6
:1004B7000B4EE4FBFA79347843120A5D9004161266
:1004C7004195EF30E003020A55E49003DAF0A3F018
:1004D7009003DAE0FEA3E0FFC3940AEE9400400322
:1004E700020844EF7802C333CE33CED8F9246FF530
:1004F7008274003EF583E0FCA3E0FDA3E0FEA3E0E9
:10050700FF900416E0F8A3E0F9A3E0FAA3E0FB12DA
:100517000CF46005400302068D9003DAE0FEA3E0C9
:100527007802C333CE33CED8F9246BF58274003EFC
:10053700F583E0FCA3E0FDA3E0FEA3E0FF90041633
:10054700E0F8A3E0F9A3E0FAA3E0FB120CF45003F0
:1005570002068DE49003DCF0A3F09003DAE0FEA33B
:10056700E07802C333CE33CED8F9FBAA06246BF565
:100577008274003AF583E0FCA3E0FDA3E0FEA3E06C
:10058700FF90042A121206746F2BF58274003AF555
:1005970083E0FCA3E0FDA3E0FEA3E0FF900432129A
:1005A70012069003DAE0FEA3E07802C333CE33CE1F
:1005B700D8F9FBAA069003DCE0FEA3E09000A37540
:1005C700F028121243EE75F028A42583F583E582FF
:1005D7002BF582E5833AF583E0FCA3E0FDA3E0FE7B
:1005E700A3E0FF90042E1212069003DCE0FEA3E0C6
:1005F7009000A775F028121243EE75F028A4258302
:10060700F583E5822BF582E5833AF583E0FCA3E0E9
:10061700FDA3E0FEA3E0FF90043612120678577C94
:10062700047D017B017A04792A7E007F08120F5A24
:100637007A047932123787C004C005C006C0079014
:1006470003DCE0FEA3E07802C333CE33CED8F9242F
:10065700EAF58274033EF583D007D006D005D004AF
:100667001212069003DDE004F070069003DCE0044C
:10067700F0C39003DDE0940F9003DCE09400500397
:100687000205610208339003DAE0FEA3E07802C3B3
:1006970033CE33CED8F92404F58274003EF583E0D7
:1006A700FCA3E0FDA3E0FEA3E0FF900416E0F8A39F
:1006B700E0F9A3E0FAA3E0FB120CF45003020833BD
:1006C7009003DAE0FEA3E07802C333CE33CED8F945
:1006D7002400F58274003EF583E0FCA3E0FDA3E06F
:1006E700FEA3E0FF900416E0F8A3E0F9A3E0FAA365
:1006F700E0FB120CF460054003020833E49003DCCE
:10070700F0A3F09003DAE0FEA3E07802C333CE3320
:10071700CED8F9FBAA062400F58274003AF583E0E7
:10072700FCA3E0FDA3E0FEA3E0FF90042A1212065B
:1007370074042BF58274003AF583E0FCA3E0FDA373
:10074700E0FEA3E0FF9004321212069003DAE0FE07
:10075700A3E07802C333CE33CED8F9FBAA069003C1
:10076700DCE0FEA3E09000A375F028121243EE75BB
:10077700F028A42583F583E5822BF582E5833AF5F6
:1007870083E0FCA3E0FDA3E0FEA3E0FF90042E12AC
:1007970012069003DCE0FEA3E09000A775F0281294
:1007A7001243EE75F028A42583F583E5822BF582A5
:1007B700E5833AF583E0FCA3E0FDA3E0FEA3E0FFB9
:1007C70090043612120678577C047D017B017A0467
:1007D70079327E007F08120F5A7A04792A123787F6
:1007E700C004C005C006C0079003DCE0FEA3E078A4
:1007F70002C333CE33CED8F924EAF58274033EF52B
:1008070083D007D006D005D0041212069003DDE08E
:1008170004F070069003DCE004F0C39003DDE0947D
:100827000F9003DCE09400500302070A9003DBE01B
:1008370004F070069003DAE004F00204D7E49003B2
:10084700DAF0A3F09003DAE0FEA3E0FFC3940FEE23
:10085700940040030209A1EF7802C333CE33CED808
:10086700F9242FF58274003EF583E0FCA3E0FDA395
:10087700E0FEA3E0FF90041AE0F8A3E0F9A3E0FA92
:10088700A3E0FB120CF450030209909003DAE0FE98
:10089700A3E07802C333CE33CED8F92433F582747C
:1008A700003EF583E0FCA3E0FDA3E0FEA3E0FF909C
:1008B700041AE0F8A3E0F9A3E0FAA3E0FB120CF4B2
:1008C700600540030209909003DAE0FEA3E0780296
:1008D700C333CE33CED8F9FBAA06242FF582740092
:1008E7003AF583E0FCA3E0FDA3E0FEA3E0FF90045C
:1008F7002A12120674332BF58274003AF583E0FC52
:10090700A3E0FDA3E0FEA3E0FF90043212120690DD
:1009170003DAE0FEA3E07802C333CE33CED8F9FB87
:10092700AA0624EAF58274033AF583E0FCA3E0FD06
:10093700A3E0FEA3E0FF90042E12120674EE2BF53F
:100947008274033AF583E0FCA3E0FDA3E0FEA3E095
:10095700FF90043612120678577C047D017B017ADA
:1009670004792A7E007F08120F5A785F7C047D0184
:100977007B017A0479327E007F08120F5A90041A9D
:100987001237999003E61212069003DBE004F07029
:10099700069003DAE004F002084B90041AE0FCA387
:1009A700E0FDA3E0FEA3E0FF9003DE121206900332
:1009B700D1E0FBA3E0FAA3E0F91211E69003DEE031
:1009C700FCA3E0FDA3E0FEA3E0FF120A599003E2B7
:1009D7001212069003E2E0FCA3E0FDA3E0FEA3E011
:1009E700FF120DBC1242C0AC06AD07EC120D83E43A
:1009F700FBFAF9783F120CF460025052E4FFFE7DD7
:100A0700707CC19003DEE0F8A3E0F9A3E0FAA3E06D
:100A1700FB120CF44038E4FFFE7D527C439003DE6A
:100A2700E0F8A3E0F9A3E0FAA3E0FB120CF46002FC
:100A3700501C9003DEE0FCA3E0FDA3E0FEA3E0FF73
:0E0A47009003D1E0FBA3E0FAA3E0F9121170D6
:010A5500227E
:101BC600E4FBFA79707842900465E0FCA3E0FDA39B
:101BD600E0FEA3E0FF120C57900461E0F8A3E0F9E1
:101BE600A3E0FAA3E0FB120A5DE4FBFA79707842FF
:101BF600120C5790045DE0F8A3E0F9A3E0FAA3E025
:101C0600FB120A5D90047812120690045AE024F240
:101C1600FF900459E034FFFE7C007D0C12103FEE6D
:101C26003395E0FDFC900498121206E47F0CFEFD4D
:101C3600FC900498E0F8A3E0F9A3E0FAA3E0FB1215
:101C460010C3A804A905AA06AB0790045AE024FE0F
:101C5600FF900459E034FFFE3395E0FDFCC3EF9B93
:101C6600FFEE9AFEED99FDEC98FCE47B6F7A01F9A4
:101C7600F81210C3E47B0CFAF9F8123F07C004C04F
:101C860005C006C007900458E024C0FF900457E042
:101C96003412FE3395E0FDFC900498E0F8A3E0F9D9
:101CA600A3E0FAA3E02FFFEA3EFEE93DFDE83CFC97
:101CB600E47BB57A05F9F81210C3E47B04FAF9F867
:101CC600123F07D003D002D001D000EF2BFFEE3A2F
:101CD600FEED39FDEC38FCC004C005C006C0079017
:101CE6000458E02424FF900457E03413FE3395E0B3
:101CF600FDFC900498E0F8A3E0F9A3E0FAA3E02F36
:101D0600FFEA3EFEE93DFDE83CFCE47B64FAF9F8B7
:101D1600123F07E47B03FAF9F81210C3E47B04FAD6
:101D2600F9F8123F07A804A905AA06AB07D007D001
:101D360006D005D004C3EF9BFBEE9AFAED99F9ECB9
:101D460098F890045BE0FEA3E0FFEE3395E0FDFC1F
:101D5600EB2FFFEA3EFEE93DFDE83CFCEF24B5FF34
:101D6600EE3482FEED34FFFDEC34FFFC90049C1251
:101D7600120690049CE0FCA3E0FDA3E0FEA3E0FFB6
:101D8600EC120D7EE4FBFAF978BF120A5DC004C0BE
:101D960005C006C007E4FBFA79C07841900478E0F4
:101DA600FCA3E0FDA3E0FEA3E0FF120C57D003D096
:101DB60002D001D000120A5D9004941212067F64CC
:101DC6007EA17D157CCA900494E0F8A3E0F9A3E017
:0D1DD600FAA3E0FB120A5D900474121206DD
:101DE3007F787E3E7D887C3A900474E0F8A3E0F926
:101DF300A3E0FAA3E0FB120B4EA804A905AA06ABC5
:101E0300077F467E257D097C40120A5990049C1267
:101E130012067FDE7EEC7D8C7C3C900474E0F8A39C
:101E2300E0F9A3E0FAA3E0FB120B4E7B5B7AA47903
:101E33009C7840120A5D9004941212067F257EEB73
:101E43007D8C7C3C900474E0F8A3E0F9A3E0FAA352
:101E5300E0FB120B4E7B927AAE79C77840120A5D93
:101E6300900498121206900498E0FCA3E0FDA3E00E
:101E7300FEA3E0FF12323E7B4A7ADF7908783D12F7
:101E83000B4E900494E0F8A3E0F9A3E0FAA3E0FB7F
:101E9300120A5DC004C005C006C007E4FFFEFD7C56
:101EA30040900498E0F8A3E0F9A3E0FAA3E0FB1262
:101EB3000B4E12323E7BEF7AF179B67839120B4E24
:101EC300D003D002D001D000120A5D7B297AD179E8
:101ED300ED78B8120A5DC004C005C006C0079004BF
:101EE3009CE0FCA3E0FDA3E0FEA3E0FF12323E7BF7
:101EF300EB7A4979AA7837120B4EA804A905AA06EA
:101F0300AB07D007D006D005D004120A5990047C41
:101F130012120690049CE0FCA3E0FDA3E0FEA3E004
:101F2300FF1232287B2D7A1879267838120B4EC08F
:101F330004C005C006C0077FEC7E827DD57C31904E
:101F43000474E0F8A3E0F9A3E0FAA3E0FB120B4E5C
:101F5300A804A905AA06AB077F9D7E747DD17C3EAC
:101F6300120A59D003D002D001D000120A5D9004A6
:041F730080121206C0
:101F770090047CE0FCA3E0FDA3E0FEA3E0FF1232A7
:101F87003E900494121206900480E0FCA3E0FDA3A7
:101F9700E0FEA3E0FF123228900494E0F8A3E0F9F2
:101FA700A3E0FAA3E0FB120B4E90048C12120690EA
:101FB700047CE0FCA3E0FDA3E0FEA3E0FF123228CF
:101FC700900490121206900490E0FCA3E0FDA3E0B9
:101FD700FEA3E0FF9004B812120690048CE0FCA365
:101FE700E0FDA3E0FEA3E0FF123A5E900484121224
:101FF70006E4FFFEFDFC900484E0F8A3E0F9A3E00B
:10200700FAA3E0FB120CF4501F900484E0FCA3E059
:10201700FDA3E0FEA3E0FF7BD07A0F79C9784012D9
:102027000A5D900484121206900480E0FCA3E0FD90
:10203700A3E0FEA3E0FF12323E900494E0F8A3E091
:10204700F9A3E0FAA3E0FB120B4E123FCB900488F2
:032057001212065C
:10205A007FE07E927D867C3D900474E0F8A3E0F9EF
:10206A00A3E0FAA3E0FB120B4E7B4D7A5179D678A6
:10207A0040120A5D900478E0F8A3E0F9A3E0FAA31D
:10208A00E0FB120A5D900494121206E4FFFE7D70D2
:10209A007C41900494E0F8A3E0F9A3E0FAA3E0FB02
:1020AA00120B4E900469E0F8A3E0F9A3E0FAA3E06A
:1020BA00FB120A5D7B2E7AFA798E783C120B4E90CF
:1020CA000498121206900484E0F8A3E0F9A3E0FA57
:1020DA00A3E0FB900498E0FCA3E0FDA3E0FEA3E0EC
:1020EA00FF120A599004A01212067F2E7EFA7D8EE4
:1020FA007C3C90046DE0F8A3E0F9A3E0FAA3E0FBCE
:10210A00120B4E90049C12120690049CE0FCA3E071
:10211A00FDA3E0FEA3E0FF1232289004A4121206E7
:10212A0090049CE0FCA3E0FDA3E0FEA3E0FF1232D2
:10213A003E9004A81212069004A0E0FCA3E0FDA3BE
:10214A00E0FEA3E0FF1232289004AC1212069004BB
:10215A0088E0FCA3E0FDA3E0FEA3E0FF123228C062
:10216A0004C005C006C0079004ACE0FCA3E0FDA3D0
:10217A00E0FEA3E0FF9004A4E0F8A3E0F9A3E0FAEC
:10218A00A3E0FB120B4ED003D002D001D000120BF9
:10219A004EC004C005C006C007900488E0FCA3E056
:1021AA00FDA3E0FEA3E0FF12323E9004A8E0F8A3EC
:1021BA00E0F9A3E0FAA3E0FB120B4ED003D002D061
:1021CA0001D000120A5D123EBD900471E0FBA3E04B
:1021DA00FAA3E0F91211709004A0E0FCA3E0FDA3B9
:1021EA00E0FEA3E0FF12323E120D6D90048C121233
:1021FA0006900488E0FCA3E0FDA3E0FEA3E0FF1242
:10220A00327A9004A4E0F8A3E0F9A3E0FAA3E0FB91
:10221A00120B4EC004C005C006C0079004ACE0FC17
:10222A00A3E0FDA3E0FEA3E0FF9004A8E0F8A3E08A
:10223A00F9A3E0FAA3E0FB120B4EA804A905AA062B
:10224A00AB07D007D006D005D004120A59900490E3
:10225A00121206900490E0FCA3E0FDA3E0FEA3E0C6
:10226A00FF9004B812120690048CE0FCA3E0FDA3D0
:10227A00E0FEA3E0FF123A5E900471E0FBA3E0FAED
:10228A00A3E0F990000412118A900004121140E4AC
:10229A00FBFAF9F8120CF4602F402D900471E0FB60
:1022AA00A3E0FAA3E02404F9E43AFAC003C002C0A6
:1022BA00011211207BD07A0F79C97840120A5DD0B9
:1022CA0001D002D003121170900471E0FBA3E0FA6E
:1022DA00A3E02404F9E43AFAC003C002C0011211CF
:1022EA00207B2E7AFA798E783C120C57D001D002D4
:1022FA00D003121170900471E0FBA3E0FAA3E0F995
:10230A0012112012323E7B0D7AA079327838120BE4
:10231A004E9004B0121206900471E0FBA3E0FAA3F7
:10232A00E0F91211209004B0E0F8A3E0F9A3E0FA72
:10233A00A3E0FB120A5D7B2E7AFA798E783C120CA6
:0F234A0057900471E0FBA3E0FAA3E0F9121170C1
:0E235900900488E0FCA3E0FDA3E0FEA3E0FFFB
:012367002253
:10417800C2A4C2A5C2A64391015392FEE4F5974397
:0D4188009D01F5BD75BC807F02FE0240DF89
:1040B300EF4488F5BC00000000E5BC30E4FB53BCD2
:1040C300EFAFBD7E00EF7802C333CE33CED8F9FF16
:0540D300ADBEEF4DFF42
:0140D80022C5
:10384A00E49003E2F0A3F09003E0F0A3F09003E227
:10385A00A3E0FF1240B3AC06AD079003E1E025E018
:10386A00FF9003E0E033FE74CC2FF58274033EF53B
:10387A0083ECF0A3EDF09003E1E004F0700690030E
:10388A00E0E004F0C39003E1E0940A9003E0E0640E
:10389A0080948040B89003E0E4F0A304F09003E041
:1038AA00E0FEA3E0FFD39409EE648094805047EFD2
:1038BA0025E0FFEE33FE74CC2FF58274033EF583C8
:1038CA00E0FEA3E0FF9003CCE0FCA3E0FDC3EF9D84
:1038DA00FFEE9CFE1242C0D3EF941EEE64809480E9
:1038EA004004E4FEFF229003E1E004F070AF90038D
:0A38FA00E0E004F080A77E007F01EB
:0139040022A0
:0B3368009003CCEBF0A3EAF0A3E9F027
:10337300E4A3F0A31212123F000000E490044EF005
:10338300A3F09003D0E0FCA3E0FDA3E0FEA3E0FFE5
:10339300D2051240649003CCE0FBA3E0FAA3E0F96A
:1033A300C003C002C001121120E4FBFAF9783F12F6
:1033B3000A5DD001D002D0031211709003CFE0FF59
:1033C3001240B3AC06AD0790044FE025E0FF900434
:1033D3004EE033FE74D42FF58274033EF583ECF094
:1033E300A3EDF07FDC7E051240DF90044FE004F094
:1033F300700690044EE004F0C390044FE0943C90B8
:10340300044EE06480948050030233857B017A0389
:1034130079D4123AFB90044CEEF0A3EFF0C3743B63
:103423009FFDE49EFCE4120D839003D0E0F8A3E03B
:10343300F9A3E0FAA3E0FB120B4EC205124064901D
:1034430003CCE0FBA3E0FAA3E0F9C003C002C00190
:10345300121120C004C005C006C00790044CE0FE52
:10346300A3E0FFC3743B9FFDE49EFCE4120D839035
:1034730003D0E0F8A3E0F9A3E0FAA3E0FB120B4EBC
:10348300A804A905AA06AB07D007D006D005D00427
:10349300120A59D001D002D0031211707FF47E01B9
:0334A3000240DF05
:103AFB00900450E4F0A3741DF0E4A3F0A3F0900441
:103B0B0052E0FEA3E0FFD3943BEE9400506FEF2501
:103B1B00E0FFEE338F82F58312108BFFD3ED9FEC1A
:103B2B0095F04006AE04AF058016900453E025E0F7
:103B3B00FF900452E0338F82F58312108BFFAEF0AF
:103B4B00AC06AD07900453E025E0FF900452E03340
:103B5B008F82F58312108BB50513ECB5F00F900423
:103B6B0052E0FFA3E0900450CFF0A3EFF09004538A
:103B7B00E004F07089900452E004F08081900450CE
:053B8B00E0FEA3E0FFD5
:013B90002212
:0B35C8009003B8EFF0A3EDF0A3EBF0D0
:1035D3009003C0121212000000009003BDE0FBA391
:1035E300E0FAA3E0F91211209003C8121206123870
:1035F3004AEF4E70030236A69003BBE09003CFF070
:103603009003BCE09003D0F0A37401F0A37403F023
:10361300A374C8F0A3121212C17000009003BAE0A1
:10362300FB9003B9E0FD9003B8E0FF12000EE4FF46
:10363300FE7D707C419003C8E0F8A3E0F9A3E0FAB3
:10364300A3E0FB120A5D9003C41212067B017A0306
:1036530079C81233689003C4E0F8A3E0F9A3E0FA51
:10366300A3E0FBA3E0FCA3E0FDA3E0FEA3E0FF12C5
:103673000A599003C01212069003C8E0FCA3E0FDB0
:10368300A3E0FEA3E0FF9003BDE0FBA3E0FAA3E009
:10369300F91211709003C0E0FCA3E0FDA3E0FEA3C8
:0836A300E0FF22E4FFFEFDFC44
:0136AB0022FC
:0D4039007F027E00124046D2CC7F027E0046
:10404600EF1FAA0670011E4A6013E4FCFDC3ED943F
:0D40560009EC940050EA0DBD00010C80F053
:01406300223A
:0142F10022AA
:0F427A00D2CCD2C7124042C2C7124042C2CC229D
:10420A00C2CCC2C7124042D2CCC2C77F047E0012BF
:05421A004046D2C7225E
:1041DF00E425E0FBC2CC12404230C704EB4401FBA4
:0541EF00124040AF0387
:0141F40022A8
:0542E000124039C2CCC0
:0142E50022B6
:0E428900C2CCD2C7124039C2CC124042C2C7CA
:014297002204
:05408C00F9120F99FF7D
:02409100A9077D
:10409300E4FBC2CCE930E704D2C78002C2C71240B6
:0F40A30042D2CCE925E0F91240420BEBB408E31E
:0140B20022EB
:10390500900458EBF0A3EAF0A3E9F012427A7F01A4
:103915007E001240467F401240911241DFEF701247
:10392500900458E0FBA3E0FAA3E0F9120F80FF1220
:1039350040911241DFEF7010900458E0FBA3E0FACC
:10394500A3E090000112408C1241DFEF701090044B
:1039550058E0FBA3E0FAA3E090000212408C12416C
:10396500DFEF7011900458E0FBA3E0FAA3E0F990B3
:10397500000312408D1241DFEF7011900458E0FBF7
:10398500A3E0FAA3E0F990000412408D1241DFEFA5
:103995007011900458E0FBA3E0FAA3E0F99000054C
:0D39A50012408D1241DFEF700312420A2222
:03000000023C2699
:0C3C2600787FE4F6D8FD758121023C6D2A
:100A5600020E28E86480F8E933E83360110460F098
:100A6600ED33EC337009E8FCE9FDEAFEEBFF220406
:100A760060DED3EB9FEA9EE99DE8C2E78CF0C2F701
:100A860095F0400CE8CCF8E9CDF9EACEFAEBCFFBCD
:100A9600120DF385D0F05804700320D5B3E8047026
:100AA600075002B2D5020E3292D5EC0460F7E4CCC0
:100AB600C0E0C398F8603B94186008400DD0E0FB96
:100AC600020E0AE4FBFAC9FC8028E830E406E4C911
:100AD600FBE4CAFCE830E305E4C9CACBFCE85407EA
:100AE6006010F8C3E913F9EA13FAEB13FBEC13FCF5
:100AF600D8F130F52FC3E49CFCEF9BFFEE9AFEED98
:100B060099FDD0E0FBEF4E4D4C701222DB03020E36
:100B16002FEC2CFCEF33FFEE33FEED33FDED30E72B
:100B2600EB020E0AEF2BFFEE3AFEED39FDD0E0FBAD
:100B360050130BBB0003020E32ED13FDEE13FEEF56
:080B460013FFEC13FC020E0A80
:100B4E00EC4D6011E8497017ED33EC3304600DE4A1
:100B5E00FCFFFEFD22E933E8330470F8020E281282
:100B6E000DF358046009E4CC248150062850090284
:100B7E000E32284003020E2FC0E0EB4A7044B980BB
:100B8E0006D0E0FB020E1EEF4E701CBD8008EBFF80
:100B9E00EAFEE9FD80EBE98DF0A4FEE5F0020C37EC
:100BAE00E9CDF9EAFEEBFFEF89F0A4FCE5F0CE8982
:100BBE00F0A42EFFE435F0CD89F0A42DFEE435F03F
:100BCE008067EF4E7005BD80D780C3EF8BF0A4AC6D
:100BDE00F0EE8BF0A42CFCE435F0F8EF8AF0A42CA8
:100BEE00E5F038FCE433CB8DF0A42CFCE5F03BF8BB
:100BFE00EE8AF0A42CFCE5F038F8E433CF89F0A4AB
:100C0E002CFCE5F038CF3400CE89F0A42FFFE5F0B0
:100C1E003EFEE433C98DF0A42EFEE5F039CD8AF008
:100C2E00A42FFFE5F03EFEE43DFD33D0E0FB500780
:100C3E000BBB000F020E32EC2CFCEF33FFEE33FE3B
:060C4E00ED33FD020E0A69
:100C5400020E32EC5D046005E859047003020E28AC
:100C6400120DF3580460F6EC4860F2EC7004FDFEDB
:100C7400FF22C860DB2481C85009C3986002500673
:100C8400020E2F9850CAF582E9294B4A7005AB82AF
:100C9400020E1E75F0007C1A7880C3EF9BEE9AED6D
:100CA40099400DC3EF9BFFEE9AFEED99FDE842F0EB
:100CB400DC23ACF0D0E0FFD0E0FED0E0FDAB82203E
:100CC400E7101BEB60BAEC2CFCEF33FFEE33FEEDC8
:100CD40033FD020E0AE803F830E705C0F075F000B2
:100CE400EF2FFFEE33FEED33FD40B830E7C280AAAC
:100CF40074F8CC6480CCC86480C8F58204604FC3A7
:100D0400EB9FF5F0EA9E42F0E99D42F0E89C45F045
:100D1400603C501DE5825FFFE582D313CB5BCBF4CF
:100D24002B5582FB50280ABA002409B900200880F8
:100D34001DE5825BFBE582D313CF5FCFF4C3132F92
:100D44005582FF50090EBE00050DBD00010CC3EB1A
:100D54009FF5F0EA9E42F0E99D42F0E89C45F06080
:090D640007CC4820E701B3EC22A2
:100D6D00ED33EC33600A047003BD8004ECB2E7FC94
:010D7D002253
:100D7E0075F020800E75F010800575F0087D007EF0
:100D8E00007F003392D530D503121112EC33401090
:100D9E00EF33FFEE33FEED33FDEC33FCD5F0ED22F9
:0E0DAE00E5F0247EA2D513CC92E7CDCEFF2235
:100DBC00EDD2E7CD33EC3392D524814006E4FFFE2F
:100DCC00FDFC22FCE4CFCECDCC24E0501174FF808E
:100DDC00EDC3CC13CCCD13CDCE13CECF13CF04702B
:070DEC00F030D5DE02111208
:103A5E009004B41212069004B8E0F8A3E0F9A3E0C3
:103A6E00FAA3E0FB9004B4E0FCA3E0FDA3E0FEA308
:103A7E00E0FF120C571234C69004B41212069004D2
:103A8E00B8E030E7599004B4E0FCA3E0FDA3E0FEFB
:103A9E00A3E0FFECC0E0EDC0E0EEC0E0EFC0E0E47C
:103AAE00FFFEFDFC9004B4E0F8A3E0F9A3E0FAA356
:103ABE00E0FB120CF47BDB600250087A0F79497838
:103ACE004080067A0F794978C0D0E0FFD0E0FED072
:103ADE00E0FDD0E0FC120A5D9004B41212069004D0
:0D3AEE00B4E0FCA3E0FDA3E0FEA3E0FF2296
:1031E0003A70FA83BCAAE9E43E81E0F8BF9DE9E6C3
:1031F0003F80000039283C1ABB9969663DA335E33E
:10320000BF255DE73FC90FDB418DDBCCC44936EEFE
:1032100045C9913FC5B0F83D3F800000C317F53464
:10322000452FFA73C60AFDDD1232E904A2E19205C8
:103230001420E0159031E07404120E3D80301232FB
:10324000E930E102B20520E0EBA883A9829004B442
:10325000121206898288839031F47404120E3D851F
:1032600082F09004B41211CA85F082120B4EED4C1C
:103270006007300504EC6480FC221232E9C0E0A84B
:1032800083A9829004B4121206898288839032182E
:103290007403120E3D8582F09004B41211CA85F0B9
:1032A00082120B4E9004B4E0CCF0A3E0CDF0A3E08A
:1032B000CEF0A3E0CFF09032087403120E3DD0821E
:1032C0008582F09004B41211CA85F082E58230E064
:1032D00007120C57B2058096EFCBFFEECAFEEDC980
:1032E000FDECC8FC120C578085ED33EC547FCC33D9
:1032F000920524605007D0E0D0E0020E287B837A4C
:10330000F97922783E120B4EEDF933ECF833248133
:103310005011EFFBEEFA120DBC120D7EECB2E7FC81
:10332000120A5DED33EC33602F2403F8C313FCED78
:1033300092E7FDE82481E4501FECF8EDF9EEFAEF96
:10334000FB120DBCEF04C2E0FCF582120D88ECB25A
:10335000E7FC120A5DE58203FAED33EC33600714F3
:0833600013FCED92E7FDEA22E7
:103EBD00ECC0E0F8EDC0E0F9EEC0E0FAEFC0E0FBD9
:103ECD00120B4EEC6480FC7B007A007980783F12F7
:103EDD000A5D1239B6D0E0FBD0E0FAD0E0F9D0E0BF
:103EED00F8C0E0120C571234C6D0E030E70B784022
:0A3EFD0079497A0F7BD9120A5D2281
:103FCB00ECC0E0F8EDC0E0F9EEC0E0FAEFC0E0FBCA
:103FDB00120B4EEC6480FC7B007A007980783F12E8
:103FEB000A5D1239B6D0E0CFFBD0E0CEFAD0E0CDEF
:0B3FFB00F9D0E0CCF8120C570234C6DD
:100DF300E9D2E7C933E833F892D5EDD2E7CD33EC46
:070E030033FC5002B2D522BE
:100E0A00EC30E7100FBF000C0EBE00080DBD000449
:100E1A000BEB6014A2D5EB13FCED92E7FD2274FFF5
:100E2A00FCFDFEFF22E480F8A2D574FF13FC7D804E
:030E3A00E480EF62
:100E3D00C0E0EFFBEEFAEDF9ECF8120B4ED0E0F559
:100E4D00F0EFFBEEFAEDF9ECF81211BAA3A3A3A3A0
:100E5D00E8C0E0E9C0E0EAC0E0EBC0E0C0F0120B92
:100E6D004E1211D6A3A3A3A3120A5DD0F0D0E0FBBE
:0D0E7D00D0E0FAD0E0F9D0E0F8D5F0D422B2
:1039B200020E2822EDA2E7D2E7F9EC3340F260F3DF
:1039C200B4FF08ED547F70E8020E32F82481C2E0A1
:1039D200C0E0F40428FAC313FCED92E7FD9004B4AE
:1039E200121206EEA2E7E9BA7F02C3133400940072
:1039F200FA75F091A4E5F013F494FE8AF0A433E58D
:103A0200F033248CD313FDE492E7FE7F007C3F75F4
:103A12008302ECC0E0F8EDC0E0F9EEC0E0FAEFC0DE
:103A2200E0FB8583F09004B41211AE85F083120C92
:103A320057D0E0FBD0E0FAD0E0F9D0E0F8120A5D0E
:103A4200ED6480FD30E7011CD583C7ED33CC33F83C
:0C3A5200D0E0A2E71328C313CC13FD2220
:1034A600BE1249253E4CCCCDBEAAAAAB3F80000039
:1034B6003E7ADBB03EED63383F24BC7D3F490FDBEF
:1034C600ED33ECC2E7CC339205B4FF13ED547F60C5
:1034D60003020E287FDB7E0F7DC97C3F0235BBC20F
:1034E60006C3947F401E7007EDD2E794904015EF17
:1034F600FBEEFAEDF9ECF87F007E007D807C3F1252
:103506000C57D206ED33EC33248430E705E4C0E0F3
:10351600806B04FAEDD2E754F0C333DAFD54073476
:10352600002323C0E0CCC0E0F8EDC0E0F9EEC0E037
:10353600FAEFC0E0FBE4120D88EC24FEFC9004BC1C
:10354600121206120B4E7B007A007980783F120A1F
:103556005D9004BCE0B2E7CCF0A3E0CDF0A3E0CEF2
:10356600F0A3E0CFF0D0E0FBD0E0FAD0E0F9D0E075
:10357600F8120A5D9004BC1211CA120C579004BCD2
:103586001212069034A67403120E3D9004BC12115A
:10359600CA120B4ED0E0600F24B2F582E43434F543
:1035A600831211D6120A5D30060B7BDB7A0F79C9BE
:1035B60078BF120A5DED33EC336006ECA20592E7A4
:0235C600FC22E5
:103C320002137DE493A3F8E493A34003F68001F218
:103C420008DFF48029E493A3F85407240CC8C33393
:103C5200C4540F4420C8834004F456800146F6DF62
:103C6200E4800B0102040810204080902368E47E67
:103C7200019360BCA3FF543F30E509541FFEE49357
:103C8200A360010ECF54C025E060A840B8E493A31E
:103C9200FAE493A3F8E493A3C8C582C8CAC583CA49
:103CA200F0A3C8C582C8CAC583CADFE9DEE780BE01
:01276C00006C
:100E8A00E709F608DFFA8046E709F208DFFA803E4A
:100E9A0088828C83E709F0A3DFFA8032E309F60837
:100EAA00DFFA8078E309F208DFFA807088828C839F
:100EBA00E309F0A3DFFA806489828A83E0A3F60853
:100ECA00DFFA805889828A83E0A3F208DFFA804C2D
:100EDA0080D280FA80C680D4806980F28033801004
:100EEA0080A680EA809A80A880DA80E280CA80336D
:100EFA0089828A83ECFAE493A3C8C582C8CCC583E5
:100F0A00CCF0A3C8C582C8CCC583CCDFE9DEE780B4
:100F1A000D89828A83E493A3F608DFF9ECFAA9F033
:100F2A00EDFB2289828A83ECFAE0A3C8C582C8CC89
:100F3A00C583CCF0A3C8C582C8CCC583CCDFEADEA2
:100F4A00E880DB89828A83E493A3F208DFF980CC04
:100F5A0088F0EF60010E4E60C388F0ED2402B404FD
:100F6A000050B9F582EB2402B4040050AF232345A4
:060F7A008223900EDA73E1
:100F8000BB010689828A83E0225002E722BBFE026F
:090F9000E32289828A83E49322A2
:100F9900BB010CE58229F582E5833AF583E022500D
:100FA90006E92582F8E622BBFE06E92582F8E22257
:0D0FB900E58229F582E5833AF583E4932271
:100FC600BB010689828A83F0225002F722BBFE010A
:020FD600F32204
:100FD800EF8DF0A4A8F0CF8CF0A428CE8DF0A42E2D
:020FE800FE22E7
:100FEA00BC000BBE0029EF8DF084FFADF022E4CCEB
:100FFA00F875F008EF2FFFEE33FEEC33FCEE9DECB4
:10100A00984005FCEE9DFE0FD5F0E9E4CEFD22EDF9
:10101A00F8F5F0EE8420D21CFEADF075F008EF2F43
:10102A00FFED33FD4007985006D5F0F222C398FD34
:05103A000FD5F0EA22D1
:10103F00C2D5EC30E709B2D5E4C39DFDE49CFCEECC
:10104F0030E715B2D5E4C39FFFE49EFE120FEAC34B
:10105F00E49DFDE49CFC8003120FEA30D507C3E446
:06106F009FFFE49EFE223B
:10107500A3F8E0C5F025F0F0E5821582700215832E
:06108500E0C838F0E8228B
:10108B00BB0110E58229F582E5833AF583E0F5F0A3
:10109B00A3E0225009E92582F886F008E622BBFE80
:1010AB000AE92582F8E2F5F008E222E5832AF583C6
:0810BB00E993F5F0A3E993228B
:1010C300E88FF0A4CC8BF0A42CFCE98EF0A42CFCCC
:1010D3008AF0EDA42CFCEA8EF0A4CDA8F08BF0A44A
:1010E3002DCC3825F0FDE98FF0A42CCD35F0FCEBA9
:1010F3008EF0A4FEA9F0EB8FF0A4CFC5F02ECD396E
:0F110300FEE43CFCEAA42DCE35F0FDE43CFC22DA
:103F0700C2D5E830E70FB2D5E4C39BFBE49AFAE4E5
:103F170099F9E498F8EC30E717B2D5123F3D121241
:103F2700A1E4C39BFBE49AFAE499F9E498F88003C7
:103F37001212A130D50DE4C39FFFE49EFEE49DFD60
:043F4700E49CFC22D8
:0E111200C3E49FFFE49EFEE49DFDE49CFC22EE
:10112000BB010789828A830211AE5005E9F80213D8
:1011300033BBFE05E9F802133F89828A830211BAA4
:10114000BB010DE58229F582E5833AF5830211AEF4
:101150005007E92582F8021333BBFE07E92582F820
:1011600002133FE58229F582E5833AF5830211BA3D
:10117000BB010789828A830212065005E9F802132F
:0A11800065BBFE05E9F802137122B9
:10118A00BB010DE58229F582E5833AF58302120651
:10119A005007E92582F8021365BBFE07E92582F8A4
:0411AA000213712299
:0C11AE00E0FCA3E0FDA3E0FEA3E0FF22B4
:1011BA00E493FC740193FD740293FE740393FF227B
:0C11CA00E0F8A3E0F9A3E0FAA3E0FB22A8
:1011D600E493F8740193F9740293FA740393FB226F
:1011E600BB010789828A830211CA5005E9F80213F6
:1011F6004BBBFE05E9F802135889828A830211D691
:0C120600ECF0A3EDF0A3EEF0A3EFF0225B
:10121200A8828583F0D083D0821212291212291259
:101222001229121229E473E493A3C583C5F0C5837E
:10123200C8C582C8F0A3C583C5F0C583C8C582C826
:011242002289
:0C124300A42582F582E5F03583F58322B6
:0C42C000EE30E707C3E49FFFE49EFE22FF
:1036AC00900601EBF0A3EAF0A3E9F0900601E0FB31
:1036BC00A3E0FAA3E0F9120F80FF124233500C90F2
:1036CC000602E475F00112124F80E0D20990060157
:1036DC00E0FBA3E0FAA3E0F9120F80FF642B600477
:1036EC00EFB42D1D900601E0FBA3E475F001121060
:1036FC0075A9F0FA120F80642D6003D38001C39278
:10370C0009E4900604F0A3F0900601E0FBA3E0FAB4
:10371C00A3E0F9120F80FF1242985042900601E08C
:10372C00FBA3E0FAA3E0F9120F80FF3395E0FEEF64
:10373C0024D0FBEE34FFFA900604E0FEA3E0FF7CFD
:10374C00007D0A120FD8EF2BFFEE3A900604F0A37F
:10375C00EFF0900602E475F00112124F80AA3009C6
:10376C000A900604E0FEA3E0FF800F900604E0FE42
:0B377C00A3E0FFC3E49FFFE49EFE22D9
:10124F00C5F0F8A3E028F0C5F0F8E582158270022A
:06125F001583E038F022C7
:1012650075F008758200EF2FFFEE33FECD33CDCC40
:1012750033CCC58233C5829BED9AEC99E5829840C3
:101285000CF582EE9BFEED9AFDEC99FC0FD5F0D6A0
:10129500E4CEFBE4CDFAE4CCF9A88222B800C1B9CA
:1012A5000059BA002DEC8BF084CFCECDFCE5F0CB08
:1012B500F97818EF2FFFEE33FEED33FDEC33FCEB41
:1012C50033FB10D703994004EB99FB0FD8E5E4F9FC
:1012D500FA227818EF2FFFEE33FEED33FDEC33FCE9
:1012E500C933C910D7059BE99A4007EC9BFCE99ADD
:1012F500F90FD8E0E4C9FAE4CCFB2275F010EF2F22
:10130500FFEE33FEED33FDCC33CCC833C810D70721
:101315009BEC9AE899400AED9BFDEC9AFCE899F85C
:0E1325000FD5F0DAE4CDFBE4CCFAE4C8F922EF
:0C133300E6FC08E6FD08E6FE08E6FF22E6
:0C133F00E2FC08E2FD08E2FE08E2FF22EA
:0D134B00E6FB08E6F908E6FA08E6CBF82212
:0D135800E2FB08E2F908E2FA08E2CBF82215
:0C136500ECF608EDF608EEF608EFF622B4
:0C137100ECF208EDF208EEF208EFF222B8
:0F429800EFC394304007EF943A50028001C322E5
:10423300EFC394094005EF940E4004EFB42003D379
:044243008001C32211
:00000001FF
