:102CDC004205BF00004205C3000044053B68686D17
:102CEC006D4405CE0000000041053F1E4405C600A2
:102CFC000000004205CC00004105D6004405D2007E
:0F2D0C000000004204DF00004404E368686D6DBE
:03000B000251900F
:10519000C0E0C083C082758A88758C969005CDE08A
:1051A00004F070069005CCE004F0D082D083D0E00B
:0151B00032CC
:03001B0002536825
:09536800B295758B88758D9632A3
:0300030002455162
:10455100C0E0C0F0C083C082C0D075D000C000C030
:1045610001C002C003C004C005C006C00720B20DCF
:10457100758A88758C96D28CD2A902462BC28CACD6
:104581008CE4120F209005D21213E59003C0121390
:10459100F1410000007F007E007D007C40123E3929
:1045A1009005D2E0F8A3E0F9A3E0FAA3E0FB120C36
:1045B100E6C004C005C006C007AC8AE4120F20D0D3
:1045C10003D002D001D000120BF57B007A88791656
:1045D10078C7120BF5E4FBFA79D87841120DEF9008
:1045E10005D21213E59005D2E0F8A3E0F9A3E0FAB1
:1045F100A3E0FBC000C001C002C0039005CCE0FEF7
:10460100A3E0FF7C037DE812118AAC06AD07E4123A
:104611000F1BD003D002D001D000120BF59005D2B0
:104621001213E59005CCE4F0A3F0D007D006D00535
:10463100D004D003D002D001D000D0D0D082D0831A
:05464100D0F0D0E032D2
:10001E009003CA7401F0E4A3F0A3F0A3F0A3F0A33D
:10002E00F0A3F09003ECF0A3F09003F01213F100A4
:10003E000000009005EDE4F0A304F0E49005E9F073
:10004E00A3F09005E7F0A3F09005EFF0A3F0F5B163
:10005E0075B2FF75B04C124E5912000E1253481263
:10006E0051F112504512533B1252A9438E80758A9C
:10007E0088758C96E4F589758B88758D96D28ED29F
:10008E00ABD2AF7D067F121252667FF47E01125202
:10009E00107D05E4FF1252667FF47E011252107F2E
:1000AE00017E001252947F68124CA97F68124CA9EF
:1000BE007F6D124CA97F6D124CA97F23124CA9E4BF
:1000CE009003EEF0A3F09003EEE0FAA3E0FBD394DE
:1000DE0014EA648094805074EBAE027802C333CE7F
:1000EE0033CED8F924E7F58274043EF5831213F16A
:1000FE0000000000AD03AC02EC120F1BE4FBFAF99A
:10010E007840120DEFE4FBFA79E07840120BF5C05F
:10011E0004C005C006C0079003EEE0FEA3E078021F
:10012E00C333CE33CED8F9246AF58274053EF583F7
:10013E00D007D006D005D0041213E59003EFE004EB
:10014E00F070839003EEE004F00200D41230DC7FF6
:10015E0008124F8A7F05124F8A7F50124CA97F4F8B
:10016E00124CA97F53124CA97F3A124CA99005CE7E
:10017E00E0FCA3E0FDA3E0FEA3E0FF123F9F7F6D36
:10018E00124CA97F6D124CA97F027E0012529490E0
:10019E0005C2E0FF12522E7F3A124CA99005C5E01F
:1001AE00FF12522E7F3A124CA99005D7E0547FFFD2
:1001BE0012522E7F3B124CA99005BEE0FF12522E1A
:1001CE009005C1E0FF12522E7F3B124CA99005EB19
:1001DE00E07002A3E060047F41800C9005EBE070BC
:1001EE0002A3E070057F4D124CA99005E9E0700264
:1001FE00A3E060649005EBE07002A3E0705A9005F6
:10020E00EDE0FEA3E0FFEE4F24FF92027F2A7E0078
:10021E00124FCA9005EDE07004A3E064019005CE84
:10022E007015E0FCA3E0FDA3E0FEA3E0FF7BCD7A1A
:10023E00CC79CC783E8013E0FCA3E0FDA3E0FEA3D6
:10024E00E0FF7BCD7ACC79CC78BE120BF59005CE43
:10025E001213E5E49003CAF09005E7E07002A3E004
:10026E00606A9005EBE07002A3E070609005EDE02F
:10027E00FEA3E0FFEE4F24FF92027F2A7E00124F74
:10028E00CA9005EDE07004A3E064019005CE7015F0
:10029E00E0FCA3E0FDA3E0FEA3E0FF7BCD7ACC79EA
:1002AE00CC783E8013E0FCA3E0FDA3E0FEA3E0FFCC
:1002BE007BCD7ACC79CC78BE120BF59005CE12138D
:1002CE00E5E49003CAF09005E7F0A3F030A3439065
:1002DE0003CAE0703DFFFEFDFC9005CEE0F8A3E002
:1002EE00F9A3E0FAA3E0FB120E8C600250249005F5
:1002FE00CE1213F1000000009003CA7401F0E490D6
:10030E0005E9F0A3F09005E7F0A3F09005EDF0A35A
:10031E0004F01253549003F77401F0A37405F0A384
:10032E0074C1F0A37401F0A37405F0A374C2F0A31A
:10033E007401F0A37405F0A374C5F0A37401F0A3C7
:10034E007405F0A374D7F07B017A0579BE124D9037
:10035E009005EBE07002A3E07003020B769005C5EA
:10036E00E0FF12525590053FE0FEEF8EF084E5F06F
:10037E0060030208059005D7E0547FFF125255EF37
:10038E0060030208059005C2E0FF125255EFD394A8
:10039E001040030207EF9005C2E0FF125255EFC363
:1003AE00940750030207EF9005BEE0FF9005C1E0F1
:1003BE00FDA3E0FB9005C5E09003F7F09005D7E0B4
:1003CE009003F8F0123468123CF97B717A6D79095A
:1003DE007844120CE67BF27A52795E7842120BF573
:1003EE009005D2E0F8A3E0F9A3E0FAA3E0FB120E29
:1003FE008C50030205239005C5E0FF125255AC0741
:10040E00E4120F20E4FBFA79707842120DEFC0046B
:10041E00C005C006C0079005C2E0FF125255AC07DA
:10042E00E4120F20D003D002D001D000120BF5E45D
:10043E00FBFA79E078C0120BF5E4FBFA797078429A
:10044E00120CE6C004C005C006C00790053FE0FCD4
:10045E00E4120F20A804A905AA06AB07D007D00600
:10046E00D005D004120DEF120F549005BFEEF0A37D
:10047E00EFF0E025E0FF9005BFE033FE74402FF56E
:10048E008274053EF583E4F0A304F09005BEE0FF10
:10049E009005C1E0FD9005C5E09003F7F09005D7FB
:1004AE00E09003F8F0A37401F0A37405F0A374CEEA
:1004BE00F0A37401F0A37403F0A374CFF0A374013E
:1004CE00F0A37403F0A374F0F0A37401F0A374030B
:1004DE00F0A374CDF0A37401F0A37405F0A374C659
:1004EE00F09005C2E0FB1237E8C004C005C006C09C
:1004FE00079005BFE0FEA3E07802C333CE33CED81B
:10050E00F924E7F58274043EF583D007D006D005B2
:10051E00D0041213E5E49005BFF0A3F0124D439002
:10052E0005C6E0FCA3E0FDA3E0FEA3E0FF9004D42B
:10053E001213E5E49004D8F07F021244567F327E07
:10054E00001250DA9005C6E0FCA3E0FDA3E0FEA386
:10055E00E02401FFE43EFEE43DFDE43CFC9005C6D4
:10056E001213E59005C0E004F070069005BFE0049C
:10057E00F0D39005C0E094439005BFE06480948171
:10058E00409A9005C5E0FF125255AC07E4120F20B9
:10059E00E4FBFA79707842120DEFC004C005C00674
:1005AE00C0079005C2E0FF125255AC07E4120F20AF
:1005BE00D003D002D001D000120BF5E4FBFA79E0A3
:1005CE0078C0120BF5E4FBFA79707842120CE6C093
:1005DE0004C005C006C00790053FE0FCE4120F20E2
:1005EE00A804A905AA06AB07D007D006D005D004EB
:1005FE00120DEF120F549005BFEEF0A3EFF0E025B1
:10060E00E0FF9005BFE033FE74402FF58274053E87
:10061E00F583E4F0A3F09005C5E090041BF090057F
:10062E00D7E090041CF0A37401F0A37405F0A3743A
:10063E00CEF09005BFE0FEA3E07802C333CE33CEFA
:10064E00D8F924E7F58274043EF583E0FCA3E0FDBF
:10065E00A3E0FEA3E0FF9004201213E59005C2E094
:10066E00FB9005C1E0FD9005BEE0FF121D34900524
:10067E00BFE0FEA3E07802C333CE33CED8F924E731
:10068E00F58274043EF583E0F8A3E0F9A3E0FAA343
:10069E00E0FB9005CEE0FCA3E0FDA3E0FEA3E0FFAF
:1006AE00120BF19003F01213E5E4FF125076900353
:1006BE00CFEEF0A3EFF09003CFE0FEA3E0FF9003A8
:1006CE00CDEEF0A3EFF09005BEE09003E1F09005C3
:1006DE00C1E09003E2F09005C2E09003E3F09005D4
:1006EE00C5E09003E4F0EF7802CEC313CE13D8F931
:1006FE009003E5F09005CEE0FCA3E0FDA3E0FEA3A1
:10070E00E0FF120F549003E6EFF0FCE4120F20A866
:10071E0004A905AA06AB079005CEE0FCA3E0FDA355
:10072E00E0FEA3E0FF120BF1E4FBFA79C878421267
:10073E000CE6120F549003E7EFF0E4FBFA798078A1
:10074E00409005D2E0FCA3E0FDA3E0FEA3E0FF1283
:10075E000DEF120F549003E8EFF09003CDE0FEA3DF
:10076E00E07802CEC313CE13D8F99003E9F09003CC
:10077E00F0E0FCA3E0FDA3E0FEA3E0FF120F549017
:10078E0003EAEFF0FCE4120F20A804A905AA06ABB9
:10079E00079003F0E0FCA3E0FDA3E0FEA3E0FF1250
:1007AE000BF1E4FBFA79C87842120CE6120F549062
:1007BE0003EBEFF07F327E001250DA78F47C037D8B
:1007CE00017B017A0379E17E007F0B12110C9003FD
:1007DE00FF7401F0A37405F0A374C6F0123B2880D9
:1007EE00169005C2E0FF125255EFC39411400890C7
:1007FE0003CBE4F0A304F09003CBE07002A3E0601F
:10080E00030209089005C2E0FF125255EFD394106F
:10081E004003020B769005C2E0FF125255EFC394CF
:10082E00075003020B769005C5E0FF125255AC0738
:10083E00E4120F20E4FBFA79707842120DEFC00437
:10084E00C005C006C0079005C2E0FF125255AC07A6
:10085E00E4120F20D003D002D001D000120BF5E429
:10086E00FBFA79E078C0120BF5E4FBFA7970784266
:10087E00120CE6C004C005C006C00790053FE0FCA0
:10088E00E4120F20A804A905AA06AB07D007D006CC
:10089E00D005D004120DEF120F549005BFEEF0A349
:1008AE00EFF09005C5E090041BF09005D7E09004A2
:1008BE001CF0A37401F0A37405F0A374CEF09005A0
:1008CE00BFE0FEA3E07802C333CE33CED8F924E7DF
:1008DE00F58274043EF583E0FCA3E0FDA3E0FEA3E5
:1008EE00E0FF9004201213E59005C2E0FB9005C1D5
:1008FE00E0FD9005BEE0FF020B739005C2E0FF1213
:10090E005255EFD394104003020B769005C2E0FFD0
:10091E00125255EFC394075003020B769005C5E0B3
:10092E00FF125255AC07E4120F20E4FBFA797078EF
:10093E0042120DEFC004C005C006C0079005C2E00C
:10094E00FF125255AC07E4120F20D003D002D00193
:10095E00D000120BF5E4FBFA79E078C0120BF5E447
:10096E00FBFA79707842120CE6C004C005C006C0CE
:10097E000790053FE0FCE4120F20A804A905AA0683
:10098E00AB07D007D006D005D004120DEF120F54CE
:10099E009005BFEEF0A3EFF09005BFE0FEA3E07868
:1009AE0002C333CE33CED8F9FBAA06246AF582747D
:1009BE00053AF583E0FCA3E0FDA3E0FEA3E0FF9083
:1009CE0003D11213E574E72BF58274043AF583E034
:1009DE00FCA3E0FDA3E0FEA3E0FF9003D51213E518
:1009EE009005BFE0FAA3E0FBAE027802C333CE332C
:1009FE00CED8F9246EF58274053EF583E0FCA3E0B3
:100A0E00FDA3E0FEA3E0FF9003D91213E5EB25E072
:100A1E00FFEA33FE74402FF58274053EF583E0FC49
:100A2E00A3E064014C6003020B1374422FF5827431
:100A3E00053EF583E0FEA3E064014E6003020B1356
:100A4E009005BFE0FEA3E07802C333CE33CED8F9D3
:100A5E0024EBF58274043EF583E0FCA3E0FDA3E0F5
:100A6E00FEA3E0FF9003DD1213E59005C5E0FF1233
:100A7E005255AC07E4120F20E4FBFA79707842125B
:100A8E000DEFC004C005C006C0079005C2E0FF12FE
:100A9E005255AC07E4120F20D003D002D001D00083
:100AAE00120BF59004B21213E578A27C047D017B43
:100ABE00017A0379D17E007F0812110C78AA7C048A
:100ACE007D017B017A0379D97E007F0812110C1209
:100ADE0046699004201213E59005BEE0FF9005C113
:100AEE00E0FD9005C5E090041BF09005D7E0900462
:100AFE001CF0A37401F0A37405F0A374CEF090055E
:100B0E00C2E0FB80607B017A0579409005BFE0FC76
:100B1E00A3E0FD125147EF7802C333CE33CED8F99E
:100B2E0024E7F58274043EF583E0FCA3E0FDA3E028
:100B3E00FEA3E0FF9004201213E59005BEE0FF90A7
:100B4E0005C1E0FD9005C5E090041BF09005D7E0CF
:100B5E0090041CF0A37401F0A37405F0A374CEF0FE
:100B6E009005C2E0FB121D349005C2E0FF125255F3
:100B7E00EFD3941050129005C2E0FF125255EFC3FE
:100B8E0094074004D2CD8002C2CD9005EFE07004F0
:100B9E00A3E06401600302015A12535E7F017E00DE
:100BAE001252947F43124CA97F4C124CA97F4512CE
:100BBE004CA97F41124CA97F52124CA9124D4312DF
:100BCE004DFF7F057E001250DA9005C61213F1001C
:100BDE00000000E49005EFF0A3F012535E02015AFC
:0652D300D2A27F017E0063
:0E52D900EF1FAC0670011E4C60030080F32234
:0251B100AD0748
:1051B300E4FBC2A2ED30E704D2A18002C2A11252E5
:0D51C300D51252D3ED25E0FD0BEBB408E54D
:0151D00022BC
:1051D100E4FDD2A1FBED25E0FDC2A21252D530A122
:0F51E10004ED4401FD1252D30BEBB408E8AF0507
:0151F000229C
:1052FB00E4FED2A0EF44A0FF1251B11251D1C2A0D3
:01530B00227F
:10526600AA07D2A0ED4420FF1251B1AF021251B1EC
:08527600AF021251B1C2A022E7
:0D000E005395F85396F8D2A0C2A0C2A222CA
:104D90009003F4EBF0A3EAF0A3E9F07F091252FBD1
:104DA0009003F4E0FBA3E0FAA3E0F9EF1211787F9F
:104DB000071252FB9003F7E0FBA3E0FAA3E0F9EF40
:104DC0001211787F061252FB9003FAE0FBA3E0FA7F
:104DD000A3E0F9EF1211787F051252FB9003FDE07A
:104DE000FBA3E0FAA3E0F9EF1211787F041252FB63
:0F4DF000900400E0FBA3E0FAA3E0F9EF021178D2
:10530C00EFC4540FFEEF540FFFEE75F00AA42FFFFD
:01531C00226E
:104C1D0012530CAC07AF0512530CEC14B40C00502E
:104C2D0073904C3C75F003A4C58325F0C5837302C6
:104C3D004C60024C63024C68024C6D024C72024C8B
:104C4D0077024C7C024C81024C86024C8E024C93B6
:104C5D00024C987E0022EF241F8021EF243B801C04
:104C6D00EF245A8017EF24788012EF2497800DEFF0
:104C7D0024B58008EF24D48003EF24F3FFE433FE42
:104C8D0022EF24118008EF24308003EF244EFFE43F
:074C9D003401FE22E4FEFFDA
:014CA40022ED
:104E5900E4F5917592FF7F96FE1251727F03124F0E
:104E69008A7F1E7E001251727F03124F8A12516E81
:104E79007F03124F8A12516E7F02124F8A7F017E81
:104E8900001251727F02124F8A7F08124F8AE4FF83
:104E9900124F8A7F0E124F8AE4FF124F8A7F061241
:094EA9004F8A7F147E0002517251
:044CA500E04430FFB8
:104CA9009004DEEFF0D2C0C293E0FF5480C4131326
:104CB90013540124FF92B7EF5440C413135403242F
:104CC900FF92B6E0FF5420C413540724FF92B5EFB6
:104CD9005410C4540F24FF92B4D2B37F017E001242
:104CE9005172C2B39004DEE0FF5408131313541F2A
:104CF90024FF92B7EF54041313543F24FF92B6E0F4
:104D0900FF5402C31324FF92B5EF1392B412516CEE
:054D1900C2B3C2C0227C
:104F8A00C2C0C293EF5408131313541F6004D2B75C
:104F9A008002C2B7EF54041313543F6004D2B680A0
:104FAA0002C2B6EF5402C3136004D2B58002C2B57E
:104FBA00EF30E004D2B48002C2B412516CC2B32200
:06516C00D2B37F0A7E00B1
:10517200EF1FAA0670011E4A6013E4FCFDC3ED9402
:0D51820058EC940250EA0DBD00010C80F0C5
:01518F0022FD
:10522E00EFC4540F4430FEEF540F44309003F4F0AB
:0D523E00AF06124CA99003F4E0FF024CA94A
:0A535400E4FF124F8A7F02024F8A25
:0A535E00E4FF124F8A7F01024F8A1C
:10529400EF64014E70047F0880027F0C124F8AE491
:0552A400FF124F8A22F9
:063F9F009004D31213E5AB
:103FA5009004D3E0FCA3E0FDA3E0FEA3E0FF120F25
:103FB500541252E79004DCEEF0A3EFF0E4FFFEFDAF
:103FC500FC9004D3E0F8A3E0F9A3E0FAA3E0FB1228
:103FD5000E8C602640249004DCE0FCA3E0FDEC128E
:103FE5000F1BA804A905AA06AB079004D3E0FCA300
:103FF500E0FDA3E0FEA3E0FF80359004D3E0FCA341
:10400500E0FDA3E0FEA3E0FF120F05C004C005C05C
:1040150006C0079004DCE0FCA3E0FDEC120F1BA832
:1040250004A905AA06AB07D007D006D005D004120F
:104035000BF1E4FBFA79207841120CE6120F54904B
:1040450004DBEFF09004DCE0FAA3E0FB7C007D0AE2
:10405500FFAE021211F19004D7EDF07C037DE8AFBD
:1040650003AE021211F1A9079004DAE9F07E007C93
:10407500037DE812118AC39004DDE09FFB9004DC08
:10408500E09EFA7C007D64AF03FE12119C9004D97A
:10409500EFF0E075F064A4FFC3EB9FFFEA95F0FE37
:1040A5007C007D0A12119C9004D8EFF0E4FFFEFD20
:1040B500FC9004D3E0F8A3E0F9A3E0FAA3E0FB1237
:1040C5000E8C400280057F2D124CA99004DA124C0B
:1040D500A59004D9124CA59004D8124CA59004D7EC
:0E40E500124CA57F2E124CA99004DB124CA5A4
:0140F30022AA
:1052E700D3EF9400EE64809480400122C3E49FFFD3
:0452F700E49EFE2211
:102D1B004205E900004205E700004205ED000042D4
:0D2D2B0005EB00004205EF00004105D80057
:10521000EF1FAA0670011E4A6013E4FCFDC3ED9463
:0D52200058EC940250EA0DBD00010C80F026
:01522D00225E
:10399B0053801E43801EE58044E19003FAF0E0F46F
:1039AB007003023B25E58044E1F0E0F47003023B39
:1039BB00225380DF4380C1E58044E1F0E0F46047AF
:1039CB009003FAE0FFF4600DA3EFF0E58044E19083
:1039DB0003FAF080EB9003FBE02411602424F860E1
:1039EB001824FC600C24FE701E9003FC7401F08004
:1039FB00169003FC7404F0800E9003FC7407F080A7
:103A0B00069003FC740CF05380BF4380A1E5804407
:103A1B00E19003FAF0E0F460469003FAE0FFF46003
:103A2B000DA3EFF0E58044E19003FAF080EB9003F7
:103A3B00FBE02411602424F8601824FC600C24FEA5
:103A4B00701D9003FC7402F080159003FC7405F05C
:103A5B00800D9003FC7408F08005E49003FCF05398
:103A6B00807F438061E58044E19003FAF0E0F460ED
:103A7B00479003FAE0FFF4600DA3EFF0E58044E11B
:103A8B009003FAF080EB9003FBE02411602424F800
:103A9B00601824FC600C24FE701E9003FC7403F071
:103AAB0080169003FC7406F0800E9003FC7409F0F2
:103ABB0080069003FC740BF05380FE4380E0E5809E
:103ACB0044E19003FAF0E0F460479003FAE0FFF46E
:103ADB00600DA3EFF0E58044E19003FAF080EB90EA
:103AEB0003FBE02411602424F8601824FC600C24F0
:103AFB00FE701E9003FC740DF080169003FC740E88
:103B0B00F0800E9003FC740FF080069003FC741091
:0C3B1B00F09003FCE0FF227F64227F6436
:013B2700227B
:1030DC009005DBE0FFA3E09005D9CFF0A3EFF01251
:1030EC00399B7E009005DBEEF0A3EFF0640E7006CA
:1030FC009005E70231899005D9E0FEA3E0FF6464F6
:10310C004E7020A3E07004A3E0640F70169005EDE0
:10311C00E07002A3E06006E49005ED80589005EDA8
:10312C00E4805A9005DBE0FCA3E0FD64104C700FCA
:10313C009005E9E07002A3E070059005E9803EED92
:10314C0064104C70109005E9E07002A3E06006E496
:10315C009005E98020EF64644E70279005DBE070E9
:10316C0004A3E0640D701B9005EBE07002A3E0601B
:10317C0008E49005EBF0A3F0229005EBE4F0A30437
:10318C00F0229005D9E07004A3E06464600302347B
:10319C00679005DBE0FCA3E0FD64644C7003023433
:1031AC00679005D8E0FF3395E0FEEF25E0FFEE33A6
:1031BC00FE74DD2FF58274053EF583ECF0A3EDF083
:1031CC009005D8E004F0E064056003023405F0904B
:1031DC0005E5E07004A3E0640B70749005DDE0FE7F
:1031EC00A3E0FF7C007D0A12118A9005E0E02FFF1E
:1031FC009005DFE03EAB07FA9005E1E0FEA3E0FFAF
:10320C0012118A9005E4E02FFF9005E3E03EFED317
:10321C00EB9418EA94004003023394EF943CEE9440
:10322C000040030233949005DDA3E0C454F0FFA3E7
:10323C00A3E04FFF7D061252669005E1A3E0C45453
:10324C00F0FFA3A3E04FFF7D0512526602338B9073
:10325C0005E5E07004A3E0640C6003023394900570
:10326C00DDE0FEA3E0FF7C007D0A12118A9005E0F0
:10327C00E02FFF9005DFE03E9003F6F0FAA3EFF0AD
:10328C00FB9005E1E0FEA3E0FF12118A9005E4E05B
:10329C002FFF9005E3E03E9003F8F0A3EFF0D3EBA3
:1032AC009407EA9400507B9003F7E030E0239003FE
:1032BC00F9E0941F9003F8E09400400302338B90E4
:1032CC0005DDA3E0C454F0FFA3A3E04FFF1D0233C0
:1032DC00759003F6E07004A3E064027024D39003AD
:1032EC00F9E0941C9003F8E09400400302338B90B7
:1032FC0005DDA3E0C454F0FFA3A3E04FFF7D0980DC
:10330C0068D39003F9E0941E9003F8E09400506F9A
:10331C009005DDA3E0C454F0FFA3A3E04FFF7D09AB
:10332C0080479003F7E020E021D39003F9E0941F4D
:10333C009003F8E0940050479005DDA3E0C454F0EE
:10334C00FFA3A3E04FFF7D09801FD39003F9E09406
:10335C001E9003F8E0940050269005DDA3E0C454C1
:10336C00F0FFA3A3E04FFF7D091252669005E1A385
:10337C00E0C454F0FFA3A3E04FFF7D071252669008
:10338C0005E5E4F0A37464F09005DDE07004A3E0BF
:10339C00640970359005DFE07004A3E064097029BE
:1033AC009005E1E07004A3E06409701D9005E3E072
:1033BC007004A3E0640970119005E5E07002A3E0CD
:1033CC0070079005EFF0A304F09005EFE07002A3F6
:1033DC00E0702612535E7F08124F8AE4FF124F8A68
:1033EC007F68124CA97F68124CA97F6D124CA97F83
:1033FC006D124CA97F23124CA9E49003F4F0A3F0B6
:10340C009005D8E0FFFD3395E0FCC39003F5E09DFB
:10341C009003F4E09C5044EF64809484502D7F081A
:10342C00124F8A9003F4A3E0FF124F8A9003F5E049
:10343C0025E0FF9003F4E033FE74DD2FF582740574
:10344C003EF583A3E04430FF124CA99003F5E00451
:0B345C00F070AD9003F4E004F080A5D8
:013467002242
:0C534800759300759400E4F594F5932231
:102D38006028013043340000433E0000434800004F
:102D480043520000435C00004366000043700000EB
:102D5800437A00004382000043870000602800A4F3
:102D680043340000432A00004320000043160000BB
:102D7800430C00004302000042F0000042DC000067
:102D880042C8000042B400006258016042EFA3D775
:102D980042EF385242EDB33342ECC28F42EAE14887
:102DA80042E8385242E03D7142D170A4429B75C35B
:102DB80042BEA8F642D5F0A442D5C7AE42D43333BA
:102DC80042D08F5C42CAD70A42C1F5C342B2947B53
:102DD8004290051F41F428F6C2AC4CCD42BD051FF8
:102DE80042BC2E1442B9385242B3947B42AB947B16
:102DF800429C4CCD428338524221F5C3C17051ECFC
:102E0800C2DB385242A3E66642A2BD71429E3D71C2
:102E1800429675C3428ADC29426BD70A422B333368
:102E28004143851FC22FAE14C2EEF5C3428A6B859B
:102E38004288A8F642834CCD42728F5C4252CCCD78
:102E48004221E14841AA51ECC130F5C3C27B28F6C2
:102E5800C2F9947B425D47AE425A1EB8424E3D715C
:102E68004237D70A4214666641B95C293FF851ECEB
:102E7800C1F228F6C2959EB8C2FC28F64227EB8517
:102E88004223B8524216333341FBD70A41A628F6EB
:102E980040CE6666C1770A3DC235147BC2A733337C
:102EA800C2FECCCD41E28F5C41D7EB8541B9851F8D
:102EB80041830A3D40C1999AC112E148C1F370A407
:102EC800C265D70AC2B6199AC2FFA8F64161999A93
:102ED800414E147B410CCCCD00000000C107AE145C
:102EE800C1BC28F6C22C147BC2884CCDC2C1CCCD43
:102EF800C2FEAE140000000000000000C0B80000D0
:102F0800C142E148C1B55C29C212851FC25AE148D5
:102F1800C299C28FC2CA9EB8C2FF75C3C162B852F5
:102F2800C170CCCDC1991EB8C1D2F5C3C210E14859
:102F3800C242E148C282F0A4C2A7C7AEC2D22E14D0
:102F4800C2FEFAE1C1E1D70AC1EC51ECC204EB853B
:102F5800C21E70A4C240EB85C2705C29C295428F24
:102F6800C2B5C28FC2D9428FC2FF147BC228851F47
:102F7800C22C5C29C2397AE1C250A3D7C2716666F5
:102F8800C28D0A3DC2A56148C2C18F5CC2DF947B75
:102F9800C2FF851FC25E147BC261999AC26F28F670
:102FA800C282051FC28F2E14C2A05C29C2B4C7AE4C
:102FB800C2CBD1ECC2E551ECC2FFE666C28A199ACF
:102FC800C28C47AEC290D1ECC2990F5CC2A46148D2
:102FD800C2B2947BC2C36148C2D5A3D7C2EA0F5C10
:102FE800C3000F5C603C00F4400CCCCD40DCCCCD81
:102FF8004139999A4182666641A8000041CD999A63
:1030080041F33333420C6666421F333342320000C9
:103018004244CCCD4257999A426A6666427D333320
:103028004288000060A00004C1E1D70AC1EC51EC5D
:10303800C204EB85C21E70A4C240EB85C2705C2935
:10304800C295428FC2B5C28FC2D9428FC2FF147BCC
:10305800C228851FC22C5C29C2397AE1C250A3D785
:10306800C2716666C28D0A3DC2A56148C2C18F5C45
:10307800C2DF947BC2FF851FC25E147BC261999A2E
:10308800C26F28F6C282051FC28F2E14C2A05C2907
:10309800C2B4C7AEC2CBD1ECC2E551ECC2FFE66602
:1030A800C28A199AC28C47AEC290D1ECC2990F5C01
:1030B800C2A46148C2B2947BC2C36148C2D5A3D737
:1030C800C2EA0F5CC3000F5C440000C0A0000041CE
:0330D80000D40021
:1052A9009001581213F1C2932E1490015C1213F15C
:0552B90042360A3D220F
:0A524B001213E590041CE0547FFFED
:10525500EFC4540FFEEF540FFFEE75F00AA42FFFB5
:015265002226
:0100060022D7
:104EB2009000EC30031A7404F07B017A0079E71257
:104EC20047C47F027E001252109000EC74068018D4
:104ED2007405F07B017A0079E71247C47F027E00F5
:104EE2001252109000EC7407F07B017A0079E712FD
:0A4EF20047C47F027E001252102216
:084FCA009004D7EEF0A3EFF014
:104FD200E4A3F0A3F09004D9F0A3F09004D7E0FE8C
:104FE200A3E0FFC39004DAE09F9004D9E09E50173B
:104FF200A2029203124EB29004DAE004F070DC9046
:0750020004D9E004F080D4A2
:015009002284
:0650F8009004D31213E541
:1050FE00E4FFFE7DD07C429004D3E0F8A3E0F9A358
:10510E00E0FAA3E0FB120CE6120F54A20192020287
:02511E004FCA76
:1046460078AA7C047D017B017E007F0812110C9004
:104656000446E0FCA3E0FDA3E0FEA3E0FF9004B265
:034666001213E547
:104669009004B2E0F8A3E0F9A3E0FAA3E0FB900418
:10467900A2E0FCA3E0FDA3E0FEA3E0FF120BF11210
:104689000F05C004C005C006C0079004AAE0F8A33E
:10469900E0F9A3E0FAA3E0FB9004A2E0FCA3E0FDAB
:1046A900A3E0FEA3E0FF120BF1A804A905AA06AB3B
:1046B90007D007D006D005D004120DEFC004C005FD
:1046C900C006C0079004AEE0F8A3E0F9A3E0FAA39E
:1046D900E0FB9004A6E0FCA3E0FDA3E0FEA3E0FF5D
:1046E900120BF1D003D002D001D000120CE69004D5
:0F46F900A6E0F8A3E0F9A3E0FAA3E0FB120BF5AB
:01470800228E
:06237A009004461213E579
:1023800090048A1213F100000000E490048EF0A380
:10239000F090048EE0FEA3E0FFC3940AEE64809404
:1023A000804003022707EF7802C333CE33CED8F93B
:1023B0002434F58274013EF583E0FCA3E0FDA3E044
:1023C000FEA3E0FF900446E0F8A3E0F9A3E0FAA33F
:1023D000E0FB120E8C6005400302254B90048EE05A
:1023E000FEA3E07802C333CE33CED8F92430F58291
:1023F00074013EF583E0FCA3E0FDA3E0FEA3E0FF53
:10240000900446E0F8A3E0F9A3E0FAA3E0FB120E83
:102410008C500302254BE4900490F0A3F090048EBE
:10242000E0FEA3E07802C333CE33CED8F9FBAA0690
:102430002430F58274013AF583E0FCA3E0FDA3E0CB
:10244000FEA3E0FF9004921213E574342BF582741E
:10245000013AF583E0FCA3E0FDA3E0FEA3E0FF90DA
:10246000049A1213E590048EE0FEA3E07802C333D1
:10247000CE33CED8F9FBAA06900490E0FEA3E090FC
:10248000016075F02812143CEE75F028A42583F540
:1024900083E5822BF582E5833AF583E0FCA3E0FD3A
:1024A000A3E0FEA3E0FF9004961213E5900490E0F1
:1024B000FEA3E090016475F02812143CEE75F0283C
:1024C000A42583F583E5822BF582E5833AF583E045
:1024D000FCA3E0FDA3E0FEA3E0FF90049E1213E541
:1024E00078A27C047D017B017A0479927E007F08CA
:1024F00012110C7A04799A124646C004C005C0062F
:10250000C007900490E0FEA3E07802C333CE33CE40
:10251000D8F9244EF58274043EF583D007D006D056
:1025200005D0041213E5900491E004F070069004C5
:1025300090E004F0C3900491E0940F900490E06464
:10254000809480500302241D0226F390048EE0FE46
:10255000A3E07802C333CE33CED8F924A8F5827431
:10256000003EF583E0FCA3E0FDA3E0FEA3E0FF90C6
:102570000446E0F8A3E0F9A3E0FAA3E0FB120E8C16
:1025800050030226F390048EE0FEA3E07802C333EA
:10259000CE33CED8F924A4F58274003EF583E0FC56
:1025A000A3E0FDA3E0FEA3E0FF900446E0F8A3E073
:1025B000F9A3E0FAA3E0FB120E8C600540030226AB
:1025C000F3E4900490F0A3F090048EE0FEA3E07892
:1025D00002C333CE33CED8F9FBAA0624A4F5827405
:1025E000003AF583E0FCA3E0FDA3E0FEA3E0FF904A
:1025F00004921213E574A82BF58274003AF583E077
:10260000FCA3E0FDA3E0FEA3E0FF90049A1213E513
:1026100090048EE0FEA3E07802C333CE33CED8F927
:10262000FBAA06900490E0FEA3E090016075F028FC
:1026300012143CEE75F028A42583F583E5822BF572
:1026400082E5833AF583E0FCA3E0FDA3E0FEA3E08E
:10265000FF9004961213E5900490E0FEA3E0900131
:102660006475F02812143CEE75F028A42583F583D8
:10267000E5822BF582E5833AF583E0FCA3E0FDA338
:10268000E0FEA3E0FF90049E1213E578A27C047D97
:10269000017B017A04799A7E007F0812110C7A047A
:1026A0007992124646C004C005C006C00790049047
:1026B000E0FEA3E07802C333CE33CED8F9244EF542
:1026C0008274043EF583D007D006D005D0041213DF
:1026D000E5900491E004F07006900490E004F0C3EB
:1026E000900491E0940F900490E0648094805003F3
:1026F0000225C890048FE004F06003022391900447
:102700008EE004F0022391E490048EF0A3F0900494
:102710008EE0FEA3E0FFC3940FEE6480948040033C
:10272000022866EF7802C333CE33CED8F924F4F50D
:102730008274003EF583E0FCA3E0FDA3E0FEA3E08D
:10274000FF90044AE0F8A3E0F9A3E0FAA3E0FB124B
:102750000E8C500302285590048EE0FEA3E0780210
:10276000C333CE33CED8F924F8F58274003EF58316
:10277000E0FCA3E0FDA3E0FEA3E0FF90044AE0F844
:10278000A3E0F9A3E0FAA3E0FB120E8C600540037E
:1027900002285590048EE0FEA3E07802C333CE33C6
:1027A000CED8F9FBAA0624F4F58274003AF583E04A
:1027B000FCA3E0FDA3E0FEA3E0FF9004921213E56A
:1027C00074F82BF58274003AF583E0FCA3E0FDA3D6
:1027D000E0FEA3E0FF90049A1213E590048EE0FE61
:1027E000A3E07802C333CE33CED8F9FBAA06244E39
:1027F000F58274043AF583E0FCA3E0FDA3E0FEA3B8
:10280000E0FF9004961213E574522BF58274043A9B
:10281000F583E0FCA3E0FDA3E0FEA3E0FF90049EAF
:102820001213E578A27C047D017B017A0479927E03
:10283000007F0812110C78AA7C047D017B017A04C8
:10284000799A7E007F0812110C90044A1246589023
:10285000048A1213E590048FE004F0700690048E51
:10286000E004F002270E90048AE0FCA3E0FDA3E060
:04287000FEA3E0FFE4
:012874002241
:091D340090041AEBF0AA05A907BE
:101D3D00E4900426F0A3F0A3F0A3F0A31213F10096
:101D4D0000000090042E1213F100000000900432E8
:101D5D001213F1000000009004421213F1C0A00014
:101D6D00009000D57407F0A374E3F0AF0112525543
:101D7D00A3E4F0A3EFF0AF02125255A3E4F0A3EFEA
:101D8D00F090041AE0FF125255EF2405FDE433FCE8
:101D9D00E4120F1B9000DB1213E590041BE0FF1201
:101DAD005255AC07E4120F209000DF12524BAC07D6
:101DBD00E4120F209000E31213E590041DE0FBA345
:101DCD00E0FAA3E0F91212FF90042A1213E5784607
:101DDD007C047D017B017A0079D57E007F12121182
:101DED000C78587C047D017B017A0179587E007F47
:101DFD000812110C9004607401F0A37400F0A37428
:101E0D00F1F0121592E4FBFA79347843120CE67B6B
:101E1D00D07A0F79497840120DEF9000CC1213E56E
:101E2D009000DAE024AFFF9000D9E034FFFE7C0192
:101E3D007D6812118A7D6D1211F1EF25E0FDEE33F3
:101E4D00FC120F1B7BD07A0F79497840120CE6E417
:101E5D00FBFA79347843120DEF123D0F7B857AEB47
:101E6D00791D7841120CE6C004C005C006C007E418
:101E7D00FFFE7D707C41900442E0F8A3E0F9A3E001
:101E8D00FAA3E0FB120CE6A804A905AA06AB07907D
:101E9D000158E0FCA3E0FDA3E0FEA3E0FF120BF16F
:101EAD00E4FBFA79807840120CE6D003D002D00121
:101EBD00D000120BF5C004C005C006C0079000DAB3
:101ECD00E024AFFF9000D9E034FFFE7C017D681265
:101EDD00118A7D6D1211F1AC06AD07EC120F1B7B53
:101EED00D07A0F79497840120CE6E4FBFA79347810
:101EFD0043120DEF123CF97BC37AF579F07840125D
:101F0D000CE6A804A905AA06AB07D007D006D00594
:101F1D00D004120BF1C004C005C006C0079000DA52
:101F2D00E024AFFF9000D9E034FFFE7C017D681204
:101F3D00118A7D6D1211F1AC06AD07EC120F1B7BF2
:101F4D00D07A0F79497840120CE6E4FBFA793478AF
:101F5D0043120DEF123D0FE4FBFA79C0783F120CDE
:101F6D00E6A804A905AA06AB07D007D006D005D070
:101F7D0004120BF1E4FBFA79707842120DEF900424
:101F8D003E1213E590041BE0FF125255AC07E4120C
:101F9D000F20E4FBFA79707842120DEFC004C005F2
:101FAD00C006C00790041AE0FF125255AC07E412A8
:101FBD000F20D003D002D001D000120BF590043EBB
:101FCD00E0F8A3E0F9A3E0FAA3E0FB120BF5900013
:101FDD00ED1213E57FD07E0F7D497C409000CCE063
:101FED00F8A3E0F9A3E0FAA3E0FB120CE6E4FBFA98
:101FFD0079347843120DEF123CF9C004C005C006C8
:10200D00C0077FD07E0F7D497C4090015CE0F8A336
:10201D00E0F9A3E0FAA3E0FB120CE6E4FBFA793455
:10202D007843120DEF123CF9D003D002D001D0004D
:10203D00120CE6C004C005C006C007E4FFFE7D40DB
:10204D007CC19000EDE0F8A3E0F9A3E0FAA3E0FB7A
:10205D00120BF57BD37A7E793C7842120CE6E4FBC9
:10206D00FA79347843120DEF123CF9D003D002D037
:10207D0001D000120CE6C004C005C006C0077FD019
:10208D007E0F7D497C409000CCE0F8A3E0F9A3E001
:10209D00FAA3E0FB120CE6E4FBFA79347843120D57
:1020AD00EF123D0FC004C005C006C0077FD07E0FE4
:1020BD007D497C4090015CE0F8A3E0F9A3E0FAA330
:1020CD00E0FB120CE6E4FBFA79347843120DEF12C3
:1020DD003D0FD003D002D001D000120CE6D003D0BA
:1020ED0002D001D000120BF512500A7BED7A2E7939
:1020FD00657842120CE69004361213E5E4FFFE7D7E
:10210D00407CC19000EDE0F8A3E0F9A3E0FAA3E074
:10211D00FB120BF57BD37A7E793C7842120CE6E408
:10212D00FBFA79347843120DEF123D0FC004C00550
:10213D00C006C0077FD07E0F7D497C409000CCE06B
:10214D00F8A3E0F9A3E0FAA3E0FB120CE6E4FBFA36
:10215D0079347843120DEF123CF9D003D002D0013F
:10216D00D000120CE6C004C005C006C007900436AE
:10217D00E0F8A3E0F9A3E0FAA3E0FBE4FFFE7DB4F1
:10218D007C42120BF17BD07A0F79497840120CE624
:10219D00E4FBFA79347843120DEF123D0FA804A930
:1021AD0005AA06AB07D007D006D005D004120DEF57
:1021BD0012500A7BED7A2E79657842120CE6E4FB1B
:1021CD00FA79347843120BF590043A12524BEF30F2
:1021DD00E0030223797FCD7ECC7D0C7C40900436CC
:1021ED00E0F8A3E0F9A3E0FAA3E0FB120E8C500394
:1021FD00022379E4FFFE7D887C42900436E0F8A34B
:10220D00E0F9A3E0FAA3E0FB120E8C600540030297
:10221D002379900436E0FCA3E0FDA3E0FEA3E0FFEC
:10222D0090044A1213E590043AE0FCA3E0FDA3E00C
:10223D00FEA3E0FF12237A9004321213E5E4FFFEB1
:10224D007D167C43900432E0F8A3E0F9A3E0FAA3F5
:10225D00E0FB120BF5900420E0F8A3E0F9A3E0FAFF
:10226D00A3E0FB120BF590042A1213E590041DE078
:10227D00FBA3E0FAA3E0F91213C590042AE0FCA336
:10228D00E0FDA3E0FEA3E0FF120BF190042E12136C
:10229D00E590042EE0FCA3E0FDA3E0FEA3E0FF1219
:1022AD000F541252E7AC06AD07EC120F1BE4FBFA0C
:1022BD00F9783F120E8C60054003022379E4FFFE8E
:1022CD007D707CC190042AE0F8A3E0F9A3E0FAA3A5
:1022DD00E0FB120E8C5003022379E4FFFE7D527C4D
:1022ED004390042AE0F8A3E0F9A3E0FAA3E0FB127F
:1022FD000E8C60025076E4FFFEFDFC90042EE0F89B
:10230D00A3E0F9A3E0FAA3E0FB120E8C60144012D7
:10231D0090042EE0FCA3E0FDA3E0FEA3E0FFD201BC
:10232D00802BE4FFFEFDFC90042EE0F8A3E0F9A362
:10233D00E0FAA3E0FB120E8C501690042EE0FCA3E5
:10234D00E0FDA3E0FEA3E0FF120F05C2011250F85D
:10235D0090042AE0FCA3E0FDA3E0FEA3E0FF9004BF
:0C236D001DE0FBA3E0FAA3E0F912134FFF
:012379002241
:103468009003F6EBF09000D57407F0A374E3F01224
:103478005255A3E4F0A3EFF0AF05125255A3E4F0C0
:10348800A3EFF09003F6E0FF125255EF2405FDE498
:1034980033FCE4120F1B9000DB1213E59003F7E0F6
:1034A800FF125255AC07E4120F209000DF1213E50B
:1034B8009003F8125251AC07E4120F209000E31267
:1034C80013E578467C047D017B017A0079D57E007E
:1034D8007F1212110C78587C047D017B017A0179E6
:1034E800587E007F0812110C9004607401F0A374D8
:1034F80000F0A374F1F0121592E4FBFA79347843E2
:10350800120CE67BD07A0F79497840120DEF9000C3
:10351800CC1213E59000DAE024AFFF9000D9E03434
:10352800FFFE7C017D6812118A7D6D1211F1EF2575
:10353800E0FDEE33FC120F1B7BD07A0F79497840FF
:10354800120CE6E4FBFA79347843120DEF123D0FC2
:103558007B857AEB791D7841120CE6C004C005C062
:1035680006C007E4FFFE7D707C41900000E0F8A3F0
:10357800E0F9A3E0FAA3E0FB120CE6A804A905AA67
:1035880006AB07900158E0FCA3E0FDA3E0FEA3E032
:10359800FF120BF1E4FBFA79807840120CE6D003B5
:1035A800D002D001D000120BF5C004C005C006C07F
:1035B800079000DAE024AFFF9000D9E034FFFE7CEA
:1035C800017D6812118A7D6D1211F1AC06AD07EC10
:1035D800120F1B7BD07A0F79497840120CE6E4FB76
:1035E800FA79347843120DEF123CF97BC37AF579F6
:1035F800F07840120CE6A804A905AA06AB07D00784
:10360800D006D005D004120BF1C004C005C006C016
:10361800079000DAE024AFFF9000D9E034FFFE7C89
:10362800017D6812118A7D6D1211F1AC06AD07ECAF
:10363800120F1B7BD07A0F79497840120CE6E4FB15
:10364800FA79347843120DEF123D0FE4FBFA79C092
:10365800783F120CE6A804A905AA06AB07D007D044
:1036680006D005D004120BF1E4FBFA797078421207
:103678000DEF9000D01213E59003F7E0FF125255BA
:10368800AC07E4120F20E4FBFA79707842120DEFD0
:10369800C004C005C006C0079003F6E0FF125255EB
:1036A800AC07E4120F20D003D002D001D000120BD7
:1036B800F59000D0E0F8A3E0F9A3E0FAA3E0FB124C
:1036C8000BF59000ED1213E57FD07E0F7D497C400D
:1036D8009000CCE0F8A3E0F9A3E0FAA3E0FB120C19
:1036E800E6E4FBFA79347843120DEF123CF9C00492
:1036F800C005C006C0077FD07E0F7D497C40900181
:103708005CE0F8A3E0F9A3E0FAA3E0FB120CE6E41E
:10371800FBFA79347843120DEF123CF9D003D0024A
:10372800D001D000120CE6C004C005C006C007E4F2
:10373800FFFE7D407CC19000EDE0F8A3E0F9A3E036
:10374800FAA3E0FB120BF57BD37A7E793C78421220
:103758000CE6E4FBFA79347843120DEF123CF9D009
:1037680003D002D001D000120CE6C004C005C00688
:10377800C0077FD07E0F7D497C409000CCE0F8A345
:10378800E0F9A3E0FAA3E0FB120CE6E4FBFA7934D3
:103798007843120DEF123D0FC004C005C006C007E4
:1037A8007FD07E0F7D497C4090015CE0F8A3E0F972
:1037B800A3E0FAA3E0FB120CE6E4FBFA79347843C1
:1037C800120DEF123D0FD003D002D001D000120C21
:1037D800E6D003D002D001D000120BF512500A2215
:10159200E4FBFA79707842900454E0FCA3E0FDA3E6
:1015A200E0FEA3E0FF120DEF900450E0F8A3E0F993
:1015B200A3E0FAA3E0FB120BF5E4FBFA79707842A0
:1015C200120DEF90044CE0F8A3E0F9A3E0FAA3E0D7
:1015D200FB120BF59004671213E5900449E024F224
:1015E200FF900448E034FFFE7C007D0C1211F1EE06
:1015F2003395E0FDFC9004871213E5E47F0CFEFDB9
:10160200FC900487E0F8A3E0F9A3E0FAA3E0FB1260
:10161200127EA804A905AA06AB07900449E024FE9D
:10162200FF900448E034FFFE3395E0FDFCC3EF9BDE
:10163200FFEE9AFEED99FDEC98FCE47B6F7A01F9DE
:10164200F812127EE47B0CFAF9F8124F46C004C07D
:1016520005C006C007900447E024C0FF900446E09E
:101662003412FE3395E0FDFC900487E0F8A3E0F924
:10167200A3E0FAA3E02FFFEA3EFEE93DFDE83CFCD1
:10168200E47BB57A05F9F812127EE47B04FAF9F8E4
:10169200124F46D003D002D001D000EF2BFFEE3A1A
:1016A200FEED39FDEC38FCC004C005C006C0079051
:1016B2000447E02424FF900446E03413FE3395E00F
:1016C200FDFC900487E0F8A3E0F9A3E0FAA3E02F81
:1016D200FFEA3EFEE93DFDE83CFCE47B64FAF9F8F2
:1016E200124F46E47B03FAF9F812127EE47B04FA05
:1016F200F9F8124F46A804A905AA06AB07D007D0ED
:1017020006D005D004C3EF9BFBEE9AFAED99F9ECF3
:1017120098F890044AE0FEA3E0FFEE3395E0FDFC6A
:10172200EB2FFFEA3EFEE93DFDE83CFCEF24B5FF6E
:10173200EE3482FEED34FFFDEC34FFFC90048B129C
:1017420013E590048BE0FCA3E0FDA3E0FEA3E0FF21
:10175200EC120F16E4FBFAF978BF120BF5C004C0C5
:1017620005C006C007E4FBFA79C07841900467E03F
:10177200FCA3E0FDA3E0FEA3E0FF120DEFD003D037
:1017820002D001D000120BF59004831213E57F649E
:101792007EA17D157CCA900483E0F8A3E0F9A3E062
:0D17A200FAA3E0FB120BF59004631213E5AF
:1017AF007F787E3E7D887C3A900463E0F8A3E0F971
:1017BF00A3E0FAA3E0FB120CE6A804A905AA06AB66
:1017CF00077F467E257D097C40120BF190048B121A
:1017DF0013E57FDE7EEC7D8C7C3C900463E0F8A308
:1017EF00E0F9A3E0FAA3E0FB120CE67B5B7AA479A5
:1017FF009C7840120BF59004831213E57F257EEB46
:10180F007D8C7C3C900463E0F8A3E0F9A3E0FAA39D
:10181F00E0FB120CE67B927AAE79C77840120BF59B
:10182F009004871213E5900487E0FCA3E0FDA3E08A
:10183F00FEA3E0FF123D0F7B4A7ADF7908783D1255
:10184F000CE6900483E0F8A3E0F9A3E0FAA3E0FB31
:10185F00120BF5C004C005C006C007E4FFFEFD7CF7
:10186F0040900487E0F8A3E0F9A3E0FAA3E0FB12AD
:10187F000CE6123D0F7BEF7AF179B67839120CE650
:10188F00D003D002D001D000120BF57B297AD17989
:10189F00ED78B8120BF5C004C005C006C007900460
:1018AF008BE0FCA3E0FDA3E0FEA3E0FF123D0F7B66
:1018BF00EB7A4979AA7837120CE6A804A905AA068B
:1018CF00AB07D007D006D005D004120BF190046BF4
:1018DF001213E590048BE0FCA3E0FDA3E0FEA3E070
:1018EF00FF123CF97B2D7A1879267838120CE6C056
:1018FF0004C005C006C0077FEC7E827DD57C319089
:10190F000463E0F8A3E0F9A3E0FAA3E0FB120CE60E
:10191F00A804A905AA06AB077F9D7E747DD17C3EE6
:10192F00120BF1D003D002D001D000120BF59004AE
:04193F006F1213E52B
:1019430090046BE0FCA3E0FDA3E0FEA3E0FF123DE7
:101953000F9004831213E590046FE0FCA3E0FDA352
:10196300E0FEA3E0FF123CF9900483E0F8A3E0F962
:10197300A3E0FAA3E0FB120CE690047B1213E590BC
:10198300046BE0FCA3E0FDA3E0FEA3E0FF123CF93F
:1019930090047F1213E590047FE0FCA3E0FDA3E035
:1019A300FEA3E0FF9004A71213E590047BE0FCA3E1
:1019B300E0FDA3E0FEA3E0FF1249BE9004731213FF
:1019C300E5E4FFFEFDFC900473E0F8A3E0F9A3E077
:1019D300FAA3E0FB120E8C501F900473E0FCA3E00B
:1019E300FDA3E0FEA3E0FF7BD07A0F79C978401214
:1019F3000BF59004731213E590046FE0FCA3E0FD74
:101A0300A3E0FEA3E0FF123D0F900483E0F8A3E000
:101A1300F9A3E0FAA3E0FB120CE612500A90047754
:031A23001213E5B6
:101A26007FE07E927D867C3D900463E0F8A3E0F93A
:101A3600A3E0FAA3E0FB120CE67B4D7A5179D67847
:101A460040120BF5900467E0F8A3E0F9A3E0FAA3CF
:101A5600E0FB120BF59004831213E5E4FFFE7D70A4
:101A66007C41900483E0F8A3E0F9A3E0FAA3E0FB4D
:101A7600120CE6900458E0F8A3E0F9A3E0FAA3E01C
:101A8600FB120BF57B2E7AFA798E783C120CE690D7
:101A960004871213E5900473E0F8A3E0F9A3E0FAD3
:101AA600A3E0FB900487E0FCA3E0FDA3E0FEA3E037
:101AB600FF120BF190048F1213E57F2E7EFA7D8EB6
:101AC6007C3C90045CE0F8A3E0F9A3E0FAA3E0FB19
:101AD600120CE690048B1213E590048BE0FCA3E055
:101AE600FDA3E0FEA3E0FF123CF99004931213E578
:101AF60090048BE0FCA3E0FDA3E0FEA3E0FF123D13
:101B06000F9004971213E590048FE0FCA3E0FDA369
:101B1600E0FEA3E0FF123CF990049B1213E590044B
:101B260077E0FCA3E0FDA3E0FEA3E0FF123CF9C0D2
:101B360004C005C006C00790049BE0FCA3E0FDA31B
:101B4600E0FEA3E0FF900493E0F8A3E0F9A3E0FA37
:101B5600A3E0FB120CE6D003D002D001D000120C99
:101B6600E6C004C005C006C007900477E0FCA3E009
:101B7600FDA3E0FEA3E0FF123D0F900497E0F8A35B
:101B8600E0F9A3E0FAA3E0FB120CE6D003D002D002
:101B960001D000120BF5124EFC900460E0FBA3E0AE
:101BA600FAA3E0F912134F90048FE0FCA3E0FDA323
:101BB600E0FEA3E0FF123D0F120F0590047B121307
:101BC600E5900477E0FCA3E0FDA3E0FEA3E0FF12AE
:101BD6003D4B900493E0F8A3E0F9A3E0FAA3E0FB01
:101BE600120CE6C004C005C006C00790049BE0FCCA
:101BF600A3E0FDA3E0FEA3E0FF900497E0F8A3E0D6
:101C0600F9A3E0FAA3E0FB120CE6A804A905AA06CC
:101C1600AB07D007D006D005D004120BF190047F95
:101C26001213E590047FE0FCA3E0FDA3E0FEA3E031
:101C3600FF9004A71213E590047BE0FCA3E0FDA34C
:101C4600E0FEA3E0FF1249BE900460E0FBA3E0FAC9
:101C5600A3E0F990000412136990000412131FE424
:101C6600FBFAF9F8120E8C602F402D900460E0FB11
:101C7600A3E0FAA3E02404F9E43AFAC003C002C0E0
:101C8600011212FF7BD07A0F79C97840120BF5D07A
:101C960001D002D00312134F900460E0FBA3E0FAD8
:101CA600A3E02404F9E43AFAC003C002C001121208
:101CB600FF7B2E7AFA798E783C120DEFD001D00296
:101CC600D00312134F900460E0FBA3E0FAA3E0F9FF
:101CD6001212FF123D0F7B0D7AA079327838120C62
:101CE600E690049F1213E5900460E0FBA3E0FAA3DC
:101CF600E0F91212FF90049FE0F8A3E0F9A3E0FADE
:101D0600A3E0FB120BF57B2E7AFA798E783C120D46
:0F1D1600EF900460E0FBA3E0FAA3E0F912134F93
:0E1D2500900477E0FCA3E0FDA3E0FEA3E0FF46
:011D3300228D
:1051F100C2A4C2A5C2A64391015392FEE4F597430E
:0F5201009D05F5BDF5BE75BC807F02FE025172A2
:10507600EF4488F5BC00000000E5BC30E4FB53BCFF
:10508600EFAFBD7E00ADBE7C00EF7802C333CE33FA
:0B509600CED8F9FFED5403FDEF4DFFF5
:0150A10022EC
:10470900E490042EF0A3F090042CF0A3F090042E72
:10471900A3E0FF125076AC06AD0790042DE025E02A
:10472900FF90042CE033FE74182FF58274043EF5D3
:1047390083ECF0A3EDF090042DE004F070069004F2
:104749002CE004F0C390042DE0940A90042CE0645A
:1047590080948040B890042CE4F0A304F090042CD9
:10476900E0FEA3E0FFD39409EE648094805047EF04
:1047790025E0FFEE33FE74182FF58274043EF583AD
:10478900E0FEA3E0FF900418E0FCA3E0FDC3EF9D69
:10479900FFEE9CFE1252E7D3EF941EEE64809480E4
:1047A9004004E4FEFF2290042DE004F070AF900471
:0A47B9002CE004F080A77E007F01D1
:0147C30022D3
:0B287500900418EBF0A3EAF0A3E9F0D8
:10288000E4900424F0A31213F13F000000E490044C
:10289000CDF0A3F0A3F0A3F09004CFE0FEA3E0FFFF
:1028A000C39451EE648094805025EF25E0FFEE3311
:1028B000FE74292FF58274043EF583E4F0A3F090B2
:1028C00004D0E004F070D19004CFE004F080C9E4BB
:1028D0009004CFF0A3F0E49004D1F0A3F09004D1E1
:1028E000E0FEA3E0FFC39405EE648094805035EFD2
:1028F0004E70069004CDF0A3F0900424E0FF125037
:10290000769004CEE02FF09004CDE03EF07F027E82
:10291000001251729004D2E004F070C19004D1E032
:1029200004F080B99004CDE0FEA3E0FF7C007D05BB
:1029300012119CAC06AD079004D0E025E0FF900496
:10294000CFE033FE74292FF58274043EF583ECF05A
:10295000A3EDF0124D43900421E0FBA3E0FAA3E0C5
:10296000F91212FF9004D41213E59005D2E0FEA3F1
:10297000E07802CEC313CE13D8F99004D8F07F02CA
:102980001244567F327E001250DA900421E0FBA3FD
:10299000E0FAA3E0F91212FFEF2401FFE43EFEE4A7
:1029A0003DFDE43CFC12134F124D43900421E0FB2B
:1029B000A3E0FAA3E0F91212FF9004D41213E590F9
:1029C00004D0E025E0FF9004CFE033FE74292FF51A
:1029D0008274043EF583E0FEA3E07802CEC313CEFA
:1029E00013D8F99004D8F07F021244567F327E004B
:1029F0001250DA900421E0FBA3E0FAA3E0F91212EE
:102A0000FFEF2401FFE43EFEE43DFDE43CFC121335
:102A10004F124D43900421E0FBA3E0FAA3E0F9122A
:102A200012FF9004D41213E5900418E0FBA3E0FA1F
:102A3000A3E0F91212FF120F549004D8EFF07F02B6
:102A40001244567F327E001250DA900421E0FBA33C
:102A5000E0FAA3E0F91212FFEF2401FFE43EFEE4E6
:102A60003DFDE43CFC12134F124D43900421E0FB6A
:102A7000A3E0FAA3E0F91212FF9004D41213E59038
:102A80000418E0FBA3E0FAA3E0F91212FF120F54BE
:102A9000AC07EC120F20C004C005C006C0079004AC
:102AA00018E0FBA3E0FAA3E0F91212FFD003D00272
:102AB000D001D000120BF1E4FBFA79C87842120C75
:102AC000E6120F549004D8EFF07F021244567F3282
:102AD0007E001250DA900421E0FBA3E0FAA3E0F9B3
:102AE0001212FFEF2401FFE43EFEE43DFDE43CFC56
:102AF00012134F7F08124F8A7F05124F8A7F4112AF
:102B00004CA97F44124CA97F43124CA97F3A124C26
:102B1000A99004D0E025E0FF9004CFE033FE7429B3
:102B20002FF58274043EF583E0FCA3E0FDE4120F70
:102B30001BE4FBFA79807844120DEFE4FBFA79A0EC
:102B40007840120CE6123F9F7F56124CA97F10125C
:102B50004CA97FC87E00125172900425E0FCA3E0CE
:102B6000FDA3E0FEA3E0FFD2011250F8900418E0AC
:102B7000FBA3E0FAA3E0F9C003C002C0011212FFF8
:102B8000E4FBFAF9783F120BF5D001D002D0031222
:102B9000134F7F207E031251729004D0E004F07036
:102BA000069004CFE004F0C39004D0E09451900468
:102BB000CFE06480948050030228D67FF47E011217
:102BC00051729004CFE07004A3E064516003022CC2
:102BD000DB7B017A047929124A5B9004CBEEF0A3E7
:102BE000EFF0E025E0FF9004CBE033FE74292FF5F1
:102BF0008274043EF583E0F9A3E0FF90041BE0FB40
:102C0000A3E0FAA3E0C98FF012125F900479E0F913
:102C1000A3E0FF90041EE0FBA3E0FAA3E0C98FF05D
:102C200012125F9004CBE0FCA3E0FDE4120F1BA89E
:102C300004A905AA06AB07E4FFFE7DA27C42120BA5
:102C4000F1900425E0F8A3E0F9A3E0FAA3E0FB1279
:102C50000CE67BCD7ACC794C783F120BF5C2011291
:102C600050F8900418E0FBA3E0FAA3E0F9C003C019
:102C700002C0011212FFC004C005C006C0079004C4
:102C8000CBE0FCA3E0FDE4120F1BA804A905AA06F3
:102C9000AB07E4FFFE7DA27C42120BF1900425E01D
:102CA000F8A3E0F9A3E0FAA3E0FB120CE67BCD7AEF
:102CB000CC794C783F120BF5A804A905AA06AB07FE
:102CC000D007D006D005D004120BF1D001D002D02D
:0B2CD0000312134F7FF47E01125172BB
:012CDB0022D6
:104A5B00E4FDFC9004D3F0A37428F0E4A3F0A3F0DE
:104A6B009004D5E0FEA3E0FFC39451EE9400507385
:104A7B00EF25E0FFEE338F82F583121227FFD3ED84
:104A8B009FEC95F04006AE04AF0580169004D6E07F
:104A9B0025E0FF9004D5E0338F82F583121227FFB8
:104AAB00AEF0AC06AD079004D6E025E0FF9004D540
:104ABB00E0338F82F583121227B50516ECB5F01291
:104ACB004D600F9004D5E0FFA3E09004D3CFF0A38B
:104ADB00EFF09004D6E004F070869004D5E004F07B
:0B4AEB00024A6B9004D3E0FEA3E0FF42
:014AF600229D
:0B37E8009003F4EFF0A3EDF0A3EBF072
:1037F3009004081213F100000000E490040CF0A3FD
:10380300F0A3F0A3F0900405E0FBA3E0FAA3E0F932
:103813001212FF9004101213E59003F9E0FBA3E0EA
:10382300FAA3E0F91212FF9004141213E59003FCBB
:10383300E0FBA3E0FAA3E0F9E4F5F012125F9004D1
:1038430002E0FBA3E0FAA3E0F9E4F5F012125F90C3
:1038530003FFE0FBA3E0FAA3E0F912142200000047
:1038630000124709EF4E70030239959003F7E09079
:10387300041BF09003F8E090041CF0A37401F0A380
:103883007404F0A37414F0A31213F1C1A000009008
:1038930003F6E0FB9003F5E0FD9003F4E0FF121D57
:1038A30034E4FFFE7DA07C41900414E0F8A3E0F92A
:1038B300A3E0FAA3E0FB120BF59003FFE0FBA3E008
:1038C300FAA3E0F912134F90041B7401F0A37404DC
:1038D300F0A3740CF0A37401F0A37404F0A3740EAA
:1038E300F0A37401F0A37404F0A37410F07B017AC5
:1038F300047914122875900410E0FCA3E0FDA3E002
:10390300FEA3E0FF900405E0FBA3E0FAA3E0F912B5
:10391300134F90040CE0F9A3E0FF9003FCE0FBA33A
:10392300E0FAA3E0C98FF012125F90040EE0F9A34E
:10393300E0FF900402E0FBA3E0FAA3E0C98FF012DA
:10394300125F9003FFE0FBA3E0FAA3E0F91213C5B3
:10395300900414E0FCA3E0FDA3E0FEA3E0FF120B40
:10396300F19004081213E5900414E0FCA3E0FDA316
:10397300E0FEA3E0FF9003F9E0FBA3E0FAA3E0F984
:1039830012134F900408E0FCA3E0FDA3E0FEA3E0C4
:07399300FF22E4FFFEFDFC32
:01399A00220A
:10514700C3EC64809480401CED25E0FFEC338F8234
:10515700F583121227640145F07005AF05AE0422EE
:04516700E4FEFF2241
:01516B002221
:0D50A2007F027E001250AFD2CC7F027E0054
:1050AF00EF1FAA0670011E4A6013E4FCFDC3ED94C6
:0D50BF0009EC940050EA0DBD00010C80F0DA
:0150CC0022C1
:0100070022D6
:0F531D00D2CCD2C71250ABC2C71250ABC2CC22F7
:1052BE00C2CCC2C71250ABD2CCC2C77F047E001282
:0552CE0050AFD2C72221
:10527E00E425E0FBC2CC1250AB30C704EB4401FB7B
:05528E001250A9AF035E
:0152930022F8
:055371001250A2C2CCA5
:015376002214
:0E532C00C2CCD2C71250A2C2CC1250ABC2C724
:01533A002250
:05512000F912114BFF24
:02512500A907D8
:10512700E4FBC2CCE930E704D2C78002C2C7125001
:0F513700ABD2CCE925E0F91250AB0BEBB408E397
:015146002246
:1047C4009004DBEBF0A3EAF0A3E9F012531D7F01A0
:1047D4007E001250AF7F4012512512527EEF7012AC
:1047E4009004DBE0FBA3E0FAA3E0F9121132FF121C
:1047F400512512527EEF70109004DBE0FBA3E0FA27
:10480400A3E090000112512012527EEF7010900428
:10481400DBE0FBA3E0FAA3E0900002125120125265
:104824007EEF70119004DBE0FBA3E0FAA3E0F990C3
:10483400000312512112527EEF70119004DBE0FB51
:10484400A3E0FAA3E0F990000412512112527EEF82
:1048540070119004DBE0FBA3E0FAA3E0F9900005FB
:0D48640012512112527EEF70031252BE223B
:0D50CD007F057E001250DAD2C37F057E0001
:1050DA00EF1FAA0670011E4A6013E4FCFDC3ED949B
:0D50EA0004EC940050EA0DBD00010C80F0B4
:0150F7002296
:104DFF007B6053B3F143B407C2C11250D6E49003A2
:104E0F00F4F0A3F0C2C31250D6EB30E704D2C28045
:104E1F0002C2C21250CDEB25E0FB9003F5E004F087
:104E2F0070069003F4E004F0C39003F5E09408904B
:104E3F0003F4E06480948040CBD2C17F0A7E0012DD
:094E4F0050DA12491DEF20E0F9D0
:014E58002237
:104D1E007F327E001250DA9003FFE0FBA3E0FAA38D
:104D2E00E0F91212FFEF2401FFE43EFEE43DFDE444
:054D3E003CFC12134FC4
:104D43007B06C2C1E49004D3F0A3F0C2C31250D6D1
:104D5300EB30E704D2C28002C2C21250CDEB25E091
:104D6300FB9004D4E004F070069004D3E004F0C395
:104D73009004D4E094089004D3E06480948040CB02
:0C4D8300D2C11250D612491DEF20E0F9F9
:014D8F002201
:07444F00E09004D8F07F02A9
:02445600AB07B2
:10445800C2C11250D6E49004D9F0A3F0C2C31250DE
:10446800D6EB30E704D2C28002C2C21250CDEB258F
:10447800E0FB9004DAE004F070069004D9E004F060
:10448800C39004DAE094089004D9E06480948040F2
:10449800CBE49004D9F0A3F0C2C31250D69004D450
:1044A800A3E0FDA3A3E4FFFEED5480FDE4FCFBFACA
:1044B8007980F8C31212DB7004D2C28002C2C21221
:1044C80050CD9004D4E0FCA3E0FDA3E0FEA3E0FF00
:1044D80078011212EC9004D41213E59004DAE00487
:1044E800F070069004D9E004F0C39004DAE0941860
:1044F8009004D9E064809480409EE49004D9F0A3AD
:10450800F0C2C31250D69004D8E030E704D2C2807B
:1045180002C2C21250CD9004D8E025E0F09004DA2F
:10452800E004F070069004D9E004F0C39004DAE0E7
:1045380094089004D9E06480948040C5D2C1125098
:08454800D612491DEF20E0F935
:014550002248
:02433F00AB07CA
:10434100E49005F6F0C2C17F05FE1250DAE4A3F055
:10435100A3F0C2C31250D6EB30E704D2C28002C22E
:10436100C21250CDEB25E0FB9005F8E004F0700699
:104371009005F7E004F0C39005F8E094089005F784
:10438100E06480948040CBE49005F7F0A3F0C2C3D1
:104391001250D69005F2A3E0FDA3A3E4FFFEED5475
:1043A10080FDE4FCFBFA7980F8C31212DB7004D2C1
:1043B100C28002C2C21250CD9005F2E0FCA3E0FD22
:1043C100A3E0FEA3E0FF78011212EC9005F21213B4
:1043D100E59005F8E004F070069005F7E004F0C3FD
:1043E1009005F8E094189005F7E064809480409E71
:1043F1007F0A7E001250DAD2C47F027E001250DAA8
:10440100E49005F7F0A3F09005F6E025E0F01250F6
:10441100D4C2C31250D630C404E04401F09005F870
:10442100E004F070069005F7E004F0C39005F8E0B1
:1044310094089005F7E06480948040CBD2C112507B
:0D444100D612491DEF20E0F99005F6E0FFCE
:01444E00224B
:10491D00E4FB9004DBF0A3F0A3F07905C2C17F05A1
:10492D00FE1250DAE49004DCF0A3F0C2C31250D6AC
:10493D00E930E704D2C28002C2C21250CDE925E0AF
:10494D00F99004DDE004F070069004DCE004F0C39F
:10495D009004DDE094089004DCE06480948040CB0A
:10496D007F0A7E001250DAD2C47F027E001250DA26
:10497D00E49004DCF0A3F0EB25E0FB1250D4C2C3AD
:10498D001250D630C404EB4401FB9004DDE004F07A
:10499D0070069004DCE004F0C39004DDE094089010
:1049AD0004DCE06480948040CED2C11250D6AF03B7
:0149BD0022D7
:103B2800124D439003FFE0FBA3E0FAA3E0F9121261
:103B3800FF9004D41213E59003F412444F9003FF4E
:103B4800E0FBA3E0FAA3E0F91212FFEF2401FFE47F
:103B58003EFEE43DFDE43CFC12134F7F327E001232
:103B680050DA124D439003FFE0FBA3E0FAA3E0F91B
:103B78001212FF9004D41213E59003F512444F1269
:103B88004D1E9003FFE0FBA3E0FAA3E0F91212FF39
:103B98009004D41213E59003F612444F124D1E9070
:103BA80003FFE0FBA3E0FAA3E0F91212FF9004D4AC
:103BB8001213E59003F712444F124D1E9003FFE0D5
:103BC800FBA3E0FAA3E0F91212FF9004D41213E564
:103BD8009003F812444F124D1E9003FFE0FBA3E040
:103BE800FAA3E0F91212FF9004D41213E59003F936
:103BF80012444F124D1E9003FFE0FBA3E0FAA3E02E
:103C0800F91212FF9004D41213E59003FA12444FEC
:103C1800124D1E9003FFE0FBA3E0FAA3E0F9121295
:103C2800FF9004D41213E59003FB12444F124D1E6B
:103C38009003FFE0FBA3E0FAA3E0F91212FF90045F
:103C4800D41213E59003FC12444F124D1E9003FF4B
:103C5800E0FBA3E0FAA3E0F91212FF9004D41213D8
:103C6800E59003FD12444F124D1E9003FFE0FBA3A5
:103C7800E0FAA3E0F91212FF9004D41213E59003BE
:103C8800FE12444F7F327E001250DA9003FFE0FBB1
:103C9800A3E0FAA3E0F91212FFEF2401FFE43EFECD
:093CA800E43DFDE43CFC02134F75
:10504500D296C294C2957F0A7E00125172D296D230
:1050550094D2957F0A7E00125172C2967F0A7E0015
:10506500125172C294C2957F0A7E00125172D29576
:015075002218
:0D533B0053B2FB43B104C288D2A8D2AF2206
:03000000024B911F
:0C4B9100787FE4F6D8FD758120024BD837
:100BEE00020FC0E86480F8E933E83360110460F066
:100BFE00ED33EC337009E8FCE9FDEAFEEBFF22046D
:100C0E0060DED3EB9FEA9EE99DE8C2E78CF0C2F767
:100C1E0095F0400CE8CCF8E9CDF9EACEFAEBCFFB33
:100C2E00120F8B85D0F05804700320D5B3E80470F2
:100C3E00075002B2D5020FCA92D5EC0460F7E4CC8D
:100C4E00C0E0C398F8603B94186008400DD0E0FBFC
:100C5E00020FA2E4FBFAC9FC8028E830E406E4C9DE
:100C6E00FBE4CAFCE830E305E4C9CACBFCE8540750
:100C7E006010F8C3E913F9EA13FAEB13FBEC13FC5B
:100C8E00D8F130F52FC3E49CFCEF9BFFEE9AFEEDFE
:100C9E0099FDD0E0FBEF4E4D4C701222DB03020F9C
:100CAE00C7EC2CFCEF33FFEE33FEED33FDED30E7FA
:100CBE00EB020FA2EF2BFFEE3AFEED39FDD0E0FB7B
:100CCE0050130BBB0003020FCAED13FDEE13FEEF24
:080CDE0013FFEC13FC020FA24E
:100CE600EC4D6011E8497017ED33EC3304600DE408
:100CF600FCFFFEFD22E933E8330470F8020FC01250
:100D06000F8B58046009E4CC248150062850090250
:100D16000FCA284003020FC7C0E0EB4A7044B980EF
:100D260006D0E0FB020FB6EF4E701CBD8008EBFF4D
:100D3600EAFEE9FD80EBE98DF0A4FEE5F0020DCFB9
:100D4600E9CDF9EAFEEBFFEF89F0A4FCE5F0CE89E8
:100D5600F0A42EFFE435F0CD89F0A42DFEE435F0A5
:100D66008067EF4E7005BD80D780C3EF8BF0A4ACD3
:100D7600F0EE8BF0A42CFCE435F0F8EF8AF0A42C0E
:100D8600E5F038FCE433CB8DF0A42CFCE5F03BF821
:100D9600EE8AF0A42CFCE5F038F8E433CF89F0A411
:100DA6002CFCE5F038CF3400CE89F0A42FFFE5F017
:100DB6003EFEE433C98DF0A42EFEE5F039CD8AF06F
:100DC600A42FFFE5F03EFEE43DFD33D0E0FB5007E7
:100DD6000BBB000F020FCAEC2CFCEF33FFEE33FE09
:060DE600ED33FD020FA237
:100DEC00020FCAEC5D046005E859047003020FC0E1
:100DFC00120F8B580460F6EC4860F2EC7004FDFEA8
:100E0C00FF22C860DB2481C85009C39860025006D9
:100E1C00020FC79850CAF582E9294B4A7005AB827C
:100E2C00020FB675F0007C1A7880C3EF9BEE9AED3A
:100E3C0099400DC3EF9BFFEE9AFEED99FDE842F051
:100E4C00DC23ACF0D0E0FFD0E0FED0E0FDAB8220A4
:100E5C00E7101BEB60BAEC2CFCEF33FFEE33FEED2E
:100E6C0033FD020FA2E803F830E705C0F075F0007F
:100E7C00EF2FFFEE33FEED33FD40B830E7C280AA12
:100E8C0074F8CC6480CCC86480C8F58204604FC30D
:100E9C00EB9FF5F0EA9E42F0E99D42F0E89C45F0AC
:100EAC00603C501DE5825FFFE582D313CB5BCBF436
:100EBC002B5582FB50280ABA002409B9002008805F
:100ECC001DE5825BFBE582D313CF5FCFF4C3132FF9
:100EDC005582FF50090EBE00050DBD00010CC3EB81
:100EEC009FF5F0EA9E42F0E99D42F0E89C45F060E7
:090EFC0007CC4820E701B3EC2209
:100F0500ED33EC33600A047003BD8004ECB2E7FCFA
:010F150022B9
:100F160075F020800E75F010800575F0087D007E56
:100F2600007F003392D530D5031212CDEC3340103A
:100F3600EF33FFEE33FEED33FDEC33FCD5F0ED225F
:0E0F4600E5F0247EA2D513CC92E7CDCEFF229B
:100F5400EDD2E7CD33EC3392D524814006E4FFFE95
:100F6400FDFC22FCE4CFCECDCC24E0501174FF80F4
:100F7400EDC3CC13CCCD13CDCE13CECF13CF047091
:070F8400F030D5DE0212CDB2
:1049BE009004A31213E59004A7E0F8A3E0F9A3E096
:1049CE00FAA3E0FB9004A3E0FCA3E0FDA3E0FEA3AA
:1049DE00E0FF120DEF12423D9004A31213E5900476
:1049EE00A7E030E7599004A3E0FCA3E0FDA3E0FEAE
:1049FE00A3E0FFECC0E0EDC0E0EEC0E0EFC0E0E40D
:104A0E00FFFEFDFC9004A3E0F8A3E0F9A3E0FAA3F7
:104A1E00E0FB120E8C7BDB600250087A0F7949782E
:104A2E004080067A0F794978C0D0E0FFD0E0FED002
:104A3E00E0FDD0E0FC120BF59004A31213E59004F8
:0D4A4E00A3E0FCA3E0FDA3E0FEA3E0FF2237
:103CB1003A70FA83BCAAE9E43E81E0F8BF9DE9E6E7
:103CC1003F80000039283C1ABB9969663DA335E362
:103CD100BF255DE73FC90FDB418DDBCCC44936EE23
:103CE10045C9913FC5B0F83D3F800000C317F53489
:103CF100452FFA73C60AFDDD123DBA04A2E1920115
:103D01001420E015903CB17404120FEF8030123D85
:103D1100BA30E102B20120E0EBA883A9829004A3AA
:103D21001213E589828883903CC57404120FEF85D4
:103D310082F09004A31213A985F082120CE6ED4CD7
:103D41006007300104EC6480FC22123DBAC0E0A897
:103D510083A9829004A31213E589828883903CE9A8
:103D61007403120FEF8582F09004A31213A985F05A
:103D710082120CE69004A3E0CCF0A3E0CDF0A3E026
:103D8100CEF0A3E0CFF0903CD97403120FEFD082B4
:103D91008582F09004A31213A985F082E58230E0B8
:103DA10007120DEFB2018096EFCBFFEECAFEEDC90F
:103DB100FDECC8FC120DEF8085ED33EC547FCC3364
:103DC100920124605007D0E0D0E0020FC07B837ADB
:103DD100F97922783E120CE6EDF933ECF8332481BF
:103DE1005011EFFBEEFA120F54120F16ECB2E7FC72
:103DF100120BF5ED33EC33602F2403F8C313FCED04
:103E010092E7FDE82481E4501FECF8EDF9EEFAEFBA
:103E1100FB120F54EF04C2E0FCF582120F20ECB24A
:103E2100E7FC120BF5E58203FAED33EC336007147E
:083E310013FCED92E7FDEA220B
:104EFC00ECC0E0F8EDC0E0F9EEC0E0FAEFC0E0FB8A
:104F0C00120CE6EC6480FC7B007A007980783F120E
:104F1C000BF5124875D0E0FBD0E0FAD0E0F9D0E008
:104F2C00F8C0E0120DEF12423DD0E030E70B7840B4
:0A4F3C0079497A0F7BD9120BF52298
:10500A00ECC0E0F8EDC0E0F9EEC0E0FAEFC0E0FB7A
:10501A00120CE6EC6480FC7B007A007980783F12FF
:10502A000BF5124875D0E0CFFBD0E0CEFAD0E0CD38
:0B503A00F9D0E0CCF8120DEF02423D6F
:103E39009003BC1213E5E4FFFE7D807C3F9003BC38
:103E4900E0F8A3E0F9A3E0FAA3E0FB120E8C7006F8
:103E59009003BC023F939003BCE0FCA3E0FDA3E008
:103E6900FEA3E0FF120FD5FBA3E0FCA3E0FDA3E056
:103E7900FEA3E0FF120FD5FFB40108E4FFFE7D8029
:103E89007C3F22EF64046029EB64046024EBB401F5
:103E990030E4FFFEFDFC9003C0E0F8A3E0F9A3E0E5
:103EA900FAA3E0FB120E8C60084006E4FFFEFDFC5D
:103EB900229003C01213F1FFFFFFFF9003C0023FDE
:103EC90093E49003C4F0A3F0FFFEFDFC9003BCE073
:103ED900F8A3E0F9A3E0FAA3E0FB120E8C505F907F
:103EE90003C0E0FCA3E0FDA3E0FEA3E0FF120F5432
:103EF9009003C4EEF0A3EFF0FDCCEECCEC120F1B57
:103F0900C8ECC8C9EDC9CAEECACBEFCB9003C0E073
:103F1900FCA3E0FDA3E0FEA3E0FF120BF1E4FBFA32
:103F2900F9F8120E8C708A9003BCE0FCA3E0FDA3A3
:103F3900E0FEA3E0FF120F059003BC1213E5900306
:103F4900BCE0FCA3E0FDA3E0FEA3E0FF1241289042
:103F590003C0E0F8A3E0F9A3E0FAA3E0FB120CE642
:103F6900124B2F9003C01213E59003C5E030E01700
:103F79009003C0E0FCA3E0FDA3E0FEA3E0FF120F65
:103F8900059003C01213E59003C0E0FCA3E0FDA374
:063F9900E0FEA3E0FF22A0
:100F8B00E9D2E7C933E833F892D5EDD2E7CD33ECAC
:070F9B0033FC5002B2D52225
:100FA200EC30E7100FBF000C0EBE00080DBD0004B0
:100FB2000BEB6014A2D5EB13FCED92E7FD2274FF5C
:100FC200FCFDFEFF22E480F8A2D574FF13FC7D80B5
:030FD200E480EFC9
:100FD500ED33EC33601004700FED547F700574022F
:0A0FE50092E0227404220422E422A8
:100FEF00C0E0EFFBEEFAEDF9ECF8120CE6D0E0F50D
:100FFF00F0EFFBEEFAEDF9ECF8121399A3A3A3A30C
:10100F00E8C0E0E9C0E0EAC0E0EBC0E0C0F0120CDD
:10101F00E61213B5A3A3A3A3120BF5D0F0D0E0FBF8
:0D102F00D0E0FAD0E0F9D0E0F8D5F0D422FE
:104AF70033DA929E35B16011377FE5FE392184891B
:104B07003AAEC3FF3C1D955B3D6358473E75FDF0CC
:104B17003F3172183F800000C2D5020FCA020FC092
:104B2700BD80FA50F3020FC7ED33EC330460F17B1D
:104B37003B7AAA79B8783F120CE6ED33EC3392D57D
:104B4700247B5011A2D570DB500BED448024045018
:104B570004A2D580CEEFFBEEFAEDF9ECF8120F5474
:104B6700EFF582F404FC120F20120BF5C082904A75
:104B7700F77409120FFEED33CC33D0F092D525F040
:0A4B8700A2D57001C313CC13FD2268
:1040F4003E9248DA3ECCCCCD3F2AAAAB4000000029
:104104003F8000003F9837F03FB504F33FD744FCAD
:104114003E3172173EB172173F0515913EDE5BD9F1
:10412400D2008002C200EDD2E7F8CD33EC33047044
:104134000BBD800592D5020FCA020FC040FBD314F9
:1041440060F2F5F07C3FEE7A00C39496C8948B40FD
:10415400230AC89469C8941A401A0AC89468C8946F
:104164001F40110AC8945AC89425400805F07A00E3
:10417400CDC2E7CDC0F09003C61213E5EA2323C0F5
:10418400E02404F582E43441F5831213B5120BF5EF
:10419400ECC0E0EDC0E0EEC0E0EFC0E01213999097
:1041A40003C61213A9120BF1D0E0FBD0E0FAD0E061
:1041B400F9D0E0B2E7F8120DEF9003C61213E590C0
:1041C40040F47403120FEF9003C61213A9120CE605
:1041D400D0E0600F2410F582E43441F5831213B566
:1041E400120BF59003C61213E5D0E0C3947FFDE4EF
:1041F4009400FC120F1B7B187A727931783F120CF1
:10420400E69003C61213A9120BF530000B7BD97A82
:094214005B79DE783E120CE62213
:10487100020FC022EDA2E7D2E7F9EC3340F260F378
:10488100B4FF08ED547F70E8020FCAF82481C2E03A
:10489100C0E0F40428FAC313FCED92E7FD9004A3F1
:1048A1001213E5EEA2E7E9BA7F02C31334009400C4
:1048B100FA75F091A4E5F013F494FE8AF0A433E5BF
:1048C100F033248CD313FDE492E7FE7F007C3F7527
:1048D1008302ECC0E0F8EDC0E0F9EEC0E0FAEFC011
:1048E100E0FB8583F09004A312138D85F083120DF4
:1048F100EFD0E0FBD0E0FAD0E0F9D0E0F8120BF510
:10490100ED6480FD30E7011CD583C7ED33CC33F86E
:0C491100D0E0A2E71328C313CC13FD2252
:10421D00BE1249253E4CCCCDBEAAAAAB3F800000B4
:10422D003E7ADBB03EED63383F24BC7D3F490FDB6A
:10423D00ED33ECC2E7CC339201B4FF13ED547F6044
:10424D0003020FC07FDB7E0F7DC97C3F024332C26C
:10425D0002C3947F401E7007EDD2E794904015EF96
:10426D00FBEEFAEDF9ECF87F007E007D807C3F12CD
:10427D000DEFD202ED33EC33248430E705E4C0E0DA
:10428D00806B04FAEDD2E754F0C333DAFD540734F2
:10429D00002323C0E0CCC0E0F8EDC0E0F9EEC0E0B3
:1042AD00FAEFC0E0FBE4120F20EC24FEFC9004AB0F
:1042BD001213E5120CE67B007A007980783F120B21
:1042CD00F59004ABE0B2E7CCF0A3E0CDF0A3E0CEE7
:1042DD00F0A3E0CFF0D0E0FBD0E0FAD0E0F9D0E0F1
:1042ED00F8120BF59004AB1213A9120DEF9004AB5D
:1042FD001213E590421D7403120FEF9004AB1213CD
:10430D00A9120CE6D0E0600F2429F582E43442F5C1
:10431D00831213B5120BF530020B7BDB7A0F79C9C3
:10432D0078BF120BF5ED33EC336006ECA20192E78A
:02433D00FC2260
:104B9D0002001EE493A3F8E493A34003F68001F210
:104BAD0008DFF48029E493A3F85407240CC8C33319
:104BBD00C4540F4420C8834004F456800146F6DFE8
:104BCD00E4800B0102040810204080902CDCE47E70
:104BDD00019360BCA3FF543F30E509541FFEE493DD
:104BED00A360010ECF54C025E060A840B8E493A3A4
:104BFD00FAE493A3F8E493A3C8C582C8CAC583CACF
:104C0D00F0A3C8C582C8CAC583CADFE9DEE780BE86
:0130DB0000F4
:10103C00E709F608DFFA8046E709F208DFFA803E96
:10104C0088828C83E709F0A3DFFA8032E309F60883
:10105C00DFFA8078E309F208DFFA807088828C83EB
:10106C00E309F0A3DFFA806489828A83E0A3F6089F
:10107C00DFFA805889828A83E0A3F208DFFA804C79
:10108C0080D280FA80C680D4806980F28033801050
:10109C0080A680EA809A80A880DA80E280CA8033B9
:1010AC0089828A83ECFAE493A3C8C582C8CCC58331
:1010BC00CCF0A3C8C582C8CCC583CCDFE9DEE78001
:1010CC000D89828A83E493A3F608DFF9ECFAA9F080
:1010DC00EDFB2289828A83ECFAE0A3C8C582C8CCD6
:1010EC00C583CCF0A3C8C582C8CCC583CCDFEADEEF
:1010FC00E880DB89828A83E493A3F208DFF980CC51
:10110C0088F0EF60010E4E60C388F0ED2402B40449
:10111C000050B9F582EB2402B4040050AF232345F0
:06112C00822390108C7379
:10113200BB010689828A83E0225002E722BBFE02BB
:09114200E32289828A83E49322EE
:10114B00BB010CE58229F582E5833AF583E0225059
:10115B0006E92582F8E622BBFE06E92582F8E222A3
:0D116B00E58229F582E5833AF583E49322BD
:10117800BB010689828A83F0225002F722BBFE0156
:02118800F32250
:10118A00EF8DF0A4A8F0CF8CF0A428CE8DF0A42E79
:02119A00FE2233
:10119C00BC000BBE0029EF8DF084FFADF022E4CC37
:1011AC00F875F008EF2FFFEE33FEEC33FCEE9DEC00
:1011BC00984005FCEE9DFE0FD5F0E9E4CEFD22ED46
:1011CC00F8F5F0EE8420D21CFEADF075F008EF2F90
:1011DC00FFED33FD4007985006D5F0F222C398FD81
:0511EC000FD5F0EA221E
:1011F100C2D5EC30E709B2D5E4C39DFDE49CFCEE19
:1012010030E715B2D5E4C39FFFE49EFE12119CC3E3
:10121100E49DFDE49CFC800312119C30D507C3E4DE
:061221009FFFE49EFE2287
:10122700BB0110E58229F582E5833AF583E0F5F005
:10123700A3E0225009E92582F886F008E622BBFEE2
:101247000AE92582F8E2F5F008E222E5832AF58328
:08125700E993F5F0A3E99322ED
:10125F00BB010A89828A83F0E5F0A3F0225006F7DA
:0F126F0009A7F01922BBFE06F3E5F009F31922D7
:10127E00E88FF0A4CC8BF0A42CFCE98EF0A42CFC0F
:10128E008AF0EDA42CFCEA8EF0A4CDA8F08BF0A48D
:10129E002DCC3825F0FDE98FF0A42CCD35F0FCEBEC
:1012AE008EF0A4FEA9F0EB8FF0A4CFC5F02ECD39B1
:0F12BE00FEE43CFCEAA42DCE35F0FDE43CFC221E
:104F4600C2D5E830E70FB2D5E4C39BFBE49AFAE496
:104F560099F9E498F8EC30E717B2D5124F7C1214A1
:104F660084E4C39BFBE49AFAE499F9E498F8800395
:104F760012148430D50DE4C39FFFE49EFEE49DFD2C
:044F8600E49CFC2289
:0E12CD00C3E49FFFE49EFEE49DFDE49CFC2232
:1012DB00EB9FF5F0EA9E42F0E99D42F0E89C45F069
:0112EB0022E0
:1012EC00E8600FEFC333FFEE33FEED33FDEC33FC60
:0312FC00D8F12204
:1012FF00BB010789828A8302138D5005E9F8021515
:10130F0016BBFE05E9F802152289828A830213991A
:10131F00BB010DE58229F582E5833AF58302138D32
:10132F005007E92582F8021516BBFE07E92582F85A
:10133F00021522E58229F582E5833AF58302139996
:10134F00BB010789828A830213E55005E9F802156C
:0A135F0048BBFE05E9F80215542210
:10136900BB010DE58229F582E5833AF5830213E590
:101379005007E92582F8021548BBFE07E92582F8DE
:0413890002155422D3
:0C138D00E0FCA3E0FDA3E0FEA3E0FF22D3
:10139900E493FC740193FD740293FE740393FF229A
:0C13A900E0F8A3E0F9A3E0FAA3E0FB22C7
:1013B500E493F8740193F9740293FA740393FB228E
:1013C500BB010789828A830213A95005E9F8021532
:1013D5002EBBFE05E9F802153B89828A830213B507
:0C13E500ECF0A3EDF0A3EEF0A3EFF0227B
:1013F100A8828583F0D083D08212140812140812B7
:101401001408121408E473E493A3C583C5F0C583DB
:10141100C8C582C8F0A3C583C5F0C583C8C582C845
:0114210022A8
:10142200BB010789828A830213F15005E9F802158C
:0A14320060BBFE05E9F802157922FF
:0C143C00A42582F582E5F03583F58322BB
:1014480075F008758200EF2FFFEE33FECD33CDCC5B
:1014580033CCC58233C5829BED9AEC99E5829840DE
:101468000CF582EE9BFEED9AFDEC99FC0FD5F0D6BB
:10147800E4CEFBE4CDFAE4CCF9A88222B800C1B9E5
:101488000059BA002DEC8BF084CFCECDFCE5F0CB23
:10149800F97818EF2FFFEE33FEED33FDEC33FCEB5C
:1014A80033FB10D703994004EB99FB0FD8E5E4F917
:1014B800FA227818EF2FFFEE33FEED33FDEC33FC04
:1014C800C933C910D7059BE99A4007EC9BFCE99AF8
:1014D800F90FD8E0E4C9FAE4CCFB2275F010EF2F3D
:1014E800FFEE33FEED33FDCC33CCC833C810D7073D
:1014F8009BEC9AE899400AED9BFDEC9AFCE899F878
:0E1508000FD5F0DAE4CDFBE4CCFAE4C8F9220A
:0C151600E6FC08E6FD08E6FE08E6FF2201
:0C152200E2FC08E2FD08E2FE08E2FF2205
:0D152E00E6FB08E6F908E6FA08E6CBF8222D
:0D153B00E2FB08E2F908E2FA08E2CBF82230
:0C154800ECF608EDF608EEF608EFF622CF
:0C155400ECF208EDF208EEF208EFF222D3
:10156000D083D082E493F608740193F60874029352
:09157000F608740393F674047389
:10157900D083D082E493F208740193F20874029341
:09158900F208740393F274047378
:00000001FF
