:1004FA004300146868004300176D6D004200120043
:06050A000042001C00008D
:1002A60012036C120581120561D2AF7D067F121210
:1002B60004E21204837D057F121204E21204837F96
:1002C600541204331204837F3212043390001CE06C
:1002D6007002A3E0602D90001AE0FF7D061204E292
:1002E60090001BE0FF7D051204E2E490001CF0A3E1
:1002F600F090001AE0FF12058E90001BE0FF120539
:0F0306008E80C91202267FB07E0412048780BD4C
:040483007FF47E0183
:10048700EF1FAA0670011E4A6013E4FCFDC3ED943A
:0D04970058EC940250EA0DBD00010C80F0FD
:0104A4002235
:03002300020101D6
:10010100C0E0C0F0C083C082C0D075D008309877FD
:10011100900013E004F07006900012E004F0C29821
:10012100900012E0FEA3E0FFD39402EE648094807D
:10013100500F74132FF58274003EF583E599F0801A
:1001410046C3EF9403EE64809480403B74142FF512
:100151008274003EF583E599F0EF64044E702890B7
:100161000012F0A3F07B017A0079141205119000BE
:100171001AEFF07B017A00791712051190001BEF3D
:10018100F0A3E4F0A304F0309904C299C200D0D0E6
:09019100D082D083D0F0D0E0321E
:09058E002000FDD200EFF59922D6
:06052800D2A17F017E005C
:0E052E00EF1FAC0670011E4C60030080F3222C
:02000300AD0747
:10000500E4FBC2A1ED30E704D2A28002C2A2120530
:0D0015002A120528ED25E0FD0BEBB408E5EF
:0100220022BB
:1004A500E4FDD2A2FBED25E0FDC2A112052A30A292
:0F04B50004ED4401FD1205280BEBB408E8AF0578
:0104C4002215
:10055000E4FED2A0EF44A0FF1200031204A5C2A043
:010560002278
:1004E200AA07D2A0ED4420FF120003AF02120003BC
:0804F200AF02120003C2A022B8
:0D0581005395F85396F8D2A0C2A0C2A12253
:10056100759850438E9575D7D875D6FFD2ACD2AF5A
:010571002267
:1004000090001EEBF0A3EAF0A3E9F090001EE0FBE1
:10041000A3E0FAA3E0F9120315601790001EA3E40D
:1004200075F00112032EA9F0FA120315FF12058EC2
:0304300080D9224E
:06059700EFC4540FFF2227
:05059D00EF540FFF22E6
:0105A7002231
:0505A200EF2430FF22F0
:10051100120026EF75F00A84FEEF75F00A84AFF041
:06052100EEC454F04FFF90
:0105270022B1
:100226007F06120550900011EFF0120597EF24306B
:10023600FF12058E900011E0FF12059DEF2430FF9E
:1002460012058E7F3A12058E7F051205509000101A
:10025600EFF0120597EF2430FF12058E900010E0A4
:10026600FF12059DEF2430FF12058E7F3A12058E90
:100276007F0412055090000FEFF0F580EF547FFFDA
:10028600120597EF2430FF12058E90000FE0547F81
:10029600FF12059DEF2430FF12058E7F0A02058EA0
:10036C007F967E001204657F031203C07F327E00ED
:10037C001204657F031203C07F327E001204657F76
:10038C00031203C01204617F021203C07F02120326
:10039C00C07F081203C07F011203C0E4FF1203C028
:1003AC00E4FF1203C07F0F1203C0E4FF1203C07FEF
:0403BC00060203C072
:1004330090000FEFF0D291C292C297D296C295C2AA
:1004430094D2937F017E00120465C293C297D29621
:0C045300C295C29412045FC293C29122B1
:1003C000C291C292EF5408131313541F6004D297C2
:1003D0008002C297EF54041313543F6004D29680F6
:1003E00002C296EF5402C3136004D2958002C295F4
:1003F000EF30E004D2948002C29412045FC29322D0
:06045F00D2937F0A7E002B
:10046500EF1FAA0670011E4A6013E4FCFDC3ED945C
:0D04750058EC940250EA0DBD00010C80F01F
:010482002257
:1004C500EFC4540F4430FEEF540F4430900021F038
:0D04D500AF06120433900021E0FF02043353
:0300000002019A60
:0C019A00787FE4F6D8FD7581200201E1B9
:1001A6000202A6E493A3F8E493A34003F68001F2C7
:1001B60008DFF48029E493A3F85407240CC8C3335A
:1001C600C4540F4420C8834004F456800146F6DF29
:1001D600E4800B01020408102040809004FAE47EBB
:1001E600019360BCA3FF543F30E509541FFEE4931E
:1001F600A360010ECF54C025E060A840B8E493A3E5
:10020600FAE493A3F8E493A3C8C582C8CAC583CA0F
:10021600F0A3C8C582C8CAC583CADFE9DEE780BEC7
:0105100000EA
:10031500BB010689828A83E0225002E722BBFE02E6
:09032500E32289828A83E4932219
:10032E00A3F8E0C5F025F0F0E58215827002158382
:06033E00E0C838F0E822DF
:10002600900000EBF0A3EAF0A3E9F0900000E0FBFB
:10003600A3E0FAA3E0F9120315FF12053C500C9059
:100046000001E475F00112035680E0D20190000031
:10005600E0FBA3E0FAA3E0F9120315FF642B6004AA
:10006600EFB42D1D900000E0FBA3E475F001120330
:100076002EA9F0FA120315642D6003D38001C392F2
:1000860001E4900003F0A3F0900000E0FBA3E0FA87
:10009600A3E0F9120315FF1205725042900000E02A
:1000A600FBA3E0FAA3E0F9120315FF3395E0FEEF98
:1000B60024D0FBEE34FFFA900003E0FEA3E0FF7CC1
:1000C600007D0A120344EF2BFFEE3A900003F0A3E3
:1000D600EFF0900001E475F00112035680AA30019A
:1000E6000A900003E0FEA3E0FF800F900003E0FE0D
:0B00F600A3E0FFC3E49FFFE49EFE2296
:10034400EF8DF0A4A8F0CF8CF0A428CE8DF0A42ECD
:02035400FE2287
:10035600C5F0F8A3E028F0C5F0F8E5821582700232
:060366001583E038F022CF
:0F057200EFC394304007EF943A50028001C32248
:10053C00EFC394094005EF940E4004EFB42003D3AD
:04054C008001C32245
:00000001FF
