:1055EE003132330041542B43495053544152543DB0
:1055FE0022544350222C223139322E3136382E315C
:10560E00312E323033222C383038300D0A00252E10
:10561E0034660041542B43495053454E443D390D99
:10562E000A00540D0A004D0D0A004C0D0A00570DCC
:02563E000A0060
:10330F004204B300004204AD00004204BB0000447D
:10331F00041868686D6D4404BE000000004404CFBB
:10332F000000000041041C1E4404C20000000042C3
:10333F0004CD00004104DB004404D300000000442E
:10334F000450000000004404A8000000004203BC29
:09335F0000004403C068686D6DB4
:03000B00025A0D89
:105A0D00C0E0C083C082758A00758CB89004CEE06A
:105A1D0004F070069004CDE004F0D082D083D0E085
:015A2D003246
:03001B00025C3D47
:095C3D00B295758B00758DB8322B
:03000300024BB2FB
:104BB200C0E0C0F0C083C082C0D075D000C000C0C9
:104BC20001C002C003C004C005C006C00720B20D68
:104BD200758A00758CB8D28CD2A9024C8CC28CAC6E
:104BE2008CE41203589004D31209E59004E11209EF
:104BF200F1410000007F007E007D007C4012449A5B
:104C02009004D3E0F8A3E0F9A3E0FAA3E0FB1201D9
:104C12001EC004C005C006C007AC8AE4120358D007
:104C220003D002D001D00012002DE4FBFA793878CB
:104C3200C712002D7BBC7A747993784112022790B7
:104C420004D31209E59004D3E0F8A3E0F9A3E0FA53
:104C5200A3E0FBC000C001C002C0039004CDE0FE8F
:104C6200A3E0FF7C037DE8120774AC06AD07E412F3
:104C72000353D003D002D001D00012002D9004D3F0
:104C82001209E59004CDE4F0A3F0D007D006D005D8
:104C9200D004D003D002D001D000D0D0D082D083B3
:054CA200D0F0D0E0326B
:100BEE009004EB7401F0E4A3F0A3F0A3F0A3F0A340
:100BFE00F0A3F090050DF0A3F09005111209F1008D
:100C0E000000009006B5E4F0A304F0E49006B1F005
:100C1E00A3F09006AFF0A3F09006B7F0A3F0125534
:100C2E0095125BEA125C11125AC4125851125BF7FC
:100C3E00125B38438E80E4F58A758CB8F589F58B96
:100C4E00758DB8D28ED2ABD2AF7D067F09125ADE29
:100C5E007F647E00125A6E7D05E4FF125ADE7F64B9
:100C6E007E00125A6E7F017E00125B237F68125344
:100C7E00E57F681253E57F6D1253E57F6D1253E5E4
:100C8E007F231253E5E490050FF0A3F090050FE0DB
:100C9E00FAA3E0FBAE027802C333CE33CED8F924EA
:100CAE00C4F58274033EF5831209F100000000AD15
:100CBE0003AC02EC120353E4FBFAF978401202275C
:100CCE00E4FBFA79E0784012002DC004C005C0069E
:100CDE00C00790050FE0FAA3E0FBAE027802C33323
:100CEE00CE33CED8F92454F58274043EF583D00762
:100CFE00D006D005D0041209E5EB25E0FFEA33FE5D
:100D0E0074262FF58274043EF583E4F0A3F090056B
:100D1E0010E004F0700690050FE004F090050FE06F
:100D2E007004A3E064156003020C9A125BAC7F4062
:100D3E007E1F125A6E125C4F7FF47E01125A6E7B2A
:100D4E00FF7A5579EE1259E912547F7F327E0012E6
:100D5E0058BA12553B7F057E001258BA7F327E007C
:100D6E001258BA12547F90051A1209F1000000C8E9
:100D7E0090051E7463F07F02124AB71237297F085E
:100D8E001257637F061257637F501253E57F53123B
:100D9E0053E57F3A1253E59004CFE0FCA3E0FDA3A8
:100DAE00E0FEA3E0FF1246007F6D1253E57F6D1249
:100DBE0053E57F027E00125B239004B6E0FF125AC9
:100DCE008C7F3A1253E59004BDE0FF125A8C7F3AA5
:100DDE001253E59004DCE0547FFF125A8C7F3B12D5
:100DEE0053E59004ACE0FF125A8C9004B5E0FF126C
:100DFE005A8C7F3B1253E59006B3E07002A3E0607D
:100E0E00047F41800C9006B3E07002A3E070057F72
:100E1E004D1253E59006B1E07002A3E060649006B7
:100E2E00B3E07002A3E0705A9006B5E0FEA3E0FFB7
:100E3E00EE4F24FF92017F2A7E001257A39006B533
:100E4E00E07004A3E064019004CF7015E0FCA3E011
:100E5E00FDA3E0FEA3E0FF7BCD7ACC79CC783E807B
:100E6E0013E0FCA3E0FDA3E0FEA3E0FF7BCD7ACC74
:100E7E0079CC78BE12002D9004CF1209E5E49004CF
:100E8E00EBF09006AFE07002A3E0606A9006B3E06C
:100E9E007002A3E070609006B5E0FEA3E0FFEE4F97
:100EAE0024FF92017F2A7E001257A39006B5E070B0
:100EBE0004A3E064019004CF7015E0FCA3E0FDA351
:100ECE00E0FEA3E0FF7BCD7ACC79CC783E8013E0B8
:100EDE00FCA3E0FDA3E0FEA3E0FF7BCD7ACC79CCB2
:100EEE0078BE12002D9004CF1209E5E49004EBF0C9
:100EFE009006AFF0A3F030A3439004EBE0703DFFFB
:100F0E00FEFDFC9004CFE0F8A3E0F9A3E0FAA3E025
:100F1E00FB1202C4600250249004CF1209F10000AB
:100F2E0000009004EB7401F0E49006B1F0A3F09091
:100F3E0006AFF0A3F09006B5F0A304F0125C299072
:100F4E0004BDE09004CAF090051C7401F0A3740473
:100F5E00F0A374B5F0A37401F0A37404F0A374B6F7
:100F6E00F0A37401F0A37404F0A374BDF0A3740194
:100F7E00F0A37404F0A374DCF07B017A0479AC1254
:100F8E0054CC9004BDE0FF125AB3EF75F03284E5F5
:100F9E00F0702D9004DCE0547FFF125AB3EF7020F6
:100FAE007BFF7A5579F212581E7F2C7E01125A6EF3
:100FBE007BFF7A5579EE1259E97F2C7E01125A6E1B
:100FCE0090051A1209F1000000C87F021249A0AC68
:100FDE0007E41203589004B71209E57F017E001250
:100FEE005B239004B7E0FCA3E0FDA3E0FEA3E0FFCB
:100FFE001246009004B6E0FF125AB3EFD39410409D
:10100E0003020D899004B6E0FF125AB3EFC39407A2
:10101E005003020D899004BDE0FF125AB3AC07E4F1
:10102E00120358E4FBFA79707842120227C004C00A
:10103E0005C006C0079004B6E0FF125AB3AC07E431
:10104E00120358D003D002D001D00012002DE4FBC1
:10105E00FA79E078C012002DE4FBFA79707842122A
:10106E00011EC004C005C006C00790041CE0FCE4CD
:10107E00120358A804A905AA06AB07D007D006D0BC
:10108E0005D00412022712038C9004B3EEF0A3EFE6
:10109E00F09004B3E0FEA3E07802C333CE33CED893
:1010AE00F9FBAA062454F58274043AF583E0FCA3F6
:1010BE00E0FDA3E0FEA3E0FF9004F21209E574C484
:1010CE002BF58274033AF583E0FCA3E0FDA3E0FE6A
:1010DE00A3E0FF9004F61209E5C297D2929004B3F2
:1010EE00E0FAA3E0FB25E0FFEA33FE74262FF5823B
:1010FE0074043EF583E0FEA3E064014E6003021229
:10110E00F8EBAE027802C333CE33CED8F92458F5BD
:10111E008274043EF583E0FCA3E0FDA3E0FEA3E0B1
:10112E00FF9004FA1209E5EB2401FFE43AFE7C007D
:10113E007D03120774EE3395E0FDFC90051A12093B
:10114E00E57F021249A07E009004D7EEF0A3EFF0E7
:10115E00640170789004B3E0FEA3E0FF7C007D0391
:10116E00120774EF2405FFE43EFE3395E0FDFC907C
:10117E00051A1209E57F021249A0AC07E4120358C2
:10118E00E4FBFA79C87842120227C004C005C006F3
:10119E00C0079004B3E0FEA3E0FF7C007D031207BE
:1011AE0074EF2404FFE43EFE3395E0FDFC90051A37
:1011BE001209E57F021249A0AC07E4120358D003CE
:1011CE00D002D001D00012002D02125F9004D7E0A1
:1011DE007002A3E060030212769004B3E0FEA3E077
:1011EE00FF7C007D03120774EF2405FFE43EFE33FF
:1011FE0095E0FDFC90051A1209E57F021249A0AC9C
:10120E0007E4120358E4FBFA79C87842120227C0A9
:10121E0004C005C006C0079004B3E0FEA3E0FF7C47
:10122E00007D03120774EF2404FFE43EFE3395E0C5
:10123E00FDFC90051A1209E57F021249A0AC07E4E5
:10124E0012035812033DD003D002D001D000120079
:10125E00299004BEE0F8A3E0F9A3E0FAA3E0FB12A4
:10126E00002D9004FE1209E57F017E00125B239093
:10127E0004F6E0FCA3E0FDA3E0FEA3E0FF124600AF
:10128E009004BDE0FF125AB3AC07E4120358E4FB1E
:10129E00FA79707842120227C004C005C006C00752
:1012AE009004B6E0FF125AB3AC07E4120358D00311
:1012BE00D002D001D00012002D9005AB1209E578B6
:1012CE009B7C057D017B017A0479F27E007F0812FA
:1012DE0006F678A37C057D017B017A0479FA7E00FF
:1012EE007F081206F6124DA5802F7B017A0479260F
:1012FE009004B3E0FCA3E0FD1259A0EF7802C333D3
:10130E00CE33CED8F924C4F58274033EF583E0FCC7
:10131E00A3E0FDA3E0FEA3E0FF9005211209E590F6
:10132E0004ACE0FF9004B5E0FD9004BDE090051C18
:10133E00F09004DCE090051DF0A37401F0A374049A
:10134E00F0A374CFF09004B6E0FB1223C09004BD5E
:10135E00E0FF9004CAE06F7003020D89125AB3AC1D
:10136E0007E4120358E4FBFA79707842120227C0A0
:10137E0004C005C006C0079004B6E0FF125AB3AC15
:10138E0007E4120358D003D002D001D00012002D72
:10139E00C004C005C006C0079004DCE0547FFF12F5
:1013AE005AB3AC07E4120358E4FBFA79617845129C
:1013BE000227D003D002D001D00012002D90051FBD
:1013CE001209E590051C74FFF0A37456F0A3741C6B
:1013DE00F07B017A04791D122EF17BFF7A5679216A
:1013EE0012581E7FC87E00125A6E7B017A04791D38
:1013FE0012581E7BFF7A56793012581E7FC87E0017
:10140E001259CB90051C74FFF0A37456F0A3741CF4
:10141E00F09004CFE0FCA3E0FDA3E0FEA3E0FF907C
:10142E00051F1209E57B017A04791D122EF17BFF4F
:10143E007A56792112581E7FC87E001259CB7B0135
:10144E007A04791D12581E7BFF7A56793412581E73
:10145E007FC87E001259CB90051C74FFF0A3745602
:10146E00F0A3741CF09004D3E0FCA3E0FDA3E0FE17
:10147E00A3E0FF90051F1209E57B017A04791D1286
:10148E002EF17BFF7A56792112581E7FC87E0012EC
:10149E0059CB7B017A04791D12581E7FC87E00122B
:1014AE0059CB7BFF7A56793812581E7FC87E0012B0
:1014BE0059CBE4FF1258D8AC06AD07E4120353E43F
:1014CE00FBFA79807844120227E4FBFA79A078407F
:1014DE0012011E90051F1209E590051C74FFF0A362
:1014EE007456F0A3741CF07B017A04791D122EF150
:1014FE007BFF7A56792112581E7FC87E001259CB77
:10150E007B017A04791D12581E7BFF7A56793C12A4
:0C151E00581E7FC87E001259CB020D89B8
:0300230002000ECA
:0D000E00309802C298309904C299C20A329B
:095C4600200AFDD20AEFF59922B3
:065B6200D2A27F017E00CB
:0E5B6800EF1FAC0670011E4C60030080F3229C
:025A2E00AD07C2
:105A3000E4FBC2A2ED30E704D2A18002C2A1125B56
:0D5A400064125B62ED25E0FD0BEBB408E5A0
:015A4D002236
:105A4E00E4FDD2A1FBED25E0FDC2A2125B6430A104
:0F5A5E0004ED4401FD125B620BEBB408E8AF05E9
:015A6D002216
:105B8A00E4FED2A0EF44A0FF125A2E125A4EC2A02F
:015B9A0022E8
:105ADE00AA07D2A0ED4420FF125A2EAF02125A2E60
:085AEE00AF02125A2EC2A022E1
:0D5BEA005395F85396F8D2A0C2A0C2A22293
:1054CC00900519EBF0A3EAF0A3E9F07F09125B8ACF
:1054DC00900519E0FBA3E0FAA3E0F9EF1207627F55
:1054EC0007125B8A90051CE0FBA3E0FAA3E0F9EF3E
:1054FC001207627F06125B8A90051FE0FBA3E0FA9D
:10550C00A3E0F9EF1207627F05125B8A900522E097
:10551C00FBA3E0FAA3E0F9EF1207627F04125B8AA7
:0F552C00900525E0FBA3E0FAA3E0F9EF02076288
:105B9B00EFC4540FFEEF540FFFEE75F00AA42FFF66
:015BAB0022D7
:10535900125B9BAC07AF05125B9BEC14B40C0050BD
:105369007390537875F003A4C58325F0C583730240
:10537900539C02539F0253A40253A90253AE0253F2
:10538900B30253B80253BD0253C20253CA0253CFE8
:105399000253D47E0022EF241F8021EF243B801C7E
:1053A900EF245A8017EF24788012EF2497800DEFAD
:1053B90024B58008EF24D48003EF24F3FFE433FEFF
:1053C90022EF24118008EF24308003EF244EFFE4FC
:0753D9003401FE22E4FEFF97
:0153E00022AA
:10559500E4F5917592FF7F96FE1259CB7F03125762
:1055A500637F1E7E001259CB7F031257631259C7C2
:1055B5007F031257631259C77F021257637F017E1B
:1055C500001259CB7F021257637F08125763E4FF1D
:1055D5001257637F0E125763E4FF1257637F06125B
:0955E50057637F147E000259CBCC
:0453E100E04430FF75
:1053E500900524EFF0D2C0C293E0FF5480C413139C
:1053F50013540124FF92B7EF5440C41313540324EC
:10540500FF92B6E0FF5420C413540724FF92B5EF72
:105415005410C4540F24FF92B4D2B37F017E0012FE
:1054250059CBC2B3900524E0FF5408131313541F3E
:1054350024FF92B7EF54041313543F24FF92B6E0B0
:10544500FF5402C31324FF92B5EF1392B41259C54A
:05545500C2B3C2C02239
:10576300C2C0C293EF5408131313541F6004D2B77B
:105773008002C2B7EF54041313543F6004D2B680BF
:1057830002C2B6EF5402C3136004D2B58002C2B59D
:10579300EF30E004D2B48002C2B41259C5C2B322BE
:0659C500D2B37F0A7E0050
:1059CB00EF1FAA0670011E4A6013E4FCFDC3ED94A1
:0D59DB0058EC940250EA0DBD00010C80F064
:0159E800229C
:105A8C00EFC4540F4430FEEF540F4430900519F01E
:0D5A9C00AF061253E5900519E0FF0253E537
:0A5C2900E4FF1257637F0202576385
:0A5C3300E4FF1257637F010257637C
:105B2300EF64014E70047F0880027F0C125763E418
:055B3300FF1257632280
:064600009005191209E506
:10460600900519E0FCA3E0FDA3E0FEA3E0FF120382
:104616008C125C1D900522EEF0A3EFF0E4FFFEFD88
:10462600FC900519E0F8A3E0F9A3E0FAA3E0FB1279
:1046360002C460264024900522E0FCA3E0FDEC12B3
:104646000353A804A905AA06AB07900519E0FCA325
:10465600E0FDA3E0FEA3E0FF8035900519E0FCA392
:10466600E0FDA3E0FEA3E0FF12033DC004C005C0C9
:1046760006C007900522E0FCA3E0FDEC120353A858
:1046860004A905AA06AB07D007D006D005D00412A8
:104696000029E4FBFA7920784112011E12038C905E
:1046A6000521EFF0900522E0FAA3E0FB7C007D0AED
:1046B600FFAE021207DB90051DEDF07C037DE8AF2F
:1046C60003AE021207DBA907900520E9F07E007C05
:1046D600037DE8120774C3900523E09FFB90052233
:1046E600E09EFA7C007D64AF03FE12078690051FEC
:1046F600EFF0E075F064A4FFC3EB9FFFEA95F0FED0
:104706007C007D0A12078690051EEFF0E4FFFEFD91
:10471600FC900519E0F8A3E0F9A3E0FAA3E0FB1288
:1047260002C4400280057F2D1253E59005201253E6
:10473600E190051F1253E190051E1253E190051DED
:0E4746001253E17F2E1253E59005211253E12C
:014754002242
:103368004206B100004206AF00004206B500004226
:0D33780006B300004206B700004106A000A9
:105A6E00EF1FAA0670011E4A6013E4FCFDC3ED94FD
:0D5A7E0058EC940250EA0DBD00010C80F0C0
:015A8B0022F8
:103FFC0053801E43801EE58044E190051FF0E0F4E1
:10400C007003024186E58044E1F0E0F47003024164
:10401C00835380DF4380C1E58044E1F0E0F46047E6
:10402C0090051FE0FFF4600DA3EFF0E58044E190F4
:10403C00051FF080EB900520E02411602424F8602B
:10404C001824FC600C24FE701E9005217401F08075
:10405C00169005217404F0800E9005217407F080F1
:10406C0006900521740CF05380BF4380A1E5804479
:10407C00E190051FF0E0F4604690051FE0FFF4604E
:10408C000DA3EFF0E58044E190051FF080EB900567
:10409C0020E02411602424F8601824FC600C24FE19
:1040AC00701D9005217402F080159005217405F0A7
:1040BC00800D9005217408F08005E4900521F053E3
:1040CC00807F438061E58044E190051FF0E0F4605F
:1040DC004790051FE0FFF4600DA3EFF0E58044E18D
:1040EC0090051FF080EB900520E02411602424F84B
:1040FC00601824FC600C24FE701E9005217403F0E3
:10410C0080169005217406F0800E9005217409F03C
:10411C008006900521740BF05380FE4380E0E5800F
:10412C0044E190051FF0E0F4604790051FE0FFF4B8
:10413C00600DA3EFF0E58044E190051FF080EB905B
:10414C000520E02411602424F8601824FC600C2461
:10415C00FE701E900521740DF08016900521740ED2
:10416C00F0800E900521740FF080069005217410DC
:0C417C00F0900521E0FF227F64227F64A8
:014188002214
:103729009006A3E0FFA3E09006A1CFF0A3EFF0126B
:103739003FFC7E009006A3EEF0A3EFF0640E700646
:103749009006AF0237D69006A1E0FEA3E0FF6464BD
:103759004E7020A3E07004A3E0640F70169006B5C4
:10376900E07002A3E06006E49006B580589006B5C3
:10377900E4805A9006A3E0FCA3E0FD64104C700FAE
:103789009006B1E07002A3E070059006B1803EEDAD
:1037990064104C70109006B1E07002A3E06006E47A
:1037A9009006B18020EF64644E70279006A3E07004
:1037B90004A3E0640D701B9006B3E07002A3E060FF
:1037C90008E49006B3F0A3F0229006B3E4F0A30452
:1037D900F0229006A1E07004A3E064646003023A59
:1037E900B49006A3E0FCA3E0FD64644C7003023AC4
:1037F900B49006A0E0FF3395E0FEEF25E0FFEE333D
:10380900FE74A52FF58274063EF583ECF0A3EDF066
:103819009006A0E004F0E064056003023A52F090DB
:1038290006ADE07004A3E0640B70749006A5E0FE99
:10383900A3E0FF7C007D0A1207749006A8E02FFF21
:103849009006A7E03EAB07FA9006A9E0FEA3E0FFC9
:103859001207749006ACE02FFF9006ABE03EFED352
:10386900EB9418EA940040030239E1EF943CEE949A
:103879000040030239E19006A5A3E0C454F0FFA378
:10388900A3E04FFF7D06125ADE9006A9A3E0C454B7
:10389900F0FFA3A3E04FFF7D05125ADE0239D8904D
:1038A90006ADE07004A3E0640C60030239E1900600
:1038B900A5E0FEA3E0FF7C007D0A1207749006A82C
:1038C900E02FFF9006A7E03E90051BF0FAA3EFF06A
:1038D900FB9006A9E0FEA3E0FF1207749006ACE096
:1038E9002FFF9006ABE03E90051DF0A3EFF0D3EB60
:1038F9009407EA9400507B90051CE030E023900582
:103909001EE0941F90051DE0940040030239D890F1
:1039190006A5A3E0C454F0FFA3A3E04FFF1D02399D
:10392900C290051BE07004A3E064027024D39005E3
:103939001EE0941C90051DE0940040030239D890C4
:1039490006A5A3E0C454F0FFA3A3E04FFF7D0980BF
:1039590068D390051EE0941E90051DE09400506FF9
:103969009006A5A3E0C454F0FFA3A3E04FFF7D098F
:10397900804790051CE020E021D390051EE0941FAC
:1039890090051DE0940050479006A5A3E0C454F0AB
:10399900FFA3A3E04FFF7D09801FD390051EE0948C
:1039A9001E90051DE0940050269006A5A3E0C4547E
:1039B900F0FFA3A3E04FFF7D09125ADE9006A9A3E9
:1039C900E0C454F0FFA3A3E04FFF7D07125ADE9035
:1039D90006ADE4F0A37464F09006A5E07004A3E0DA
:1039E900640970359006A7E07004A3E064097029A2
:1039F9009006A9E07004A3E06409701D9006ABE08D
:103A09007004A3E0640970119006ADE07002A3E0B0
:103A190070079006B7F0A304F09006B7E07002A310
:103A2900E07026125C337F08125763E4FF12576374
:103A39007F681253E57F681253E57F6D1253E57F66
:103A49006D1253E57F231253E5E4900519F0A3F0B5
:103A59009006A0E0FFFD3395E0FCC390051AE09DB8
:103A6900900519E09C5044EF64809484502D7F08A0
:103A7900125763900519A3E0FF12576390051AE0E6
:103A890025E0FF900519E033FE74A52FF582740631
:103A99003EF583A3E04430FF1253E590051AE00494
:0B3AA900F070AD900519E004F080A55E
:013AB40022EF
:0C5C1100759300759400E4F594F593225F
:103385006028013043340000433E000043480000FC
:1033950043520000435C0000436600004370000098
:1033A500437A00004382000043870000602800A4A0
:1033B50043340000432A0000432000004316000068
:1033C500430C00004302000042F0000042DC000014
:1033D50042C8000042B400006258016042EFA3D722
:1033E50042EF385242EDB33342ECC28F42EAE14834
:1033F50042E8385242E03D7142D170A4429B75C308
:1034050042BEA8F642D5F0A442D5C7AE42D4333366
:1034150042D08F5C42CAD70A42C1F5C342B2947BFF
:103425004290051F41F428F6C2AC4CCD42BD051FA4
:1034350042BC2E1442B9385242B3947B42AB947BC2
:10344500429C4CCD428338524221F5C3C17051ECA8
:10345500C2DB385242A3E66642A2BD71429E3D716F
:10346500429675C3428ADC29426BD70A422B333315
:103475004143851FC22FAE14C2EEF5C3428A6B8548
:103485004288A8F642834CCD42728F5C4252CCCD25
:103495004221E14841AA51ECC130F5C3C27B28F66F
:1034A500C2F9947B425D47AE425A1EB8424E3D7109
:1034B5004237D70A4214666641B95C293FF851EC98
:1034C500C1F228F6C2959EB8C2FC28F64227EB85C4
:1034D5004223B8524216333341FBD70A41A628F698
:1034E50040CE6666C1770A3DC235147BC2A7333329
:1034F500C2FECCCD41E28F5C41D7EB8541B9851F3A
:1035050041830A3D40C1999AC112E148C1F370A4B3
:10351500C265D70AC2B6199AC2FFA8F64161999A3F
:10352500414E147B410CCCCD00000000C107AE1408
:10353500C1BC28F6C22C147BC2884CCDC2C1CCCDEF
:10354500C2FEAE140000000000000000C0B800007C
:10355500C142E148C1B55C29C212851FC25AE14882
:10356500C299C28FC2CA9EB8C2FF75C3C162B852A2
:10357500C170CCCDC1991EB8C1D2F5C3C210E14806
:10358500C242E148C282F0A4C2A7C7AEC2D22E147D
:10359500C2FEFAE1C1E1D70AC1EC51ECC204EB85E8
:1035A500C21E70A4C240EB85C2705C29C295428FD1
:1035B500C2B5C28FC2D9428FC2FF147BC228851FF4
:1035C500C22C5C29C2397AE1C250A3D7C2716666A2
:1035D500C28D0A3DC2A56148C2C18F5CC2DF947B22
:1035E500C2FF851FC25E147BC261999AC26F28F61D
:1035F500C282051FC28F2E14C2A05C29C2B4C7AEF9
:10360500C2CBD1ECC2E551ECC2FFE666C28A199A7B
:10361500C28C47AEC290D1ECC2990F5CC2A461487E
:10362500C2B2947BC2C36148C2D5A3D7C2EA0F5CBC
:10363500C3000F5C603C00F4400CCCCD40DCCCCD2D
:103645004139999A4182666641A8000041CD999A0F
:1036550041F33333420C6666421F33334232000076
:103665004244CCCD4257999A426A6666427D3333CD
:103675004288000060A00004C1E1D70AC1EC51EC0A
:10368500C204EB85C21E70A4C240EB85C2705C29E2
:10369500C295428FC2B5C28FC2D9428FC2FF147B79
:1036A500C228851FC22C5C29C2397AE1C250A3D732
:1036B500C2716666C28D0A3DC2A56148C2C18F5CF2
:1036C500C2DF947BC2FF851FC25E147BC261999ADB
:1036D500C26F28F6C282051FC28F2E14C2A05C29B4
:1036E500C2B4C7AEC2CBD1ECC2E551ECC2FFE666AF
:1036F500C28A199AC28C47AEC290D1ECC2990F5CAE
:10370500C2A46148C2B2947BC2C36148C2D5A3D7E3
:10371500C2EA0F5CC3000F5C440000C0A00000417A
:0337250000D400CD
:105B38009001581209F1C2932E1490015C1209F1D8
:055B480042360A3D2277
:0A5AA9001209E590051DE0547FFF8F
:105AB300EFC4540FFEEF540FFFEE75F00AA42FFF4F
:015AC30022C0
:10568B009000EC30021A7404F07B017A0079E71277
:10569B004F007F027E00125A6E9000EC7406801849
:1056AB007405F07B017A0079E7124F007F027E00D0
:1056BB00125A6E9000EC7407F07B017A0079E712B6
:0A56CB004F007F027E00125A6E228B
:0857A300900519EEF0A3EFF0F0
:1057AB00E4A3F0A3F090051BF0A3F0900519E0FE25
:1057BB00A3E0FFC390051CE09F90051BE09E5017D4
:1057CB00A201920212568B90051CE004F070DC9043
:0757DB00051BE004F080D47F
:0157E20022A4
:065902009006E91209E520
:10590800E4FFFE7DD07C429006E9E0F8A3E0F9A32D
:10591800E0FAA3E0FB12011E12038CA20B92010213
:0259280057A383
:104D820078A37C057D017B017E007F081206F690E8
:104D9200053FE0FCA3E0FDA3E0FEA3E0FF9005AB2E
:034DA2001209E50E
:104DA5009005ABE0F8A3E0F9A3E0FAA3E0FB9005DA
:104DB5009BE0FCA3E0FDA3E0FEA3E0FF12002912A7
:104DC500033DC004C005C006C0079005A3E0F8A3D5
:104DD500E0F9A3E0FAA3E0FB90059BE0FCA3E0FD6E
:104DE500A3E0FEA3E0FF120029A804A905AA06ABCB
:104DF50007D007D006D005D004120227C004C0058D
:104E0500C006C0079005A7E0F8A3E0F9A3E0FAA360
:104E1500E0FB90059FE0FCA3E0FDA3E0FEA3E0FF1F
:104E2500120029D003D002D001D00012011E900536
:0F4E35009FE0F8A3E0F9A3E0FAA3E0FB12002D41
:014E4400224B
:0629910090053F1209E56C
:102997009005831209F100000000E4900587F0A379
:1029A700F0900587E0FEA3E0FFC3940AEE648094ED
:1029B700804003022D1EEF7802C333CE33CED8F901
:1029C7002434F58274013EF583E0FCA3E0FDA3E027
:1029D700FEA3E0FF90053FE0F8A3E0F9A3E0FAA328
:1029E700E0FB1202C460054003022B62900587E0FA
:1029F700FEA3E07802C333CE33CED8F92430F58274
:102A070074013EF583E0FCA3E0FDA3E0FEA3E0FF35
:102A170090053FE0F8A3E0F9A3E0FAA3E0FB120278
:102A2700C45003022B62E4900589F0A3F090058758
:102A3700E0FEA3E07802C333CE33CED8F9FBAA0673
:102A47002430F58274013AF583E0FCA3E0FDA3E0AE
:102A5700FEA3E0FF90058B1209E574342BF5827411
:102A6700013AF583E0FCA3E0FDA3E0FEA3E0FF90BD
:102A770005931209E5900587E0FEA3E07802C333CA
:102A8700CE33CED8F9FBAA06900589E0FEA3E090E5
:102A9700016075F028120A3CEE75F028A42583F52D
:102AA70083E5822BF582E5833AF583E0FCA3E0FD1D
:102AB700A3E0FEA3E0FF90058F1209E5900589E0EA
:102AC700FEA3E090016475F028120A3CEE75F02829
:102AD700A42583F583E5822BF582E5833AF583E028
:102AE700FCA3E0FDA3E0FEA3E0FF9005971209E534
:102AF700789B7C057D017B017A05798B7E007F08B9
:102B07001206F67A057993124D82C004C005C006F5
:102B1700C007900589E0FEA3E07802C333CE33CE29
:102B2700D8F92447F58274053EF583D007D006D03F
:102B370005D0041209E590058AE004F070069005B7
:102B470089E004F0C390058AE0940F900589E0645A
:102B57008094805003022A34022D0A900587E0FEF4
:102B6700A3E07802C333CE33CED8F924A8F5827414
:102B7700003EF583E0FCA3E0FDA3E0FEA3E0FF90A9
:102B8700053FE0F8A3E0F9A3E0FAA3E0FB1202C4D3
:102B97005003022D0A900587E0FEA3E07802C333B5
:102BA700CE33CED8F924A4F58274003EF583E0FC39
:102BB700A3E0FDA3E0FEA3E0FF90053FE0F8A3E05C
:102BC700F9A3E0FAA3E0FB1202C460054003022D5B
:102BD7000AE4900589F0A3F0900587E0FEA3E0786A
:102BE70002C333CE33CED8F9FBAA0624A4F58274E8
:102BF700003AF583E0FCA3E0FDA3E0FEA3E0FF902D
:102C0700058B1209E574A82BF58274003AF583E069
:102C1700FCA3E0FDA3E0FEA3E0FF9005931209E506
:102C2700900587E0FEA3E07802C333CE33CED8F910
:102C3700FBAA06900589E0FEA3E090016075F028E5
:102C4700120A3CEE75F028A42583F583E5822BF55F
:102C570082E5833AF583E0FCA3E0FDA3E0FEA3E071
:102C6700FF90058F1209E5900589E0FEA3E090012A
:102C77006475F028120A3CEE75F028A42583F583C5
:102C8700E5822BF582E5833AF583E0FCA3E0FDA31B
:102C9700E0FEA3E0FF9005971209E5789B7C057D90
:102CA700017B017A0579937E007F081206F67A0583
:102CB700798B124D82C004C005C006C007900589F4
:102CC700E0FEA3E07802C333CE33CED8F92447F52C
:102CD7008274053EF583D007D006D005D0041209CB
:102CE700E590058AE004F07006900589E004F0C3DA
:102CF70090058AE0940F900589E0648094805003E2
:102D0700022BDF900588E004F060030229A89005F4
:102D170087E004F00229A8E4900587F0A3F0900566
:102D270087E0FEA3E0FFC3940FEE64809480400326
:102D3700022E7DEF7802C333CE33CED8F924F4F5D3
:102D47008274003EF583E0FCA3E0FDA3E0FEA3E070
:102D5700FF900543E0F8A3E0F9A3E0FAA3E0FB1234
:102D670002C45003022E6C900587E0FEA3E07802B0
:102D7700C333CE33CED8F924F8F58274003EF583F9
:102D8700E0FCA3E0FDA3E0FEA3E0FF900543E0F82D
:102D9700A3E0F9A3E0FAA3E0FB1202C46005400335
:102DA700022E6C900587E0FEA3E07802C333CE3392
:102DB700CED8F9FBAA0624F4F58274003AF583E02D
:102DC700FCA3E0FDA3E0FEA3E0FF90058B1209E55D
:102DD70074F82BF58274003AF583E0FCA3E0FDA3B9
:102DE700E0FEA3E0FF9005931209E5900587E0FE5A
:102DF700A3E07802C333CE33CED8F9FBAA06244723
:102E0700F58274053AF583E0FCA3E0FDA3E0FEA399
:102E1700E0FF90058F1209E5744B2BF58274053A94
:102E2700F583E0FCA3E0FDA3E0FEA3E0FF90059798
:102E37001209E5789B7C057D017B017A05798B7EFC
:102E4700007F081206F678A37C057D017B017A05D1
:102E570079937E007F081206F6900543124D9490F1
:102E670005831209E5900588E004F0700690058750
:102E7700E004F0022D25900583E0FCA3E0FDA3E02C
:042E8700FEA3E0FFC7
:012E8B002224
:0923C00090051BEBF0AA05A9072A
:1023C900E4900527F0A3F0A3F0A3F0A31209F1000C
:1023D90000000090052F1209F1000000009005335C
:1023E9001209F1000000009000D57407F0A374E30E
:1023F900F0AF01125AB3A3E4F0A3EFF0AF02125AFF
:10240900B3A3E4F0A3EFF090051BE0FF125AB3EF7A
:102419002405FDE433FCE41203539000DB1209E5C3
:1024290090051CE0FF125AB3AC07E4120358900060
:10243900DF125AA9AC07E41203589000E31209E528
:1024490090051EE0FBA3E0FAA3E0F91208FF90054E
:102459002B1209E5783F7C057D017B017A0079D54E
:102469007E007F121206F678517C057D017B017A88
:102479000179587E007F081206F69005597401F01B
:10248900A37400F0A374F1F012152AE4FBFA79346D
:10249900784312011E7BD07A0F79497840120227BE
:1024A9009000CC1209E59000DAE024AFFF9000D942
:1024B900E034FFFE7C017D681207747D6D1207DB35
:1024C900EF25E0FDEE33FC1203537BD07A0F7949F7
:1024D900784012011EE4FBFA79347843120227127C
:1024E90043707B857AEB791D784112011EC004C0C7
:1024F90005C006C007E4FFFE7D707C41900000E046
:10250900F8A3E0F9A3E0FAA3E0FB12011EA804A9CD
:1025190005AA06AB07900158E0FCA3E0FDA3E0FE85
:10252900A3E0FF120029E4FBFA7980784012011E2A
:10253900D003D002D001D00012002DC004C005C0C4
:1025490006C0079000DAE024AFFF9000D9E034FF1D
:10255900FE7C017D681207747D6D1207DBAC06AD48
:1025690007EC1203537BD07A0F7949784012011E88
:10257900E4FBFA7934784312022712435A7BC37A6F
:10258900F579F0784012011EA804A905AA06AB073F
:10259900D007D006D005D004120029C004C005C058
:1025A90006C0079000DAE024AFFF9000D9E034FFBD
:1025B900FE7C017D681207747D6D1207DBAC06ADE8
:1025C90007EC1203537BD07A0F7949784012011E28
:1025D900E4FBFA79347843120227124370E4FBFAD8
:1025E90079C0783F12011EA804A905AA06AB07D035
:1025F90007D006D005D004120029E4FBFA797078D7
:10260900421202279000D01209E590051CE0FF1242
:102619005AB3AC07E4120358E4FBFA797078421212
:102629000227C004C005C006C00790051BE0FF12C1
:102639005AB3AC07E4120358D003D002D001D0003A
:1026490012002D9000D0E0F8A3E0F9A3E0FAA3E08E
:10265900FB12002D9000ED1209E57FD07E0F7D4918
:102669007C409000CCE0F8A3E0F9A3E0FAA3E0FBFA
:1026790012011EE4FBFA7934784312022712435AF5
:10268900C004C005C006C0077FD07E0F7D497C40CD
:1026990090015CE0F8A3E0F9A3E0FAA3E0FB1201E2
:1026A9001EE4FBFA7934784312022712435AD00305
:1026B900D002D001D00012011EC004C005C006C05E
:1026C90007E4FFFE7D407CC19000EDE0F8A3E0F94E
:1026D900A3E0FAA3E0FB12002D7BD37A7E793C7844
:1026E9004212011EE4FBFA7934784312022712439D
:1026F9005AD003D002D001D00012011EC004C00577
:10270900C006C0077FD07E0F7D497C409000CCE099
:10271900F8A3E0F9A3E0FAA3E0FB12011EE4FBFA37
:1027290079347843120227124370C004C005C006E9
:10273900C0077FD07E0F7D497C4090015CE0F8A303
:10274900E0F9A3E0FAA3E0FB12011EE4FBFA7934F5
:102759007843120227124370D003D002D001D0006F
:1027690012011ED003D002D001D00012002D125741
:10277900E37BED7A2E7965784212011E90053712B6
:1027890009E5E4FFFE7D407CC19000EDE0F8A3E09F
:10279900F9A3E0FAA3E0FB12002D7BD37A7E793C02
:1027A900784212011EE4FBFA7934784312022712A7
:1027B9004370C004C005C006C0077FD07E0F7D49A5
:1027C9007C409000CCE0F8A3E0F9A3E0FAA3E0FB99
:1027D90012011EE4FBFA7934784312022712435A94
:1027E900D003D002D001D00012011EC004C005C020
:1027F90006C007900537E0F8A3E0F9A3E0FAA3E0E3
:10280900FBE4FFFE7DB47C421200297BD07A0F796C
:1028190049784012011EE4FBFA7934784312022701
:10282900124370A804A905AA06AB07D007D006D0A1
:1028390005D0041202271257E37BED7A2E796578C9
:102849004212011EE4FBFA7934784312002D9005F7
:102859003B125AA9EF30E0030229907FCD7ECC7D4F
:102869000C7C40900537E0F8A3E0F9A3E0FAA3E077
:10287900FB1202C45003022990E4FFFE7D887C42CA
:10288900900537E0F8A3E0F9A3E0FAA3E0FB120210
:10289900C460054003022990900537E0FCA3E0FDE0
:1028A900A3E0FEA3E0FF9005431209E590053BE094
:1028B900FCA3E0FDA3E0FEA3E0FF122991900533FC
:1028C9001209E5E4FFFE7D167C43900533E0F8A389
:1028D900E0F9A3E0FAA3E0FB12002D900521E0F84E
:1028E900A3E0F9A3E0FAA3E0FB12002D90052B1257
:1028F90009E590051EE0FBA3E0FAA3E0F91209C57A
:1029090090052BE0FCA3E0FDA3E0FEA3E0FF12008D
:102919002990052F1209E590052FE0FCA3E0FDA3FE
:10292900E0FEA3E0FF125C04E4FBFAF9783F12022F
:10293900C460025052E4FFFE7D707CC190052BE01B
:10294900F8A3E0F9A3E0FAA3E0FB1202C44038E4DB
:10295900FFFE7D527C4390052BE0F8A3E0F9A3E04C
:10296900FAA3E0FB1202C46002501C90052BE0FCA4
:10297900A3E0FDA3E0FEA3E0FF90051EE0FBA3E0BA
:07298900FAA3E0F912094F67
:012990002224
:103AB5009006E1EBF09000D57407F0A374E3F012E3
:103AC5005AB3A3E4F0A3EFF0AF05125AB3A3E4F0A1
:103AD500A3EFF09006E1E0FF125AB3EF2405FDE4F1
:103AE50033FCE41203539000DB1209E59006E2E093
:103AF500FF125AB3AC07E41203589000DF1209E530
:103B05009006E3125AAFAC07E41203589000E31293
:103B150009E5783F7C057D017B017A0079D57E003A
:103B25007F121206F678517C057D017B017A0179B9
:103B3500587E007F081206F69005597401F0A374AB
:103B450000F0A374F1F012152AE4FBFA79347843F6
:103B550012011E7BD07A0F79497840120227900016
:103B6500CC1209E59000DAE024AFFF9000D9E034EB
:103B7500FFFE7C017D681207747D6D1207DBEF2562
:103B8500E0FDEE33FC1203537BD07A0F7949784080
:103B950012011EE4FBFA79347843120227124370AE
:103BA5007B857AEB791D784112011EC004C005C0E2
:103BB50006C007E4FFFE7D707C41900000E0F8A39D
:103BC500E0F9A3E0FAA3E0FB12011EA804A905AAE7
:103BD50006AB07900158E0FCA3E0FDA3E0FEA3E0DF
:103BE500FF120029E4FBFA7980784012011ED00308
:103BF500D002D001D00012002DC004C005C006C0FF
:103C0500079000DAE024AFFF9000D9E034FFFE7C96
:103C1500017D681207747D6D1207DBAC06AD07ECFC
:103C25001203537BD07A0F7949784012011EE4FBC9
:103C3500FA7934784312022712435A7BC37AF5790D
:103C4500F0784012011EA804A905AA06AB07D00703
:103C5500D006D005D004120029C004C005C006C096
:103C6500079000DAE024AFFF9000D9E034FFFE7C36
:103C7500017D681207747D6D1207DBAC06AD07EC9C
:103C85001203537BD07A0F7949784012011EE4FB69
:103C9500FA79347843120227124370E4FBFA79C0AB
:103CA500783F12011EA804A905AA06AB07D007D0C4
:103CB50006D005D004120029E4FBFA797078421287
:103CC50002279000D01209E59006E2E0FF125AB3F0
:103CD500AC07E4120358E4FBFA7970784212022724
:103CE500C004C005C006C0079006E1E0FF125AB344
:103CF500AC07E4120358D003D002D001D000120063
:103D05002D9000D0E0F8A3E0F9A3E0FAA3E0FB12C0
:103D1500002D9000ED1209E57FD07E0F7D497C4096
:103D25009000CCE0F8A3E0F9A3E0FAA3E0FB1201D0
:103D35001EE4FBFA7934784312022712435AC00471
:103D4500C005C006C0077FD07E0F7D497C4090012D
:103D55005CE0F8A3E0F9A3E0FAA3E0FB12011EE49E
:103D6500FBFA7934784312022712435AD003D00262
:103D7500D001D00012011EC004C005C006C007E472
:103D8500FFFE7D407CC19000EDE0F8A3E0F9A3E0E3
:103D9500FAA3E0FB12002D7BD37A7E793C784212A0
:103DA500011EE4FBFA7934784312022712435AD0F4
:103DB50003D002D001D00012011EC004C005C00608
:103DC500C0077FD07E0F7D497C409000CCE0F8A3F2
:103DD500E0F9A3E0FAA3E0FB12011EE4FBFA793453
:103DE5007843120227124370C004C005C006C007FD
:103DF5007FD07E0F7D497C4090015CE0F8A3E0F91F
:103E0500A3E0FAA3E0FB12011EE4FBFA7934784340
:103E1500120227124370D003D002D001D000120144
:103E25001ED003D002D001D00012002D1257E3227C
:10152A00E4FBFA7970784290054DE0FCA3E0FDA354
:10153A00E0FEA3E0FF120227900549E0F8A3E0F9D4
:10154A00A3E0FAA3E0FB12002DE4FBFA79707842DB
:10155A00120227900545E0F8A3E0F9A3E0FAA3E018
:10156A00FB12002D9005601209E5900542E024F275
:10157A00FF900541E034FFFE7C007D0C1207DBEE94
:10158A003395E0FDFC9005801209E5E47F0CFEFD31
:10159A00FC900580E0F8A3E0F9A3E0FAA3E0FB12CF
:1015AA00087EA804A905AA06AB07900542E024FE16
:1015BA00FF900541E034FFFE3395E0FDFCC3EF9B4D
:1015CA00FFEE9AFEED99FDEC98FCE47B6F7A01F947
:1015DA00F812087EE47B0CFAF9F812571FC004C00F
:1015EA0005C006C007900540E024C0FF90053FE013
:1015FA003412FE3395E0FDFC900580E0F8A3E0F993
:10160A00A3E0FAA3E02FFFEA3EFEE93DFDE83CFC39
:10161A00E47BB57A05F9F812087EE47B04FAF9F856
:10162A0012571FD003D002D001D000EF2BFFEE3AA1
:10163A00FEED39FDEC38FCC004C005C006C00790B9
:10164A000540E02424FF90053FE03413FE3395E083
:10165A00FDFC900580E0F8A3E0F9A3E0FAA3E02FEF
:10166A00FFEA3EFEE93DFDE83CFCE47B64FAF9F85A
:10167A0012571FE47B03FAF9F812087EE47B04FA96
:10168A00F9F812571FA804A905AA06AB07D007D074
:10169A0006D005D004C3EF9BFBEE9AFAED99F9EC5C
:1016AA0098F8900543E0FEA3E0FFEE3395E0FDFCD9
:1016BA00EB2FFFEA3EFEE93DFDE83CFCEF24B5FFD7
:1016CA00EE3482FEED34FFFDEC34FFFC900584120B
:1016DA0009E5900584E0FCA3E0FDA3E0FEA3E0FF9A
:1016EA00EC12034EE4FBFAF978BF12002DC004C0D5
:1016FA0005C006C007E4FBFA79C07841900560E0AE
:10170A00FCA3E0FDA3E0FEA3E0FF120227D003D072
:10171A0002D001D00012002D90057C1209E57F64E9
:10172A007EA17D157CCA90057CE0F8A3E0F9A3E0D0
:0D173A00FAA3E0FB12002D90055C1209E5FA
:101747007F787E3E7D887C3A90055CE0F8A3E0F9DF
:10175700A3E0FAA3E0FB12011EA804A905AA06ABA1
:10176700077F467E257D097C40120029900584125B
:1017770009E57FDE7EEC7D8C7C3C90055CE0F8A380
:10178700E0F9A3E0FAA3E0FB12011E7B5B7AA479E0
:101797009C784012002D90057C1209E57F257EEB91
:1017A7007D8C7C3C90055CE0F8A3E0F9A3E0FAA30C
:1017B700E0FB12011E7B927AAE79C7784012002DAA
:1017C7009005801209E5900580E0FCA3E0FDA3E009
:1017D700FEA3E0FF1243707B4A7ADF7908783D1257
:1017E700011E90057CE0F8A3E0F9A3E0FAA3E0FB73
:1017F70012002DC004C005C006C007E4FFFEFD7C33
:1018070040900580E0F8A3E0F9A3E0FAA3E0FB121B
:10181700011E1243707BEF7AF179B6783912011EF7
:10182700D003D002D001D00012002D7B297AD179C4
:10183700ED78B812002DC004C005C006C00790059A
:1018470084E0FCA3E0FDA3E0FEA3E0FF1243707B6E
:10185700EB7A4979AA783712011EA804A905AA06C6
:10186700AB07D007D006D005D00412002990056435
:101877001209E5900584E0FCA3E0FDA3E0FEA3E0E8
:10188700FF12435A7B2D7A187926783812011EC029
:1018970004C005C006C0077FEC7E827DD57C3190F1
:1018A700055CE0F8A3E0F9A3E0FAA3E0FB12011E50
:1018B700A804A905AA06AB077F9D7E747DD17C3E4F
:1018C700120029D003D002D001D00012002D9005BC
:0418D700681209E5A5
:1018DB00900564E0FCA3E0FDA3E0FEA3E0FF124350
:1018EB007090057C1209E5900568E0FCA3E0FDA370
:1018FB00E0FEA3E0FF12435A90057CE0F8A3E0F969
:10190B00A3E0FAA3E0FB12011E9005741209E59007
:10191B000564E0FCA3E0FDA3E0FEA3E0FF12435A45
:10192B009005781209E5900578E0FCA3E0FDA3E0B3
:10193B00FEA3E0FF9005A01209E5900574E0FCA35F
:10194B00E0FDA3E0FEA3E0FF1250FA90056C120934
:10195B00E5E4FFFEFDFC90056CE0F8A3E0F9A3E0E5
:10196B00FAA3E0FB1202C4501F90056CE0FCA3E04D
:10197B00FDA3E0FEA3E0FF7BD07A0F79C97840127C
:10198B00002D90056C1209E5900568E0FCA3E0FDC5
:10199B00A3E0FEA3E0FF12437090057CE0F8A3E008
:1019AB00F9A3E0FAA3E0FB12011E1257E3900570B6
:0319BB001209E529
:1019BE007FE07E927D867C3D90055CE0F8A3E0F9A9
:1019CE00A3E0FAA3E0FB12011E7B4D7A5179D67883
:1019DE004012002D900560E0F8A3E0F9A3E0FAA311
:1019EE00E0FB12002D90057C1209E5E4FFFE7D70F0
:1019FE007C4190057CE0F8A3E0F9A3E0FAA3E0FBBC
:101A0E0012011E900551E0F8A3E0F9A3E0FAA3E05D
:101A1E00FB12002D7B2E7AFA798E783C12011E90E5
:101A2E0005801209E590056CE0F8A3E0F9A3E0FA51
:101A3E00A3E0FB900580E0FCA3E0FDA3E0FEA3E0A5
:101A4E00FF1200299005881209E57F2E7EFA7D8E01
:101A5E007C3C900555E0F8A3E0F9A3E0FAA3E0FB87
:101A6E0012011E9005841209E5900584E0FCA3E0A6
:101A7E00FDA3E0FEA3E0FF12435A90058C1209E588
:101A8E00900584E0FCA3E0FDA3E0FEA3E0FF12437B
:101A9E00709005901209E5900588E0FCA3E0FDA387
:101AAE00E0FEA3E0FF12435A9005941209E590055B
:101ABE0070E0FCA3E0FDA3E0FEA3E0FF12435AC0DA
:101ACE0004C005C006C007900594E0FCA3E0FDA38A
:101ADE00E0FEA3E0FF90058CE0F8A3E0F9A3E0FAA6
:101AEE00A3E0FB12011ED003D002D001D0001201E0
:101AFE001EC004C005C006C007900570E0FCA3E040
:101B0E00FDA3E0FEA3E0FF124370900590E0F8A362
:101B1E00E0F9A3E0FAA3E0FB12011ED003D002D03D
:101B2E0001D00012002D1256D5900559E0FBA3E00E
:101B3E00FAA3E0F912094F900588E0FCA3E0FDA39B
:101B4E00E0FEA3E0FF12437012033D9005741209EC
:101B5E00E5900570E0FCA3E0FDA3E0FEA3E0FF121C
:101B6E0043AC90058CE0F8A3E0F9A3E0FAA3E0FB08
:101B7E0012011EC004C005C006C007900594E0FC0B
:101B8E00A3E0FDA3E0FEA3E0FF900590E0F8A3E044
:101B9E00F9A3E0FAA3E0FB12011EA804A905AA0608
:101BAE00AB07D007D006D005D004120029900578D7
:101BBE001209E5900578E0FCA3E0FDA3E0FEA3E0AA
:101BCE00FF9005A01209E5900574E0FCA3E0FDA3CB
:101BDE00E0FEA3E0FF1250FA900559E0FBA3E0FAF5
:101BEE00A3E0F990000412096990000412091FE4A1
:101BFE00FBFAF9F81202C4602F402D900559E0FB54
:101C0E00A3E0FAA3E02404F9E43AFAC003C002C048
:101C1E00011208FF7BD07A0F79C9784012002DD0BF
:101C2E0001D002D00312094F900559E0FBA3E0FA50
:101C3E00A3E02404F9E43AFAC003C002C00112087A
:101C4E00FF7B2E7AFA798E783C120227D001D002D1
:101C5E00D00312094F900559E0FBA3E0FAA3E0F977
:101C6E001208FF1243707B0D7AA079327838120178
:101C7E001E9005981209E5900559E0FBA3E0FAA322
:101C8E00E0F91208FF900598E0F8A3E0F9A3E0FA56
:101C9E00A3E0FB12002D7B2E7AFA798E783C12028D
:0F1CAE0027900559E0FBA3E0FAA3E0F912094FD4
:0E1CBD00900570E0FCA3E0FDA3E0FEA3E0FFB5
:011CCB0022F6
:105AC400C2A4C2A5C2A64391015392FEE4F5974332
:0A5AD4009D01F5BDF5BE75BC8022F2
:1058D800EF4488F5BC0000E5BC30E4FB53BCEFAFF7
:1058E800BD7E00ADBE7C00EF7802C333CE33CED888
:0958F800F9FFED5403FDEF4DFF33
:015901002283
:10592A00252E34660041542B43495053454E443D7D
:10593A00390D0A004A0D0A00570D0A004D0D0A00DA
:08594A004C0D0A00540D0A0087
:104E4500E49006CFF0A3F09006CDF0A3F09006CF46
:104E5500A3E0FF1258D8AC06AD079006CEE025E0DA
:104E6500FF9006CDE033FE74B92FF58274063EF54A
:104E750083ECF0A3EDF09006CEE004F0700690060A
:104E8500CDE004F0C39006CEE0940A9006CDE06430
:104E950080948040B89006CDE4F0A304F09006CD50
:104EA500E0FEA3E0FFD39409EE648094805047EFC1
:104EB50025E0FFEE33FE74B92FF58274063EF583C7
:104EC500E0FEA3E0FF9006B9E0FCA3E0FDC3EF9D83
:104ED500FFEE9CFE125C1DD3EF941EEE6480948061
:104EE5004004E4FEFF229006CEE004F070AF900689
:0A4EF500CDE004F080A77E007F01ED
:014EFF002290
:0B1CCC009005AFEBF0A3EAF0A3E9F0F5
:101CD700E49005C0F0A31209F13F000000E490066C
:101CE70076F0A3F09004501209F100000000900470
:101CF700A81209F1000000001208FFE4FBFA79A01E
:101D0700784112002D9005C51209E5E4900678F098
:101D1700A3F0900678E0FEA3E0FFC39451EE648041
:101D270094805025EF25E0FFEE33FE74D22FF58225
:101D370074053EF583E4F0A3F0900679E004F070B3
:101D4700D1900678E004F080C9E4900678F0A3F01B
:101D5700E490067AF0A3F090067AE0FEA3E0FFC3D2
:101D67009405EE648094805035EF4E7006900676A9
:101D7700F0A3F09005C0E0FF1258D8900677E02F47
:101D8700F0900676E03EF07F027E001259CB900677
:101D97007BE004F070C190067AE004F080B9900609
:101DA70076E0FEA3E0FF7C007D051207DBAC06AD05
:101DB70007900679E025E0FF900678E033FE74D2BD
:101DC7002FF58274053EF583ECF0A3EDF090051C2A
:101DD70074FFF0A37459F0A3742AF09005C5E0FCD2
:101DE700A3E0FDA3E0FEA3E0FF90051F1209E57B3A
:101DF700017A0579C9122EF17BFF7A59792F12588A
:101E07001E7FC87E001259CB7B017A0579C912580B
:101E17001E7BFF7A59793E12581E7F907E01125918
:101E2700CB90051C74FFF0A37459F0A3742AF090AB
:101E37000679E025E0FF900678E033FE74D22FF5AF
:101E47008274053EF583E0FCA3E0FDEC120353E446
:101E5700FBFA79807844120227E4FBFA79A07840EC
:101E670012011E90051F1209E57B017A0579C91237
:101E77002EF17BFF7A59792F12581E7FC87E0012E8
:101E870059CB7B017A0579C912581E7BFF7A59799C
:101E97004212581E7FC87E001259CBE4FFFEFDFC9C
:101EA700900450E0F8A3E0F9A3E0FAA3E0FB1202E4
:101EB700C460369004D3E0FCA3E0FDA3E0FEA3E0FA
:101EC700FF900450E0F8A3E0F9A3E0FAA3E0FB12C7
:101ED70002C4500590045080039004D3E0FCA3E0B3
:101EE700FDA3E0FEA3E0FF800E9004D3E0FCA3E097
:101EF700FDA3E0FEA3E0FF9004501209E59004D390
:101F0700E0FCA3E0FDA3E0FEA3E0FF9004A8E0F857
:101F1700A3E0F9A3E0FAA3E0FB1202C460074005BF
:101F27009004A880039004D3E0FCA3E0FDA3E0FEA7
:101F3700A3E0FF9004A81209E57F081257637F0505
:101F47001257637F411253E57F441253E57F4312D3
:101F570053E57F3A1253E5900679E025E0FF9006B6
:101F670078E033FE74D22FF58274053EF583E0FCEA
:101F7700A3E0FDEC120353E4FBFA798078441202E4
:101F870027E4FBFA79A0784012011E1246007F561B
:101F97001253E57F101253E57FC87E001259CB908C
:101FA700051C74FFF0A37459F0A3742AF09005AFD1
:101FB700E0FBA3E0FAA3E0F91208FF90051F12095E
:101FC700E57B017A0579C9122EF17BFF7A59792FC2
:101FD70012581E7FC87E001259CB7B017A0579C93A
:101FE70012581E7BFF7A59794612581E7FC87E0009
:101FF7001259CB90051C74FFF0A37459F0A3742AEF
:10200700F09004D3E0FCA3E0FDA3E0FEA3E0FF9083
:10201700051F1209E57B017A0579C9122EF17BFFAD
:102027007A59792F12581E7FC87E001259CB7B012F
:102037007A0579C912581E7BFF7A59794A12581EB8
:102047007FC87E001259CB9005C1E0FCA3E0FDA339
:10205700E0FEA3E0FFD20B1259029005AFE0FBA30D
:10206700E0FAA3E0F9C003C002C0011208FFE4FBD5
:10207700FAF9783F12002DD001D002D00312094F90
:102087007FC87E001259CB90051C7401F0A374051C
:10209700F0A374BEF0A37401F0A37405F0A374BD9C
:1020A700F0A37401F0A37405F0A374BCF0A374014A
:1020B700F0A37405F0A374BBF07B017A0579BF1216
:1020C70054CC9005BCE0FF125AB3AC07E412035896
:1020D700E4FBFA79707842120227C004C005C006F3
:1020E700C0079005BDE0FF125AB3AC07E4120358CE
:1020F700D003D002D001D00012002DC004C005C00B
:1021070006C0079005BBE0547FFF125AB3AC07E443
:10211700120358E4FBFA79617845120227D003D0FD
:1021270002D001D00012002D90051F1209E590057D
:102137001C74FFF0A37459F0A3742AF07B017A058D
:1021470079C9122EF17BFF7A59792F12581E7FC851
:102157007E001259CB7B017A0579C912581E7BFF85
:102167007A59794E12581E7FC87E001259CB9006B5
:1021770079E004F07006900678E004F0C3900679E1
:10218700E09451900678E0648094805003021D57D4
:102197007FE87E031259CB900678E07004A3E064D1
:1021A7005160030223BF7B017A0579D212519790C0
:1021B7000674EEF0A3EFF0E025E0FF900674E0333D
:1021C700FE74D22FF58274053EF583E0F9A3E0FF94
:1021D7009005B2E0FBA3E0FAA3E0C98FF012085F15
:1021E700900622E0F9A3E0FF9005B5E0FBA3E0FA33
:1021F700A3E0C98FF012085F900674E0FEA3E0FF2A
:10220700C374539FFDE49EFC1203539005C1E0F88D
:10221700A3E0F9A3E0FAA3E0FB12011EC20B1259D7
:10222700029005AFE0FBA3E0FAA3E0F9C003C00208
:10223700C0011208FFC004C005C006C0079006749D
:10224700E0FEA3E0FFC374539FFDE49EFC1203531B
:102257009005C1E0F8A3E0F9A3E0FAA3E0FB1201BF
:102267001EA804A905AA06AB07D007D006D005D03B
:1022770004120029D001D002D00312094F90051C87
:1022870074FFF0A37459F0A3742AF09005AFE0FB34
:10229700A3E0FAA3E0F91208FF90051F1209E57BF6
:1022A700017A0579C9122EF17BFF7A59792F1258D5
:1022B7001E7FC87E001259CB7B017A0579C9125857
:1022C7001E7BFF7A59794612581E7FC87E00125925
:1022D700CB90051C7401F0A37405F0A374BEF0A3A2
:1022E7007401F0A37405F0A374BDF0A37401F0A307
:1022F7007405F0A374BCF0A37401F0A37405F0A3F4
:1023070074BBF07B017A0579BF1254CC9005BCE011
:10231700FF125AB3AC07E4120358E4FBFA7970785A
:1023270042120227C004C005C006C0079005BDE0E1
:10233700FF125AB3AC07E4120358D003D002D001FE
:10234700D00012002DC004C005C006C0079005BB11
:10235700E0547FFF125AB3AC07E4120358E4FBFAC8
:1023670079617845120227D003D002D001D000123C
:10237700002D90051F1209E590051C74FFF0A3744A
:1023870059F0A3742AF07B017A0579C9122EF17BE3
:10239700FF7A59792F12581E7FC87E001259CB7BBE
:1023A700017A0579C912581E7BFF7A59794E12585E
:0823B7001E7FC87E001259CB05
:0123BF0022FB
:10519700E4FDFC9006EDF0A37428F0E4A3F0A3F07F
:1051A7009006EFE0FEA3E0FFC39451EE9400507326
:1051B700EF25E0FFEE338F82F583120827FFD3ED4B
:1051C7009FEC95F04006AE04AF0580169006F0E020
:1051D70025E0FF9006EFE0338F82F583120827FF63
:1051E700AEF0AC06AD079006F0E025E0FF9006EFC5
:1051F700E0338F82F583120827B50516ECB5F01258
:105207004D600F9006EFE0FFA3E09006EDCFF0A30F
:10521700EFF09006F0E004F070869006EFE004F0FF
:0B5227000251A79006EDE0FEA3E0FF9F
:015232002259
:0B3E350090067CEFF0A3EDF0A3EBF093
:103E40009006901209F100000000E4900694F0A39F
:103E5000F0A3F0A3F090068DE0FBA3E0FAA3E0F955
:103E60001208FF9006981209E5900681E0FBA3E096
:103E7000FAA3E0F91208FF90069C1209E590068467
:103E8000E0FBA3E0FAA3E0F9E4F5F012085F900686
:103E90008AE0FBA3E0FAA3E0F9E4F5F012085F90F2
:103EA0000687E0FBA3E0FAA3E0F9120A2200000073
:103EB000009004501209F1000000009004A81209BB
:103EC000F100000000124E45EF4E7003023FF690E5
:103ED000067FE090051CF0900680E090051DF0A3A1
:103EE0007401F0A37406F0A3749CF0A31209F1C14D
:103EF000A0000090067EE0FB90067DE0FD90067C31
:103F0000E0FF1223C0E4FFFE7DA07C4190069CE010
:103F1000F8A3E0F9A3E0FAA3E0FB12002D900687D6
:103F2000E0FBA3E0FAA3E0F912094F9005B2740197
:103F3000F0A37406F0A37494F0A37401F0A37406C4
:103F4000F0A37496F0A37401F0A37406F0A3749820
:103F5000F07B017A06799C121CCC900698E0FCA3B9
:103F6000E0FDA3E0FEA3E0FF90068DE0FBA3E0FAF6
:103F7000A3E0F912094F900694E0F9A3E0FF900640
:103F800084E0FBA3E0FAA3E0C98FF012085F90067B
:103F900096E0F9A3E0FF90068AE0FBA3E0FAA3E035
:103FA000C98FF012085F900687E0FBA3E0FAA3E058
:103FB000F91209C590069CE0FCA3E0FDA3E0FEA376
:103FC000E0FF1200299006901209E590069CE0FCA3
:103FD000A3E0FDA3E0FEA3E0FF900681E0FBA3E0E9
:103FE000FAA3E0F912094F900690E0FCA3E0FDA3CC
:0B3FF000E0FEA3E0FF22E4FFFEFDFC6A
:013FFB0022A3
:1059A000C3EC64809480401CED25E0FFEC338F82D3
:1059B000F583120827640145F07005AF05AE042297
:0459C000E4FEFF22E0
:0159C40022C0
:0D5882007F027E0012588FD2CC7F027E0084
:10588F00EF1FAA0670011E4A6013E4FCFDC3ED94DE
:0D589F0009EC940050EA0DBD00010C80F0F2
:0158AC0022D9
:015C6400221D
:0F5BBD00D2CCD2C712588BC2C712588BC2CC227F
:105B4D00C2CCC2C712588BD2CCC2C77F047E001202
:055B5D00588FD2C722A1
:105B0D00E425E0FBC2CC12588B30C704EB4401FBFB
:055B1D00125889AF03DE
:015B22002260
:055C5800125882C2CCCD
:015C5D002224
:0E5BCC00C2CCD2C7125882C2CC12588BC2C7AC
:015BDA0022A8
:05595200F9120735FF0A
:02595700A9079E
:10595900E4FBC2CCE930E704D2C78002C2C71258BF
:0F5969008BD2CCE925E0F912588B0BEBB408E395
:01597800220C
:104F000090051DEBF0A3EAF0A3E9F0125BBD7F0171
:104F10007E0012588F7F40125957125B0DEF7012AE
:104F200090051DE0FBA3E0FAA3E0F912071CFF12B5
:104F30005957125B0DEF701090051DE0FBA3E0FACE
:104F4000A3E0900001125952125B0DEF7010900512
:104F50001DE0FBA3E0FAA3E0900002125952125B9D
:104F60000DEF701190051DE0FBA3E0FAA3E0F990AE
:104F70000003125953125B0DEF701190051DE0FBF9
:104F8000A3E0FAA3E0F9900004125953125B0DEF6D
:104F9000701190051DE0FBA3E0FAA3E0F990000575
:0D4FA000125953125B0DEF7003125B4D228E
:0D58AD007F057E001258BAD2C37F057E0031
:1058BA00EF1FAA0670011E4A6013E4FCFDC3ED94B3
:0D58CA0004EC940050EA0DBD00010C80F0CC
:0158D70022AE
:10553B007B6053B3F143B407C2C11258B6E4900574
:10554B0019F0A3F0C2C31258B6EB30E704D2C280F5
:10555B0002C2C21258ADEB25E0FB90051AE004F035
:10556B007006900519E004F0C390051AE0940890BA
:10557B000519E06480948040CBD2C17F0A7E001273
:09558B0058BA125059EF20E0F962
:0155940022F4
:10545A007F327E001258BA9006DCE0FBA3E0FAA382
:10546A00E0F91208FFEF2401FFE43EFEE43DFDE40B
:05547A003CFC12094F8B
:10547F007B06C2C1E4900519F0A3F0C2C31258B65F
:10548F00EB30E704D2C28002C2C21258ADEB25E066
:10549F00FB90051AE004F07006900519E004F0C3C4
:1054AF0090051AE09408900519E06480948040CB31
:0C54BF00D2C11258B6125059EF20E0F98B
:0154CB0022BE
:074AB000E090051EF07F02FB
:024AB700AB074B
:104AB900C2C11258B6E490051FF0A3F0C2C3125840
:104AC900B6EB30E704D2C28002C2C21258ADEB2560
:104AD900E0FB900520E004F0700690051FE004F06B
:104AE900C3900520E0940890051FE06480948040FD
:104AF900CBE490051FF0A3F0C2C31258B690051A73
:104B0900A3E0FDA3A3E4FFFEED5480FDE4FCFBFA62
:104B19007980F8C31208DB7004D2C28002C2C212C3
:104B290058AD90051AE0FCA3E0FDA3E0FEA3E0FF69
:104B390078011208EC90051A1209E5900520E004A5
:104B4900F0700690051FE004F0C3900520E094186A
:104B590090051FE064809480409EE490051FF0A3B7
:104B6900F0C2C31258B690051EE030E704D2C280E5
:104B790002C2C21258AD90051EE025E0F090052052
:104B8900E004F0700690051FE004F0C3900520E0F2
:104B9900940890051FE06480948040C5D2C11258E2
:084BA900B6125059EF20E0F9AB
:014BB10022E1
:0249A000AB0763
:1049A200E490051EF0C2C17F05FE1258BAE4A3F0DE
:1049B200A3F0C2C31258B6EB30E704D2C28002C2DF
:1049C200C21258ADEB25E0FB900520E004F0700622
:1049D20090051FE004F0C3900520E0940890051FA5
:1049E200E06480948040CBE490051FF0A3F0C2C342
:1049F2001258B690051AA3E0FDA3A3E4FFFEED54FE
:104A020080FDE4FCFBFA7980F8C31208DB7004D263
:104A1200C28002C2C21258AD90051AE0FCA3E0FDAA
:104A2200A3E0FEA3E0FF78011208EC90051A120938
:104A3200E5900520E004F0700690051FE004F0C345
:104A4200900520E0941890051FE064809480409EB9
:104A52007F0A7E001258BAD2C47F027E001258BA70
:104A6200E490051FF0A3F090051EE025E0F0125837
:104A7200B4C2C31258B630C404E04401F090052019
:104A8200E004F0700690051FE004F0C3900520E0FA
:104A9200940890051FE06480948040CBD2C11258E4
:0D4AA200B6125059EF20E0F990051EE0FF1C
:014AAF0022E4
:10505900E4FB900521F0A3F0A3F07905C2C17F0517
:10506900FE1258BAE4900522F0A3F0C2C31258B652
:10507900E930E704D2C28002C2C21258ADE925E084
:10508900F9900523E004F07006900522E004F0C3CE
:10509900900523E09408900522E06480948040CB39
:1050A9007F0A7E001258BAD2C47F027E001258BA13
:1050B900E4900522F0A3F0EB25E0FB1258B4C2C33B
:1050C9001258B630C404EB4401FB900523E004F008
:1050D9007006900522E004F0C3900523E09408903F
:1050E9000522E06480948040CED2C11258B6AF0345
:0150F9002294
:1041890012547F9006DCE0FBA3E0FAA3E0F91208E1
:10419900FF90051A1209E59006D1124AB09006DC83
:1041A900E0FBA3E0FAA3E0F91208FFEF2401FFE422
:1041B9003EFEE43DFDE43CFC12094F7F327E0012D5
:1041C90058BA12547F9006DCE0FBA3E0FAA3E0F9A9
:1041D9001208FF90051A1209E59006D2124AB01288
:1041E900545A9006DCE0FBA3E0FAA3E0F91208FFB9
:1041F90090051A1209E59006D3124AB012545A9042
:1042090006DCE0FBA3E0FAA3E0F91208FF90051A27
:104219001209E59006D4124AB012545A9006DCE00D
:10422900FBA3E0FAA3E0F91208FF90051A1209E5C9
:104239009006D5124AB012545A9006DCE0FBA3E06E
:10424900FAA3E0F91208FF90051A1209E59006D6BB
:10425900124AB012545A9006DCE0FBA3E0FAA3E03C
:10426900F91208FF90051A1209E59006D7124AB00B
:1042790012545A9006DCE0FBA3E0FAA3E0F9120815
:10428900FF90051A1209E59006D8124AB012545A3D
:104299009006DCE0FBA3E0FAA3E0F91208FF900521
:1042A9001A1209E59006D9124AB012545A9006DC3E
:1042B900E0FBA3E0FAA3E0F91208FF90051A12093E
:1042C900E59006DA124AB012545A9006DCE0FBA3D4
:1042D900E0FAA3E0F91208FF90051A1209E5900621
:1042E900DB124AB07F327E001258BA9006DCE0FB3E
:1042F900A3E0FAA3E0F91208FFEF2401FFE43EFE70
:09430900E43DFDE43CFC02094F17
:10585100D296C294C2957F0A7E001259CBD296D2BB
:1058610094D2957F0A7E001259CBC2967F0A7E00A0
:105871001259CBC294C2957F0A7E001259CBD295A0
:015881002204
:0D5BF70053B2FB43B104C288D2A8D2AF2242
:1056400041542B43495053544152543D22544350EA
:10565000222C223139322E3136382E31312E323051
:1056600033222C383038300D0A0041542B43495036
:1056700053454E443D31360D0A0048656C6C6F2031
:0B56800066726F6D204553500D0A004C
:105BAC00759850438E9575D7D875D6FFD2ACD2AFB9
:015BBC0022C6
:10581E0090051CEBF0A3EAF0A3E9F090051CE0FB69
:10582E00A3E0FAA3E0F912071C601790051CA3E48D
:10583E0075F001120811A9F0FA12071CFF125C464E
:03584E0080D922DC
:065C5E00EFC4540FFF2209
:05000600EF540FFF2282
:015C6500221C
:05001E00EF2430FF2279
:105AF600124CA7EF75F00A84FEEF75F00A84AFF03A
:065B0600EEC454F04FFF55
:015B0C002276
:095C4F007BFF7A56794002581ED1
:1059E900900519EBF0A3EAF0A3E9F07BFF7A567969
:1059F9006A12581E7FE87E03125A6E7BFF7A567927
:045A09007A02581EA7
:030000000252CDDC
:0C52CD00787FE4F6D8FD758121025314AF
:100026000203F8E86480F8E933E83360110460F00D
:10003600ED33EC337009E8FCE9FDEAFEEBFF220440
:1000460060DED3EB9FEA9EE99DE8C2E78CF0C2F73B
:1000560095F0400CE8CCF8E9CDF9EACEFAEBCFFB07
:100066001203C385D0F05804700320D5B3E804709A
:10007600075002B2D502040292D5EC0460F7E4CC34
:10008600C0E0C398F8603B94186008400DD0E0FBD0
:100096000203DAE4FBFAC9FC8028E830E406E4C986
:1000A600FBE4CAFCE830E305E4C9CACBFCE8540724
:1000B6006010F8C3E913F9EA13FAEB13FBEC13FC2F
:1000C600D8F130F52FC3E49CFCEF9BFFEE9AFEEDD2
:1000D60099FDD0E0FBEF4E4D4C701222DB0302037C
:1000E600FFEC2CFCEF33FFEE33FEED33FDED30E796
:1000F600EB0203DAEF2BFFEE3AFEED39FDD0E0FB23
:1001060050130BBB0003020402ED13FDEE13FEEFCA
:0801160013FFEC13FC0203DAF5
:10011E00EC4D6011E8497017ED33EC3304600DE4DB
:10012E00FCFFFEFD22E933E8330470F80203F812F7
:10013E0003C358046009E4CC2481500628500902F8
:10014E0004022840030203FFC0E0EB4A7044B9806A
:10015E0006D0E0FB0203EEEF4E701CBD8008EBFFF5
:10016E00EAFEE9FD80EBE98DF0A4FEE5F002020760
:10017E00E9CDF9EAFEEBFFEF89F0A4FCE5F0CE89BC
:10018E00F0A42EFFE435F0CD89F0A42DFEE435F079
:10019E008067EF4E7005BD80D780C3EF8BF0A4ACA7
:1001AE00F0EE8BF0A42CFCE435F0F8EF8AF0A42CE2
:1001BE00E5F038FCE433CB8DF0A42CFCE5F03BF8F5
:1001CE00EE8AF0A42CFCE5F038F8E433CF89F0A4E5
:1001DE002CFCE5F038CF3400CE89F0A42FFFE5F0EB
:1001EE003EFEE433C98DF0A42EFEE5F039CD8AF043
:1001FE00A42FFFE5F03EFEE43DFD33D0E0FB5007BB
:10020E000BBB000F020402EC2CFCEF33FFEE33FEAF
:06021E00ED33FD0203DADE
:10022400020402EC5D046005E8590470030203F85B
:100234001203C3580460F6EC4860F2EC7004FDFE4F
:10024400FF22C860DB2481C85009C39860025006AD
:100254000203FF9850CAF582E9294B4A7005AB8224
:100264000203EE75F0007C1A7880C3EF9BEE9AEDE2
:1002740099400DC3EF9BFFEE9AFEED99FDE842F025
:10028400DC23ACF0D0E0FFD0E0FED0E0FDAB822078
:10029400E7101BEB60BAEC2CFCEF33FFEE33FEED02
:1002A40033FD0203DAE803F830E705C0F075F00027
:1002B400EF2FFFEE33FEED33FD40B830E7C280AAE6
:1002C40074F8CC6480CCC86480C8F58204604FC3E1
:1002D400EB9FF5F0EA9E42F0E99D42F0E89C45F080
:1002E400603C501DE5825FFFE582D313CB5BCBF40A
:1002F4002B5582FB50280ABA002409B90020088033
:100304001DE5825BFBE582D313CF5FCFF4C3132FCC
:100314005582FF50090EBE00050DBD00010CC3EB54
:100324009FF5F0EA9E42F0E99D42F0E89C45F060BA
:0903340007CC4820E701B3EC22DC
:10033D00ED33EC33600A047003BD8004ECB2E7FCCE
:01034D00228D
:10034E0075F020800E75F010800575F0087D007E2A
:10035E00007F003392D530D5031208CDEC33401018
:10036E00EF33FFEE33FEED33FDEC33FCD5F0ED2233
:0E037E00E5F0247EA2D513CC92E7CDCEFF226F
:10038C00EDD2E7CD33EC3392D524814006E4FFFE69
:10039C00FDFC22FCE4CFCECDCC24E0501174FF80C8
:1003AC00EDC3CC13CCCD13CDCE13CECF13CF047065
:0703BC00F030D5DE0208CD90
:102E8C00E508241CF582E43405F583E0050822905E
:102E9C00051930080390051CE475F001120A48026C
:102EAC00071C2001E97F2ED2018018EF540F2490CB
:102EBC00D43440D4FF30050BEF24BFB41A005003B8
:102ECC002461FFE50960021509050CE50C7002058B
:102EDC000B30080E900519E475F001120A48EF0248
:102EEC0007620259797403D2088003E4C208F5081A
:102EFC00900519120A5FE4F509F50BF50CE509606C
:102F0C00077F20122ECF80F5750AFFC202C201C2C4
:102F1C0003C204C206C207C209122E9BFF700D30F9
:102F2C0008057F00122EE0AF0CAE0B22B4255FC259
:102F3C00D5C205122E9BFF24D0B40A00501A75F08E
:102F4C000A780930D50508B6FF0106C6A426F62076
:102F5C00D5047002D20480D924CFB41A00EF5004E7
:102F6C00C2E5D2050231D2D20280C6D20180C0D2D3
:102F7C000380BCD2D580BAD20680B47F20122ECF6B
:102F8C002003077401B5090040F1122E8CFF122E9C
:102F9C00CF022F09D209D2078095122E8CFB122E4C
:102FAC008CFA122E8CF94A4B700679D07A327BFF50
:102FBC0020032EE509602A7E008E8275830012079D
:102FCC003560060EEE650A70F0C2D5EBC0E0EAC0C3
:102FDC00E0E9C0E0EE123233D0E0F9D0E0FAD0E014
:102FEC00FB12071CFF60AAEBC0E0EAC0E0E9C0E0FE
:102FFC00122ECFD0E02401F9D0E03400FAD0E0FB5F
:10300C00E50A0460DCD50AD98087D20380A212328B
:10301C001560F7E50A700104120427A90A600DE592
:10302C000A600914F50A1232BDEF60F3EA30E702C8
:10303C00F404C3995079EAF4250A0430E701E40456
:10304C00F50A800D12321560C1EA050A250A120430
:10305C0027EA900548F030E701E4250A04D50A0474
:10306C0020060114123233E4C0E01232BD90054840
:10307C00E0601320E70714F0122EB7802204F0D082
:10308C00E014C0E07F00122EB7E50A6007122EAEE6
:10309C00150A800B300603122EAED0E0022F09D099
:1030AC00E00480C4123215609EE50A0412042790D5
:1030BC000548EAF0E50A20060260010424041232F5
:0130CC0033D0
:1030CD0074FF04C0E01232BD122EB7E50A200602CD
:1030DD006003122EAED0E0B50AE87F45122EC190E6
:1030ED000548E07F2B30E7047F2DF404C0E0122E5D
:1030FD00CFD0E075F00A84C0F0122EB8D0E0122EB9
:10310D00B8022F09791080027908C207C209800818
:10311D00D2D5790A8004790AC2D5E50A047002F580
:10312D000AE4FAFDFEFF122E8CFC7B08200213121E
:10313D002E8CFD7B1030010A122E8CFE122E8CFF70
:10314D007B20EC3382D592D55013C3E43001069F1A
:10315D00FFE49EFEE42002039DFDE49CFCE4CBF81D
:10316D00C202EC700CCFCECDCCE824F8F870F38011
:10317D0017C3EF33FFEE33FEED33FDEC33FCEB33D2
:10318D00FB994002FB0FD8E9EB300205F8D0E0C403
:10319D0048B202C0E00AEC4D4E4F78207B0070C261
:1031AD00EAB50A0040BCC0E0123235D0F0D0E020C4
:1031BD000204C4C0E0C4B202C0F0122EB8D0F0D5E3
:1031CD00F0EB022F09120A682FA6533111582F77F1
:1031DD004C2F734231154F311D44311D492F8C43F6
:1031ED0031235530504630B045301A4732F0502F0C
:1031FD007B2D2F7F2E2FA22B2F83232FA02032D973
:10320D002A2F3B4800002F9AE50AB4FF03750A06E2
:10321D00122E8CFC122E8CFD122E8CFE122E8CFF7B
:10322D00900541020464790AA2D5200414300609E0
:10323D00B910020404B9080104A2D52007025001F7
:10324D00042003689203B509005034C0E07F20309C
:10325D0004197F30A20372077206500F12328CC20E
:10326D0003C207C206C2097F30800F300603E9C0D2
:10327D00E0122ECF300603D0E0F9D0E0B509CC3006
:10328D0006177F30B9100C122ECF7F583005077FEF
:10329D00788003B90803122ECF3003057F2D022E3F
:1032AD00CF7F202009F87F2B2007F322920380CFB8
:1032BD007F00B40700500B2441F582E43405F583FB
:1032CD00E0FF22286E756C6C2900D202122E8C3014
:1032DD0002F8C202780930D50108F6022F3B2D50B5
:1032ED00434958122E8C2403B405004001E490325A
:1032FD00EB93122EC0743A122EC0D204750904023B
:02330D0031117C
:0D5C0400ED33EC3360065004EC6480FC22AC
:1050FA0090059C1209E59005A0E0F8A3E0F9A3E069
:10510A00FAA3E0FB90059CE0FCA3E0FDA3E0FEA36C
:10511A00E0FF12022712489E90059C1209E59005AD
:10512A00A0E030E75990059CE0FCA3E0FDA3E0FE77
:10513A00A3E0FFECC0E0EDC0E0EEC0E0EFC0E0E4C9
:10514A00FFFEFDFC90059CE0F8A3E0F9A3E0FAA3BA
:10515A00E0FB1202C47BDB600250087A0F794978BF
:10516A004080067A0F794978C0D0E0FFD0E0FED0BF
:10517A00E0FDD0E0FC12002D90059C1209E5900597
:0D518A009CE0FCA3E0FDA3E0FEA3E0FF22FB
:104312003A70FA83BCAAE9E43E81E0F8BF9DE9E67F
:104322003F80000039283C1ABB9969663DA335E3FA
:10433200BF255DE73FC90FDB418DDBCCC44936EEBB
:1043420045C9913FC5B0F83D3F800000C317F53421
:10435200452FFA73C60AFDDD12441B04A2E1920145
:104362001420E0159043127404120569803012443F
:104372001B30E102B20120E0EBA883A98290059CE8
:104382001209E5898288839043267404120569859F
:1043920082F090059C1209A985F08212011EED4C53
:1043A2006007300104EC6480FC2212441BC0E0A8C8
:1043B20083A98290059C1209E58982888390434AE9
:1043C20074031205698582F090059C1209A985F093
:1043D2008212011E90059CE0CCF0A3E0CDF0A3E098
:1043E200CEF0A3E0CFF090433A7403120569D08275
:1043F2008582F090059C1209A985F082E58230E061
:1044020007120227B2018096EFCBFFEECAFEEDC97A
:10441200FDECC8FC1202278085ED33EC547FCC33CF
:10442200920124605007D0E0D0E00203F87B837A47
:10443200F97922783E12011EEDF933ECF83324812A
:104442005011EFFBEEFA12038C12034EECB2E7FCB2
:1044520012002DED33EC33602F2403F8C313FCED6F
:1044620092E7FDE82481E4501FECF8EDF9EEFAEF53
:10447200FB12038CEF04C2E0FCF582120358ECB28B
:10448200E7FC12002DE58203FAED33EC33600714EA
:0844920013FCED92E7FDEA22A4
:1056D500ECC0E0F8EDC0E0F9EEC0E0FAEFC0E0FBA9
:1056E50012011EEC6480FC7B007A007980783F1201
:1056F500002D124FB1D0E0FBD0E0FAD0E0F9D0E0B8
:10570500F8C0E012022712489ED0E030E70B78403F
:0A57150079497A0F7BD912002D228A
:1057E300ECC0E0F8EDC0E0F9EEC0E0FAEFC0E0FB9A
:1057F30012011EEC6480FC7B007A007980783F12F2
:10580300002D124FB1D0E0CFFBD0E0CEFAD0E0CDE7
:0B581300F9D0E0CCF812022702489EFA
:10449A009004DD1209E5E4FFFE7D807C3F9004DD97
:1044AA00E0F8A3E0F9A3E0FAA3E0FB1202C4700665
:1044BA009004DD0245F49004DDE0FCA3E0FDA3E0F6
:1044CA00FEA3E0FF12040DFBA3E0FCA3E0FDA3E0C2
:1044DA00FEA3E0FF12040DFFB40108E4FFFE7D8095
:1044EA007C3F22EF64046029EB64046024EBB4018E
:1044FA0030E4FFFEFDFC9004E1E0F8A3E0F9A3E05C
:10450A00FAA3E0FB1202C460084006E4FFFEFDFCC9
:10451A00229004E11209F1FFFFFFFF9004E1024536
:10452A00F4E49004E5F0A3F0FFFEFDFC9004DDE066
:10453A00F8A3E0F9A3E0FAA3E0FB1202C4505F90EB
:10454A0004E1E0FCA3E0FDA3E0FEA3E0FF12038C7C
:10455A009004E5EEF0A3EFF0FDCCEECCEC120353A1
:10456A00C8ECC8C9EDC9CAEECACBEFCB9004E1E0EA
:10457A00FCA3E0FDA3E0FEA3E0FF120029E4FBFA9E
:10458A00F9F81202C4708A9004DDE0FCA3E0FDA3EE
:10459A00E0FEA3E0FF12033D9004DD1209E590045A
:1045AA00DDE0FCA3E0FDA3E0FEA3E0FF1247899053
:1045BA0004E1E0F8A3E0F9A3E0FAA3E0FB12011E8C
:1045CA0012526B9004E11209E59004E6E030E0171C
:1045DA009004E1E0FCA3E0FDA3E0FEA3E0FF1203E8
:1045EA003D9004E11209E59004E1E0FCA3E0FDA39B
:0645FA00E0FEA3E0FF2239
:1003C300E9D2E7C933E833F892D5EDD2E7CD33EC80
:0703D30033FC5002B2D522F9
:1003DA00EC30E7100FBF000C0EBE00080DBD000484
:1003EA000BEB6014A2D5EB13FCED92E7FD2274FF30
:1003FA00FCFDFEFF22E480F8A2D574FF13FC7D8089
:03040A00E480EF9C
:10040D00ED33EC33601004700FED547F7005740202
:0A041D0092E0227404220422E4227B
:10042700F920E73624F950037907E4F42402FBE5C1
:1004370082158270021583DBF6E024FB501BE9600E
:1004470014E4F0E582158270021583E004F0B40A23
:0D04570008E4F0D9EE7401F00A22C2D522AB
:10046400ED33EC3392D5FA602AB4FF33EDC2E77B67
:10047400FF60067A047989E4227A04799220D5040B
:100484007A04798D224E614E002B494E46002D4947
:100494004E4600E47A08F0A3DAFC7B00740722C01D
:1004A40083C082ECC0E0EDC0E0EEC0E0EFC0E0EA63
:1004B40075F010A4CAABF075F04DA42BFBE435F035
:1004C400FCEA2410FAEB34C5FBEC34D9FCEDC2E7AA
:1004D400FF75F056A4F42411C5F0F434C58FF0A4CC
:1004E4002AE5F03BE43CF020E7141205E6D0E0FFF7
:1004F400D0E0FED0E0FDD0E0FC1202278014F4042A
:100504001205E6D0E0FFD0E0FED0E0FDD0E0FC1222
:10051400011ED082D083E0FAEDD2E7CD33EC332450
:1005240082FBE4C3CF33CFCE33CECD33CD33DBF335
:100534007B0775F00A846004F0A31B0AE5F0F0A3BE
:100544008FF0740AA4FFACF08EF0740AA42CFEACF5
:10055400F050010C8DF0740AA42CFDE435F0F0A3E6
:05056400DBDE7407223C
:10056900C0E0EFFBEEFAEDF9ECF812011ED0E0F570
:10057900F0EFFBEEFAEDF9ECF8120999A3A3A3A3A6
:10058900E8C0E0E9C0E0EAC0E0EBC0E0C0F0120179
:100599001E1209B5A3A3A3A312002DD0F0D0E0FB2E
:0D05A900D0E0FAD0E0F9D0E0F8D5F0D4228F
:1052330033DA929E35B16011377FE5FE39218489D7
:105243003AAEC3FF3C1D955B3D6358473E75FDF089
:105253003F3172183F800000C2D50204020203F8F6
:10526300BD80FA50F30203FFED33EC330460F17BAE
:105273003B7AAA79B8783F12011EED33EC3392D50D
:10528300247B5011A2D570DB500BED4480240450D5
:1052930004A2D580CEEFFBEEFAEDF9ECF812038C05
:1052A300EFF582F404FC12035812002DC0829052D1
:1052B300337409120578ED33CC33D0F092D525F051
:0A52C300A2D57001C313CC13FD2225
:104755003E9248DA3ECCCCCD3F2AAAAB40000000C1
:104765003F8000003F9837F03FB504F33FD744FC46
:104775003E3172173EB172173F0515913EDE5BD98A
:10478500D2008002C200EDD2E7F8CD33EC330470DD
:104795000BBD800592D50204020203F840FBD31439
:1047A50060F2F5F07C3FEE7A00C39496C8948B4096
:1047B500230AC89469C8941A401A0AC89468C89408
:1047C5001F40110AC8945AC89425400805F07A007C
:1047D500CDC2E7CDC0F09004E71209E5EA2323C076
:1047E500E02465F582E43447F5831209B512002DFE
:1047F500ECC0E0EDC0E0EEC0E0EFC0E0120999903A
:1048050004E71209A9120029D0E0FBD0E0FAD0E0B4
:10481500F9D0E0B2E7F81202279004E71209E59013
:10482500475574031205699004E71209A912011E80
:10483500D0E0600F2471F582E43447F5831209B5A1
:1048450012002D9004E71209E5D0E0C3947FFDE442
:104855009400FC1203537B187A727931783F120168
:104865001E9004E71209A912002D30000B7BD97A9E
:094875005B79DE783E12011E227F
:104FAD000203F822EDA2E7D2E7F9EC3340F260F309
:104FBD00B4FF08ED547F70E8020402F82481C2E0CA
:104FCD00C0E0F40428FAC313FCED92E7FD90059CB4
:104FDD001209E5EEA2E7E9BA7F02C313340094008B
:104FED00FA75F091A4E5F013F494FE8AF0A433E57C
:104FFD00F033248CD313FDE492E7FE7F007C3F75E4
:10500D008302ECC0E0F8EDC0E0F9EEC0E0FAEFC0CD
:10501D00E0FB8583F090059C12098D85F0831202CB
:10502D0027D0E0FBD0E0FAD0E0F9D0E0F812002D67
:10503D00ED6480FD30E7011CD583C7ED33CC33F82B
:0C504D00D0E0A2E71328C313CC13FD220F
:10487E00BE1249253E4CCCCDBEAAAAAB3F8000004D
:10488E003E7ADBB03EED63383F24BC7D3F490FDB03
:10489E00ED33ECC2E7CC339201B4FF13ED547F60DD
:1048AE00030203F87FDB7E0F7DC97C3F024993C272
:1048BE0002C3947F401E7007EDD2E794904015EF2F
:1048CE00FBEEFAEDF9ECF87F007E007D807C3F1266
:1048DE000227D202ED33EC33248430E705E4C0E046
:1048EE00806B04FAEDD2E754F0C333DAFD5407348B
:1048FE00002323C0E0CCC0E0F8EDC0E0F9EEC0E04C
:10490E00FAEFC0E0FBE4120358EC24FEFC9005A481
:10491E001209E512011E7B007A007980783F1200A1
:10492E002D9005A4E0B2E7CCF0A3E0CDF0A3E0CE4D
:10493E00F0A3E0CFF0D0E0FBD0E0FAD0E0F9D0E089
:10494E00F812002D9005A41209A91202279005A4B1
:10495E001209E590487E74031205699005A41209A8
:10496E00A912011ED0E0600F248AF582E43448F5C6
:10497E00831209B512002D30020B7BDB7A0F79C939
:10498E0078BF12002DED33EC336006ECA20192E7F6
:02499E00FC22F9
:1005B6003F8000004120000042C80000447A00004D
:1005C600461C400047C35000497424004B189680CF
:1005D6004CBEBC205A0E1BCA6753C21C749DC5AEC6
:1005E600FB60065407601C2323120614EB54386084
:1005F6000912060012060F12011EECF8EDF9EEFACA
:10060600EFCB22EB12060F80F1543803241C900521
:10061600B6FE93FC0EEE93FD0EEE930ECE93FF22E6
:1052D900020BEEE493A3F8E493A34003F68001F2F2
:1052E90008DFF48029E493A3F85407240CC8C333D6
:1052F900C4540F4420C8834004F456800146F6DFA5
:10530900E4800B010204081020408090330FE47EF2
:10531900019360BCA3FF543F30E509541FFEE49399
:10532900A360010ECF54C025E060A840B8E493A360
:10533900FAE493A3F8E493A3C8C582C8CAC583CA8B
:10534900F0A3C8C582C8CAC583CADFE9DEE780BE43
:0137280000A0
:10062600E709F608DFFA8046E709F208DFFA803EB6
:1006360088828C83E709F0A3DFFA8032E309F608A3
:10064600DFFA8078E309F208DFFA807088828C830B
:10065600E309F0A3DFFA806489828A83E0A3F608BF
:10066600DFFA805889828A83E0A3F208DFFA804C99
:1006760080D280FA80C680D4806980F28033801070
:1006860080A680EA809A80A880DA80E280CA8033D9
:1006960089828A83ECFAE493A3C8C582C8CCC58351
:1006A600CCF0A3C8C582C8CCC583CCDFE9DEE78021
:1006B6000D89828A83E493A3F608DFF9ECFAA9F0A0
:1006C600EDFB2289828A83ECFAE0A3C8C582C8CCF6
:1006D600C583CCF0A3C8C582C8CCC583CCDFEADE0F
:1006E600E880DB89828A83E493A3F208DFF980CC71
:1006F60088F0EF60010E4E60C388F0ED2402B4046A
:100706000050B9F582EB2402B4040050AF23234510
:06071600822390067673B9
:10071C00BB010689828A83E0225002E722BBFE02DB
:09072C00E32289828A83E493220E
:10073500BB010CE58229F582E5833AF583E0225079
:1007450006E92582F8E622BBFE06E92582F8E222C3
:0D075500E58229F582E5833AF583E49322DD
:10076200BB010689828A83F0225002F722BBFE0176
:02077200F32270
:10077400EF8DF0A4A8F0CF8CF0A428CE8DF0A42E99
:02078400FE2253
:10078600BC000BBE0029EF8DF084FFADF022E4CC57
:10079600F875F008EF2FFFEE33FEEC33FCEE9DEC20
:1007A600984005FCEE9DFE0FD5F0E9E4CEFD22ED66
:1007B600F8F5F0EE8420D21CFEADF075F008EF2FB0
:1007C600FFED33FD4007985006D5F0F222C398FDA1
:0507D6000FD5F0EA223E
:1007DB00C2D5EC30E709B2D5E4C39DFDE49CFCEE39
:1007EB0030E715B2D5E4C39FFFE49EFE120786C324
:1007FB00E49DFDE49CFC800312078630D507C3E41F
:06080B009FFFE49EFE22A7
:10081100A3F8E0C5F025F0F0E5821582700215839A
:06082100E0C838F0E822F7
:10082700BB0110E58229F582E5833AF583E0F5F00F
:10083700A3E0225009E92582F886F008E622BBFEEC
:100847000AE92582F8E2F5F008E222E5832AF58332
:08085700E993F5F0A3E99322F7
:10085F00BB010A89828A83F0E5F0A3F0225006F7E4
:0F086F0009A7F01922BBFE06F3E5F009F31922E1
:10087E00E88FF0A4CC8BF0A42CFCE98EF0A42CFC19
:10088E008AF0EDA42CFCEA8EF0A4CDA8F08BF0A497
:10089E002DCC3825F0FDE98FF0A42CCD35F0FCEBF6
:1008AE008EF0A4FEA9F0EB8FF0A4CFC5F02ECD39BB
:0F08BE00FEE43CFCEAA42DCE35F0FDE43CFC2228
:10571F00C2D5E830E70FB2D5E4C39BFBE49AFAE4B5
:10572F0099F9E498F8EC30E717B2D5125755120AE9
:10573F00E0E4C39BFBE49AFAE499F9E498F8800358
:10574F00120AE030D50DE4C39FFFE49EFEE49DFDF9
:04575F00E49CFC22A8
:0E08CD00C3E49FFFE49EFEE49DFDE49CFC223C
:1008DB00EB9FF5F0EA9E42F0E99D42F0E89C45F073
:0108EB0022EA
:1008EC00E8600FEFC333FFEE33FEED33FDEC33FC6A
:0308FC00D8F1220E
:1008FF00BB010789828A8302098D5005E9F8020B33
:10090F0072BBFE05E9F8020B7E89828A8302099980
:10091F00BB010DE58229F582E5833AF58302098D46
:10092F005007E92582F8020B72BBFE07E92582F812
:10093F00020B7EE58229F582E5833AF58302099958
:10094F00BB010789828A830209E55005E9F8020B8A
:0A095F00A4BBFE05E9F8020BB0226C
:10096900BB010DE58229F582E5833AF5830209E5A4
:100979005007E92582F8020BA4BBFE07E92582F896
:04098900020BB0228B
:0C098D00E0FCA3E0FDA3E0FEA3E0FF22DD
:10099900E493FC740193FD740293FE740393FF22A4
:0C09A900E0F8A3E0F9A3E0FAA3E0FB22D1
:1009B500E493F8740193F9740293FA740393FB2298
:1009C500BB010789828A830209A95005E9F8020B50
