:10269F0043059F6868004305A26D6D004205410028
:1026AF00004205B20000420598000042059C000060
:1026BF0044053C68686D6D4405A942FE0000410564
:0E26CF00401E4204E000004404E468686D6DA3
:03000B00020009E7
:0100090032C4
:100B0E009003917401F0E4A3F0A3F0A3F0A3F0A37B
:100B1E00F0A3F09003B3F0A3F09003B7121D4600BC
:100B2E000000009003BB121D4600000000D200D250
:100B3E0003C202C201E4900000F0A3F0F5B175B259
:100B4E00FF75B04C12471E124C2E124C3B124AC26D
:100B5E00438E80E4F58A758CB8F589D28CD2A9D2F1
:100B6E00AF7D067F12124B377FF47E01124AE17D74
:100B7E0005E4FF124B377FF47E01124AE17F017EBE
:100B8E0000124B7C7F681245E07F681245E07F6D56
:100B9E001245E07F6D1245E07F231245E0E490039D
:100BAE00B5F0A3F09003B5E0FAA3E0FBD39414EAFA
:100BBE00648094805074EBAE027802C333CE33CE91
:100BCE00D8F924E8F58274043EF583121D46000020
:100BDE000000AD03AC02EC121874E4FBFAF9784095
:100BEE00121748E4FBFA79E0784012154EC004C0A3
:100BFE0005C006C0079003B5E0FEA3E07802C3333C
:100C0E00CE33CED8F92443F58274053EF583D00752
:100C1E00D006D005D004121D3A9003B6E004F07051
:100C2E00839003B5E004F0020BB212305A7F081223
:100C3E00489F7F0512489F7F501245E07F4F124517
:100C4E00E07F531245E07F3A1245E09005A9E0FCA3
:100C5E00A3E0FDA3E0FEA3E0FF1237E07F6D124597
:100C6E00E07F6D1245E07F027E00124B7C90059B6B
:100C7E00E0FF124AFF7F3A1245E090059EE0FF1218
:100C8E004AFF7F3A1245E09005B1E0547FFF124AC9
:100C9E00FF7F3B1245E0900597E0FF124AFF90055B
:100CAE009AE0FF124AFF7F3B1245E0900000E07091
:100CBE0002A3E060047F41800C900000E07002A36C
:100CCE00E070057F4D1245E030023F900000E0706D
:100CDE0002A3E07035A20392067F30FE1248DF9029
:100CEE0005A9E0FCA3E0FDA3E0FEA3E0FF7BCD7A27
:100CFE00CC79CC300304783E800278BE12154E902B
:100D0E0005A9121D3AE4900391F0300141900000C4
:100D1E00E07002A3E07037A20392067F30FE124805
:100D2E00DF9005A9E0FCA3E0FDA3E0FEA3E0FF7BBE
:100D3E00CD7ACC79CC300304783E800278BE121581
:100D4E004E9005A9121D3AE4900391F0C20130A312
:100D5E0035900391E0702FFFFEFDFC9005A9E0F8A1
:100D6E00A3E0F9A3E0FAA3E0FB1217E56002501628
:100D7E009005A9121D46000000009003917401F029
:100D8E00C202C201D203124C539005ADE0A3F09003
:100D9E00059BE09005ADF09005AFE0A3F090059EA9
:100DAE00E09005AFF09003C27401F0A37405F0A3B8
:100DBE00749AF0A37401F0A37405F0A3749BF0A3CE
:100DCE007401F0A37405F0A3749EF0A37401F0A354
:100DDE007405F0A374B1F07B017A0579971246552C
:100DEE00900000E07002A3E070030215217F021252
:100DFE00498D90038FEEF0A3EFF09005B0E0FE90DA
:100E0E0005AFE06E600302152190059EE0FFEE6FC8
:100E1E00600302152190059BE0FE9005ADE0FD6E8E
:100E2E006003021521A3E06D600302152190039269
:100E3E00E07002A3E06003021118124B26900540E9
:100E4E00E0FEEF8EF084E5F060030210229005B113
:100E5E00E0547FFF124B26EF6003021022C3900373
:100E6E008FE09402500302102290059BE0FF124B7C
:100E7E0026EFD39410400302100E90059BE0FF1254
:100E8E004B26EFC39407500302100E90059EE0FF11
:100E9E00124B26AC07E4121879E4FBFA797078420B
:100EAE00121748C004C005C006C00790059BE0FF9E
:100EBE00124B26AC07E4121879D003D002D001D021
:100ECE000012154EE4FBFA79E078C012154EE4FBE1
:100EDE00FA7970784212163FC004C005C006C007EA
:100EEE00900540E0FCE4121879A804A905AA06AB07
:100EFE0007D007D006D005D0041217481218AD90AF
:100F0E000598EEF0A3EFF0900597E0FF90059AE0BC
:100F1E00FD90059EE09003C2F09005B1E09003C3F2
:100F2E00F0A37401F0A37405F0A374A9F0A37401E7
:100F3E00F0A37403F0A37494F0A37401F0A37403EC
:100F4E00F0A374B7F0A37401F0A37403F0A3749626
:100F5E00F090059BE0FB123952C004C005C006C0DC
:100F6E0007900598E0FEA3E07802C333CE33CED8C7
:100F7E00F924E8F58274043EF583D007D006D00537
:100F8E00D004121D3A900597E09003A8F090059AB0
:100F9E00E09003A9F090059BE09003AAF090059EC7
:100FAE00E09003ABF0900394A3E09003ACF09005B7
:100FBE00A9E0FCA3E0FDA3E0FEA3E0FF1218AD90B4
:100FCE0003ADEFF0FCE4121879A804A905AA06AB4C
:100FDE00079005A9E0FCA3E0FDA3E0FEA3E0FF124D
:100FEE00154A1218ADEF75F064A49003AEF0E4A3A9
:100FFE00F0A3F0A3F0A3F07F32FE1249F102131416
:10100E0090059BE0FF124B26EFC39411500302157F
:10101E002102134C90059BE0FF124B26EFD3941048
:10102E00400302152190059BE0FF124B26EFC3945F
:10103E0007500302152190059EE0FF124B26AC07C8
:10104E00E4121879E4FBFA79707842121748C0045A
:10105E00C005C006C00790059BE0FF124B26AC07EB
:10106E00E4121879D003D002D001D00012154EE44C
:10107E00FBFA79E078C012154EE4FBFA79707842EB
:10108E0012163FC004C005C006C007900540E0FC24
:10109E00E4121879A804A905AA06AB07D007D00652
:1010AE00D005D0041217481218AD900598EEF0A393
:1010BE00EFF090059EE09003DBF09005B1E0900319
:1010CE00DCF0A37401F0A37405F0A374A9F09005ED
:1010DE0098E0FEA3E07802C333CE33CED8F924E8ED
:1010EE00F58274043EF583E0FCA3E0FDA3E0FEA3CD
:1010FE00E0FF9003E0121D3A90059BE0FB90059AED
:10110E00E0FD900597E0FF02151E90059EE0FF1290
:10111E004B26900540E0FEEF8EF084E5F060030272
:10112E0013579005B1E0547FFF124B26EF60030278
:10113E001357C390038FE094025003021357900588
:10114E009BE0FF124B26EFD39410400302133B900B
:10115E00059BE0FF124B26EFC39407500302133B8F
:10116E0090059EE0FF124B26AC07E4121879E4FBC3
:10117E00FA79707842121748C004C005C006C0073D
:10118E0090059BE0FF124B26AC07E4121879D003B2
:10119E00D002D001D00012154EE4FBFA79E078C0EF
:1011AE0012154EE4FBFA7970784212163FC004C055
:1011BE0005C006C007900540E0FCE4121879A804AB
:1011CE00A905AA06AB07D007D006D005D004121782
:1011DE00481218AD900598EEF0A3EFF0900597E049
:1011EE00FF90059AE0FD90059EE09003C2F09005F9
:1011FE00B1E09003C3F0A37401F0A37405F0A374DF
:10120E00A9F0A37401F0A37403F0A37494F0A37473
:10121E0001F0A37403F0A374B7F0A37401F0A374E8
:10122E0003F0A37496F090059BE0FB123952C004B4
:10123E00C005C006C007900598E0FEA3E07802C383
:10124E0033CE33CED8F924E8F58274043EF583D03C
:10125E0007D006D005D004121D3A900597E09003F2
:10126E00A8F090059AE09003A9F090059BE09003FA
:10127E00AAF090059EE09003ABF09005A9E0FCA3C8
:10128E00E0FDA3E0FEA3E0FF1218AD9003ADEFF07A
:10129E00FCE4121879A804A905AA06AB079005A9C3
:1012AE00E0FCA3E0FDA3E0FEA3E0FF12154AE4FB81
:1012BE00FA79C8784212163F1218AD9003AEEFF0CD
:1012CE009003B7E0FCA3E0FDA3E0FEA3E0FF12183D
:1012DE00AD9003B1EFF0FCE4121879A804A905AAA9
:1012EE0006AB079003B7E0FCA3E0FDA3E0FEA3E08E
:1012FE00FF12154AE4FBFA79C8784212163F12180B
:10130E00AD9003B2EFF078BF7C037D017B017A03D1
:10131E0079A87E007F0B121A4B9003CA7401F0A3BA
:10132E007403F0A374BBF0123CB602152190059B1A
:10133E00E0FF124B26EFC3941150030215219003C8
:10134E0092E4F0A304F002152190059BE0FF124BEE
:10135E0026EFD39410400302152190059BE0FF1257
:10136E004B26EFC39407500302152190059EE0FF14
:10137E00124B26AC07E4121879E4FBFA7970784226
:10138E00121748C004C005C006C00790059BE0FFB9
:10139E00124B26AC07E4121879D003D002D001D03C
:1013AE000012154EE4FBFA79E078C012154EE4FBFC
:1013BE00FA7970784212163FC004C005C006C00705
:1013CE00900540E0FCE4121879A804A905AA06AB22
:1013DE0007D007D006D005D0041217481218AD90CA
:1013EE000598EEF0A3EFF0900598E0FEA3E07802EA
:1013FE00C333CE33CED8F9FBAA062443F582740547
:10140E003AF583E0FCA3E0FDA3E0FEA3E0FF90032A
:10141E0098121D3A74E82BF58274043AF583E0FCB9
:10142E00A3E0FDA3E0FEA3E0FF90039C121D3A9003
:10143E000598E0FEA3E07802C333CE33CED8F9FB95
:10144E00AA062447F58274053AF583E0FCA3E0FD75
:10145E00A3E0FEA3E0FF9003A0121D3A74EC2BF55F
:10146E008274043AF583E0FCA3E0FDA3E0FEA3E062
:10147E00FF9003A4121D3A90059EE0FF124B26AC7E
:10148E0007E4121879E4FBFA79707842121748C013
:10149E0004C005C006C00790059BE0FF124B26ACAA
:1014AE0007E4121879D003D002D001D00012154EE5
:1014BE00900487121D3A78777C047D017B017A03B4
:1014CE0079987E007F08121A4B787F7C047D017B11
:1014DE00017A0379A07E007F08121A4B123FAD905D
:1014EE0003E0121D3A900597E0FF90059AE0FD90FB
:1014FE00059EE09003DBF09005B1E09003DCF0A3D5
:10150E007401F0A37405F0A374A9F090059BE0FBA1
:10151E0012000E90059BE0FF124B26EFD394105055
:10152E001390059BE0FF124B26EFC394074005D2A4
:09153E00CD020C38C2CD020C38BC
:04443B00AB07AA061B
:10443F007C007D0A121ADB90062EEDF07C037DE8DE
:10444F00AF03AE02121ADB900631EFF07E007C0351
:10445F007DE8121AC9C3EB9FFFEA9EFE7C007D64C4
:10446F00121ADB900630EFF0A3E0FF7E007C037D95
:10447F00E8121AC9C3EB9FFDEA9EFC900630E07567
:10448F00F064A4FFC3ED9FFFEC95F0FE7C007D0A66
:10449F00121ADB90062FEFF0900631E04430FF1236
:1044AF0045E0900630E04430FF1245E090062FE0E3
:1044BF004430FF1245E090062EE04430FF1245E0F5
:0144CF0022CA
:0637E000900462121D3A84
:1037E600900462E0FCA3E0FDA3E0FEA3E0FF121854
:1037F600AD124C4790046AEEF0A3EFF0E4FFFEFD35
:10380600FC900462E0F8A3E0F9A3E0FAA3E0FB125F
:1038160017E56026402490046AE0FCA3E0FDEC1264
:103826001874A804A905AA06AB07900462E0FCA3D5
:10383600E0FDA3E0FEA3E0FF8035900462E0FCA378
:10384600E0FDA3E0FEA3E0FF12185EC004C005C0C1
:1038560006C00790046AE0FCA3E0FDEC121874A809
:1038660004A905AA06AB07D007D006D005D00412D6
:10387600154AE4FBFA7920784112163F1218AD90EA
:103886000469EFF090046AE0FAA3E0FB7C007D0A8D
:10389600FFAE02121B30900466EDF07C037DE8AFAC
:1038A60003AE02121B30AB077E007C037DE8121AC2
:1038B600C9C390046BE09FFF90046AE09EFE7C0003
:1038C6007D64121ADB900468EFF0AF037E007C0380
:1038D6007DE8121AC9C390046BE09FFD90046AE06C
:1038E6009EFC900468E075F064A4FFC3ED9FFFECB6
:1038F60095F0FE7C007D0A121ADB900467EFF0E477
:10390600FFFEFDFC900462E0F8A3E0F9A3E0FAA351
:10391600E0FB1217E5400280057F2D1245E090047A
:1039260068E04430FF1245E0900467E04430FF123F
:1039360045E0900466E04430FF1245E07F2E1245D4
:0B394600E0900469E04430FF1245E00F
:013951002253
:064BA600D2A27F017E0097
:0E4BAC00EF1FAC0670011E4C60030080F32268
:024A8200AD077E
:104A8400E4FBC2A2ED30E704D2A18002C2A1124B22
:0D4A9400A8124BA6ED25E0FD0BEBB408E5E4
:014AA10022F2
:104AA200E4FDD2A1FBED25E0FDC2A2124BA830A18C
:0F4AB20004ED4401FD124BA60BEBB408E8AF0571
:014AC10022D2
:104BCE00E4FED2A0EF44A0FF124A82124AA2C2A073
:014BDE0022B4
:104B3700AA07D2A0ED4420FF124A82AF02124A828E
:084B4700AF02124A82C2A02253
:0D4C2E005395F85396F8D2A0C2A0C2A2225E
:104655009003BFEBF0A3EAF0A3E9F07F09124BCE7C
:104665009003BFE0FBA3E0FAA3E0F9EF121AB77FCE
:1046750007124BCE9003C2E0FBA3E0FAA3E0F9EFEB
:10468500121AB77F06124BCE9003C5E0FBA3E0FAE2
:10469500A3E0F9EF121AB77F05124BCE9003C8E0DD
:1046A500FBA3E0FAA3E0F9EF121AB77F04124BCE91
:0F46B5009003CBE0FBA3E0FAA3E0F9EF021AB702
:104BDF00EFC4540FFEEF540FFFEE75F00AA42FFF32
:014BEF0022A3
:10455C00124BDFAC07AF05124BDFEC14B40C005060
:10456C007290457B75F003A4C58325F0C583730257
:10457C00459F0245A20245A70245AC0245B1024542
:10458C00B60245BB0245C00245C50245CD0245D227
:10459C000245D77E0022EF241F8021EF243B801C94
:1045AC00EF245A8017EF24788012EF2497800DEFB8
:1045BC0024B58008EF24D48003EF24F3FFE433FE0A
:1045CC0022EF24118008EF24308003EF244EFFE407
:0345DC003401FEA9
:0145DF0022B9
:104BF000759850438E9575D7D875D6FFD2ACD2AF85
:014C00002291
:10495A00900632EBF0A3EAF0A3E9F0900632E0FB0E
:10496A00A3E0FAA3E0F9121A716017900632A3E4E1
:10497A0075F001121B66A9F0FA121A71FF120000F3
:03498A0080D922AF
:06000300EFC4540FFF22C0
:054C6D00EF540FFF22CF
:01000A0022D3
:054C7200EF2430FF22D9
:104B4F00123EAFEF75F00A84FEEF75F00A84AFF0F6
:064B5F00EEC454F04FFF0C
:014B6500222D
:10471E00E4F5917592FF7F96FE124A647F0312486C
:10472E009F7F1E7E00124A647F0312489F124A60CA
:10473E007F0312489F124A607F0212489F7F017EBC
:10474E0000124A647F0212489F7F0812489FE4FFBE
:10475E0012489F7F0E12489FE4FF12489F7F061259
:09476E00489F7F147E00024A649A
:1045E00090046CEFF0D2C0C2B2E0FF5480C4131349
:1045F00013540124FF92B7EF5440C41313540324FF
:10460000FF92B6E0FF5420C413540724FF92B5EF85
:104610005410C4540F24FF92B4D2B37F017E001211
:104620004A64C2B390046CE0FF5408131313541F80
:1046300024FF92B7EF54041313543F24FF92B6E0C3
:10464000FF5402C31324FF92B5EF1392B4124A5ED3
:05465000C2B3C2C0224C
:10489F00C2C0C2B2EF5408131313541F6004D2B72F
:1048AF008002C2B7EF54041313543F6004D2B68092
:1048BF0002C2B6EF5402C3136004D2B58002C2B570
:1048CF00EF30E004D2B48002C2B4124A5EC2B32207
:064A5E00D2B37F0A7E00C6
:104A6400EF1FAA0670011E4A6013E4FCFDC3ED9417
:0D4A740058EC940250EA0DBD00010C80F0DA
:014A81002212
:104AFF00EFC4540F4430FEEF540F44309003BFF017
:0D4B0F00AF061245E09003BFE0FF0245E055
:0A4C5300E4FF12489F7F0202489F11
:0A4C5D00E4FF12489F7F0102489F08
:104B7C00EF64014E70047F0880027F0C12489FE4A2
:054B8C00FF12489F220A
:1026DD00C102C101C103C104C180420618000045F9
:0726ED00061C68686D6D73A7
:104AE100EF1FAA0670011E4A6013E4FCFDC3ED949A
:0D4AF10058EC940250EA0DBD00010C80F05D
:014AFE002295
:1034CB0053801E43801EE58044E19003C5F0E0F479
:1034DB007003023655E58044E1F0E0F470030236E8
:1034EB00525380DF4380C1E58044E1F0E0F4604754
:1034FB009003C5E0FFF4600DA3EFF0E58044E1908D
:10350B0003C5F080EB9003C6E02411602424F8601F
:10351B001824FC600C24FE701E9003C77401F0800D
:10352B00169003C77404F0800E9003C77407F080E5
:10353B00069003C7740CF05380BF4380A1E5804411
:10354B00E19003C5F0E0F460469003C5E0FFF46042
:10355B000DA3EFF0E58044E19003C5F080EB900301
:10356B00C6E02411602424F8601824FC600C24FEAF
:10357B00701D9003C77402F080159003C77405F09B
:10358B00800D9003C77408F08005E49003C7F053D7
:10359B00807F438061E58044E19003C5F0E0F460F7
:1035AB00479003C5E0FFF4600DA3EFF0E58044E125
:1035BB009003C5F080EB9003C6E02411602424F83F
:1035CB00601824FC600C24FE701E9003C77403F07B
:1035DB0080169003C77406F0800E9003C77409F031
:1035EB0080069003C7740BF05380FE4380E0E580A8
:1035FB0044E19003C5F0E0F460479003C5E0FFF4AD
:10360B00600DA3EFF0E58044E19003C5F080EB90F3
:10361B0003C6E02411602424F8601824FC600C24F9
:10362B00FE701E9003C7740DF080169003C7740EC6
:10363B00F0800E9003C7740FF080069003C77410D0
:0C364B00F09003C7E0FF227F64227F6440
:013657002250
:10305A0090061BE090061AF01234CB90061BEFF094
:10306A00BF0E03D2012290061AE0FFB4640EA3E059
:10307A00B40F09300303C20322D2032290061BE0D5
:10308A00FEB41006200203D20222EEB41006300269
:10309A0003C20222EFB4641FEEB40D1B900000E0DD
:1030AA007002A3E06008E4900000F0A3F022900010
:1030BA0000E4F0A304F02290061AE06464600302BC
:1030CA0032F9A3E0FF646470030232F9900618E053
:1030DA00FCA3E0241CF58274063CF583EFF090060D
:1030EA0019E004F07006900618E004F0900618E063
:1030FA007004A3E064056003023298900618F0A3F6
:10310A00F090061CE075F00AA4FFA3E0F97C002FFA
:10311A00FFEC35F0AD07FCA3E075F00AA4FFA3E0CD
:10312A007A002FFFEA35F0FEA3E0640B7036D3ED88
:10313A009418EC64809480502BEF943BEE64809456
:10314A0080502190061CE0C454F0FFE94FFF7D0631
:10315A00124B3790061EE0C454F0FFA3E04FFF7DE8
:10316A0005124B3790061CE075F00AA4FFA3E07C19
:10317A00002FFEEC35F09003C1F0A3CEF090061EAE
:10318A00E075F00AA4FFA3E02FFEEC35F09003C32C
:10319A00F0A3CEF0900620E0640C60030232729035
:1031AA0003C1E0FEA3E0FFD3940CEE648094804058
:1031BA0003023272EF9407EE6480948050517D02CC
:1031CA00121B30ED4C6016D39003C4E0941F900399
:1031DA00C3E064809480400302327280699003C124
:1031EA00E07004A3E064027013D39003C4E0941C5B
:1031FA009003C3E064809480506E804AD39003C4E5
:10320A00E0941E9003C3E064809480505B80379002
:10321A0003C1E0FEA3E0FF7C007D02121B30ED4CEF
:10322A007013D39003C4E0941F9003C3E0648094A6
:10323A008050358011D39003C4E0941E9003C3E0FC
:10324A0064809480502290061CE0C454F0FFA3E0EE
:10325A004FFF7D09124B3790061EE0C454F0FFA3BE
:10326A00E04FFF7D07124B37124C5D7F0812489FD3
:10327A00E4FF12489F7F681245E07F681245E07FAD
:10328A006D1245E07F6D1245E07F231245E0E49020
:10329A0003BFF0A3F0900618E0FEA3E0FFC390037B
:1032AA00C0E09FEE6480F89003BFE0648098503FCE
:1032BA00EF9404EE6480948050257F0812489F9012
:1032CA0003BFA3E0FF12489F9003BFE0FEA3E024E0
:1032DA001CF58274063EF583E04430FF1245E09007
:0F32EA0003C0E004F070AE9003BFE004F080A6D4
:0132F90022B2
:0C4C3B00759300759400E4F594F5932245
:1026F4006028010B43340000433E000043480000BF
:1027040043520000435C0000436600004370000035
:10271400437A00004382000043870000602800A041
:1027240043340000432A0000432000004316000005
:10273400430C00004302000042F0000042DC0000B1
:1027440042C8000042B400006258013342EFA3D7EC
:1027540042EF385242EDB33342ECC28F42EAE148D1
:1027640042E8385242E03D7142D170A4429B75C3A5
:1027740042BEA8F642D5F0A442D5C7AE42D4333304
:1027840042D08F5C42CAD70A42C1F5C342B2947B9D
:102794004290051F41F428F6C2AC4CCD42BD051F42
:1027A40042BC2E1442B9385242B3947B42AB947B60
:1027B400429C4CCD428338524221F5C3C17051EC46
:1027C400C2DB385242A3E66642A2BD71429E3D710D
:1027D400429675C3428ADC29426BD70A422B3333B3
:1027E4004143851FC22FAE14C2EEF5C3428A6B85E6
:1027F4004288A8F642834CCD42728F5C4252CCCDC3
:102804004221E14841AA51ECC130F5C3C27B28F60C
:10281400C2F9947B425D47AE425A1EB8424E3D71A6
:102824004237D70A4214666641B95C293FF851EC35
:10283400C1F228F6C2959EB8C2FC28F64227EB8561
:102844004223B8524216333341FBD70A41A628F635
:1028540040CE6666C1770A3DC235147BC2A73333C6
:10286400C2FECCCD41E28F5C41D7EB8541B9851FD7
:1028740041830A3D40C1999AC112E148C1F370A451
:10288400C265D70AC2B6199AC2FFA8F64161999ADD
:10289400414E147B410CCCCD00000000C107AE14A6
:1028A400C1BC28F6C22C147BC2884CCDC2C1CCCD8D
:1028B400C2FEAE140000000000000000C0B800001A
:1028C400C142E148C1B55C29C212851FC25AE14820
:1028D400C299C28FC2CA9EB8C2FF75C3C162B85240
:1028E400C170CCCDC1991EB8C1D2F5C3C210E148A4
:1028F400C242E148C282F0A4C2A7C7AEC2D22E141B
:10290400C2FEFAE1C1E1D70AC1EC51ECC204EB8585
:10291400C21E70A4C240EB85C2705C29C295428F6E
:10292400C2B5C28FC2D9428FC2FF147BC228851F91
:10293400C22C5C29C2397AE1C250A3D7C27166663F
:10294400C28D0A3DC2A56148C2C18F5CC2DF947BBF
:10295400C2FF851FC25E147BC261999AC26F28F6BA
:10296400C282051FC28F2E14C2A05C29C2B4C7AE96
:10297400C2CBD1ECC2E551ECC2FFE666C28A199A19
:10298400C28C47AEC290D1ECC2990F5CC2A461481C
:10299400C2B2947BC2C36148C2D5A3D7C2EA0F5C5A
:1029A400C3000F5C603C00CF400CCCCD40DCCCCDF0
:1029B4004139999A4182666641A8000041CD999AAD
:1029C40041F33333420C6666421F33334232000014
:1029D4004244CCCD4257999A426A6666427D33336B
:1029E4004288000060A00000C1E1D70AC1EC51ECAC
:1029F400C204EB85C21E70A4C240EB85C2705C2980
:102A0400C295428FC2B5C28FC2D9428FC2FF147B16
:102A1400C228851FC22C5C29C2397AE1C250A3D7CF
:102A2400C2716666C28D0A3DC2A56148C2C18F5C8F
:102A3400C2DF947BC2FF851FC25E147BC261999A78
:102A4400C26F28F6C282051FC28F2E14C2A05C2951
:102A5400C2B4C7AEC2CBD1ECC2E551ECC2FFE6664C
:102A6400C28A199AC28C47AEC290D1ECC2990F5C4B
:102A7400C2A46148C2B2947BC2C36148C2D5A3D781
:0C2A8400C2EA0F5CC3000F5C4100C800F8
:0A4B1C00121D3A9003DCE0547FFF05
:104B2600EFC4540FFEEF540FFFEE75F00AA42FFFEB
:014B3600225C
:014C7700221A
:1047C7009000CE30071A7404F07B017A0079C91281
:1047D70041087F027E00124AE19000CE74068018DD
:1047E7007405F07B017A0079C91241087F027E00C7
:1047F700124AE19000CE7407F07B017A0079C91262
:0A48070041087F027E00124AE12200
:0848DF0090047BEEF0A3EFF062
:1048E700E4A3F0A3F090047DF0A3F090047BE0FE36
:1048F700A3E0FFC390047EE09F90047DE09E5017E5
:10490700A20692071247C790047EE004F070DC907D
:07491700047DE004F080D4F0
:01491E002276
:064A0F00900477121D3A2D
:104A1500E4FFFE7DF07C42900477E0F8A3E0F9A383
:104A2500E0FAA3E0FB12163F1218ADA205920602AA
:024A350048DF58
:1032FA00E0FCA3E0FDA3E0FEA3E0FF900610121D90
:10330A003A9005F0E0FCA3E0FDA3E0FEA3E0FF9005
:10331A000614121D3A9005C4E0FCA3E0FDA3E0FEEA
:03332A00A3E0FF1E
:10332D009005F4121D3A900608E0FCA3E0FDA3E021
:10333D00FEA3E0FF9005F8E0F8A3E0F9A3E0FAA3FF
:10334D00E0FB12163F90060CE0F8A3E0F9A3E0FABB
:10335D00A3E0FB12163FC004C005C006C0079006CF
:10336D0004E0FCA3E0FDA3E0FEA3E0FF9005F4E084
:10337D00F8A3E0F9A3E0FAA3E0FB12163F900614C0
:10338D00E0F8A3E0F9A3E0FAA3E0FB12163FD003A7
:10339D00D002D001D00012154EC004C005C006C029
:1033AD0007900600E0FCA3E0FDA3E0FEA3E0FF9084
:1033BD0005FCE0F8A3E0F9A3E0FAA3E0FB12163F49
:1033CD00900610E0F8A3E0F9A3E0FAA3E0FB1216D3
:1033DD003FD003D002D001D00012154EC004C0055D
:1033ED00C006C007900604E0FCA3E0FDA3E0FEA329
:1033FD00E0FF9005FCE0F8A3E0F9A3E0FAA3E0FB01
:10340D0012163F90060CE0F8A3E0F9A3E0FAA3E052
:10341D00FB12163FA804A905AA06AB07D007D006D4
:10342D00D005D00412154AC004C005C006C00790CF
:10343D000600E0FCA3E0FDA3E0FEA3E0FF9005F88D
:10344D00E0F8A3E0F9A3E0FAA3E0FB12163F900623
:10345D0014E0F8A3E0F9A3E0FAA3E0FB12163FA8ED
:10346D0004A905AA06AB07D007D006D005D00412D3
:10347D00154AC004C005C006C007900608E0FCA3AD
:10348D00E0FDA3E0FEA3E0FF9005F4E0F8A3E0F972
:10349D00A3E0FAA3E0FB12163F900610E0F8A3E0BC
:1034AD00F9A3E0FAA3E0FB12163FA804A905AA06AA
:0E34BD00AB07D007D006D005D00412154A2266
:102D9A009005B4121D3A9005CCE0FCA3E0FDA3E037
:102DAA00FEA3E0FF9005F8121D3A9005D0E0FCA3BF
:102DBA00E0FDA3E0FEA3E0FF9005FC121D3A90059A
:102DCA00D4E0FCA3E0FDA3E0FEA3E0FF900600121E
:102DDA001D3A9005DCE0FCA3E0FDA3E0FEA3E0FFC2
:102DEA00900604121D3A9005E0E0FCA3E0FDA3E082
:102DFA00FEA3E0FF900608121D3A9005E4E0FCA34A
:102E0A00E0FDA3E0FEA3E0FF90060C121D3A900538
:102E1A00EC1232FA9005B8E0F8A3E0F9A3E0FAA3BD
:102E2A00E0FB12163FC004C005C006C0079005CCDF
:102E3A00E0FCA3E0FDA3E0FEA3E0FF9005F8121D6D
:102E4A003A9005D0E0FCA3E0FDA3E0FEA3E0FF90EA
:102E5A0005FC121D3A9005D8E0FCA3E0FDA3E0FEB4
:102E6A00A3E0FF900600121D3A9005DCE0FCA3E007
:102E7A00FDA3E0FEA3E0FF900604121D3A9005E0D0
:102E8A00E0FCA3E0FDA3E0FEA3E0FF900608121D0C
:102E9A003A9005E8E0FCA3E0FDA3E0FEA3E0FF9082
:102EAA00060C121D3A9005ECE0FCA3E0FDA3E0FE3F
:102EBA00A3E0FF900610121D3A9005F0E0FCA3E093
:102ECA00FDA3E0FEA3E0FF900614121D3A9005C888
:102EDA001233229005B4E0F8A3E0F9A3E0FAA3E0E4
:102EEA00FB12163FD003D002D001D00012154AC0FF
:102EFA0004C005C006C0079005C8E0FCA3E0FDA316
:102F0A00E0FEA3E0FF9005F8121D3A9005D0E0FC20
:102F1A00A3E0FDA3E0FEA3E0FF9005FC121D3A909A
:102F2A0005D4E0FCA3E0FDA3E0FEA3E0FF900600C9
:102F3A00121D3A9005D8E0FCA3E0FDA3E0FEA3E051
:102F4A00FF900604121D3A9005E0E0FCA3E0FDA301
:102F5A00E0FEA3E0FF900608121D3A9005E4E0FCAB
:102F6A00A3E0FDA3E0FEA3E0FF90060C121D3A9039
:102F7A0005E81232FA9005BCE0F8A3E0F9A3E0FAFA
:102F8A00A3E0FB12163FD003D002D001D0001215E5
:102F9A004EC004C005C006C0079005C8E0FCA3E007
:102FAA00FDA3E0FEA3E0FF9005F8121D3A9005CCC0
:102FBA00E0FCA3E0FDA3E0FEA3E0FF9005FC121DE8
:102FCA003A9005D4E0FCA3E0FDA3E0FEA3E0FF9065
:102FDA000600121D3A9005D8E0FCA3E0FDA3E0FE2E
:102FEA00A3E0FF900604121D3A9005DCE0FCA3E082
:102FFA00FDA3E0FEA3E0FF900608121D3A9005E447
:10300A00E0FCA3E0FDA3E0FEA3E0FF90060C121D86
:10301A003A9005E8E0FCA3E0FDA3E0FEA3E0FF9000
:10302A000610121D3A9005EC12330E9005C0E0F816
:10303A00A3E0F9A3E0FAA3E0FB12163FA804A9054E
:10304A00AA06AB07D007D006D005D00412154A222B
:103F8A00787F7C047D017B017E007F08121A4B90AA
:103F9A000436E0FCA3E0FDA3E0FEA3E0FF90048763
:033FAA00121D3AAB
:103FAD00900487E0F8A3E0F9A3E0FAA3E0FB900406
:103FBD0077E0FCA3E0FDA3E0FEA3E0FF12154A129B
:103FCD00185EC004C005C006C00790047FE0F8A3CA
:103FDD00E0F9A3E0FAA3E0FB900477E0FCA3E0FD99
:103FED00A3E0FEA3E0FF12154AA804A905AA06AB9B
:103FFD0007D007D006D005D004121748C004C0055D
:10400D00C006C007900483E0F8A3E0F9A3E0FAA38B
:10401D00E0FB90047BE0FCA3E0FDA3E0FEA3E0FF4A
:10402D0012154AD003D002D001D00012163F9004D1
:0F403D007BE0F8A3E0F9A3E0FAA3E0FB12154E35
:01404C002251
:09000E009003DAEBF0AA05A90742
:10001700E49003E6F0A3F0A3F0A3F0A3121D4600BB
:100027000000009003EE121D46000000009003F24E
:10003700121D4600000000900442121D46C0A00099
:100047000090046C121D46C2932E14900470121D6A
:100057004642360A3D90045A7407F0A374E3F0AFA2
:1000670001124B26A3E4F0A3EFF0AF02124B26A335
:10007700E4F0A3EFF09003DAE0FF124B26EF24053C
:10008700FDE433FCE4121874900460121D3A9003E7
:10009700DBE0FF124B26AC07E412187990046412D8
:1000A7004B1CAC07E4121879900468121D3A9003B0
:1000B700DDE0FBA3E0FAA3E0F9121C549003EA1277
:1000C7001D3A78777C047D017B017A04795A7E009A
:1000D7007F12121A4B78897C047D017B017A04799F
:1000E7006C7E007F08121A4B9004917401F0A37480
:1000F70004F0A37474F0121EFDE4FBFA793478431C
:1001070012163F7BD07A0F7949784012174890042E
:1001170046121D3A90045FE024AFFF90045EE0347E
:10012700FFFE7C017D68121AC97D6D121B30EF2519
:10013700E0FDEE33FC1218747BD07A0F79497840D2
:1001470012163FE4FBFA793478431217481236B691
:100157007B857AEB791D784112163FC004C005C034
:1001670006C007E4FFFE7D707C41900442E0F8A3DF
:10017700E0F9A3E0FAA3E0FB12163FA804A905AA39
:1001870006AB0790046CE0FCA3E0FDA3E0FEA3E050
:10019700FF12154AE4FBFA7980784012163FD00324
:1001A700D002D001D00012154EC004C005C006C051
:1001B7000790045FE024AFFF90045EE034FFFE7C0D
:1001C700017D68121AC97D6D121B30AC06AD07ECB4
:1001D7001218747BD07A0F7949784012163FE4FBE6
:1001E700FA793478431217481236A07BC37AF57927
:1001F700F0784012163FA804A905AA06AB07D00756
:10020700D006D005D00412154AC004C005C006C0E8
:100217000790045FE024AFFF90045EE034FFFE7CAC
:10022700017D68121AC97D6D121B30AC06AD07EC53
:100237001218747BD07A0F7949784012163FE4FB85
:10024700FA793478431217481236B6E4FBFA79C0C4
:10025700783F12163FA804A905AA06AB07D007D016
:1002670006D005D00412154AE4FBFA7970784212D9
:10027700174890043E121D3A9003DBE0FF124B260D
:10028700AC07E4121879E4FBFA7970784212174840
:10029700C004C005C006C0079003DAE0FF124B2672
:1002A700AC07E4121879D003D002D001D0001215A0
:1002B7004E90043EE0F8A3E0F9A3E0FAA3E0FB12B6
:1002C700154E900432121D3A7FD07E0F7D497C4037
:1002D700900446E0F8A3E0F9A3E0FAA3E0FB1216C6
:1002E7003FE4FBFA793478431217481236A0C0046A
:1002F700C005C006C0077FD07E0F7D497C409004B3
:1003070070E0F8A3E0F9A3E0FAA3E0FB12163FE4DC
:10031700FBFA793478431217481236A0D003D0027B
:10032700D001D00012163FC004C005C006C007E4C4
:10033700FFFE7D407CC1900432E0F8A3E0F9A3E022
:10034700FAA3E0FB12154E7BD37A7E793C784212F2
:10035700163FE4FBFA793478431217481236A0D0D7
:1003670003D002D001D00012163FC004C005C0065A
:10037700C0077FD07E0F7D497C40900446E0F8A3FC
:10038700E0F9A3E0FAA3E0FB12163FE4FBFA7934A5
:1003970078431217481236B6C004C005C006C00716
:1003A7007FD07E0F7D497C40900470E0F8A3E0F990
:1003B700A3E0FAA3E0FB12163FE4FBFA7934784393
:1003C7001217481236B6D003D002D001D000121649
:1003D7003FD003D002D001D00012154E12491F7B27
:1003E700ED7A2E7965784212163F90043A121D3A3B
:1003F700E4FFFE7D407CC1900432E0F8A3E0F9A35E
:10040700E0FAA3E0FB12154E7BD37A7E793C784263
:1004170012163FE4FBFA793478431217481236B6BE
:10042700C004C005C006C0077FD07E0F7D497C4051
:10043700900446E0F8A3E0F9A3E0FAA3E0FB121664
:100447003FE4FBFA793478431217481236A0D003F9
:10045700D002D001D00012163FC004C005C006C0AC
:100467000790043AE0F8A3E0F9A3E0FAA3E0FBE47D
:10047700FFFE7DB47C4212154A7BD07A0F7949780A
:100487004012163FE4FBFA793478431217481236C4
:10049700B6A804A905AA06AB07D007D006D005D091
:1004A7000412174812491F7BED7A2E79657842129C
:1004B700163FE4FBFA7934784312154E900436124E
:1004C7004B1CEF30E003020B0D7FCD7ECC7D0C7C07
:1004D7004090043AE0F8A3E0F9A3E0FAA3E0FB12A6
:1004E70017E55003020B0DE4FFFE7D887C42900464
:1004F7003AE0F8A3E0F9A3E0FAA3E0FB1217E560FE
:10050700054003020B0DE49003E6F0A3F09003E629
:10051700E0FEA3E0FFC3940AEE94004003020881C3
:10052700EF7802C333CE33CED8F9240FF5827401A6
:100537003EF583E0FCA3E0FDA3E0FEA3E0FF90040B
:1005470036E0F8A3E0F9A3E0FAA3E0FB1217E560B1
:100557000540030206CA9003E6E0FEA3E07802C363
:1005670033CE33CED8F9240BF58274013EF583E000
:10057700FCA3E0FDA3E0FEA3E0FF900436E0F8A3B0
:10058700E0F9A3E0FAA3E0FB1217E550030206CA5D
:10059700E49003E8F0A3F09003E6E0FEA3E078021E
:1005A700C333CE33CED8F9FBAA06240BF5827401E8
:1005B7003AF583E0FCA3E0FDA3E0FEA3E0FF90048F
:1005C7004A121D3A740F2BF58274013AF583E0FC49
:1005D700A3E0FDA3E0FEA3E0FF900452121D3A90B2
:1005E70003E6E0FEA3E07802C333CE33CED8F9FBAF
:1005F700AA069003E8E0FEA3E090013375F0281205
:100607001D91EE75F028A42583F583E5822BF582ED
:10061700E5833AF583E0FCA3E0FDA3E0FEA3E0FF5A
:1006270090044E121D3A9003E8E0FEA3E0900137D4
:1006370075F028121D91EE75F028A42583F583E542
:10064700822BF582E5833AF583E0FCA3E0FDA3E086
:10065700FEA3E0FF900456121D3A78777C047D01D3
:100667007B017A04794A7E007F08121A4B7A047953
:1006770052123F8AC004C005C006C0079003E8E0D5
:10068700FEA3E07802C333CE33CED8F924F6F58241
:1006970074033EF583D007D006D005D004121D3A67
:1006A7009003E9E004F070069003E8E004F0C390DB
:1006B70003E9E0940F9003E8E09400500302059EDD
:1006C7000208709003E6E0FEA3E07802C333CE335E
:1006D700CED8F924A4F58274003EF583E0FCA3E0AC
:1006E700FDA3E0FEA3E0FF900436E0F8A3E0F9A342
:1006F700E0FAA3E0FB1217E550030208709003E647
:10070700E0FEA3E07802C333CE33CED8F924A0F5B8
:100717008274003EF583E0FCA3E0FDA3E0FEA3E0C6
:10072700FF900436E0F8A3E0F9A3E0FAA3E0FB1298
:1007370017E560054003020870E49003E8F0A3F0B2
:100747009003E6E0FEA3E07802C333CE33CED8F9B8
:10075700FBAA0624A0F58274003AF583E0FCA3E027
:10076700FDA3E0FEA3E0FF90044A121D3A74A42BF8
:10077700F58274003AF583E0FCA3E0FDA3E0FEA355
:10078700E0FF900452121D3A9003E6E0FEA3E078E2
:1007970002C333CE33CED8F9FBAA069003E8E0FEB6
:1007A700A3E090013375F028121D91EE75F028A48F
:1007B7002583F583E5822BF582E5833AF583E0FC13
:1007C700A3E0FDA3E0FEA3E0FF90044E121D3A90C4
:1007D70003E8E0FEA3E090013775F028121D91EEC3
:1007E70075F028A42583F583E5822BF582E5833A06
:1007F700F583E0FCA3E0FDA3E0FEA3E0FF90045631
:10080700121D3A78777C047D017B017A0479527E48
:10081700007F08121A4B7A04794A123F8AC004C033
:1008270005C006C0079003E8E0FEA3E07802C333E3
:10083700CE33CED8F924F6F58274033EF583D0077C
:10084700D006D005D004121D3A9003E9E004F070F9
:10085700069003E8E004F0C39003E9E0940F9003E7
:10086700E8E0940050030207479003E7E004F070C4
:10087700069003E6E004F0020514E49003E6F0A313
:10088700F09003E6E0FEA3E0FFC3940FEE94004070
:10089700030209DEEF7802C333CE33CED8F924CF73
:1008A700F58274003EF583E0FCA3E0FDA3E0FEA320
:1008B700E0FF90043AE0F8A3E0F9A3E0FAA3E0FB35
:1008C7001217E550030209CD9003E6E0FEA3E07896
:1008D70002C333CE33CED8F924D3F58274003EF564
:1008E70083E0FCA3E0FDA3E0FEA3E0FF90043AE071
:1008F700F8A3E0F9A3E0FAA3E0FB1217E5600540CF
:10090700030209CD9003E6E0FEA3E07802C333CEED
:1009170033CED8F9FBAA0624CFF58274003AF583C3
:10092700E0FCA3E0FDA3E0FEA3E0FF90044A121D54
:100937003A74D32BF58274003AF583E0FCA3E0FD0B
:10094700A3E0FEA3E0FF900452121D3A9003E6E0F5
:10095700FEA3E07802C333CE33CED8F9FBAA062430
:10096700F6F58274033AF583E0FCA3E0FDA3E0FE0D
:10097700A3E0FF90044E121D3A74FA2BF58274031C
:100987003AF583E0FCA3E0FDA3E0FEA3E0FF9004BB
:1009970056121D3A78777C047D017B017A04794AE7
:1009A7007E007F08121A4B787F7C047D017B017AD9
:1009B7000479527E007F08121A4B90043A123F9C2A
:1009C7009003F2121D3A9003E7E004F070069003DB
:1009D700E6E004F0020888E4FFFE7D8E7C42900387
:1009E700F2E0F8A3E0F9A3E0FAA3E0FB12154E90BA
:1009F70003E0E0F8A3E0F9A3E0FAA3E0FB12154E49
:100A07009003EA121D3A9003DDE0FBA3E0FAA3E0AE
:100A1700F9121D1A9003EAE0FCA3E0FDA3E0FEA390
:100A2700E0FF12154A9003EE121D3A9003EEE0FC28
:100A3700A3E0FDA3E0FEA3E0FF1218AD124C47AC04
:100A470006AD07EC121874E4FBFAF9783F1217E5C4
:100A570060054003020B0DE4FFFE7D707CC190032F
:100A6700EAE0F8A3E0F9A3E0FAA3E0FB1217E550E8
:100A770003020B0DE4FFFE7D527C439003EAE0F88E
:100A8700A3E0F9A3E0FAA3E0FB1217E560025076B2
:100A9700E4FFFEFDFC9003EEE0F8A3E0F9A3E0FA23
:100AA700A3E0FB1217E5601440129003EEE0FCA3ED
:100AB700E0FDA3E0FEA3E0FFD205802BE4FFFEFDEF
:100AC700FC9003EEE0F8A3E0F9A3E0FAA3E0FB1241
:100AD70017E550169003EEE0FCA3E0FDA3E0FEA3AC
:100AE700E0FF12185EC205124A0F9003EAE0FCA36A
:100AF700E0FDA3E0FEA3E0FF9003DDE0FBA3E0FA47
:060B0700A3E0F9121CA49A
:010B0D0022C5
:101EFD00E4FBFA79707842900485E0FCA3E0FDA341
:101F0D00E0FEA3E0FF121748900481E0F8A3E0F98A
:101F1D00A3E0FAA3E0FB12154EE4FBFA79707842C8
:101F2D0012174890047DE0F8A3E0F9A3E0FAA3E0CE
:101F3D00FB12154E900498121D3A90047AE024F28B
:101F4D00FF900479E034FFFE7C007D0C121B30EE17
:101F5D003395E0FDFC9004B8121D3AE47F0CFEFDB4
:101F6D00FC9004B8E0F8A3E0F9A3E0FAA3E0FB12BB
:101F7D001BD3A804A905AA06AB0790047AE024FE9A
:101F8D00FF900479E034FFFE3395E0FDFCC3EF9B39
:101F9D00FFEE9AFEED99FDEC98FCE47B6F7A01F96A
:101FAD00F8121BD3E47B0CFAF9F812485BC004C09D
:101FBD0005C006C007900478E024C0FF900477E0C8
:101FCD003412FE3395E0FDFC9004B8E0F8A3E0F97F
:101FDD00A3E0FAA3E02FFFEA3EFEE93DFDE83CFC5D
:101FED00E47BB57A05F9F8121BD3E47B04FAF9F812
:101FFD0012485BD003D002D001D000EF2BFFEE3A98
:10200D00FEED39FDEC38FCC004C005C006C00790DC
:10201D000478E02424FF900477E03413FE3395E038
:10202D00FDFC9004B8E0F8A3E0F9A3E0FAA3E02FDB
:10203D00FFEA3EFEE93DFDE83CFCE47B64FAF9F87D
:10204D0012485BE47B03FAF9F8121BD3E47B04FA24
:10205D00F9F812485BA804A905AA06AB07D007D06A
:10206D0006D005D004C3EF9BFBEE9AFAED99F9EC7F
:10207D0098F890047BE0FEA3E0FFEE3395E0FDFCC5
:10208D00EB2FFFEA3EFEE93DFDE83CFCEF24B5FFFA
:10209D00EE3482FEED34FFFDEC34FFFC9004BC12F7
:1020AD001D3A9004BCE0FCA3E0FDA3E0FEA3E0FF1D
:1020BD00EC12186FE4FBFAF978BF12154EC004C08C
:1020CD0005C006C007E4FBFA79C07841900498E09A
:1020DD00FCA3E0FDA3E0FEA3E0FF121748D003D060
:1020ED0002D001D00012154E9004B4121D3A7F6437
:1020FD007EA17D157CCA9004B4E0F8A3E0F9A3E0BD
:0D210D00FAA3E0FB12154E900494121D3A47
:10211A007F787E3E7D887C3A900494E0F8A3E0F9CB
:10212A00A3E0FAA3E0FB12163FA804A905AA06AB8E
:10213A00077F467E257D097C4012154A9004BC1211
:10214A001D3A7FDE7EEC7D8C7C3C900494E0F8A303
:10215A00E0F9A3E0FAA3E0FB12163F7B5B7AA479CD
:10216A009C784012154E9004B4121D3A7F257EEBDE
:10217A007D8C7C3C900494E0F8A3E0F9A3E0FAA3F8
:10218A00E0FB12163F7B927AAE79C7784012154E61
:10219A009004B8121D3A9004B8E0FCA3E0FDA3E055
:1021AA00FEA3E0FF1236B67B4A7ADF7908783D1241
:1021BA00163F9004B4E0F8A3E0F9A3E0FAA3E0FB29
:1021CA0012154EC004C005C006C007E4FFFEFD7C20
:1021DA00409004B8E0F8A3E0F9A3E0FAA3E0FB1208
:1021EA00163F1236B67BEF7AF179B6783912163F76
:1021FA00D003D002D001D00012154E7B297AD179B2
:10220A00ED78B812154EC004C005C006C007900488
:10221A00BCE0FCA3E0FDA3E0FEA3E0FF1236B67B20
:10222A00EB7A4979AA783712163FA804A905AA06B3
:10223A00AB07D007D006D005D00412154A90049CEB
:10224A00121D3A9004BCE0FCA3E0FDA3E0FEA3E06B
:10225A00FF1236A07B2D7A187926783812163FC0DD
:10226A0004C005C006C0077FEC7E827DD57C319014
:10227A000494E0F8A3E0F9A3E0FAA3E0FB12163F06
:10228A00A804A905AA06AB077F9D7E747DD17C3E72
:10229A0012154AD003D002D001D00012154E900474
:0422AA00A0121D3A27
:1022AE0090049CE0FCA3E0FDA3E0FEA3E0FF123649
:1022BE00B69004B4121D3A9004A0E0FCA3E0FDA376
:1022CE00E0FEA3E0FF1236A09004B4E0F8A3E0F91C
:1022DE00A3E0FAA3E0FB12163F9004AC121D3A9055
:1022EE00049CE0FCA3E0FDA3E0FEA3E0FF1236A0F9
:1022FE009004B0121D3A9004B0E0FCA3E0FDA3E000
:10230E00FEA3E0FF9004D8121D3A9004ACE0FCA3AB
:10231E00E0FDA3E0FEA3E0FF1243029004A4121D11
:10232E003AE4FFFEFDFC9004A4E0F8A3E0F9A3E07C
:10233E00FAA3E0FB1217E5501F9004A4E0FCA3E003
:10234E00FDA3E0FEA3E0FF7BD07A0F79C97840129F
:10235E00154E9004A4121D3A9004A0E0FCA3E0FDDB
:10236E00A3E0FEA3E0FF1236B69004B4E0F8A3E0BB
:10237E00F9A3E0FAA3E0FB12163F12491F9004A83E
:03238E00121D3AE3
:102391007FE07E927D867C3D900494E0F8A3E0F995
:1023A100A3E0FAA3E0FB12163F7B4D7A5179D67870
:1023B1004012154E900498E0F8A3E0F9A3E0FAA3C7
:1023C100E0FB12154E9004B4121D3AE4FFFE7D703D
:1023D1007C419004B4E0F8A3E0F9A3E0FAA3E0FBA8
:1023E10012163F900489E0F8A3E0F9A3E0FAA3E014
:1023F100FB12154E7B2E7AFA798E783C12163F909D
:1024010004B8121D3A9004A4E0F8A3E0F9A3E0FA9D
:10241100A3E0FB9004B8E0FCA3E0FDA3E0FEA3E091
:10242100FF12154A9004C0121D3A7F2E7EFA7D8E4E
:102431007C3C90048DE0F8A3E0F9A3E0FAA3E0FB73
:1024410012163F9004BC121D3A9004BCE0FCA3E0BC
:10245100FDA3E0FEA3E0FF1236A09004C4121D3AD2
:102461009004BCE0FCA3E0FDA3E0FEA3E0FF123674
:10247100B69004C8121D3A9004C0E0FCA3E0FDA38D
:10248100E0FEA3E0FF1236A09004CC121D3A9004A6
:10249100A8E0FCA3E0FDA3E0FEA3E0FF1236A0C08C
:1024A10004C005C006C0079004CCE0FCA3E0FDA376
:1024B100E0FEA3E0FF9004C4E0F8A3E0F9A3E0FA92
:1024C100A3E0FB12163FD003D002D001D0001216B8
:1024D1003FC004C005C006C0079004A8E0FCA3E00B
:1024E100FDA3E0FEA3E0FF1236B69004C8E0F8A316
:1024F100E0F9A3E0FAA3E0FB12163FD003D002D02B
:1025010001D00012154E124811900491E0FBA3E096
:10251100FAA3E0F9121CA49004C0E0FCA3E0FDA31F
:10252100E0FEA3E0FF1236B612185E9004AC121D55
:102531003A9004A8E0FCA3E0FDA3E0FEA3E0FF12B3
:1025410036F29004C4E0F8A3E0F9A3E0FAA3E0FBBB
:1025510012163FC004C005C006C0079004CCE0FCC1
:10256100A3E0FDA3E0FEA3E0FF9004C8E0F8A3E030
:10257100F9A3E0FAA3E0FB12163FA804A905AA06F5
:10258100AB07D007D006D005D00412154A9004B08D
:10259100121D3A9004B0E0FCA3E0FDA3E0FEA3E02D
:1025A100FF9004D8121D3A9004ACE0FCA3E0FDA317
:1025B100E0FEA3E0FF124302900491E0FBA3E0FAE6
:1025C100A3E0F9900004121CBE900004121C74E4F4
:1025D100FBFAF9F81217E5602F402D900491E0FB0A
:1025E100A3E0FAA3E02404F9E43AFAC003C002C06C
:1025F10001121C547BD07A0F79C9784012154ED044
:1026010001D002D003121CA4900491E0FBA3E0FAD4
:10261100A3E02404F9E43AFAC003C002C001121C89
:10262100547B2E7AFA798E783C121748D001D00269
:10263100D003121CA4900491E0FBA3E0FAA3E0F9FB
:10264100121C541236B67B0D7AA0793278381216E4
:102651003F9004D0121D3A900491E0FBA3E0FAA34D
:10266100E0F9121C549004D0E0F8A3E0F9A3E0FAD9
:10267100A3E0FB12154E7B2E7AFA798E783C121765
:0F26810048900491E0FBA3E0FAA3E0F9121CA437
:0E2690009004A8E0FCA3E0FDA3E0FEA3E0FFA1
:01269E002219
:104AC200C2A4C2A5C2A64391015392FEE4F5974344
:0F4AD2009D05F5BDF5BE75BC807F02FE024A64EE
:10498D00EF4488F5BC00000000E5BC30E4FB53BCEF
:10499D00EFAFBD7E00ADBE7C00EF7802C333CE33EA
:0B49AD00CED8F9FFED5403FDEF4DFFE5
:0149B80022DC
:10404D00E49003EEF0A3F09003ECF0A3F09003EEF8
:10405D00A3E0FF12498DAC06AD079003EDE025E01E
:10406D00FF9003ECE033FE74D82FF58274033EF518
:10407D0083ECF0A3EDF09003EDE004F070069003F7
:10408D00ECE004F0C39003EDE0940A9003ECE064DF
:10409D0080948040B89003ECE4F0A304F09003EC1E
:1040AD00E0FEA3E0FFD39409EE648094805047EFC7
:1040BD0025E0FFEE33FE74D82FF58274033EF583B1
:1040CD00E0FEA3E0FF9003D8E0FCA3E0FDC3EF9D6D
:1040DD00FFEE9CFE124C47D3EF941EEE648094804D
:1040ED004004E4FEFF229003EDE004F070AF900376
:0A40FD00ECE004F080A77E007F01D4
:014107002295
:0B2A91009003D8EBF0A3EAF0A3E9F0FB
:102A9C00E49003E1F0A3121D463F000000E4900413
:102AAC0060F0A3F0900460E0FEA3E0FFC3943CEE62
:102ABC00648094805025EF25E0FFEE33FE74E62F02
:102ACC00F58274033EF583E4F0A3F0900461E00416
:102ADC00F070D1900460E004F080C9E4900460F0E0
:102AEC00A3F07F0212498DC3EE94025003022B8295
:102AFC009003E2E0FCA3E0FDA3E0FEA3E0FFD2051F
:102B0C00124A0F9003D8E0FBA3E0FAA3E0F9C0034C
:102B1C00C002C001121C54E4FBFAF9783F12154EA6
:102B2C00D001D002D003121CA49003E1E0FF1249A3
:102B3C008DAC06AD07900460E0FAA3E0FB25E0FF46
:102B4C00EA33FE74E62FF58274033EF583ECF0A3B2
:102B5C00EDF0EB641D4A6003022C3A900420E0F97E
:102B6C00A3E0FF9003DEE0FBA3E0FAA3E0C98FF043
:102B7C00121BB4022C3A900460E0FEA3E0FFD39445
:102B8C001DEE648094805020C3741E9FFDE49EFC57
:102B9C001218749003E2E0F8A3E0F9A3E0FAA3E0C2
:102BAC00FB12163FD2058024900461E024E2FD90D4
:102BBC000460E034FFFC1218749003E2E0F8A3E028
:102BCC00F9A3E0FAA3E0FB12163FC205124A0F90DC
:102BDC0003D8E0FBA3E0FAA3E0F9C003C002C001F4
:102BEC00121C54C004C005C006C007900460E0FE6F
:102BFC00A3E0FFC3741E9FFDE49EFC1218749003A7
:102C0C00E2E0F8A3E0F9A3E0FAA3E0FB12163FA878
:102C1C0004A905AA06AB07D007D006D005D004122C
:102C2C00154ED001D002D003121CA4022CC27F0876
:102C3C0012489F7F0512489F7F411245E07F441246
:102C4C0045E07F431245E07F3A1245E0900461E095
:102C5C0025E0FF900460E033FE74E62FF5827403E8
:102C6C003EF583E0FCA3E0FDE4121874E4FBFA7972
:102C7C00807844121748E4FBFA79A0784012163F8A
:102C8C001237E07F561245E07F101245E07FDC7E64
:102C9C0005124A64900461E004F07006900460E050
:102CAC0004F0C3900461E0943C900460E064809470
:102CBC00805003022AEE900460E07004A3E0643CB0
:102CCC006003022D997B017A0379E612439F9004ED
:102CDC005EEEF0A3EFF0E025E0FF90045EE033FE43
:102CEC0074E62FF58274033EF583E0F9A3E0FF90C0
:102CFC0003DBE0FBA3E0FAA3E0C98FF0121BB49056
:102D0C00045EE0FEA3E0FFC3743B9FFDE49EFCE485
:102D1C001218749003E2E0F8A3E0F9A3E0FAA3E040
:102D2C00FB12163FC205124A0F9003D8E0FBA3E03A
:102D3C00FAA3E0F9C003C002C001121C54C004C0C5
:102D4C0005C006C00790045EE0FEA3E0FFC3743B21
:102D5C009FFDE49EFCE41218749003E2E0F8A3E0FB
:102D6C00F9A3E0FAA3E0FB12163FA804A905AA06F2
:102D7C00AB07D007D006D005D00412154AD001D02D
:0D2D8C0002D003121CA47FF47E01124A64E1
:012D99002217
:10439F00E4FDFC900462F0A3741DF0E4A3F0A3F01D
:1043AF00900464E0FEA3E0FFD3943BEE94005073BF
:1043BF00EF25E0FFEE338F82F583121B7CFFD3EDE9
:1043CF009FEC95F04006AE04AF058016900465E0B3
:1043DF0025E0FF900464E0338F82F583121B7CFF8E
:1043EF00AEF0AC06AD07900465E025E0FF900464E5
:1043FF00E0338F82F583121B7CB50516ECB5F012F6
:10440F004D600F900464E0FFA3E0900462CFF0A32F
:10441F00EFF0900465E004F07086900464E004F01F
:0B442F000243AF900462E0FEA3E0FF38
:01443A00225F
:0B3952009003BFEFF0A3EDF0A3EBF03B
:10395D009003D0121D46000000009003C4E0FBA3AD
:10396D00E0FAA3E0F9121C549003D4121D3A90030F
:10397D00C7E0FBA3E0FAA3E0F9E4F5F0121BB49065
:10398D0003CDE0FBA3E0FAA3E0F9E4F5F0121BB4DC
:10399D009003CAE0FBA3E0FAA3E0F9121D77000043
:1039AD00000012404DEF4E7003023A889003C2E0C2
:1039BD009003DBF09003C3E09003DCF0A37401F0FF
:1039CD00A37403F0A374D4F0A3121D46C1700000BC
:1039DD009003C1E0FB9003C0E0FD9003BFE0FF1238
:1039ED00000EE4FFFE7D707C419003D4E0F8A3E06F
:1039FD00F9A3E0FAA3E0FB12154E9003CAE0FBA376
:103A0D00E0FAA3E0F9121CA49003DB7401F0A37497
:103A1D0003F0A374C7F0A37401F0A37403F0A374AF
:103A2D00CDF07B017A0379D4122A919003CAE0FB81
:103A3D00A3E0FAA3E0F9121D1A9003D4E0FCA3E071
:103A4D00FDA3E0FEA3E0FF12154A9003D0121D3A2C
:103A5D009003D4E0FCA3E0FDA3E0FEA3E0FF900300
:103A6D00C4E0FBA3E0FAA3E0F9121CA49003D0E09C
:103A7D00FCA3E0FDA3E0FEA3E0FF22E4FFFEFDFCBE
:013A8D002216
:0D49B9007F027E001249C6D2CC7F027E0034
:1049C600EF1FAA0670011E4A6013E4FCFDC3ED94B6
:0D49D60009EC940050EA0DBD00010C80F0CA
:0149E30022B1
:014C78002219
:0F4C0100D2CCD2C71249C2C2C71249C2C2CC22FA
:104B9100C2CCC2C71249C2D2CCC2C77F047E0012A6
:054BA10049C6D2C72245
:104B6600E425E0FBC2CC1249C230C704EB4401FB8A
:054B76001249C0AF036D
:014B7B002217
:054C67001249B9C2CCA6
:014C6C002225
:0E4C1000C2CCD2C71249B9C2CC1249C2C2C727
:014C1E002273
:054A3700F9121A8AFFCC
:024A3C00A907C8
:104A3E00E4FBC2CCE930E704D2C78002C2C71249F8
:0F4A4E00C2D2CCE925E0F91249C20BEBB408E360
:014A5D002236
:1041080090047FEBF0A3EAF0A3E9F0124C017F01E1
:104118007E001249C67F40124A3C124B66EF70126D
:1041280090047FE0FBA3E0FAA3E0F9121A71FF12F2
:104138004A3C124B66EF701090047FE0FBA3E0FA54
:10414800A3E0900001124A37124B66EF70109004FA
:104158007FE0FBA3E0FAA3E0900002124A37124B7B
:1041680066EF701190047FE0FBA3E0FAA3E0F990FA
:104178000003124A38124B66EF701190047FE0FB7F
:10418800A3E0FAA3E0F9900004124A38124B66EF54
:10419800701190047FE0FBA3E0FAA3E0F99000051A
:0D41A800124A38124B66EF7003124B912241
:0D49E4007F017E001249F1D2C37F017E00E9
:1049F100EF1FAA0670011E4A6013E4FCFDC3ED948B
:0D4A010004EC940050EA0DBD00010C80F0A3
:014A0E002285
:1046C4007B6053B3F143B407C2C11249EDE49003D4
:1046D400CDF0A3F0C2C31249EDEB30E704D2C2809F
:1046E40002C2C21249E4EB25E0FB9003CEE004F0E1
:1046F40070069003CDE004F0C39003CEE0940890DC
:1047040003CDE06480948040CBD2C17F0A7E001246
:0947140049F1124261EF20E0F9C5
:01471D002279
:074777007F327E001249F1C0
:10477E007B06C2C1E49003CDF0A3F0C2C31249ED93
:10478E00EB30E704D2C28002C2C21249E4EB25E04C
:10479E00FB9003CEE004F070069003CDE004F0C36E
:1047AE009003CEE094089003CDE06480948040CBDB
:0947BE00D2C17F017E000249F125
:073DB400E09003D2F07F0252
:023DBB00AB0754
:103DBD00C2C11249EDE49003D3F0A3F0C2C312497E
:103DCD00EDEB30E704D2C28002C2C21249E4EB250A
:103DDD00E0FB9003D4E004F070069003D3E004F010
:103DED00C39003D4E094089003D3E06480948040A2
:103DFD00CBE49003D3F0A3F0C2C31249ED9003CEF0
:103E0D00A3A3A3E05480FFE4FEFDFC7B80FAF9F848
:103E1D00C3121C307004D2C28002C2C21249E49097
:103E2D0003CEE0FCA3E0FDA3E0FEA3E0FF780112CA
:103E3D001C419003CE121D3A9003D4E004F070069D
:103E4D009003D3E004F0C39003D4E094189003D30F
:103E5D00E06480948040A1E49003D3F0A3F0C2C34A
:103E6D001249ED9003D2E030E704D2C28002C2C203
:103E7D001249E49003D2E025E0F09003D4E004F081
:103E8D0070069003D3E004F0C39003D4E09408903F
:103E9D0003D3E06480948040C5D2C17F017E0002CF
:023EAD0049F1D9
:023BB000AB0761
:103BB200E4900626F0C2C17F01FE1249F1E4A3F0AF
:103BC200A3F0C2C31249EDEB30E704D2C28002C2B5
:103BD200C21249E4EB25E0FB900628E004F07006EF
:103BE200900627E004F0C3900628E0940890062788
:103BF200E06480948040CBE4900627F0A3F0C2C337
:103C02001249ED900622A3A3A3E05480FFE4FEFD37
:103C1200FC7B80FAF9F8C3121C307004D2C2800215
:103C2200C2C21249E4900622E0FCA3E0FDA3E0FE3A
:103C3200A3E0FF7801121C41900622121D3A900661
:103C420028E004F07006900627E004F0C3900628EE
:103C5200E09418900627E06480948040A17F0A7E59
:103C6200001249F1D2C47F027E001249F1E49006AB
:103C720027F0A3F0900626E025E0F01249EBC2C33C
:103C82001249ED30C404E04401F0900628E004F04B
:103C92007006900627E004F0C3900628E09408908E
:103CA2000627E06480948040CBD2C11249ED900691
:033CB20026E0FF0A
:013CB50022EC
:10426100E4FB9003CFF0A3F0A3F07905C2C17F0175
:10427100FE1249F1E49003D0F0A3F0C2C31249ED5C
:10428100E930E704D2C28002C2C21249E4E925E062
:10429100F99003D1E004F070069003D0E004F0C37C
:1042A1009003D1E094089003D0E06480948040CBE7
:1042B1007F0A7E001249F1D2C47F027E001249F1C9
:1042C100E49003D0F0A3F0EB25E0FB1249EBC2C36D
:1042D1001249ED30C404EB4401FB9003D1E004F03A
:1042E10070069003D0E004F0C39003D1E0940890ED
:1042F10003D0E06480948040CED2C11249EDAF0377
:014301002299
:103CB6009003CAE0FBA3E0FAA3E0F9121C54E4FB6C
:103CC600FAF9F8C3121C30700D12477E1246C47FF3
:103CD600057E001249F112477E9003CE121D460062
:103CE6000000009003BF123DB41247779003CE1236
:103CF6001D46000000019003C0123DB412477790A4
:103D060003CE121D46000000029003C1123DB412FC
:103D160047779003CE121D46000000039003C2129F
:103D26003DB41247779003CE121D46000000049062
:103D360003C3123DB41247779003CE121D4600000E
:103D460000059003C4123DB41247779003CE121DAE
:103D560046000000069003C5123DB4124777900353
:103D6600CE121D46000000079003C6123DB412474E
:103D7600779003CE121D46000000089003C7123D3F
:103D8600B41247779003CE121D4600000009900337
:103D9600C8123DB41247779003CE121D46000000AC
:0E3DA6000A9003C9123DB47F327E000249F13B
:030000000244D0E7
:0C44D000787FE4F6D8FD758121024517C5
:10154700021919E86480F8E933E83360110460F0A0
:10155700ED33EC337009E8FCE9FDEAFEEBFF22040A
:1015670060DED3EB9FEA9EE99DE8C2E78CF0C2F705
:1015770095F0400CE8CCF8E9CDF9EACEFAEBCFFBD1
:101587001218E485D0F05804700320D5B3E804702E
:10159700075002B2D502192392D5EC0460F7E4CCC8
:1015A700C0E0C398F8603B94186008400DD0E0FB9A
:1015B7000218FBE4FBFAC9FC8028E830E406E4C91A
:1015C700FBE4CAFCE830E305E4C9CACBFCE85407EE
:1015D7006010F8C3E913F9EA13FAEB13FBEC13FCF9
:1015E700D8F130F52FC3E49CFCEF9BFFEE9AFEED9C
:1015F70099FDD0E0FBEF4E4D4C701222DB03021930
:1016070020EC2CFCEF33FFEE33FEED33FDED30E73E
:10161700EB0218FBEF2BFFEE3AFEED39FDD0E0FBB6
:1016270050130BBB0003021923ED13FDEE13FEEF5E
:0816370013FFEC13FC0218FB89
:10163F00EC4D6011E8497017ED33EC3304600DE4A5
:10164F00FCFFFEFD22E933E8330470F8021919128A
:10165F0018E458046009E4CC24815006285009028C
:10166F001923284003021920C0E0EB4A7044B980C7
:10167F0006D0E0FB02190FEF4E701CBD8008EBFF88
:10168F00EAFEE9FD80EBE98DF0A4FEE5F0021728F4
:10169F00E9CDF9EAFEEBFFEF89F0A4FCE5F0CE8986
:1016AF00F0A42EFFE435F0CD89F0A42DFEE435F043
:1016BF008067EF4E7005BD80D780C3EF8BF0A4AC71
:1016CF00F0EE8BF0A42CFCE435F0F8EF8AF0A42CAC
:1016DF00E5F038FCE433CB8DF0A42CFCE5F03BF8BF
:1016EF00EE8AF0A42CFCE5F038F8E433CF89F0A4AF
:1016FF002CFCE5F038CF3400CE89F0A42FFFE5F0B5
:10170F003EFEE433C98DF0A42EFEE5F039CD8AF00C
:10171F00A42FFFE5F03EFEE43DFD33D0E0FB500784
:10172F000BBB000F021923EC2CFCEF33FFEE33FE43
:06173F00ED33FD0218FB72
:10174500021923EC5D046005E859047003021919B8
:101755001218E4580460F6EC4860F2EC7004FDFEE3
:10176500FF22C860DB2481C85009C3986002500677
:101775000219209850CAF582E9294B4A7005AB82B7
:1017850002190F75F0007C1A7880C3EF9BEE9AED75
:1017950099400DC3EF9BFFEE9AFEED99FDE842F0EF
:1017A500DC23ACF0D0E0FFD0E0FED0E0FDAB822042
:1017B500E7101BEB60BAEC2CFCEF33FFEE33FEEDCC
:1017C50033FD0218FBE803F830E705C0F075F000BB
:1017D500EF2FFFEE33FEED33FD40B830E7C280AAB0
:1017E50074F8CC6480CCC86480C8F58204604FC3AB
:1017F500EB9FF5F0EA9E42F0E99D42F0E89C45F04A
:10180500603C501DE5825FFFE582D313CB5BCBF4D3
:101815002B5582FB50280ABA002409B900200880FC
:101825001DE5825BFBE582D313CF5FCFF4C3132F96
:101835005582FF50090EBE00050DBD00010CC3EB1E
:101845009FF5F0EA9E42F0E99D42F0E89C45F06084
:0918550007CC4820E701B3EC22A6
:10185E00ED33EC33600A047003BD8004ECB2E7FC98
:01186E002257
:10186F0075F020800E75F010800575F0087D007EF4
:10187F00007F003392D530D503121C22EC33401079
:10188F00EF33FFEE33FEED33FDEC33FCD5F0ED22FD
:0E189F00E5F0247EA2D513CC92E7CDCEFF2239
:1018AD00EDD2E7CD33EC3392D524814006E4FFFE33
:1018BD00FDFC22FCE4CFCECDCC24E0501174FF8092
:1018CD00EDC3CC13CCCD13CDCE13CECF13CF04702F
:0718DD00F030D5DE021C22F1
:104302009004D4121D3A9004D8E0F8A3E0F9A3E097
:10431200FAA3E0FB9004D4E0FCA3E0FDA3E0FEA33B
:10432200E0FF121748123AAE9004D4121D3A9004DC
:10433200D8E030E7599004D4E0FCA3E0FDA3E0FE0E
:10434200A3E0FFECC0E0EDC0E0EEC0E0EFC0E0E4CF
:10435200FFFEFDFC9004D4E0F8A3E0F9A3E0FAA389
:10436200E0FB1217E57BDB600250087A0F7949788F
:104372004080067A0F794978C0D0E0FFD0E0FED0C5
:10438200E0FDD0E0FC12154E9004D4121D3A9004C8
:0D439200D4E0FCA3E0FDA3E0FEA3E0FF22C9
:103658003A70FA83BCAAE9E43E81E0F8BF9DE9E646
:103668003F80000039283C1ABB9969663DA335E3C1
:10367800BF255DE73FC90FDB418DDBCCC44936EE82
:1036880045C9913FC5B0F83D3F800000C317F534E8
:10369800452FFA73C60AFDDD12376104A2E19205CF
:1036A8001420E015903658740412192E8030123701
:1036B8006130E102B20520E0EBA883A9829004D42E
:1036C800121D3A8982888390366C740412192E85EB
:1036D80082F09004D4121CFE85F08212163FED4C45
:1036E8006007300504EC6480FC22123761C0E0A852
:1036F80083A9829004D4121D3A89828883903690D7
:10370800740312192E8582F09004D4121CFE85F0E1
:103718008212163F9004D4E0CCF0A3E0CDF0A3E0F1
:10372800CEF0A3E0CFF0903680740312192ED08229
:103738008582F09004D4121CFE85F082E58230E088
:1037480007121748B2058096EFCBFFEECAFEEDC907
:10375800FDECC8FC1217488085ED33EC547FCC3360
:10376800920524605007D0E0D0E00219197B837AD3
:10377800F97922783E12163FEDF933ECF8332481BB
:103788005011EFFBEEFA1218AD12186FECB2E7FC0D
:1037980012154EED33EC33602F2403F8C313FCED00
:1037A80092E7FDE82481E4501FECF8EDF9EEFAEF1A
:1037B800FB1218ADEF04C2E0FCF582121879ECB2E6
:1037C800E7FC12154EE58203FAED33EC336007147B
:0837D80013FCED92E7FDEA226B
:10481100ECC0E0F8EDC0E0F9EEC0E0FAEFC0E0FB7B
:1048210012163FEC6480FC7B007A007980783F129D
:10483100154E1241B9D0E0FBD0E0FAD0E0F9D0E05A
:10484100F8C0E0121748123AAED0E030E70B7840DA
:0A48510079497A0F7BD912154E2227
:10491F00ECC0E0F8EDC0E0F9EEC0E0FAEFC0E0FB6C
:10492F0012163FEC6480FC7B007A007980783F128E
:10493F00154E1241B9D0E0CFFBD0E0CEFAD0E0CD8A
:0B494F00F9D0E0CCF8121748023AAE95
:1018E400E9D2E7C933E833F892D5EDD2E7CD33EC4A
:0718F40033FC5002B2D522C3
:1018FB00EC30E7100FBF000C0EBE00080DBD00044E
:10190B000BEB6014A2D5EB13FCED92E7FD2274FFF9
:10191B00FCFDFEFF22E480F8A2D574FF13FC7D8052
:03192B00E480EF66
:10192E00C0E0EFFBEEFAEDF9ECF812163FD0E0F561
:10193E00F0EFFBEEFAEDF9ECF8121CEEA3A3A3A365
:10194E00E8C0E0E9C0E0EAC0E0EBC0E0C0F012168B
:10195E003F121D0AA3A3A3A312154ED0F0D0E0FB95
:0D196E00D0E0FAD0E0F9D0E0F8D5F0D422B6
:1041B50002191922EDA2E7D2E7F9EC3340F260F3D8
:1041C500B4FF08ED547F70E8021923F82481C2E09A
:1041D500C0E0F40428FAC313FCED92E7FD9004D483
:1041E500121D3AEEA2E7E9BA7F02C3133400940028
:1041F500FA75F091A4E5F013F494FE8AF0A433E582
:10420500F033248CD313FDE492E7FE7F007C3F75E9
:104215008302ECC0E0F8EDC0E0F9EEC0E0FAEFC0D3
:10422500E0FB8583F09004D4121CE285F08312171D
:1042350048D0E0FBD0E0FAD0E0F9D0E0F812154E16
:10424500ED6480FD30E7011CD583C7ED33CC33F831
:0C425500D0E0A2E71328C313CC13FD2215
:103A8E00BE1249253E4CCCCDBEAAAAAB3F8000004B
:103A9E003E7ADBB03EED63383F24BC7D3F490FDB01
:103AAE00ED33ECC2E7CC339205B4FF13ED547F60D7
:103ABE00030219197FDB7E0F7DC97C3F023BA3C237
:103ACE0006C3947F401E7007EDD2E794904015EF29
:103ADE00FBEEFAEDF9ECF87F007E007D807C3F1264
:103AEE001748D206ED33EC33248430E705E4C0E00A
:103AFE00806B04FAEDD2E754F0C333DAFD54073489
:103B0E00002323C0E0CCC0E0F8EDC0E0F9EEC0E049
:103B1E00FAEFC0E0FBE4121879EC24FEFC9004DC12
:103B2E00121D3A12163F7B007A007980783F1215EB
:103B3E004E9004DCE0B2E7CCF0A3E0CDF0A3E0CEF3
:103B4E00F0A3E0CFF0D0E0FBD0E0FAD0E0F9D0E087
:103B5E00F812154E9004DC121CFE1217489004DC6D
:103B6E00121D3A903A8E740312192E9004DC121C18
:103B7E00FE12163FD0E0600F249AF582E4343AF537
:103B8E0083121D0A12154E30060B7BDB7A0F79C994
:103B9E0078BF12154EED33EC336006ECA20592E7BA
:023BAE00FC22F7
:1044DC00020B0EE493A3F8E493A34003F68001F2DD
:1044EC0008DFF48029E493A3F85407240CC8C333E1
:1044FC00C4540F4420C8834004F456800146F6DFB0
:10450C00E4800B010204081020408090269FE47E7A
:10451C00019360BCA3FF543F30E509541FFEE493A4
:10452C00A360010ECF54C025E060A840B8E493A36B
:10453C00FAE493A3F8E493A3C8C582C8CAC583CA96
:10454C00F0A3C8C582C8CAC583CADFE9DEE780BE4E
:012A90000045
:10197B00E709F608DFFA8046E709F208DFFA803E4E
:10198B0088828C83E709F0A3DFFA8032E309F6083B
:10199B00DFFA8078E309F208DFFA807088828C83A3
:1019AB00E309F0A3DFFA806489828A83E0A3F60857
:1019BB00DFFA805889828A83E0A3F208DFFA804C31
:1019CB0080D280FA80C680D4806980F28033801008
:1019DB0080A680EA809A80A880DA80E280CA803371
:1019EB0089828A83ECFAE493A3C8C582C8CCC583E9
:1019FB00CCF0A3C8C582C8CCC583CCDFE9DEE780B9
:101A0B000D89828A83E493A3F608DFF9ECFAA9F037
:101A1B00EDFB2289828A83ECFAE0A3C8C582C8CC8D
:101A2B00C583CCF0A3C8C582C8CCC583CCDFEADEA6
:101A3B00E880DB89828A83E493A3F208DFF980CC08
:101A4B0088F0EF60010E4E60C388F0ED2402B40401
:101A5B000050B9F582EB2402B4040050AF232345A8
:061A6B0082239019CB73E9
:101A7100BB010689828A83E0225002E722BBFE0273
:091A8100E32289828A83E49322A6
:101A8A00BB010CE58229F582E5833AF583E0225011
:101A9A0006E92582F8E622BBFE06E92582F8E2225B
:0D1AAA00E58229F582E5833AF583E4932275
:101AB700BB010689828A83F0225002F722BBFE010E
:021AC700F32208
:101AC900EF8DF0A4A8F0CF8CF0A428CE8DF0A42E31
:021AD900FE22EB
:101ADB00BC000BBE0029EF8DF084FFADF022E4CCEF
:101AEB00F875F008EF2FFFEE33FEEC33FCEE9DECB8
:101AFB00984005FCEE9DFE0FD5F0E9E4CEFD22EDFE
:101B0B00F8F5F0EE8420D21CFEADF075F008EF2F47
:101B1B00FFED33FD4007985006D5F0F222C398FD38
:051B2B000FD5F0EA22D5
:101B3000C2D5EC30E709B2D5E4C39DFDE49CFCEED0
:101B400030E715B2D5E4C39FFFE49EFE121ADBC353
:101B5000E49DFDE49CFC8003121ADB30D507C3E44E
:061B60009FFFE49EFE223F
:101B6600A3F8E0C5F025F0F0E58215827002158332
:061B7600E0C838F0E8228F
:101B7C00BB0110E58229F582E5833AF583E0F5F0A7
:101B8C00A3E0225009E92582F886F008E622BBFE84
:101B9C000AE92582F8E2F5F008E222E5832AF583CA
:081BAC00E993F5F0A3E993228F
:101BB400BB010A89828A83F0E5F0A3F0225006F77C
:0F1BC40009A7F01922BBFE06F3E5F009F3192279
:101BD300E88FF0A4CC8BF0A42CFCE98EF0A42CFCB1
:101BE3008AF0EDA42CFCEA8EF0A4CDA8F08BF0A42F
:101BF3002DCC3825F0FDE98FF0A42CCD35F0FCEB8E
:101C03008EF0A4FEA9F0EB8FF0A4CFC5F02ECD3952
:0F1C1300FEE43CFCEAA42DCE35F0FDE43CFC22BF
:10485B00C2D5E830E70FB2D5E4C39BFBE49AFAE488
:10486B0099F9E498F8EC30E717B2D5124891121D7C
:10487B00EFE4C39BFBE49AFAE499F9E498F880031C
:10488B00121DEF30D50DE4C39FFFE49EFEE49DFDAA
:04489B00E49CFC227B
:0E1C2200C3E49FFFE49EFEE49DFDE49CFC22D3
:101C3000EB9FF5F0EA9E42F0E99D42F0E89C45F00A
:011C40002281
:101C4100E8600FEFC333FFEE33FEED33FDEC33FC01
:031C5100D8F122A5
:101C5400BB010789828A83021CE25005E9F8021E4F
:101C640081BBFE05E9F8021E8D89828A83021CEE7F
:101C7400BB010DE58229F582E5833AF583021CE276
:101C84005007E92582F8021E81BBFE07E92582F888
:101C9400021E8DE58229F582E5833AF583021CEE66
:101CA400BB010789828A83021D3A5005E9F8021EA6
:0A1CB400B3BBFE05E9F8021EBF22D3
:101CBE00BB010DE58229F582E5833AF583021D3AD3
:101CCE005007E92582F8021EB3BBFE07E92582F80C
:041CDE00021EBF2201
:0C1CE200E0FCA3E0FDA3E0FEA3E0FF2275
:101CEE00E493FC740193FD740293FE740393FF223C
:0C1CFE00E0F8A3E0F9A3E0FAA3E0FB2269
:101D0A00E493F8740193F9740293FA740393FB222F
:101D1A00BB010789828A83021CFE5005E9F8021E6C
:101D2A0099BBFE05E9F8021EA689828A83021D0A6A
:0C1D3A00ECF0A3EDF0A3EEF0A3EFF0221C
:101D4600A8828583F0D083D082121D5D121D5D129C
:101D56001D5D121D5DE473E493A3C583C5F0C583C1
:101D6600C8C582C8F0A3C583C5F0C583C8C582C8E7
:011D7600224A
:101D7700BB010789828A83021D465005E9F8021EC6
:0A1D8700CBBBFE05E9F8021EE422C2
:0C1D9100A42582F582E5F03583F583225D
:0C4C4700EE30E707C3E49FFFE49EFE226E
:103EAF00900629EBF0A3EAF0A3E9F0900629E0FBD6
:103EBF00A3E0FAA3E0F9121A71FF124BBA500C905B
:103ECF00062AE475F001121D9D80E0D209900629A3
:103EDF00E0FBA3E0FAA3E0F9121A71FF642B600470
:103EEF00EFB42D1D900629E0FBA3E475F001121B22
:103EFF0066A9F0FA121A71642D6003D38001C39280
:103F0F0009E490062CF0A3F0900629E0FBA3E0FA59
:103F1F00A3E0F9121A71FF124C1F5042900629E0CC
:103F2F00FBA3E0FAA3E0F9121A71FF3395E0FEEF5D
:103F3F0024D0FBEE34FFFA90062CE0FEA3E0FF7CCA
:103F4F00007D0A121AC9EF2BFFEE3A90062CF0A350
:103F5F00EFF090062AE475F001121D9D80AA30093A
:103F6F000A90062CE0FEA3E0FF800F90062CE0FEE7
:0B3F7F00A3E0FFC3E49FFFE49EFE22CE
:101D9D00C5F0F8A3E028F0C5F0F8E58215827002D1
:061DAD001583E038F0226E
:101DB30075F008758200EF2FFFEE33FECD33CDCCE7
:101DC30033CCC58233C5829BED9AEC99E58298406A
:101DD3000CF582EE9BFEED9AFDEC99FC0FD5F0D647
:101DE300E4CEFBE4CDFAE4CCF9A88222B800C1B971
:101DF3000059BA002DEC8BF084CFCECDFCE5F0CBAF
:101E0300F97818EF2FFFEE33FEED33FDEC33FCEBE7
:101E130033FB10D703994004EB99FB0FD8E5E4F9A2
:101E2300FA227818EF2FFFEE33FEED33FDEC33FC8F
:101E3300C933C910D7059BE99A4007EC9BFCE99A83
:101E4300F90FD8E0E4C9FAE4CCFB2275F010EF2FC8
:101E5300FFEE33FEED33FDCC33CCC833C810D707C8
:101E63009BEC9AE899400AED9BFDEC9AFCE899F803
:0E1E73000FD5F0DAE4CDFBE4CCFAE4C8F92296
:0C1E8100E6FC08E6FD08E6FE08E6FF228D
:0C1E8D00E2FC08E2FD08E2FE08E2FF2291
:0D1E9900E6FB08E6F908E6FA08E6CBF822B9
:0D1EA600E2FB08E2F908E2FA08E2CBF822BC
:0C1EB300ECF608EDF608EEF608EFF6225B
:0C1EBF00ECF208EDF208EEF208EFF2225F
:101ECB00D083D082E493F608740193F608740293DE
:091EDB00F608740393F674047315
:101EE400D083D082E493F208740193F208740293CD
:091EF400F208740393F274047304
:0F4C1F00EFC394304007EF943A50028001C32254
:104BBA00EFC394094005EF940E4004EFB42003D3E9
:044BCA008001C32281
:00000001FF
