:10565F003132330041542B43495053544152543D3E
:10566F0022544350222C223139322E3136382E31EA
:0E567F00312E323033222C383038300D0A00F4
:1030E6004205070000420501000042050B000044AE
:1030F600041868686D6D44050E0000000044051F45
:103106000000000041041C1E44051200000000429D
:10311600051D000041052B00440523000000004466
:103126000450000000004404A8000000006054049D
:10313600ACC1000000C1000000C1000000C10000D9
:1031460000C1000000C1000000C1000000C1000075
:1031560000C1000000C1000000C1000000C1100055
:1031660000C1180000C1280000C1280000C12800C5
:1031760000C1280000C1280000C1280000C12800A5
:1031860000000000004203BC00004403C068686DF4
:013196006DCB
:03000B0002581880
:10581800C0E0C083C082758A00758CB890051EE010
:1058280004F0700690051DE004F0D082D083D0E02B
:01583800323D
:03001B00025A483E
:095A4800B295758B00758DB83222
:030003000249E1CE
:1049E100C0E0C0F0C083C082C0D075D000C000C09C
:1049F10001C002C003C004C005C006C00720B20D3B
:104A0100758A00758CB8D28CD2A9024ABBC28CAC13
:104A11008CE41203589005231209E59006B7120998
:104A2100F1410000007F007E007D007C401242C900
:104A3100900523E0F8A3E0F9A3E0FAA3E0FB12015B
:104A41001EC004C005C006C007AC8AE4120358D0DA
:104A510003D002D001D00012002DE4FBFA7938789E
:104A6100C712002D7BBC7A7479937841120227908A
:104A710005231209E5900523E0F8A3E0F9A3E0FA84
:104A8100A3E0FBC000C001C002C00390051DE0FE11
:104A9100A3E0FF7C037DE8120774AC06AD07E412C6
:104AA1000353D003D002D001D00012002D90052372
:104AB1001209E590051DE4F0A3F0D007D006D0055A
:104AC100D004D003D002D001D000D0D0D082D08386
:054AD100D0F0D0E0323E
:101A84009006C17401F0E4A3F0A3F0A3F0A3F0A3C3
:101A9400F0A3F09006E3F0A3F09006E71209F1003A
:101AA40000000090078DE4F0A304F0E4900789F0AF
:101AB400A3F0900787F0A3F090078FF0A3F01253E0
:101AC400C41259F5125A1C1258CF12562E125A0229
:101AD400125943438E80E4F58A758CB8F589F58BE9
:101AE400758DB8D28ED2ABD2AF7D067F091258E97C
:101AF4007F647E001258797D05E4FF1258E97F6403
:101B04007E001258797F017E0012592E7F6812528E
:101B1400147F681252147F6D1252147F6D12521486
:101B24007F23125214E49006E5F0A3F09006E5E05A
:101B3400FAA3E0FBAE027802C333CE33CED8F92445
:101B4400C4F58274033EF5831209F100000000AD70
:101B540003AC02EC120353E4FBFAF97840120227B7
:101B6400E4FBFA79E0784012002DC004C005C006F9
:101B7400C0079006E5E0FAA3E0FBAE027802C333A7
:101B8400CE33CED8F92454F58274043EF583D007BD
:101B9400D006D005D0041209E5EB25E0FFEA33FEB8
:101BA40074262FF58274043EF583E4F0A3F09006C6
:101BB400E6E004F070069006E5E004F09006E5E047
:101BC4007004A3E064156003021B301259B77F4010
:101BD4007E1F125879125A5A7FF47E011258797B6B
:101BE400FF7A56795F1257F490050DE090051AF0CC
:101BF4009006F27401F0A37405F0A37409F0A374C1
:101C040001F0A37405F0A3740AF0A37401F0A374A3
:101C140005F0A3740DF0A37401F0A37405F0A3748C
:101C24002CF07B017A0579001252FB90050DE0FF40
:101C34001258BEEF75F03284E5F0702D90052CE05B
:101C4400547FFF1258BEEF70207BFF7A56796312DF
:101C540055FB7F2C7E011258797BFF7A56795F12EF
:101C640057F47F2C7E011258791252AE12536A7FB8
:101C7400057E001256C5E4900529F0A3F07F327E5C
:101C8400001256C51252AE900529E0FEA3E0780278
:101C9400C333CE33CED8F924ACF58274043EF58335
:101CA400E0FCA3E0FDA3E0FEA3E0FFE4FBFAF9F807
:101CB4001202C4900529E0FEA3E0FF7C007D0350DE
:101CC40016120774EE3395E0FDFC9006F01209E558
:101CD4009006F474018013120774EE3395E0FDFC52
:101CE4009006F01209E5E49006F4F07F021248E64B
:101CF4007F327E001256C57F327E001256C51252C4
:101D0400AE900529E0FEA3E07802C333CE33CED8EB
:101D1400F924ACF58274043EF583E0FCA3E0FDA352
:101D2400E0FEA3E0FF12038C125A289006F4EFF0B1
:101D3400900529E0FEA3E0FF7C007D03120774EF09
:101D44002401FFE43EFE3395E0FDFC9006F0120909
:101D5400E57F021248E67F327E001256C57F327E4E
:101D6400001256C51252AE900529E0FEA3E0780297
:101D7400C333CE33CED8F924ACF58274043EF58354
:101D8400E0FCA3E0FDA3E0FEA3E0FF125A0FC004B1
:101D9400C005C006C007900529E0FEA3E07802C391
:101DA40033CE33CED8F924ACF58274043EF583E007
:101DB400FCA3E0FDA3E0FEA3E0FF12038C125A286B
:101DC400AC06AD07EC120353A804A905AA06AB0799
:101DD400D007D006D005D004120029E4FBFA79C854
:101DE400784212011E12038C9006F4EFF09005293C
:101DF400E0FEA3E0FF7C007D03120774EF2402FFE2
:101E0400E43EFE3395E0FDFC9006F01209E57F0206
:101E14001248E67F327E001256C590052AE004F08F
:101E24007006900529E004F0D390052AE0941490FC
:101E34000529E0648094805003021C817F327E0077
:101E44001256C51252AE9006F01209F1000000625B
:101E54009006F47408F07F021248E67F327E001286
:101E640056C57F327E001256C51252AE9006F0124D
:101E740009F1000000639006F47425F07F02124813
:101E8400E67F327E001256C5C2CD9006C2E07004D1
:101E9400A3E0640160030220CF1252AE12536A7FA2
:101EA400057E001256C5E4900516F0A3F0900516C1
:101EB400E0FEA3E0FFD39414EE6480948040030218
:101EC40020CFEF25E0FFEE33FE74262FF582740455
:101ED4003EF583E0FEA3E064014E60030220BE7F72
:101EE40032FE1256C51252AE900516E0FAA3E0FB7C
:101EF400243FFFE43AFE3395E0FDFC9006F012091E
:101F0400E5EB25E0FFEA33FE74262FF58274043EE8
:101F1400F583A3E09006F4F07F021248E67F327E58
:101F2400001256C51252AE900516E0FEA3E07802E8
:101F3400C333CE33CED8F924C4F58274033EF5837B
:101F4400E0FCA3E0FDA3E0FEA3E0FFE4FBFAF9F864
:101F54001202C4900516E0FEA3E0FF7C007D03504E
:101F640016120774EE3395E0FDFC9006F01209E5B5
:101F74009006F474018013120774EE3395E0FDFCAF
:101F84009006F01209E5E49006F4F07F021248E6A8
:101F94007F327E001256C57F327E001256C5125221
:101FA400AE900516E0FEA3E07802C333CE33CED85C
:101FB400F924C4F58274033EF583E0FCA3E0FDA399
:101FC400E0FEA3E0FF12038C125A289006F4EFF00F
:101FD400900516E0FEA3E0FF7C007D03120774EF7A
:101FE4002401FFE43EFE3395E0FDFC9006F0120967
:101FF400E57F021248E67F327E001256C57F327EAC
:10200400001256C51252AE900516E0FEA3E0780207
:10201400C333CE33CED8F924C4F58274033EF5839A
:10202400E0FCA3E0FDA3E0FEA3E0FF125A0FC0040E
:10203400C005C006C007900516E0FEA3E07802C301
:1020440033CE33CED8F924C4F58274033EF583E04D
:10205400FCA3E0FDA3E0FEA3E0FF12038C125A28C8
:10206400AC06AD07EC120353A804A905AA06AB07F6
:10207400D007D006D005D004120029E4FBFA79C8B1
:10208400784212011E12038C9006F4EFF0900516AC
:10209400E0FEA3E0FF7C007D03120774EF2402FF3F
:1020A400E43EFE3395E0FDFC9006F01209E57F0264
:1020B4001248E67F327E001256C5900517E004F000
:1020C4007006900516E004F0021EB19006C2E4F01A
:1020D400A304F0E4900501F0A3F0900527F0A3F029
:1020E400900527E0FAA3E0FBAE027802C333CE33B7
:1020F400CED8F924C4F58274033EF5831209F100A5
:10210400000000EB25E0FFEA33FE74262FF582740D
:10211400043EF583E4F0A3F0900528E004F0700693
:10212400900527E004F0900527E07004A3E064150F
:0221340070AE8B
:012136002286
:0300230002000ECA
:0D000E00309802C298309904C299C20B329A
:095A5100200BFDD20BEFF59922A8
:06596D00D2A27F017E00C2
:0E597300EF1FAC0670011E4C60030080F32293
:02583900AD07B9
:10583B00E4FBC2A2ED30E704D2A18002C2A112594F
:0D584B006F12596DED25E0FD0BEBB408E583
:01585800222D
:10585900E4FDD2A1FBED25E0FDC2A212596F30A1F2
:0F58690004ED4401FD12596D0BEBB408E8AF05D7
:01587800220D
:10599500E4FED2A0EF44A0FF125839125859C2A014
:0159A50022DF
:1058E900AA07D2A0ED4420FF125839AF0212583945
:0858F900AF02125839C2A022CF
:0D59F5005395F85396F8D2A0C2A0C2A2228A
:1052FB009006EFEBF0A3EAF0A3E9F07F09125995C2
:10530B009006EFE0FBA3E0FAA3E0F9EF1207627F50
:10531B00071259959006F2E0FBA3E0FAA3E0F9EF30
:10532B001207627F061259959006F5E0FBA3E0FA8F
:10533B00A3E0F9EF1207627F051259959006F8E08A
:10534B00FBA3E0FAA3E0F9EF1207627F0412599571
:0F535B009006FBE0FBA3E0FAA3E0F9EF02076284
:1059A600EFC4540FFEEF540FFFEE75F00AA42FFF5D
:0159B60022CE
:105188001259A6AC07AF051259A6EC14B40C00507E
:10519800739051A775F003A4C58325F0C5837302E6
:1051A80051CB0251CE0251D30251D80251DD0251E6
:1051B800E20251E70251EC0251F10251F90251FEAB
:1051C8000252037E0022EF241F8021EF243B801C23
:1051D800EF245A8017EF24788012EF2497800DEF80
:1051E80024B58008EF24D48003EF24F3FFE433FED2
:1051F80022EF24118008EF24308003EF244EFFE4CF
:075208003401FE22E4FEFF69
:01520F00227C
:1053C400E4F5917592FF7F96FE1257D67F0312552E
:1053D400407F1E7E001257D67F031255401257D2CB
:1053E4007F031255401257D27F021255407F017E2F
:1053F400001257D67F021255407F08125540E4FF31
:105404001255407F0E125540E4FF1255407F06129C
:0954140055407F147E000257D6BA
:04521000E04430FF47
:105214009006EFEFF0D2C0C293E0FF5480C41313A2
:1052240013540124FF92B7EF5440C41313540324BE
:10523400FF92B6E0FF5420C413540724FF92B5EF45
:105244005410C4540F24FF92B4D2B37F017E0012D1
:1052540057D6C2B39006EFE0FF5408131313541F3C
:1052640024FF92B7EF54041313543F24FF92B6E083
:10527400FF5402C31324FF92B5EF1392B41257D014
:05528400C2B3C2C0220C
:10554000C2C0C293EF5408131313541F6004D2B7A0
:105550008002C2B7EF54041313543F6004D2B680E4
:1055600002C2B6EF5402C3136004D2B58002C2B5C2
:10557000EF30E004D2B48002C2B41257D0C2B322DA
:0657D000D2B37F0A7E0047
:1057D600EF1FAA0670011E4A6013E4FCFDC3ED9498
:0D57E60058EC940250EA0DBD00010C80F05B
:0157F3002293
:10589700EFC4540F4430FEEF540F4430900814F017
:0D58A700AF06125214900814E0FF025214D4
:0A5A3400E4FF1255407F02025540C6
:0A5A3E00E4FF1255407F01025540BD
:10592E00EF64014E70047F0880027F0C125540E434
:05593E00FF125540229C
:06442F009007CB1209E525
:104435009007CBE0FCA3E0FDA3E0FEA3E0FF1203A1
:104445008C125A289007D4EEF0A3EFF0E4FFFEFD9E
:10445500FC9007CBE0F8A3E0F9A3E0FAA3E0FB1298
:1044650002C4602640249007D4E0FCA3E0FDEC12D2
:104475000353A804A905AA06AB079007CBE0FCA344
:10448500E0FDA3E0FEA3E0FF80359007CBE0FCA3B1
:10449500E0FDA3E0FEA3E0FF12033DC004C005C09C
:1044A50006C0079007D4E0FCA3E0FDEC120353A877
:1044B50004A905AA06AB07D007D006D005D004127B
:1044C5000029E4FBFA7920784112011E12038C9031
:1044D50007D3EFF09007D4E0FAA3E0FB7C007D0A58
:1044E500FFAE021207DB9007CFEDF07C037DE8AF4E
:1044F50003AE021207DBA9079007D2E9F07E007C24
:10450500037DE8120774C39007D5E09FFB9007D49D
:10451500E09EFA7C007D64AF03FE1207869007D10A
:10452500EFF0E075F064A4FFC3EB9FFFEA95F0FEA2
:104535007C007D0A1207869007D0EFF0E4FFFEFDB0
:10454500FC9007CBE0F8A3E0F9A3E0FAA3E0FB12A7
:1045550002C4400280057F2D1252149007D21252D8
:10456500109007D11252109007D01252109007CF19
:0E4575001252107F2E1252149007D3125210C1
:014583002215
:103197004207890000420787000042078D0000426E
:0D31A700078B000042078F000041077800F1
:10587900EF1FAA0670011E4A6013E4FCFDC3ED94F4
:0D58890058EC940250EA0DBD00010C80F0B7
:0158960022EF
:103E2B0053801E43801EE58044E190080EF0E0F4C1
:103E3B007003023FB5E58044E1F0E0F47003023F0C
:103E4B00B25380DF4380C1E58044E1F0E0F460478A
:103E5B0090080EE0FFF4600DA3EFF0E58044E190D5
:103E6B00080EF080EB90080FE02411602424F8601A
:103E7B001824FC600C24FE701E9008107401F08056
:103E8B00169008107404F0800E9008107407F080E0
:103E9B0006900810740CF05380BF4380A1E580445A
:103EAB00E190080EF0E0F4604690080EE0FFF4603D
:103EBB000DA3EFF0E58044E190080EF080EB900845
:103ECB000FE02411602424F8601824FC600C24FEFD
:103EDB00701D9008107402F080159008107405F096
:103EEB00800D9008107408F08005E4900810F053D2
:103EFB00807F438061E58044E190080EF0E0F46040
:103F0B004790080EE0FFF4600DA3EFF0E58044E16D
:103F1B0090080EF080EB90080FE02411602424F839
:103F2B00601824FC600C24FE701E9008107403F0C3
:103F3B0080169008107406F0800E9008107409F02B
:103F4B008006900810740BF05380FE4380E0E580F0
:103F5B0044E190080EF0E0F4604790080EE0FFF4A7
:103F6B00600DA3EFF0E58044E190080EF080EB903C
:103F7B00080FE02411602424F8601824FC600C2442
:103F8B00FE701E900810740DF08016900810740EC1
:103F9B00F0800E900810740FF080069008107410CB
:0C3FAB00F0900810E0FF227F64227F6489
:013FB70022E7
:1035580090077BE0FFA3E0900779CFF0A3EFF0128C
:103568003E2B7E0090077BEEF0A3EFF0640E700612
:10357800900787023605900779E0FEA3E0FF6464B0
:103588004E7020A3E07004A3E0640F701690078DBE
:10359800E07002A3E06006E490078D805890078DE4
:1035A800E4805A90077BE0FCA3E0FD64104C700FA8
:1035B800900789E07002A3E07005900789803EEDCE
:1035C80064104C7010900789E07002A3E06006E474
:1035D8009007898020EF64644E702790077BE07025
:1035E80004A3E0640D701B90078BE07002A3E060F9
:1035F80008E490078BF0A3F02290078BE4F0A30473
:10360800F022900779E07004A3E064646003023854
:10361800E390077BE0FCA3E0FD64644C7003023890
:10362800E3900778E0FF3395E0FEEF25E0FFEE3307
:10363800FE747D2FF58274073EF583ECF0A3EDF060
:10364800900778E004F0E064056003023881F090A8
:103658000785E07004A3E0640B707490077DE0FEBA
:10366800A3E0FF7C007D0A120774900780E02FFF1B
:1036780090077FE03EAB07FA900781E0FEA3E0FFEA
:10368800120774900784E02FFF900783E03EFED373
:10369800EB9418EA94004003023810EF943CEE943F
:1036A80000400302381090077DA3E0C454F0FFA344
:1036B800A3E04FFF7D061258E9900781A3E0C454A8
:1036C800F0FFA3A3E04FFF7D051258E902380790E9
:1036D8000785E07004A3E0640C60030238109007CB
:1036E8007DE0FEA3E0FF7C007D0A1207749007804E
:1036F800E02FFF90077FE03E9007E8F0FAA3EFF095
:10370800FB900781E0FEA3E0FF120774900784E0B6
:103718002FFF900783E03E9007EAF0A3EFF0D3EB8A
:103728009407EA9400507B9007E9E030E023900783
:10373800EBE0941F9007EAE09400400302380790FA
:10374800077DA3E0C454F0FFA3A3E04FFF1D023799
:10375800F19007E8E07004A3E064027024D39007B6
:10376800EBE0941C9007EAE09400400302380790CD
:10377800077DA3E0C454F0FFA3A3E04FFF7D0980B9
:1037880068D39007EBE0941E9007EAE09400506F2E
:1037980090077DA3E0C454F0FFA3A3E04FFF7D0989
:1037A80080479007E9E020E021D39007EBE0941FE1
:1037B8009007EAE09400504790077DA3E0C454F0D6
:1037C800FFA3A3E04FFF7D09801FD39007EBE09490
:1037D8001E9007EAE09400502690077DA3E0C454A9
:1037E800F0FFA3A3E04FFF7D091258E9900781A3DA
:1037F800E0C454F0FFA3A3E04FFF7D071258E990FF
:103808000785E4F0A37464F090077DE07004A3E0FA
:103818006409703590077FE07004A3E0640970299B
:10382800900781E07004A3E06409701D900783E0AD
:103838007004A3E064097011900785E07002A3E0AA
:10384800700790078FF0A304F090078FE07002A331
:10385800E07026125A3E7F08125540E4FF12554088
:103868007F681252147F681252147F6D1252147FAF
:103878006D1252147F23125214E49007E6F0A3F05D
:10388800900778E0FFFD3395E0FCC39007E7E09DE3
:103898009007E6E09C5044EF64809484502D7F08A4
:1038A8001255409007E6A3E0FF1255409007E7E065
:1038B80025E0FF9007E6E033FE747D2FF58274075C
:1038C8003EF583A3E04430FF1252149007E7E0046A
:0B38D800F070AD9007E6E004F080A562
:0138E30022C2
:0C5A1C00759300759400E4F594F5932256
:1031B4006028013043340000433E000043480000CF
:1031C40043520000435C000043660000437000006B
:1031D400437A00004382000043870000602800A473
:1031E40043340000432A000043200000431600003B
:1031F400430C00004302000042F0000042DC0000E7
:1032040042C8000042B400006258016042EFA3D7F4
:1032140042EF385242EDB33342ECC28F42EAE14806
:1032240042E8385242E03D7142D170A4429B75C3DA
:1032340042BEA8F642D5F0A442D5C7AE42D4333339
:1032440042D08F5C42CAD70A42C1F5C342B2947BD2
:103254004290051F41F428F6C2AC4CCD42BD051F77
:1032640042BC2E1442B9385242B3947B42AB947B95
:10327400429C4CCD428338524221F5C3C17051EC7B
:10328400C2DB385242A3E66642A2BD71429E3D7142
:10329400429675C3428ADC29426BD70A422B3333E8
:1032A4004143851FC22FAE14C2EEF5C3428A6B851B
:1032B4004288A8F642834CCD42728F5C4252CCCDF8
:1032C4004221E14841AA51ECC130F5C3C27B28F642
:1032D400C2F9947B425D47AE425A1EB8424E3D71DC
:1032E4004237D70A4214666641B95C293FF851EC6B
:1032F400C1F228F6C2959EB8C2FC28F64227EB8597
:103304004223B8524216333341FBD70A41A628F66A
:1033140040CE6666C1770A3DC235147BC2A73333FB
:10332400C2FECCCD41E28F5C41D7EB8541B9851F0C
:1033340041830A3D40C1999AC112E148C1F370A486
:10334400C265D70AC2B6199AC2FFA8F64161999A12
:10335400414E147B410CCCCD00000000C107AE14DB
:10336400C1BC28F6C22C147BC2884CCDC2C1CCCDC2
:10337400C2FEAE140000000000000000C0B800004F
:10338400C142E148C1B55C29C212851FC25AE14855
:10339400C299C28FC2CA9EB8C2FF75C3C162B85275
:1033A400C170CCCDC1991EB8C1D2F5C3C210E148D9
:1033B400C242E148C282F0A4C2A7C7AEC2D22E1450
:1033C400C2FEFAE1C1E1D70AC1EC51ECC204EB85BB
:1033D400C21E70A4C240EB85C2705C29C295428FA4
:1033E400C2B5C28FC2D9428FC2FF147BC228851FC7
:1033F400C22C5C29C2397AE1C250A3D7C271666675
:10340400C28D0A3DC2A56148C2C18F5CC2DF947BF4
:10341400C2FF851FC25E147BC261999AC26F28F6EF
:10342400C282051FC28F2E14C2A05C29C2B4C7AECB
:10343400C2CBD1ECC2E551ECC2FFE666C28A199A4E
:10344400C28C47AEC290D1ECC2990F5CC2A4614851
:10345400C2B2947BC2C36148C2D5A3D7C2EA0F5C8F
:10346400C3000F5C603C00F4400CCCCD40DCCCCD00
:103474004139999A4182666641A8000041CD999AE2
:1034840041F33333420C6666421F33334232000049
:103494004244CCCD4257999A426A6666427D3333A0
:1034A4004288000060A00004C1E1D70AC1EC51ECDD
:1034B400C204EB85C21E70A4C240EB85C2705C29B5
:1034C400C295428FC2B5C28FC2D9428FC2FF147B4C
:1034D400C228851FC22C5C29C2397AE1C250A3D705
:1034E400C2716666C28D0A3DC2A56148C2C18F5CC5
:1034F400C2DF947BC2FF851FC25E147BC261999AAE
:10350400C26F28F6C282051FC28F2E14C2A05C2986
:10351400C2B4C7AEC2CBD1ECC2E551ECC2FFE66681
:10352400C28A199AC28C47AEC290D1ECC2990F5C80
:10353400C2A46148C2B2947BC2C36148C2D5A3D7B6
:10354400C2EA0F5CC3000F5C440000C0A00000414D
:0335540000D400A0
:105943009001581209F1C2932E1490015C1209F1CF
:0559530042360A3D226E
:0A58B4001209E5900732E0547FFF6F
:1058BE00EFC4540FFEEF540FFFEE75F00AA42FFF46
:0158CE0022B7
:105468009000EC300C1A7404F07B017A0079E71292
:105478004D2F7F027E001258799000EC7406801838
:105488007405F07B017A0079E7124D2F7F027E00C8
:105498001258799000EC7407F07B017A0079E712D2
:0A54A8004D2F7F027E00125879227A
:085580009007F6EEF0A3EFF036
:10558800E4A3F0A3F09007F8F0A3F09007F6E0FE8C
:10559800A3E0FFC39007F9E09F9007F8E09E50173B
:1055A800A20D920C1254689007F9E004F070DC9098
:0755B80007F8E004F080D4C5
:0155BF0022C9
:06570D009007FA1209E505
:10571300E4FFFE7D8C7C429007FAE0F8A3E0F9A356
:10572300E0FAA3E0FB12011E12038CA20E920D02FB
:0257330055809F
:104BB10078B17C077D017B017E007F081206F690AB
:104BC1000657E0FCA3E0FDA3E0FEA3E0FF9007B9D8
:034BD1001209E5E1
:104BD4009007B9E0F8A3E0F9A3E0FAA3E0FB90079B
:104BE400A9E0FCA3E0FDA3E0FEA3E0FF120029126C
:104BF400033DC004C005C006C0079007B1E0F8A398
:104C0400E0F9A3E0FAA3E0FB9007A9E0FCA3E0FD30
:104C1400A3E0FEA3E0FF120029A804A905AA06AB9D
:104C240007D007D006D005D004120227C004C0055F
:104C3400C006C0079007B5E0F8A3E0F9A3E0FAA323
:104C4400E0FB9007ADE0FCA3E0FDA3E0FEA3E0FFE2
:104C5400120029D003D002D001D00012011E900707
:0F4C6400ADE0F8A3E0F9A3E0FAA3E0FB12002D06
:014C7300221E
:062768009006571209E57E
:10276E0090069B1209F100000000E490069FF0A372
:10277E00F090069FE0FEA3E0FFC3940AEE648094FF
:10278E00804003022AF5EF7802C333CE33CED8F958
:10279E002434F58274013EF583E0FCA3E0FDA3E052
:1027AE00FEA3E0FF900657E0F8A3E0F9A3E0FAA33A
:1027BE00E0FB1202C46005400302293990069FE037
:1027CE00FEA3E07802C333CE33CED8F92430F5829F
:1027DE0074013EF583E0FCA3E0FDA3E0FEA3E0FF61
:1027EE00900657E0F8A3E0F9A3E0FAA3E0FB12028B
:1027FE00C45003022939E49006A1F0A3F090069F7D
:10280E00E0FEA3E07802C333CE33CED8F9FBAA069E
:10281E002430F58274013AF583E0FCA3E0FDA3E0D9
:10282E00FEA3E0FF9006A31209E574342BF5827423
:10283E00013AF583E0FCA3E0FDA3E0FEA3E0FF90E8
:10284E0006AB1209E590069FE0FEA3E07802C333C3
:10285E00CE33CED8F9FBAA069006A1E0FEA3E090F7
:10286E00016075F028120A3CEE75F028A42583F558
:10287E0083E5822BF582E5833AF583E0FCA3E0FD48
:10288E00A3E0FEA3E0FF9006A71209E59006A1E0E3
:10289E00FEA3E090016475F028120A3CEE75F02854
:1028AE00A42583F583E5822BF582E5833AF583E053
:1028BE00FCA3E0FDA3E0FEA3E0FF9006AF1209E546
:1028CE0078A97C077D017B017A0679A37E007F08BB
:1028DE001206F67A0679AB124BB1C004C005C006DB
:1028EE00C0079006A1E0FEA3E07802C333CE33CE3C
:1028FE00D8F9245FF58274063EF583D007D006D052
:10290E0005D0041209E59006A2E004F070069006C8
:10291E00A1E004F0C39006A2E0940F9006A1E0643B
:10292E00809480500302280B022AE190069FE0FE5D
:10293E00A3E07802C333CE33CED8F924A8F582743F
:10294E00003EF583E0FCA3E0FDA3E0FEA3E0FF90D4
:10295E000657E0F8A3E0F9A3E0FAA3E0FB1202C4E5
:10296E005003022AE190069FE0FEA3E07802C333F3
:10297E00CE33CED8F924A4F58274003EF583E0FC64
:10298E00A3E0FDA3E0FEA3E0FF900657E0F8A3E06E
:10299E00F9A3E0FAA3E0FB1202C460054003022A89
:1029AE00E1E49006A1F0A3F090069FE0FEA3E0788C
:1029BE0002C333CE33CED8F9FBAA0624A4F5827413
:1029CE00003AF583E0FCA3E0FDA3E0FEA3E0FF9058
:1029DE0006A31209E574A82BF58274003AF583E07C
:1029EE00FCA3E0FDA3E0FEA3E0FF9006AB1209E519
:1029FE0090069FE0FEA3E07802C333CE33CED8F923
:102A0E00FBAA069006A1E0FEA3E090016075F028F7
:102A1E00120A3CEE75F028A42583F583E5822BF58A
:102A2E0082E5833AF583E0FCA3E0FDA3E0FEA3E09C
:102A3E00FF9006A71209E59006A1E0FEA3E0900123
:102A4E006475F028120A3CEE75F028A42583F583F0
:102A5E00E5822BF582E5833AF583E0FCA3E0FDA346
:102A6E00E0FEA3E0FF9006AF1209E578A97C077D92
:102A7E00017B017A0679AB7E007F081206F67A0694
:102A8E0079A3124BB1C004C005C006C0079006A1C1
:102A9E00E0FEA3E07802C333CE33CED8F9245FF53F
:102AAE008274063EF583D007D006D005D0041209F5
:102ABE00E59006A2E004F070069006A1E004F0C3D3
:102ACE009006A2E0940F9006A1E0648094805003DB
:102ADE000229B69006A0E004F0600302277F90065C
:102AEE009FE004F002277FE490069FF0A3F090068B
:102AFE009FE0FEA3E0FFC3940FEE6480948040033A
:102B0E00022C54EF7802C333CE33CED8F924F4F529
:102B1E008274003EF583E0FCA3E0FDA3E0FEA3E09B
:102B2E00FF90065BE0F8A3E0F9A3E0FAA3E0FB1246
:102B3E0002C45003022C4390069FE0FEA3E07802ED
:102B4E00C333CE33CED8F924F8F58274003EF58324
:102B5E00E0FCA3E0FDA3E0FEA3E0FF90065BE0F83F
:102B6E00A3E0F9A3E0FAA3E0FB1202C46005400360
:102B7E00022C4390069FE0FEA3E07802C333CE33CF
:102B8E00CED8F9FBAA0624F4F58274003AF583E058
:102B9E00FCA3E0FDA3E0FEA3E0FF9006A31209E56F
:102BAE0074F82BF58274003AF583E0FCA3E0FDA3E4
:102BBE00E0FEA3E0FF9006AB1209E590069FE0FE53
:102BCE00A3E07802C333CE33CED8F9FBAA06245F36
:102BDE00F58274063AF583E0FCA3E0FDA3E0FEA3C4
:102BEE00E0FF9006A71209E574632BF58274063A8E
:102BFE00F583E0FCA3E0FDA3E0FEA3E0FF9006AFAB
:102C0E001209E578A97C077D017B017A0679A37EFE
:102C1E00007F081206F678B17C077D017B017A06EB
:102C2E0079AB7E007F081206F690065B124BC390BE
:102C3E00069B1209E59006A0E004F0700690069F30
:102C4E00E004F0022AFC90069BE0FCA3E0FDA3E06A
:042C5E00FEA3E0FFF2
:012C6200224F
:09213700900730EBF0AA05A9079E
:10214000E490073CF0A3F0A3F0A3F0A31209F10080
:102150000000009007441209F100000000900748B9
:102160001209F1000000009000D57407F0A374E399
:10217000F0AF011258BEA3E4F0A3EFF0AF02125883
:10218000BEA3E4F0A3EFF0900730E0FF1258BEEFDB
:102190002405FDE433FCE41203539000DB1209E54F
:1021A000900731E0FF1258BEAC07E41203589000CC
:1021B000DF1258B4AC07E41203589000E31209E5AB
:1021C000900733E0FBA3E0FAA3E0F91208FF9007C1
:1021D000401209E578FA7C057D017B017A0079D50A
:1021E0007E007F121206F6780C7C067D017B017A58
:1021F0000179587E007F081206F69006147401F0EB
:10220000A37400F0A374F1F0120BEEE4FBFA79343E
:10221000784312011E7BD07A0F7949784012022749
:102220009000CC1209E59000DAE024AFFF9000D9CD
:10223000E034FFFE7C017D681207747D6D1207DBC0
:10224000EF25E0FDEE33FC1203537BD07A0F794982
:10225000784012011EE4FBFA793478431202271207
:10226000419F7B857AEB791D784112011EC004C025
:1022700005C006C007E4FFFE7D707C41900000E0D1
:10228000F8A3E0F9A3E0FAA3E0FB12011EA804A959
:1022900005AA06AB07900158E0FCA3E0FDA3E0FE11
:1022A000A3E0FF120029E4FBFA7980784012011EB6
:1022B000D003D002D001D00012002DC004C005C050
:1022C00006C0079000DAE024AFFF9000D9E034FFA9
:1022D000FE7C017D681207747D6D1207DBAC06ADD4
:1022E00007EC1203537BD07A0F7949784012011E14
:1022F000E4FBFA793478431202271241897BC37ACE
:10230000F579F0784012011EA804A905AA06AB07CA
:10231000D007D006D005D004120029C004C005C0E3
:1023200006C0079000DAE024AFFF9000D9E034FF48
:10233000FE7C017D681207747D6D1207DBAC06AD73
:1023400007EC1203537BD07A0F7949784012011EB3
:10235000E4FBFA7934784312022712419FE4FBFA36
:1023600079C0783F12011EA804A905AA06AB07D0C0
:1023700007D006D005D004120029E4FBFA79707862
:10238000421202279000D01209E5900731E0FF12B7
:1023900058BEAC07E4120358E4FBFA797078421295
:1023A0000227C004C005C006C007900730E0FF1236
:1023B00058BEAC07E4120358D003D002D001D000BD
:1023C00012002D9000D0E0F8A3E0F9A3E0FAA3E01A
:1023D000FB12002D9000ED1209E57FD07E0F7D49A4
:1023E0007C409000CCE0F8A3E0F9A3E0FAA3E0FB86
:1023F00012011EE4FBFA7934784312022712418954
:10240000C004C005C006C0077FD07E0F7D497C4058
:1024100090015CE0F8A3E0F9A3E0FAA3E0FB12016D
:102420001EE4FBFA79347843120227124189D00363
:10243000D002D001D00012011EC004C005C006C0E9
:1024400007E4FFFE7D407CC19000EDE0F8A3E0F9D9
:10245000A3E0FAA3E0FB12002D7BD37A7E793C78CF
:102460004212011EE4FBFA7934784312022712412A
:1024700089D003D002D001D00012011EC004C005D3
:10248000C006C0077FD07E0F7D497C409000CCE025
:10249000F8A3E0F9A3E0FAA3E0FB12011EE4FBFAC3
:1024A0007934784312022712419FC004C005C00648
:1024B000C0077FD07E0F7D497C4090015CE0F8A38F
:1024C000E0F9A3E0FAA3E0FB12011EE4FBFA793481
:1024D000784312022712419FD003D002D001D000CE
:1024E00012011ED003D002D001D00012002D1255CF
:1024F000C07BED7A2E7965784212011E90074C124E
:1025000009E5E4FFFE7D407CC19000EDE0F8A3E02A
:10251000F9A3E0FAA3E0FB12002D7BD37A7E793C8D
:10252000784212011EE4FBFA793478431202271232
:10253000419FC004C005C006C0077FD07E0F7D4903
:102540007C409000CCE0F8A3E0F9A3E0FAA3E0FB24
:1025500012011EE4FBFA79347843120227124189F2
:10256000D003D002D001D00012011EC004C005C0AB
:1025700006C00790074CE0F8A3E0F9A3E0FAA3E057
:10258000FBE4FFFE7DB47C421200297BD07A0F79F8
:1025900049784012011EE4FBFA793478431202278D
:1025A00012419FA804A905AA06AB07D007D006D000
:1025B00005D0041202271255C07BED7A2E7965787A
:1025C0004212011EE4FBFA7934784312002D900781
:1025D000501258B4EF30E0030227677FCD7ECC7DE8
:1025E0000C7C4090074CE0F8A3E0F9A3E0FAA3E0EC
:1025F000FB1202C45003022767E4FFFE7D887C4281
:1026000090074CE0F8A3E0F9A3E0FAA3E0FB120284
:10261000C46005400302276790074CE0FCA3E0FD7F
:10262000A3E0FEA3E0FF90065B1209E5900750E0EF
:10263000FCA3E0FDA3E0FEA3E0FF1227689007489B
:102640001209E5E4FFFE7D167C43900748E0F8A3FD
:10265000E0F9A3E0FAA3E0FB12002D900736E0F8C2
:10266000A3E0F9A3E0FAA3E0FB12002D90074012CB
:1026700009E5900733E0FBA3E0FAA3E0F91209C5EE
:10268000900740E0FCA3E0FDA3E0FEA3E0FF120002
:10269000299007441209E5900744E0FCA3E0FDA35C
:1026A000E0FEA3E0FF125A0FE4FBFAF9783F1202B2
:1026B000C460054003022767E4FFFE7D707CC19083
:1026C0000740E0F8A3E0F9A3E0FAA3E0FB1202C49C
:1026D0005003022767E4FFFE7D527C43900740E0F1
:1026E000F8A3E0F9A3E0FAA3E0FB1202C4600250F1
:1026F00076E4FFFEFDFC900744E0F8A3E0F9A3E0D8
:10270000FAA3E0FB1202C460144012900744E0FCFC
:10271000A3E0FDA3E0FEA3E0FFD20E802BE4FFFECA
:10272000FDFC900744E0F8A3E0F9A3E0FAA3E0FB86
:102730001202C45016900744E0FCA3E0FDA3E0FEA3
:10274000A3E0FF12033DC20E12570D900740E0FCBC
:10275000A3E0FDA3E0FEA3E0FF900733E0FBA3E0CE
:07276000FAA3E0F912094F92
:01276700224F
:1038E4009007EEEBF09000D57407F0A374E3F012A8
:1038F40058BEA3E4F0A3EFF0AF051258BEA3E4F062
:10390400A3EFF09007EEE0FF1258BEEF2405FDE4AC
:1039140033FCE41203539000DB1209E59007EFE057
:10392400FF1258BEAC07E41203589000DF1209E5F9
:103934009007F01258BAAC07E41203589000E3124F
:1039440009E578FA7C057D017B017A0079D57E0052
:103954007F121206F6780C7C067D017B017A0179D0
:10396400587E007F081206F69006147401F0A374C2
:1039740000F0A374F1F0120BEEE4FBFA793478430F
:1039840012011E7BD07A0F794978401202279000E9
:10399400CC1209E59000DAE024AFFF9000D9E034BE
:1039A400FFFE7C017D681207747D6D1207DBEF2535
:1039B400E0FDEE33FC1203537BD07A0F7949784053
:1039C40012011EE4FBFA7934784312022712419F54
:1039D4007B857AEB791D784112011EC004C005C0B5
:1039E40006C007E4FFFE7D707C41900000E0F8A370
:1039F400E0F9A3E0FAA3E0FB12011EA804A905AABA
:103A040006AB07900158E0FCA3E0FDA3E0FEA3E0B1
:103A1400FF120029E4FBFA7980784012011ED003DA
:103A2400D002D001D00012002DC004C005C006C0D1
:103A3400079000DAE024AFFF9000D9E034FFFE7C69
:103A4400017D681207747D6D1207DBAC06AD07ECCF
:103A54001203537BD07A0F7949784012011EE4FB9C
:103A6400FA793478431202271241897BC37AF579B3
:103A7400F0784012011EA804A905AA06AB07D007D6
:103A8400D006D005D004120029C004C005C006C069
:103A9400079000DAE024AFFF9000D9E034FFFE7C09
:103AA400017D681207747D6D1207DBAC06AD07EC6F
:103AB4001203537BD07A0F7949784012011EE4FB3C
:103AC400FA7934784312022712419FE4FBFA79C051
:103AD400783F12011EA804A905AA06AB07D007D097
:103AE40006D005D004120029E4FBFA79707842125A
:103AF40002279000D01209E59007EFE0FF1258BEAC
:103B0400AC07E4120358E4FBFA79707842120227F6
:103B1400C004C005C006C0079007EEE0FF1258BEFF
:103B2400AC07E4120358D003D002D001D000120035
:103B34002D9000D0E0F8A3E0F9A3E0FAA3E0FB1293
:103B4400002D9000ED1209E57FD07E0F7D497C4069
:103B54009000CCE0F8A3E0F9A3E0FAA3E0FB1201A3
:103B64001EE4FBFA79347843120227124189C00417
:103B7400C005C006C0077FD07E0F7D497C40900100
:103B84005CE0F8A3E0F9A3E0FAA3E0FB12011EE471
:103B9400FBFA79347843120227124189D003D00208
:103BA400D001D00012011EC004C005C006C007E445
:103BB400FFFE7D407CC19000EDE0F8A3E0F9A3E0B6
:103BC400FAA3E0FB12002D7BD37A7E793C78421273
:103BD400011EE4FBFA79347843120227124189D09A
:103BE40003D002D001D00012011EC004C005C006DB
:103BF400C0077FD07E0F7D497C409000CCE0F8A3C5
:103C0400E0F9A3E0FAA3E0FB12011EE4FBFA793425
:103C1400784312022712419FC004C005C006C007A2
:103C24007FD07E0F7D497C4090015CE0F8A3E0F9F1
:103C3400A3E0FAA3E0FB12011EE4FBFA7934784313
:103C440012022712419FD003D002D001D0001201EA
:103C54001ED003D002D001D00012002D1255C02274
:100BEE00E4FBFA79707842900608E0FCA3E0FDA3DE
:100BFE00E0FEA3E0FF120227900604E0F8A3E0F95E
:100C0E00A3E0FAA3E0FB12002DE4FBFA7970784220
:100C1E00120227900600E0F8A3E0F9A3E0FAA3E0A1
:100C2E00FB12002D90061B1209E59005FDE024F243
:100C3E00FF9005FCE034FFFE7C007D0C1207DBEE1E
:100C4E003395E0FDFC90063B1209E5E47F0CFEFDBA
:100C5E00FC90063BE0F8A3E0F9A3E0FAA3E0FB1258
:100C6E00087EA804A905AA06AB079005FDE024FEA0
:100C7E00FF9005FCE034FFFE3395E0FDFCC3EF9BD7
:100C8E00FFEE9AFEED99FDEC98FCE47B6F7A01F98C
:100C9E00F812087EE47B0CFAF9F81254FCC004C07A
:100CAE0005C006C0079005FBE024C0FF9005FAE0E2
:100CBE003412FE3395E0FDFC90063BE0F8A3E0F91C
:100CCE00A3E0FAA3E02FFFEA3EFEE93DFDE83CFC7F
:100CDE00E47BB57A05F9F812087EE47B04FAF9F89C
:100CEE001254FCD003D002D001D000EF2BFFEE3A0D
:100CFE00FEED39FDEC38FCC004C005C006C00790FF
:100D0E0005FBE02424FF9005FAE03413FE3395E052
:100D1E00FDFC90063BE0F8A3E0F9A3E0FAA3E02F78
:100D2E00FFEA3EFEE93DFDE83CFCE47B64FAF9F89F
:100D3E001254FCE47B03FAF9F812087EE47B04FA01
:100D4E00F9F81254FCA804A905AA06AB07D007D0DF
:100D5E0006D005D004C3EF9BFBEE9AFAED99F9ECA1
:100D6E0098F89005FEE0FEA3E0FFEE3395E0FDFC63
:100D7E00EB2FFFEA3EFEE93DFDE83CFCEF24B5FF1C
:100D8E00EE3482FEED34FFFDEC34FFFC90063F1294
:100D9E0009E590063FE0FCA3E0FDA3E0FEA3E0FF23
:100DAE00EC12034EE4FBFAF978BF12002DC004C01A
:100DBE0005C006C007E4FBFA79C0784190061BE037
:100DCE00FCA3E0FDA3E0FEA3E0FF120227D003D0B8
:100DDE0002D001D00012002D9006371209E57F6473
:100DEE007EA17D157CCA900637E0F8A3E0F9A3E05A
:0D0DFE00FAA3E0FB12002D9006171209E584
:100E0B007F787E3E7D887C3A900617E0F8A3E0F968
:100E1B00A3E0FAA3E0FB12011EA804A905AA06ABE6
:100E2B00077F467E257D097C4012002990063F12E4
:100E3B0009E57FDE7EEC7D8C7C3C900617E0F8A309
:100E4B00E0F9A3E0FAA3E0FB12011E7B5B7AA47925
:100E5B009C784012002D9006371209E57F257EEB1A
:100E6B007D8C7C3C900617E0F8A3E0F9A3E0FAA395
:100E7B00E0FB12011E7B927AAE79C7784012002DEF
:100E8B0090063B1209E590063BE0FCA3E0FDA3E0D6
:100E9B00FEA3E0FF12419F7B4A7ADF7908783D126F
:100EAB00011E900637E0F8A3E0F9A3E0FAA3E0FBFC
:100EBB0012002DC004C005C006C007E4FFFEFD7C78
:100ECB004090063BE0F8A3E0F9A3E0FAA3E0FB12A5
:100EDB00011E12419F7BEF7AF179B6783912011E10
:100EEB00D003D002D001D00012002D7B297AD1790A
:100EFB00ED78B812002DC004C005C006C0079006DF
:100F0B003FE0FCA3E0FDA3E0FEA3E0FF12419F7BCB
:100F1B00EB7A4979AA783712011EA804A905AA060B
:100F2B00AB07D007D006D005D00412002990061FBE
:100F3B001209E590063FE0FCA3E0FDA3E0FEA3E071
:100F4B00FF1241897B2D7A187926783812011EC041
:100F5B0004C005C006C0077FEC7E827DD57C319036
:100F6B000617E0F8A3E0F9A3E0FAA3E0FB12011ED9
:100F7B00A804A905AA06AB077F9D7E747DD17C3E94
:100F8B00120029D003D002D001D00012002D900600
:040F9B00231209E52F
:100F9F0090061FE0FCA3E0FDA3E0FEA3E0FF1241DB
:100FAF009F9006371209E5900623E0FCA3E0FDA30E
:100FBF00E0FEA3E0FF124189900637E0F8A3E0F9C5
:100FCF00A3E0FAA3E0FB12011E90062F1209E59091
:100FDF00061FE0FCA3E0FDA3E0FEA3E0FF124189A2
:100FEF009006331209E5900633E0FCA3E0FDA3E081
:100FFF00FEA3E0FF9007E21209E590062FE0FCA3A5
:10100F00E0FDA3E0FEA3E0FF124F2990062712098F
:10101F00E5E4FFFEFDFC900627E0F8A3E0F9A3E06E
:10102F00FAA3E0FB1202C4501F900627E0FCA3E0D6
:10103F00FDA3E0FEA3E0FF7BD07A0F79C9784012C1
:10104F00002D9006271209E5900623E0FCA3E0FD92
:10105F00A3E0FEA3E0FF12419F900637E0F8A3E064
:10106F00F9A3E0FAA3E0FB12011E1255C090062B64
:03107F001209E56E
:101082007FE07E927D867C3D900617E0F8A3E0F932
:10109200A3E0FAA3E0FB12011E7B4D7A5179D678C8
:1010A2004012002D90061BE0F8A3E0F9A3E0FAA39A
:1010B200E0FB12002D9006371209E5E4FFFE7D7079
:1010C2007C41900637E0F8A3E0F9A3E0FAA3E0FB45
:1010D20012011E90060CE0F8A3E0F9A3E0FAA3E0E7
:1010E200FB12002D7B2E7AFA798E783C12011E902B
:1010F200063B1209E5900627E0F8A3E0F9A3E0FA1F
:10110200A3E0FB90063BE0FCA3E0FDA3E0FEA3E02E
:10111200FF1200299006431209E57F2E7EFA7D8E8A
:101122007C3C900610E0F8A3E0F9A3E0FAA3E0FB10
:1011320012011E90063F1209E590063FE0FCA3E073
:10114200FDA3E0FEA3E0FF1241899006471209E5E4
:1011520090063FE0FCA3E0FDA3E0FEA3E0FF124106
:101162009F90064B1209E5900643E0FCA3E0FDA325
:10117200E0FEA3E0FF12418990064F1209E59006B6
:101182002BE0FCA3E0FDA3E0FEA3E0FF124189C037
:1011920004C005C006C00790064FE0FCA3E0FDA313
:1011A200E0FEA3E0FF900647E0F8A3E0F9A3E0FA2F
:1011B200A3E0FB12011ED003D002D001D000120125
:1011C2001EC004C005C006C00790062BE0FCA3E0C9
:1011D200FDA3E0FEA3E0FF12419F90064BE0F8A3BF
:1011E200E0F9A3E0FAA3E0FB12011ED003D002D083
:1011F20001D00012002D1254B2900614E0FBA3E0BD
:10120200FAA3E0F912094F900643E0FCA3E0FDA324
:10121200E0FEA3E0FF12419F12033D90062F120948
:10122200E590062BE0FCA3E0FDA3E0FEA3E0FF12A5
:1012320041DB900647E0F8A3E0F9A3E0FAA3E0FB64
:1012420012011EC004C005C006C00790064FE0FC94
:10125200A3E0FDA3E0FEA3E0FF90064BE0F8A3E0CD
:10126200F9A3E0FAA3E0FB12011EA804A905AA064D
:10127200AB07D007D006D005D00412002990063360
:101282001209E5900633E0FCA3E0FDA3E0FEA3E033
:10129200FF9007E21209E590062FE0FCA3E0FDA310
:1012A200E0FEA3E0FF124F29900614E0FBA3E0FA50
:1012B200A3E0F990000412096990000412091FE4E6
:1012C200FBFAF9F81202C4602F402D900614E0FBDD
:1012D200A3E0FAA3E02404F9E43AFAC003C002C08E
:1012E200011208FF7BD07A0F79C9784012002DD005
:1012F20001D002D00312094F900614E0FBA3E0FADA
:10130200A3E02404F9E43AFAC003C002C0011208BF
:10131200FF7B2E7AFA798E783C120227D001D00216
:10132200D00312094F900614E0FBA3E0FAA3E0F900
:101332001208FF12419F7B0D7AA079327838120190
:101342001E9006531209E5900614E0FBA3E0FAA3EF
:10135200E0F91208FF900653E0F8A3E0F9A3E0FADF
:10136200A3E0FB12002D7B2E7AFA798E783C1202D2
:0F13720027900614E0FBA3E0FAA3E0F912094F5D
:0E13810090062BE0FCA3E0FDA3E0FEA3E0FF3E
:01138F00223B
:1058CF00C2A4C2A5C2A64391015392FEE4F5974329
:0A58DF009D01F5BDF5BE75BC8022E9
:1056E300EF4488F5BC0000E5BC30E4FB53BCEFAFEE
:1056F300BD7E00ADBE7C00EF7802C333CE33CED87F
:09570300F9FFED5403FDEF4DFF29
:01570C00227A
:10573500252E34660041542B43495053454E443D74
:10574500390D0A004A0D0A00570D0A004D0D0A00D1
:085755004C0D0A00540D0A007E
:104C7400E49007A7F0A3F09007A5F0A3F09007A78E
:104C8400A3E0FF1256E3AC06AD079007A6E025E0CB
:104C9400FF9007A5E033FE74912FF58274073EF56B
:104CA40083ECF0A3EDF09007A6E004F07006900703
:104CB400A5E004F0C39007A6E0940A9007A5E06479
:104CC40080948040B89007A5E4F0A304F09007A571
:104CD400E0FEA3E0FFD39409EE648094805047EF94
:104CE40025E0FFEE33FE74912FF58274073EF583C1
:104CF400E0FEA3E0FF900791E0FCA3E0FDC3EF9D7D
:104D0400FFEE9CFE125A28D3EF941EEE648094802A
:104D14004004E4FEFF229007A6E004F070AF900781
:0A4D2400A5E004F080A77E007F01E7
:014D2E002262
:0B13900090052DEBF0A3EAF0A3E9F0BC
:10139B00E490053EF0A31209F13F000000E4900534
:1013AB00F4F0A3F09004501209F100000000900437
:1013BB00A81209F1000000001208FFE4FBFA79A063
:1013CB00784112002D9005431209E5E49005F6F0E3
:1013DB00A3F09005F6E0FEA3E0FFC39451EE64800A
:1013EB0094805025EF25E0FFEE33FE74502FF582ED
:1013FB0074053EF583E4F0A3F09005F7E004F0707C
:10140B00D19005F6E004F080C9E49005F6F0A3F066
:10141B00E49005F8F0A3F09005F8E0FEA3E0FFC31D
:10142B009405EE648094805035EF4E70069005F471
:10143B00F0A3F090053EE0FF1256E39005F5E02F88
:10144B00F09005F4E03EF07F027E001257D6900537
:10145B00F9E004F070C19005F8E004F080B9900554
:10146B00F4E0FEA3E0FF7C007D051207DBAC06ADCC
:10147B00079005F7E025E0FF9005F6E033FE74508A
:10148B002FF58274053EF583ECF0A3EDF090070188
:10149B0074FFF0A37457F0A37435F0900543E0FC90
:1014AB00A3E0FDA3E0FEA3E0FF9007041209E57B98
:1014BB00017A057947122CC87BFF7A57793A125576
:1014CB00FB7FC87E001257D67B017A0579471255F0
:1014DB00FB7BFF7A5779491255FB7F907E011257A0
:1014EB00D690070174FFF0A37457F0A37435F090F6
:1014FB0005F7E025E0FF9005F6E033FE74502FF57D
:10150B008274053EF583E0FCA3E0FDEC120353E48B
:10151B00FBFA79807844120227E4FBFA79A0784031
:10152B0012011E9007041209E57B017A0579471217
:10153B002CC87BFF7A57793A1255FB7FC87E001275
:10154B0057D67B017A0579471255FB7BFF7A577982
:10155B004D1255FB7FC87E001257D6E4FFFEFDFCF3
:10156B00900450E0F8A3E0F9A3E0FAA3E0FB120229
:10157B00C46036900523E0FCA3E0FDA3E0FEA3E0EE
:10158B00FF900450E0F8A3E0F9A3E0FAA3E0FB120C
:10159B0002C450059004508003900523E0FCA3E0A7
:1015AB00FDA3E0FEA3E0FF800E900523E0FCA3E08B
:1015BB00FDA3E0FEA3E0FF9004501209E590052384
:1015CB00E0FCA3E0FDA3E0FEA3E0FF9004A8E0F89D
:1015DB00A3E0F9A3E0FAA3E0FB1202C46007400505
:1015EB009004A88003900523E0FCA3E0FDA3E0FE9C
:1015FB00A3E0FF9004A81209E57F081255407F0570
:10160B001255407F411252147F441252147F4312E1
:10161B0052147F3A1252149005F7E025E0FF900523
:10162B00F6E033FE74502FF58274053EF583E0FC33
:10163B00A3E0FDEC120353E4FBFA79807844120229
:10164B0027E4FBFA79A0784012011E12442F7F5633
:10165B001252147F101252147FC87E001257D6906C
:10166B00070174FFF0A37457F0A37435F090052DA8
:10167B00E0FBA3E0FAA3E0F91208FF9007041209BC
:10168B00E57B017A057947122CC87BFF7A57793AAB
:10169B001255FB7FC87E001257D67B017A0579471E
:1016AB001255FB7BFF7A5779511255FB7FC87E0091
:1016BB001257D690070174FFF0A37457F0A374353B
:1016CB00F0900523E0FCA3E0FDA3E0FEA3E0FF9078
:1016DB0007041209E57B017A057947122CC87BFFB9
:1016EB007A57793A1255FB7FC87E001257D67B0189
:1016FB007A0579471255FB7BFF7A5779551255FBC3
:10170B007FC87E001257D690053FE0FCA3E0FDA3F7
:10171B00E0FEA3E0FFD20E12570D90052DE0FBA3C8
:10172B00E0FAA3E0F9C003C002C0011208FFE4FB1A
:10173B00FAF9783F12002DD001D002D00312094FD5
:10174B007FC87E001257D69006F27401F0A3740581
:10175B00F0A3743CF0A37401F0A37405F0A3743BE5
:10176B00F0A37401F0A37405F0A3743AF0A3740111
:10177B00F0A37405F0A37439F07B017A05793D125F
:10178B0052FB90053AE0FF1258BEAC07E412035827
:10179B00E4FBFA79707842120227C004C005C00638
:1017AB00C00790053BE0FF1258BEAC07E41203588C
:1017BB00D003D002D001D00012002DC004C005C050
:1017CB0006C007900539E0547FFF1258BEAC07E402
:1017DB00120358E4FBFA79617845120227D003D043
:1017EB0002D001D00012002D9007041209E59007DA
:1017FB000174FFF0A37457F0A37435F07B017A05E5
:10180B007947122CC87BFF7A57793A1255FB7FC860
:10181B007E001257D67B017A0579471255FB7BFF69
:10182B007A5779591255FB7FC87E001257D690050F
:10183B00F7E004F070069005F6E004F0C39005F7AE
:10184B00E094519005F6E064809480500302141BE1
:10185B007FE87E031257D69005F6E07004A3E06490
:10186B00516003021A837B017A057950124FC6909F
:10187B0005F2EEF0A3EFF0E025E0FF9005F2E03388
:10188B00FE74502FF58274053EF583E0F9A3E0FF5B
:10189B00900530E0FBA3E0FAA3E0C98FF012085FDC
:1018AB009005A0E0F9A3E0FF900533E0FBA3E0FA7D
:1018BB00A3E0C98FF012085F9005F2E0FEA3E0FFF2
:1018CB00C374549FFDE49EFC12035390053FE0F854
:1018DB00A3E0F9A3E0FAA3E0FB12011EC20E12571C
:1018EB000D90052DE0FBA3E0FAA3E0F9C003C002C5
:1018FB00C0011208FFC004C005C006C0079005F266
:10190B00E0FEA3E0FFC374539FFDE49EFC12035360
:10191B0090053FE0F8A3E0F9A3E0FAA3E0FB120186
:10192B001EA804A905AA06AB07D007D006D005D080
:10193B0004120029D001D002D00312094F900701E5
:10194B0074FFF0A37457F0A37435F090052DE0FBF2
:10195B00A3E0FAA3E0F91208FF9007041209E57B54
:10196B00017A057947122CC87BFF7A57793A1255C1
:10197B00FB7FC87E001257D67B017A05794712553B
:10198B00FB7BFF7A5779511255FB7FC87E001257AC
:10199B00D69006F27401F0A37405F0A3743CF0A387
:1019AB007401F0A37405F0A3743BF0A37401F0A3CE
:1019BB007405F0A3743AF0A37401F0A37405F0A3BB
:1019CB007439F07B017A05793D1252FB90053AE0B0
:1019DB00FF1258BEAC07E4120358E4FBFA79707897
:1019EB0042120227C004C005C006C00790053BE0A9
:1019FB00FF1258BEAC07E4120358D003D002D0013B
:101A0B00D00012002DC004C005C006C007900539D8
:101A1B00E0547FFF1258BEAC07E4120358E4FBFA04
:101A2B0079617845120227D003D002D001D0001281
:101A3B00002D9007041209E590070174FFF0A374C1
:101A4B0057F0A37435F07B017A057947122CC87BCC
:101A5B00FF7A57793A1255FB7FC87E001257D67B17
:101A6B00017A0579471255FB7BFF7A577959125545
:081A7B00FB7FC87E001257D664
:011A83002240
:104FC600E4FDFC9007FEF0A37428F0E4A3F0A3F040
:104FD600900800E0FEA3E0FFC39451EE94005073E6
:104FE600EF25E0FFEE338F82F583120827FFD3ED1E
:104FF6009FEC95F04006AE04AF058016900801E0E0
:1050060025E0FF900800E0338F82F583120827FF22
:10501600AEF0AC06AD07900801E025E0FF90080071
:10502600E0338F82F583120827B50516ECB5F0122A
:105036004D600F900800E0FFA3E09007FECFF0A3BD
:10504600EFF0900801E004F07086900800E004F0AC
:0B505600024FD69007FEE0FEA3E0FF33
:01506100222C
:0B3C6400900754EFF0A3EDF0A3EBF08D
:103C6F009007681209F100000000E490076CF0A3C0
:103C7F00F0A3F0A3F0900765E0FBA3E0FAA3E0F94F
:103C8F001208FF9007701209E5900759E0FBA3E0B7
:103C9F00FAA3E0F91208FF9007741209E590075C88
:103CAF00E0FBA3E0FAA3E0F9E4F5F012085F900758
:103CBF0062E0FBA3E0FAA3E0F9E4F5F012085F90ED
:103CCF00075FE0FBA3E0FAA3E0F9120A220000006D
:103CDF00009004501209F1000000009004A812098E
:103CEF00F100000000124C74EF4E7003023E25905D
:103CFF000757E0900731F0900758E0900732F0A394
:103D0F007401F0A37407F0A37474F0A31209F1C146
:103D1F00A00000900756E0FB900755E0FD90075478
:103D2F00E0FF122137E4FFFE7DA07C41900774E095
:103D3F00F8A3E0F9A3E0FAA3E0FB12002D90075FD0
:103D4F00E0FBA3E0FAA3E0F912094F9005307401EC
:103D5F00F0A37407F0A3746CF0A37401F0A37407BD
:103D6F00F0A3746EF0A37401F0A37407F0A3747042
:103D7F00F07B017A077974121390900770E0FCA31F
:103D8F00E0FDA3E0FEA3E0FF900765E0FBA3E0FAF0
:103D9F00A3E0F912094F90076CE0F9A3E0FF900739
:103DAF005CE0FBA3E0FAA3E0C98FF012085F900775
:103DBF006EE0F9A3E0FF900762E0FBA3E0FAA3E057
:103DCF00C98FF012085F90075FE0FBA3E0FAA3E052
:103DDF00F91209C5900774E0FCA3E0FDA3E0FEA370
:103DEF00E0FF1200299007681209E5900774E0FCC4
:103DFF00A3E0FDA3E0FEA3E0FF900759E0FBA3E0E3
:103E0F00FAA3E0F912094F900768E0FCA3E0FDA3C5
:0B3E1F00E0FEA3E0FF22E4FFFEFDFC3C
:013E2A002275
:1057AB00C3EC64809480401CED25E0FFEC338F82CA
:1057BB00F583120827640145F07005AF05AE04228E
:0457CB00E4FEFF22D7
:0157CF0022B7
:0D568D007F027E0012569AD2CC7F027E0072
:10569A00EF1FAA0670011E4A6013E4FCFDC3ED94D5
:0D56AA0009EC940050EA0DBD00010C80F0E9
:0156B70022D0
:015A6F002214
:0F59C800D2CCD2C7125696C2C7125696C2CC2264
:10595800C2CCC2C7125696D2CCC2C77F047E0012F0
:05596800569AD2C7228F
:10591800E425E0FBC2CC12569630C704EB4401FBE9
:05592800125694AF03CC
:01592D002257
:055A630012568DC2CCBB
:015A6800221B
:0E59D700C2CCD2C712568DC2CC125696C2C791
:0159E500229F
:05575D00F9120735FF01
:02576200A90795
:10576400E4FBC2CCE930E704D2C78002C2C71256B8
:0F57740096D2CCE925E0F91256960BEBB408E378
:015783002203
:104D2F00900811EBF0A3EAF0A3E9F01259C87F0144
:104D3F007E0012569A7F40125762125918EF701266
:104D4F00900811E0FBA3E0FAA3E0F912071CFF1291
:104D5F005762125918EF7010900811E0FBA3E0FA98
:104D6F00A3E090000112575D125918EF70109008D0
:104D7F0011E0FBA3E0FAA3E090000212575D125975
:104D8F0018EF7011900811E0FBA3E0FAA3E0F9907F
:104D9F00000312575E125918EF7011900811E0FBC3
:104DAF00A3E0FAA3E0F990000412575E125918EF2E
:104DBF007011900811E0FBA3E0FAA3E0F990000551
:0D4DCF0012575E125918EF70031259582246
:0D56B8007F057E001256C5D2C37F057E001F
:1056C500EF1FAA0670011E4A6013E4FCFDC3ED94AA
:0D56D50004EC940050EA0DBD00010C80F0C3
:0156E20022A5
:10536A007B6053B3F143B407C2C11256C1E490063D
:10537A00EFF0A3F0C2C31256C1EB30E704D2C280E9
:10538A0002C2C21256B8EB25E0FB9006F0E004F028
:10539A0070069006EFE004F0C39006F0E0940890DF
:1053AA0006EFE06480948040CBD2C17F0A7E00126F
:0953BA0056C5124E88EF20E0F9FF
:0153C30022C7
:105289007F327E001256C59007C8E0FBA3E0FAA35F
:10529900E0F91208FFEF2401FFE43EFEE43DFDE4DE
:0552A9003CFC12094F5E
:1052AE007B06C2C1E49006EFF0A3F0C2C31256C152
:1052BE00EB30E704D2C28002C2C21256B8EB25E030
:1052CE00FB9006F0E004F070069006EFE004F0C3E9
:1052DE009006F0E094089006EFE06480948040CB56
:0C52EE00D2C11256C1124E88EF20E0F928
:0152FA002291
:0748DF00E09006F4F07F02F7
:0248E600AB071E
:1048E800C2C11256C1E49006F5F0A3F0C2C3125635
:1048F800C1EB30E704D2C28002C2C21256B8EB251F
:10490800E0FB9006F6E004F070069006F5E004F08F
:10491800C39006F6E094089006F5E0648094804021
:10492800CBE49006F5F0A3F0C2C31256C19006F08E
:10493800A3E0FDA3A3E4FFFEED5480FDE4FCFBFA35
:104948007980F8C31208DB7004D2C28002C2C21296
:1049580056B89006F0E0FCA3E0FDA3E0FEA3E0FF5C
:1049680078011208EC9006F01209E59006F6E004CA
:10497800F070069006F5E004F0C39006F6E094188F
:104988009006F5E064809480409EE49006F5F0A3DC
:10499800F0C2C31256C19006F4E030E704D2C280D8
:1049A80002C2C21256B89006F4E025E0F09006F66E
:1049B800E004F070069006F5E004F0C39006F6E017
:1049C80094089006F5E06480948040C5D2C11256E0
:0849D800C1124E88EF20E0F946
:0149E00022B4
:0247CF00AB0736
:1047D100E49007DBF0C2C17F05FE1256C5E4A3F0E9
:1047E100A3F0C2C31256C1EB30E704D2C28002C2A9
:1047F100C21256B8EB25E0FB9007DDE004F070062D
:104801009007DCE004F0C39007DDE094089007DC3A
:10481100E06480948040CBE49007DCF0A3F0C2C355
:104821001256C19007D7A3E0FDA3A3E4FFFEED5408
:1048310080FDE4FCFBFA7980F8C31208DB7004D236
:10484100C28002C2C21256B89007D7E0FCA3E0FDB5
:10485100A3E0FEA3E0FF78011208EC9007D712094C
:10486100E59007DDE004F070069007DCE004F0C39A
:104871009007DDE094189007DCE064809480409E0E
:104881007F0A7E001256C5D2C47F027E001256C531
:10489100E49007DCF0A3F09007DBE025E0F012568E
:1048A100BFC2C31256C130C404E04401F09007DD19
:1048B100E004F070069007DCE004F0C39007DDE04F
:1048C10094089007DCE06480948040CBD2C11256FA
:0D48D100C1124E88EF20E0F99007DBE0FFF8
:0148DE0022B7
:104E8800E4FB9006F7F0A3F0A3F07905C2C17F0513
:104E9800FE1256C5E49006F8F0A3F0C2C31256C13C
:104EA800E930E704D2C28002C2C21256B8E925E04E
:104EB800F99006F9E004F070069006F8E004F0C3F3
:104EC8009006F9E094089006F8E06480948040CB5E
:104ED8007F0A7E001256C5D2C47F027E001256C5D4
:104EE800E49006F8F0A3F0EB25E0FB1256BFC2C32E
:104EF8001256C130C404EB4401FB9006F9E004F0FB
:104F080070069006F8E004F0C39006F9E094089063
:104F180006F8E06480948040CED2C11256C1AF0337
:014F28002266
:103FB8001252AE9007C8E0FBA3E0FAA3E0F912089A
:103FC800FF9006F01209E59007BD1248DF9007C878
:103FD800E0FBA3E0FAA3E0F91208FFEF2401FFE4F5
:103FE8003EFEE43DFDE43CFC12094F7F327E0012A8
:103FF80056C51252AE9007C8E0FBA3E0FAA3E0F959
:104008001208FF9006F01209E59007BE1248DF1269
:1040180052899007C8E0FBA3E0FAA3E0F91208FF71
:104028009006F01209E59007BF1248DF12528990F6
:1040380007C8E0FBA3E0FAA3E0F91208FF9006F036
:104048001209E59007C01248DF1252899007C8E0AC
:10405800FBA3E0FAA3E0F91208FF9006F01209E5C5
:104068009007C11248DF1252899007C8E0FBA3E00D
:10407800FAA3E0F91208FF9006F01209E59007C2CA
:104088001248DF1252899007C8E0FBA3E0FAA3E0C8
:10409800F91208FF9006F01209E59007C31248DFED
:1040A8001252899007C8E0FBA3E0FAA3E0F91208CE
:1040B800FF9006F01209E59007C41248DF125289F2
:1040C8009007C8E0FBA3E0FAA3E0F91208FF900606
:1040D800F01209E59007C51248DF1252899007C807
:1040E800E0FBA3E0FAA3E0F91208FF9006F012093A
:1040F800E59007C61248DF1252899007C8E0FBA373
:10410800E0FAA3E0F91208FF9006F01209E590071B
:10411800C71248DF7F327E001256C59007C8E0FB01
:10412800A3E0FAA3E0F91208FFEF2401FFE43EFE42
:09413800E43DFDE43CFC02094FEA
:10562E00D296C294C2957F0A7E001257D6D296D2D7
:10563E0094D2957F0A7E001257D6C2967F0A7E00BC
:10564E001257D6C294C2957F0A7E001257D6D295B3
:01565E002229
:0D5A020053B2FB43B104C288D2A8D2AF2238
:10541D0041542B43495053544152543D225443500F
:10542D00222C223139322E3136382E31312E323076
:10543D0033222C383038300D0A0041542B4349505B
:10544D0053454E443D31360D0A0048656C6C6F2056
:0B545D0066726F6D204553500D0A0071
:1059B700759850438E9575D7D875D6FFD2ACD2AFB0
:0159C70022BD
:1055FB009006F2EBF0A3EAF0A3E9F09006F2E0FBE1
:10560B00A3E0FAA3E0F912071C60179006F2A3E4DB
:10561B0075F001120811A9F0FA12071CFF125A516A
:03562B0080D92201
:065A6900EFC4540FFF2200
:05000600EF540FFF2282
:015A70002213
:05001E00EF2430FF2279
:10590100124AD6EF75F00A84FEEF75F00A84AFF003
:06591100EEC454F04FFF4C
:01591700226D
:095A5A007BFF7A54791D0255FB13
:1057F4009006EFEBF0A3EAF0A3E9F07BFF7A54798B
:10580400471255FB7FE87E031258797BFF7A54795F
:04581400570255FBE7
:030000000250FCAF
:0C50FC00787FE4F6D8FD75812202514354
:100026000203F8E86480F8E933E83360110460F00D
:10003600ED33EC337009E8FCE9FDEAFEEBFF220440
:1000460060DED3EB9FEA9EE99DE8C2E78CF0C2F73B
:1000560095F0400CE8CCF8E9CDF9EACEFAEBCFFB07
:100066001203C385D0F05804700320D5B3E804709A
:10007600075002B2D502040292D5EC0460F7E4CC34
:10008600C0E0C398F8603B94186008400DD0E0FBD0
:100096000203DAE4FBFAC9FC8028E830E406E4C986
:1000A600FBE4CAFCE830E305E4C9CACBFCE8540724
:1000B6006010F8C3E913F9EA13FAEB13FBEC13FC2F
:1000C600D8F130F52FC3E49CFCEF9BFFEE9AFEEDD2
:1000D60099FDD0E0FBEF4E4D4C701222DB0302037C
:1000E600FFEC2CFCEF33FFEE33FEED33FDED30E796
:1000F600EB0203DAEF2BFFEE3AFEED39FDD0E0FB23
:1001060050130BBB0003020402ED13FDEE13FEEFCA
:0801160013FFEC13FC0203DAF5
:10011E00EC4D6011E8497017ED33EC3304600DE4DB
:10012E00FCFFFEFD22E933E8330470F80203F812F7
:10013E0003C358046009E4CC2481500628500902F8
:10014E0004022840030203FFC0E0EB4A7044B9806A
:10015E0006D0E0FB0203EEEF4E701CBD8008EBFFF5
:10016E00EAFEE9FD80EBE98DF0A4FEE5F002020760
:10017E00E9CDF9EAFEEBFFEF89F0A4FCE5F0CE89BC
:10018E00F0A42EFFE435F0CD89F0A42DFEE435F079
:10019E008067EF4E7005BD80D780C3EF8BF0A4ACA7
:1001AE00F0EE8BF0A42CFCE435F0F8EF8AF0A42CE2
:1001BE00E5F038FCE433CB8DF0A42CFCE5F03BF8F5
:1001CE00EE8AF0A42CFCE5F038F8E433CF89F0A4E5
:1001DE002CFCE5F038CF3400CE89F0A42FFFE5F0EB
:1001EE003EFEE433C98DF0A42EFEE5F039CD8AF043
:1001FE00A42FFFE5F03EFEE43DFD33D0E0FB5007BB
:10020E000BBB000F020402EC2CFCEF33FFEE33FEAF
:06021E00ED33FD0203DADE
:10022400020402EC5D046005E8590470030203F85B
:100234001203C3580460F6EC4860F2EC7004FDFE4F
:10024400FF22C860DB2481C85009C39860025006AD
:100254000203FF9850CAF582E9294B4A7005AB8224
:100264000203EE75F0007C1A7880C3EF9BEE9AEDE2
:1002740099400DC3EF9BFFEE9AFEED99FDE842F025
:10028400DC23ACF0D0E0FFD0E0FED0E0FDAB822078
:10029400E7101BEB60BAEC2CFCEF33FFEE33FEED02
:1002A40033FD0203DAE803F830E705C0F075F00027
:1002B400EF2FFFEE33FEED33FD40B830E7C280AAE6
:1002C40074F8CC6480CCC86480C8F58204604FC3E1
:1002D400EB9FF5F0EA9E42F0E99D42F0E89C45F080
:1002E400603C501DE5825FFFE582D313CB5BCBF40A
:1002F4002B5582FB50280ABA002409B90020088033
:100304001DE5825BFBE582D313CF5FCFF4C3132FCC
:100314005582FF50090EBE00050DBD00010CC3EB54
:100324009FF5F0EA9E42F0E99D42F0E89C45F060BA
:0903340007CC4820E701B3EC22DC
:10033D00ED33EC33600A047003BD8004ECB2E7FCCE
:01034D00228D
:10034E0075F020800E75F010800575F0087D007E2A
:10035E00007F003392D530D5031208CDEC33401018
:10036E00EF33FFEE33FEED33FDEC33FCD5F0ED2233
:0E037E00E5F0247EA2D513CC92E7CDCEFF226F
:10038C00EDD2E7CD33EC3392D524814006E4FFFE69
:10039C00FDFC22FCE4CFCECDCC24E0501174FF80C8
:1003AC00EDC3CC13CCCD13CDCE13CECF13CF047065
:0703BC00F030D5DE0208CD90
:102C6300E5082401F582E43407F583E005082290A2
:102C730006FE300703900701E475F001120A4802CB
:102C8300071C2000E97F2ED2008018EF540F2490F8
:102C9300D43440D4FF30040BEF24BFB41A005003E4
:102CA3002461FFE50960021509050CE50C700205B6
:102CB3000B30070E9006FEE475F001120A48EF028E
:102CC30007620257847403D2078003E4C207F5083E
:102CD3009006FE120A5FE4F509F50BF50CE50960B1
:102CE300077F20122CA680F5750AFFC201C200C21D
:102CF30002C203C205C206C208122C72FF700D3055
:102D030007057F00122CB7AF0CAE0B22B4255FC2B0
:102D1300D5C204122C72FF24D0B40A00501A75F0E5
:102D23000A780930D50508B6FF0106C6A426F620A1
:102D3300D5047002D20380D924CFB41A00EF500413
:102D4300C2E5D204022FA9D20180C6D20080C0D22C
:102D53000280BCD2D580BAD20580B47F20122CA6C3
:102D63002002077401B5090040F1122C63FF122CF5
:102D7300A6022CE0D208D2068095122C63FB122CFB
:102D830063FA122C63F94A4B700679A77A307BFFFA
:102D930020022EE509602A7E008E827583001207C9
:102DA3003560060EEE650A70F0C2D5EBC0E0EAC0EE
:102DB300E0E9C0E0EE12300AD0E0F9D0E0FAD0E06A
:102DC300FB12071CFF60AAEBC0E0EAC0E0E9C0E029
:102DD300122CA6D0E02401F9D0E03400FAD0E0FBB5
:102DE300E50A0460DCD50AD98087D20280A2122FBB
:102DF300EC60F7E50A700104120427A90A600DE5E7
:102E03000A600914F50A123094EF60F3EA30E7021E
:102E1300F404C3995079EAF4250A0430E701E40481
:102E2300F50A800D122FEC60C1EA050A250A120487
:102E330027EA90072DF030E701E4250A04D50A04B8
:102E43002005011412300AE4C0E012309490072DDB
:102E5300E0601320E70714F0122C8E802204F0D0D8
:102E6300E014C0E07F00122C8EE50A6007122C8567
:102E7300150A800B300503122C85D0E0022CE0D01C
:102E8300E00480C4122FEC609EE50A04120427902C
:102E9300072DEAF0E50A200502600104240412303C
:012EA3000A24
:102EA40074FF04C0E0123094122C8EE50A2005024F
:102EB4006003122C85D0E0B50AE87F45122C989067
:102EC400072DE07F2B30E7047F2DF404C0E0122CA3
:102ED400A6D0E075F00A84C0F0122C8FD0E0122C3A
:102EE4008F022CE0791080027908C206C20880089B
:102EF400D2D5790A8004790AC2D5E50A047002F5AC
:102F04000AE4FAFDFEFF122C63FC7B082001131275
:102F14002C63FD7B1030000A122C63FE122C63FF1D
:102F24007B20EC3382D592D55013C3E43000069F46
:102F3400FFE49EFEE42001039DFDE49CFCE4CBF849
:102F4400C201EC700CCFCECDCCE824F8F870F3803D
:102F540017C3EF33FFEE33FEED33FDEC33FCEB33FD
:102F6400FB994002FB0FD8E9EB300105F8D0E0C42F
:102F740048B201C0E00AEC4D4E4F78207B0070C28D
:102F8400EAB50A0040BCC0E012300CD0F0D0E0201A
:102F94000104C4C0E0C4B201C0F0122C8FD0F0D53B
:102FA400F0EB022CE0120A682D7D532EE8582D4ECA
:102FB4004C2D4A422EEC4F2EF4442EF4492D6343FB
:102FC4002EFA552E27462E87452DF14730C7502D12
:102FD400522D2D562E2D792B2D5A232D772030B09E
:102FE4002A2D124800002D71E50AB4FF03750A0664
:102FF400122C63FC122C63FD122C63FE122C63FF53
:10300400900726020464790AA2D520031430050926
:10301400B910020404B9080104A2D5200602500123
:10302400042002689202B509005034C0E07F2030C9
:1030340003197F30A20272067205500F123063C268
:1030440002C206C205C2087F30800F300503E9C002
:10305400E0122CA6300503D0E0F9D0E0B509CC305D
:1030640005177F30B9100C122CA67F583004077F47
:10307400788003B90803122CA63002057F2D022C98
:10308400A67F202008F87F2B2006F322920280CF0F
:103094007F00B40700500B2426F582E43407F5833F
:1030A400E0FF22286E756C6C2900D201122C63306B
:1030B40001F8C201780930D50108F6022D122D500D
:1030C400434958122C632403B405004001E49030B2
:1030D400C293122C97743A122C97D20375090402E6
:0230E4002EE8D4
:0D5A0F00ED33EC3360065004EC6480FC22A3
:104F29009007DE1209E59007E2E0F8A3E0F9A3E0B3
:104F3900FAA3E0FB9007DEE0FCA3E0FDA3E0FEA3FB
:104F4900E0FF1202271246CD9007DE1209E590070D
:104F5900E2E030E7599007DEE0FCA3E0FDA3E0FEC4
:104F6900A3E0FFECC0E0EDC0E0EEC0E0EFC0E0E49C
:104F7900FFFEFDFC9007DEE0F8A3E0F9A3E0FAA349
:104F8900E0FB1202C47BDB600250087A0F79497892
:104F99004080067A0F794978C0D0E0FFD0E0FED092
:104FA900E0FDD0E0FC12002D9007DE1209E5900724
:0D4FB900DEE0FCA3E0FDA3E0FEA3E0FF228C
:104141003A70FA83BCAAE9E43E81E0F8BF9DE9E652
:104151003F80000039283C1ABB9969663DA335E3CD
:10416100BF255DE73FC90FDB418DDBCCC44936EE8E
:1041710045C9913FC5B0F83D3F800000C317F534F4
:10418100452FFA73C60AFDDD12424A04A2E1920FDD
:104191001420E015904141740412056980301242E7
:1041A1004A30E102B20F20E0EBA883A98290080215
:1041B1001209E58982888390415574041205698545
:1041C10082F09008021209A985F08212011EED4CBD
:1041D1006007300F04EC6480FC2212424AC0E0A860
:1041E10083A9829008021209E58982888390417926
:1041F10074031205698582F09008021209A985F0FD
:104201008212011E900802E0CCF0A3E0CDF0A3E001
:10421100CEF0A3E0CFF09041697403120569D0821A
:104221008582F09008021209A985F082E58230E0CA
:1042310007120227B20F8096EFCBFFEECAFEEDC93F
:10424100FDECC8FC1202278085ED33EC547FCC33A2
:10425100920F24605007D0E0D0E00203F87B837A0C
:10426100F97922783E12011EEDF933ECF8332481FD
:104271005011EFFBEEFA12038C12034EECB2E7FC85
:1042810012002DED33EC33602F2403F8C313FCED42
:1042910092E7FDE82481E4501FECF8EDF9EEFAEF26
:1042A100FB12038CEF04C2E0FCF582120358ECB25E
:1042B100E7FC12002DE58203FAED33EC33600714BD
:0842C10013FCED92E7FDEA2277
:1054B200ECC0E0F8EDC0E0F9EEC0E0FAEFC0E0FBCE
:1054C20012011EEC6480FC7B007A007980783F1226
:1054D200002D124DE0D0E0FBD0E0FAD0E0F9D0E0B0
:1054E200F8C0E01202271246CDD0E030E70B784038
:0A54F20079497A0F7BD912002D22B0
:1055C000ECC0E0F8EDC0E0F9EEC0E0FAEFC0E0FBBF
:1055D00012011EEC6480FC7B007A007980783F1217
:1055E000002D124DE0D0E0CFFBD0E0CEFAD0E0CDE0
:0B55F000F9D0E0CCF81202270246CDF3
:1042C9009006B31209E5E4FFFE7D807C3F9006B3BA
:1042D900E0F8A3E0F9A3E0FAA3E0FB1202C4700638
:1042E9009006B30244239006B3E0FCA3E0FDA3E0EB
:1042F900FEA3E0FF12040DFBA3E0FCA3E0FDA3E095
:10430900FEA3E0FF12040DFFB40108E4FFFE7D8067
:104319007C3F22EF64046029EB64046024EBB40160
:1043290030E4FFFEFDFC9006B7E0F8A3E0F9A3E056
:10433900FAA3E0FB1202C460084006E4FFFEFDFC9C
:10434900229006B71209F1FFFFFFFF9006B702445A
:1043590023E49006BBF0A3F0FFFEFDFC9006B3E05A
:10436900F8A3E0F9A3E0FAA3E0FB1202C4505F90BE
:1043790006B7E0FCA3E0FDA3E0FEA3E0FF12038C77
:104389009006BBEEF0A3EFF0FDCCEECCEC1203539C
:10439900C8ECC8C9EDC9CAEECACBEFCB9006B7E0E5
:1043A900FCA3E0FDA3E0FEA3E0FF120029E4FBFA71
:1043B900F9F81202C4708A9006B3E0FCA3E0FDA3E9
:1043C900E0FEA3E0FF12033D9006B31209E5900653
:1043D900B3E0FCA3E0FDA3E0FEA3E0FF1245B89023
:1043E90006B7E0F8A3E0F9A3E0FAA3E0FB12011E87
:1043F90012509A9006B71209E59006BCE030E01712
:104409009006B7E0FCA3E0FDA3E0FEA3E0FF1203E2
:104419003D9006B71209E59006B7E0FCA3E0FDA3BD
:06442900E0FEA3E0FF220B
:1003C300E9D2E7C933E833F892D5EDD2E7CD33EC80
:0703D30033FC5002B2D522F9
:1003DA00EC30E7100FBF000C0EBE00080DBD000484
:1003EA000BEB6014A2D5EB13FCED92E7FD2274FF30
:1003FA00FCFDFEFF22E480F8A2D574FF13FC7D8089
:03040A00E480EF9C
:10040D00ED33EC33601004700FED547F7005740202
:0A041D0092E0227404220422E4227B
:10042700F920E73624F950037907E4F42402FBE5C1
:1004370082158270021583DBF6E024FB501BE9600E
:1004470014E4F0E582158270021583E004F0B40A23
:0D04570008E4F0D9EE7401F00A22C2D522AB
:10046400ED33EC3392D5FA602AB4FF33EDC2E77B67
:10047400FF60067A047989E4227A04799220D5040B
:100484007A04798D224E614E002B494E46002D4947
:100494004E4600E47A08F0A3DAFC7B00740722C01D
:1004A40083C082ECC0E0EDC0E0EEC0E0EFC0E0EA63
:1004B40075F010A4CAABF075F04DA42BFBE435F035
:1004C400FCEA2410FAEB34C5FBEC34D9FCEDC2E7AA
:1004D400FF75F056A4F42411C5F0F434C58FF0A4CC
:1004E4002AE5F03BE43CF020E7141205E6D0E0FFF7
:1004F400D0E0FED0E0FDD0E0FC1202278014F4042A
:100504001205E6D0E0FFD0E0FED0E0FDD0E0FC1222
:10051400011ED082D083E0FAEDD2E7CD33EC332450
:1005240082FBE4C3CF33CFCE33CECD33CD33DBF335
:100534007B0775F00A846004F0A31B0AE5F0F0A3BE
:100544008FF0740AA4FFACF08EF0740AA42CFEACF5
:10055400F050010C8DF0740AA42CFDE435F0F0A3E6
:05056400DBDE7407223C
:10056900C0E0EFFBEEFAEDF9ECF812011ED0E0F570
:10057900F0EFFBEEFAEDF9ECF8120999A3A3A3A3A6
:10058900E8C0E0E9C0E0EAC0E0EBC0E0C0F0120179
:100599001E1209B5A3A3A3A312002DD0F0D0E0FB2E
:0D05A900D0E0FAD0E0F9D0E0F8D5F0D4228F
:1050620033DA929E35B16011377FE5FE39218489AA
:105072003AAEC3FF3C1D955B3D6358473E75FDF05C
:105082003F3172183F800000C2D50204020203F8C9
:10509200BD80FA50F30203FFED33EC330460F17B81
:1050A2003B7AAA79B8783F12011EED33EC3392D5E0
:1050B200247B5011A2D570DB500BED4480240450A8
:1050C20004A2D580CEEFFBEEFAEDF9ECF812038CD8
:1050D200EFF582F404FC12035812002DC0829050A6
:1050E200627409120578ED33CC33D0F092D525F0F5
:0A50F200A2D57001C313CC13FD22F8
:104584003E9248DA3ECCCCCD3F2AAAAB4000000094
:104594003F8000003F9837F03FB504F33FD744FC19
:1045A4003E3172173EB172173F0515913EDE5BD95D
:1045B400D2118002C211EDD2E7F8CD33EC3304708E
:1045C4000BBD800592D50204020203F840FBD3140C
:1045D40060F2F5F07C3FEE7A00C39496C8948B4069
:1045E400230AC89469C8941A401A0AC89468C894DB
:1045F4001F40110AC8945AC89425400805F07A004F
:10460400CDC2E7CDC0F09006BD1209E5EA2323C070
:10461400E02494F582E43445F5831209B512002DA3
:10462400ECC0E0EDC0E0EEC0E0EFC0E0120999900C
:1046340006BD1209A9120029D0E0FBD0E0FAD0E0AF
:10464400F9D0E0B2E7F81202279006BD1209E5900E
:10465400458474031205699006BD1209A912011E4E
:10466400D0E0600F24A0F582E43445F5831209B547
:1046740012002D9006BD1209E5D0E0C3947FFDE43D
:104684009400FC1203537B187A727931783F12013B
:104694001E9006BD1209A912002D30110B7BD97A88
:0946A4005B79DE783E12011E2252
:104DDC000203F822EDA2E7D2E7F9EC3340F260F3DC
:104DEC00B4FF08ED547F70E8020402F82481C2E09D
:104DFC00C0E0F40428FAC313FCED92E7FD9008061A
:104E0C001209E5EEA2E7E9BA7F02C313340094005D
:104E1C00FA75F091A4E5F013F494FE8AF0A433E54E
:104E2C00F033248CD313FDE492E7FE7F007C3F75B6
:104E3C008302ECC0E0F8EDC0E0F9EEC0E0FAEFC0A0
:104E4C00E0FB8583F090080612098D85F083120231
:104E5C0027D0E0FBD0E0FAD0E0F9D0E0F812002D3A
:104E6C00ED6480FD30E7011CD583C7ED33CC33F8FE
:0C4E7C00D0E0A2E71328C313CC13FD22E2
:1046AD00BE1249253E4CCCCDBEAAAAAB3F80000020
:1046BD003E7ADBB03EED63383F24BC7D3F490FDBD6
:1046CD00ED33ECC2E7CC339209B4FF13ED547F60A8
:1046DD00030203F87FDB7E0F7DC97C3F0247C2C218
:1046ED000AC3947F401E7007EDD2E794904015EFFA
:1046FD00FBEEFAEDF9ECF87F007E007D807C3F1239
:10470D000227D20AED33EC33248430E705E4C0E010
:10471D00806B04FAEDD2E754F0C333DAFD5407345D
:10472D00002323C0E0CCC0E0F8EDC0E0F9EEC0E01E
:10473D00FAEFC0E0FBE4120358EC24FEFC90080AEB
:10474D001209E512011E7B007A007980783F120074
:10475D002D90080AE0B2E7CCF0A3E0CDF0A3E0CEB7
:10476D00F0A3E0CFF0D0E0FBD0E0FAD0E0F9D0E05C
:10477D00F812002D90080A1209A912022790080AB2
:10478D001209E59046AD740312056990080A1209E5
:10479D00A912011ED0E0600F24B9F582E43446F56C
:1047AD00831209B512002D300A0B7BDB7A0F79C904
:1047BD0078BF12002DED33EC336006ECA20992E7C1
:0247CD00FC22CC
:1005B6003F8000004120000042C80000447A00004D
:1005C600461C400047C35000497424004B189680CF
:1005D6004CBEBC205A0E1BCA6753C21C749DC5AEC6
:1005E600FB60065407601C2323120614EB54386084
:1005F6000912060012060F12011EECF8EDF9EEFACA
:10060600EFCB22EB12060F80F1543803241C900521
:10061600B6FE93FC0EEE93FD0EEE930ECE93FF22E6
:10510800021A84E493A3F8E493A34003F68001F21F
:1051180008DFF48029E493A3F85407240CC8C333A8
:10512800C4540F4420C8834004F456800146F6DF77
:10513800E4800B01020408102040809030E6E47EF1
:10514800019360BCA3FF543F30E509541FFEE4936C
:10515800A360010ECF54C025E060A840B8E493A333
:10516800FAE493A3F8E493A3C8C582C8CAC583CA5E
:10517800F0A3C8C582C8CAC583CADFE9DEE780BE16
:013557000073
:10062600E709F608DFFA8046E709F208DFFA803EB6
:1006360088828C83E709F0A3DFFA8032E309F608A3
:10064600DFFA8078E309F208DFFA807088828C830B
:10065600E309F0A3DFFA806489828A83E0A3F608BF
:10066600DFFA805889828A83E0A3F208DFFA804C99
:1006760080D280FA80C680D4806980F28033801070
:1006860080A680EA809A80A880DA80E280CA8033D9
:1006960089828A83ECFAE493A3C8C582C8CCC58351
:1006A600CCF0A3C8C582C8CCC583CCDFE9DEE78021
:1006B6000D89828A83E493A3F608DFF9ECFAA9F0A0
:1006C600EDFB2289828A83ECFAE0A3C8C582C8CCF6
:1006D600C583CCF0A3C8C582C8CCC583CCDFEADE0F
:1006E600E880DB89828A83E493A3F208DFF980CC71
:1006F60088F0EF60010E4E60C388F0ED2402B4046A
:100706000050B9F582EB2402B4040050AF23234510
:06071600822390067673B9
:10071C00BB010689828A83E0225002E722BBFE02DB
:09072C00E32289828A83E493220E
:10073500BB010CE58229F582E5833AF583E0225079
:1007450006E92582F8E622BBFE06E92582F8E222C3
:0D075500E58229F582E5833AF583E49322DD
:10076200BB010689828A83F0225002F722BBFE0176
:02077200F32270
:10077400EF8DF0A4A8F0CF8CF0A428CE8DF0A42E99
:02078400FE2253
:10078600BC000BBE0029EF8DF084FFADF022E4CC57
:10079600F875F008EF2FFFEE33FEEC33FCEE9DEC20
:1007A600984005FCEE9DFE0FD5F0E9E4CEFD22ED66
:1007B600F8F5F0EE8420D21CFEADF075F008EF2FB0
:1007C600FFED33FD4007985006D5F0F222C398FDA1
:0507D6000FD5F0EA223E
:1007DB00C2D5EC30E709B2D5E4C39DFDE49CFCEE39
:1007EB0030E715B2D5E4C39FFFE49EFE120786C324
:1007FB00E49DFDE49CFC800312078630D507C3E41F
:06080B009FFFE49EFE22A7
:10081100A3F8E0C5F025F0F0E5821582700215839A
:06082100E0C838F0E822F7
:10082700BB0110E58229F582E5833AF583E0F5F00F
:10083700A3E0225009E92582F886F008E622BBFEEC
:100847000AE92582F8E2F5F008E222E5832AF58332
:08085700E993F5F0A3E99322F7
:10085F00BB010A89828A83F0E5F0A3F0225006F7E4
:0F086F0009A7F01922BBFE06F3E5F009F31922E1
:10087E00E88FF0A4CC8BF0A42CFCE98EF0A42CFC19
:10088E008AF0EDA42CFCEA8EF0A4CDA8F08BF0A497
:10089E002DCC3825F0FDE98FF0A42CCD35F0FCEBF6
:1008AE008EF0A4FEA9F0EB8FF0A4CFC5F02ECD39BB
:0F08BE00FEE43CFCEAA42DCE35F0FDE43CFC2228
:1054FC00C2D5E830E70FB2D5E4C39BFBE49AFAE4DB
:10550C0099F9E498F8EC30E717B2D5125532120A33
:10551C00E0E4C39BFBE49AFAE499F9E498F880037D
:10552C00120AE030D50DE4C39FFFE49EFEE49DFD1E
:04553C00E49CFC22CD
:0E08CD00C3E49FFFE49EFEE49DFDE49CFC223C
:1008DB00EB9FF5F0EA9E42F0E99D42F0E89C45F073
:0108EB0022EA
:1008EC00E8600FEFC333FFEE33FEED33FDEC33FC6A
:0308FC00D8F1220E
:1008FF00BB010789828A8302098D5005E9F8020B33
:10090F0072BBFE05E9F8020B7E89828A8302099980
:10091F00BB010DE58229F582E5833AF58302098D46
:10092F005007E92582F8020B72BBFE07E92582F812
:10093F00020B7EE58229F582E5833AF58302099958
:10094F00BB010789828A830209E55005E9F8020B8A
:0A095F00A4BBFE05E9F8020BB0226C
:10096900BB010DE58229F582E5833AF5830209E5A4
:100979005007E92582F8020BA4BBFE07E92582F896
:04098900020BB0228B
:0C098D00E0FCA3E0FDA3E0FEA3E0FF22DD
:10099900E493FC740193FD740293FE740393FF22A4
:0C09A900E0F8A3E0F9A3E0FAA3E0FB22D1
:1009B500E493F8740193F9740293FA740393FB2298
:1009C500BB010789828A830209A95005E9F8020B50
:1009D5008ABBFE05E9F8020B9789828A830209B56D
:0C09E500ECF0A3EDF0A3EEF0A3EFF02285
:1009F100A8828583F0D083D082120A08120A0812D5
:100A01000A08120A08E473E493A3C583C5F0C583F9
:100A1100C8C582C8F0A3C583C5F0C583C8C582C84F
:010A210022B2
:100A2200BB010789828A830209F15005E9F8020BAA
:0A0A3200BCBBFE05E9F8020BD5225B
:0C0A3C00A42582F582E5F03583F58322C5
:100A4800F8E0FBA3A3E0F925F0F0E5821582700237
:070A58001583E0FA38F022DB
:090A5F00EBF0A3EAF0A3E9F02298
:100A6800D083D082F8E4937012740193700DA3A31D
:100A780093F8740193F5828883E473740293686031
:060A8800EFA3A3A380DF31
:10578400EFB40A07740D12578F740A309811A89950
:10579400B8130CC2983098FDA899C298B811F63085
:0757A40099FDC299F599225D
:0C5A2800EE30E707C3E49FFFE49EFE227F
:104AD6009007F1EBF0A3EAF0A3E9F09007F1E0FB11
:104AE600A3E0FAA3E0F912071CFF125981500C90BB
:104AF60007F2E475F001120A8E80E0D2109007F1F9
:104B0600E0FBA3E0FAA3E0F912071CFF642B6004A4
:104B1600EFB42D1D9007F1E0FBA3E475F001120838
:104B260011A9F0FA12071C642D6003D38001C39209
:104B360010E49007F4F0A3F09007F1E0FBA3E0FA8D
:104B4600A3E0F912071CFF1259E650429007F1E064
:104B5600FBA3E0FAA3E0F912071CFF3395E0FEEF92
:104B660024D0FBEE34FFFA9007F4E0FEA3E0FF7CCE
:104B7600007D0A120774EF2BFFEE3A9007F4F0A3BC
:104B8600EFF09007F2E475F001120A8E80AA301059
:104B96000A9007F4E0FEA3E0FF800F9007F4E0FE22
:0B4BA600A3E0FFC3E49FFFE49EFE229B
:100A8E00C5F0F8A3E028F0C5F0F8E58215827002F3
