:106D1D003132330041542B43495053544152543D69
:106D2D0022544350222C223139322E3136382E3115
:106D3D00312E323033222C383038300D0A00252ECA
:106D4D0034660041542B43495053454E443D390D53
:106D5D000A00540D0A004A0D0A00570D0A004D0D88
:066D6D000A004C0D0A00B3
:104A3E00420610000042060A00004206140000441E
:104A4E00057568686D6D4406170000000044062861
:104A5E00000000004105791E44061B0000000042C4
:104A6E00062600004106340044062C0000000044D7
:104A7E0005AD0000000044060500000000420519C7
:094A8E00000044051D68686D6D0F
:03000B000271403F
:10714000C0E0C083C082758A00758CB8900627E0C5
:1071500004F07006900626E004F0D082D083D0E0E0
:0171600032FC
:03001B00027370FD
:09737000B295758B00758DB832E1
:030003000262E1B5
:1062E100C0E0C0F0C083C082C0D075D000C000C083
:1062F10001C002C003C004C005C006C00720B20D22
:10630100758A00758CB8D28CD2A90263BBC28CACE1
:106311008CE41223C390062C122A509003C0122A37
:106321005C410000007F007E007D007C40125BC963
:1063310090062CE0F8A3E0F9A3E0FAA3E0FB122118
:1063410089C004C005C006C007AC8AE41223C3D0CB
:1063510003D002D001D000122098E4FBFA793878FA
:10636100C71220987BBC7A7479937841122292905B
:10637100062C122A5090062CE0F8A3E0F9A3E0FACB
:10638100A3E0FBC000C001C002C003900626E0FEEE
:10639100A3E0FF7C037DE81227DFAC06AD07E41222
:1063A10023BED003D002D001D00012209890062C39
:1063B100122A50900626E4F0A3F0D007D006D005AB
:1063C100D004D003D002D001D000D0D0D082D0836D
:0563D100D0F0D0E03225
:100026009003CA7401F0E4A3F0A3F0A3F0A3F0A335
:10003600F0A3F09003ECF0A3F09003F0122A5C001A
:1000460000000090064BE4F0A304F0E4900647F0AD
:10005600A3F0900645F0A3F090064DF0A3F0126CC5
:10006600C412731D1273441271F7126F8412732A2D
:1000760012726B438E80E4F58A758CB8F589F58B20
:10008600758DB8D28ED2ABD2AF7D067F09127211B2
:100096007F647E001271A17D05E4FF1272117F64F8
:1000A6007E001271A17F017E001272567F68126B6C
:1000B600147F68126B147F6D126B147F6D126B14B4
:1000C6007F23126B14E49003EEF0A3F09003EEE0AE
:1000D600FAA3E0FBAE027802C333CE33CED8F924BE
:1000E60021F58274053EF583122A5C00000000ADFE
:1000F60003AC02EC1223BEE4FBFAF978401222921A
:10010600E4FBFA79E07840122098C004C005C006E6
:10011600C0079003EEE0FAA3E0FBAE027802C33319
:10012600CE33CED8F924B1F58274053EF583D007D7
:10013600D006D005D004122A50EB25E0FFEA33FEA4
:1001460074832FF58274053EF583E4F0A3F09003E3
:10015600EFE004F070069003EEE004F09003EEE0AA
:100166007004A3E0641560030200D21272DF7F40C0
:100176007E1F1271A11273827FF47E011271A17B20
:10018600FF7A6D791D12711C124E587F08126E96F9
:100196007F06126E967F50126B147F53126B147F7C
:1001A6003A126B14900628E0FCA3E0FDA3E0FEA340
:1001B600E0FF125D2F7F6D126B147F6D126B147F43
:1001C600027E00127256900613E0FF1271BF7F3A4C
:1001D600126B14900616E0FF1271BF7F3A126B1471
:1001E600900635E0547FFF1271BF7F3B126B14906F
:1001F6000609E0FF1271BF900612E0FF1271BF7F81
:100206003B126B14900649E07002A3E060047F4144
:10021600800C900649E07002A3E070057F4D126BDA
:1002260014900647E07002A3E06064900649E0700F
:1002360002A3E0705A90064BE0FEA3E0FFEE4F24C7
:10024600FF92027F2A7E00126ED690064BE0700463
:10025600A3E064019006287015E0FCA3E0FDA3E08E
:10026600FEA3E0FF7BCD7ACC79CC783E8013E0FC10
:10027600A3E0FDA3E0FEA3E0FF7BCD7ACC79CC78AA
:10028600BE122098900628122A50E49003CAF090D5
:100296000645E07002A3E0606A900649E07002A39A
:1002A600E0706090064BE0FEA3E0FFEE4F24FF9265
:1002B600027F2A7E00126ED690064BE07004A3E001
:1002C60064019006287015E0FCA3E0FDA3E0FEA300
:1002D600E0FF7BCD7ACC79CC783E8013E0FCA3E0BE
:1002E600FDA3E0FEA3E0FF7BCD7ACC79CC78BE12ED
:1002F6002098900628122A50E49003CAF0900645EA
:10030600F0A3F030A3439003CAE0703DFFFEFDFC6E
:10031600900628E0F8A3E0F9A3E0FAA3E0FB122395
:100326002F60025024900628122A5C0000000090DC
:1003360003CA7401F0E4900647F0A3F0900645F076
:10034600A3F090064BF0A304F012735C900616E03F
:10035600900623F09004EC7401F0A37406F0A374E5
:1003660012F0A37401F0A37406F0A37413F0A3743F
:1003760001F0A37406F0A37416F0A37401F0A3743D
:1003860006F0A37435F07B017A067909126BFB90AF
:100396000616E0FF1271E6EF75F03284E5F0702D77
:1003A600900635E0547FFF1271E6EF70207BFF7AEE
:1003B6006D7921126F517F2C7E011271A17BFF7A1C
:1003C6006D791D12711C7F2C7E011271A190064958
:1003D600E07002A3E070030213A4900616E0FF1279
:1003E60071E6900579E0FEEF8EF084E5F060030299
:1003F6000D40900635E0547FFF1271E6EF60030270
:100406000D40900613E0FF1271E6EFD394104003FF
:10041600020D2A900613E0FF1271E6EFC39407500F
:1004260003020D2A900609E0FF900612E0FDA3E004
:10043600FB900616E09003FBF0900635E09003FC77
:10044600F01251E49003F4122A50900616E0FF12BF
:1004560071E6AC07E41223C3E4FBFA797078421222
:100466002292C004C005C006C007900613E0FF1222
:1004760071E6AC07E41223C3D003D002D001D0004A
:100486001220989004EF122A509004EC74FFF0A307
:10049600746DF0A3744BF07B017A05797A124620CD
:1004A6007BFF7A6D7950126F517F0A7E001271A11F
:1004B6007B017A05797A126F517BFF7A6D795F122B
:1004C6006F517F0A7E001271A1900616E0FF12712D
:1004D600E6AC07E41223C3E4FBFA797078421222F1
:1004E60092C004C005C006C007900613E0FF127153
:1004F600E6AC07E41223C3D003D002D001D0001229
:100506002098E4FBFA79E078C0122098E4FBFA79A7
:10051600707842122189C004C005C006C007900544
:1005260079E0FCE41223C3A804A905AA06AB07D008
:1005360007D006D005D0041222921223F790061097
:10054600EEF0A3EFF0E025E0FF900610E033FE7436
:10055600832FF58274053EF583E4F0A304F0D29769
:10056600C292900609E0FF900612E0FD900616E0A2
:100576009003FBF0900635E09003FCF0A37401F0C5
:10058600A37406F0A37428F0A37401F0A37403F017
:10059600A374CFF0A37401F0A37403F0A374F0F076
:1005A600A37401F0A37403F0A374CDF0A37401F057
:1005B600A37406F0A3741BF0900613E0FB125564B7
:1005C600C004C005C006C007900610E0FEA3E07890
:1005D60002C333CE33CED8F92421F58274053EF515
:1005E60083D007D006D005D004122A507F9A7E9970
:1005F6007D997C3F9005ADE0F8A3E0F9A3E0FAA36E
:10060600E0FB122189900605E0F8A3E0F9A3E0FAE1
:10061600A3E0FB12232F607D407B900616E090043A
:100626001FF0900635E0900420F0A37401F0A37447
:1006360006F0A37428F0A3122A5C000000009006BE
:1006460013E0FB900612E0FD900609E0FF123AEF78
:10065600900610E0FAA3E0FBAE027802C333CE3375
:10066600CED8F92421F58274053EF583122A5C0062
:10067600000000EB25E0FFEA33FE74832FF5827459
:10068600053EF583E4F0A3F0900617122A5C0000FD
:100696000000020AA0900611E0243FFF900610E039
:1006A6003400FE3395E0FDFC9003F9122A507F02D8
:1006B6001260CFEF64016003020870900630E0FE1E
:1006C600A3E0FF7C007D031227DFEE3395E0FDFCFF
:1006D6009003F9122A507F021260CFEF6401600383
:1006E600020798900630E0FEA3E0FF7C007D03122F
:1006F60027DFEF2402FFE43EFE3395E0FDFC900386
:10070600F9122A507F021260CFAC07E41223C3E429
:10071600FBFA79C87842122292C004C005C006C00E
:1007260007900630E0FEA3E0FF7C007D031227DF82
:10073600EF2401FFE43EFE3395E0FDFC9003F91241
:100746002A507F021260CFAC07E41223C3D003D035
:1007560002D001D000122098C004C005C006C00710
:10076600900610E0FEA3E07802C333CE33CED8F96C
:100776002421F58274053EF583E0FCA3E0FDA3E0A9
:10078600FEA3E0FFD003D002D001D00012209402D5
:10079600086A900630E0FEA3E0FF7C007D03122786
:1007A600DFEE3395E0FDFC9003F9122A507F02122A
:1007B60060CFEF6003020870900630E0FEA3E0FF12
:1007C6007C007D031227DFEF2401FFE43EFE339514
:1007D600E0FDFC9003F9122A507F021260CFAC07AD
:1007E600E41223C3C004C005C006C007900610E08B
:1007F600FEA3E07802C333CE33CED8F92421F582A6
:1008060074053EF583E0F8A3E0F9A3E0FAA3E0FB64
:10081600D007D006D005D004122098C004C005C069
:1008260006C007900630E0FEA3E0FF7C007D0312C1
:1008360027DFEF2402FFE43EFE3395E0FDFC900344
:10084600F9122A507F021260CFAC07E41223C3E4E8
:10085600FBFA79C87842122292D003D002D001D096
:1008660000122098900617122A507F327E00126FCF
:10087600ED126BAE900610E0FAA3E0FB243FFFE416
:100886003AFE3395E0FDFC900407122A50EB25E072
:10089600FFEA33FE74832FF58274053EF583A3E0E9
:1008A60090040BF07F021261E67F327E00126FED3C
:1008B600126BAE900610E0FEA3E07802C333CE338F
:1008C600CED8F92421F58274053EF583E0FCA3E039
:1008D600FDA3E0FEA3E0FFE4FBFAF9F812232F9054
:1008E60003CBE0FEA3E0FF7C007D64502C1227DFE3
:1008F600AA06AB07900610E0FEA3E0FF7D031227D1
:10090600DFEF2BFFEE3AFE3395E0FDFC9004071275
:100916002A5090040B740180291227DFAA06AB0720
:10092600900610E0FEA3E0FF7D031227DFEF2BFF0A
:10093600EE3AFE3395E0FDFC900407122A50E4904F
:10094600040BF07F021261E67F327E00126FED7FAC
:10095600327E00126FED126BAE900610E0FEA3E041
:100966007802C333CE33CED8F92421F58274053EFE
:10097600F583E0FCA3E0FDA3E0FEA3E0FF1223F76E
:1009860012735090040BEFF0900610E0FEA3E0FF08
:100996007C007D031227DFEF2401FBE43EFA90037F
:1009A600CBE0FEA3E0FF7D641227DFEF2BFFEE3ADC
:1009B600FE3395E0FDFC900407122A507F02126177
:1009C600E67F327E00126FED7F327E00126FED12EF
:1009D6006BAE900610E0FEA3E07802C333CE33CEB2
:1009E600D8F92421F58274053EF583E0FCA3E0FDE9
:1009F600A3E0FEA3E0FF127337C004C005C006C023
:100A060007900610E0FEA3E07802C333CE33CED8BB
:100A1600F92421F58274053EF583E0FCA3E0FDA3ED
:100A2600E0FEA3E0FF1223F7127350AC06AD07EC0D
:100A36001223BEA804A905AA06AB07D007D006D084
:100A460005D004122094E4FBFA79C8784212218971
:100A56001223F790040BEFF0900610E0FEA3E0FFE0
:100A66007C007D031227DFEF2402FBE43EFA9003AD
:100A7600CBE0FEA3E0FF7D641227DFEF2BFFEE3A0B
:100A8600FE3395E0FDFC900407122A507F021261A6
:100A9600E67F327E00126FED8000900609E090033B
:100AA600E1F0900612E09003E2F0900613E0900366
:100AB600E3F0900616E09003E4F09003CFE0FEA387
:100AC600E07802CEC313CE13D8F99003E5F0900672
:100AD60028E0FCA3E0FDA3E0FEA3E0FF1223F790CD
:100AE60003E6EFF0FCE41223C3A804A905AA06ABAB
:100AF60007900628E0FCA3E0FDA3E0FEA3E0FF12BA
:100B06002094E4FBFA79C878421221891223F790DF
:100B160003E7EFF0E4FBFA7980784090062CE0FCDE
:100B2600A3E0FDA3E0FEA3E0FF1222921223F790BA
:100B360003E8EFF09003CDE0FEA3E07802CEC31306
:100B4600CE13D8F99003E9F09003F0E0FCA3E0FDA2
:100B5600A3E0FEA3E0FF1223F79003EAEFF0FCE424
:100B66001223C3A804A905AA06AB079003F0E0FC6C
:100B7600A3E0FDA3E0FEA3E0FF122094E4FBFA79D4
:100B8600C878421221891223F79003EBEFF07F32E7
:100B96007E00126FED78F87C037D017B017A037984
:100BA600E17E007F0B1227619004037401F0A374A9
:100BB60006F0A3741BF01258B89004EC74FFF0A36F
:100BC600746DF0A3744BF09003F0E0FCA3E0FDA37A
:100BD600E0FEA3E0FF9004EF122A507B017A05792C
:100BE6007A1246207BFF7A6D7950126F517FC87E4C
:100BF600001270FE7B017A05797A126F517BFF7ABB
:100C06006D7963126F517F907E011270FE9004EC35
:100C160074FFF0A3746DF0A3744BF09003CFE0FC67
:100C2600A3E0FDE41223BEE4FBFA798078441222A5
:100C360092E4FBFA79A078401221899004EF122AF7
:100C4600507B017A05797A1246207BFF7A6D7950BE
:100C5600126F517FC87E001270FE7B017A05797A89
:100C6600126F517BFF7A6D7967126F517F907E010B
:100C76001270FE9004EC74FFF0A3746DF0A3744B35
:100C8600F0900628E0FCA3E0FDA3E0FEA3E0FF90C1
:100C960004EF122A507B017A05797A1246207BFFEF
:100CA6007A6D7950126F517FC87E001270FE7B01FB
:100CB6007A05797A126F517BFF7A6D796B126F51D3
:100CC6007F907E011270FE9004EC74FFF0A3746DA9
:100CD600F0A3744BF090062CE0FCA3E0FDA3E0FE2D
:100CE600A3E0FF9004EF122A507B017A05797A126D
:100CF60046207BFF7A6D7950126F517FC87E0012B5
:100D060070FE7B017A05797A126F517FC87E0012D8
:100D160070FE7BFF7A6D796F126F517FC87E00126D
:100D260070FE8016900613E0FF1271E6EFC3941171
:100D360040089003CBE4F0A304F09003CBE07002EC
:100D4600A3E06003020E71900616E0FF1271E690B2
:100D56000579E0FEEF8EF084E5F07003020E7190E7
:100D66000613E0FF1271E6EFD3941040030213A4BA
:100D7600900613E0FF1271E6EFC3940750030213C7
:100D8600A4900616E0FF1271E6AC07E41223C3E452
:100D9600FBFA79707842122292C004C005C006C0E0
:100DA60007900613E0FF1271E6AC07E41223C3D0E6
:100DB60003D002D001D000122098E4FBFA79E07843
:100DC600C0122098E4FBFA79707842122189C00497
:100DD600C005C006C007900579E0FCE41223C3A84D
:100DE60004A905AA06AB07D007D006D005D0041281
:100DF60022921223F7900610EEF0A3EFF0C297D2DC
:100E060092900616E090041FF0900635E0900420BC
:100E1600F0A37401F0A37406F0A37428F0900610F2
:100E2600E0FEA3E07802C333CE33CED8F92421F511
:100E36008274053EF583E0FCA3E0FDA3E0FEA3E09B
:100E4600FF900424122A50900613E0FB900612E04D
:100E5600FD900609E0FF123AEF900616E0FF9006B5
:100E660023E06F70030213A40211E79003CBE07036
:100E760004A3E0640160030213A4900616E0FF12C7
:100E860071E6900579E0FEEF8EF084E5F0700302DE
:100E960013A4900613E0FF1271E6EFD394104003FB
:100EA6000213A4900613E0FF1271E6EFC3940750F5
:100EB600030213A4900616E0FF1271E6AC07E412D3
:100EC60023C3E4FBFA79707842122292C004C0056B
:100ED600C006C007900613E0FF1271E6AC07E412E5
:100EE60023C3D003D002D001D000122098E4FBFA2D
:100EF60079E078C0122098E4FBFA797078421221E2
:100F060089C004C005C006C007900579E0FCE4125C
:100F160023C3A804A905AA06AB07D007D006D005A7
:100F2600D0041222921223F7900610EEF0A3EFF0EF
:100F3600900610E0FEA3E07802C333CE33CED8F994
:100F4600FBAA0624B1F58274053AF583E0FCA3E01A
:100F5600FDA3E0FEA3E0FF9003D1122A5074212BDB
:100F6600F58274053AF583E0FCA3E0FDA3E0FEA359
:100F7600E0FF9003D5122A50C297D292900610E055
:100F8600FAA3E0FB25E0FFEA33FE74832FF58274B3
:100F9600053EF583E0FEA3E064014E600302117591
:100FA600EBAE027802C333CE33CED8F924B5F58240
:100FB60074053EF583E0FCA3E0FDA3E0FEA3E0FF9D
:100FC6009003D9122A50EB2401FFE43AFE7C007DFF
:100FD600031227DFEE3395E0FDFC9003F9122A5049
:100FE6007F031260CFEF64019006107074E0FEA3D9
:100FF600E0FF7C007D031227DFEF2405FFE43EFEC1
:101006003395E0FDFC9003F9122A507F031260CF5E
:10101600AC07E41223C3E4FBFA79C87842122292A1
:10102600C004C005C006C007900610E0FEA3E0FF9E
:101036007C007D031227DFEF2404FFE43EFE339598
:10104600E0FDFC9003F9122A507F031260CFAC0733
:10105600E41223C3D003D002D001D000122098801E
:1010660075E0FEA3E0FF7C007D031227DFEF240579
:10107600FFE43EFE3395E0FDFC9003F9122A507F13
:10108600031260CFAC07E41223C3E4FBFA79C878F5
:1010960042122292C004C005C006C007900610E0A6
:1010A600FEA3E0FF7C007D031227DFEF2404FFE4AC
:1010B6003EFE3395E0FDFC9003F9122A507F0312A1
:1010C60060CFAC07E41223C3D003D002D001D00016
:1010D6001220981223A8900617E0F8A3E0F9A3E0DF
:1010E600FAA3E0FB1220989003DD122A507F017EBE
:1010F600001272569003DDE0FCA3E0FDA3E0FEA320
:10110600E0FF125D2F900616E0FF1271E6AC07E4D1
:101116001223C3E4FBFA79707842122292C004C00B
:1011260005C006C007900613E0FF1271E6AC07E49F
:101136001223C3D003D002D001D00012209890040D
:10114600AE122A50789E7C047D017B017A0379D108
:101156007E007F0812276178A67C047D017B017AD8
:101166000379D97E007F081227611264D4802F7B11
:10117600017A057983900610E0FCA3E0FD1270D396
:10118600EF7802C333CE33CED8F92421F582740525
:101196003EF583E0FCA3E0FDA3E0FEA3E0FF9004A0
:1011A60024122A50900609E0FF900612E0FD9006F0
:1011B60016E090041FF0900635E0900420F0A3742A
:1011C60001F0A37406F0A37428F0900613E0FB1256
:1011D6003AEF900616E0FF900623E06F70030213C5
:1011E600A41271E6AC07E41223C3E4FBFA79707823
:1011F60042122292C004C005C006C007900613E042
:10120600FF1271E6AC07E41223C3D003D002D0016B
:10121600D000122098C004C005C006C0079006354D
:10122600E0547FFF1271E6AC07E41223C3E4FBFA35
:1012360079617845122292D003D002D001D00012F3
:1012460020989004EF122A509004EC74FFF0A374D7
:101256006DF0A3744BF07B017A05797A1246207BF8
:10126600FF7A6D7950126F517FC87E001271A17B93
:10127600017A05797A126F517BFF7A6D795F126F69
:10128600517FC87E001270FE9004EC74FFF0A374C8
:101296006DF0A3744BF0900628E0FCA3E0FDA3E0FC
:1012A600FEA3E0FF9004EF122A507B017A05797ABB
:1012B6001246207BFF7A6D7950126F517FC87E00EF
:1012C6001270FE7B017A05797A126F517BFF7A6D77
:1012D600796B126F517FC87E001270FE9004EC7419
:1012E600FFF0A3746DF0A3744BF090062CE0FCA302
:1012F600E0FDA3E0FEA3E0FF9004EF122A507B017D
:101306007A05797A1246207BFF7A6D7950126F51F1
:101316007FC87E001270FE7B017A05797A126F51C2
:101326007FC87E001270FE7BFF7A6D796F126F5157
:101336007FC87E001270FEE4FF12700BAC06AD078C
:10134600E41223BEE4FBFA79807844122292E4FB8D
:10135600FA79A078401221899004EF122A5090045D
:10136600EC74FFF0A3746DF0A3744BF07B017A0567
:10137600797A1246207BFF7A6D7950126F517FC8B9
:101386007E001270FE7B017A05797A126F517BFF1F
:101396007A6D7967126F517FC87E001270FE9006D3
:1013A60013E0FF1271E6EFD394105013900613E08A
:1013B600FF1271E6EFC394074005D2CD02203B90A1
:1013C6000613E0FF1271E6EF64106003021FBE9081
:1013D6000616E0FF1271E6EF643A6003021FBE9044
:1013E6000635E0547FFF1271E6EF6003021FBEC2AE
:1013F600CD9003CBE07004A3E064016003021638CD
:10140600126BAE126C6A7F057E00126FEDE49006D9
:101416001FF0A3F090061FE0FEA3E0FFD39414EEA6
:10142600648094804003021638EF25E0FFEE33FE19
:1014360074832FF58274053EF583E0FEA3E0640114
:101446004E60030216277F32FE126FED126BAE90CE
:10145600061FE0FAA3E0FB243FFFE43AFE3395E0E3
:10146600FDFC900407122A50EB25E0FFEA33FE74D8
:10147600832FF58274053EF583A3E090040BF07F7D
:10148600021261E67F327E00126FED126BAE90069D
:101496001FE0FEA3E07802C333CE33CED8F9242171
:1014A600F58274053EF583E0FCA3E0FDA3E0FEA310
:1014B600E0FFE4FBFAF9F812232F90061FE0FEA3E3
:1014C600E0FF7C007D0350161227DFEE3395E0FD2A
:1014D600FC900407122A5090040B74018013122703
:1014E600DFEE3395E0FDFC900407122A50E49004E9
:1014F6000BF07F021261E67F327E00126FED7F32C3
:101506007E00126FED126BAE90061FE0FEA3E07830
:1015160002C333CE33CED8F92421F58274053EF5C5
:1015260083E0FCA3E0FDA3E0FEA3E0FF1223F71295
:10153600735090040BEFF090061FE0FEA3E0FF7CD3
:10154600007D031227DFEF2401FFE43EFE3395E022
:10155600FDFC900407122A507F021261E67F327E5C
:1015660000126FED7F327E00126FED126BAE9006A9
:101576001FE0FEA3E07802C333CE33CED8F9242190
:10158600F58274053EF583E0FCA3E0FDA3E0FEA32F
:10159600E0FF127337C004C005C006C00790061FDF
:1015A600E0FEA3E07802C333CE33CED8F92421F58A
:1015B6008274053EF583E0FCA3E0FDA3E0FEA3E014
:1015C600FF1223F7127350AC06AD07EC1223BEA828
:1015D60004A905AA06AB07D007D006D005D0041289
:1015E6002094E4FBFA79C878421221891223F790F5
:1015F600040BEFF090061FE0FEA3E0FF7C007D03E6
:101606001227DFEF2402FFE43EFE3395E0FDFC9057
:101616000407122A507F021261E67F327E00126FA3
:10162600ED900620E004F0700690061FE004F0023C
:10163600141AE4900630F0A3F090060AE07004A3B2
:10164600E06401600302191990060DE02401FE9082
:10165600060CE03400900632F0A3CEF090060EE0C1
:10166600FEA3E0FFC3900633E09FEE6480F8900689
:1016760032E064809840030218E2789E7C047D0183
:101686007B017A0379D17E007F0812276178A67CD8
:10169600047D017B017A0379D97E007F08122761D8
:1016A600900632E0FEA3E07802C333CE33CED8F9FB
:1016B60024B1F58274053EF583E0FCA3E0FDA3E0CA
:1016C600FEA3E0FF9004AE122A501264D4C004C0F8
:1016D60005C006C007900632E0FEA3E07802C333D9
:1016E600CE33CED8F92421F58274053EF583D00792
:1016F600D006D005D004122A507F327E00126FED3C
:10170600126BAE900632E0FEA3E07802C333CE330E
:10171600CED8F92421F58274053EF583E0FCA3E0DA
:10172600FDA3E0FEA3E0FFE4FBFAF9F812232F90F5
:101736000632E0FEA3E0FF7C007D0350161227DF91
:10174600EE3395E0FDFC900407122A5090040B74CA
:101756000180131227DFEE3395E0FDFC900407129B
:101766002A50E490040BF07F021261E67F327E007D
:10177600126FED7F327E00126FED126BAE90063265
:10178600E0FEA3E07802C333CE33CED8F92421F5A8
:101796008274053EF583E0FCA3E0FDA3E0FEA3E032
:1017A600FF1223F712735090040BEFF0900632E00D
:1017B600FEA3E0FF7C007D031227DFEF2401FFE498
:1017C6003EFE3395E0FDFC900407122A507F02127C
:1017D60061E67F327E00126FED7F327E00126FED82
:1017E600126BAE900632E0FEA3E07802C333CE332E
:1017F600CED8F92421F58274053EF583E0FCA3E0FA
:10180600FDA3E0FEA3E0FF127337C004C005C006C7
:10181600C007900632E0FEA3E07802C333CE33CE93
:10182600D8F92421F58274053EF583E0FCA3E0FD9A
:10183600A3E0FEA3E0FF1223F7127350AC06AD0738
:10184600EC1223BEA804A905AA06AB07D007D0064A
:10185600D005D004122094E4FBFA79C8784212210C
:10186600891223F790040BEFF0900632E0FEA3E016
:10187600FF7C007D031227DFEF2402FFE43EFE33E8
:1018860095E0FDFC900407122A507F021261E67F64
:10189600327E00126FED7F327E00126FED126BAE5C
:1018A600900633E0243FFF900632E03400FE339585
:1018B600E0FDFC900407122A5090040B7401F07F9F
:1018C600021261E67F327E00126FED900633E0046D
:1018D600F07006900632E004F00216629003D9E03A
:1018E600FCA3E0FDA3E0FEA3E0FF9003D1122A5083
:1018F6009003DDE0FCA3E0FDA3E0FEA3E0FF900380
:10190600D5122A5090060EE0FFA3E090060CCFF009
:10191600A3EFF0900630E0FAA3E0FB25E0FFEA3300
:10192600FE74832FF58274053EF583E0FEA3E06422
:10193600014E60030219DF90060AE07004A3E0641A
:101946000160030219DFEBAE027802C333CE33CE59
:10195600D8F924B1F58274053EF583E0FCA3E0FDD9
:10196600A3E0FEA3E0FF9003D9122A507C007D037A
:10197600AF03AE021227DFEE3395E0FDFC9003F9CC
:10198600122A507F021260CFEF7012900630E0FEEE
:10199600A3E07802C333CE33CED8F9801090063058
:1019A600E0FEA3E07802C333CE33CED8F92421F586
:1019B6008274053EF583E0FCA3E0FDA3E0FEA3E010
:1019C600FF9003DD122A50900630E0FFA3E0900658
:1019D6000ECFF0A3EFF0021D39900630E0FAA3E037
:1019E600FB25E0FFEA33FE74832FF58274053EF58E
:1019F60083E0FEA3E064014E6003021D3990060AEF
:101A0600E07002A3E06003021D39EBAE027802C368
:101A160033CE33CED8F924B1F58274053EF583E092
:101A2600FCA3E0FDA3E0FEA3E0FF9003D1122A5041
:101A36007C007D03AF03AE021227DFEE3395E0FD97
:101A4600FC9003F9122A507F021260CFEF701290B9
:101A56000630E0FEA3E07802C333CE33CED8F98059
:101A660010900630E0FEA3E07802C333CE33CED822
:101A7600F92421F58274053EF583E0FCA3E0FDA37D
:101A8600E0FEA3E0FF9003D5122A50900630E0FE58
:101A9600A3E0FF90060CEEF0A3EFF0A3EEF0A3EFA9
:101AA600F09003D1E0FCA3E0FDA3E0FEA3E0FF90ED
:101AB60003D9122A509003D5E0FCA3E0FDA3E0FE73
:101AC600A3E0FF9003DD122A5090060AE4F0A30477
:101AD600F0900583E07002A3E06003021D399006D2
:101AE6001FF0A3F0900630E0FEA3E0FFC3900620AF
:101AF600E09FEE6480F890061FE064809840030241
:101B06001D39EF7802C333CE33CED8F92421F582BE
:101B160074053EF583E0FCA3E0FDA3E0FEA3E0FF31
:101B2600C004C005C006C00790061FE0FEA3E0780B
:101B360002C333CE33CED8F92421F58274053EF59F
:101B460083D007D006D005D004122A507F327E00FB
:101B5600126FED126BAE900620E0243FFF90061F39
:101B6600E03400FE3395E0FDFC900407122A509005
:101B7600040B7401F07F021261E67F327E00126F61
:101B8600ED126BAE90061FE0FEA3E07802C333CEE3
:101B960033CED8F92421F58274053EF583E0FCA303
:101BA600E0FDA3E0FEA3E0FFE4FBFAF9F812232F21
:101BB60090061F6002501FE0FEA3E0FF7C007D033D
:101BC6001227DFEE3395E0FDFC900407122A5090B1
:101BD600040B7401801CE0FEA3E0FF7C007D031271
:101BE60027DFEE3395E0FDFC900407122A50E490BF
:101BF600040BF07F021261E67F327E00126FED7FEA
:101C0600327E00126FED126BAE90061FE0FEA3E06F
:101C16007802C333CE33CED8F92421F58274053E3B
:101C2600F583E0FCA3E0FDA3E0FEA3E0FF1223F7AB
:101C360012735090040BEFF090061FE0FEA3E0FF36
:101C46007C007D031227DFEF2401FFE43EFE33957F
:101C5600E0FDFC900407122A507F021261E67F32F3
:101C66007E00126FED7F327E00126FED126BAE902A
:101C7600061FE0FEA3E07802C333CE33CED8F924A4
:101C860021F58274053EF583E0FCA3E0FDA3E0FEAA
:101C9600A3E0FF127337C004C005C006C007900654
:101CA6001FE0FEA3E07802C333CE33CED8F9242159
:101CB600F58274053EF583E0FCA3E0FDA3E0FEA3F8
:101CC600E0FF1223F7127350AC06AD07EC1223BEE9
:101CD600A804A905AA06AB07D007D006D005D004EC
:101CE600122094E4FBFA79C878421221891223F76C
:101CF60090040BEFF090061FE0FEA3E0FF7C007D52
:101D0600031227DFEF2402FFE43EFE3395E0FDFCDD
:101D1600900407122A507F021261E67F327E00127B
:101D26006FED900620E004F0700690061FE004F0C8
:101D3600021AEA900631E004F07006900630E004DC
:101D4600F0D3900631E09414900630E064809480DD
:101D5600500302163F9005ABE07002A3E060030259
:101D6600203B90060EE0FFA3E0900632CFF0A3EFF3
:101D7600F0D3900633E09414900632E064809480A9
:101D8600400302203B90060EE0FEA3E07802C33338
:101D9600CE33CED8F92421F58274053EF583E0FCD6
:101DA600A3E0FDA3E0FEA3E0FFC004C005C006C09B
:101DB60007900632E0FEA3E07802C333CE33CED8D6
:101DC600F92421F58274053EF583D007D006D005A7
:101DD600D004122A507F327E00126FED126BAE9045
:101DE6000632E0FEA3E07802C333CE33CED8F92420
:101DF60021F58274053EF583E0FCA3E0FDA3E0FE39
:101E0600A3E0FFE4FBFAF9F812232F900632E0FE76
:101E1600A3E0FF7C007D0350161227DFEE3395E02A
:101E2600FDFC900407122A5090040B7401801312D3
:101E360027DFEE3395E0FDFC900407122A50E4906C
:101E4600040BF07F021261E67F327E00126FED7F97
:101E5600327E00126FED126BAE900632E0FEA3E00A
:101E66007802C333CE33CED8F92421F58274053EE9
:101E7600F583E0FCA3E0FDA3E0FEA3E0FF1223F759
:101E860012735090040BEFF0900632E0FEA3E0FFD1
:101E96007C007D031227DFEF2401FFE43EFE33952D
:101EA600E0FDFC900407122A507F021261E67F32A1
:101EB6007E00126FED7F327E00126FED126BAE90D8
:101EC6000632E0FEA3E07802C333CE33CED8F9243F
:101ED60021F58274053EF583E0FCA3E0FDA3E0FE58
:101EE600A3E0FF127337C004C005C006C007900602
:101EF60032E0FEA3E07802C333CE33CED8F92421F4
:101F0600F58274053EF583E0FCA3E0FDA3E0FEA3A5
:101F1600E0FF1223F7127350AC06AD07EC1223BE96
:101F2600A804A905AA06AB07D007D006D005D00499
:101F3600122094E4FBFA79C878421221891223F719
:101F460090040BEFF0900632E0FEA3E0FF7C007DEC
:101F5600031227DFEF2402FFE43EFE3395E0FDFC8B
:101F6600900407122A507F021261E67F327E001229
:101F76006FED7F327E00126FED126BAE900633E08E
:101F8600243FFF900632E03400FE3395E0FDFC90DE
:101F96000407122A5090040B7401F07F021261E6C6
:101FA6007F327E00126FED900633E004F0700690EB
:101FB6000632E004F0021D77900613E0FF1271E688
:101FC600EF6411705A900616E0FF1271E6EF704F3B
:101FD600900635E0547FFF1271E6EF7042900630AE
:101FE600F0A3F0900630E0FEA3E0FFD39414EE6475
:101FF6008094805040EF7802C333CE33CED8F92494
:1020060021F58274053EF583122A5C0000000090DB
:102016000631E004F070CC900630E004F080C49005
:102026000613E0FF1271E6EFC3941140089003CB4C
:10203600E4F0A304F090064DE07004A3E0640160B0
:102046000302018E1273667F017E001272567F4371
:10205600126B147F4C126B147F45126B147F411266
:102066006B147F52126B14126BAE126C6A7F057E74
:1020760000126FED90061B122A5C000000C8E49067
:0B208600064DF0A3F012736602018EFD
:0300230002000ECA
:0D000E00309802C298309904C299C20A329B
:09737900200AFDD20AEFF5992269
:06729500D2A27F017E0081
:0E729B00EF1FAC0670011E4C60030080F32252
:02716100AD0778
:10716300E4FBC2A2ED30E704D2A18002C2A11272F5
:0D71730097127295ED25E0FD0BEBB408E5D9
:0171800022EC
:10718100E4FDD2A1FBED25E0FDC2A212729730A170
:0F71910004ED4401FD1272950BEBB408E8AF0555
:0171A00022CC
:1072BD00E4FED2A0EF44A0FF127161127181C2A051
:0172CD00229E
:10721100AA07D2A0ED4420FF127161AF0212716181
:08722100AF02127161C2A0224C
:0D731D005395F85396F8D2A0C2A0C2A22248
:106BFB009004E9EBF0A3EAF0A3E9F07F091272BD70
:106C0B009004E9E0FBA3E0FAA3E0F9EF1227CD7FB4
:106C1B00071272BD9004ECE0FBA3E0FAA3E0F9EFDE
:106C2B001227CD7F061272BD9004EFE0FBA3E0FAB2
:106C3B00A3E0F9EF1227CD7F051272BD9004F2E0AD
:106C4B00FBA3E0FAA3E0F9EF1227CD7F041272BD8C
:0F6C5B009004F5E0FBA3E0FAA3E0F9EF0227CDE8
:1072CE00EFC4540FFEEF540FFFEE75F00AA42FFF1C
:0172DE00228D
:106A88001272CEAC07AF051272CEEC14B40C0050E3
:106A980073906AA775F003A4C58325F0C5837302B4
:106AA8006ACB026ACE026AD3026AD8026ADD026A37
:106AB800E2026AE7026AEC026AF1026AF9026AFE15
:106AC800026B037E0022EF241F8021EF243B801CF1
:106AD800EF245A8017EF24788012EF2497800DEF67
:106AE80024B58008EF24D48003EF24F3FFE433FEB9
:106AF80022EF24118008EF24308003EF244EFFE4B6
:076B08003401FE22E4FEFF50
:016B0F002263
:106CC400E4F5917592FF7F96FE1270FE7F03126EBB
:106CD400967F1E7E001270FE7F03126E961270FA6B
:106CE4007F03126E961270FA7F02126E967F017EF7
:106CF400001270FE7F02126E967F08126E96E4FFF9
:106D0400126E967F0E126E96E4FF126E967F061236
:096D14006E967F147E000270FEF1
:046B1000E04430FF2E
:106B14009004F4EFF0D2C0C293E0FF5480C4131386
:106B240013540124FF92B7EF5440C41313540324A5
:106B3400FF92B6E0FF5420C413540724FF92B5EF2C
:106B44005410C4540F24FF92B4D2B37F017E0012B8
:106B540070FEC2B39004F4E0FF5408131313541FDF
:106B640024FF92B7EF54041313543F24FF92B6E06A
:106B7400FF5402C31324FF92B5EF1392B41270F8BA
:056B8400C2B3C2C022F3
:106E9600C2C0C293EF5408131313541F6004D2B731
:106EA6008002C2B7EF54041313543F6004D2B68075
:106EB60002C2B6EF5402C3136004D2B58002C2B553
:106EC600EF30E004D2B48002C2B41270F8C2B3222A
:0670F800D2B37F0A7E0006
:1070FE00EF1FAA0670011E4A6013E4FCFDC3ED9457
:0D710E0058EC940250EA0DBD00010C80F019
:01711B002251
:1071BF00EFC4540F4430FEEF540F44309003F8F0F7
:0D71CF00AF06126B149003F8E0FF026B1482
:0A735C00E4FF126E967F02026E96A7
:0A736600E4FF126E967F01026E969E
:10725600EF64014E70047F0880027F0C126E96E484
:05726600FF126E9622EC
:065D2F009004E9122A5065
:105D35009004E9E0FCA3E0FDA3E0FEA3E0FF12234D
:105D4500F71273509004F2EEF0A3EFF0E4FFFEFDBE
:105D5500FC9004E9E0F8A3E0F9A3E0FAA3E0FB1264
:105D6500232F602640249004F2E0FCA3E0FDEC1212
:105D750023BEA804A905AA06AB079004E9E0FCA385
:105D8500E0FDA3E0FEA3E0FF80359004E9E0FCA37D
:105D9500E0FDA3E0FEA3E0FF1223A8C004C005C0F8
:105DA50006C0079004F2E0FCA3E0FDEC1223BEA8B8
:105DB50004A905AA06AB07D007D006D005D0041262
:105DC5002094E4FBFA792078411221891223F79077
:105DD50004F1EFF09004F2E0FAA3E0FB7C007D0A09
:105DE500FFAE021228469004EDEDF07C037DE8AF8E
:105DF50003AE02122846A9079004F0E9F07E007C64
:105E0500037DE81227DFC39004F3E09FFB9004F2C3
:105E1500E09EFA7C007D64AF03FE1227F19004EF4B
:105E2500EFF0E075F064A4FFC3EB9FFFEA95F0FE89
:105E35007C007D0A1227F19004EEEFF0E4FFFEFDF1
:105E4500FC9004E9E0F8A3E0F9A3E0FAA3E0FB1273
:105E5500232F400280057F2D126B149004F0126BE6
:105E6500109004EF126B109004EE126B109004ED7D
:0E5E7500126B107F2E126B149004F1126B1042
:015E830022FC
:104A97004206470000420645000042064B0000421E
:0D4AA7000649000042064D000041063600A1
:1071A100EF1FAA0670011E4A6013E4FCFDC3ED94B3
:0D71B10058EC940250EA0DBD00010C80F076
:0171BE0022AE
:10572B0053801E43801EE58044E19003FEF0E0F4BD
:10573B0070030258B5E58044E1F0E0F470030258C1
:10574B00B25380DF4380C1E58044E1F0E0F4604771
:10575B009003FEE0FFF4600DA3EFF0E58044E190D1
:10576B0003FEF080EB9003FFE02411602424F8602B
:10577B001824FC600C24FE701E9004007401F08051
:10578B00169004007404F0800E9004007407F080EF
:10579B0006900400740CF05380BF4380A1E5804455
:1057AB00E19003FEF0E0F460469003FEE0FFF4604E
:1057BB000DA3EFF0E58044E19003FEF080EB900346
:1057CB00FFE02411602424F8601824FC600C24FEF4
:1057DB00701D9004007402F080159004007405F0A5
:1057EB00800D9004007408F08005E4900400F053E1
:1057FB00807F438061E58044E19003FEF0E0F4603C
:10580B00479003FEE0FFF4600DA3EFF0E58044E169
:10581B009003FEF080EB9003FFE02411602424F84A
:10582B00601824FC600C24FE701E9004007403F0BE
:10583B0080169004007406F0800E9004007409F03A
:10584B008006900400740BF05380FE4380E0E580EB
:10585B0044E19003FEF0E0F460479003FEE0FFF4B8
:10586B00600DA3EFF0E58044E19003FEF080EB9038
:10587B0003FFE02411602424F8601824FC600C243E
:10588B00FE701E900400740DF08016900400740ED0
:10589B00F0800E900400740FF080069004007410DA
:0C58AB00F0900400E0FF227F64227F6484
:0158B70022CE
:104E5800900639E0FFA3E0900637CFF0A3EFF012F9
:104E6800572B7E00900639EEF0A3EFF0640E700623
:104E7800900645024F05900637E0FEA3E0FF646404
:104E88004E7020A3E07004A3E0640F701690064BE8
:104E9800E07002A3E06006E490064B805890064B51
:104EA800E4805A900639E0FCA3E0FD64104C700FD2
:104EB800900647E07002A3E07005900647803EED3B
:104EC80064104C7010900647E07002A3E06006E49E
:104ED8009006478020EF64644E7027900639E07092
:104EE80004A3E0640D701B900649E07002A3E06023
:104EF80008E4900649F0A3F022900649E4F0A304E0
:104F0800F022900637E07004A3E064646003025165
:104F1800E3900639E0FCA3E0FD64644C70030251A1
:104F2800E3900636E0FF3395E0FEEF25E0FFEE3331
:104F3800FE743B2FF58274063EF583ECF0A3EDF08A
:104F4800900636E004F0E064056003025181F090B9
:104F58000643E07004A3E0640B707490063BE0FE27
:104F6800A3E0FF7C007D0A1227DF90063EE02FFFBA
:104F780090063DE03EAB07FA90063FE0FEA3E0FF57
:104F88001227DF900642E02FFF900641E03EFED355
:104F9800EB9418EA94004003025110EF943CEE940D
:104FA80000400302511090063BA3E0C454F0FFA355
:104FB800A3E04FFF7D0612721190063FA3E0C45490
:104FC800F0FFA3A3E04FFF7D051272110251079075
:104FD8000643E07004A3E0640C60030251109006DD
:104FE8003BE0FEA3E0FF7C007D0A1227DF90063E2F
:104FF800E02FFF90063DE03E9003FAF0FAA3EFF0B1
:10500800FB90063FE0FEA3E0FF1227DF900642E098
:105018002FFF900641E03E9003FCF0A3EFF0D3EBA6
:105028009407EA9400507B9003FBE030E023900360
:10503800FDE0941F9003FCE09400400302510790A8
:10504800063BA3E0C454F0FFA3A3E04FFF1D0250AA
:10505800F19003FAE07004A3E064027024D3900393
:10506800FDE0941C9003FCE094004003025107907B
:10507800063BA3E0C454F0FFA3A3E04FFF7D0980E3
:1050880068D39003FDE0941E9003FCE09400506FF9
:1050980090063BA3E0C454F0FFA3A3E04FFF7D09B3
:1050A80080479003FBE020E021D39003FDE0941FAC
:1050B8009003FCE09400504790063BA3E0C454F0F2
:1050C800FFA3A3E04FFF7D09801FD39003FDE09469
:1050D8001E9003FCE09400502690063BA3E0C454C5
:1050E800F0FFA3A3E04FFF7D0912721190063FA3C2
:1050F800E0C454F0FFA3A3E04FFF7D0712721190A4
:105108000643E4F0A37464F090063BE07004A3E067
:105118006409703590063DE07004A3E064097029C5
:1051280090063FE07004A3E06409701D900641E01A
:105138007004A3E064097011900643E07002A3E0D4
:10514800700790064DF0A304F090064DE07002A39E
:10515800E070261273667F08126E96E4FF126E9650
:105168007F68126B147F68126B147F6D126B147F4B
:105178006D126B147F23126B14E49003F8F0A3F004
:10518800900636E0FFFD3395E0FCC39003F9E09DFF
:105198009003F8E09C5044EF64809484502D7F087D
:1051A800126E969003F8A3E0FF126E969003F9E052
:1051B80025E0FF9003F8E033FE743B2FF582740678
:1051C8003EF583A3E04430FF126B149003F9E0042A
:0B51D800F070AD9003F8E004F080A53B
:0151E30022A9
:0C734400759300759400E4F594F5932215
:104AB4006028013043340000433E000043480000B6
:104AC40043520000435C0000436600004370000052
:104AD400437A00004382000043870000602800A45A
:104AE40043340000432A0000432000004316000022
:104AF400430C00004302000042F0000042DC0000CE
:104B040042C8000042B400006258016042EFA3D7DB
:104B140042EF385242EDB33342ECC28F42EAE148ED
:104B240042E8385242E03D7142D170A4429B75C3C1
:104B340042BEA8F642D5F0A442D5C7AE42D4333320
:104B440042D08F5C42CAD70A42C1F5C342B2947BB9
:104B54004290051F41F428F6C2AC4CCD42BD051F5E
:104B640042BC2E1442B9385242B3947B42AB947B7C
:104B7400429C4CCD428338524221F5C3C17051EC62
:104B8400C2DB385242A3E66642A2BD71429E3D7129
:104B9400429675C3428ADC29426BD70A422B3333CF
:104BA4004143851FC22FAE14C2EEF5C3428A6B8502
:104BB4004288A8F642834CCD42728F5C4252CCCDDF
:104BC4004221E14841AA51ECC130F5C3C27B28F629
:104BD400C2F9947B425D47AE425A1EB8424E3D71C3
:104BE4004237D70A4214666641B95C293FF851EC52
:104BF400C1F228F6C2959EB8C2FC28F64227EB857E
:104C04004223B8524216333341FBD70A41A628F651
:104C140040CE6666C1770A3DC235147BC2A73333E2
:104C2400C2FECCCD41E28F5C41D7EB8541B9851FF3
:104C340041830A3D40C1999AC112E148C1F370A46D
:104C4400C265D70AC2B6199AC2FFA8F64161999AF9
:104C5400414E147B410CCCCD00000000C107AE14C2
:104C6400C1BC28F6C22C147BC2884CCDC2C1CCCDA9
:104C7400C2FEAE140000000000000000C0B8000036
:104C8400C142E148C1B55C29C212851FC25AE1483C
:104C9400C299C28FC2CA9EB8C2FF75C3C162B8525C
:104CA400C170CCCDC1991EB8C1D2F5C3C210E148C0
:104CB400C242E148C282F0A4C2A7C7AEC2D22E1437
:104CC400C2FEFAE1C1E1D70AC1EC51ECC204EB85A2
:104CD400C21E70A4C240EB85C2705C29C295428F8B
:104CE400C2B5C28FC2D9428FC2FF147BC228851FAE
:104CF400C22C5C29C2397AE1C250A3D7C27166665C
:104D0400C28D0A3DC2A56148C2C18F5CC2DF947BDB
:104D1400C2FF851FC25E147BC261999AC26F28F6D6
:104D2400C282051FC28F2E14C2A05C29C2B4C7AEB2
:104D3400C2CBD1ECC2E551ECC2FFE666C28A199A35
:104D4400C28C47AEC290D1ECC2990F5CC2A4614838
:104D5400C2B2947BC2C36148C2D5A3D7C2EA0F5C76
:104D6400C3000F5C603C00F4400CCCCD40DCCCCDE7
:104D74004139999A4182666641A8000041CD999AC9
:104D840041F33333420C6666421F33334232000030
:104D94004244CCCD4257999A426A6666427D333387
:104DA4004288000060A00004C1E1D70AC1EC51ECC4
:104DB400C204EB85C21E70A4C240EB85C2705C299C
:104DC400C295428FC2B5C28FC2D9428FC2FF147B33
:104DD400C228851FC22C5C29C2397AE1C250A3D7EC
:104DE400C2716666C28D0A3DC2A56148C2C18F5CAC
:104DF400C2DF947BC2FF851FC25E147BC261999A95
:104E0400C26F28F6C282051FC28F2E14C2A05C296D
:104E1400C2B4C7AEC2CBD1ECC2E551ECC2FFE66668
:104E2400C28A199AC28C47AEC290D1ECC2990F5C67
:104E3400C2A46148C2B2947BC2C36148C2D5A3D79D
:104E4400C2EA0F5CC3000F5C440000C0A000004134
:034E540000D40087
:10726B00900158122A5CC2932E1490015C122A5C76
:05727B0042360A3D222D
:0A71DC00122A50900420E0547FFFB7
:1071E600EFC4540FFEEF540FFFEE75F00AA42FFF05
:0171F6002276
:106DBE009000EC30031A7404F07B017A0079E7122C
:106DCE00662F7F027E001271A19000EC740680186F
:106DDE007405F07B017A0079E712662F7F027E0040
:106DEE001271A19000EC7407F07B017A0079E71222
:0A6DFE00662F7F027E001271A122B1
:086ED6009004EDEEF0A3EFF0D3
:106EDE00E4A3F0A3F09004EFF0A3F09004EDE0FE35
:106EEE00A3E0FFC39004F0E09F9004EFE09E5017E4
:106EFE00A2029203126DBE9004F0E004F070DC90DA
:076F0E0004EFE004F080D461
:016F15002259
:067035009004E9122A504C
:10703B00E4FFFE7DD07C429004E9E0F8A3E0F9A3E5
:10704B00E0FAA3E0FB1221891223F7A201920202BC
:02705B006ED6EF
:1064B10078A67C047D017B017E007F081227619014
:1064C1000442E0FCA3E0FDA3E0FEA3E0FF9004AEE4
:0364D100122A503C
:1064D4009004AEE0F8A3E0F9A3E0FAA3E0FB900493
:1064E4009EE0FCA3E0FDA3E0FEA3E0FF12209412D3
:1064F40023A8C004C005C006C0079004A6E0F8A302
:10650400E0F9A3E0FAA3E0FB90049EE0FCA3E0FD25
:10651400A3E0FEA3E0FF122094A804A905AA06ABF9
:1065240007D007D006D005D004122292C004C005BB
:10653400C006C0079004AAE0F8A3E0F9A3E0FAA318
:10654400E0FB9004A2E0FCA3E0FDA3E0FEA3E0FFD7
:10655400122094D003D002D001D0001221899004DB
:0F656400A2E0F8A3E0F9A3E0FAA3E0FB1220986D
:016573002205
:0640C000900442122A5098
:1040C600900486122A5C00000000E490048AF0A3A3
:1040D600F090048AE0FEA3E0FFC3940AEE648094A5
:1040E60080400302444DEF7802C333CE33CED8F975
:1040F6002434F58274013EF583E0FCA3E0FDA3E0E1
:10410600FEA3E0FF900442E0F8A3E0F9A3E0FAA3DF
:10411600E0FB12232F6005400302429190048AE0DF
:10412600FEA3E07802C333CE33CED8F92430F5822D
:1041360074013EF583E0FCA3E0FDA3E0FEA3E0FFEF
:10414600900442E0F8A3E0F9A3E0FAA3E0FB12230F
:104156002F5003024291E490048CF0A3F090048A5D
:10416600E0FEA3E07802C333CE33CED8F9FBAA062D
:104176002430F58274013AF583E0FCA3E0FDA3E068
:10418600FEA3E0FF90048E122A5074342BF582743D
:10419600013AF583E0FCA3E0FDA3E0FEA3E0FF9077
:1041A6000496122A5090048AE0FEA3E07802C333F4
:1041B600CE33CED8F9FBAA0690048CE0FEA3E0909D
:1041C600016075F028122AA7EE75F028A42583F55C
:1041D60083E5822BF582E5833AF583E0FCA3E0FDD7
:1041E600A3E0FEA3E0FF900492122A5090048CE014
:1041F600FEA3E090016475F028122AA7EE75F02858
:10420600A42583F583E5822BF582E5833AF583E0E1
:10421600FCA3E0FDA3E0FEA3E0FF90049A122A505F
:10422600789E7C047D017B017A04798E7E007F086E
:104236001227617A0479961264B1C004C005C006DB
:10424600C00790048CE0FEA3E07802C333CE33CEE1
:10425600D8F9244AF58274043EF583D007D006D0F7
:1042660005D004122A5090048DE004F070069004E4
:104276008CE004F0C390048DE0940F90048CE0640D
:10428600809480500302416302443990048AE0FE20
:10429600A3E07802C333CE33CED8F924A8F58274CE
:1042A600003EF583E0FCA3E0FDA3E0FEA3E0FF9063
:1042B6000442E0F8A3E0F9A3E0FAA3E0FB12232FFF
:1042C600500302443990048AE0FEA3E07802C33327
:1042D600CE33CED8F924A4F58274003EF583E0FCF3
:1042E600A3E0FDA3E0FEA3E0FF900442E0F8A3E014
:1042F600F9A3E0FAA3E0FB12232F60054003024472
:1043060039E490048CF0A3F090048AE0FEA3E078F0
:1043160002C333CE33CED8F9FBAA0624A4F58274A1
:10432600003AF583E0FCA3E0FDA3E0FEA3E0FF90E6
:10433600048E122A5074A82BF58274003AF583E095
:10434600FCA3E0FDA3E0FEA3E0FF900496122A5032
:1043560090048AE0FEA3E07802C333CE33CED8F9C8
:10436600FBAA0690048CE0FEA3E090016075F0289D
:10437600122AA7EE75F028A42583F583E5822BF58E
:1043860082E5833AF583E0FCA3E0FDA3E0FEA3E02B
:10439600FF900492122A5090048CE0FEA3E0900154
:1043A6006475F028122AA7EE75F028A42583F583F4
:1043B600E5822BF582E5833AF583E0FCA3E0FDA3D5
:1043C600E0FEA3E0FF90049A122A50789E7C047DBA
:1043D600017B017A0479967E007F081227617A04B0
:1043E600798E1264B1C004C005C006C00790048C63
:1043F600E0FEA3E07802C333CE33CED8F9244AF5E3
:104406008274043EF583D007D006D005D004122A64
:104416005090048DE004F0700690048CE004F0C324
:1044260090048DE0940F90048CE064809480500397
:1044360002430E90048BE004F060030240D7900420
:104446008AE004F00240D7E490048AF0A3F09004D6
:104456008AE0FEA3E0FFC3940FEE648094804003DD
:104466000245ACEF7802C333CE33CED8F924F4F547
:104476008274003EF583E0FCA3E0FDA3E0FEA3E02A
:10448600FF900446E0F8A3E0F9A3E0FAA3E0FB12EC
:10449600232F500302459B90048AE0FEA3E0780296
:1044A600C333CE33CED8F924F8F58274003EF583B3
:1044B600E0FCA3E0FDA3E0FEA3E0FF900446E0F8E5
:1044C600A3E0F9A3E0FAA3E0FB12232F6005400363
:1044D60002459B90048AE0FEA3E07802C333CE3304
:1044E600CED8F9FBAA0624F4F58274003AF583E0E7
:1044F600FCA3E0FDA3E0FEA3E0FF90048E122A5089
:1045060074F82BF58274003AF583E0FCA3E0FDA372
:10451600E0FEA3E0FF900496122A5090048AE0FE83
:10452600A3E07802C333CE33CED8F9FBAA06244AD9
:10453600F58274043AF583E0FCA3E0FDA3E0FEA354
:10454600E0FF900492122A50744E2BF58274043ABE
:10455600F583E0FCA3E0FDA3E0FEA3E0FF90049A50
:10456600122A50789E7C047D017B017A04798E7E26
:10457600007F0812276178A67C047D017B017A04FE
:1045860079967E007F081227619004461264C390D4
:104596000486122A5090048BE004F0700690048A78
:1045A600E004F0024454900486E0FCA3E0FDA3E09E
:0445B600FEA3E0FF81
:0145BA0022DE
:093AEF0090041EEBF0AA05A907E2
:103AF800E490042AF0A3F0A3F0A3F0A3122A5C0038
:103B0800000000900432122A5C0000000090043685
:103B1800122A5C000000009000D57407F0A374E33B
:103B2800F0AF011271E6A3E4F0A3EFF0AF02127157
:103B3800E6A3E4F0A3EFF090041EE0FF1271E6EFB5
:103B48002405FDE433FCE41223BE9000DB122A5066
:103B580090041FE0FF1271E6AC07E41223C3900043
:103B6800DF1271DCAC07E41223C39000E3122A5081
:103B7800900421E0FBA3E0FAA3E0F912296A90047B
:103B88002E122A5078427C047D017B017A0079D577
:103B98007E007F1212276178547C047D017B017AB4
:103BA8000179587E007F0812276190045C7401F047
:103BB800A37400F0A374F1F0122C59E4FBFA7934E1
:103BC80078431221897BD07A0F7949784012229262
:103BD8009000CC122A509000DAE024AFFF9000D970
:103BE800E034FFFE7C017D681227DF7D6D122846D8
:103BF800EF25E0FDEE33FC1223BE7BD07A0F794926
:103C08007840122189E4FBFA79347843122292121F
:103C18005A9F7B857AEB791D7841122189C004C0AF
:103C280005C006C007E4FFFE7D707C41900000E0FF
:103C3800F8A3E0F9A3E0FAA3E0FB122189A804A9FC
:103C480005AA06AB07900158E0FCA3E0FDA3E0FE3F
:103C5800A3E0FF122094E4FBFA79807840122189CE
:103C6800D003D002D001D000122098C004C005C0F3
:103C780006C0079000DAE024AFFF9000D9E034FFD7
:103C8800FE7C017D681227DF7D6D122846AC06ADEB
:103C980007EC1223BE7BD07A0F794978401221892C
:103CA800E4FBFA79347843122292125A897BC37A58
:103CB800F579F07840122189A804A905AA06AB076E
:103CC800D007D006D005D004122094C004C005C087
:103CD80006C0079000DAE024AFFF9000D9E034FF77
:103CE800FE7C017D681227DF7D6D122846AC06AD8B
:103CF80007EC1223BE7BD07A0F79497840122189CC
:103D0800E4FBFA79347843122292125A9FE4FBFAC0
:103D180079C0783F122189A804A905AA06AB07D063
:103D280007D006D005D004122094E4FBFA79707805
:103D3800421222929000D0122A5090041FE0FF12E3
:103D480071E6AC07E41223C3E4FBFA7970784212F7
:103D58002292C004C005C006C00790041EE0FF12EE
:103D680071E6AC07E41223C3D003D002D001D0001F
:103D78001220989000D0E0F8A3E0F9A3E0FAA3E0BD
:103D8800FB1220989000ED122A507FD07E0F7D49BB
:103D98007C409000CCE0F8A3E0F9A3E0FAA3E0FBB4
:103DA800122189E4FBFA79347843122292125A8953
:103DB800C004C005C006C0077FD07E0F7D497C4087
:103DC80090015CE0F8A3E0F9A3E0FAA3E0FB12217C
:103DD80089E4FBFA79347843122292125A89D00383
:103DE800D002D001D000122189C004C005C006C08D
:103DF80007E4FFFE7D407CC19000EDE0F8A3E0F908
:103E0800A3E0FAA3E0FB1220987BD37A7E793C7872
:103E180042122189E4FBFA79347843122292125A29
:103E280089D003D002D001D000122189C004C00576
:103E3800C006C0077FD07E0F7D497C409000CCE053
:103E4800F8A3E0F9A3E0FAA3E0FB122189E4FBFA66
:103E580079347843122292125A9FC004C005C006D2
:103E6800C0077FD07E0F7D497C4090015CE0F8A3BD
:103E7800E0F9A3E0FAA3E0FB122189E4FBFA793424
:103E88007843122292125A9FD003D002D001D00058
:103E9800122189D003D002D001D000122098126FCD
:103EA800167BED7A2E7965784212218990043A12B0
:103EB8002A50E4FFFE7D407CC19000EDE0F8A3E0CD
:103EC800F9A3E0FAA3E0FB1220987BD37A7E793C31
:103ED8007842122189E4FBFA79347843122292124B
:103EE8005A9FC004C005C006C0077FD07E0F7D4919
:103EF8007C409000CCE0F8A3E0F9A3E0FAA3E0FB53
:103F0800122189E4FBFA79347843122292125A89F1
:103F1800D003D002D001D000122189C004C005C04E
:103F280006C00790043AE0F8A3E0F9A3E0FAA3E09A
:103F3800FBE4FFFE7DB47C421220947BD07A0F799B
:103F4800497840122189E4FBFA79347843122292A5
:103F5800125A9FA804A905AA06AB07D007D006D015
:103F680005D004122292126F167BED7A2E796578AD
:103F780042122189E4FBFA7934784312209890049C
:103F88003E1271DCEF30E0030240BF7FCD7ECC7D76
:103F98000C7C4090043AE0F8A3E0F9A3E0FAA3E02F
:103FA800FB12232F50030240BFE4FFFE7D887C42B2
:103FB80090043AE0F8A3E0F9A3E0FAA3E0FB1223A7
:103FC8002F600540030240BF90043AE0FCA3E0FDE7
:103FD800A3E0FEA3E0FF900446122A5090043EE0BE
:103FE800FCA3E0FDA3E0FEA3E0FF1240C09004366E
:103FF800122A50E4FFFE7D167C43900436E0F8A3B5
:10400800E0F9A3E0FAA3E0FB122098900424E0F87A
:10401800A3E0F9A3E0FAA3E0FB12209890042E1283
:104028002A50900421E0FBA3E0FAA3E0F9122A3019
:1040380090042EE0FCA3E0FDA3E0FEA3E0FF122025
:1040480094900432122A50900432E0FCA3E0FDA3BD
:10405800E0FEA3E0FF127337E4FBFAF9783F12237E
:104068002F60025052E4FFFE7D707CC190042EE068
:10407800F8A3E0F9A3E0FAA3E0FB12232F4038E409
:10408800FFFE7D527C4390042EE0F8A3E0F9A3E004
:10409800FAA3E0FB12232F6002501C90042EE0FCD0
:1040A800A3E0FDA3E0FEA3E0FF900421E0FBA3E072
:0740B800FAA3E0F91229BA96
:0140BF0022DE
:1051E4009003FAEBF09000D57407F0A374E3F01287
:1051F40071E6A3E4F0A3EFF0AF051271E6A3E4F0C7
:10520400A3EFF09003FAE0FF1271E6EF2405FDE44A
:1052140033FCE41223BE9000DB122A509003FBE01F
:10522400FF1271E6AC07E41223C39000DF122A5088
:105234009003FC1271E2AC07E41223C39000E31262
:105244002A5078427C047D017B017A0079D57E0066
:105254007F1212276178547C047D017B017A0179E5
:10526400587E007F0812276190045C7401F0A374D7
:1052740000F0A374F1F0122C59E4FBFA793478436A
:105284001221897BD07A0F794978401222929000BA
:10529400CC122A509000DAE024AFFF9000D9E03419
:1052A400FFFE7C017D681227DF7D6D122846EF2505
:1052B400E0FDEE33FC1223BE7BD07A0F79497840AF
:1052C400122189E4FBFA79347843122292125A9F0C
:1052D4007B857AEB791D7841122189C004C005C011
:1052E40006C007E4FFFE7D707C41900000E0F8A357
:1052F400E0F9A3E0FAA3E0FB122189A804A905AA16
:1053040006AB07900158E0FCA3E0FDA3E0FEA3E098
:10531400FF122094E4FBFA79807840122189D003AB
:10532400D002D001D000122098C004C005C006C02D
:10533400079000DAE024AFFF9000D9E034FFFE7C50
:10534400017D681227DF7D6D122846AC06AD07EC9F
:105354001223BE7BD07A0F79497840122189E4FB6D
:10536400FA79347843122292125A897BC37AF579F6
:10537400F07840122189A804A905AA06AB07D00732
:10538400D006D005D004122094C004C005C006C0C5
:10539400079000DAE024AFFF9000D9E034FFFE7CF0
:1053A400017D681227DF7D6D122846AC06AD07EC3F
:1053B4001223BE7BD07A0F79497840122189E4FB0D
:1053C400FA79347843122292125A9FE4FBFA79C094
:1053D400783F122189A804A905AA06AB07D007D0F3
:1053E40006D005D004122094E4FBFA7970784212B6
:1053F40022929000D0122A509003FBE0FF1271E633
:10540400AC07E41223C3E4FBFA79707842122292C7
:10541400C004C005C006C0079003FAE0FF1271E69D
:10542400AC07E41223C3D003D002D001D000122071
:10543400989000D0E0F8A3E0F9A3E0FAA3E0FB120F
:1054440020989000ED122A507FD07E0F7D497C4039
:105454009000CCE0F8A3E0F9A3E0FAA3E0FB12216A
:1054640089E4FBFA79347843122292125A89C004EF
:10547400C005C006C0077FD07E0F7D497C409001E7
:105484005CE0F8A3E0F9A3E0FAA3E0FB122189E4CD
:10549400FBFA79347843122292125A89D003D0024B
:1054A400D001D000122189C004C005C006C007E4A1
:1054B400FFFE7D407CC19000EDE0F8A3E0F9A3E09D
:1054C400FAA3E0FB1220987BD37A7E793C784212CF
:1054D4002189E4FBFA79347843122292125A89D052
:1054E40003D002D001D000122189C004C005C00637
:1054F400C0077FD07E0F7D497C409000CCE0F8A3AC
:10550400E0F9A3E0FAA3E0FB122189E4FBFA793481
:105514007843122292125A9FC004C005C006C007E5
:105524007FD07E0F7D497C4090015CE0F8A3E0F9D8
:10553400A3E0FAA3E0FB122189E4FBFA793478436F
:10554400122292125A9FD003D002D001D00012210D
:1055540089D003D002D001D000122098126F1622F5
:102C5900E4FBFA79707842900450E0FCA3E0FDA30C
:102C6900E0FEA3E0FF12229290044CE0F8A3E0F901
:102C7900A3E0FAA3E0FB122098E4FBFA797078420A
:102C8900122292900448E0F8A3E0F9A3E0FAA3E045
:102C9900FB122098900463122A50900445E024F214
:102CA900FF900444E034FFFE7C007D0C122846EEC0
:102CB9003395E0FDFC900483122A50E47F0CFEFD5D
:102CC900FC900483E0F8A3E0F9A3E0FAA3E0FB1287
:102CD90028E9A804A905AA06AB07900445E024FE43
:102CE900FF900444E034FFFE3395E0FDFCC3EF9B05
:102CF900FFEE9AFEED99FDEC98FCE47B6F7A01F901
:102D0900F81228E9E47B0CFAF9F8126E52C004C0F3
:102D190005C006C007900443E024C0FF900442E0C8
:102D29003412FE3395E0FDFC900483E0F8A3E0F94A
:102D3900A3E0FAA3E02FFFEA3EFEE93DFDE83CFCF3
:102D4900E47BB57A05F9F81228E9E47B04FAF9F885
:102D5900126E52D003D002D001D000EF2BFFEE3A11
:102D6900FEED39FDEC38FCC004C005C006C0079073
:102D79000443E02424FF900442E03413FE3395E039
:102D8900FDFC900483E0F8A3E0F9A3E0FAA3E02FA7
:102D9900FFEA3EFEE93DFDE83CFCE47B64FAF9F814
:102DA900126E52E47B03FAF9F81228E9E47B04FA7B
:102DB900F9F8126E52A804A905AA06AB07D007D0E4
:102DC90006D005D004C3EF9BFBEE9AFAED99F9EC16
:102DD90098F8900446E0FEA3E0FFEE3395E0FDFC91
:102DE900EB2FFFEA3EFEE93DFDE83CFCEF24B5FF91
:102DF900EE3482FEED34FFFDEC34FFFC90048712C3
:102E09002A50900487E0FCA3E0FDA3E0FEA3E0FFC5
:102E1900EC1223B9E4FBFAF978BF122098C004C078
:102E290005C006C007E4FBFA79C07841900463E065
:102E3900FCA3E0FDA3E0FEA3E0FF122292D003D0A1
:102E490002D001D00012209890047F122A507F648A
:102E59007EA17D157CCA90047FE0F8A3E0F9A3E088
:0D2E6900FAA3E0FB12209890045F122A509B
:102E76007F787E3E7D887C3A90045FE0F8A3E0F997
:102E8600A3E0FAA3E0FB122189A804A905AA06ABD0
:102E9600077F467E257D097C401220949004871288
:102EA6002A507FDE7EEC7D8C7C3C90045FE0F8A3AC
:102EB600E0F9A3E0FAA3E0FB1221897B5B7AA4790F
:102EC6009C784012209890047F122A507F257EEB32
:102ED6007D8C7C3C90045FE0F8A3E0F9A3E0FAA3C4
:102EE600E0FB1221897B927AAE79C778401220984E
:102EF600900483122A50900483E0FCA3E0FDA3E033
:102F0600FEA3E0FF125A9F7B4A7ADF7908783D12CA
:102F1600218990047FE0F8A3E0F9A3E0FAA3E0FB9F
:102F2600122098C004C005C006C007E4FFFEFD7C61
:102F360040900483E0F8A3E0F9A3E0FAA3E0FB12D3
:102F46002189125A9F7BEF7AF179B6783912218955
:102F5600D003D002D001D0001220987B297AD179F3
:102F6600ED78B8122098C004C005C006C0079004CA
:102F760087E0FCA3E0FDA3E0FEA3E0FF125A9F7BDF
:102F8600EB7A4979AA7837122189A804A905AA06F5
:102F9600AB07D007D006D005D00412209490046762
:102FA600122A50900487E0FCA3E0FDA3E0FEA3E014
:102FB600FF125A897B2D7A1879267838122189C012
:102FC60004C005C006C0077FEC7E827DD57C3190AB
:102FD600045FE0F8A3E0F9A3E0FAA3E0FB1221897D
:102FE600A804A905AA06AB077F9D7E747DD17C3E09
:102FF600122094D003D002D001D000122098900461
:043006006B122A50CF
:10300A00900467E0FCA3E0FDA3E0FEA3E0FF125AF0
:10301A009F90047F122A5090046BE0FCA3E0FDA36A
:10302A00E0FEA3E0FF125A8990047FE0F8A3E0F9DA
:10303A00A3E0FAA3E0FB122189900477122A5090A8
:10304A000467E0FCA3E0FDA3E0FEA3E0FF125A89B7
:10305A0090047B122A5090047BE0FCA3E0FDA3E0DD
:10306A00FEA3E0FF9004A3122A50900477E0FCA389
:10307A00E0FDA3E0FEA3E0FF12682990046F122A84
:10308A0050E4FFFEFDFC90046FE0F8A3E0F9A3E032
:10309A00FAA3E0FB12232F501F90046FE0FCA3E079
:1030AA00FDA3E0FEA3E0FF7BD07A0F79C978401236
:1030BA00209890046F122A5090046BE0FCA3E0FD64
:1030CA00A3E0FEA3E0FF125A9F90047FE0F8A3E07A
:1030DA00F9A3E0FAA3E0FB122189126F1690047398
:0330EA00122A5057
:1030ED007FE07E927D867C3D90045FE0F8A3E0F961
:1030FD00A3E0FAA3E0FB1221897B4D7A5179D678B2
:10310D0040122098900463E0F8A3E0F9A3E0FAA33D
:10311D00E0FB12209890047F122A50E4FFFE7D7090
:10312D007C4190047FE0F8A3E0F9A3E0FAA3E0FB73
:10313D00122189900454E0F8A3E0F9A3E0FAA3E08A
:10314D00FB1220987B2E7AFA798E783C1221899089
:10315D000483122A5090046FE0F8A3E0F9A3E0FA7B
:10316D00A3E0FB900483E0FCA3E0FDA3E0FEA3E05D
:10317D00FF12209490048B122A507F2E7EFA7D8EA2
:10318D007C3C900458E0F8A3E0F9A3E0FAA3E0FB3F
:10319D00122189900487122A50900487E0FCA3E045
:1031AD00FDA3E0FEA3E0FF125A8990048F122A506E
:1031BD00900487E0FCA3E0FDA3E0FEA3E0FF125A1C
:1031CD009F900493122A5090048BE0FCA3E0FDA382
:1031DD00E0FEA3E0FF125A89900497122A50900442
:1031ED0073E0FCA3E0FDA3E0FEA3E0FF125A89C04B
:1031FD0004C005C006C007900497E0FCA3E0FDA342
:10320D00E0FEA3E0FF90048FE0F8A3E0F9A3E0FA5D
:10321D00A3E0FB122189D003D002D001D0001221EE
:10322D0089C004C005C006C007900473E0FCA3E08C
:10323D00FDA3E0FEA3E0FF125A9F900493E0F8A3D4
:10324D00E0F9A3E0FAA3E0FB122189D003D002D06C
:10325D0001D000122098126E0890045CE0FBA3E0F0
:10326D00FAA3E0F91229BA90048BE0FCA3E0FDA3C8
:10327D00E0FEA3E0FF125A9F1223A8900477122AB2
:10328D0050900473E0FCA3E0FDA3E0FEA3E0FF1269
:10329D005ADB90048FE0F8A3E0F9A3E0FAA3E0FB7A
:1032AD00122189C004C005C006C007900497E0FC38
:1032BD00A3E0FDA3E0FEA3E0FF900493E0F8A3E0FC
:1032CD00F9A3E0FAA3E0FB122189A804A905AA0637
:1032DD00AB07D007D006D005D00412209490047B04
:1032ED00122A5090047BE0FCA3E0FDA3E0FEA3E0D6
:1032FD00FF9004A3122A50900477E0FCA3E0FDA3F5
:10330D00E0FEA3E0FF12682990045CE0FBA3E0FA65
:10331D00A3E0F99000041229D490000412298AE444
:10332D00FBFAF9F812232F602F402D90045CE0FB7F
:10333D00A3E0FAA3E02404F9E43AFAC003C002C002
:10334D000112296A7BD07A0F79C97840122098D062
:10335D0001D002D0031229BA90045CE0FBA3E0FA7D
:10336D00A3E02404F9E43AFAC003C002C001122913
:10337D006A7B2E7AFA798E783C122292D001D00295
:10338D00D0031229BA90045CE0FBA3E0FAA3E0F9A4
:10339D0012296A125A9F7B0D7AA079327838122140
:1033AD008990049B122A5090045CE0FBA3E0FAA3E1
:1033BD00E0F912296A90049BE0F8A3E0F9A3E0FA82
:1033CD00A3E0FB1220987B2E7AFA798E783C12229C
:0F33DD009290045CE0FBA3E0FAA3E0F91229BA96
:0E33EC00900473E0FCA3E0FDA3E0FEA3E0FF6D
:0133FA0022B0
:1071F700C2A4C2A5C2A64391015392FEE4F59743E8
:0A7207009D01F5BDF5BE75BC8022A7
:10700B00EF4488F5BC0000E5BC30E4FB53BCEFAFAC
:10701B00BD7E00ADBE7C00EF7802C333CE33CED83D
:09702B00F9FFED5403FDEF4DFFE8
:017034002239
:10705D00252E34660041542B43495053454E443D33
:10706D00390D0A004A0D0A00570D0A004D0D0A0090
:08707D004C0D0A00540D0A003D
:10657400E4900432F0A3F0900430F0A3F0900432DD
:10658400A3E0FF12700BAC06AD07900431E025E0E8
:10659400FF900430E033FE741C2FF58274043EF542
:1065A40083ECF0A3EDF0900431E004F07006900465
:1065B40030E004F0C3900431E0940A900430E064C5
:1065C40080948040B8900430E4F0A304F090043048
:1065D400E0FEA3E0FFD39409EE648094805047EF7B
:1065E40025E0FFEE33FE741C2FF58274043EF58320
:1065F400E0FEA3E0FF90041CE0FCA3E0FDC3EF9DDC
:10660400FFEE9CFE127350D3EF941EEE64809480D0
:106614004004E4FEFF22900431E004F070AF9004E3
:0A66240030E004F080A77E007F0143
:01662E002249
:0B33FB0090041CEBF0A3EAF0A3E9F043
:10340600E490042DF0A3122A5C3F000000E490042F
:10341600E3F0A3F09005AD122A5C000000009006D0
:1034260005122A5C0000000012296AE4FBFA79A062
:103436007841122098900432122A50E49004E5F064
:10344600A3F09004E5E0FEA3E0FFC39451EE648090
:1034560094805025EF25E0FFEE33FE743F2FF58272
:1034660074043EF583E4F0A3F09004E6E004F07003
:10347600D19004E5E004F080C9E49004E5F0A3F0FF
:10348600E49004E7F0A3F09004E7E0FEA3E0FFC3B6
:103496009405EE648094805035EF4E70069004E3F8
:1034A600F0A3F090042DE0FF12700B9004E4E02FDF
:1034B600F09004E3E03EF07F027E001270FE90047E
:1034C600E8E004F070C19004E7E004F080B99004ED
:1034D600E3E0FEA3E0FF7C007D05122846AC06ADC6
:1034E600079004E6E025E0FF9004E5E033FE743F34
:1034F6002FF58274043EF583ECF0A3EDF09004EC16
:1035060074FFF0A37470F0A3745DF0900432E0FCD5
:10351600A3E0FDA3E0FEA3E0FF9004EF122A507B98
:10352600017A0479361246207BFF7A707962126F2F
:10353600517FC87E001270FE7B017A047936126FC5
:10354600517BFF7A707971126F517F907E011270F4
:10355600FE9004EC74FFF0A37470F0A3745DF09019
:1035660004E6E025E0FF9004E5E033FE743F2FF526
:103576008274043EF583E0FCA3E0FDEC1223BEE476
:10358600FBFA79807844122292E4FBFA79A078401B
:103596001221899004EF122A507B017A047936129F
:1035A60046207BFF7A707962126F517FC87E0012C7
:1035B60070FE7B017A047936126F517BFF7A70793F
:1035C60075126F517FC87E001270FEE4FFFEFDFC8F
:1035D6009005ADE0F8A3E0F9A3E0FAA3E0FB12231F
:1035E6002F603690062CE0FCA3E0FDA3E0FEA3E0EE
:1035F600FF9005ADE0F8A3E0F9A3E0FAA3E0FB1223
:10360600232F50059005AD800390062CE0FCA3E027
:10361600FDA3E0FEA3E0FF800E90062CE0FCA3E0F5
:10362600FDA3E0FEA3E0FF9005AD122A5090062C04
:10363600E0FCA3E0FDA3E0FEA3E0FF900605E0F8B2
:10364600A3E0F9A3E0FAA3E0FB12232F60074005ED
:10365600900605800390062CE0FCA3E0FDA3E0FEA7
:10366600A3E0FF900605122A507F08126E967F058A
:10367600126E967F41126B147F44126B147F4312B5
:103686006B147F3A126B149004E6E025E0FF900479
:10369600E5E033FE743F2FF58274043EF583E0FCCB
:1036A600A3E0FDEC1223BEE4FBFA798078441222F3
:1036B60092E4FBFA79A07840122189125D2F7F5699
:1036C600126B147F10126B147FC87E001270FE906E
:1036D60004EC74FFF0A37470F0A3745DF090041C06
:1036E600E0FBA3E0FAA3E0F912296A9004EF122A9C
:1036F600507B017A0479361246207BFF7A70796214
:10370600126F517FC87E001270FE7B017A047936F3
:10371600126F517BFF7A707979126F517FC87E00E4
:103726001270FE9004EC74FFF0A37470F0A3745D45
:10373600F090062CE0FCA3E0FDA3E0FEA3E0FF90E2
:1037460004EF122A507B017A0479361246207BFF59
:103756007A707962126F517FC87E001270FE7B010B
:103766007A047936126F517BFF7A70797D126F5128
:103776007FC87E001270FE90042EE0FCA3E0FDA33D
:10378600E0FEA3E0FFD20112703590041CE0FBA31B
:10379600E0FAA3E0F9C003C002C00112296AE4FB03
:1037A600FAF9783F122098D001D002D0031229BA34
:1037B6007FC87E001270FE9004EC7401F0A37404BE
:1037C600F0A3742BF0A37401F0A37404F0A3742A7D
:1037D600F0A37401F0A37404F0A37429F0A3740198
:1037E600F0A37404F0A37428F07B017A04792C12F8
:1037F6006BFB900429E0FF1271E6AC07E41223C3C9
:10380600E4FBFA79707842122292C004C005C00621
:10381600C00790042AE0FF1271E6AC07E41223C346
:10382600D003D002D001D000122098C004C005C039
:1038360006C007900428E0547FFF1271E6AC07E447
:103846001223C3E4FBFA79617845122292D003D0A1
:1038560002D001D0001220989004EF122A50900452
:10386600EC74FFF0A37470F0A3745DF07B017A042E
:1038760079361246207BFF7A707962126F517FC8C3
:103886007E001270FE7B017A047936126F517BFF3F
:103896007A707981126F517FC87E001270FE900493
:1038A600E6E004F070069004E5E004F0C39004E658
:1038B600E094519004E5E0648094805003023486DD
:1038C6007FE87E031270FE9004E5E07004A3E064D6
:1038D600516003023AEE7B017A04793F1268C69082
:1038E60004E1EEF0A3EFF0E025E0FF9004E1E03321
:1038F600FE743F2FF58274043EF583E0F9A3E0FFE2
:1039060090041FE0FBA3E0FAA3E0C98FF01228CAD7
:1039160090048FE0F9A3E0FF900422E0FBA3E0FA15
:10392600A3E0C98FF01228CA9004E1E0FEA3E0FFED
:10393600C374539FFDE49EFC1223BE90042EE0F850
:10394600A3E0F9A3E0FAA3E0FB122189C2011270F9
:103956003590041CE0FBA3E0FAA3E0F9C003C00223
:10396600C00112296AC004C005C006C0079004E160
:10397600E0FEA3E0FFC374539FFDE49EFC1223BE4A
:1039860090042EE0F8A3E0F9A3E0FAA3E0FB1221ED
:1039960089A804A905AA06AB07D007D006D005D08A
:1039A60004122094D001D002D0031229BA9004EC5C
:1039B60074FFF0A37470F0A3745DF090041CE0FB38
:1039C600A3E0FAA3E0F912296A9004EF122A507BC9
:1039D600017A0479361246207BFF7A707962126F7B
:1039E600517FC87E001270FE7B017A047936126F11
:1039F600517BFF7A707979126F517FC87E00127001
:103A0600FE9004EC7401F0A37404F0A3742BF0A3ED
:103A16007401F0A37404F0A3742AF0A37401F0A354
:103A26007404F0A37429F0A37401F0A37404F0A342
:103A36007428F07B017A04792C126BFB900429E040
:103A4600FF1271E6AC07E41223C3E4FBFA7970783F
:103A560042122292C004C005C006C00790042AE0A4
:103A6600FF1271E6AC07E41223C3D003D002D001E3
:103A7600D000122098C004C005C006C007900428D4
:103A8600E0547FFF1271E6AC07E41223C3E4FBFAAD
:103A960079617845122292D003D002D001D000126B
:103AA60020989004EF122A509004EC74FFF0A3744F
:103AB60070F0A3745DF07B017A0479361246207BA0
:103AC600FF7A707962126F517FC87E001270FE7B9A
:103AD600017A047936126F517BFF7A707981126F01
:083AE600517FC87E001270FE42
:013AEE0022B5
:1068C600E4FDFC9004E9F0A37428F0E4A3F0A3F03F
:1068D6009004EBE0FEA3E0FFC39451EE94005073E6
:1068E600EF25E0FFEE338F82F583122892FFD3ED7A
:1068F6009FEC95F04006AE04AF0580169004ECE0E0
:1069060025E0FF9004EBE0338F82F583122892FF97
:10691600AEF0AC06AD079004ECE025E0FF9004EB8A
:10692600E0338F82F583122892B50516ECB5F01286
:106936004D600F9004EBE0FFA3E09004E9CFF0A3D5
:10694600EFF09004ECE004F070869004EBE004F0C5
:0B6956000268D69004E9E0FEA3E0FF19
:016961002213
:0B5564009003F8EFF0A3EDF0A3EBF0D4
:10556F0090040C122A5C00000000E4900410F0A3D9
:10557F00F0A3F0A3F0900409E0FBA3E0FAA3E0F995
:10558F0012296A900414122A509003FDE0FBA3E045
:10559F00FAA3E0F912296A900418122A5090040015
:1055AF00E0FBA3E0FAA3E0F9E4F5F01228CA9004B7
:1055BF0006E0FBA3E0FAA3E0F9E4F5F01228CA90A5
:1055CF000403E0FBA3E0FAA3E0F9122A8D00000028
:1055DF00009005AD122A5C00000000900605122A0B
:1055EF005C00000000126574EF4E700302572590A7
:1055FF0003FBE090041FF09003FCE0900420F0A365
:10560F007401F0A37404F0A37418F0A3122A5CC100
:10561F00A000009003FAE0FB9003F9E0FD9003F87F
:10562F00E0FF123AEFE4FFFE7DA07C41900418E00A
:10563F00F8A3E0F9A3E0FAA3E0FB1220989004038B
:10564F00E0FBA3E0FAA3E0F91229BA90041F74015A
:10565F00F0A37404F0A37410F0A37401F0A3740406
:10566F00F0A37412F0A37401F0A37404F0A37414E4
:10567F00F07B017A0479181233FB900414E0FCA339
:10568F00E0FDA3E0FEA3E0FF900409E0FBA3E0FA36
:10569F00A3E0F91229BA900410E0F9A3E0FF9004F7
:1056AF0000E0FBA3E0FAA3E0C98FF01228CA900430
:1056BF0012E0F9A3E0FF900406E0FBA3E0FAA3E0F9
:1056CF00C98FF01228CA900403E0FBA3E0FAA3E00D
:1056DF00F9122A30900418E0FCA3E0FDA3E0FEA32A
:1056EF00E0FF12209490040C122A50900418E0FC52
:1056FF00A3E0FDA3E0FEA3E0FF9003FDE0FBA3E02A
:10570F00FAA3E0F91229BA90040CE0FCA3E0FDA380
:0B571F00E0FEA3E0FF22E4FFFEFDFC23
:01572A00225C
:1070D300C3EC64809480401CED25E0FFEC338F8289
:1070E300F583122892640145F07005AF05AE0422C2
:0470F300E4FEFF2296
:0170F7002276
:0D6FB5007F027E00126FC2D2CC7F027E00F0
:106FC200EF1FAA0670011E4A6013E4FCFDC3ED9494
:0D6FD20009EC940050EA0DBD00010C80F0A8
:016FDF00228F
:0173970022D3
:0F72F000D2CCD2C7126FBEC2C7126FBEC2CC22A1
:10728000C2CCC2C7126FBED2CCC2C77F047E00126E
:057290006FC2D2C7220D
:10724000E425E0FBC2CC126FBE30C704EB4401FB67
:05725000126FBCAF034A
:017255002216
:05738B00126FB5C2CC39
:0173900022DA
:0E72FF00C2CCD2C7126FB5C2CC126FBEC2C7CE
:01730D00225D
:05708500F91227A0FF35
:02708A00A90754
:10708C00E4FBC2CCE930E704D2C78002C2C7126F5E
:0F709C00BED2CCE925E0F9126FBE0BEBB408E3CE
:0170AB0022C2
:10662F009004F1EBF0A3EAF0A3E9F01272F07F010E
:10663F007E00126FC27F4012708A127240EF70128A
:10664F009004F1E0FBA3E0FAA3E0F9122787FF1211
:10665F00708A127240EF70109004F1E0FBA3E0FA21
:10666F00A3E0900001127085127240EF7010900439
:10667F00F1E0FBA3E0FAA3E0900002127085127222
:10668F0040EF70119004F1E0FBA3E0FAA3E0F99062
:10669F000003127086127240EF70119004F1E0FB4C
:1066AF00A3E0FAA3E0F9900004127086127240EF93
:1066BF0070119004F1E0FBA3E0FAA3E0F99000055C
:0D66CF00127086127240EF7003127280226A
:0D6FE0007F057E00126FEDD2C37F057E009D
:106FED00EF1FAA0670011E4A6013E4FCFDC3ED9469
:0D6FFD0004EC940050EA0DBD00010C80F082
:01700A002263
:106C6A007B6053B3F143B407C2C1126FE9E49003E6
:106C7A00F8F0A3F0C2C3126FE9EB30E704D2C28086
:106C8A0002C2C2126FE0EB25E0FB9003F9E004F0C8
:106C9A0070069003F8E004F0C39003F9E0940890BA
:106CAA0003F8E06480948040CBD2C17F0A7E001250
:096CBA006FED126788EF20E0F98C
:016CC30022AE
:106B89007F327E00126FED900403E0FBA3E0FAA3CD
:106B9900E0F912296AEF2401FFE43EFEE43DFDE439
:056BA9003CFC1229BABA
:106BAE007B06C2C1E4900406F0A3F0C2C3126FE9E3
:106BBE00EB30E704D2C28002C2C2126FE0EB25E0D6
:106BCE00FB900407E004F07006900406E004F0C3A6
:106BDE00900407E09408900406E06480948040CB13
:0C6BEE00D2C1126FE9126788EF20E0F9B5
:016BFA002278
:0761DF00E090040BF07F02C9
:0261E600AB0705
:1061E800C2C1126FE9E490040CF0A3F0C2C3126FAD
:1061F800E9EB30E704D2C28002C2C2126FE0EB259D
:10620800E0FB90040DE004F0700690040CE004F04C
:10621800C390040DE0940890040CE06480948040DE
:10622800CBE490040CF0A3F0C2C3126FE99004070A
:10623800A3E0FDA3A3E4FFFEED5480FDE4FCFBFA1C
:106248007980F8C31229467004D2C28002C2C212F1
:106258006FE0900407E0FCA3E0FDA3E0FEA3E0FFED
:106268007801122957900407122A5090040DE0046F
:10627800F0700690040CE004F0C390040DE094184C
:1062880090040CE064809480409EE490040CF0A399
:10629800F0C2C3126FE990040BE030E704D2C28069
:1062A80002C2C2126FE090040BE025E0F090040DEA
:1062B800E004F0700690040CE004F0C390040DE0D4
:1062C800940890040CE06480948040C5D2C1126F99
:0862D800E9126788EF20E0F9EC
:0162E000229B
:0260CF00AB071D
:1060D100E49003FDF0C2C17F05FE126FEDE4A3F071
:1060E100A3F0C2C3126FE9EB30E704D2C28002C24F
:1060F100C2126FE0EB25E0FB9003FFE004F07006B5
:106101009003FEE004F0C39003FFE094089003FEC7
:10611100E06480948040CBE49003FEF0A3F0C2C31E
:10612100126FE99003F9A3E0FDA3A3E4FFFEED5490
:1061310080FDE4FCFBFA7980F8C31229467004D291
:10614100C28002C2C2126FE09003F9E0FCA3E0FD3D
:10615100A3E0FEA3E0FF78011229579003F9122A68
:10616100509003FFE004F070069003FEE004F0C3DA
:106171009003FFE094189003FEE064809480409EB9
:106181007F0A7E00126FEDD2C47F027E00126FED96
:10619100E49003FEF0A3F09003FDE025E0F0126F20
:1061A100E7C2C3126FE930C404E04401F09003FF79
:1061B100E004F070069003FEE004F0C39003FFE0FA
:1061C10094089003FEE06480948040CBD2C1126FAA
:0D61D100E9126788EF20E0F99003FDE0FF80
:0161DE00229E
:10678800E4FB90040EF0A3F0A3F07905C2C17F05E5
:10679800FE126FEDE490040FF0A3F0C2C3126FE98C
:1067A800E930E704D2C28002C2C2126FE0E925E0F4
:1067B800F9900410E004F0700690040FE004F0C3B0
:1067C800900410E0940890040FE06480948040CB1B
:1067D8007F0A7E00126FEDD2C47F027E00126FED39
:1067E800E490040FF0A3F0EB25E0FB126FE7C2C3BF
:1067F800126FE930C404EB4401FB900410E004F08C
:10680800700690040FE004F0C3900410E094089020
:10681800040FE06480948040CED2C1126FE9AF03C8
:01682800224D
:1058B800126BAE900403E0FBA3E0FAA3E0F912290F
:1058C8006A900407122A509003F81261DF900403CB
:1058D800E0FBA3E0FAA3E0F912296AEF2401FFE450
:1058E8003EFEE43DFDE43CFC1229BA7F327E001204
:1058F8006FED126BAE900403E0FBA3E0FAA3E0F9AE
:1059080012296A900407122A509003F91261DF12D3
:105918006B89900403E0FBA3E0FAA3E0F912296A7B
:10592800900407122A509003FA1261DF126B8990D3
:105938000403E0FBA3E0FAA3E0F912296A90040744
:10594800122A509003FB1261DF126B89900403E066
:10595800FBA3E0FAA3E0F912296A900407122A507F
:105968009003FC1261DF126B89900403E0FBA3E053
:10597800FAA3E0F912296A900407122A509003FD4D
:105988001261DF126B89900403E0FBA3E0FAA3E045
:10599800F912296A900407122A509003FE1261DF57
:1059A800126B89900403E0FBA3E0FAA3E0F9122943
:1059B8006A900407122A509003FF1261DF126B8964
:1059C800900403E0FBA3E0FAA3E0F912296A90042B
:1059D80007122A509004001261DF126B89900403A9
:1059E800E0FBA3E0FAA3E0F912296A900407122A5F
:1059F800509004011261DF126B89900403E0FBA34D
:105A0800E0FAA3E0F912296A900407122A509004D8
:105A1800021261DF7F327E00126FED900403E0FB1B
:105A2800A3E0FAA3E0F912296AEF2401FFE43EFE9D
:095A3800E43DFDE43CFC0229BA46
:106F8400D296C294C2957F0A7E001270FED296D227
:106F940094D2957F0A7E001270FEC2967F0A7E000C
:106FA4001270FEC294C2957F0A7E001270FED295C2
:016FB40022BA
:0D732A0053B2FB43B104C288D2A8D2AF22F7
:106D730041542B43495053544152543D22544350A0
:106D8300222C223139322E3136382E31312E323007
:106D930033222C383038300D0A0041542B434950EC
:106DA30053454E443D31360D0A0048656C6C6F20E7
:0B6DB30066726F6D204553500D0A0002
:1072DF00759850438E9575D7D875D6FFD2ACD2AF6F
:0172EF00227C
:106F51009004E9EBF0A3EAF0A3E9F09004E9E0FB87
:106F6100A3E0FAA3E0F912278760179004E9A3E4EC
:106F710075F00112287CA9F0FA122787FF127379A4
:036F810080D92292
:06739100EFC4540FFF22BF
:05000600EF540FFF2282
:0173980022D2
:05001E00EF2430FF2279
:107229001263D6EF75F00A84FEEF75F00A84AFF0A9
:06723900EEC454F04FFF0B
:01723F00222C
:097382007BFF7A6D7973026F51F3
:10711C009003F8EBF0A3EAF0A3E9F07BFF7A6D792A
