:102D4D004305BC6868004305BF6D6D0042055E001C
:102D5D00004205D800004205B500004205B900004B
:102D6D0044052F68686D6D4405CC000000004105D9
:102D7D00331E4405C2000000004205CA0000410593
:0E2D8D00D6004204D300004404D768686D6D80
:03000B00024F920F
:104F9200C0E0C083C082758A88758C969005CBE08C
:104FA20004F070069005CAE004F0D082D083D0E00D
:014FB20032CC
:03001B000251B5DA
:0951B500B295758B88758D963258
:030003000249EFC0
:1049EF00C0E0C0F0C083C082C0D075D000C000C08E
:1049FF0004C005C006C00720B20C758A88758C9656
:104A0F00D28CD2A9804AC28CAF8C7E00E58A2480DA
:104A1F00FDEFA805088005C333CE33CED8F9FF7C50
:104A2F00007D1B1211FE9005D2EEF0A3EFF0900562
:104A3F00CAE0FEA3E0FF7C037DE81211EC9005D3E2
:104A4F00E02FF09005D2E03EF09005CAE4F0A3F01D
:104A5F00D007D006D005D004D000D0D0D082D083DC
:054A6F00D0F0D0E032A0
:10001E009003BE7401F0E4A3F0A3F0A3F0A3F0A349
:10002E00F0A3F09003E0F0A3F09003E41214690043
:10003E000000009005EFE4F0A304F0E49005EBF06F
:10004E00A3F09005E9F0A3F09005F1F0A3F0F5B15F
:10005E0075B2FF75B04C124C2812000E125195124B
:10006E004FF3124E471251881250C2438E80758A3A
:10007E0088758C96E4F589758B88758D96D28ED29F
:10008E00ABD2AF7D067F121250687FF47E01125004
:10009E00127D05E4FF1250687FF47E011250127F2C
:1000AE00017E001250AD7F68124A787F68124A783E
:1000BE007F6D124A787F6D124A787F23124A78E458
:1000CE009003E2F0A3F09003E2E0FAA3E0FBD394F6
:1000DE0014EA648094805074EBAE027802C333CE7F
:1000EE0033CED8F924DBF58274043EF583121469FD
:1000FE0000000000AD03AC02EC120F97E4FBFAF91E
:10010E007840120E6BE4FBFA79E07840120C71C065
:10011E0004C005C006C0079003E2E0FEA3E078022B
:10012E00C333CE33CED8F92460F58274053EF58301
:10013E00D007D006D005D00412145D9003E3E0047E
:10014E00F070839003E2E004F00200D412315C7F81
:10015E0008124D597F05124D597F50124A787F4F24
:10016E00124A787F53124A787F3A124A789005CC19
:10017E00E0FCA3E0FDA3E0FEA3E0FF123EB97F6D1D
:10018E00124A787F6D124A787F027E001250AD902F
:10019E0005B8E0FF1250307F3A124A789005BBE066
:1001AE00FF1250307F3A124A789005D7E0547FFF05
:1001BE001250307F3B124A789005B4E0FF12503057
:1001CE009005B7E0FF1250307F3B124A789005ED54
:1001DE00E07002A3E060047F41800C9005EDE070BA
:1001EE0002A3E070057F4D124A789005EBE0700295
:1001FE00A3E060649005EDE07002A3E0705A9005F4
:10020E00EFE0FEA3E0FFEE4F24FF92017F2A7E0077
:10021E00124D999005EFE07004A3E064019005CCB7
:10022E007015E0FCA3E0FDA3E0FEA3E0FF7BCD7A1A
:10023E00CC79CC783E8013E0FCA3E0FDA3E0FEA3D6
:10024E00E0FF7BCD7ACC79CC78BE120C719005CCC8
:10025E0012145DE49003BEF09005E9E07002A3E095
:10026E00606A9005EDE07002A3E070609005EFE02B
:10027E00FEA3E0FFEE4F24FF92017F2A7E00124D77
:10028E00999005EFE07004A3E064019005CC701521
:10029E00E0FCA3E0FDA3E0FEA3E0FF7BCD7ACC79EA
:1002AE00CC783E8013E0FCA3E0FDA3E0FEA3E0FFCC
:1002BE007BCD7ACC79CC78BE120C719005CC121411
:1002CE005DE49003BEF09005E9F0A3F030A34390F7
:1002DE0003BEE0703DFFFEFDFC9005CCE0F8A3E010
:1002EE00F9A3E0FAA3E0FB120F0860025024900578
:1002FE00CC121469000000009003BE7401F0E4906B
:10030E0005EBF0A3F09005E9F0A3F09005EFF0A354
:10031E0004F01251A19005D0E0A3F09005B8E09042
:10032E0005D0F09005D4E0A3F09005BBE09005D485
:10033E00F09003EB7401F0A37405F0A374B7F0A36F
:10034E007401F0A37405F0A374B8F0A37401F0A3C4
:10035E007405F0A374BBF0A37401F0A37405F0A3AD
:10036E0074D7F07B017A0579B4124B5F9005EDE0FE
:10037E007002A3E07003020BAC7F02124E78900362
:10038E00BCEEF0A3EFF09005D5E0FE9005D4E06E44
:10039E006003020BAC9005BBE0FFEE6F6003020B37
:1003AE00AC9005B8E0FE9005D0E0FD6E6003020B48
:1003BE00ACA3E06D6003020BAC125057900533E016
:1003CE00FEEF8EF084E5F0600302083B9005D7E067
:1003DE00547FFF125057EF600302083B9005B8E0C0
:1003EE00FF125057EFD3941040030208259005B822
:1003FE00E0FF125057EFC3940750030208259005F3
:10040E00B4E0FF9005B7E0FDA3E0FB9005BBE090E4
:10041E0003EBF09005D7E09003ECF01234E8123DB8
:10042E008FE4FBFA797A7843120D62C004C005C0DE
:10043E0006C0079003BCE0FCA3E0FDE4120F97A8F2
:10044E0004A905AA06AB07D007D006D005D0041222
:10045E000F0850030205879005BBE0FF125057AC02
:10046E0007E4120F9CE4FBFA79707842120E6BC00F
:10047E0004C005C006C0079005B8E0FF125057AC87
:10048E0007E4120F9CD003D002D001D000120C71E1
:10049E00E4FBFA79E078C0120C71E4FBFA7970781B
:1004AE0042120D62C004C005C006C007900533E0BD
:1004BE00FCE4120F9CA804A905AA06AB07D007D02E
:1004CE0006D005D004120E6B120FD09005B5EEF0CB
:1004DE00A3EFF0E025E0FF9005B5E033FE74342F76
:1004EE00F58274053EF583E4F0A304F09005B4E0C4
:1004FE00FF9005B7E0FD9005BBE09003EBF0900593
:10050E00D7E09003ECF0A37401F0A37405F0A3748C
:10051E00CCF0A37401F0A37403F0A374C3F0A3741E
:10052E0001F0A37403F0A374E4F0A37401F0A374B8
:10053E0003F0A374C1F0A37401F0A37405F0A374C7
:10054E00C2F09005B8E0FB123868C004C005C006C2
:10055E00C0079005B5E0FEA3E07802C333CE33CEDC
:10056E00D8F924DBF58274043EF583D007D006D08B
:10057E0005D00412145D020710E49005B5F0A3F047
:10058E00124B129005C2E0FCA3E0FDA3E0FEA3E037
:10059E00FF9004C812145DE49004CCF07F02124266
:1005AE00547F327E00124EDC9005C2E0FCA3E0FDCB
:1005BE00A3E0FEA3E02401FFE43EFEE43DFDE43CA7
:1005CE00FC9005C212145D9005B6E004F070069022
:1005DE0005B5E004F0D39005B6E094439005B5E080
:1005EE0064809481409A9005BBE0FF125057AC078F
:1005FE00E4120F9CE4FBFA79707842120E6BC00481
:10060E00C005C006C0079005B8E0FF125057AC07F2
:10061E00E4120F9CD003D002D001D000120C71E472
:10062E00FBFA79E078C0120C71E4FBFA797078422B
:10063E00120D62C004C005C006C007900533E0FC71
:10064E00E4120F9CA804A905AA06AB07D007D00692
:10065E00D005D004120E6B120FD09005B5EEF0A39C
:10066E00EFF0E025E0FF9005B5E033FE74342FF592
:10067E008274053EF583E4F0A3F09005BBE0900490
:10068E000FF09005D7E0900410F0A37401F0A3745E
:10069E0005F0A374CCF09005B5E0FEA3E07802C39C
:1006AE0033CE33CED8F924DBF58274043EF583E0E5
:1006BE00FCA3E0FDA3E0FEA3E0FF90041412145D82
:1006CE009005B8E0FB9005B7E0FD9005B4E0FF1291
:1006DE001DC29005CCE0FCA3E0FDA3E0FEA3E0FF6D
:1006EE009003E412145DE4FF124E789003C3EEF013
:1006FE00A3EFF09003C3E0FFA3E09003C1CFF0A3FC
:10070E00EFF09005B4E09003D5F09005B7E09003BC
:10071E00D6F09005B8E09003D7F09005BBE09003BB
:10072E00D8F09003C3E0FEA3E07802CEC313CE133D
:10073E00D8F99003D9F09005CCE0FCA3E0FDA3E03E
:10074E00FEA3E0FF120FD09003DAEFF0FCE4120FDD
:10075E009CA804A905AA06AB079005CCE0FCA3E073
:10076E00FDA3E0FEA3E0FF120C6DE4FBFA79C8785E
:10077E0042120D62120FD09003DBEFF09005D2E023
:10078E00FEA3E07802CEC313CE13D8F99003DCF0AB
:10079E009003C1E0FEA3E07802CEC313CE13D8F9C6
:1007AE009003DDF09003E4E0FCA3E0FDA3E0FEA3E4
:1007BE00E0FF120FD09003DEEFF0FCE4120F9CA8C6
:1007CE0004A905AA06AB079003E4E0FCA3E0FDA391
:1007DE00E0FEA3E0FF120C6DE4FBFA79C87842123A
:1007EE000D62120FD09003DFEFF07F327E00124EBB
:1007FE00DC78E87C037D017B017A0379D57E007F6E
:10080E000B12116E9003F37401F0A37405F0A37430
:10081E00C2F0123BA880169005B8E0FF125057EFB9
:10082E00C3941140089003BFE4F0A304F09003BFFB
:10083E00E07002A3E0600302093E9005B8E0FF12EB
:10084E005057EFD394104003020BAC9005B8E0FF65
:10085E00125057EFC394075003020BAC9005BBE048
:10086E00FF125057AC07E4120F9CE4FBFA79707834
:10087E0042120E6BC004C005C006C0079005B8E05A
:10088E00FF125057AC07E4120F9CD003D002D001D8
:10089E00D000120C71E4FBFA79E078C0120C71E40E
:1008AE00FBFA79707842120D62C004C005C006C012
:1008BE0007900533E0FCE4120F9CA804A905AA06D4
:1008CE00AB07D007D006D005D004120E6B120FD096
:1008DE009005B5EEF0A3EFF09005BBE090040FF09D
:1008EE009005D7E0900410F0A37401F0A37405F006
:1008FE00A374CCF09005B5E0FEA3E07802C333CE2E
:10090E0033CED8F924DBF58274043EF583E0FCA3E4
:10091E00E0FDA3E0FEA3E0FF90041412145D900529
:10092E00B8E0FB9005B7E0FD9005B4E0FF020BA91F
:10093E009005B8E0FF125057EFD394104003020B0E
:10094E00AC9005B8E0FF125057EFC3940750030266
:10095E000BAC9005BBE0FF125057AC07E4120F9C96
:10096E00E4FBFA79707842120E6BC004C005C00623
:10097E00C0079005B8E0FF125057AC07E4120F9C69
:10098E00D003D002D001D000120C71E4FBFA79E052
:10099E0078C0120C71E4FBFA79707842120D62C0C5
:1009AE0004C005C006C007900533E0FCE4120F9C9E
:1009BE00A804A905AA06AB07D007D006D005D00417
:1009CE00120E6B120FD09005B5EEF0A3EFF090055E
:1009DE00B5E0FEA3E07802C333CE33CED8F9FBAA3E
:1009EE00062460F58274053AF583E0FCA3E0FDA3CE
:1009FE00E0FEA3E0FF9003C512145D74DB2BF582BD
:100A0E0074043AF583E0FCA3E0FDA3E0FEA3E0FF4F
:100A1E009003C912145D9005B5E0FAA3E0FBAE0297
:100A2E007802C333CE33CED8F92464F58274053EF2
:100A3E00F583E0FCA3E0FDA3E0FEA3E0FF9003CD71
:100A4E0012145DEB25E0FFEA33FE74342FF5827449
:100A5E00053EF583E0FCA3E064014C6003020B4904
:100A6E0074362FF58274053EF583E0FEA3E0640133
:100A7E004E6003020B499005B5E0FEA3E07802C379
:100A8E0033CE33CED8F924DFF58274043EF583E0FD
:100A9E00FCA3E0FDA3E0FEA3E0FF9003D112145DE2
:100AAE009005BBE0FF125057AC07E4120F9CE4FB1D
:100ABE00FA79707842120E6BC004C005C006C007EA
:100ACE009005B8E0FF125057AC07E4120F9CD0030C
:100ADE00D002D001D000120C719004A612145D78D1
:100AEE00967C047D017B017A0379C57E007F081216
:100AFE00116E789E7C047D017B017A0379CD7E0098
:100B0E007F0812116E12444D90041412145D90055C
:100B1E00B4E0FF9005B7E0FD9005BBE090040FF048
:100B2E009005D7E0900410F0A37401F0A37405F0C3
:100B3E00A374CCF09005B8E0FB80607B017A057958
:100B4E00349005B5E0FCA3E0FD124F49EF7802C3E7
:100B5E0033CE33CED8F924DBF58274043EF583E030
:100B6E00FCA3E0FDA3E0FEA3E0FF90041412145DCD
:100B7E009005B4E0FF9005B7E0FD9005BBE0900452
:100B8E000FF09005D7E0900410F0A37401F0A37459
:100B9E0005F0A374CCF09005B8E0FB121DC29005D1
:100BAE00B8E0FF125057EFD3941050129005B8E0F2
:100BBE00FF125057EFC394074004D2CD8002C2CD2E
:100BCE009005F1E07004A3E06401600302015A1283
:100BDE0051AB7F017E001250AD7F43124A787F4C9D
:100BEE00124A787F45124A787F41124A787F521214
:100BFE004A787F2E124A787F2E124A787F46124A02
:100C0E00787F4C124A787F41124A787F53124A7885
:100C1E007F48124A78124B12124BCE7F057E00127D
:100C2E004EDC9005C212146900000000E49005F13C
:100C3E00F0A3F01251AB7F08124D59E4FF124D593B
:100C4E007F68124A787F68124A787F6D124A787FE1
:0C0C5E006D124A787F23124A7802015A76
:0650EC00D2A27F017E004C
:0E50F200EF1FAC0670011E4C60030080F3221D
:024FB300AD0748
:104FB500E4FBC2A2ED30E704D2A18002C2A11250E7
:0D4FC500EE1250ECED25E0FD0BEBB408E51D
:014FD20022BC
:104FD300E4FDD2A1FBED25E0FDC2A21250EE30A10B
:0F4FE30004ED4401FD1250EC0BEBB408E8AF05F0
:014FF200229C
:10512800E4FED2A0EF44A0FF124FB3124FD3C2A0A7
:015138002254
:10506800AA07D2A0ED4420FF124FB3AF02124FB3EC
:08507800AF02124FB3C2A022E7
:0D000E005395F85396F8D2A0C2A0C2A222CA
:104B5F009003E8EBF0A3EAF0A3E9F07F09125128E4
:104B6F009003E8E0FBA3E0FAA3E0F9EF1211DA7F7C
:104B7F00071251289003EBE0FBA3E0FAA3E0F9EF53
:104B8F001211DA7F061251289003EEE0FBA3E0FA30
:104B9F00A3E0F9EF1211DA7F051251289003F1E02B
:104BAF00FBA3E0FAA3E0F9EF1211DA7F0412512808
:0F4BBF009003F4E0FBA3E0FAA3E0F9EF0211DAB0
:10513900EFC4540FFEEF540FFFEE75F00AA42FFFD2
:015149002243
:10496700125139AC07AF05125139EC14B40C005091
:104977007390498675F003A4C58325F0C583730238
:1049870049AA0249AD0249B20249B70249BC0249E4
:10499700C10249C60249CB0249D00249D80249DDC2
:1049A7000249E27E0022EF241F8021EF243B801C76
:1049B700EF245A8017EF24788012EF2497800DEFA9
:1049C70024B58008EF24D48003EF24F3FFE433FEFB
:1049D70022EF24118008EF24308003EF244EFFE4F8
:0749E7003401FE22E4FEFF93
:0149EE0022A6
:10514A00759850438E9575D7D875D6FFD2ACD2AF25
:01515A002232
:104E1400900600EBF0A3EAF0A3E9F0900600E0FBB3
:104E2400A3E0FAA3E0F91211946017900600A3E43A
:104E340075F001121289A9F0FA121194FF12000000
:034E440080D922F0
:0651BE00EFC4540FFF22B4
:05000600EF540FFF2282
:0151CF0022BD
:0551CA00EF2430FF227C
:1050800012434FEF75F00A84FEEF75F00A84AFF01B
:06509000EEC454F04FFFD6
:0150960022F7
:104C2800E4F5917592FF7F96FE124F747F03124D43
:104C3800597F1E7E00124F747F03124D59124F7018
:104C48007F03124D59124F707F02124D597F017E1A
:104C580000124F747F02124D597F08124D59E4FF1C
:104C6800124D597F0E124D59E4FF124D597F06120D
:094C78004D597F147E00024F74B7
:044A7400E04430FFEB
:104A78009004D1EFF0D2C0C293E0FF5480C4131366
:104A880013540124FF92B7EF5440C4131354032462
:104A9800FF92B6E0FF5420C413540724FF92B5EFE9
:104AA8005410C4540F24FF92B4D2B37F017E001275
:104AB8004F74C2B39004D1E0FF5408131313541F6A
:104AC80024FF92B7EF54041313543F24FF92B6E027
:104AD800FF5402C31324FF92B5EF1392B4124F6E22
:054AE800C2B3C2C022B0
:104D5900C2C0C293EF5408131313541F6004D2B78F
:104D69008002C2B7EF54041313543F6004D2B680D3
:104D790002C2B6EF5402C3136004D2B58002C2B5B1
:104D8900EF30E004D2B48002C2B4124F6EC2B32233
:064F6E00D2B37F0A7E00B1
:104F7400EF1FAA0670011E4A6013E4FCFDC3ED9402
:0D4F840058EC940250EA0DBD00010C80F0C5
:014F910022FD
:10503000EFC4540F4430FEEF540F44309003E8F0B7
:0D504000AF06124A789003E8E0FF024A78BC
:0A51A100E4FF124D597F02024D5940
:0A51AB00E4FF124D597F01024D5937
:1050AD00EF64014E70047F0880027F0C124D59E4AD
:0550BD00FF124D592215
:063EB9009004C712145D25
:103EBF009004C7E0FCA3E0FDA3E0FEA3E0FF120F18
:103ECF00D01251009004CFEEF0A3EFF0E4FFFEFD0F
:103EDF00FC9004C7E0F8A3E0F9A3E0FAA3E0FB121B
:103EEF000F08602640249004CFE0FCA3E0FDEC1205
:103EFF000F97A804A905AA06AB079004C7E0FCA377
:103F0F00E0FDA3E0FEA3E0FF80359004C7E0FCA333
:103F1F00E0FDA3E0FEA3E0FF120F81C004C005C0C7
:103F2F0006C0079004CFE0FCA3E0FDEC120F97A8AA
:103F3F0004A905AA06AB07D007D006D005D00412F6
:103F4F000C6DE4FBFA79207841120D62120FD090BC
:103F5F0004CEEFF09004CFE0FAA3E0FB7C007D0AE3
:103F6F00FFAE021212539004CBEDF07C037DE8AF4D
:103F7F0003AE02121253AB077E007C037DE81211D1
:103F8F00ECC39004D0E09FFF9004CFE09EFE7C0036
:103F9F007D641211FE9004CDEFF0AF037E007C0321
:103FAF007DE81211ECC39004D0E09FFD9004CFE0A8
:103FBF009EFC9004CDE075F064A4FFC3ED9FFFEC71
:103FCF0095F0FE7C007D0A1211FE9004CCEFF0E418
:103FDF00FFFEFDFC9004C7E0F8A3E0F9A3E0FAA30D
:103FEF00E0FB120F08400280057F2D124A789004E3
:103FFF00CD124A749004CC124A749004CB124A74B6
:0B400F007F2E124A789004CE124A74F3
:01401A002283
:10510000D3EF9400EE64809480400122C3E49FFFBB
:04511000E49EFE22F9
:102D9B004205EB00004205E900004205EF0000424E
:0D2DAB0005ED00004205F100004105DA00D1
:10501200EF1FAA0670011E4A6013E4FCFDC3ED9463
:0D50220058EC940250EA0DBD00010C80F026
:01502F00225E
:103A1B0053801E43801EE58044E19003EEF0E0F4FA
:103A2B007003023BA5E58044E1F0E0F47003023B38
:103A3B00A25380DF4380C1E58044E1F0E0F46047AE
:103A4B009003EEE0FFF4600DA3EFF0E58044E1900E
:103A5B0003EEF080EB9003EFE02411602424F86078
:103A6B001824FC600C24FE701E9003F07401F0808F
:103A7B00169003F07404F0800E9003F07407F0803E
:103A8B00069003F0740CF05380BF4380A1E5804493
:103A9B00E19003EEF0E0F460469003EEE0FFF4609B
:103AAB000DA3EFF0E58044E19003EEF080EB900383
:103ABB00EFE02411602424F8601824FC600C24FE31
:103ACB00701D9003F07402F080159003F07405F0F4
:103ADB00800D9003F07408F08005E49003F0F05330
:103AEB00807F438061E58044E19003EEF0E0F46079
:103AFB00479003EEE0FFF4600DA3EFF0E58044E1A7
:103B0B009003EEF080EB9003EFE02411602424F897
:103B1B00601824FC600C24FE701E9003F07403F0FC
:103B2B0080169003F07406F0800E9003F07409F089
:103B3B0080069003F0740BF05380FE4380E0E58029
:103B4B0044E19003EEF0E0F460479003EEE0FFF405
:103B5B00600DA3EFF0E58044E19003EEF080EB9075
:103B6B0003EFE02411602424F8601824FC600C247B
:103B7B00FE701E9003F0740DF080169003F0740E1F
:103B8B00F0800E9003F0740FF080069003F0741029
:0C3B9B00F09003F0E0FF227F64227F64C2
:013BA70022FB
:10315C009005DDE0FFA3E09005DBCFF0A3EFF012CC
:10316C003A1B7E009005DDEEF0A3EFF0640E7006C6
:10317C009005E90232099005DBE0FEA3E0FF6464F0
:10318C004E7020A3E07004A3E0640F70169005EF5E
:10319C00E07002A3E06006E49005EF80589005EF24
:1031AC00E4805A9005DDE0FCA3E0FD64104C700F48
:1031BC009005EBE07002A3E070059005EB803EED0E
:1031CC0064104C70109005EBE07002A3E06006E414
:1031DC009005EB8020EF64644E70279005DDE07065
:1031EC0004A3E0640D701B9005EDE07002A3E06099
:1031FC0008E49005EDF0A3F0229005EDE4F0A304B3
:10320C00F0229005DBE07004A3E0646460030234F8
:10321C00E79005DDE0FCA3E0FD64644C7003023430
:10322C00E79005DAE0FF3395E0FEEF25E0FFEE33A3
:10323C00FE74DF2FF58274053EF583ECF0A3EDF000
:10324C009005DAE004F0E064056003023485F09048
:10325C0005E7E07004A3E0640B70749005DFE0FEFA
:10326C00A3E0FF7C007D0A1211EC9005E2E02FFF39
:10327C009005E1E03EAB07FA9005E3E0FEA3E0FF2A
:10328C001211EC9005E6E02FFF9005E5E03EFED331
:10329C00EB9418EA94004003023414EF943CEE943F
:1032AC000040030234149005DFA3E0C454F0FFA3E4
:1032BC00A3E04FFF7D061250689005E3A3E0C454D1
:1032CC00F0FFA3A3E04FFF7D0512506802340B9072
:1032DC0005E7E07004A3E0640C600302341490056D
:1032EC00DFE0FEA3E0FF7C007D0A1211EC9005E20A
:1032FC00E02FFF9005E1E03E9003EAF0FAA3EFF037
:10330C00FB9005E3E0FEA3E0FF1211EC9005E6E074
:10331C002FFF9005E5E03E9003ECF0A3EFF0D3EB2C
:10332C009407EA9400507B9003EBE030E023900389
:10333C00EDE0941F9003ECE09400400302340B90FA
:10334C0005DFA3E0C454F0FFA3A3E04FFF1D02333D
:10335C00F59003EAE07004A3E064027024D39003B8
:10336C00EDE0941C9003ECE09400400302340B90CD
:10337C0005DFA3E0C454F0FFA3A3E04FFF7D098059
:10338C0068D39003EDE0941E9003ECE09400506F32
:10339C009005DFA3E0C454F0FFA3A3E04FFF7D0929
:1033AC0080479003EBE020E021D39003EDE0941FE5
:1033BC009003ECE0940050479005DFA3E0C454F078
:1033CC00FFA3A3E04FFF7D09801FD39003EDE09492
:1033DC001E9003ECE0940050269005DFA3E0C4544B
:1033EC00F0FFA3A3E04FFF7D091250689005E3A303
:1033FC00E0C454F0FFA3A3E04FFF7D071250689088
:10340C0005E7E4F0A37464F09005DFE07004A3E03A
:10341C00640970359005E1E07004A3E0640970293B
:10342C009005E3E07004A3E06409701D9005E5E0ED
:10343C007004A3E0640970119005E7E07002A3E04A
:10344C0070079005F1F0A304F09005F1E07002A371
:10345C00E070261251AB7F08124D59E4FF124D5902
:10346C007F68124A787F68124A787F6D124A787F9B
:10347C006D124A787F23124A78E49003E8F0A3F0A7
:10348C009005DAE0FFFD3395E0FCC39003E9E09D85
:10349C009003E8E09C5044EF64809484502D7F08A6
:1034AC00124D599003E8A3E0FF124D599003E9E047
:1034BC0025E0FF9003E8E033FE74DF2FF5827405FE
:1034CC003EF583A3E04430FF124A789003E9E00410
:0B34DC00F070AD9003E8E004F080A564
:0134E70022C2
:0C519500759300759400E4F594F59322E6
:102DB8006028013043340000433E000043480000CF
:102DC80043520000435C000043660000437000006B
:102DD800437A00004382000043870000602800A473
:102DE80043340000432A000043200000431600003B
:102DF800430C00004302000042F0000042DC0000E7
:102E080042C8000042B400006258016042EFA3D7F4
:102E180042EF385242EDB33342ECC28F42EAE14806
:102E280042E8385242E03D7142D170A4429B75C3DA
:102E380042BEA8F642D5F0A442D5C7AE42D4333339
:102E480042D08F5C42CAD70A42C1F5C342B2947BD2
:102E58004290051F41F428F6C2AC4CCD42BD051F77
:102E680042BC2E1442B9385242B3947B42AB947B95
:102E7800429C4CCD428338524221F5C3C17051EC7B
:102E8800C2DB385242A3E66642A2BD71429E3D7142
:102E9800429675C3428ADC29426BD70A422B3333E8
:102EA8004143851FC22FAE14C2EEF5C3428A6B851B
:102EB8004288A8F642834CCD42728F5C4252CCCDF8
:102EC8004221E14841AA51ECC130F5C3C27B28F642
:102ED800C2F9947B425D47AE425A1EB8424E3D71DC
:102EE8004237D70A4214666641B95C293FF851EC6B
:102EF800C1F228F6C2959EB8C2FC28F64227EB8597
:102F08004223B8524216333341FBD70A41A628F66A
:102F180040CE6666C1770A3DC235147BC2A73333FB
:102F2800C2FECCCD41E28F5C41D7EB8541B9851F0C
:102F380041830A3D40C1999AC112E148C1F370A486
:102F4800C265D70AC2B6199AC2FFA8F64161999A12
:102F5800414E147B410CCCCD00000000C107AE14DB
:102F6800C1BC28F6C22C147BC2884CCDC2C1CCCDC2
:102F7800C2FEAE140000000000000000C0B800004F
:102F8800C142E148C1B55C29C212851FC25AE14855
:102F9800C299C28FC2CA9EB8C2FF75C3C162B85275
:102FA800C170CCCDC1991EB8C1D2F5C3C210E148D9
:102FB800C242E148C282F0A4C2A7C7AEC2D22E1450
:102FC800C2FEFAE1C1E1D70AC1EC51ECC204EB85BB
:102FD800C21E70A4C240EB85C2705C29C295428FA4
:102FE800C2B5C28FC2D9428FC2FF147BC228851FC7
:102FF800C22C5C29C2397AE1C250A3D7C271666675
:10300800C28D0A3DC2A56148C2C18F5CC2DF947BF4
:10301800C2FF851FC25E147BC261999AC26F28F6EF
:10302800C282051FC28F2E14C2A05C29C2B4C7AECB
:10303800C2CBD1ECC2E551ECC2FFE666C28A199A4E
:10304800C28C47AEC290D1ECC2990F5CC2A4614851
:10305800C2B2947BC2C36148C2D5A3D7C2EA0F5C8F
:10306800C3000F5C603C00F4400CCCCD40DCCCCD00
:103078004139999A4182666641A8000041CD999AE2
:1030880041F33333420C6666421F33334232000049
:103098004244CCCD4257999A426A6666427D3333A0
:1030A8004288000060A00004C1E1D70AC1EC51ECDD
:1030B800C204EB85C21E70A4C240EB85C2705C29B5
:1030C800C295428FC2B5C28FC2D9428FC2FF147B4C
:1030D800C228851FC22C5C29C2397AE1C250A3D705
:1030E800C2716666C28D0A3DC2A56148C2C18F5CC5
:1030F800C2DF947BC2FF851FC25E147BC261999AAE
:10310800C26F28F6C282051FC28F2E14C2A05C2986
:10311800C2B4C7AEC2CBD1ECC2E551ECC2FFE66681
:10312800C28A199AC28C47AEC290D1ECC2990F5C80
:10313800C2A46148C2B2947BC2C36148C2D5A3D7B6
:10314800C2EA0F5CC3000F5C440000C0A00000414D
:0331580000D400A0
:1050C200900158121469C2932E1490015C12146953
:0550D20042360A3D22F8
:0A504D0012145D900410E0547FFF80
:10505700EFC4540FFEEF540FFFEE75F00AA42FFFB5
:015067002226
:0151D00022BC
:104C81009000EC30021A7404F07B017A0079E7128B
:104C910045A87F027E001250129000EC7406801825
:104CA1007405F07B017A0079E71245A87F027E0046
:104CB1001250129000EC7407F07B017A0079E71230
:0A4CC10045A87F027E001250122267
:084D99009004CBEEF0A3EFF053
:104DA100E4A3F0A3F09004CDF0A3F09004CBE0FED7
:104DB100A3E0FFC39004CEE09F9004CDE09E501786
:104DC100A2019202124C819004CEE004F070DC90BA
:074DD10004CDE004F080D4E2
:014DD80022B8
:064EFA009004C712145DD4
:104F0000E4FFFE7DD07C429004C7E0F8A3E0F9A363
:104F1000E0FAA3E0FB120D62120FD0A20092010290
:024F20004D99A9
:10442A00789E7C047D017B017E007F0812116E90CC
:10443A00043AE0FCA3E0FDA3E0FEA3E0FF9004A69B
:03444A0012145DEC
:10444D009004A6E0F8A3E0F9A3E0FAA3E0FB900442
:10445D0096E0FCA3E0FDA3E0FEA3E0FF120C6D12BD
:10446D000F81C004C005C006C00790049EE0F8A3EC
:10447D00E0F9A3E0FAA3E0FB900496E0FCA3E0FDD5
:10448D00A3E0FEA3E0FF120C6DA804A905AA06ABDC
:10449D0007D007D006D005D004120E6BC004C0059E
:1044AD00C006C0079004A2E0F8A3E0F9A3E0FAA3C8
:1044BD00E0FB90049AE0FCA3E0FDA3E0FEA3E0FF87
:1044CD00120C6DD003D002D001D000120D629004F9
:0F44DD009AE0F8A3E0F9A3E0FAA3E0FB120C7158
:0144EC0022AD
:0624080090043A12145D7D
:10240E0090047E12146900000000E4900482F0A390
:10241E00F0900482E0FEA3E0FFC3940AEE64809481
:10242E00804003022795EF7802C333CE33CED8F91E
:10243E002434F58274013EF583E0FCA3E0FDA3E0B5
:10244E00FEA3E0FF90043AE0F8A3E0F9A3E0FAA3BC
:10245E00E0FB120F08600540030225D9900482E0CC
:10246E00FEA3E07802C333CE33CED8F92430F58202
:10247E0074013EF583E0FCA3E0FDA3E0FEA3E0FFC4
:10248E0090043AE0F8A3E0F9A3E0FAA3E0FB120F00
:10249E000850030225D9E4900484F0A3F09004823E
:1024AE00E0FEA3E07802C333CE33CED8F9FBAA0602
:1024BE002430F58274013AF583E0FCA3E0FDA3E03D
:1024CE00FEA3E0FF90048612145D74342BF5827423
:1024DE00013AF583E0FCA3E0FDA3E0FEA3E0FF904C
:1024EE00048E12145D900482E0FEA3E07802C333E2
:1024FE00CE33CED8F9FBAA06900484E0FEA3E0907A
:10250E00016075F0281214B4EE75F028A42583F539
:10251E0083E5822BF582E5833AF583E0FCA3E0FDAB
:10252E00A3E0FEA3E0FF90048A12145D900484E001
:10253E00FEA3E090016475F0281214B4EE75F02835
:10254E00A42583F583E5822BF582E5833AF583E0B6
:10255E00FCA3E0FDA3E0FEA3E0FF90049212145D45
:10256E0078967C047D017B017A0479867E007F0853
:10257E0012116E7A04798E12442AC004C005C00668
:10258E00C007900484E0FEA3E07802C333CE33CEBE
:10259E00D8F92442F58274043EF583D007D006D0D4
:1025AE0005D00412145D900485E004F070069004CA
:1025BE0084E004F0C3900485E0940F900484E064FA
:1025CE0080948050030224AB022781900482E0FEA7
:1025DE00A3E07802C333CE33CED8F924A8F58274A3
:1025EE00003EF583E0FCA3E0FDA3E0FEA3E0FF9038
:1025FE00043AE0F8A3E0F9A3E0FAA3E0FB120F0817
:10260E005003022781900482E0FEA3E07802C333D8
:10261E00CE33CED8F924A4F58274003EF583E0FCC7
:10262E00A3E0FDA3E0FEA3E0FF90043AE0F8A3E0F0
:10263E00F9A3E0FAA3E0FB120F086005400302279E
:10264E0081E4900484F0A3F0900482E0FEA3E0788D
:10265E0002C333CE33CED8F9FBAA0624A4F5827476
:10266E00003AF583E0FCA3E0FDA3E0FEA3E0FF90BB
:10267E00048612145D74A82BF58274003AF583E07B
:10268E00FCA3E0FDA3E0FEA3E0FF90048E12145D18
:10269E00900482E0FEA3E07802C333CE33CED8F9A5
:1026AE00FBAA06900484E0FEA3E090016075F0287A
:1026BE001214B4EE75F028A42583F583E5822BF56C
:1026CE0082E5833AF583E0FCA3E0FDA3E0FEA3E000
:1026DE00FF90048A12145D900484E0FEA3E0900142
:1026EE006475F0281214B4EE75F028A42583F583D2
:1026FE00E5822BF582E5833AF583E0FCA3E0FDA3AA
:10270E00E0FEA3E0FF90049212145D78967C047DA7
:10271E00017B017A04798E7E007F0812116E7A0495
:10272E00798612442AC004C005C006C007900484EE
:10273E00E0FEA3E07802C333CE33CED8F92442F5BF
:10274E008274043EF583D007D006D005D00412144F
:10275E005D900485E004F07006900484E004F0C3FC
:10276E00900485E0940F900484E06480948050037C
:10277E00022656900483E004F0600302241F9004A6
:10278E0082E004F002241FE4900482F0A3F090048F
:10279E0082E0FEA3E0FFC3940FEE648094804003BA
:1027AE000228F4EF7802C333CE33CED8F924F4F5F1
:1027BE008274003EF583E0FCA3E0FDA3E0FEA3E0FF
:1027CE00FF90043EE0F8A3E0F9A3E0FAA3E0FB12C9
:1027DE000F0850030228E3900482E0FEA3E0780283
:1027EE00C333CE33CED8F924F8F58274003EF58388
:1027FE00E0FCA3E0FDA3E0FEA3E0FF90043EE0F8C2
:10280E00A3E0F9A3E0FAA3E0FB120F086005400372
:10281E000228E3900482E0FEA3E07802C333CE33B5
:10282E00CED8F9FBAA0624F4F58274003AF583E0BB
:10283E00FCA3E0FDA3E0FEA3E0FF90048612145D6E
:10284E0074F82BF58274003AF583E0FCA3E0FDA347
:10285E00E0FEA3E0FF90048E12145D900482E0FE71
:10286E00A3E07802C333CE33CED8F9FBAA062442B6
:10287E00F58274043AF583E0FCA3E0FDA3E0FEA329
:10288E00E0FF90048A12145D74462BF58274043AAC
:10289E00F583E0FCA3E0FDA3E0FEA3E0FF9004922D
:1028AE0012145D78967C047D017B017A0479867E14
:1028BE00007F0812116E789E7C047D017B017A04E4
:1028CE00798E7E007F0812116E90043E12443C9069
:1028DE00047E12145D900483E004F070069004826E
:1028EE00E004F002279C90047EE0FCA3E0FDA3E050
:0428FE00FEA3E0FF56
:0129020022B2
:091DC20090040EEBF0AA05A9073C
:101DCB00E490041AF0A3F0A3F0A3F0A3121469009B
:101DDB0000000090042212146900000000900426F9
:101DEB0012146900000000900436121469C0A000A0
:101DFB00009000D57407F0A374E3F0AF01125057B5
:101E0B00A3E4F0A3EFF0AF02125057A3E4F0A3EF5B
:101E1B00F090040EE0FF125057EF2405FDE433FC65
:101E2B00E4120F979000DB12145D90040FE0FF1289
:101E3B005057AC07E4120F9C9000DF12504DAC07CB
:101E4B00E4120F9C9000E312145D900411E0FBA3CD
:101E5B00E0FAA3E0F912137790041E12145D783A9E
:101E6B007C047D017B017A0079D57E007F121211F3
:101E7B006E784C7C047D017B017A0179587E007F62
:101E8B000812116E9004547401F0A37400F0A37443
:101E9B00F1F0121620E4FBFA79347843120D627BD1
:101EAB00D07A0F79497840120E6B9000CC12145DEA
:101EBB009000DAE024AFFF9000D9E034FFFE7C0104
:101ECB007D681211EC7D6D121253EF25E0FDEE33A0
:101EDB00FC120F977BD07A0F79497840120D62E490
:101EEB00FBFA79347843120E6B123D8F7B857AEBBC
:101EFB00791D7841120D62C004C005C006C007E40D
:101F0B00FFFE7D707C41900436E0F8A3E0F9A3E07E
:101F1B00FAA3E0FB120D62A804A905AA06AB079071
:101F2B000158E0FCA3E0FDA3E0FEA3E0FF120C6D63
:101F3B00E4FBFA79807840120D62D003D002D00115
:101F4B00D000120C71C004C005C006C0079000DAA7
:101F5B00E024AFFF9000D9E034FFFE7C017D6812D6
:101F6B0011EC7D6D121253AC06AD07EC120F977B83
:101F7B00D07A0F79497840120D62E4FBFA79347804
:101F8B0043120E6B123D797BC37AF579F0784012D0
:101F9B000D62A804A905AA06AB07D007D006D00589
:101FAB00D004120C6DC004C005C006C0079000DA47
:101FBB00E024AFFF9000D9E034FFFE7C017D681276
:101FCB0011EC7D6D121253AC06AD07EC120F977B23
:101FDB00D07A0F79497840120D62E4FBFA793478A4
:101FEB0043120E6B123D8FE4FBFA79C0783F120D52
:101FFB0062A804A905AA06AB07D007D006D005D066
:10200B0004120C6DE4FBFA79707842120E6B90049B
:10201B003212145D90040FE0FF125057AC07E4121C
:10202B000F9CE4FBFA79707842120E6BC004C0056A
:10203B00C006C00790040EE0FF125057AC07E41225
:10204B000F9CD003D002D001D000120C719004323F
:10205B00E0F8A3E0F9A3E0FAA3E0FB120C71900007
:10206B00ED12145D7FD07E0F7D497C409000CCE05B
:10207B00F8A3E0F9A3E0FAA3E0FB120D62E4FBFA8C
:10208B0079347843120E6B123D79C004C005C0063B
:10209B00C0077FD07E0F7D497C4090015CE0F8A3A8
:1020AB00E0F9A3E0FAA3E0FB120D62E4FBFA79344A
:1020BB007843120E6B123D79D003D002D001D000C1
:1020CB00120D62C004C005C006C007E4FFFE7D40D0
:1020DB007CC19000EDE0F8A3E0F9A3E0FAA3E0FBEC
:1020EB00120C717BD37A7E793C7842120D62E4FB41
:1020FB00FA79347843120E6B123D79D003D002D0AB
:10210B0001D000120D62C004C005C006C0077FD00D
:10211B007E0F7D497C409000CCE0F8A3E0F9A3E072
:10212B00FAA3E0FB120D62E4FBFA79347843120E4A
:10213B006B123D8FC004C005C006C0077FD07E0F59
:10214B007D497C4090015CE0F8A3E0F9A3E0FAA3A1
:10215B00E0FB120D62E4FBFA79347843120E6B123A
:10216B003D8FD003D002D001D000120D62D003D02E
:10217B0002D001D000120C71124DD97BED7A2E7961
:10218B00657842120D6290042A12145DE4FFFE7D05
:10219B00407CC19000EDE0F8A3E0F9A3E0FAA3E0E6
:1021AB00FB120C717BD37A7E793C7842120D62E480
:1021BB00FBFA79347843120E6B123D8FC004C005C5
:1021CB00C006C0077FD07E0F7D497C409000CCE0DD
:1021DB00F8A3E0F9A3E0FAA3E0FB120D62E4FBFA2B
:1021EB0079347843120E6B123D79D003D002D001B3
:1021FB00D000120D62C004C005C006C00790042AAF
:10220B00E0F8A3E0F9A3E0FAA3E0FBE4FFFE7DB462
:10221B007C42120C6D7BD07A0F79497840120D629B
:10222B00E4FBFA79347843120E6B123D8FA804A9A4
:10223B0005AA06AB07D007D006D005D004120E6B4B
:10224B00124DD97BED7A2E79657842120D62E4FB43
:10225B00FA79347843120C7190042E12504DEF30F2
:10226B00E0030224077FCD7ECC7D0C7C4090042ABA
:10227B00E0F8A3E0F9A3E0FAA3E0FB120F08500388
:10228B00022407E4FFFE7D887C4290042AE0F8A339
:10229B00E0F9A3E0FAA3E0FB120F0860054003028C
:1022AB00240790042AE0FCA3E0FDA3E0FEA3E0FFDB
:1022BB0090043E12145D90042EE0FCA3E0FDA3E01D
:1022CB00FEA3E0FF12240890042612145DE4FFFE27
:1022DB007D167C43900426E0F8A3E0F9A3E0FAA373
:1022EB00E0FB120C71900414E0F8A3E0F9A3E0FA00
:1022FB00A3E0FB120C7190041E12145D900411E00C
:10230B00FBA3E0FAA3E0F912143D90041EE0FCA33A
:10231B00E0FDA3E0FEA3E0FF120C6D90042212146B
:10232B005D900422E0FCA3E0FDA3E0FEA3E0FF121E
:10233B000FD0125100AC06AD07EC120F97E4FBFA6D
:10234B00F9783F120F0860054003022407E4FFFEF3
:10235B007D707CC190041EE0F8A3E0F9A3E0FAA322
:10236B00E0FB120F085003022407E4FFFE7D527CB2
:10237B004390041EE0F8A3E0F9A3E0FAA3E0FB12FC
:10238B000F0860025076E4FFFEFDFC900422E0F89B
:10239B00A3E0F9A3E0FAA3E0FB120F0860144012CC
:1023AB00900422E0FCA3E0FDA3E0FEA3E0FFD2003B
:1023BB00802BE4FFFEFDFC900422E0F8A3E0F9A3E0
:1023CB00E0FAA3E0FB120F085016900422E0FCA3E6
:1023DB00E0FDA3E0FEA3E0FF120F81C200124EFA54
:1023EB0090041EE0FCA3E0FDA3E0FEA3E0FF90043D
:0C23FB0011E0FBA3E0FAA3E0F91213C705
:0124070022B2
:1034E8009003EAEBF09000D57407F0A374E3F012B0
:1034F8005057A3E4F0A3EFF0AF05125057A3E4F040
:10350800A3EFF09003EAE0FF125057EF2405FDE423
:1035180033FCE4120F979000DB12145D9003EBE08C
:10352800FF125057AC07E4120F9C9000DF12145D95
:103538009003EC125053AC07E4120F9C9000E31276
:10354800145D783A7C047D017B017A0079D57E0090
:103558007F1212116E784C7C047D017B017A01790F
:10356800587E007F0812116E9004547401F0A37401
:1035780000F0A374F1F0121620E4FBFA79347843D2
:10358800120D627BD07A0F79497840120E6B900049
:10359800CC12145D9000DAE024AFFF9000D9E0343B
:1035A800FFFE7C017D681211EC7D6D121253EF2530
:1035B800E0FDEE33FC120F977BD07A0F7949784003
:1035C800120D62E4FBFA79347843120E6B123D8FC8
:1035D8007B857AEB791D7841120D62C004C005C065
:1035E80006C007E4FFFE7D707C41900000E0F8A370
:1035F800E0F9A3E0FAA3E0FB120D62A804A905AA6A
:1036080006AB07900158E0FCA3E0FDA3E0FEA3E0B1
:10361800FF120C6DE4FBFA79807840120D62D0033A
:10362800D002D001D000120C71C004C005C006C081
:10363800079000DAE024AFFF9000D9E034FFFE7C69
:10364800017D681211EC7D6D121253AC06AD07ECCA
:10365800120F977BD07A0F79497840120D62E4FBFC
:10366800FA79347843120E6B123D797BC37AF57977
:10367800F07840120D62A804A905AA06AB07D00786
:10368800D006D005D004120C6DC004C005C006C019
:10369800079000DAE024AFFF9000D9E034FFFE7C09
:1036A800017D681211EC7D6D121253AC06AD07EC6A
:1036B800120F977BD07A0F79497840120D62E4FB9C
:1036C800FA79347843120E6B123D8FE4FBFA79C015
:1036D800783F120D62A804A905AA06AB07D007D047
:1036E80006D005D004120C6DE4FBFA79707842120A
:1036F8000E6B9000D012145D9003EBE0FF12505750
:10370800AC07E4120F9CE4FBFA79707842120E6B56
:10371800C004C005C006C0079003EAE0FF12505776
:10372800AC07E4120F9CD003D002D001D000120CD9
:10373800719000D0E0F8A3E0F9A3E0FAA3E0FB124F
:103748000C719000ED12145D7FD07E0F7D497C4096
:103758009000CCE0F8A3E0F9A3E0FAA3E0FB120D97
:1037680062E4FBFA79347843120E6B123D79C00497
:10377800C005C006C0077FD07E0F7D497C40900100
:103788005CE0F8A3E0F9A3E0FAA3E0FB120D62E421
:10379800FBFA79347843120E6B123D79D003D002CC
:1037A800D001D000120D62C004C005C006C007E4F5
:1037B800FFFE7D407CC19000EDE0F8A3E0F9A3E0B6
:1037C800FAA3E0FB120C717BD37A7E793C78421223
:1037D8000D62E4FBFA79347843120E6B123D79D00E
:1037E80003D002D001D000120D62C004C005C0068B
:1037F800C0077FD07E0F7D497C409000CCE0F8A3C5
:10380800E0F9A3E0FAA3E0FB120D62E4FBFA7934D5
:103818007843120E6B123D8FC004C005C006C00766
:103828007FD07E0F7D497C4090015CE0F8A3E0F9F1
:10383800A3E0FAA3E0FB120D62E4FBFA79347843C3
:10384800120E6B123D8FD003D002D001D000120DA2
:1038580062D003D002D001D000120C71124DD922CF
:10162000E4FBFA79707842900448E0FCA3E0FDA363
:10163000E0FEA3E0FF120E6B900444E0F8A3E0F993
:10164000A3E0FAA3E0FB120C71E4FBFA7970784294
:10165000120E6B900440E0F8A3E0F9A3E0FAA3E0D7
:10166000FB120C7190045B12145D90043DE024F2B7
:10167000FF90043CE034FFFE7C007D0C121253EE20
:101680003395E0FDFC90047B12145DE47F0CFEFDBD
:10169000FC90047BE0F8A3E0F9A3E0FAA3E0FB12DE
:1016A00012F6A804A905AA06AB0790043DE024FEA3
:1016B000FF90043CE034FFFE3395E0FDFCC3EF9B5C
:1016C000FFEE9AFEED99FDEC98FCE47B6F7A01F950
:1016D000F81212F6E47B0CFAF9F8124D15C004C0AA
:1016E00005C006C00790043BE024C0FF90043AE028
:1016F0003412FE3395E0FDFC90047BE0F8A3E0F9A2
:10170000A3E0FAA3E02FFFEA3EFEE93DFDE83CFC42
:10171000E47BB57A05F9F81212F6E47B04FAF9F8DD
:10172000124D15D003D002D001D000EF2BFFEE3ABE
:10173000FEED39FDEC38FCC004C005C006C00790C2
:10174000043BE02424FF90043AE03413FE3395E098
:10175000FDFC90047BE0F8A3E0F9A3E0FAA3E02FFE
:10176000FFEA3EFEE93DFDE83CFCE47B64FAF9F863
:10177000124D15E47B03FAF9F81212F6E47B04FA31
:10178000F9F8124D15A804A905AA06AB07D007D091
:1017900006D005D004C3EF9BFBEE9AFAED99F9EC65
:1017A00098F890043EE0FEA3E0FFEE3395E0FDFCE8
:1017B000EB2FFFEA3EFEE93DFDE83CFCEF24B5FFE0
:1017C000EE3482FEED34FFFDEC34FFFC90047F121A
:1017D000145D90047FE0FCA3E0FDA3E0FEA3E0FF26
:1017E000EC120F92E4FBFAF978BF120C71C004C03E
:1017F00005C006C007E4FBFA79C0784190045BE0BD
:10180000FCA3E0FDA3E0FEA3E0FF120E6BD003D02B
:1018100002D001D000120C7190047712145D7F6425
:101820007EA17D157CCA900477E0F8A3E0F9A3E0DF
:0D183000FAA3E0FB120C7190045712145D36
:10183D007F787E3E7D887C3A900457E0F8A3E0F9EE
:10184D00A3E0FAA3E0FB120D62A804A905AA06AB5A
:10185D00077F467E257D097C40120C6D90047F121A
:10186D00145D7FDE7EEC7D8C7C3C900457E0F8A30C
:10187D00E0F9A3E0FAA3E0FB120D627B5B7AA47999
:10188D009C7840120C7190047712145D7F257EEBCD
:10189D007D8C7C3C900457E0F8A3E0F9A3E0FAA31B
:1018AD00E0FB120D627B927AAE79C77840120C7113
:1018BD0090047B12145D90047BE0FCA3E0FDA3E09B
:1018CD00FEA3E0FF123D8F7B4A7ADF7908783D1247
:1018DD000D62900477E0F8A3E0F9A3E0FAA3E0FB32
:1018ED00120C71C004C005C006C007E4FFFEFD7CEC
:1018FD004090047BE0F8A3E0F9A3E0FAA3E0FB122B
:10190D000D62123D8F7BEF7AF179B67839120D6247
:10191D00D003D002D001D000120C717B297AD1797D
:10192D00ED78B8120C71C004C005C006C007900454
:10193D007FE0FCA3E0FDA3E0FEA3E0FF123D8F7B63
:10194D00EB7A4979AA7837120D62A804A905AA067F
:10195D00AB07D007D006D005D004120C6D90045FF4
:10196D0012145D90047FE0FCA3E0FDA3E0FEA3E074
:10197D00FF123D797B2D7A1879267838120D62C0C9
:10198D0004C005C006C0077FEC7E827DD57C3190FA
:10199D000457E0F8A3E0F9A3E0FAA3E0FB120D620F
:1019AD00A804A905AA06AB077F9D7E747DD17C3E58
:1019BD00120C6DD003D002D001D000120C71900426
:0419CD006312145D30
:1019D10090045FE0FCA3E0FDA3E0FEA3E0FF123D65
:1019E1008F90047712145D900463E0FCA3E0FDA3E3
:1019F100E0FEA3E0FF123D79900477E0F8A3E0F95F
:101A0100A3E0FAA3E0FB120D6290046F12145D9043
:101A1100045FE0FCA3E0FDA3E0FEA3E0FF123D793B
:101A210090047312145D900473E0FCA3E0FDA3E045
:101A3100FEA3E0FF90049B12145D90046FE0FCA3F1
:101A4100E0FDA3E0FEA3E0FF1247A2900467121499
:101A51005DE4FFFEFDFC900467E0F8A3E0F9A3E07C
:101A6100FAA3E0FB120F08501F900467E0FCA3E00B
:101A7100FDA3E0FEA3E0FF7BD07A0F79C978401285
:101A81000C7190046712145D900463E0FCA3E0FD07
:101A9100A3E0FEA3E0FF123D8F900477E0F8A3E0FE
:101AA100F9A3E0FAA3E0FB120D62124DD990046B89
:031AB10012145DAF
:101AB4007FE07E927D867C3D900457E0F8A3E0F9B8
:101AC400A3E0FAA3E0FB120D627B4D7A5179D6783C
:101AD40040120C7190045BE0F8A3E0F9A3E0FAA3D0
:101AE400E0FB120C7190047712145DE4FFFE7D702C
:101AF4007C41900477E0F8A3E0F9A3E0FAA3E0FBCB
:101B0400120D6290044CE0F8A3E0F9A3E0FAA3E01C
:101B1400FB120C717B2E7AFA798E783C120D62904E
:101B2400047B12145D900467E0F8A3E0F9A3E0FAE3
:101B3400A3E0FB90047BE0FCA3E0FDA3E0FEA3E0B4
:101B4400FF120C6D90048312145D7F2E7EFA7D8E3D
:101B54007C3C900450E0F8A3E0F9A3E0FAA3E0FB96
:101B6400120D6290047F12145D90047FE0FCA3E0E8
:101B7400FDA3E0FEA3E0FF123D7990048712145DFB
:101B840090047FE0FCA3E0FDA3E0FEA3E0FF123D90
:101B94008F90048B12145D900483E0FCA3E0FDA3FA
:101BA400E0FEA3E0FF123D7990048F12145D9004CF
:101BB4006BE0FCA3E0FDA3E0FEA3E0FF123D79C0CF
:101BC40004C005C006C00790048FE0FCA3E0FDA399
:101BD400E0FEA3E0FF900487E0F8A3E0F9A3E0FAB5
:101BE400A3E0FB120D62D003D002D001D000120D8D
:101BF40062C004C005C006C00790046BE0FCA3E00B
:101C0400FDA3E0FEA3E0FF123D8F90048BE0F8A358
:101C1400E0F9A3E0FAA3E0FB120D62D003D002D0F6
:101C240001D000120C71124CCB900454E0FBA3E0E1
:101C3400FAA3E0F91213C7900483E0FCA3E0FDA328
:101C4400E0FEA3E0FF123D8F120F8190046F121487
:101C54005D90046BE0FCA3E0FDA3E0FEA3E0FF12B3
:101C64003DCB900487E0F8A3E0F9A3E0FAA3E0FBFE
:101C7400120D62C004C005C006C00790048FE0FCCA
:101C8400A3E0FDA3E0FEA3E0FF90048BE0F8A3E053
:101C9400F9A3E0FAA3E0FB120D62A804A905AA06C1
:101CA400AB07D007D006D005D004120C6D90047396
:101CB40012145D900473E0FCA3E0FDA3E0FEA3E036
:101CC400FF90049B12145D90046FE0FCA3E0FDA35D
:101CD400E0FEA3E0FF1247A2900454E0FBA3E0FA65
:101CE400A3E0F99000041213E1900004121397E4A6
:101CF400FBFAF9F8120F08602F402D900454E0FB12
:101D0400A3E0FAA3E02404F9E43AFAC003C002C051
:101D1400011213777BD07A0F79C97840120C71D0F5
:101D240001D002D0031213C7900454E0FBA3E0FADD
:101D3400A3E02404F9E43AFAC003C002C001121378
:101D4400777B2E7AFA798E783C120E6BD001D00212
:101D5400D0031213C7900454E0FBA3E0FAA3E0F904
:101D6400121377123D8F7B0D7AA079327838120DD9
:101D74006290049312145D900454E0FBA3E0FAA370
:101D8400E0F9121377900493E0F8A3E0F9A3E0FAE2
:101D9400A3E0FB120C717B2E7AFA798E783C120E3A
:0F1DA4006B900454E0FBA3E0FAA3E0F91213C71D
:0E1DB30090046BE0FCA3E0FDA3E0FEA3E0FFC4
:011DC10022FF
:104FF300C2A4C2A5C2A64391015392FEE4F597430E
:0F5003009D05F5BDF5BE75BC807F02FE024F74A2
:104E7800EF4488F5BC00000000E5BC30E4FB53BCFF
:104E8800EFAFBD7E00ADBE7C00EF7802C333CE33FA
:0B4E9800CED8F9FFED5403FDEF4DFFF5
:014EA30022EC
:1044ED00E4900422F0A3F0900420F0A3F0900422B5
:1044FD00A3E0FF124E78AC06AD07900421E025E055
:10450D00FF900420E033FE740C2FF58274043EF509
:10451D0083ECF0A3EDF0900421E004F0700690041C
:10452D0020E004F0C3900421E0940A900420E0649C
:10453D0080948040B8900420E4F0A304F09004200F
:10454D00E0FEA3E0FFD39409EE648094805047EF22
:10455D0025E0FFEE33FE740C2FF58274043EF583D7
:10456D00E0FEA3E0FF90040CE0FCA3E0FDC3EF9D93
:10457D00FFEE9CFE125100D3EF941EEE64809480EA
:10458D004004E4FEFF22900421E004F070AF90049B
:0A459D0020E004F080A77E007F01FB
:0145A70022F1
:0B29030090040CEBF0A3EAF0A3E9F055
:10290E00E4900418F0A31214693F000000E4900450
:10291E00C1F0A3F0A3F0A3F09004C3E0FEA3E0FF88
:10292E00C39451EE648094805025EF25E0FFEE3382
:10293E00FE741D2FF58274043EF583E4F0A3F0902F
:10294E0004C4E004F070D19004C3E004F080C9E444
:10295E009004C3F0A3F0E49004C5F0A3F09004C576
:10296E00E0FEA3E0FFC39405EE648094805035EF43
:10297E004E70069004C1F0A3F0900418E0FF124EC2
:10298E00789004C2E02FF09004C1E03EF07F027E0A
:10299E0000124F749004C6E004F070C19004C5E0BC
:1029AE0004F080B99004C1E0FEA3E0FF7C007D0539
:1029BE001211FEAC06AD079004C4E025E0FF9004B2
:1029CE00C3E033FE741D2FF58274043EF583ECF0E4
:1029DE00A3EDF0124B12900415E0FBA3E0FAA3E076
:1029EE00F91213779004C812145D9005D2E0FEA37D
:1029FE00E07802CEC313CE13D8F99004CCF07F0248
:102A0E001242547F327E00124EDC900415E0FBA37E
:102A1E00E0FAA3E0F9121377EF2401FFE43EFEE49F
:102A2E003DFDE43CFC1213C7124B12900415E0FB63
:102A3E00A3E0FAA3E0F91213779004C812145D9084
:102A4E0004C4E025E0FF9004C3E033FE741D2FF5AF
:102A5E008274043EF583E0FEA3E07802CEC313CE6B
:102A6E0013D8F99004CCF07F021242547F327E00CC
:102A7E00124EDC900415E0FBA3E0FAA3E0F912136A
:102A8E0077EF2401FFE43EFEE43DFDE43CFC12132F
:102A9E00C7124B12900415E0FBA3E0FAA3E0F91263
:102AAE0013779004C812145D90040CE0FBA3E0FAB7
:102ABE00A3E0F9121377120FD09004CCEFF07F023F
:102ACE001242547F327E00124EDC900415E0FBA3BE
:102ADE00E0FAA3E0F9121377EF2401FFE43EFEE4DF
:102AEE003DFDE43CFC1213C7124B12900415E0FBA3
:102AFE00A3E0FAA3E0F91213779004C812145D90C4
:102B0E00040CE0FBA3E0FAA3E0F9121377120FD046
:102B1E00AC07EC120F9CC004C005C006C0079004A1
:102B2E000CE0FBA3E0FAA3E0F9121377D003D00276
:102B3E00D001D000120C6DE4FBFA79C87842120D68
:102B4E0062120FD09004CCEFF07F021242547F320B
:102B5E007E00124EDC900415E0FBA3E0FAA3E0F930
:102B6E00121377EF2401FFE43EFEE43DFDE43CFC4E
:102B7E001213C77F08124D597F05124D597F41120E
:102B8E004A787F44124A787F43124A787F3A124A33
:102B9E00789004C4E025E0FF9004C3E033FE741D7A
:102BAE002FF58274043EF583E0FCA3E0FDE4120FE2
:102BBE0097E4FBFA79807844120E6BE4FBFA79A065
:102BCE007840120D62123EB97F56124A787F10126B
:102BDE004A787FF47E01124F74900419E0FCA3E052
:102BEE00FDA3E0FEA3E0FFD200124EFA90040CE02B
:102BFE00FBA3E0FAA3E0F9C003C002C001121377F1
:102C0E00E4FBFAF9783F120C71D001D002D0031216
:102C1E0013C79004C4E004F070069004C3E004F0FF
:102C2E00C39004C4E094519004C3E0648094805037
:102C3E00030229647FF47E01124F749004C3E07086
:102C4E0004A3E064516003022D4C7B017A04791DCC
:102C5E0012483F9004BFEEF0A3EFF0E025E0FF90A6
:102C6E0004BFE033FE741D2FF58274043EF583E03D
:102C7E00F9A3E0FF90040FE0FBA3E0FAA3E0C98FF5
:102C8E00F01212D790046DE0F9A3E0FF900412E069
:102C9E00FBA3E0FAA3E0C98FF01212D79004BFE0B5
:102CAE00FCA3E0FDE4120F97A804A905AA06AB0742
:102CBE00E4FFFE7DA27C42120C6D900419E0F8A395
:102CCE00E0F9A3E0FAA3E0FB120D62C200124EFA85
:102CDE0090040CE0FBA3E0FAA3E0F9C003C002C02D
:102CEE0001121377C004C005C006C0079004BFE0F0
:102CFE00FCA3E0FDE4120F97A804A905AA06AB07F2
:102D0E00E4FFFE7DA27C42120C6D900419E0F8A344
:102D1E00E0F9A3E0FAA3E0FB120D62A804A905AA4C
:102D2E0006AB07D007D006D005D004120C6DD0012B
:0E2D3E00D002D0031213C77FF47E01124F742F
:012D4C002264
:10483F00E4FDFC9004C7F0A37428F0E4A3F0A3F008
:10484F009004C9E0FEA3E0FFC39451EE94005073AF
:10485F00EF25E0FFEE338F82F58312129FFFD3ED2A
:10486F009FEC95F04006AE04AF0580169004CAE0A9
:10487F0025E0FF9004C9E0338F82F58312129FFF6A
:10488F00AEF0AC06AD079004CAE025E0FF9004C976
:10489F00E0338F82F58312129FB50516ECB5F01237
:1048AF004D600F9004C9E0FFA3E09004C7CFF0A3C1
:1048BF00EFF09004CAE004F070869004C9E004F0B1
:0B48CF0002484F9004C7E0FEA3E0FF8A
:0148DA0022BB
:0B3868009003E8EFF0A3EDF0A3EBF0FD
:103873009003FC12146900000000E4900400F0A31C
:10388300F0A3F0A3F09003F9E0FBA3E0FAA3E0F9BF
:1038930012137790040412145D9003EDE0FBA3E090
:1038A300FAA3E0F912137790040812145D9003F061
:1038B300E0FBA3E0FAA3E0F9E4F5F01212D79003DA
:1038C300F6E0FBA3E0FAA3E0F9E4F5F01212D790D7
:1038D30003F3E0FBA3E0FAA3E0F912149A0000005B
:1038E300001244EDEF4E7003023A159003EBE090A3
:1038F300040FF09003ECE0900410F0A37401F0A324
:103903007404F0A37408F0A3121469C1A00000901A
:1039130003EAE0FB9003E9E0FD9003E8E0FF121DFA
:10392300C2E4FFFE7DA07C41900408E0F8A3E0F927
:10393300A3E0FAA3E0FB120C719003F3E0FBA3E016
:10394300FAA3E0F91213C790040F7401F0A37404EF
:10395300F0A37400F0A37401F0A37404F0A3740241
:10396300F0A37401F0A37404F0A37404F07B017A50
:10397300047908122903900404E0FCA3E0FDA3E00A
:10398300FEA3E0FF9003F9E0FBA3E0FAA3E0F91242
:1039930013C7900400E0F9A3E0FF9003F0E0FBA35A
:1039A300E0FAA3E0C98FF01212D7900402E0F9A362
:1039B300E0FF9003F6E0FBA3E0FAA3E0C98FF01267
:1039C30012D79003F3E0FBA3E0FAA3E0F912143D4E
:1039D300900408E0FCA3E0FDA3E0FEA3E0FF120CCB
:1039E3006D9003FC12145D900408E0FCA3E0FDA3BA
:1039F300E0FEA3E0FF9003EDE0FBA3E0FAA3E0F910
:103A03001213C79003FCE0FCA3E0FDA3E0FEA3E0D8
:073A1300FF22E4FFFEFDFCB1
:013A1A002289
:104F4900C3EC64809480401CED25E0FFEC338F8234
:104F5900F58312129F640145F07005AF05AE042276
:044F6900E4FEFF2241
:014F6D002221
:0D4EA4007F027E00124EB1D2CC7F027E0054
:104EB100EF1FAA0670011E4A6013E4FCFDC3ED94C6
:0D4EC10009EC940050EA0DBD00010C80F0DA
:014ECE0022C1
:0151D10022BB
:0F515B00D2CCD2C7124EADC2C7124EADC2CC22BB
:1050D700C2CCC2C7124EADD2CCC2C77F047E00126B
:0550E7004EB1D2C7220A
:10509700E425E0FBC2CC124EAD30C704EB4401FB64
:0550A700124EABAF0347
:0150AC0022E1
:0551C400124EA4C2CC54
:0151C90022C3
:0E516A00C2CCD2C7124EA4C2CC124EADC2C7E8
:015178002214
:054F2200F91211ADFFC2
:024F2700A907D8
:104F2900E4FBC2CCE930E704D2C78002C2C7124E03
:0F4F3900ADD2CCE925E0F9124EAD0BEBB408E395
:014F48002246
:1045A8009004CFEBF0A3EAF0A3E9F012515B7F018E
:1045B8007E00124EB17F40124F27125097EF7012B3
:1045C8009004CFE0FBA3E0FAA3E0F9121194FF12E4
:1045D8004F27125097EF70109004CFE0FBA3E0FA3A
:1045E800A3E0900001124F22125097EF7010900430
:1045F800CFE0FBA3E0FAA3E0900002124F22125092
:1046080097EF70119004CFE0FBA3E0FAA3E0F990D4
:104618000003124F23125097EF70119004CFE0FB64
:10462800A3E0FAA3E0F9900004124F23125097EF89
:1046380070119004CFE0FBA3E0FAA3E0F990000525
:0D464800124F23125097EF70031250D7222B
:0D4ECF007F057E00124EDCD2C37F057E0001
:104EDC00EF1FAA0670011E4A6013E4FCFDC3ED949B
:0D4EEC0004EC940050EA0DBD00010C80F0B4
:014EF9002296
:104BCE007B6053B3F143B407C2C1124ED8E49003D5
:104BDE00E8F0A3F0C2C3124ED8EB30E704D2C28085
:104BEE0002C2C2124ECFEB25E0FB9003E9E004F0C7
:104BFE0070069003E8E004F0C39003E9E094089097
:104C0E0003E8E06480948040CBD2C17F0A7E00121C
:094C1E004EDC124701EF20E0F921
:014C2700226A
:104AED007F327E00124EDC9003F3E0FBA3E0FAA3CD
:104AFD00E0F9121377EF2401FFE43EFEE43DFDE4FF
:054B0D003CFC1213C77F
:104B12007B06C2C1E49004C7F0A3F0C2C3124ED810
:104B2200EB30E704D2C28002C2C2124ECFEB25E0C4
:104B3200FB9004C8E004F070069004C7E004F0C3E0
:104B42009004C8E094089004C7E06480948040CB4D
:0C4B5200D2C1124ED8124701EF20E0F94A
:014B5E002234
:07424D00E09004CCF07F02B9
:02425400AB07B6
:10425600C2C1124ED8E49004CDF0A3F0C2C3124EF0
:10426600D8EB30E704D2C28002C2C2124ECFEB2591
:10427600E0FB9004CEE004F070069004CDE004F07C
:10428600C39004CEE094089004CDE064809480400E
:10429600CBE49004CDF0A3F0C2C3124ED89004C86C
:1042A600A3E0FDA3A3E4FFFEED5480FDE4FCFBFACE
:1042B6007980F8C31213537004D2C28002C2C212AC
:1042C6004ECF9004C8E0FCA3E0FDA3E0FEA3E0FF10
:1042D60078011213649004C812145D9004CEE004B1
:1042E600F070069004CDE004F0C39004CEE094187C
:1042F6009004CDE064809480409EE49004CDF0A3C9
:10430600F0C2C3124ED89004CCE030E704D2C2808B
:1043160002C2C2124ECF9004CCE025E0F09004CE4B
:10432600E004F070069004CDE004F0C39004CEE003
:1043360094089004CDE06480948040C5D2C1124EAA
:08434600D8124701EF20E0F955
:01434E00224C
:02413D00AB07CE
:10413F00E49005F8F0C2C17F05FE124EDCE4A3F057
:10414F00A3F0C2C3124ED8EB30E704D2C28002C232
:10415F00C2124ECFEB25E0FB9005FAE004F070069B
:10416F009005F9E004F0C39005FAE094089005F982
:10417F00E06480948040CBE49005F9F0A3F0C2C3D3
:10418F00124ED89005F4A3E0FDA3A3E4FFFEED5477
:10419F0080FDE4FCFBFA7980F8C31213537004D24C
:1041AF00C28002C2C2124ECF9005F4E0FCA3E0FD24
:1041BF00A3E0FEA3E0FF78011213649005F412143C
:1041CF005D9005FAE004F070069005F9E004F0C385
:1041DF009005FAE094189005F9E064809480409E71
:1041EF007F0A7E00124EDCD2C47F027E00124EDCAC
:1041FF00E49005F9F0A3F09005F8E025E0F0124EF9
:10420F00D6C2C3124ED830C404E04401F09005FA70
:10421F00E004F070069005F9E004F0C39005FAE0B1
:10422F0094089005F9E06480948040CBD2C1124E7F
:0D423F00D8124701EF20E0F99005F8E0FFEC
:01424C00224F
:10470100E4FB9004CFF0A3F0A3F07905C2C17F05CB
:10471100FE124EDCE49004D0F0A3F0C2C3124ED8D6
:10472100E930E704D2C28002C2C2124ECFE925E0CD
:10473100F99004D1E004F070069004D0E004F0C3D5
:104741009004D1E094089004D0E06480948040CB40
:104751007F0A7E00124EDCD2C47F027E00124EDC44
:10476100E49004D0F0A3F0EB25E0FB124ED6C2C3D7
:10477100124ED830C404EB4401FB9004D1E004F0A4
:1047810070069004D0E004F0C39004D1E094089046
:1047910004D0E06480948040CED2C1124ED8AF03E1
:0147A10022F5
:103BA800124B129003F3E0FBA3E0FAA3E0F912131F
:103BB800779004C812145D9003E812424D9003F305
:103BC800E0FBA3E0FAA3E0F9121377EF2401FFE486
:103BD8003EFEE43DFDE43CFC1213C77F327E00123A
:103BE8004EDC124B129003F3E0FBA3E0FAA3E0F9DA
:103BF8001213779004C812145D9003E912424D1213
:103C08004AED9003F3E0FBA3E0FAA3E0F91213777F
:103C18009004C812145D9003EA12424D124AED90C6
:103C280003F3E0FBA3E0FAA3E0F91213779004C8CA
:103C380012145D9003EB12424D124AED9003F3E02B
:103C4800FBA3E0FAA3E0F91213779004C812145DFD
:103C58009003EC12424D124AED9003F3E0FBA3E00F
:103C6800FAA3E0F91213779004C812145D9003EDDB
:103C780012424D124AED9003F3E0FBA3E0FAA3E0F1
:103C8800F91213779004C812145D9003EE12424D96
:103C9800124AED9003F3E0FBA3E0FAA3E0F9121354
:103CA800779004C812145D9003EF12424D124AED4A
:103CB8009003F3E0FBA3E0FAA3E0F9121377900472
:103CC800C812145D9003F012424D124AED9003F3AE
:103CD800E0FBA3E0FAA3E0F91213779004C81214EA
:103CE8005D9003F112424D124AED9003F3E0FBA3FD
:103CF800E0FAA3E0F91213779004C812145D900358
:103D0800F212424D7F327E00124EDC9003F3E0FB4C
:103D1800A3E0FAA3E0F9121377EF2401FFE43EFED3
:093D2800E43DFDE43CFC0213C77C
:104E4700D296C294C2957F0A7E00124F74D296D230
:104E570094D2957F0A7E00124F74C2967F0A7E0015
:104E6700124F74C295C2947F0A7E00124F74D29576
:014E77002218
:0D51880053B2FB43B104C288D2A8D2AF22BB
:030000000248DBD8
:0C48DB00787FE4F6D8FD758120024922A8
:100C6A0002103CE86480F8E933E83360110460F06C
:100C7A00ED33EC337009E8FCE9FDEAFEEBFF2204F0
:100C8A0060DED3EB9FEA9EE99DE8C2E78CF0C2F7EB
:100C9A0095F0400CE8CCF8E9CDF9EACEFAEBCFFBB7
:100CAA0012100785D0F05804700320D5B3E80470F9
:100CBA00075002B2D502104692D5EC0460F7E4CC94
:100CCA00C0E0C398F8603B94186008400DD0E0FB80
:100CDA0002101EE4FBFAC9FC8028E830E406E4C9E5
:100CEA00FBE4CAFCE830E305E4C9CACBFCE85407D4
:100CFA006010F8C3E913F9EA13FAEB13FBEC13FCDF
:100D0A00D8F130F52FC3E49CFCEF9BFFEE9AFEED81
:100D1A0099FDD0E0FBEF4E4D4C701222DB0302101E
:100D2A0043EC2CFCEF33FFEE33FEED33FDED30E701
:100D3A00EB02101EEF2BFFEE3AFEED39FDD0E0FB81
:100D4A0050130BBB0003021046ED13FDEE13FEEF2A
:080D5A0013FFEC13FC02101E54
:100D6200EC4D6011E8497017ED33EC3304600DE48B
:100D7200FCFFFEFD22E933E8330470F802103C1256
:100D8200100758046009E4CC248150062850090257
:100D92001046284003021043C0E0EB4A7044B98079
:100DA20006D0E0FB021032EF4E701CBD8008EBFF54
:100DB200EAFEE9FD80EBE98DF0A4FEE5F0020E4BC0
:100DC200E9CDF9EAFEEBFFEF89F0A4FCE5F0CE896C
:100DD200F0A42EFFE435F0CD89F0A42DFEE435F029
:100DE2008067EF4E7005BD80D780C3EF8BF0A4AC57
:100DF200F0EE8BF0A42CFCE435F0F8EF8AF0A42C92
:100E0200E5F038FCE433CB8DF0A42CFCE5F03BF8A4
:100E1200EE8AF0A42CFCE5F038F8E433CF89F0A494
:100E22002CFCE5F038CF3400CE89F0A42FFFE5F09A
:100E32003EFEE433C98DF0A42EFEE5F039CD8AF0F2
:100E4200A42FFFE5F03EFEE43DFD33D0E0FB50076A
:100E52000BBB000F021046EC2CFCEF33FFEE33FE0F
:060E6200ED33FD02101E3D
:100E6800021046EC5D046005E85904700302103C6A
:100E7800121007580460F6EC4860F2EC7004FDFEAE
:100E8800FF22C860DB2481C85009C398600250065D
:100E98000210439850CAF582E9294B4A7005AB8283
:100EA80002103275F0007C1A7880C3EF9BEE9AED41
:100EB80099400DC3EF9BFFEE9AFEED99FDE842F0D5
:100EC800DC23ACF0D0E0FFD0E0FED0E0FDAB822028
:100ED800E7101BEB60BAEC2CFCEF33FFEE33FEEDB2
:100EE80033FD02101EE803F830E705C0F075F00086
:100EF800EF2FFFEE33FEED33FD40B830E7C280AA96
:100F080074F8CC6480CCC86480C8F58204604FC390
:100F1800EB9FF5F0EA9E42F0E99D42F0E89C45F02F
:100F2800603C501DE5825FFFE582D313CB5BCBF4B9
:100F38002B5582FB50280ABA002409B900200880E2
:100F48001DE5825BFBE582D313CF5FCFF4C3132F7C
:100F58005582FF50090EBE00050DBD00010CC3EB04
:100F68009FF5F0EA9E42F0E99D42F0E89C45F0606A
:090F780007CC4820E701B3EC228C
:100F8100ED33EC33600A047003BD8004ECB2E7FC7E
:010F9100223D
:100F920075F020800E75F010800575F0087D007EDA
:100FA200007F003392D530D503121345EC33401045
:100FB200EF33FFEE33FEED33FDEC33FCD5F0ED22E3
:0E0FC200E5F0247EA2D513CC92E7CDCEFF221F
:100FD000EDD2E7CD33EC3392D524814006E4FFFE19
:100FE000FDFC22FCE4CFCECDCC24E0501174FF8078
:100FF000EDC3CC13CCCD13CDCE13CECF13CF047015
:07100000F030D5DE021345BC
:1047A20090049712145D90049BE0F8A3E0F9A3E053
:1047B200FAA3E0FB900497E0FCA3E0FDA3E0FEA3D4
:1047C200E0FF120E6B12403B90049712145D9004AE
:1047D2009BE030E759900497E0FCA3E0FDA3E0FEE4
:1047E200A3E0FFECC0E0EDC0E0EEC0E0EFC0E0E42B
:1047F200FFFEFDFC900497E0F8A3E0F9A3E0FAA322
:10480200E0FB120F087BDB600250087A0F794978CF
:104812004080067A0F794978C0D0E0FFD0E0FED020
:10482200E0FDD0E0FC120C7190049712145D90042C
:0D48320097E0FCA3E0FDA3E0FEA3E0FF2261
:103D31003A70FA83BCAAE9E43E81E0F8BF9DE9E666
:103D41003F80000039283C1ABB9969663DA335E3E1
:103D5100BF255DE73FC90FDB418DDBCCC44936EEA2
:103D610045C9913FC5B0F83D3F800000C317F53408
:103D7100452FFA73C60AFDDD123E3A04A2E1920014
:103D81001420E015903D3174041210518030123E20
:103D91003A30E102B20020E0EBA883A982900497B7
:103DA10012145D89828883903D45740412105185F7
:103DB10082F090049712142185F082120D62ED4C6D
:103DC1006007300004EC6480FC22123E3AC0E0A897
:103DD10083A98290049712145D89828883903D693A
:103DE10074031210518582F090049712142185F00A
:103DF10082120D62900497E0CCF0A3E0CDF0A3E035
:103E0100CEF0A3E0CFF0903D597403121051D0824F
:103E11008582F090049712142185F082E58230E0CA
:103E210007120E6BB2008096EFCBFFEECAFEEDC912
:103E3100FDECC8FC120E6B8085ED33EC547FCC3366
:103E4100920024605007D0E0D0E002103C7B837ADE
:103E5100F97922783E120D62EDF933ECF8332481C1
:103E61005011EFFBEEFA120FD0120F92ECB2E7FCF9
:103E7100120C71ED33EC33602F2403F8C313FCED06
:103E810092E7FDE82481E4501FECF8EDF9EEFAEF3A
:103E9100FB120FD0EF04C2E0FCF582120F9CECB2D2
:103EA100E7FC120C71E58203FAED33EC3360071481
:083EB10013FCED92E7FDEA228B
:104CCB00ECC0E0F8EDC0E0F9EEC0E0FAEFC0E0FBBD
:104CDB00120D62EC6480FC7B007A007980783F12C5
:104CEB000C71124659D0E0FBD0E0FAD0E0F9D0E0DD
:104CFB00F8C0E0120E6B12403BD0E030E70B78406F
:0A4D0B0079497A0F7BD9120C71224E
:104DD900ECC0E0F8EDC0E0F9EEC0E0FAEFC0E0FBAE
:104DE900120D62EC6480FC7B007A007980783F12B6
:104DF9000C71124659D0E0CFFBD0E0CEFAD0E0CD0D
:0B4E0900F9D0E0CCF8120E6B02403B29
:10100700E9D2E7C933E833F892D5EDD2E7CD33EC2F
:0710170033FC5002B2D522A8
:10101E00EC30E7100FBF000C0EBE00080DBD000433
:10102E000BEB6014A2D5EB13FCED92E7FD2274FFDF
:10103E00FCFDFEFF22E480F8A2D574FF13FC7D8038
:03104E00E480EF4C
:10105100C0E0EFFBEEFAEDF9ECF8120D62D0E0F52D
:10106100F0EFFBEEFAEDF9ECF8121411A3A3A3A330
:10107100E8C0E0E9C0E0EAC0E0EBC0E0C0F0120D7A
:101081006212142DA3A3A3A3120C71D0F0D0E0FB24
:0D109100D0E0FAD0E0F9D0E0F8D5F0D4229C
:1046550002103C22EDA2E7D2E7F9EC3340F260F319
:10466500B4FF08ED547F70E8021046F82481C2E0DB
:10467500C0E0F40428FAC313FCED92E7FD9004971B
:1046850012145DEEA2E7E9BA7F02C3133400940069
:10469500FA75F091A4E5F013F494FE8AF0A433E5DD
:1046A500F033248CD313FDE492E7FE7F007C3F7545
:1046B5008302ECC0E0F8EDC0E0F9EEC0E0FAEFC02F
:1046C500E0FB8583F090049712140585F083120EA4
:1046D5006BD0E0FBD0E0FAD0E0F9D0E0F8120C7135
:1046E500ED6480FD30E7011CD583C7ED33CC33F88D
:0C46F500D0E0A2E71328C313CC13FD2271
:10401B00BE1249253E4CCCCDBEAAAAAB3F800000B8
:10402B003E7ADBB03EED63383F24BC7D3F490FDB6E
:10403B00ED33ECC2E7CC339200B4FF13ED547F6049
:10404B000302103C7FDB7E0F7DC97C3F024130C2F7
:10405B0001C3947F401E7007EDD2E794904015EF9B
:10406B00FBEEFAEDF9ECF87F007E007D807C3F12D1
:10407B000E6BD201ED33EC33248430E705E4C0E062
:10408B00806B04FAEDD2E754F0C333DAFD540734F6
:10409B00002323C0E0CCC0E0F8EDC0E0F9EEC0E0B7
:1040AB00FAEFC0E0FBE4120F9CEC24FEFC90049FA3
:1040BB0012145D120D627B007A007980783F120C2E
:1040CB007190049FE0B2E7CCF0A3E0CDF0A3E0CE7B
:1040DB00F0A3E0CFF0D0E0FBD0E0FAD0E0F9D0E0F5
:1040EB00F8120C7190049F121421120E6B90049F06
:1040FB0012145D90401B740312105190049F121404
:10410B0021120D62D0E0600F2427F582E43440F5D4
:10411B008312142D120C7130010B7BDB7A0F79C9D2
:10412B0078BF120C71ED33EC336006ECA20092E712
:02413B00FC2264
:1048E70002001EE493A3F8E493A34003F68001F2C9
:1048F70008DFF48029E493A3F85407240CC8C333D2
:10490700C4540F4420C8834004F456800146F6DFA0
:10491700E4800B0102040810204080902D4DE47EB6
:10492700019360BCA3FF543F30E509541FFEE49395
:10493700A360010ECF54C025E060A840B8E493A35C
:10494700FAE493A3F8E493A3C8C582C8CAC583CA87
:10495700F0A3C8C582C8CAC583CADFE9DEE780BE3F
:01315B000073
:10109E00E709F608DFFA8046E709F208DFFA803E34
:1010AE0088828C83E709F0A3DFFA8032E309F60821
:1010BE00DFFA8078E309F208DFFA807088828C8389
:1010CE00E309F0A3DFFA806489828A83E0A3F6083D
:1010DE00DFFA805889828A83E0A3F208DFFA804C17
:1010EE0080D280FA80C680D4806980F280338010EE
:1010FE0080A680EA809A80A880DA80E280CA803357
:10110E0089828A83ECFAE493A3C8C582C8CCC583CE
:10111E00CCF0A3C8C582C8CCC583CCDFE9DEE7809E
:10112E000D89828A83E493A3F608DFF9ECFAA9F01D
:10113E00EDFB2289828A83ECFAE0A3C8C582C8CC73
:10114E00C583CCF0A3C8C582C8CCC583CCDFEADE8C
:10115E00E880DB89828A83E493A3F208DFF980CCEE
:10116E0088F0EF60010E4E60C388F0ED2402B404E7
:10117E000050B9F582EB2402B4040050AF2323458E
:06118E0082239010EE73B5
:10119400BB010689828A83E0225002E722BBFE0259
:0911A400E32289828A83E493228C
:1011AD00BB010CE58229F582E5833AF583E02250F7
:1011BD0006E92582F8E622BBFE06E92582F8E22241
:0D11CD00E58229F582E5833AF583E493225B
:1011DA00BB010689828A83F0225002F722BBFE01F4
:0211EA00F322EE
:1011EC00EF8DF0A4A8F0CF8CF0A428CE8DF0A42E17
:0211FC00FE22D1
:1011FE00BC000BBE0029EF8DF084FFADF022E4CCD5
:10120E00F875F008EF2FFFEE33FEEC33FCEE9DEC9D
:10121E00984005FCEE9DFE0FD5F0E9E4CEFD22EDE3
:10122E00F8F5F0EE8420D21CFEADF075F008EF2F2D
:10123E00FFED33FD4007985006D5F0F222C398FD1E
:05124E000FD5F0EA22BB
:10125300C2D5EC30E709B2D5E4C39DFDE49CFCEEB6
:1012630030E715B2D5E4C39FFFE49EFE1211FEC31F
:10127300E49DFDE49CFC80031211FE30D507C3E41A
:061283009FFFE49EFE2225
:10128900A3F8E0C5F025F0F0E58215827002158318
:06129900E0C838F0E82275
:10129F00BB0110E58229F582E5833AF583E0F5F08D
:1012AF00A3E0225009E92582F886F008E622BBFE6A
:1012BF000AE92582F8E2F5F008E222E5832AF583B0
:0812CF00E993F5F0A3E9932275
:1012D700BB010A89828A83F0E5F0A3F0225006F762
:0F12E70009A7F01922BBFE06F3E5F009F319225F
:1012F600E88FF0A4CC8BF0A42CFCE98EF0A42CFC97
:101306008AF0EDA42CFCEA8EF0A4CDA8F08BF0A414
:101316002DCC3825F0FDE98FF0A42CCD35F0FCEB73
:101326008EF0A4FEA9F0EB8FF0A4CFC5F02ECD3938
:0F133600FEE43CFCEAA42DCE35F0FDE43CFC22A5
:104D1500C2D5E830E70FB2D5E4C39BFBE49AFAE4C9
:104D250099F9E498F8EC30E717B2D5124D4B121506
:104D350012E4C39BFBE49AFAE499F9E498F880033A
:104D450012151230D50DE4C39FFFE49EFEE49DFDD0
:044D5500E49CFC22BC
:0E134500C3E49FFFE49EFEE49DFDE49CFC22B9
:10135300EB9FF5F0EA9E42F0E99D42F0E89C45F0F0
:011363002267
:10136400E8600FEFC333FFEE33FEED33FDEC33FCE7
:03137400D8F1228B
:10137700BB010789828A830214055005E9F8021523
:10138700A4BBFE05E9F80215B089828A830214110D
:10139700BB010DE58229F582E5833AF58302140541
:1013A7005007E92582F80215A4BBFE07E92582F854
:1013B7000215B0E58229F582E5833AF58302141117
:1013C700BB010789828A8302145D5005E9F802157B
:0A13D700D6BBFE05E9F80215E2227C
:1013E100BB010DE58229F582E5833AF58302145D9F
:1013F1005007E92582F80215D6BBFE07E92582F8D8
:041401000215E222CC
:0C140500E0FCA3E0FDA3E0FEA3E0FF225A
:10141100E493FC740193FD740293FE740393FF2221
:0C142100E0F8A3E0F9A3E0FAA3E0FB224E
:10142D00E493F8740193F9740293FA740393FB2215
:10143D00BB010789828A830214215005E9F8021540
:10144D00BCBBFE05E9F80215C989828A8302142DF9
:0C145D00ECF0A3EDF0A3EEF0A3EFF02202
:10146900A8828583F0D083D082121480121480124E
:101479001480121480E473E493A3C583C5F0C58373
:10148900C8C582C8F0A3C583C5F0C583C8C582C8CD
:011499002230
:10149A00BB010789828A830214695005E9F802159B
:0A14AA00EEBBFE05E9F8021607226A
:0C14B400A42582F582E5F03583F5832243
:10434F009005FBEBF0A3EAF0A3E9F09005FBE0FB8F
:10435F00A3E0FAA3E0F9121194FF125114500C903C
:10436F0005FCE475F0011214C080E0D2049005FB47
:10437F00E0FBA3E0FAA3E0F9121194FF642B6004B1
:10438F00EFB42D1D9005FBE0FBA3E475F0011212B5
:10439F0089A9F0FA121194642D6003D38001C3929E
:1043AF0004E49005FEF0A3F09005FBE0FBA3E0FA18
:1043BF00A3E0F9121194FF12517950429005FBE0DE
:1043CF00FBA3E0FAA3E0F9121194FF3395E0FEEF9F
:1043DF0024D0FBEE34FFFA9005FEE0FEA3E0FF7C55
:1043EF00007D0A1211ECEF2BFFEE3A9005FEF0A3C1
:1043FF00EFF09005FCE475F0011214C080AA3004B0
:10440F000A9005FEE0FEA3E0FF800F9005FEE0FEA0
:0B441F00A3E0FFC3E49FFFE49EFE2229
:1014C000C5F0F8A3E028F0C5F0F8E58215827002B7
:0614D0001583E038F02254
:1014D60075F008758200EF2FFFEE33FECD33CDCCCD
:1014E60033CCC58233C5829BED9AEC99E582984050
:1014F6000CF582EE9BFEED9AFDEC99FC0FD5F0D62D
:10150600E4CEFBE4CDFAE4CCF9A88222B800C1B956
:101516000059BA002DEC8BF084CFCECDFCE5F0CB94
:10152600F97818EF2FFFEE33FEED33FDEC33FCEBCD
:1015360033FB10D703994004EB99FB0FD8E5E4F988
:10154600FA227818EF2FFFEE33FEED33FDEC33FC75
:10155600C933C910D7059BE99A4007EC9BFCE99A69
:10156600F90FD8E0E4C9FAE4CCFB2275F010EF2FAE
:10157600FFEE33FEED33FDCC33CCC833C810D707AE
:101586009BEC9AE899400AED9BFDEC9AFCE899F8E9
:0E1596000FD5F0DAE4CDFBE4CCFAE4C8F9227C
:0C15A400E6FC08E6FD08E6FE08E6FF2273
:0C15B000E2FC08E2FD08E2FE08E2FF2277
:0D15BC00E6FB08E6F908E6FA08E6CBF8229F
:0D15C900E2FB08E2F908E2FA08E2CBF822A2
:0C15D600ECF608EDF608EEF608EFF62241
:0C15E200ECF208EDF208EEF208EFF22245
:1015EE00D083D082E493F608740193F608740293C4
:0915FE00F608740393F6740473FB
:10160700D083D082E493F208740193F208740293B2
:09161700F208740393F2740473E9
:0F517900EFC394304007EF943A50028001C322F5
:10511400EFC394094005EF940E4004EFB42003D389
:045124008001C32221
:00000001FF
