:106E7B003132330041542B43495053544152543D0A
:106E8B0022544350222C223139322E3136382E31B6
:106E9B00312E323033222C383038300D0A00252E6B
:106EAB0034660041542B43495053454E443D390DF4
:106EBB000A00540D0A004A0D0A00570D0A004D0D29
:066ECB000A004C0D0A0054
:104B9C00420610000042060A0000420614000044BF
:104BAC00057568686D6D4406170000000044062802
:104BBC00000000004105791E44061B000000004265
:104BCC00062600004106340044062C000000004478
:104BDC0005AD000000004406050000000042051968
:094BEC00000044051D68686D6DB0
:03000B0002729EE0
:10729E00C0E0C083C082758A00758CB8900627E066
:1072AE0004F07006900626E004F0D082D083D0E081
:0172BE00329D
:03001B000274CE9E
:0974CE00B295758B00758DB83282
:0300030002643F55
:10643F00C0E0C0F0C083C082C0D075D000C000C023
:10644F0001C002C003C004C005C006C00720B20DC2
:10645F00758A00758CB8D28CD2A9026519C28CAC22
:10646F008CE412252190062C122BAE9003C0122B18
:10647F00BA410000007F007E007D007C40125D2746
:10648F0090062CE0F8A3E0F9A3E0FAA3E0FB1222B8
:10649F00E7C004C005C006C007AC8AE4122521D0AE
:1064AF0003D002D001D0001221F6E4FBFA7938783C
:1064BF00C71221F67BBC7A74799378411223F0903E
:1064CF00062C122BAE90062CE0F8A3E0F9A3E0FA0D
:1064DF00A3E0FBC000C001C002C003900626E0FE8F
:1064EF00A3E0FF7C037DE812293DAC06AD07E41263
:1064FF00251CD003D002D001D0001221F690062C1B
:10650F00122BAE900626E4F0A3F0D007D006D005EC
:10651F00D004D003D002D001D000D0D0D082D0830D
:05652F00D0F0D0E032C5
:100026009003CA7401F0E4A3F0A3F0A3F0A3F0A335
:10003600F0A3F09003ECF0A3F09003F0122BBA00BB
:1000460000000090064BE4F0A304F0E4900647F0AD
:10005600A3F0900645F0A3F090064DF0A3F0126EC3
:100066002212747B1274A21273551270E2127488F3
:100076001273C9438E80E4F58A758CB8F589F58BC1
:10008600758DB8D28ED2ABD2AF7D067F0912736F53
:100096007F647E001272FF7D05E4FF12736F7F643A
:1000A6007E001272FF7F017E001273B47F68126CAD
:1000B600727F68126C727F6D126C727F6D126C7239
:1000C6007F23126C72E49003EEF0A3F09003EEE04F
:1000D600FAA3E0FBAE027802C333CE33CED8F924BE
:1000E60021F58274053EF583122BBA00000000AD9F
:1000F60003AC02EC12251CE4FBFAF978401223F05B
:10010600E4FBFA79E078401221F6C004C005C00687
:10011600C0079003EEE0FAA3E0FBAE027802C33319
:10012600CE33CED8F924B1F58274053EF583D007D7
:10013600D006D005D004122BAEEB25E0FFEA33FE45
:1001460074832FF58274053EF583E4F0A3F09003E3
:10015600EFE004F070069003EEE004F09003EEE0AA
:100166007004A3E0641560030200D212743D7F4060
:100176007E1F1272FF1274E07FF47E011272FF7B03
:10018600FF7A6E797B12727A124FB67F08126FF47D
:100196007F06126FF47F50126C727F53126C727F5F
:1001A6003A126C72900628E0FCA3E0FDA3E0FEA3E1
:1001B600E0FF125E8D7F6D126C727F6D126C727F26
:1001C600027E001273B4900613E0FF12731D7F3A8D
:1001D600126C72900616E0FF12731D7F3A126C7253
:1001E600900635E0547FFF12731D7F3B126C7290B0
:1001F6000609E0FF12731D900612E0FF12731D7FC1
:100206003B126C72900649E07002A3E060047F41E5
:10021600800C900649E07002A3E070057F4D126CD9
:1002260072900647E07002A3E06064900649E070B1
:1002360002A3E0705A90064BE0FEA3E0FFEE4F24C7
:10024600FF92027F2A7E0012703490064BE0700403
:10025600A3E064019006287015E0FCA3E0FDA3E08E
:10026600FEA3E0FF7BCD7ACC79CC783E8013E0FC10
:10027600A3E0FDA3E0FEA3E0FF7BCD7ACC79CC78AA
:10028600BE1221F6900628122BAEE49003CAF09017
:100296000645E07002A3E0606A900649E07002A39A
:1002A600E0706090064BE0FEA3E0FFEE4F24FF9265
:1002B600027F2A7E0012703490064BE07004A3E0A1
:1002C60064019006287015E0FCA3E0FDA3E0FEA300
:1002D600E0FF7BCD7ACC79CC783E8013E0FCA3E0BE
:1002E600FDA3E0FEA3E0FF7BCD7ACC79CC78BE12ED
:1002F60021F6900628122BAEE49003CAF09006452C
:10030600F0A3F030A3439003CAE0703DFFFEFDFC6E
:10031600900628E0F8A3E0F9A3E0FAA3E0FB122494
:100326008D60025024900628122BBA00000000901F
:1003360003CA7401F0E4900647F0A3F0900645F076
:10034600A3F090064BF0A304F01274BA900616E0E0
:10035600900623F09004EC7401F0A37406F0A374E5
:1003660012F0A37401F0A37406F0A37413F0A3743F
:1003760001F0A37406F0A37416F0A37401F0A3743D
:1003860006F0A37435F07B017A067909126D59904F
:100396000616E0FF127344EF75F03284E5F0702D17
:1003A600900635E0547FFF127344EF70207BFF7A8E
:1003B6006E797F1270AF7F2C7E011272FF7BFF7AFF
:1003C6006E797B12727A7F2C7E011272FF9006493B
:1003D600E07002A3E07003021502900616E0FF1219
:1003E6007344900579E0FEEF8EF084E5F060030239
:1003F6000D40900635E0547FFF127344EF60030210
:100406000D40900613E0FF127344EFD3941040039F
:10041600020D2A900613E0FF127344EFC3940750AF
:1004260003020D2A900609E0FF900612E0FDA3E004
:10043600FB900616E09003FBF0900635E09003FC77
:10044600F01253429003F4122BAE900616E0FF1200
:100456007344AC07E4122521E4FBFA797078421262
:1004660023F0C004C005C006C007900613E0FF12C3
:100476007344AC07E4122521D003D002D001D0008A
:100486001221F69004EF122BAE9004EC74FFF0A349
:10049600746EF0A374A9F07B017A05797A12477E0F
:1004A6007BFF7A6E79AE1270AF7F0A7E001272FF02
:1004B6007B017A05797A1270AF7BFF7A6E79BD126D
:1004C60070AF7F0A7E001272FF900616E0FF12736D
:1004D60044AC07E4122521E4FBFA79707842122332
:1004E600F0C004C005C006C007900613E0FF1273F3
:1004F60044AC07E4122521D003D002D001D000126B
:1005060021F6E4FBFA79E078C01221F6E4FBFA79E9
:100516007078421222E7C004C005C006C0079005E5
:1005260079E0FCE4122521A804A905AA06AB07D0A8
:1005360007D006D005D0041223F0122555900610D8
:10054600EEF0A3EFF0E025E0FF900610E033FE7436
:10055600832FF58274053EF583E4F0A304F0D29769
:10056600C292900609E0FF900612E0FD900616E0A2
:100576009003FBF0900635E09003FCF0A37401F0C5
:10058600A37406F0A37428F0A37401F0A37403F017
:10059600A374CFF0A37401F0A37403F0A374F0F076
:1005A600A37401F0A37403F0A374CDF0A37401F057
:1005B600A37406F0A3741BF0900613E0FB1256C258
:1005C600C004C005C006C007900610E0FEA3E07890
:1005D60002C333CE33CED8F92421F58274053EF515
:1005E60083D007D006D005D004122BAE7F9A7E9911
:1005F6007D997C3F9005ADE0F8A3E0F9A3E0FAA36E
:10060600E0FB1222E7900605E0F8A3E0F9A3E0FA82
:10061600A3E0FB12248D607D407B900616E09004DB
:100626001FF0900635E0900420F0A37401F0A37447
:1006360006F0A37428F0A3122BBA0000000090065F
:1006460013E0FB900612E0FD900609E0FF123C4D18
:10065600900610E0FAA3E0FBAE027802C333CE3375
:10066600CED8F92421F58274053EF583122BBA0003
:10067600000000EB25E0FFEA33FE74832FF5827459
:10068600053EF583E4F0A3F0900617122BBA00009E
:100696000000020AA0900611E0243FFF900610E039
:1006A6003400FE3395E0FDFC9003F9122BAE7F0279
:1006B60012622DEF64016003020870900630E0FEBE
:1006C600A3E0FF7C007D0312293DEE3395E0FDFC9F
:1006D6009003F9122BAE7F0212622DEF64016003C4
:1006E600020798900630E0FEA3E0FF7C007D03122F
:1006F600293DEF2402FFE43EFE3395E0FDFC900326
:10070600F9122BAE7F0212622DAC07E4122521E40A
:10071600FBFA79C878421223F0C004C005C006C0AF
:1007260007900630E0FEA3E0FF7C007D0312293D22
:10073600EF2401FFE43EFE3395E0FDFC9003F91241
:100746002BAE7F0212622DAC07E4122521D003D016
:1007560002D001D0001221F6C004C005C006C007B1
:10076600900610E0FEA3E07802C333CE33CED8F96C
:100776002421F58274053EF583E0FCA3E0FDA3E0A9
:10078600FEA3E0FFD003D002D001D0001221F20276
:10079600086A900630E0FEA3E0FF7C007D03122984
:1007A6003DEE3395E0FDFC9003F9122BAE7F02126D
:1007B600622DEF6003020870900630E0FEA3E0FFB2
:1007C6007C007D0312293DEF2401FFE43EFE3395B4
:1007D600E0FDFC9003F9122BAE7F0212622DAC07EE
:1007E600E4122521C004C005C006C007900610E02B
:1007F600FEA3E07802C333CE33CED8F92421F582A6
:1008060074053EF583E0F8A3E0F9A3E0FAA3E0FB64
:10081600D007D006D005D0041221F6C004C005C00A
:1008260006C007900630E0FEA3E0FF7C007D0312C1
:10083600293DEF2402FFE43EFE3395E0FDFC9003E4
:10084600F9122BAE7F0212622DAC07E4122521E4C9
:10085600FBFA79C878421223F0D003D002D001D037
:10086600001221F6900617122BAE7F327E0012710F
:100876004B126D0C900610E0FAA3E0FB243FFFE458
:100886003AFE3395E0FDFC900407122BAEEB25E013
:10089600FFEA33FE74832FF58274053EF583A3E0E9
:1008A60090040BF07F021263447F327E0012714B7C
:1008B600126D0C900610E0FEA3E07802C333CE332F
:1008C600CED8F92421F58274053EF583E0FCA3E039
:1008D600FDA3E0FEA3E0FFE4FBFAF9F812248D90F5
:1008E60003CBE0FEA3E0FF7C007D64502C12293D83
:1008F600AA06AB07900610E0FEA3E0FF7D031229CF
:100906003DEF2BFFEE3AFE3395E0FDFC9004071217
:100916002BAE90040B7401802912293DAA06AB0761
:10092600900610E0FEA3E0FF7D0312293DEF2BFFAA
:10093600EE3AFE3395E0FDFC900407122BAEE490F0
:10094600040BF07F021263447F327E0012714B7FEC
:10095600327E0012714B126D0C900610E0FEA3E081
:100966007802C333CE33CED8F92421F58274053EFE
:10097600F583E0FCA3E0FDA3E0FEA3E0FF1225550E
:100986001274AE90040BEFF0900610E0FEA3E0FFA9
:100996007C007D0312293DEF2401FBE43EFA90031F
:1009A600CBE0FEA3E0FF7D6412293DEF2BFFEE3A7C
:1009B600FE3395E0FDFC900407122BAE7F02126316
:1009C600447F327E0012714B7F327E0012714B12D1
:1009D6006D0C900610E0FEA3E07802C333CE33CE52
:1009E600D8F92421F58274053EF583E0FCA3E0FDE9
:1009F600A3E0FEA3E0FF127495C004C005C006C0C4
:100A060007900610E0FEA3E07802C333CE33CED8BB
:100A1600F92421F58274053EF583E0FCA3E0FDA3ED
:100A2600E0FEA3E0FF1225551274AEAC06AD07EC4E
:100A360012251CA804A905AA06AB07D007D006D024
:100A460005D0041221F2E4FBFA79C878421222E7B3
:100A560012255590040BEFF0900610E0FEA3E0FF80
:100A66007C007D0312293DEF2402FBE43EFA90034D
:100A7600CBE0FEA3E0FF7D6412293DEF2BFFEE3AAB
:100A8600FE3395E0FDFC900407122BAE7F02126345
:100A9600447F327E0012714B8000900609E090037D
:100AA600E1F0900612E09003E2F0900613E0900366
:100AB600E3F0900616E09003E4F09003CFE0FEA387
:100AC600E07802CEC313CE13D8F99003E5F0900672
:100AD60028E0FCA3E0FDA3E0FEA3E0FF122555906D
:100AE60003E6EFF0FCE4122521A804A905AA06AB4B
:100AF60007900628E0FCA3E0FDA3E0FEA3E0FF12BA
:100B060021F2E4FBFA79C878421222E712255590C1
:100B160003E7EFF0E4FBFA7980784090062CE0FCDE
:100B2600A3E0FDA3E0FEA3E0FF1223F012255590FB
:100B360003E8EFF09003CDE0FEA3E07802CEC31306
:100B4600CE13D8F99003E9F09003F0E0FCA3E0FDA2
:100B5600A3E0FEA3E0FF1225559003EAEFF0FCE4C4
:100B6600122521A804A905AA06AB079003F0E0FC0C
:100B7600A3E0FDA3E0FEA3E0FF1221F2E4FBFA7975
:100B8600C878421222E71225559003EBEFF07F3228
:100B96007E0012714B78F87C037D017B017A037924
:100BA600E17E007F0B1228BF9004037401F0A3744A
:100BB60006F0A3741BF0125A169004EC74FFF0A30F
:100BC600746EF0A374A9F09003F0E0FCA3E0FDA31B
:100BD600E0FEA3E0FF9004EF122BAE7B017A0579CD
:100BE6007A12477E7BFF7A6E79AE1270AF7FC87E2F
:100BF6000012725C7B017A05797A1270AF7BFF7AFC
:100C06006E79C11270AF7F907E0112725C9004EC17
:100C160074FFF0A3746EF0A374A9F09003CFE0FC08
:100C2600A3E0FDE412251CE4FBFA79807844122344
:100C3600F0E4FBFA79A078401222E79004EF122B39
:100C4600AE7B017A05797A12477E7BFF7A6E79AEA2
:100C56001270AF7FC87E0012725C7B017A05797ACA
:100C66001270AF7BFF7A6E79C51270AF7F907E01EE
:100C760012725C9004EC74FFF0A3746EF0A374A976
:100C8600F0900628E0FCA3E0FDA3E0FEA3E0FF90C1
:100C960004EF122BAE7B017A05797A12477E7BFF31
:100CA6007A6E79AE1270AF7FC87E0012725C7B01DD
:100CB6007A05797A1270AF7BFF7A6E79C91270AFB6
:100CC6007F907E0112725C9004EC74FFF0A3746E48
:100CD600F0A374A9F090062CE0FCA3E0FDA3E0FECF
:100CE600A3E0FF9004EF122BAE7B017A05797A120E
:100CF600477E7BFF7A6E79AE1270AF7FC87E001298
:100D0600725C7B017A05797A1270AF7FC87E001219
:100D1600725C7BFF7A6E79CD1270AF7FC87E00124F
:100D2600725C8016900613E0FF127344EFC39411B1
:100D360040089003CBE4F0A304F09003CBE07002EC
:100D4600A3E06003020E71900616E0FF1273449052
:100D56000579E0FEEF8EF084E5F07003020E7190E7
:100D66000613E0FF127344EFD394104003021502FA
:100D7600900613E0FF127344EFC394075003021565
:100D860002900616E0FF127344AC07E4122521E434
:100D9600FBFA797078421223F0C004C005C006C081
:100DA60007900613E0FF127344AC07E4122521D026
:100DB60003D002D001D0001221F6E4FBFA79E078E4
:100DC600C01221F6E4FBFA797078421222E7C004D9
:100DD600C005C006C007900579E0FCE4122521A8ED
:100DE60004A905AA06AB07D007D006D005D0041281
:100DF60023F0122555900610EEF0A3EFF0C297D21D
:100E060092900616E090041FF0900635E0900420BC
:100E1600F0A37401F0A37406F0A37428F0900610F2
:100E2600E0FEA3E07802C333CE33CED8F92421F511
:100E36008274053EF583E0FCA3E0FDA3E0FEA3E09B
:100E4600FF900424122BAE900613E0FB900612E0EE
:100E5600FD900609E0FF123C4D900616E0FF900655
:100E660023E06F70030215020213459003CBE07076
:100E760004A3E064016003021502900616E0FF1267
:100E86007344900579E0FEEF8EF084E5F07003027E
:100E96001502900613E0FF127344EFD3941040033B
:100EA600021502900613E0FF127344EFC394075035
:100EB60003021502900616E0FF127344AC07E41213
:100EC6002521E4FBFA797078421223F0C004C005AC
:100ED600C006C007900613E0FF127344AC07E41285
:100EE6002521D003D002D001D0001221F6E4FBFA6E
:100EF60079E078C01221F6E4FBFA79707842122282
:100F0600E7C004C005C006C007900579E0FCE412FE
:100F16002521A804A905AA06AB07D007D006D00547
:100F2600D0041223F0122555900610EEF0A3EFF030
:100F3600900610E0FAA3E0FBAE027802C333CE338C
:100F4600CED8F924B1F58274053EF583E0FCA3E022
:100F5600FDA3E0FEA3E0FF9003D1122BAE7C007D43
:100F660003AF03AE0212293DEF2464FFE43EFE33D5
:100F760095E0FDFC9003F9122BAE7F0212622DEF75
:100F860064017078900610E0FEA3E0FF7C007D030C
:100F960012293DEF2466FFE43EFE3395E0FDFC900A
:100FA60003F9122BAE7F0212622DAC07E412252143
:100FB600E4FBFA79C878421223F0C004C005C006E3
:100FC600C007900610E0FEA3E0FF7C007D03122917
:100FD6003DEF2465FFE43EFE3395E0FDFC9003F90A
:100FE600122BAE7F0212622DAC07E4122521D0032C
:100FF600D002D001D0001221F60210A6900610E011
:10100600FEA3E0FF7C007D0312293DEF2464FFE48C
:101016003EFE3395E0FDFC9003F9122BAE7F0212E3
:10102600622DEF60030210AC900610E0FEA3E0FF15
:101036007C007D0312293DEF2466FFE43EFE3395D6
:10104600E0FDFC9003F9122BAE7F0212622DAC0775
:10105600E4122521E4FBFA79C878421223F0C00491
:10106600C005C006C007900610E0FEA3E0FF7C00A6
:101076007D0312293DEF2465FFE43EFE3395E0FD36
:10108600FC9003F9122BAE7F0212622DAC07E4121C
:101096002521122506D003D002D001D0001221F25C
:1010A6009003D5122BAEC297D292900610E0FAA307
:1010B600E0FB25E0FFEA33FE74832FF58274053EDC
:1010C600F583E0FEA3E064014E60030212D3EBAEAB
:1010D600027802C333CE33CED8F924B5F58274052F
:1010E6003EF583E0FCA3E0FDA3E0FEA3E0FF900352
:1010F600D9122BAEEB2401FFE43AFE7C007D0312ED
:10110600293DEE3395E0FDFC9003F9122BAE7F02EC
:1011160012622DEF64017078900610E0FEA3E0FFE6
:101126007C007D0312293DEF2405FFE43EFE339546
:10113600E0FDFC9003F9122BAE7F0212622DAC0784
:10114600E4122521E4FBFA79C878421223F0C004A0
:10115600C005C006C007900610E0FEA3E0FF7C00B5
:101166007D0312293DEF2404FFE43EFE3395E0FDA6
:10117600FC9003F9122BAE7F0212622DAC07E4122B
:101186002521D003D002D001D0001221F602123A56
:10119600900611E02401FF900610E03400FE7C006A
:1011A6007D0312293DEE3395E0FDFC9003F9122BE9
:1011B600AE7F0212622DEF6003021251900610E01C
:1011C600FEA3E0FF7C007D0312293DEF2405FFE42A
:1011D6003EFE3395E0FDFC9003F9122BAE7F021222
:1011E600622DAC07E4122521E4FBFA79C878421295
:1011F60023F0C004C005C006C007900610E0FEA399
:10120600E0FF7C007D0312293DEF2404FFE43EFE4F
:101216003395E0FDFC9003F9122BAE7F0212622D8E
:10122600AC07E4122521122506D003D002D001D046
:10123600001221F2900617E0F8A3E0F9A3E0FAA362
:10124600E0FB1221F69003DD122BAE7F017E001229
:1012560073B49003DDE0FCA3E0FDA3E0FEA3E0FF92
:10126600125E8D900616E0FF127344AC07E4122559
:1012760021E4FBFA797078421223F0C004C005C05D
:1012860006C007900613E0FF127344AC07E412256C
:1012960021D003D002D001D0001221F69004AE1264
:1012A6002BAE789E7C047D017B017A0379D17E008A
:1012B6007F081228BF78A67C047D017B017A03791A
:1012C600D97E007F081228BF126632802F7B017AF2
:1012D600057983900610E0FCA3E0FD127231EF78E9
:1012E60002C333CE33CED8F92421F58274053EF5F8
:1012F60083E0FCA3E0FDA3E0FEA3E0FF900424123C
:101306002BAE900609E0FF900612E0FD900616E06F
:1013160090041FF0900635E0900420F0A37401F0CD
:10132600A37406F0A37428F0900613E0FB123C4D5C
:10133600900616E0FF900623E06F70030215021276
:101346007344AC07E4122521E4FBFA797078421263
:1013560023F0C004C005C006C007900613E0FF12C4
:101366007344AC07E4122521D003D002D001D0008B
:101376001221F6C004C005C006C007900635E05429
:101386007FFF127344AC07E4122521E4FBFA79616E
:1013960078451223F0D003D002D001D0001221F6F6
:1013A6009004EF122BAE9004EC74FFF0A3746EF071
:1013B600A374A9F07B017A05797A12477E7BFF7ABE
:1013C6006E79AE1270AF7FC87E001272FF7B017A13
:1013D60005797A1270AF7BFF7A6E79BD1270AF7F96
:1013E600C87E0012725C9004EC74FFF0A3746EF079
:1013F600A374A9F0900628E0FCA3E0FDA3E0FEA3F9
:10140600E0FF9004EF122BAE7B017A05797A124742
:101416007E7BFF7A6E79AE1270AF7FC87E00127245
:101426005C7B017A05797A1270AF7BFF7A6E79C997
:101436001270AF7FC87E0012725C9004EC74FFF0ED
:10144600A3746EF0A374A9F090062CE0FCA3E0FD53
:10145600A3E0FEA3E0FF9004EF122BAE7B017A051A
:10146600797A12477E7BFF7A6E79AE1270AF7FC8AB
:101476007E0012725C7B017A05797A1270AF7FC8A2
:101486007E0012725C7BFF7A6E79CD1270AF7FC8D8
:101496007E0012725CE4FF127169AC06AD07E412BD
:1014A600251CE4FBFA798078441223F0E4FBFA79F0
:1014B600A078401222E79004EF122BAE9004EC7451
:1014C600FFF0A3746EF0A374A9F07B017A05797A14
:1014D60012477E7BFF7A6E79AE1270AF7FC87E00B0
:1014E60012725C7B017A05797A1270AF7BFF7A6E95
:1014F60079C51270AF7FC87E0012725C900613E049
:10150600FF127344EFD394105013900613E0FF12AA
:101516007344EFC394074005D2CD02219990061378
:10152600E0FF127344EF6410600302211C9006165C
:10153600E0FF127344EF643A600302211C90063503
:10154600E0547FFF127344EF600302211CC2CD906A
:1015560003CBE07004A3E064016003021796126DEA
:101566000C126DC87F057E0012714BE490061FF0C9
:10157600A3F090061FE0FEA3E0FFD39414EE648070
:1015860094804003021796EF25E0FFEE33FE748346
:101596002FF58274053EF583E0FEA3E064014E60FC
:1015A600030217857F32FE12714B126D0C90061FD7
:1015B600E0FAA3E0FB243FFFE43AFE3395E0FDFCAE
:1015C600900407122BAEEB25E0FFEA33FE74832F5F
:1015D600F58274053EF583A3E090040BF07F0212BA
:1015E60063447F327E0012714B126D0C90061FE031
:1015F600FEA3E07802C333CE33CED8F92421F58298
:1016060074053EF583E0FCA3E0FDA3E0FEA3E0FF46
:10161600E4FBFAF9F812248D90061FE0FEA3E0FF22
:101626007C007D03501612293DEE3395E0FDFC90BB
:101636000407122BAE90040B7401801312293DEEA1
:101646003395E0FDFC900407122BAEE490040BF0FA
:101656007F021263447F327E0012714B7F327E001E
:1016660012714B126D0C90061FE0FEA3E07802C3C8
:1016760033CE33CED8F92421F58274053EF583E0C6
:10168600FCA3E0FDA3E0FEA3E0FF1225551274AE15
:1016960090040BEFF090061FE0FEA3E0FF7C007DB8
:1016A6000312293DEF2401FFE43EFE3395E0FDFCE5
:1016B600900407122BAE7F021263447F327E001223
:1016C600714B7F327E0012714B126D0C90061FE03B
:1016D600FEA3E07802C333CE33CED8F92421F582B7
:1016E60074053EF583E0FCA3E0FDA3E0FEA3E0FF66
:1016F600127495C004C005C006C00790061FE0FE20
:10170600A3E07802C333CE33CED8F92421F5827410
:10171600053EF583E0FCA3E0FDA3E0FEA3E0FF1297
:1017260025551274AEAC06AD07EC12251CA804A90B
:1017360005AA06AB07D007D006D005D0041221F2C1
:10174600E4FBFA79C878421222E712255590040B79
:10175600EFF090061FE0FEA3E0FF7C007D03122958
:101766003DEF2402FFE43EFE3395E0FDFC900407C6
:10177600122BAE7F021263447F327E0012714B90B1
:101786000620E004F0700690061FE004F0021578CB
:10179600E4900630F0A3F090060AE07004A3E0643B
:1017A600016003021A7790060DE02401FE90060CF4
:1017B600E03400900632F0A3CEF090060EE0FEA3D1
:1017C600E0FFC3900633E09FEE6480F8900632E0B7
:1017D6006480984003021A40789E7C047D017B0158
:1017E6007A0379D17E007F081228BF78A67C047D13
:1017F600017B017A0379D97E007F081228BF900603
:1018060032E0FEA3E07802C333CE33CED8F924B15A
:10181600F58274053EF583E0FCA3E0FDA3E0FEA39C
:10182600E0FF9004AE122BAE126632C004C005C0B3
:1018360006C007900632E0FEA3E07802C333CE333B
:10184600CED8F92421F58274053EF583D007D0065B
:10185600D005D004122BAE7F327E0012714B126D72
:101866000C900632E0FEA3E07802C333CE33CED826
:10187600F92421F58274053EF583E0FCA3E0FDA37F
:10188600E0FEA3E0FFE4FBFAF9F812248D9006329D
:10189600E0FEA3E0FF7C007D03501612293DEE33E7
:1018A60095E0FDFC900407122BAE90040B740180AA
:1018B6001312293DEE3395E0FDFC900407122BAE82
:1018C600E490040BF07F021263447F327E001271B3
:1018D6004B7F327E0012714B126D0C900632E0FE89
:1018E600A3E07802C333CE33CED8F92421F582742F
:1018F600053EF583E0FCA3E0FDA3E0FEA3E0FF12B6
:1019060025551274AE90040BEFF0900632E0FEA35C
:10191600E0FF7C007D0312293DEF2401FFE43EFE3B
:101926003395E0FDFC900407122BAE7F0212634450
:101936007F327E0012714B7F327E0012714B126D28
:101946000C900632E0FEA3E07802C333CE33CED845
:10195600F92421F58274053EF583E0FCA3E0FDA39E
:10196600E0FEA3E0FF127495C004C005C006C007E0
:10197600900632E0FEA3E07802C333CE33CED8F928
:101986002421F58274053EF583E0FCA3E0FDA3E087
:10199600FEA3E0FF1225551274AEAC06AD07EC129D
:1019A600251CA804A905AA06AB07D007D006D005B2
:1019B600D0041221F2E4FBFA79C878421222E71227
:1019C600255590040BEFF0900632E0FEA3E0FF7C75
:1019D600007D0312293DEF2402FFE43EFE3395E02D
:1019E600FDFC900407122BAE7F021263447F327E09
:1019F6000012714B7F327E0012714B126D0C9006F5
:101A060033E0243FFF900632E03400FE3395E0FDDC
:101A1600FC900407122BAE90040B7401F07F0212A7
:101A260063447F327E0012714B900633E004F070FF
:101A360006900632E004F00217C09003D9E0FCA33A
:101A4600E0FDA3E0FEA3E0FF9003D1122BAE9003CE
:101A5600DDE0FCA3E0FDA3E0FEA3E0FF9003D512CA
:101A66002BAE90060EE0FFA3E090060CCFF0A3EF9E
:101A7600F0900630E0FAA3E0FB25E0FFEA33FE74BF
:101A8600832FF58274053EF583E0FEA3E064014EE4
:101A96006003021B3D90060AE07004A3E064016047
:101AA60003021B3DEBAE027802C333CE33CED8F928
:101AB60024B1F58274053EF583E0FCA3E0FDA3E0C6
:101AC600FEA3E0FF9003D9122BAE7C007D03AF038B
:101AD600AE0212293DEE3395E0FDFC9003F9122B80
:101AE600AE7F0212622DEF7012900630E0FEA3E088
:101AF6007802C333CE33CED8F98010900630E0FE9C
:101B0600A3E07802C333CE33CED8F92421F582740C
:101B1600053EF583E0FCA3E0FDA3E0FEA3E0FF9015
:101B260003DD122BAE900630E0FFA3E090060ECF49
:101B3600F0A3EFF0021E97900630E0FAA3E0FB2533
:101B4600E0FFEA33FE74832FF58274053EF583E0E9
:101B5600FEA3E064014E6003021E9790060AE07041
:101B660002A3E06003021E97EBAE027802C333CEF7
:101B760033CED8F924B1F58274053EF583E0FCA393
:101B8600E0FDA3E0FEA3E0FF9003D1122BAE7C00A4
:101B96007D03AF03AE0212293DEE3395E0FDFC90C6
:101BA60003F9122BAE7F0212622DEF7012900630EF
:101BB600E0FEA3E07802C333CE33CED8F98010908E
:101BC6000630E0FEA3E07802C333CE33CED8F92444
:101BD60021F58274053EF583E0FCA3E0FDA3E0FE5B
:101BE600A3E0FF9003D5122BAE900630E0FEA3E0F3
:101BF600FF90060CEEF0A3EFF0A3EEF0A3EFF0904B
:101C060003D1E0FCA3E0FDA3E0FEA3E0FF9003D92F
:101C1600122BAE9003D5E0FCA3E0FDA3E0FEA3E00B
:101C2600FF9003DD122BAE90060AE4F0A304F090B9
:101C36000583E07002A3E06003021E9790061FF082
:101C4600A3F0900630E0FEA3E0FFC3900620E09FDD
:101C5600EE6480F890061FE06480984003021E97A9
:101C6600EF7802C333CE33CED8F92421F58274053A
:101C76003EF583E0FCA3E0FDA3E0FEA3E0FFC00485
:101C8600C005C006C00790061FE0FEA3E07802C3A9
:101C960033CE33CED8F92421F58274053EF583D0B0
:101CA60007D006D005D004122BAE7F327E0012710B
:101CB6004B126D0C900620E0243FFF90061FE03487
:101CC60000FE3395E0FDFC900407122BAE90040B4A
:101CD6007401F07F021263447F327E0012714B1250
:101CE6006D0C90061FE0FEA3E07802C333CE33CE20
:101CF600D8F92421F58274053EF583E0FCA3E0FDC6
:101D0600A3E0FEA3E0FFE4FBFAF9F812248D9006A7
:101D16001F6002501FE0FEA3E0FF7C007D03122936
:101D26003DEE3395E0FDFC900407122BAE90040BBC
:101D36007401801CE0FEA3E0FF7C007D0312293DB8
:101D4600EE3395E0FDFC900407122BAEE490040BF5
:101D5600F07F021263447F327E0012714B7F327E27
:101D66000012714B126D0C90061FE0FEA3E0780284
:101D7600C333CE33CED8F92421F58274053EF583DC
:101D8600E0FCA3E0FDA3E0FEA3E0FF1225551274DC
:101D9600AE90040BEFF090061FE0FEA3E0FF7C0080
:101DA6007D0312293DEF2401FFE43EFE3395E0FD5D
:101DB600FC900407122BAE7F021263447F327E0032
:101DC60012714B7F327E0012714B126D0C90061F02
:101DD600E0FEA3E07802C333CE33CED8F92421F552
:101DE6008274053EF583E0FCA3E0FDA3E0FEA3E0DC
:101DF600FF127495C004C005C006C00790061FE018
:101E0600FEA3E07802C333CE33CED8F92421F5827F
:101E160074053EF583E0FCA3E0FDA3E0FEA3E0FF2E
:101E26001225551274AEAC06AD07EC12251CA8049B
:101E3600A905AA06AB07D007D006D005D004122103
:101E4600F2E4FBFA79C878421222E712255590048B
:101E56000BEFF090061FE0FEA3E0FF7C007D03126F
:101E6600293DEF2402FFE43EFE3395E0FDFC90049D
:101E760007122BAE7F021263447F327E0012714B33
:101E8600900620E004F0700690061FE004F0021CA5
:101E960048900631E004F07006900630E004F0D376
:101EA600900631E09414900630E0648094805003EC
:101EB60002179D9005ABE07002A3E0600302219932
:101EC60090060EE0FFA3E0900632CFF0A3EFF0D32A
:101ED600900633E09414900632E0648094804003C8
:101EE60002219990060EE0FEA3E07802C333CE33BA
:101EF600CED8F92421F58274053EF583E0FCA3E0F3
:101F0600FDA3E0FEA3E0FFC004C005C006C0079025
:101F16000632E0FEA3E07802C333CE33CED8F924EE
:101F260021F58274053EF583D007D006D005D0048E
:101F3600122BAE7F327E0012714B126D0C90063260
:101F4600E0FEA3E07802C333CE33CED8F92421F5E0
:101F56008274053EF583E0FCA3E0FDA3E0FEA3E06A
:101F6600FFE4FBFAF9F812248D900632E0FEA3E0B6
:101F7600FF7C007D03501612293DEE3395E0FDFCF3
:101F8600900407122BAE90040B7401801312293DA6
:101F9600EE3395E0FDFC900407122BAEE490040BA3
:101FA600F07F021263447F327E0012714B7F327ED5
:101FB6000012714B126D0C900632E0FEA3E078021F
:101FC600C333CE33CED8F92421F58274053EF5838A
:101FD600E0FCA3E0FDA3E0FEA3E0FF12255512748A
:101FE600AE90040BEFF0900632E0FEA3E0FF7C001B
:101FF6007D0312293DEF2401FFE43EFE3395E0FD0B
:10200600FC900407122BAE7F021263447F327E00DF
:1020160012714B7F327E0012714B126D0C9006329C
:10202600E0FEA3E07802C333CE33CED8F92421F5FF
:102036008274053EF583E0FCA3E0FDA3E0FEA3E089
:10204600FF127495C004C005C006C007900632E0B2
:10205600FEA3E07802C333CE33CED8F92421F5822D
:1020660074053EF583E0FCA3E0FDA3E0FEA3E0FFDC
:102076001225551274AEAC06AD07EC12251CA80449
:10208600A905AA06AB07D007D006D005D0041221B1
:10209600F2E4FBFA79C878421222E7122555900439
:1020A6000BEFF0900632E0FEA3E0FF7C007D03120A
:1020B600293DEF2402FFE43EFE3395E0FDFC90044B
:1020C60007122BAE7F021263447F327E0012714BE1
:1020D6007F327E0012714B126D0C900633E0243F66
:1020E600FF900632E03400FE3395E0FDFC900407D5
:1020F600122BAE90040B7401F07F021263447F3200
:102106007E0012714B900633E004F07006900632A2
:10211600E004F0021ED5900613E0FF127344EF644C
:1021260011705A900616E0FF127344EF704F900636
:1021360035E0547FFF127344EF7042900630F0A3EF
:10214600F0900630E0FEA3E0FFD39414EE64809492
:10215600805040EF7802C333CE33CED8F92421F530
:102166008274053EF583122BBA00000000900631FA
:10217600E004F070CC900630E004F080C4900613C2
:10218600E0FF127344EFC3941140089003CBE4F0D0
:10219600A304F090064DE07004A3E064016003021E
:1021A600018E1274C47F017E001273B47F43126CD9
:1021B600727F4C126C727F45126C727F41126C7288
:1021C6007F52126C72126D0C126DC87F057E001262
:1021D600714B90061B122BBA000000C8E490064D06
:0921E600F0A3F01274C402018E92
:0300230002000ECA
:0D000E00309802C298309904C299C20A329B
:0974D700200AFDD20AEFF599220A
:0673F300D2A27F017E0022
:0E73F900EF1FAC0670011E4C60030080F322F3
:0272BF00AD0719
:1072C100E4FBC2A2ED30E704D2A18002C2A1127395
:0D72D100F51273F3ED25E0FD0BEBB408E5BD
:0172DE00228D
:1072DF00E4FDD2A1FBED25E0FDC2A21273F530A1B2
:0F72EF0004ED4401FD1273F30BEBB408E8AF0597
:0172FE00226D
:10741B00E4FED2A0EF44A0FF1272BF1272DFC2A033
:01742B00223E
:10736F00AA07D2A0ED4420FF1272BFAF021272BF64
:08737F00AF021272BFC2A0228E
:0D747B005395F85396F8D2A0C2A0C2A222E9
:106D59009004E9EBF0A3EAF0A3E9F07F0912741BB0
:106D69009004E9E0FBA3E0FAA3E0F9EF12292B7FF5
:106D79000712741B9004ECE0FBA3E0FAA3E0F9EF1F
:106D890012292B7F0612741B9004EFE0FBA3E0FA93
:106D9900A3E0F9EF12292B7F0512741B9004F2E08E
:106DA900FBA3E0FAA3E0F9EF12292B7F0412741B6D
:0F6DB9009004F5E0FBA3E0FAA3E0F9EF02292B29
:10742C00EFC4540FFEEF540FFFEE75F00AA42FFFBC
:01743C00222D
:106BE60012742CAC07AF0512742CEC14B40C0050C4
:106BF60073906C0575F003A4C58325F0C5837302F5
:106C06006C29026C2C026C31026C36026C3B026CF5
:106C160040026C45026C4A026C4F026C57026C5C77
:106C2600026C617E0022EF241F8021EF243B801C32
:106C3600EF245A8017EF24788012EF2497800DEF07
:106C460024B58008EF24D48003EF24F3FFE433FE59
:106C560022EF24118008EF24308003EF244EFFE456
:076C66003401FE22E4FEFFF1
:016C6D002204
:106E2200E4F5917592FF7F96FE12725C7F03126FFA
:106E3200F47F1E7E0012725C7F03126FF41272588E
:106E42007F03126FF41272587F02126FF47F017E79
:106E52000012725C7F02126FF47F08126FF4E4FF7B
:106E6200126FF47F0E126FF4E4FF126FF47F0612BA
:096E72006FF47F147E0002725CD3
:046C6E00E04430FFCF
:106C72009004F4EFF0D2C0C293E0FF5480C4131327
:106C820013540124FF92B7EF5440C4131354032446
:106C9200FF92B6E0FF5420C413540724FF92B5EFCD
:106CA2005410C4540F24FF92B4D2B37F017E001259
:106CB200725CC2B39004F4E0FF5408131313541F20
:106CC20024FF92B7EF54041313543F24FF92B6E00B
:106CD200FF5402C31324FF92B5EF1392B4127256FB
:056CE200C2B3C2C02294
:106FF400C2C0C293EF5408131313541F6004D2B7D2
:107004008002C2B7EF54041313543F6004D2B68015
:1070140002C2B6EF5402C3136004D2B58002C2B5F3
:10702400EF30E004D2B48002C2B4127256C2B3226A
:06725600D2B37F0A7E00A6
:10725C00EF1FAA0670011E4A6013E4FCFDC3ED94F7
:0D726C0058EC940250EA0DBD00010C80F0BA
:0172790022F2
:10731D00EFC4540F4430FEEF540F44309003F8F097
:0D732D00AF06126C729003F8E0FF026C7264
:0A74BA00E4FF126FF47F02026FF48A
:0A74C400E4FF126FF47F01026FF481
:1073B400EF64014E70047F0880027F0C126FF4E4C6
:0573C400FF126FF4222E
:065E8D009004E9122BAEA7
:105E93009004E9E0FCA3E0FDA3E0FEA3E0FF1225EC
:105EA300551274AE9004F2EEF0A3EFF0E4FFFEFDA2
:105EB300FC9004E9E0F8A3E0F9A3E0FAA3E0FB1205
:105EC300248D602640249004F2E0FCA3E0FDEC1254
:105ED300251CA804A905AA06AB079004E9E0FCA3C6
:105EE300E0FDA3E0FEA3E0FF80359004E9E0FCA31E
:105EF300E0FDA3E0FEA3E0FF122506C004C005C039
:105F030006C0079004F2E0FCA3E0FDEC12251CA8F8
:105F130004A905AA06AB07D007D006D005D0041202
:105F230021F2E4FBFA792078411222E712255590F9
:105F330004F1EFF09004F2E0FAA3E0FB7C007D0AA9
:105F4300FFAE021229A49004EDEDF07C037DE8AFCF
:105F530003AE021229A4A9079004F0E9F07E007CA5
:105F6300037DE812293DC39004F3E09FFB9004F204
:105F7300E09EFA7C007D64AF03FE12294F9004EF8C
:105F8300EFF0E075F064A4FFC3EB9FFFEA95F0FE2A
:105F93007C007D0A12294F9004EEEFF0E4FFFEFD32
:105FA300FC9004E9E0F8A3E0F9A3E0FAA3E0FB1214
:105FB300248D400280057F2D126C729004F0126CC8
:105FC3006E9004EF126C6E9004EE126C6E9004ED02
:0E5FD300126C6E7F2E126C729004F1126C6EC6
:015FE100229D
:104BF5004206470000420645000042064B000042BF
:0D4C05000649000042064D00004106360041
:1072FF00EF1FAA0670011E4A6013E4FCFDC3ED9454
:0D730F0058EC940250EA0DBD00010C80F016
:01731C00224E
:1058890053801E43801EE58044E19003FEF0E0F45E
:105899007003025A13E58044E1F0E0F47003025A00
:1058A900105380DF4380C1E58044E1F0E0F46047B4
:1058B9009003FEE0FFF4600DA3EFF0E58044E19072
:1058C90003FEF080EB9003FFE02411602424F860CC
:1058D9001824FC600C24FE701E9004007401F080F2
:1058E900169004007404F0800E9004007407F08090
:1058F90006900400740CF05380BF4380A1E58044F6
:10590900E19003FEF0E0F460469003FEE0FFF460EE
:105919000DA3EFF0E58044E19003FEF080EB9003E6
:10592900FFE02411602424F8601824FC600C24FE94
:10593900701D9004007402F080159004007405F045
:10594900800D9004007408F08005E4900400F05381
:10595900807F438061E58044E19003FEF0E0F460DC
:10596900479003FEE0FFF4600DA3EFF0E58044E10A
:105979009003FEF080EB9003FFE02411602424F8EB
:10598900601824FC600C24FE701E9004007403F05F
:1059990080169004007406F0800E9004007409F0DB
:1059A9008006900400740BF05380FE4380E0E5808C
:1059B90044E19003FEF0E0F460479003FEE0FFF459
:1059C900600DA3EFF0E58044E19003FEF080EB90D9
:1059D90003FFE02411602424F8601824FC600C24DF
:1059E900FE701E900400740DF08016900400740E71
:1059F900F0800E900400740FF0800690040074107B
:0C5A0900F0900400E0FF227F64227F6424
:015A1500226E
:104FB600900639E0FFA3E0900637CFF0A3EFF0129A
:104FC60058897E00900639EEF0A3EFF0640E700665
:104FD600900645025063900637E0FEA3E0FF646446
:104FE6004E7020A3E07004A3E0640F701690064B89
:104FF600E07002A3E06006E490064B805890064BF2
:10500600E4805A900639E0FCA3E0FD64104C700F72
:10501600900647E07002A3E07005900647803EEDDB
:1050260064104C7010900647E07002A3E06006E43E
:105036009006478020EF64644E7027900639E07032
:1050460004A3E0640D701B900649E07002A3E060C3
:1050560008E4900649F0A3F022900649E4F0A30480
:10506600F022900637E07004A3E064646003025304
:1050760041900639E0FCA3E0FD64644C70030253E2
:1050860041900636E0FF3395E0FEEF25E0FFEE3374
:10509600FE743B2FF58274063EF583ECF0A3EDF02B
:1050A600900636E004F0E0640560030252DFF090FB
:1050B6000643E07004A3E0640B707490063BE0FEC8
:1050C600A3E0FF7C007D0A12293D90063EE02FFFFB
:1050D60090063DE03EAB07FA90063FE0FEA3E0FFF8
:1050E60012293D900642E02FFF900641E03EFED396
:1050F600EB9418EA9400400302526EEF943CEE944F
:1051060000400302526E90063BA3E0C454F0FFA396
:10511600A3E04FFF7D0612736F90063FA3E0C454D1
:10512600F0FFA3A3E04FFF7D0512736F0252659057
:105136000643E07004A3E0640C600302526E90061E
:105146003BE0FEA3E0FF7C007D0A12293D90063E6F
:10515600E02FFF90063DE03E9003FAF0FAA3EFF051
:10516600FB90063FE0FEA3E0FF12293D900642E0D9
:105176002FFF900641E03E9003FCF0A3EFF0D3EB47
:105186009407EA9400507B9003FBE030E023900301
:10519600FDE0941F9003FCE09400400302526590EA
:1051A600063BA3E0C454F0FFA3A3E04FFF1D025249
:1051B6004F9003FAE07004A3E064027024D39003D6
:1051C600FDE0941C9003FCE09400400302526590BD
:1051D600063BA3E0C454F0FFA3A3E04FFF7D098084
:1051E60068D39003FDE0941E9003FCE09400506F9A
:1051F60090063BA3E0C454F0FFA3A3E04FFF7D0954
:1052060080479003FBE020E021D39003FDE0941F4C
:105216009003FCE09400504790063BA3E0C454F092
:10522600FFA3A3E04FFF7D09801FD39003FDE09409
:105236001E9003FCE09400502690063BA3E0C45465
:10524600F0FFA3A3E04FFF7D0912736F90063FA303
:10525600E0C454F0FFA3A3E04FFF7D0712736F90E5
:105266000643E4F0A37464F090063BE07004A3E008
:105276006409703590063DE07004A3E06409702966
:1052860090063FE07004A3E06409701D900641E0BB
:105296007004A3E064097011900643E07002A3E075
:1052A600700790064DF0A304F090064DE07002A33F
:1052B600E070261274C47F08126FF4E4FF126FF4D4
:1052C6007F68126C727F68126C727F6D126C727FCF
:1052D6006D126C727F23126C72E49003F8F0A3F0E7
:1052E600900636E0FFFD3395E0FCC39003F9E09DA0
:1052F6009003F8E09C5044EF64809484502D7F081E
:10530600126FF49003F8A3E0FF126FF49003F9E034
:1053160025E0FF9003F8E033FE743B2FF582740618
:105326003EF583A3E04430FF126C729003F9E0046B
:0B533600F070AD9003F8E004F080A5DB
:015341002249
:0C74A200759300759400E4F594F59322B6
:104C12006028013043340000433E00004348000056
:104C220043520000435C00004366000043700000F2
:104C3200437A00004382000043870000602800A4FA
:104C420043340000432A00004320000043160000C2
:104C5200430C00004302000042F0000042DC00006E
:104C620042C8000042B400006258016042EFA3D77C
:104C720042EF385242EDB33342ECC28F42EAE1488E
:104C820042E8385242E03D7142D170A4429B75C362
:104C920042BEA8F642D5F0A442D5C7AE42D43333C1
:104CA20042D08F5C42CAD70A42C1F5C342B2947B5A
:104CB2004290051F41F428F6C2AC4CCD42BD051FFF
:104CC20042BC2E1442B9385242B3947B42AB947B1D
:104CD200429C4CCD428338524221F5C3C17051EC03
:104CE200C2DB385242A3E66642A2BD71429E3D71CA
:104CF200429675C3428ADC29426BD70A422B333370
:104D02004143851FC22FAE14C2EEF5C3428A6B85A2
:104D12004288A8F642834CCD42728F5C4252CCCD7F
:104D22004221E14841AA51ECC130F5C3C27B28F6C9
:104D3200C2F9947B425D47AE425A1EB8424E3D7163
:104D42004237D70A4214666641B95C293FF851ECF2
:104D5200C1F228F6C2959EB8C2FC28F64227EB851E
:104D62004223B8524216333341FBD70A41A628F6F2
:104D720040CE6666C1770A3DC235147BC2A7333383
:104D8200C2FECCCD41E28F5C41D7EB8541B9851F94
:104D920041830A3D40C1999AC112E148C1F370A40E
:104DA200C265D70AC2B6199AC2FFA8F64161999A9A
:104DB200414E147B410CCCCD00000000C107AE1463
:104DC200C1BC28F6C22C147BC2884CCDC2C1CCCD4A
:104DD200C2FEAE140000000000000000C0B80000D7
:104DE200C142E148C1B55C29C212851FC25AE148DD
:104DF200C299C28FC2CA9EB8C2FF75C3C162B852FD
:104E0200C170CCCDC1991EB8C1D2F5C3C210E14860
:104E1200C242E148C282F0A4C2A7C7AEC2D22E14D7
:104E2200C2FEFAE1C1E1D70AC1EC51ECC204EB8542
:104E3200C21E70A4C240EB85C2705C29C295428F2B
:104E4200C2B5C28FC2D9428FC2FF147BC228851F4E
:104E5200C22C5C29C2397AE1C250A3D7C2716666FC
:104E6200C28D0A3DC2A56148C2C18F5CC2DF947B7C
:104E7200C2FF851FC25E147BC261999AC26F28F677
:104E8200C282051FC28F2E14C2A05C29C2B4C7AE53
:104E9200C2CBD1ECC2E551ECC2FFE666C28A199AD6
:104EA200C28C47AEC290D1ECC2990F5CC2A46148D9
:104EB200C2B2947BC2C36148C2D5A3D7C2EA0F5C17
:104EC200C3000F5C603C00F4400CCCCD40DCCCCD88
:104ED2004139999A4182666641A8000041CD999A6A
:104EE20041F33333420C6666421F333342320000D1
:104EF2004244CCCD4257999A426A6666427D333328
:104F02004288000060A00004C1E1D70AC1EC51EC64
:104F1200C204EB85C21E70A4C240EB85C2705C293C
:104F2200C295428FC2B5C28FC2D9428FC2FF147BD3
:104F3200C228851FC22C5C29C2397AE1C250A3D78C
:104F4200C2716666C28D0A3DC2A56148C2C18F5C4C
:104F5200C2DF947BC2FF851FC25E147BC261999A35
:104F6200C26F28F6C282051FC28F2E14C2A05C290E
:104F7200C2B4C7AEC2CBD1ECC2E551ECC2FFE66609
:104F8200C28A199AC28C47AEC290D1ECC2990F5C08
:104F9200C2A46148C2B2947BC2C36148C2D5A3D73E
:104FA200C2EA0F5CC3000F5C440000C0A0000041D5
:034FB20000D40028
:1073C900900158122BBAC2932E1490015C122BBA59
:0573D90042360A3D22CE
:0A733A00122BAE900420E0547FFFF8
:10734400EFC4540FFEEF540FFFEE75F00AA42FFFA5
:017354002216
:106F1C009000EC30031A7404F07B017A0079E712CC
:106F2C00678D7F027E001272FF9000EC7406801851
:106F3C007405F07B017A0079E712678D7F027E0081
:106F4C001272FF9000EC7407F07B017A0079E71263
:0A6F5C00678D7F027E001272FF2293
:087034009004EDEEF0A3EFF073
:10703C00E4A3F0A3F09004EFF0A3F09004EDE0FED5
:10704C00A3E0FFC39004F0E09F9004EFE09E501784
:10705C00A2029203126F1C9004F0E004F070DC901A
:07706C0004EFE004F080D402
:0170730022FA
:067193009004E9122BAE8E
:10719900E4FFFE7DD07C429004E9E0F8A3E0F9A386
:1071A900E0FAA3E0FB1222E7122555A2019202029E
:0271B900703430
:10660F0078A67C047D017B017E007F081228BF9055
:10661F000442E0FCA3E0FDA3E0FEA3E0FF9004AE84
:03662F00122BAE7D
:106632009004AEE0F8A3E0F9A3E0FAA3E0FB900433
:106642009EE0FCA3E0FDA3E0FEA3E0FF1221F21214
:106652002506C004C005C006C0079004A6E0F8A342
:10666200E0F9A3E0FAA3E0FB90049EE0FCA3E0FDC6
:10667200A3E0FEA3E0FF1221F2A804A905AA06AB3B
:1066820007D007D006D005D0041223F0C004C005FD
:10669200C006C0079004AAE0F8A3E0F9A3E0FAA3B9
:1066A200E0FB9004A2E0FCA3E0FDA3E0FEA3E0FF78
:1066B2001221F2D003D002D001D0001222E79004BE
:0F66C200A2E0F8A3E0F9A3E0FAA3E0FB1221F6AF
:0166D10022A6
:06421E00900442122BAED9
:10422400900486122BBA00000000E490048AF0A3E4
:10423400F090048AE0FEA3E0FFC3940AEE64809445
:104244008040030245ABEF7802C333CE33CED8F9B6
:104254002434F58274013EF583E0FCA3E0FDA3E081
:10426400FEA3E0FF900442E0F8A3E0F9A3E0FAA380
:10427400E0FB12248D600540030243EF90048AE0C2
:10428400FEA3E07802C333CE33CED8F92430F582CE
:1042940074013EF583E0FCA3E0FDA3E0FEA3E0FF90
:1042A400900442E0F8A3E0F9A3E0FAA3E0FB1224AF
:1042B4008D50030243EFE490048CF0A3F090048A41
:1042C400E0FEA3E07802C333CE33CED8F9FBAA06CE
:1042D4002430F58274013AF583E0FCA3E0FDA3E009
:1042E400FEA3E0FF90048E122BAE74342BF582747F
:1042F400013AF583E0FCA3E0FDA3E0FEA3E0FF9018
:104304000496122BAE90048AE0FEA3E07802C33335
:10431400CE33CED8F9FBAA0690048CE0FEA3E0903D
:10432400016075F028122C05EE75F028A42583F59C
:1043340083E5822BF582E5833AF583E0FCA3E0FD77
:10434400A3E0FEA3E0FF900492122BAE90048CE055
:10435400FEA3E090016475F028122C05EE75F02898
:10436400A42583F583E5822BF582E5833AF583E082
:10437400FCA3E0FDA3E0FEA3E0FF90049A122BAEA1
:10438400789E7C047D017B017A04798E7E007F080F
:104394001228BF7A04799612660FC004C005C006BD
:1043A400C00790048CE0FEA3E07802C333CE33CE82
:1043B400D8F9244AF58274043EF583D007D006D098
:1043C40005D004122BAE90048DE004F07006900426
:1043D4008CE004F0C390048DE0940F90048CE064AE
:1043E40080948050030242C102459790048AE0FE03
:1043F400A3E07802C333CE33CED8F924A8F582746F
:10440400003EF583E0FCA3E0FDA3E0FEA3E0FF9003
:104414000442E0F8A3E0F9A3E0FAA3E0FB12248D40
:10442400500302459790048AE0FEA3E07802C33368
:10443400CE33CED8F924A4F58274003EF583E0FC93
:10444400A3E0FDA3E0FEA3E0FF900442E0F8A3E0B4
:10445400F9A3E0FAA3E0FB12248D600540030245B2
:1044640097E490048CF0A3F090048AE0FEA3E07833
:1044740002C333CE33CED8F9FBAA0624A4F5827442
:10448400003AF583E0FCA3E0FDA3E0FEA3E0FF9087
:10449400048E122BAE74A82BF58274003AF583E0D7
:1044A400FCA3E0FDA3E0FEA3E0FF900496122BAE74
:1044B40090048AE0FEA3E07802C333CE33CED8F969
:1044C400FBAA0690048CE0FEA3E090016075F0283E
:1044D400122C05EE75F028A42583F583E5822BF5CF
:1044E40082E5833AF583E0FCA3E0FDA3E0FEA3E0CC
:1044F400FF900492122BAE90048CE0FEA3E0900196
:104504006475F028122C05EE75F028A42583F58334
:10451400E5822BF582E5833AF583E0FCA3E0FDA375
:10452400E0FEA3E0FF90049A122BAE789E7C047DFB
:10453400017B017A0479967E007F081228BF7A04F1
:10454400798E12660FC004C005C006C00790048CA3
:10455400E0FEA3E07802C333CE33CED8F9244AF583
:104564008274043EF583D007D006D005D004122B04
:10457400AE90048DE004F0700690048CE004F0C367
:1045840090048DE0940F90048CE064809480500338
:1045940002446C90048BE004F06003024235900402
:1045A4008AE004F0024235E490048AF0A3F0900417
:1045B4008AE0FEA3E0FFC3940FEE6480948040037E
:1045C40002470AEF7802C333CE33CED8F924F4F588
:1045D4008274003EF583E0FCA3E0FDA3E0FEA3E0CB
:1045E400FF900446E0F8A3E0F9A3E0FAA3E0FB128D
:1045F400248D50030246F990048AE0FEA3E0780279
:10460400C333CE33CED8F924F8F58274003EF58353
:10461400E0FCA3E0FDA3E0FEA3E0FF900446E0F885
:10462400A3E0F9A3E0FAA3E0FB12248D60054003A4
:104634000246F990048AE0FEA3E07802C333CE3345
:10464400CED8F9FBAA0624F4F58274003AF583E087
:10465400FCA3E0FDA3E0FEA3E0FF90048E122BAECA
:1046640074F82BF58274003AF583E0FCA3E0FDA313
:10467400E0FEA3E0FF900496122BAE90048AE0FEC5
:10468400A3E07802C333CE33CED8F9FBAA06244A7A
:10469400F58274043AF583E0FCA3E0FDA3E0FEA3F5
:1046A400E0FF900492122BAE744E2BF58274043A00
:1046B400F583E0FCA3E0FDA3E0FEA3E0FF90049AF1
:1046C400122BAE789E7C047D017B017A04798E7E68
:1046D400007F081228BF78A67C047D017B017A0440
:1046E40079967E007F081228BF90044612662190B6
:1046F4000486122BAE90048BE004F0700690048ABA
:10470400E004F00245B2900486E0FCA3E0FDA3E0DF
:04471400FEA3E0FF21
:01471800227E
:093C4D0090041EEBF0AA05A90782
:103C5600E490042AF0A3F0A3F0A3F0A3122BBA0079
:103C6600000000900432122BBA00000000900436C7
:103C7600122BBA000000009000D57407F0A374E37D
:103C8600F0AF01127344A3E4F0A3EFF0AF02127396
:103C960044A3E4F0A3EFF090041EE0FF127344EF98
:103CA6002405FDE433FCE412251C9000DB122BAE48
:103CB60090041FE0FF127344AC07E4122521900024
:103CC600DF12733AAC07E41225219000E3122BAE03
:103CD600900421E0FBA3E0FAA3E0F9122AC89004BD
:103CE6002E122BAE78427C047D017B017A0079D5B9
:103CF6007E007F121228BF78547C047D017B017AF6
:103D06000179587E007F081228BF90045C7401F088
:103D1600A37400F0A374F1F0122DB7E4FBFA793422
:103D260078431222E77BD07A0F794978401223F044
:103D36009000CC122BAE9000DAE024AFFF9000D9B1
:103D4600E034FFFE7C017D6812293D7D6D1229A4B9
:103D5600EF25E0FDEE33FC12251C7BD07A0F794966
:103D660078401222E7E4FBFA793478431223F01202
:103D76005BFD7B857AEB791D78411222E7C004C092
:103D860005C006C007E4FFFE7D707C41900000E0A0
:103D9600F8A3E0F9A3E0FAA3E0FB1222E7A804A93E
:103DA60005AA06AB07900158E0FCA3E0FDA3E0FEE0
:103DB600A3E0FF1221F2E4FBFA798078401222E7B1
:103DC600D003D002D001D0001221F6C004C005C035
:103DD60006C0079000DAE024AFFF9000D9E034FF78
:103DE600FE7C017D6812293D7D6D1229A4AC06ADCD
:103DF60007EC12251C7BD07A0F794978401222E70E
:103E0600E4FBFA793478431223F0125BE77BC37A3A
:103E1600F579F078401222E7A804A905AA06AB07AF
:103E2600D007D006D005D0041221F2C004C005C0C8
:103E360006C0079000DAE024AFFF9000D9E034FF17
:103E4600FE7C017D6812293D7D6D1229A4AC06AD6C
:103E560007EC12251C7BD07A0F794978401222E7AD
:103E6600E4FBFA793478431223F0125BFDE4FBFAA3
:103E760079C0783F1222E7A804A905AA06AB07D0A5
:103E860007D006D005D0041221F2E4FBFA79707847
:103E9600421223F09000D0122BAE90041FE0FF12C6
:103EA6007344AC07E4122521E4FBFA7970784212D8
:103EB60023F0C004C005C006C00790041EE0FF1230
:103EC6007344AC07E4122521D003D002D001D00000
:103ED6001221F69000D0E0F8A3E0F9A3E0FAA3E0FF
:103EE600FB1221F69000ED122BAE7FD07E0F7D499E
:103EF6007C409000CCE0F8A3E0F9A3E0FAA3E0FB55
:103F06001222E7E4FBFA793478431223F0125BE7D6
:103F1600C004C005C006C0077FD07E0F7D497C4027
:103F260090015CE0F8A3E0F9A3E0FAA3E0FB12221B
:103F3600E7E4FBFA793478431223F0125BE7D00307
:103F4600D002D001D0001222E7C004C005C006C0CE
:103F560007E4FFFE7D407CC19000EDE0F8A3E0F9A8
:103F6600A3E0FAA3E0FB1221F67BD37A7E793C78B4
:103F7600421222E7E4FBFA793478431223F0125B0B
:103F8600E7D003D002D001D0001222E7C004C0055A
:103F9600C006C0077FD07E0F7D497C409000CCE0F4
:103FA600F8A3E0F9A3E0FAA3E0FB1222E7E4FBFAA8
:103FB600793478431223F0125BFDC004C005C006B5
:103FC600C0077FD07E0F7D497C4090015CE0F8A35E
:103FD600E0F9A3E0FAA3E0FB1222E7E4FBFA793466
:103FE60078431223F0125BFDD003D002D001D0003B
:103FF6001222E7D003D002D001D0001221F61270AF
:10400600747BED7A2E796578421222E790043A1293
:104016002BAEE4FFFE7D407CC19000EDE0F8A3E00E
:10402600F9A3E0FAA3E0FB1221F67BD37A7E793C72
:1040360078421222E7E4FBFA793478431223F0122D
:104046005BFDC004C005C006C0077FD07E0F7D495A
:104056007C409000CCE0F8A3E0F9A3E0FAA3E0FBF3
:104066001222E7E4FBFA793478431223F0125BE775
:10407600D003D002D001D0001222E7C004C005C090
:1040860006C00790043AE0F8A3E0F9A3E0FAA3E03B
:10409600FBE4FFFE7DB47C421221F27BD07A0F79DD
:1040A6004978401222E7E4FBFA793478431223F088
:1040B600125BFDA804A905AA06AB07D007D006D057
:1040C60005D0041223F01270747BED7A2E79657890
:1040D600421222E7E4FBFA793478431221F690047F
:1040E6003E12733AEF30E00302421D7FCD7ECC7D57
:1040F6000C7C4090043AE0F8A3E0F9A3E0FAA3E0D0
:10410600FB12248D500302421DE4FFFE7D887C4293
:1041160090043AE0F8A3E0F9A3E0FAA3E0FB122446
:104126008D6005400302421D90043AE0FCA3E0FDC9
:10413600A3E0FEA3E0FF900446122BAE90043EE0FF
:10414600FCA3E0FDA3E0FEA3E0FF12421E900436AE
:10415600122BAEE4FFFE7D167C43900436E0F8A3F6
:10416600E0F9A3E0FAA3E0FB1221F6900424E0F8BC
:10417600A3E0F9A3E0FAA3E0FB1221F690042E12C5
:104186002BAE900421E0FBA3E0FAA3E0F9122B8EFC
:1041960090042EE0FCA3E0FDA3E0FEA3E0FF1221C5
:1041A600F2900432122BAE900432E0FCA3E0FDA3A1
:1041B600E0FEA3E0FF127495E4FBFAF9783F1224BF
:1041C6008D60025052E4FFFE7D707CC190042EE0AB
:1041D600F8A3E0F9A3E0FAA3E0FB12248D4038E44B
:1041E600FFFE7D527C4390042EE0F8A3E0F9A3E0A5
:1041F600FAA3E0FB12248D6002501C90042EE0FC12
:10420600A3E0FDA3E0FEA3E0FF900421E0FBA3E012
:07421600FAA3E0F9122B18D6
:01421D00227E
:105342009003FAEBF09000D57407F0A374E3F01227
:105352007344A3E4F0A3EFF0AF05127344A3E4F0A7
:10536200A3EFF09003FAE0FF127344EF2405FDE48B
:1053720033FCE412251C9000DB122BAE9003FBE001
:10538200FF127344AC07E41225219000DF122BAE0A
:105392009003FC127340AC07E41225219000E31243
:1053A2002BAE78427C047D017B017A0079D57E00A8
:1053B2007F121228BF78547C047D017B017A017927
:1053C200587E007F081228BF90045C7401F0A37419
:1053D20000F0A374F1F0122DB7E4FBFA79347843AC
:1053E2001222E77BD07A0F794978401223F090009D
:1053F200CC122BAE9000DAE024AFFF9000D9E0345B
:10540200FFFE7C017D6812293D7D6D1229A4EF25E6
:10541200E0FDEE33FC12251C7BD07A0F79497840EF
:105422001222E7E4FBFA793478431223F0125BFD8F
:105432007B857AEB791D78411222E7C004C005C052
:1054420006C007E4FFFE7D707C41900000E0F8A3F7
:10545200E0F9A3E0FAA3E0FB1222E7A804A905AA57
:1054620006AB07900158E0FCA3E0FDA3E0FEA3E039
:10547200FF1221F2E4FBFA798078401222E7D0038E
:10548200D002D001D0001221F6C004C005C006C06F
:10549200079000DAE024AFFF9000D9E034FFFE7CF1
:1054A200017D6812293D7D6D1229A4AC06AD07EC81
:1054B20012251C7BD07A0F794978401222E7E4FB4F
:1054C200FA793478431223F0125BE77BC37AF579D9
:1054D200F078401222E7A804A905AA06AB07D00774
:1054E200D006D005D0041221F2C004C005C006C007
:1054F200079000DAE024AFFF9000D9E034FFFE7C91
:10550200017D6812293D7D6D1229A4AC06AD07EC20
:1055120012251C7BD07A0F794978401222E7E4FBEE
:10552200FA793478431223F0125BFDE4FBFA79C076
:10553200783F1222E7A804A905AA06AB07D007D034
:1055420006D005D0041221F2E4FBFA7970784212F7
:1055520023F09000D0122BAE9003FBE0FF127344B5
:10556200AC07E4122521E4FBFA797078421223F0A9
:10557200C004C005C006C0079003FAE0FF127344DE
:10558200AC07E4122521D003D002D001D0001221B1
:10559200F69000D0E0F8A3E0F9A3E0FAA3E0FB1252
:1055A20021F69000ED122BAE7FD07E0F7D497C401C
:1055B2009000CCE0F8A3E0F9A3E0FAA3E0FB12220A
:1055C200E7E4FBFA793478431223F0125BE7C00474
:1055D200C005C006C0077FD07E0F7D497C40900188
:1055E2005CE0F8A3E0F9A3E0FAA3E0FB1222E7E40F
:1055F200FBFA793478431223F0125BE7D003D0022E
:10560200D001D0001222E7C004C005C006C007E4E2
:10561200FFFE7D407CC19000EDE0F8A3E0F9A3E03D
:10562200FAA3E0FB1221F67BD37A7E793C78421210
:1056320022E7E4FBFA793478431223F0125BE7D0D5
:1056420003D002D001D0001222E7C004C005C00678
:10565200C0077FD07E0F7D497C409000CCE0F8A34C
:10566200E0F9A3E0FAA3E0FB1222E7E4FBFA7934C3
:1056720078431223F0125BFDC004C005C006C007C8
:105682007FD07E0F7D497C4090015CE0F8A3E0F979
:10569200A3E0FAA3E0FB1222E7E4FBFA79347843B1
:1056A2001223F0125BFDD003D002D001D0001222EF
:1056B200E7D003D002D001D0001221F6127074227A
:102DB700E4FBFA79707842900450E0FCA3E0FDA3AD
:102DC700E0FEA3E0FF1223F090044CE0F8A3E0F943
:102DD700A3E0FAA3E0FB1221F6E4FBFA797078424C
:102DE7001223F0900448E0F8A3E0F9A3E0FAA3E087
:102DF700FB1221F6900463122BAE900445E024F2F7
:102E0700FF900444E034FFFE7C007D0C1229A4EE01
:102E17003395E0FDFC900483122BAEE47F0CFEFD9E
:102E2700FC900483E0F8A3E0F9A3E0FAA3E0FB1227
:102E37002A47A804A905AA06AB07900445E024FE83
:102E4700FF900444E034FFFE3395E0FDFCC3EF9BA5
:102E5700FFEE9AFEED99FDEC98FCE47B6F7A01F9A1
:102E6700F8122A47E47B0CFAF9F8126FB0C004C0D5
:102E770005C006C007900443E024C0FF900442E069
:102E87003412FE3395E0FDFC900483E0F8A3E0F9EB
:102E9700A3E0FAA3E02FFFEA3EFEE93DFDE83CFC94
:102EA700E47BB57A05F9F8122A47E47B04FAF9F8C6
:102EB700126FB0D003D002D001D000EF2BFFEE3A53
:102EC700FEED39FDEC38FCC004C005C006C0079014
:102ED7000443E02424FF900442E03413FE3395E0DA
:102EE700FDFC900483E0F8A3E0F9A3E0FAA3E02F48
:102EF700FFEA3EFEE93DFDE83CFCE47B64FAF9F8B5
:102F0700126FB0E47B03FAF9F8122A47E47B04FA5C
:102F1700F9F8126FB0A804A905AA06AB07D007D025
:102F270006D005D004C3EF9BFBEE9AFAED99F9ECB6
:102F370098F8900446E0FEA3E0FFEE3395E0FDFC31
:102F4700EB2FFFEA3EFEE93DFDE83CFCEF24B5FF31
:102F5700EE3482FEED34FFFDEC34FFFC9004871263
:102F67002BAE900487E0FCA3E0FDA3E0FEA3E0FF07
:102F7700EC122517E4FBFAF978BF1221F6C004C05A
:102F870005C006C007E4FBFA79C07841900463E006
:102F9700FCA3E0FDA3E0FEA3E0FF1223F0D003D0E3
:102FA70002D001D0001221F690047F122BAE7F646D
:102FB7007EA17D157CCA90047FE0F8A3E0F9A3E029
:0D2FC700FAA3E0FB1221F690045F122BAE7E
:102FD4007F787E3E7D887C3A90045FE0F8A3E0F938
:102FE400A3E0FAA3E0FB1222E7A804A905AA06AB12
:102FF400077F467E257D097C401221F290048712CA
:103004002BAE7FDE7EEC7D8C7C3C90045FE0F8A3ED
:10301400E0F9A3E0FAA3E0FB1222E77B5B7AA47950
:103024009C78401221F690047F122BAE7F257EEB14
:103034007D8C7C3C90045FE0F8A3E0F9A3E0FAA364
:10304400E0FB1222E77B927AAE79C778401221F630
:10305400900483122BAE900483E0FCA3E0FDA3E074
:10306400FEA3E0FF125BFD7B4A7ADF7908783D120C
:1030740022E790047FE0F8A3E0F9A3E0FAA3E0FBE1
:103084001221F6C004C005C006C007E4FFFEFD7CA3
:1030940040900483E0F8A3E0F9A3E0FAA3E0FB1274
:1030A40022E7125BFD7BEF7AF179B678391222E7D9
:1030B400D003D002D001D0001221F67B297AD17935
:1030C400ED78B81221F6C004C005C006C00790040C
:1030D40087E0FCA3E0FDA3E0FEA3E0FF125BFD7B21
:1030E400EB7A4979AA78371222E7A804A905AA0637
:1030F400AB07D007D006D005D0041221F2900467A4
:10310400122BAE900487E0FCA3E0FDA3E0FEA3E055
:10311400FF125BE77B2D7A18792678381222E7C0F4
:1031240004C005C006C0077FEC7E827DD57C31904B
:10313400045FE0F8A3E0F9A3E0FAA3E0FB1222E7BE
:10314400A804A905AA06AB077F9D7E747DD17C3EA9
:103154001221F2D003D002D001D0001221F6900443
:043164006B122BAE11
:10316800900467E0FCA3E0FDA3E0FEA3E0FF125B90
:10317800FD90047F122BAE90046BE0FCA3E0FDA34E
:10318800E0FEA3E0FF125BE790047FE0F8A3E0F91C
:10319800A3E0FAA3E0FB1222E7900477122BAE908B
:1031A8000467E0FCA3E0FDA3E0FEA3E0FF125BE7F9
:1031B80090047B122BAE90047BE0FCA3E0FDA3E01F
:1031C800FEA3E0FF9004A3122BAE900477E0FCA3CB
:1031D800E0FDA3E0FEA3E0FF12698790046F122BC5
:1031E800AEE4FFFEFDFC90046FE0F8A3E0F9A3E075
:1031F800FAA3E0FB12248D501F90046FE0FCA3E0BB
:10320800FDA3E0FEA3E0FF7BD07A0F79C9784012D6
:1032180021F690046F122BAE90046BE0FCA3E0FD46
:10322800A3E0FEA3E0FF125BFD90047FE0F8A3E0BB
:10323800F9A3E0FAA3E0FB1222E71270749004737A
:03324800122BAE98
:10324B007FE07E927D867C3D90045FE0F8A3E0F901
:10325B00A3E0FAA3E0FB1222E77B4D7A5179D678F3
:10326B00401221F6900463E0F8A3E0F9A3E0FAA37F
:10327B00E0FB1221F690047F122BAEE4FFFE7D7073
:10328B007C4190047FE0F8A3E0F9A3E0FAA3E0FB14
:10329B001222E7900454E0F8A3E0F9A3E0FAA3E0CC
:1032AB00FB1221F67B2E7AFA798E783C1222E7906C
:1032BB000483122BAE90046FE0F8A3E0F9A3E0FABD
:1032CB00A3E0FB900483E0FCA3E0FDA3E0FEA3E0FE
:1032DB00FF1221F290048B122BAE7F2E7EFA7D8E85
:1032EB007C3C900458E0F8A3E0F9A3E0FAA3E0FBE0
:1032FB001222E7900487122BAE900487E0FCA3E028
:10330B00FDA3E0FEA3E0FF125BE790048F122BAE50
:10331B00900487E0FCA3E0FDA3E0FEA3E0FF125BBB
:10332B00FD900493122BAE90048BE0FCA3E0FDA365
:10333B00E0FEA3E0FF125BE7900497122BAE900424
:10334B0073E0FCA3E0FDA3E0FEA3E0FF125BE7C08C
:10335B0004C005C006C007900497E0FCA3E0FDA3E2
:10336B00E0FEA3E0FF90048FE0F8A3E0F9A3E0FAFE
:10337B00A3E0FB1222E7D003D002D001D00012222F
:10338B00E7C004C005C006C007900473E0FCA3E0CF
:10339B00FDA3E0FEA3E0FF125BFD900493E0F8A316
:1033AB00E0F9A3E0FAA3E0FB1222E7D003D002D0AE
:1033BB0001D0001221F6126F6690045CE0FBA3E0D3
:1033CB00FAA3E0F9122B1890048BE0FCA3E0FDA309
:1033DB00E0FEA3E0FF125BFD122506900477122B93
:1033EB00AE900473E0FCA3E0FDA3E0FEA3E0FF12AC
:1033FB005C3990048FE0F8A3E0F9A3E0FAA3E0FBBB
:10340B001222E7C004C005C006C007900497E0FC79
:10341B00A3E0FDA3E0FEA3E0FF900493E0F8A3E09C
:10342B00F9A3E0FAA3E0FB1222E7A804A905AA0678
:10343B00AB07D007D006D005D0041221F290047B45
:10344B00122BAE90047BE0FCA3E0FDA3E0FEA3E017
:10345B00FF9004A3122BAE900477E0FCA3E0FDA336
:10346B00E0FEA3E0FF12698790045CE0FBA3E0FAA7
:10347B00A3E0F9900004122B32900004122AE8E426
:10348B00FBFAF9F812248D602F402D90045CE0FBC1
:10349B00A3E0FAA3E02404F9E43AFAC003C002C0A3
:1034AB0001122AC87BD07A0F79C978401221F6D045
:1034BB0001D002D003122B1890045CE0FBA3E0FABE
:1034CB00A3E02404F9E43AFAC003C002C001122AB3
:1034DB00C87B2E7AFA798E783C1223F0D001D00279
:1034EB00D003122B1890045CE0FBA3E0FAA3E0F9E5
:1034FB00122AC8125BFD7B0D7AA079327838122222
:10350B00E790049B122BAE90045CE0FBA3E0FAA3C4
:10351B00E0F9122AC890049BE0F8A3E0F9A3E0FAC3
:10352B00A3E0FB1221F67B2E7AFA798E783C1223DC
:0F353B00F090045CE0FBA3E0FAA3E0F9122B1878
:0E354A00900473E0FCA3E0FDA3E0FEA3E0FF0D
:013558002250
:10735500C2A4C2A5C2A64391015392FEE4F5974388
:0A7365009D01F5BDF5BE75BC802248
:10716900EF4488F5BC0000E5BC30E4FB53BCEFAF4D
:10717900BD7E00ADBE7C00EF7802C333CE33CED8DE
:09718900F9FFED5403FDEF4DFF89
:0171920022DA
:1071BB00252E34660041542B43495053454E443DD4
:1071CB00390D0A004A0D0A00570D0A004D0D0A0031
:0871DB004C0D0A00540D0A00DE
:1066D200E4900432F0A3F0900430F0A3F09004327E
:1066E200A3E0FF127169AC06AD07900431E025E02A
:1066F200FF900430E033FE741C2FF58274043EF5E3
:1067020083ECF0A3EDF0900431E004F07006900405
:1067120030E004F0C3900431E0940A900430E06465
:1067220080948040B8900430E4F0A304F0900430E8
:10673200E0FEA3E0FFD39409EE648094805047EF1B
:1067420025E0FFEE33FE741C2FF58274043EF583C0
:10675200E0FEA3E0FF90041CE0FCA3E0FDC3EF9D7C
:10676200FFEE9CFE1274AED3EF941EEE6480948012
:106772004004E4FEFF22900431E004F070AF900484
:0A67820030E004F080A77E007F01E4
:01678C0022EA
:0B35590090041CEBF0A3EAF0A3E9F0E3
:10356400E490042DF0A3122BBA3F000000E4900471
:10357400E3F0A3F09005AD122BBA00000000900612
:1035840005122BBA00000000122AC8E4FBFA79A045
:1035940078411221F6900432122BAEE49004E5F047
:1035A400A3F09004E5E0FEA3E0FFC39451EE648031
:1035B40094805025EF25E0FFEE33FE743F2FF58213
:1035C40074043EF583E4F0A3F09004E6E004F070A4
:1035D400D19004E5E004F080C9E49004E5F0A3F0A0
:1035E400E49004E7F0A3F09004E7E0FEA3E0FFC357
:1035F4009405EE648094805035EF4E70069004E399
:10360400F0A3F090042DE0FF1271699004E4E02F20
:10361400F09004E3E03EF07F027E0012725C9004BE
:10362400E8E004F070C19004E7E004F080B990048D
:10363400E3E0FEA3E0FF7C007D051229A4AC06AD07
:10364400079004E6E025E0FF9004E5E033FE743FD4
:103654002FF58274043EF583ECF0A3EDF09004ECB6
:1036640074FFF0A37471F0A374BBF0900432E0FC17
:10367400A3E0FDA3E0FEA3E0FF9004EF122BAE7BDA
:10368400017A04793612477E7BFF7A7179C0127011
:10369400AF7FC87E0012725C7B017A0479361270A7
:1036A400AF7BFF7A7179CF1270AF7F907E01127277
:1036B4005C9004EC74FFF0A37471F0A374BBF090FD
:1036C40004E6E025E0FF9004E5E033FE743F2FF5C7
:1036D4008274043EF583E0FCA3E0FDEC12251CE4B7
:1036E400FBFA798078441223F0E4FBFA79A078405D
:1036F4001222E79004EF122BAE7B017A0479361282
:10370400477E7BFF7A7179C01270AF7FC87E00124A
:10371400725C7B017A0479361270AF7BFF7A71791F
:10372400D31270AF7FC87E0012725CE4FFFEFDFC12
:103734009005ADE0F8A3E0F9A3E0FAA3E0FB1224BE
:103744008D603690062CE0FCA3E0FDA3E0FEA3E030
:10375400FF9005ADE0F8A3E0F9A3E0FAA3E0FB12C3
:10376400248D50059005AD800390062CE0FCA3E069
:10377400FDA3E0FEA3E0FF800E90062CE0FCA3E096
:10378400FDA3E0FEA3E0FF9005AD122BAE90062C46
:10379400E0FCA3E0FDA3E0FEA3E0FF900605E0F853
:1037A400A3E0F9A3E0FAA3E0FB12248D600740052F
:1037B400900605800390062CE0FCA3E0FDA3E0FE48
:1037C400A3E0FF900605122BAE7F08126FF47F056D
:1037D400126FF47F41126C727F44126C727F431239
:1037E4006C727F3A126C729004E6E025E0FF90045C
:1037F400E5E033FE743F2FF58274043EF583E0FC6C
:10380400A3E0FDEC12251CE4FBFA79807844122332
:10381400F0E4FBFA79A078401222E7125E8D7F561D
:10382400126C727F10126C727FC87E0012725C90F0
:1038340004EC74FFF0A37471F0A374BBF090041C47
:10384400E0FBA3E0FAA3E0F9122AC89004EF122BDC
:10385400AE7B017A04793612477E7BFF7A7179C098
:103864001270AF7FC87E0012725C7B017A047936D5
:103874001270AF7BFF7A7179D71270AF7FC87E0068
:1038840012725C9004EC74FFF0A37471F0A374BB27
:10389400F090062CE0FCA3E0FDA3E0FEA3E0FF9083
:1038A40004EF122BAE7B017A04793612477E7BFF3C
:1038B4007A7179C01270AF7FC87E0012725C7B018E
:1038C4007A0479361270AF7BFF7A7179DB1270AFAC
:1038D4007FC87E0012725C90042EE0FCA3E0FDA37E
:1038E400E0FEA3E0FFD20112719390041CE0FBA35D
:1038F400E0FAA3E0F9C003C002C001122AC8E4FB45
:10390400FAF9783F1221F6D001D002D003122B1815
:103914007FC87E0012725C9004EC7401F0A37404FE
:10392400F0A3742BF0A37401F0A37404F0A3742A1D
:10393400F0A37401F0A37404F0A37429F0A3740138
:10394400F0A37404F0A37428F07B017A04792C1298
:103954006D59900429E0FF127344AC07E412252149
:10396400E4FBFA797078421223F0C004C005C00663
:10397400C00790042AE0FF127344AC07E412252127
:10398400D003D002D001D0001221F6C004C005C07B
:1039940006C007900428E0547FFF127344AC07E488
:1039A400122521E4FBFA796178451223F0D003D083
:1039B40002D001D0001221F69004EF122BAE900435
:1039C400EC74FFF0A37471F0A374BBF07B017A0470
:1039D400793612477E7BFF7A7179C01270AF7FC847
:1039E4007E0012725C7B017A0479361270AF7BFF21
:1039F4007A7179DF1270AF7FC87E0012725C900416
:103A0400E6E004F070069004E5E004F0C39004E6F8
:103A1400E094519004E5E06480948050030235E41E
:103A24007FE87E0312725C9004E5E07004A3E06416
:103A3400516003023C4C7B017A04793F126A249062
:103A440004E1EEF0A3EFF0E025E0FF9004E1E033C1
:103A5400FE743F2FF58274043EF583E0F9A3E0FF82
:103A640090041FE0FBA3E0FAA3E0C98FF0122A2818
:103A740090048FE0F9A3E0FF900422E0FBA3E0FAB6
:103A8400A3E0C98FF0122A289004E1E0FEA3E0FF2E
:103A9400C374539FFDE49EFC12251C90042EE0F891
:103AA400A3E0F9A3E0FAA3E0FB1222E7C20112713A
:103AB4009390041CE0FBA3E0FAA3E0F9C003C00266
:103AC400C001122AC8C004C005C006C0079004E1A2
:103AD400E0FEA3E0FFC374539FFDE49EFC12251C8B
:103AE40090042EE0F8A3E0F9A3E0FAA3E0FB12228D
:103AF400E7A804A905AA06AB07D007D006D005D0CD
:103B0400041221F2D001D002D003122B189004EC3D
:103B140074FFF0A37471F0A374BBF090041CE0FB79
:103B2400A3E0FAA3E0F9122AC89004EF122BAE7BAB
:103B3400017A04793612477E7BFF7A7179C012705C
:103B4400AF7FC87E0012725C7B017A0479361270F2
:103B5400AF7BFF7A7179D71270AF7FC87E00127283
:103B64005C9004EC7401F0A37404F0A3742BF0A330
:103B74007401F0A37404F0A3742AF0A37401F0A3F5
:103B84007404F0A37429F0A37401F0A37404F0A3E3
:103B94007428F07B017A04792C126D59900429E081
:103BA400FF127344AC07E4122521E4FBFA79707820
:103BB400421223F0C004C005C006C00790042AE0E6
:103BC400FF127344AC07E4122521D003D002D001C4
:103BD400D0001221F6C004C005C006C00790042816
:103BE400E0547FFF127344AC07E4122521E4FBFA8E
:103BF400796178451223F0D003D002D001D00012AD
:103C040021F69004EF122BAE9004EC74FFF0A37431
:103C140071F0A374BBF07B017A04793612477E7B82
:103C2400FF7A7179C01270AF7FC87E0012725C7B1C
:103C3400017A0479361270AF7BFF7A7179DF1270E2
:083C4400AF7FC87E0012725C24
:013C4C002255
:106A2400E4FDFC9004E9F0A37428F0E4A3F0A3F0DF
:106A34009004EBE0FEA3E0FFC39451EE9400507386
:106A4400EF25E0FFEE338F82F5831229F0FFD3EDBB
:106A54009FEC95F04006AE04AF0580169004ECE080
:106A640025E0FF9004EBE0338F82F5831229F0FFD9
:106A7400AEF0AC06AD079004ECE025E0FF9004EB2B
:106A8400E0338F82F5831229F0B50516ECB5F012C8
:106A94004D600F9004EBE0FFA3E09004E9CFF0A376
:106AA400EFF09004ECE004F070869004EBE004F066
:0B6AB400026A349004E9E0FEA3E0FF5A
:016ABF0022B4
:0B56C2009003F8EFF0A3EDF0A3EBF075
:1056CD0090040C122BBA00000000E4900410F0A31B
:1056DD00F0A3F0A3F0900409E0FBA3E0FAA3E0F936
:1056ED00122AC8900414122BAE9003FDE0FBA3E028
:1056FD00FAA3E0F9122AC8900418122BAE900400F8
:10570D00E0FBA3E0FAA3E0F9E4F5F0122A289004F7
:10571D0006E0FBA3E0FAA3E0F9E4F5F0122A2890E5
:10572D000403E0FBA3E0FAA3E0F9122BEB00000069
:10573D00009005AD122BBA00000000900605122B4B
:10574D00BA000000001266D2EF4E7003025883902B
:10575D0003FBE090041FF09003FCE0900420F0A305
:10576D007401F0A37404F0A37418F0A3122BBAC142
:10577D00A000009003FAE0FB9003F9E0FD9003F820
:10578D00E0FF123C4DE4FFFE7DA07C41900418E04B
:10579D00F8A3E0F9A3E0FAA3E0FB1221F6900403CD
:1057AD00E0FBA3E0FAA3E0F9122B1890041F74019B
:1057BD00F0A37404F0A37410F0A37401F0A37404A7
:1057CD00F0A37412F0A37401F0A37404F0A3741485
:1057DD00F07B017A047918123559900414E0FCA37A
:1057ED00E0FDA3E0FEA3E0FF900409E0FBA3E0FAD7
:1057FD00A3E0F9122B18900410E0F9A3E0FF900438
:10580D0000E0FBA3E0FAA3E0C98FF0122A28900470
:10581D0012E0F9A3E0FF900406E0FBA3E0FAA3E099
:10582D00C98FF0122A28900403E0FBA3E0FAA3E04D
:10583D00F9122B8E900418E0FCA3E0FDA3E0FEA36B
:10584D00E0FF1221F290040C122BAE900418E0FC34
:10585D00A3E0FDA3E0FEA3E0FF9003FDE0FBA3E0CA
:10586D00FAA3E0F9122B1890040CE0FCA3E0FDA3C1
:0B587D00E0FEA3E0FF22E4FFFEFDFCC4
:0158880022FD
:10723100C3EC64809480401CED25E0FFEC338F8229
:10724100F5831229F0640145F07005AF05AE042203
:04725100E4FEFF2236
:017255002216
:0D7113007F027E00127120D2CC7F027E0030
:10712000EF1FAA0670011E4A6013E4FCFDC3ED9434
:0D71300009EC940050EA0DBD00010C80F048
:01713D00222F
:0174F5002274
:0F744E00D2CCD2C712711CC2C712711CC2CC2281
:1073DE00C2CCC2C712711CD2CCC2C77F047E0012AF
:0573EE007120D2C7224E
:10739E00E425E0FBC2CC12711C30C704EB4401FBA8
:0573AE0012711AAF038B
:0173B30022B7
:0574E900127113C2CC7A
:0174EE00227B
:0E745D00C2CCD2C7127113C2CC12711CC2C7AE
:01746B0022FE
:0571E300F91228FEFF77
:0271E800A907F5
:1071EA00E4FBC2CCE930E704D2C78002C2C71271FD
:0F71FA001CD2CCE925E0F912711C0BEBB408E3B1
:017209002262
:10678D009004F1EBF0A3EAF0A3E9F012744E7F014F
:10679D007E001271207F401271E812739EEF70120D
:1067AD009004F1E0FBA3E0FAA3E0F91228E5FF1253
:1067BD0071E812739EEF70109004F1E0FBA3E0FA04
:1067CD00A3E09000011271E312739EEF701090041C
:1067DD00F1E0FBA3E0FAA3E09000021271E3127363
:1067ED009EEF70119004F1E0FBA3E0FAA3E0F990A5
:1067FD0000031271E412739EEF70119004F1E0FB2F
:10680D00A3E0FAA3E0F99000041271E412739EEF75
:10681D0070119004F1E0FBA3E0FAA3E0F9900005FC
:0D682D001271E412739EEF70031273DE22ED
:0D713E007F057E0012714BD2C37F057E00DD
:10714B00EF1FAA0670011E4A6013E4FCFDC3ED9409
:0D715B0004EC940050EA0DBD00010C80F022
:017168002204
:106DC8007B6053B3F143B407C2C1127147E4900327
:106DD800F8F0A3F0C2C3127147EB30E704D2C280C7
:106DE80002C2C212713EEB25E0FB9003F9E004F009
:106DF80070069003F8E004F0C39003F9E09408905B
:106E080003F8E06480948040CBD2C17F0A7E0012F0
:096E1800714B1268E6EF20E0F96D
:016E2100224E
:106CE7007F327E0012714B900403E0FBA3E0FAA30E
:106CF700E0F9122AC8EF2401FFE43EFEE43DFDE47B
:056D07003CFC122B18FA
:106D0C007B06C2C1E4900406F0A3F0C2C312714723
:106D1C00EB30E704D2C28002C2C212713EEB25E016
:106D2C00FB900407E004F07006900406E004F0C346
:106D3C00900407E09408900406E06480948040CBB3
:0C6D4C00D2C11271471268E6EF20E0F996
:016D58002218
:07633D00E090040BF07F0269
:02634400AB07A5
:10634600C2C1127147E490040CF0A3F0C2C31271EB
:1063560047EB30E704D2C28002C2C212713EEB257F
:10636600E0FB90040DE004F0700690040CE004F0ED
:10637600C390040DE0940890040CE064809480407F
:10638600CBE490040CF0A3F0C2C31271479004074B
:10639600A3E0FDA3A3E4FFFEED5480FDE4FCFBFABD
:1063A6007980F8C3122AA47004D2C28002C2C21233
:1063B600713E900407E0FCA3E0FDA3E0FEA3E0FF2E
:1063C6007801122AB5900407122BAE90040DE00452
:1063D600F0700690040CE004F0C390040DE09418ED
:1063E60090040CE064809480409EE490040CF0A33A
:1063F600F0C2C312714790040BE030E704D2C280AA
:1064060002C2C212713E90040BE025E0F090040D2A
:10641600E004F0700690040CE004F0C390040DE074
:10642600940890040CE06480948040C5D2C1127137
:08643600471268E6EF20E0F9CF
:01643E00223B
:02622D00AB07BD
:10622F00E49003FDF0C2C17F05FE12714BE4A3F0B1
:10623F00A3F0C2C3127147EB30E704D2C28002C28F
:10624F00C212713EEB25E0FB9003FFE004F07006F5
:10625F009003FEE004F0C39003FFE094089003FE68
:10626F00E06480948040CBE49003FEF0A3F0C2C3BF
:10627F001271479003F9A3E0FDA3A3E4FFFEED54D1
:10628F0080FDE4FCFBFA7980F8C3122AA47004D2D3
:10629F00C28002C2C212713E9003F9E0FCA3E0FD7E
:1062AF00A3E0FEA3E0FF7801122AB59003F9122BA9
:1062BF00AE9003FFE004F070069003FEE004F0C31D
:1062CF009003FFE094189003FEE064809480409E5A
:1062DF007F0A7E0012714BD2C47F027E0012714B77
:1062EF00E49003FEF0A3F09003FDE025E0F01271BF
:1062FF0045C2C312714730C404E04401F09003FF5C
:10630F00E004F070069003FEE004F0C39003FFE09A
:10631F0094089003FEE06480948040CBD2C1127148
:0D632F00471268E6EF20E0F99003FDE0FF63
:01633C00223E
:1068E600E4FB90040EF0A3F0A3F07905C2C17F0586
:1068F600FE12714BE490040FF0A3F0C2C31271476D
:10690600E930E704D2C28002C2C212713EE925E034
:10691600F9900410E004F0700690040FE004F0C350
:10692600900410E0940890040FE06480948040CBBB
:106936007F0A7E0012714BD2C47F027E0012714B19
:10694600E490040FF0A3F0EB25E0FB127145C2C3FF
:1069560012714730C404EB4401FB900410E004F0CC
:10696600700690040FE004F0C3900410E0940890C1
:10697600040FE06480948040CED2C1127147AF0309
:0169860022EE
:105A1600126D0C900403E0FBA3E0FAA3E0F9122A4E
:105A2600C8900407122BAE9003F812633D9004034E
:105A3600E0FBA3E0FAA3E0F9122AC8EF2401FFE491
:105A46003EFEE43DFDE43CFC122B187F327E001244
:105A5600714B126D0C900403E0FBA3E0FAA3E0F98E
:105A6600122AC8900407122BAE9003F912633D1256
:105A76006CE7900403E0FBA3E0FAA3E0F9122AC85E
:105A8600900407122BAE9003FA12633D126CE79056
:105A96000403E0FBA3E0FAA3E0F9122AC890040786
:105AA600122BAE9003FB12633D126CE7900403E0E9
:105AB600FBA3E0FAA3E0F9122AC8900407122BAE62
:105AC6009003FC12633D126CE7900403E0FBA3E035
:105AD600FAA3E0F9122AC8900407122BAE9003FD30
:105AE60012633D126CE7900403E0FBA3E0FAA3E027
:105AF600F9122AC8900407122BAE9003FE12633DDA
:105B0600126CE7900403E0FBA3E0FAA3E0F9122A83
:105B1600C8900407122BAE9003FF12633D126CE788
:105B2600900403E0FBA3E0FAA3E0F9122AC890046C
:105B360007122BAE90040012633D126CE79004032B
:105B4600E0FBA3E0FAA3E0F9122AC8900407122B9F
:105B5600AE90040112633D126CE7900403E0FBA3D0
:105B6600E0FAA3E0F9122AC8900407122BAE9004BB
